{
  "_format": "hh-sol-artifact-1",
  "contractName": "AnonymousPatientRegistry",
  "sourceName": "contracts/AnonymousPatientRegistry.sol",
  "abi": [
    {
      "inputs": [],
      "stateMutability": "nonpayable",
      "type": "constructor"
    },
    {
      "inputs": [
        {
          "internalType": "bytes32",
          "name": "handle",
          "type": "bytes32"
        },
        {
          "internalType": "address",
          "name": "sender",
          "type": "address"
        }
      ],
      "name": "SenderNotAllowedToUseHandle",
      "type": "error"
    },
    {
      "inputs": [],
      "name": "ZamaProtocolUnsupported",
      "type": "error"
    },
    {
      "anonymous": false,
      "inputs": [
        {
          "indexed": true,
          "internalType": "address",
          "name": "newOwner",
          "type": "address"
        }
      ],
      "name": "OwnershipAccepted",
      "type": "event"
    },
    {
      "anonymous": false,
      "inputs": [
        {
          "indexed": true,
          "internalType": "address",
          "name": "proposedOwner",
          "type": "address"
        }
      ],
      "name": "OwnershipProposed",
      "type": "event"
    },
    {
      "anonymous": false,
      "inputs": [
        {
          "indexed": true,
          "internalType": "uint256",
          "name": "commitment",
          "type": "uint256"
        },
        {
          "indexed": false,
          "internalType": "uint256",
          "name": "timestamp",
          "type": "uint256"
        }
      ],
      "name": "PatientRegistered",
      "type": "event"
    },
    {
      "anonymous": false,
      "inputs": [
        {
          "indexed": true,
          "internalType": "address",
          "name": "accessor",
          "type": "address"
        },
        {
          "indexed": false,
          "internalType": "uint256",
          "name": "timestamp",
          "type": "uint256"
        }
      ],
      "name": "ProfileAccessed",
      "type": "event"
    },
    {
      "inputs": [],
      "name": "acceptOwnership",
      "outputs": [],
      "stateMutability": "nonpayable",
      "type": "function"
    },
    {
      "inputs": [],
      "name": "authorizedEngine",
      "outputs": [
        {
          "internalType": "address",
          "name": "",
          "type": "address"
        }
      ],
      "stateMutability": "view",
      "type": "function"
    },
    {
      "inputs": [],
      "name": "authorizedRegistry",
      "outputs": [
        {
          "internalType": "address",
          "name": "",
          "type": "address"
        }
      ],
      "stateMutability": "view",
      "type": "function"
    },
    {
      "inputs": [
        {
          "internalType": "uint256",
          "name": "_commitment",
          "type": "uint256"
        }
      ],
      "name": "checkRegistration",
      "outputs": [
        {
          "internalType": "bool",
          "name": "",
          "type": "bool"
        }
      ],
      "stateMutability": "view",
      "type": "function"
    },
    {
      "inputs": [],
      "name": "confidentialProtocolId",
      "outputs": [
        {
          "internalType": "uint256",
          "name": "",
          "type": "uint256"
        }
      ],
      "stateMutability": "view",
      "type": "function"
    },
    {
      "inputs": [],
      "name": "dataAccessLog",
      "outputs": [
        {
          "internalType": "contract DataAccessLog",
          "name": "",
          "type": "address"
        }
      ],
      "stateMutability": "view",
      "type": "function"
    },
    {
      "inputs": [
        {
          "internalType": "uint256",
          "name": "_commitment",
          "type": "uint256"
        }
      ],
      "name": "getPatient",
      "outputs": [
        {
          "components": [
            {
              "internalType": "euint8",
              "name": "age",
              "type": "bytes32"
            },
            {
              "internalType": "ebool",
              "name": "gender",
              "type": "bytes32"
            },
            {
              "internalType": "euint16",
              "name": "weight",
              "type": "bytes32"
            },
            {
              "internalType": "euint8",
              "name": "height",
              "type": "bytes32"
            },
            {
              "internalType": "ebool",
              "name": "hasDiabetes",
              "type": "bytes32"
            },
            {
              "internalType": "euint16",
              "name": "hbLevel",
              "type": "bytes32"
            },
            {
              "internalType": "ebool",
              "name": "isSmoker",
              "type": "bytes32"
            },
            {
              "internalType": "ebool",
              "name": "hasHypertension",
              "type": "bytes32"
            },
            {
              "internalType": "bytes32",
              "name": "profileCommitment",
              "type": "bytes32"
            },
            {
              "internalType": "bool",
              "name": "exists",
              "type": "bool"
            }
          ],
          "internalType": "struct AnonymousPatientRegistry.EncryptedPatient",
          "name": "",
          "type": "tuple"
        }
      ],
      "stateMutability": "nonpayable",
      "type": "function"
    },
    {
      "inputs": [],
      "name": "getPatientCount",
      "outputs": [
        {
          "internalType": "uint256",
          "name": "",
          "type": "uint256"
        }
      ],
      "stateMutability": "view",
      "type": "function"
    },
    {
      "inputs": [
        {
          "internalType": "uint256",
          "name": "_commitment",
          "type": "uint256"
        }
      ],
      "name": "getPatientProfile",
      "outputs": [
        {
          "components": [
            {
              "internalType": "euint8",
              "name": "age",
              "type": "bytes32"
            },
            {
              "internalType": "ebool",
              "name": "gender",
              "type": "bytes32"
            },
            {
              "internalType": "euint16",
              "name": "weight",
              "type": "bytes32"
            },
            {
              "internalType": "euint8",
              "name": "height",
              "type": "bytes32"
            },
            {
              "internalType": "ebool",
              "name": "hasDiabetes",
              "type": "bytes32"
            },
            {
              "internalType": "euint16",
              "name": "hbLevel",
              "type": "bytes32"
            },
            {
              "internalType": "ebool",
              "name": "isSmoker",
              "type": "bytes32"
            },
            {
              "internalType": "ebool",
              "name": "hasHypertension",
              "type": "bytes32"
            },
            {
              "internalType": "bytes32",
              "name": "profileCommitment",
              "type": "bytes32"
            },
            {
              "internalType": "bool",
              "name": "exists",
              "type": "bool"
            }
          ],
          "internalType": "struct AnonymousPatientRegistry.EncryptedPatient",
          "name": "",
          "type": "tuple"
        }
      ],
      "stateMutability": "view",
      "type": "function"
    },
    {
      "inputs": [
        {
          "internalType": "uint256",
          "name": "_commitment",
          "type": "uint256"
        }
      ],
      "name": "getProfileCommitment",
      "outputs": [
        {
          "internalType": "bytes32",
          "name": "",
          "type": "bytes32"
        }
      ],
      "stateMutability": "view",
      "type": "function"
    },
    {
      "inputs": [],
      "name": "owner",
      "outputs": [
        {
          "internalType": "address",
          "name": "",
          "type": "address"
        }
      ],
      "stateMutability": "view",
      "type": "function"
    },
    {
      "inputs": [],
      "name": "pendingOwner",
      "outputs": [
        {
          "internalType": "address",
          "name": "",
          "type": "address"
        }
      ],
      "stateMutability": "view",
      "type": "function"
    },
    {
      "inputs": [
        {
          "internalType": "address",
          "name": "_newOwner",
          "type": "address"
        }
      ],
      "name": "proposeOwnership",
      "outputs": [],
      "stateMutability": "nonpayable",
      "type": "function"
    },
    {
      "inputs": [
        {
          "internalType": "uint256",
          "name": "_commitment",
          "type": "uint256"
        },
        {
          "internalType": "address",
          "name": "_permitRecipient",
          "type": "address"
        },
        {
          "internalType": "bytes32",
          "name": "_profileCommitment",
          "type": "bytes32"
        },
        {
          "internalType": "externalEuint8",
          "name": "_age",
          "type": "bytes32"
        },
        {
          "internalType": "externalEbool",
          "name": "_gender",
          "type": "bytes32"
        },
        {
          "internalType": "externalEuint16",
          "name": "_weight",
          "type": "bytes32"
        },
        {
          "internalType": "externalEuint8",
          "name": "_height",
          "type": "bytes32"
        },
        {
          "internalType": "externalEbool",
          "name": "_hasDiabetes",
          "type": "bytes32"
        },
        {
          "internalType": "externalEuint16",
          "name": "_hbLevel",
          "type": "bytes32"
        },
        {
          "internalType": "externalEbool",
          "name": "_isSmoker",
          "type": "bytes32"
        },
        {
          "internalType": "externalEbool",
          "name": "_hasHypertension",
          "type": "bytes32"
        },
        {
          "internalType": "bytes",
          "name": "inputProof",
          "type": "bytes"
        }
      ],
      "name": "registerPatient",
      "outputs": [],
      "stateMutability": "nonpayable",
      "type": "function"
    },
    {
      "inputs": [
        {
          "internalType": "address",
          "name": "_engine",
          "type": "address"
        }
      ],
      "name": "setAuthorizedEngine",
      "outputs": [],
      "stateMutability": "nonpayable",
      "type": "function"
    },
    {
      "inputs": [
        {
          "internalType": "address",
          "name": "_registry",
          "type": "address"
        }
      ],
      "name": "setAuthorizedRegistry",
      "outputs": [],
      "stateMutability": "nonpayable",
      "type": "function"
    },
    {
      "inputs": [
        {
          "internalType": "address",
          "name": "_log",
          "type": "address"
        }
      ],
      "name": "setDataAccessLog",
      "outputs": [],
      "stateMutability": "nonpayable",
      "type": "function"
    }
  ],
  "bytecode": "0x60806040523461021957610011610250565b504660010361013557610022610250565b5061002b61021d565b73ca2e8f1f656cd25c01f05d0b243ab1ecd4a8ffb6815273d82385dada1ae3e969447f20a3164f6213100e7560208201527377627828a55156b04ac0dc0eb30467f1a552bb0360408201525b80517f9e7b61f58c47dc699ac88507c4f5bb9f121c03808c5676a8078fe583e464970080546001600160a01b03199081166001600160a01b039384161790915560208301517f9e7b61f58c47dc699ac88507c4f5bb9f121c03808c5676a8078fe583e4649701805483169184169190911790556040928301517f9e7b61f58c47dc699ac88507c4f5bb9f121c03808c5676a8078fe583e46497028054831691909316179091556005805490911633179055516116d0908161026b8239f35b4662aa36a7036101a057610147610250565b5061015061021d565b73f0ffdc93b7e186bc2f8cb3daa75d86d1930a433d81527392c920834ec8941d2c77d188936e1f7a6f49c127602082015273be0e383937d564d7ff0bc3b46c51f0bf8d5c311a6040820152610077565b46617a690361020a576101b1610250565b506101ba61021d565b7350157cffd6bbfa2dece204a89ec419c23ef5755d815273e3a9105a3a932253a70f126eb1e3b589c643dd24602082015273901f8942346f7ab3a01f6d7613119bca447bb0306040820152610077565b6373cac13b60e01b5f5260045ffd5b5f80fd5b60405190606082016001600160401b0381118382101761023c57604052565b634e487b7160e01b5f52604160045260245ffd5b61025861021d565b905f82525f60208301525f604083015256fe6080806040526004361015610012575f80fd5b5f905f3560e01c9081630798230914610e0257508063090741a014610d4b578063211a6edc14610c375780632d7306e014610c0f5780634b5f873614610b5a5780636d9ab8c2146105ee578063710bf3221461057257806379ba5097146104d15780637d3a67961461026457806382dba829146102205780638927b030146101fd5780638da5cb5b146101d457806397a67ed9146101a5578063c190665b14610187578063e30c39781461015e578063ea813beb146101355763f520f24f146100d9575f80fd5b34610132576020366003190112610132576100f2610e25565b61010760018060a01b03600554163314610ea7565b6001600160a01b031661011b811515610ee0565b600480546001600160a01b03191691909117905580f35b80fd5b50346101325780600319360112610132576003546040516001600160a01b039091168152602090f35b50346101325780600319360112610132576006546040516001600160a01b039091168152602090f35b50346101325780600319360112610132576020600754604051908152f35b50346101325760203660031901126101325760ff60406020926004358152600184522054166040519015158152f35b50346101325780600319360112610132576005546040516001600160a01b039091168152602090f35b50346101325780600319360112610132576020610218611451565b604051908152f35b5034610132576020366003190112610132576008604060209260043580825281855261025460ff6009858520015416610fb8565b8152808452200154604051908152f35b50346101325760203660031901126101325760043590610282610f6e565b506003546001600160a01b0316903382900361049357828152806020526040812091604051926102b184610f1b565b8054845283600182015460208201908152600283015460408301908152600384015494606084019586526004850154906080850191825260058601549160a0860192835260068701549460c0870195865261033260ff600960078b01549a60e08b019b8c5260088101546101008c01520154161515806101208a0152610fb8565b82610425575b50506004546001600160a01b03169650869550610396945050505050575b610392836040514281527f1d7ae4ee06de52300c1bdd3ec36854713ab923185365b8328a2776694a1f325d60203392a260405191829182610e3b565b0390f35b819360405160208101918252426040820152604081526103b7606082610f4b565b51902090803b15610421576064839260405194859384926306cc173360e41b84526002600485015282602485015260448401525af18015610416576103fd575b80610356565b610408838092610f4b565b61041257816103f7565b5080fd5b6040513d85823e3d90fd5b8280fd5b610484986104706104489661045c6104489461044861045c986104489d516113ed565b50516003546001600160a01b031690611414565b50516003546001600160a01b031690611433565b50516003546001600160a01b0316906113ed565b505f8083818080808080610338565b60405162461bcd60e51b81526020600482015260166024820152754f6e6c7920617574686f72697a656420656e67696e6560501b6044820152606490fd5b50346101325780600319360112610132576006546001600160a01b038116903382900361053857600580546001600160a01b03199081168417909155166006557fb27970c1714b28277b78cc17ac2fe9556e7f048cd48358cffe3dc7d547608fdc8280a280f35b60405162461bcd60e51b81526020600482015260126024820152712737ba10383937b837b9b2b21037bbb732b960711b6044820152606490fd5b50346101325760203660031901126101325761058c610e25565b6105a160018060a01b03600554163314610ea7565b6001600160a01b03166105b5811515610ee0565b600680546001600160a01b031916821790557f6ab4d119f23076e8ad491bc65ce85f017fb0591dce08755ba8591059cc51737a8280a280f35b503461098f5761018036600319011261098f576004356024356001600160a01b0381169081810361098f5761016435916044356001600160401b03841161098f573660238501121561098f576004840135916001600160401b03831161098f576024850194602484369201011161098f576002546001600160a01b03163303610b1a5715610add578015610a9e57845f52600160205260ff60405f205416610a59576009926106a96106a1368588611012565b606435611070565b926106c06106b8368389611012565b6084356111c9565b956106d76106cf368484611012565b60a4356112b2565b6106ed6106e5368585611012565b60c435611070565b6107036106fb368686611012565b60e4356111c9565b916107f161074d61074461072461071b368a8a611012565b610104356112b2565b9661073c610733368b84611012565b610124356111c9565b983691611012565b610144356111c9565b966107578a61139b565b506107618c6113ba565b5061076b836113d4565b506107758461139b565b5061077f856113ba565b50610789866113d4565b50610793876113ba565b5061079d886113ba565b506107a8818b6113ed565b506107b3818d611414565b506107be8184611433565b506107c981856113ed565b506107d48186611414565b506107df8187611433565b506107ea8188611414565b5087611414565b506003546001600160a01b0316806109a7575b506040519761081289610f1b565b885260208801998a5260408801908152606088019182526080880192835260a0880193845260c0880194855260e08801958652610100880196875261012088019960018b528b5f525f60205260405f2098518955516001890155516002880155516003870155516004860155516005850155516006840155516007830155516008820155019051151560ff80198354169116179055805f52600160205260405f20600160ff198254161790556007545f198114610993576001016007556004546001600160a01b03168061090f575b507f3349423a6fe6b6d3e501044ee2cbe8d3d8cf2c8cd9f64c55dac54ded27347d7d6020604051428152a280f35b60405160208101908382524260408201526040815261092f606082610f4b565b519020813b1561098f575f916064839260405194859384926306cc173360e41b845282600485015282602485015260448401525af1801561098457156108e15761097c9192505f90610f4b565b5f905f6108e1565b6040513d5f823e3d90fd5b5f80fd5b634e487b7160e01b5f52601160045260245ffd5b6109b190896113ed565b506003546109c8906001600160a01b03168b611414565b506003546109df906001600160a01b031682611433565b506003546109f6906001600160a01b0316836113ed565b50600354610a0d906001600160a01b031684611414565b50600354610a24906001600160a01b031685611433565b50600354610a3b906001600160a01b031686611414565b50600354610a52906001600160a01b031687611414565b505f610804565b60405162461bcd60e51b815260206004820152601d60248201527f436f6d6d69746d656e7420616c726561647920726567697374657265640000006044820152606490fd5b60405162461bcd60e51b815260206004820152601760248201527616995c9bc81c1c9bd99a5b194818dbdb5b5a5d1b595b9d604a1b6044820152606490fd5b60405162461bcd60e51b815260206004820152601560248201527416995c9bc81c195c9b5a5d081c9958da5c1a595b9d605a1b6044820152606490fd5b60405162461bcd60e51b81526020600482015260186024820152774f6e6c7920617574686f72697a656420726567697374727960401b6044820152606490fd5b3461098f57602036600319011261098f57610b73610e25565b610b8860018060a01b03600554163314610ea7565b6001600160a01b0316610b9c811515610ee0565b600754610bb957600380546001600160a01b031916919091179055005b60405162461bcd60e51b815260206004820152602860248201527f43616e6e6f74206368616e676520656e67696e6520616674657220726567697360448201526774726174696f6e7360c01b6064820152608490fd5b3461098f575f36600319011261098f576002546040516001600160a01b039091168152602090f35b3461098f57602036600319011261098f57610c50610f6e565b506002546001600160a01b031633148015610d37575b15610d01576004355f525f60205261039260405f20610cf560ff600960405193610c8f85610f1b565b8054855260018101546020860152600281015460408601526003810154606086015260048101546080860152600581015460a0860152600681015460c0860152600781015460e08601526008810154610100860152015416151580610120840152610fb8565b60405191829182610e3b565b60405162461bcd60e51b815260206004820152600e60248201526d139bdd08185d5d1a1bdc9a5e995960921b6044820152606490fd5b506003546001600160a01b03163314610c66565b3461098f57602036600319011261098f57610d64610e25565b610d7960018060a01b03600554163314610ea7565b6001600160a01b0316610d8d811515610ee0565b600754610daa57600280546001600160a01b031916919091179055005b60405162461bcd60e51b815260206004820152602a60248201527f43616e6e6f74206368616e676520726567697374727920616674657220726567604482015269697374726174696f6e7360b01b6064820152608490fd5b3461098f575f36600319011261098f576004546001600160a01b03168152602090f35b600435906001600160a01b038216820361098f57565b91909161012080610140830194805184526020810151602085015260408101516040850152606081015160608501526080810151608085015260a081015160a085015260c081015160c085015260e081015160e085015261010081015161010085015201511515910152565b15610eae57565b60405162461bcd60e51b815260206004820152600a60248201526927b7363c9037bbb732b960b11b6044820152606490fd5b15610ee757565b60405162461bcd60e51b815260206004820152600c60248201526b5a65726f206164647265737360a01b6044820152606490fd5b61014081019081106001600160401b03821117610f3757604052565b634e487b7160e01b5f52604160045260245ffd5b601f909101601f19168101906001600160401b03821190821017610f3757604052565b60405190610f7b82610f1b565b5f610120838281528260208201528260408201528260608201528260808201528260a08201528260c08201528260e0820152826101008201520152565b15610fbf57565b60405162461bcd60e51b815260206004820152602560248201527f50617469656e74206e6f7420666f756e6420666f72207468697320636f6d6d696044820152641d1b595b9d60da1b6064820152608490fd5b9192916001600160401b038211610f37576040519161103b601f8201601f191660200184610f4b565b82948184528183011161098f578281602093845f960137010152565b9081526001600160a01b03909116602082015260400190565b815190919015611191575f5160206116845f395f51905f525460405163045fc19560e11b81526004810193909352336024840152608060448401528151608484018190526001600160a01b0390911691819060200160a485015e5f83820160a40152602091835f60a482809560026064830152601f801991011681010301925af1908115610984575f9161115f575b505f5160206116a45f395f51905f52546001600160a01b0316803b1561098f575f6040518092630f8e573b60e21b8252818381611140338960048401611057565b03925af1801561098457611152575090565b5f61115c91610f4b565b90565b90506020813d602011611189575b8161117a60209383610f4b565b8101031261098f57515f6110ff565b3d915061116d565b5080156111c0576111a23382611480565b156111aa5790565b630276b5d960e01b5f526004523360245260445ffd5b5061115c61156a565b815190919015611297575f5160206116845f395f51905f525460405163045fc19560e11b81526004810193909352336024840152608060448401528151608484018190526001600160a01b0390911691819060200160a485015e5f83820160a40152602091835f60a4828095836064830152601f801991011681010301925af1908115610984575f9161115f57505f5160206116a45f395f51905f52546001600160a01b0316803b1561098f575f6040518092630f8e573b60e21b8252818381611140338960048401611057565b5080156112a8576111a23382611480565b5061115c5f6115e7565b815190919015611381575f5160206116845f395f51905f525460405163045fc19560e11b81526004810193909352336024840152608060448401528151608484018190526001600160a01b0390911691819060200160a485015e5f83820160a40152602091835f60a482809560036064830152601f801991011681010301925af1908115610984575f9161115f57505f5160206116a45f395f51905f52546001600160a01b0316803b1561098f575f6040518092630f8e573b60e21b8252818381611140338960048401611057565b508015611392576111a23382611480565b5061115c611635565b80156113ac575b61115c308261150a565b506113b561156a565b6113a2565b80156113ca5761115c308261150a565b506113b55f6115e7565b80156113e45761115c308261150a565b506113b5611635565b9081156113ff575b61115c908261150a565b905061115c61140c61156a565b9190506113f5565b9081156114255761115c908261150a565b905061115c61140c5f6115e7565b9081156114445761115c908261150a565b905061115c61140c611635565b4660010361145e57600190565b4662aa36a70361146e5761271190565b617a69461461147b575f90565b5f1990565b5f5160206116a45f395f51905f52546040516382027b6d60e01b81529260209284926001600160a01b031691839182916114bd9160048401611057565b03915afa908115610984575f916114d2575090565b90506020813d602011611502575b816114ed60209383610f4b565b8101031261098f5751801515810361098f5790565b3d91506114e0565b5f5160206116a45f395f51905f52546001600160a01b031691823b1561098f5761154d925f9283604051809681958294635ca4b5b160e11b845260048401611057565b03925af180156109845761155e5750565b5f61156891610f4b565b565b5f5160206116845f395f51905f5254604051639cd07acb60e01b81525f6004820152906001600160a01b0316816044815f602094600260248401525af1908115610984575f916115b8575090565b90506020813d6020116115df575b816115d360209383610f4b565b8101031261098f575190565b3d91506115c6565b5f5160206116845f395f51905f5254604051639cd07acb60e01b815260048101929092526001600160a01b0316816044815f6020948160248401525af1908115610984575f916115b8575090565b5f5160206116845f395f51905f5254604051639cd07acb60e01b81525f6004820152906001600160a01b0316816044815f602094600360248401525af1908115610984575f916115b857509056fe9e7b61f58c47dc699ac88507c4f5bb9f121c03808c5676a8078fe583e46497019e7b61f58c47dc699ac88507c4f5bb9f121c03808c5676a8078fe583e4649700a164736f6c634300081b000a",
  "linkReferences": {},
  "deployedLinkReferences": {}
}