{
  "_format": "hh-sol-artifact-1",
  "contractName": "ConfidentialETH",
  "sourceName": "contracts/ConfidentialETH.sol",
  "abi": [
    {
      "inputs": [],
      "stateMutability": "nonpayable",
      "type": "constructor"
    },
    {
      "inputs": [],
      "name": "ECDSAInvalidSignature",
      "type": "error"
    },
    {
      "inputs": [
        {
          "internalType": "uint256",
          "name": "length",
          "type": "uint256"
        }
      ],
      "name": "ECDSAInvalidSignatureLength",
      "type": "error"
    },
    {
      "inputs": [
        {
          "internalType": "bytes32",
          "name": "s",
          "type": "bytes32"
        }
      ],
      "name": "ECDSAInvalidSignatureS",
      "type": "error"
    },
    {
      "inputs": [],
      "name": "InvalidKMSSignatures",
      "type": "error"
    },
    {
      "inputs": [],
      "name": "InvalidShortString",
      "type": "error"
    },
    {
      "inputs": [
        {
          "internalType": "bytes32",
          "name": "handle",
          "type": "bytes32"
        },
        {
          "internalType": "address",
          "name": "sender",
          "type": "address"
        }
      ],
      "name": "SenderNotAllowedToUseHandle",
      "type": "error"
    },
    {
      "inputs": [
        {
          "internalType": "string",
          "name": "str",
          "type": "string"
        }
      ],
      "name": "StringTooLong",
      "type": "error"
    },
    {
      "inputs": [],
      "name": "ZamaProtocolUnsupported",
      "type": "error"
    },
    {
      "anonymous": false,
      "inputs": [
        {
          "indexed": true,
          "internalType": "address",
          "name": "user",
          "type": "address"
        }
      ],
      "name": "BalanceLocked",
      "type": "event"
    },
    {
      "anonymous": false,
      "inputs": [
        {
          "indexed": true,
          "internalType": "address",
          "name": "user",
          "type": "address"
        }
      ],
      "name": "BalanceUnlocked",
      "type": "event"
    },
    {
      "anonymous": false,
      "inputs": [
        {
          "indexed": true,
          "internalType": "address",
          "name": "user",
          "type": "address"
        }
      ],
      "name": "Deposit",
      "type": "event"
    },
    {
      "anonymous": false,
      "inputs": [],
      "name": "EIP712DomainChanged",
      "type": "event"
    },
    {
      "anonymous": false,
      "inputs": [
        {
          "indexed": true,
          "internalType": "address",
          "name": "from",
          "type": "address"
        },
        {
          "indexed": true,
          "internalType": "address",
          "name": "to",
          "type": "address"
        }
      ],
      "name": "EncryptedTransfer",
      "type": "event"
    },
    {
      "anonymous": false,
      "inputs": [
        {
          "indexed": true,
          "internalType": "address",
          "name": "user",
          "type": "address"
        },
        {
          "indexed": false,
          "internalType": "uint256",
          "name": "requestedWei",
          "type": "uint256"
        },
        {
          "indexed": false,
          "internalType": "uint256",
          "name": "availableWei",
          "type": "uint256"
        }
      ],
      "name": "InsolventWithdrawalAttempted",
      "type": "event"
    },
    {
      "anonymous": false,
      "inputs": [
        {
          "indexed": true,
          "internalType": "address",
          "name": "newOwner",
          "type": "address"
        }
      ],
      "name": "OwnershipAccepted",
      "type": "event"
    },
    {
      "anonymous": false,
      "inputs": [
        {
          "indexed": true,
          "internalType": "address",
          "name": "proposedOwner",
          "type": "address"
        }
      ],
      "name": "OwnershipProposed",
      "type": "event"
    },
    {
      "anonymous": false,
      "inputs": [
        {
          "indexed": false,
          "internalType": "bytes32[]",
          "name": "handlesList",
          "type": "bytes32[]"
        },
        {
          "indexed": false,
          "internalType": "bytes",
          "name": "abiEncodedCleartexts",
          "type": "bytes"
        }
      ],
      "name": "PublicDecryptionVerified",
      "type": "event"
    },
    {
      "anonymous": false,
      "inputs": [
        {
          "indexed": true,
          "internalType": "address",
          "name": "owner",
          "type": "address"
        },
        {
          "indexed": false,
          "internalType": "uint8",
          "name": "exitMode",
          "type": "uint8"
        }
      ],
      "name": "PublicExitCompleted",
      "type": "event"
    },
    {
      "anonymous": false,
      "inputs": [
        {
          "indexed": true,
          "internalType": "address",
          "name": "from",
          "type": "address"
        },
        {
          "indexed": false,
          "internalType": "bytes32",
          "name": "sufficientHandle",
          "type": "bytes32"
        }
      ],
      "name": "TransferSufficiencyPrepared",
      "type": "event"
    },
    {
      "anonymous": false,
      "inputs": [
        {
          "indexed": true,
          "internalType": "address",
          "name": "user",
          "type": "address"
        },
        {
          "indexed": false,
          "internalType": "bytes32",
          "name": "amountHandle",
          "type": "bytes32"
        }
      ],
      "name": "WithdrawAmountRevealed",
      "type": "event"
    },
    {
      "anonymous": false,
      "inputs": [
        {
          "indexed": true,
          "internalType": "address",
          "name": "user",
          "type": "address"
        }
      ],
      "name": "WithdrawCancelled",
      "type": "event"
    },
    {
      "anonymous": false,
      "inputs": [
        {
          "indexed": true,
          "internalType": "address",
          "name": "user",
          "type": "address"
        },
        {
          "indexed": false,
          "internalType": "bytes32",
          "name": "sufficientHandle",
          "type": "bytes32"
        }
      ],
      "name": "WithdrawRequested",
      "type": "event"
    },
    {
      "anonymous": false,
      "inputs": [
        {
          "indexed": true,
          "internalType": "address",
          "name": "user",
          "type": "address"
        }
      ],
      "name": "WithdrawToCancelled",
      "type": "event"
    },
    {
      "anonymous": false,
      "inputs": [
        {
          "indexed": true,
          "internalType": "address",
          "name": "user",
          "type": "address"
        },
        {
          "indexed": false,
          "internalType": "bytes32",
          "name": "sufficientHandle",
          "type": "bytes32"
        }
      ],
      "name": "WithdrawToRequested",
      "type": "event"
    },
    {
      "anonymous": false,
      "inputs": [
        {
          "indexed": true,
          "internalType": "address",
          "name": "user",
          "type": "address"
        }
      ],
      "name": "Withdrawal",
      "type": "event"
    },
    {
      "inputs": [],
      "name": "CANCEL_TIMEOUT_FUNDS",
      "outputs": [
        {
          "internalType": "uint256",
          "name": "",
          "type": "uint256"
        }
      ],
      "stateMutability": "view",
      "type": "function"
    },
    {
      "inputs": [],
      "name": "EXIT_MODE_FAST",
      "outputs": [
        {
          "internalType": "uint8",
          "name": "",
          "type": "uint8"
        }
      ],
      "stateMutability": "view",
      "type": "function"
    },
    {
      "inputs": [],
      "name": "EXIT_MODE_PRIVATE_BATCH",
      "outputs": [
        {
          "internalType": "uint8",
          "name": "",
          "type": "uint8"
        }
      ],
      "stateMutability": "view",
      "type": "function"
    },
    {
      "inputs": [],
      "name": "UNIT_SCALE",
      "outputs": [
        {
          "internalType": "uint256",
          "name": "",
          "type": "uint256"
        }
      ],
      "stateMutability": "view",
      "type": "function"
    },
    {
      "inputs": [],
      "name": "acceptOwnership",
      "outputs": [],
      "stateMutability": "nonpayable",
      "type": "function"
    },
    {
      "inputs": [
        {
          "internalType": "address",
          "name": "_contract",
          "type": "address"
        }
      ],
      "name": "authorizeContract",
      "outputs": [],
      "stateMutability": "nonpayable",
      "type": "function"
    },
    {
      "inputs": [
        {
          "internalType": "address",
          "name": "",
          "type": "address"
        }
      ],
      "name": "authorizedContracts",
      "outputs": [
        {
          "internalType": "bool",
          "name": "",
          "type": "bool"
        }
      ],
      "stateMutability": "view",
      "type": "function"
    },
    {
      "inputs": [],
      "name": "cancelPendingWithdraw",
      "outputs": [],
      "stateMutability": "nonpayable",
      "type": "function"
    },
    {
      "inputs": [
        {
          "internalType": "address",
          "name": "owner_",
          "type": "address"
        },
        {
          "internalType": "address",
          "name": "stealthRecipient",
          "type": "address"
        },
        {
          "internalType": "uint8",
          "name": "exitMode",
          "type": "uint8"
        },
        {
          "internalType": "uint256",
          "name": "nonce",
          "type": "uint256"
        },
        {
          "internalType": "uint256",
          "name": "deadline",
          "type": "uint256"
        },
        {
          "internalType": "bytes",
          "name": "signature",
          "type": "bytes"
        },
        {
          "internalType": "bytes",
          "name": "sufficientCleartexts",
          "type": "bytes"
        },
        {
          "internalType": "bytes",
          "name": "sufficientProof",
          "type": "bytes"
        },
        {
          "internalType": "bytes",
          "name": "amountCleartexts",
          "type": "bytes"
        },
        {
          "internalType": "bytes",
          "name": "amountProof",
          "type": "bytes"
        }
      ],
      "name": "completePublicExit",
      "outputs": [],
      "stateMutability": "nonpayable",
      "type": "function"
    },
    {
      "inputs": [
        {
          "internalType": "bytes",
          "name": "amountCleartexts",
          "type": "bytes"
        },
        {
          "internalType": "bytes",
          "name": "amountProof",
          "type": "bytes"
        }
      ],
      "name": "completeWithdraw",
      "outputs": [],
      "stateMutability": "nonpayable",
      "type": "function"
    },
    {
      "inputs": [
        {
          "internalType": "address",
          "name": "user",
          "type": "address"
        },
        {
          "internalType": "bytes",
          "name": "amountCleartexts",
          "type": "bytes"
        },
        {
          "internalType": "bytes",
          "name": "amountProof",
          "type": "bytes"
        }
      ],
      "name": "completeWithdrawTo",
      "outputs": [],
      "stateMutability": "nonpayable",
      "type": "function"
    },
    {
      "inputs": [],
      "name": "confidentialProtocolId",
      "outputs": [
        {
          "internalType": "uint256",
          "name": "",
          "type": "uint256"
        }
      ],
      "stateMutability": "view",
      "type": "function"
    },
    {
      "inputs": [
        {
          "internalType": "address",
          "name": "_contract",
          "type": "address"
        }
      ],
      "name": "deauthorizeContract",
      "outputs": [],
      "stateMutability": "nonpayable",
      "type": "function"
    },
    {
      "inputs": [],
      "name": "deposit",
      "outputs": [],
      "stateMutability": "payable",
      "type": "function"
    },
    {
      "inputs": [
        {
          "internalType": "address",
          "name": "_recipient",
          "type": "address"
        }
      ],
      "name": "depositFor",
      "outputs": [],
      "stateMutability": "payable",
      "type": "function"
    },
    {
      "inputs": [],
      "name": "eip712Domain",
      "outputs": [
        {
          "internalType": "bytes1",
          "name": "fields",
          "type": "bytes1"
        },
        {
          "internalType": "string",
          "name": "name",
          "type": "string"
        },
        {
          "internalType": "string",
          "name": "version",
          "type": "string"
        },
        {
          "internalType": "uint256",
          "name": "chainId",
          "type": "uint256"
        },
        {
          "internalType": "address",
          "name": "verifyingContract",
          "type": "address"
        },
        {
          "internalType": "bytes32",
          "name": "salt",
          "type": "bytes32"
        },
        {
          "internalType": "uint256[]",
          "name": "extensions",
          "type": "uint256[]"
        }
      ],
      "stateMutability": "view",
      "type": "function"
    },
    {
      "inputs": [
        {
          "internalType": "address",
          "name": "user",
          "type": "address"
        }
      ],
      "name": "getBalance",
      "outputs": [
        {
          "internalType": "euint64",
          "name": "",
          "type": "bytes32"
        }
      ],
      "stateMutability": "view",
      "type": "function"
    },
    {
      "inputs": [
        {
          "internalType": "address",
          "name": "user",
          "type": "address"
        }
      ],
      "name": "getBalanceForAuthorized",
      "outputs": [
        {
          "internalType": "euint64",
          "name": "",
          "type": "bytes32"
        }
      ],
      "stateMutability": "nonpayable",
      "type": "function"
    },
    {
      "inputs": [
        {
          "internalType": "address",
          "name": "user",
          "type": "address"
        }
      ],
      "name": "isBalanceLocked",
      "outputs": [
        {
          "internalType": "bool",
          "name": "",
          "type": "bool"
        }
      ],
      "stateMutability": "view",
      "type": "function"
    },
    {
      "inputs": [
        {
          "internalType": "address",
          "name": "user",
          "type": "address"
        }
      ],
      "name": "lockBalance",
      "outputs": [],
      "stateMutability": "nonpayable",
      "type": "function"
    },
    {
      "inputs": [],
      "name": "owner",
      "outputs": [
        {
          "internalType": "address",
          "name": "",
          "type": "address"
        }
      ],
      "stateMutability": "view",
      "type": "function"
    },
    {
      "inputs": [],
      "name": "pendingOwner",
      "outputs": [
        {
          "internalType": "address",
          "name": "",
          "type": "address"
        }
      ],
      "stateMutability": "view",
      "type": "function"
    },
    {
      "inputs": [
        {
          "internalType": "address",
          "name": "user",
          "type": "address"
        }
      ],
      "name": "pendingWithdrawHandle",
      "outputs": [
        {
          "internalType": "bytes32",
          "name": "",
          "type": "bytes32"
        }
      ],
      "stateMutability": "view",
      "type": "function"
    },
    {
      "inputs": [
        {
          "internalType": "address",
          "name": "user",
          "type": "address"
        }
      ],
      "name": "pendingWithdrawToHandle",
      "outputs": [
        {
          "internalType": "bytes32",
          "name": "",
          "type": "bytes32"
        }
      ],
      "stateMutability": "view",
      "type": "function"
    },
    {
      "inputs": [
        {
          "internalType": "address",
          "name": "from",
          "type": "address"
        },
        {
          "internalType": "euint64",
          "name": "amount",
          "type": "bytes32"
        }
      ],
      "name": "previewTransferSufficiency",
      "outputs": [
        {
          "internalType": "bytes32",
          "name": "",
          "type": "bytes32"
        }
      ],
      "stateMutability": "nonpayable",
      "type": "function"
    },
    {
      "inputs": [
        {
          "internalType": "address",
          "name": "_newOwner",
          "type": "address"
        }
      ],
      "name": "proposeOwnership",
      "outputs": [],
      "stateMutability": "nonpayable",
      "type": "function"
    },
    {
      "inputs": [
        {
          "internalType": "externalEuint64",
          "name": "encryptedUnits",
          "type": "bytes32"
        },
        {
          "internalType": "bytes",
          "name": "inputProof",
          "type": "bytes"
        }
      ],
      "name": "requestWithdraw",
      "outputs": [],
      "stateMutability": "nonpayable",
      "type": "function"
    },
    {
      "inputs": [
        {
          "internalType": "address",
          "name": "user",
          "type": "address"
        },
        {
          "internalType": "address",
          "name": "destination",
          "type": "address"
        },
        {
          "internalType": "externalEuint64",
          "name": "encryptedUnits",
          "type": "bytes32"
        },
        {
          "internalType": "bytes",
          "name": "inputProof",
          "type": "bytes"
        }
      ],
      "name": "requestWithdrawTo",
      "outputs": [],
      "stateMutability": "nonpayable",
      "type": "function"
    },
    {
      "inputs": [
        {
          "internalType": "bytes",
          "name": "sufficientCleartexts",
          "type": "bytes"
        },
        {
          "internalType": "bytes",
          "name": "sufficientProof",
          "type": "bytes"
        }
      ],
      "name": "revealWithdrawAmount",
      "outputs": [
        {
          "internalType": "bytes32",
          "name": "amountHandle",
          "type": "bytes32"
        }
      ],
      "stateMutability": "nonpayable",
      "type": "function"
    },
    {
      "inputs": [
        {
          "internalType": "address",
          "name": "owner_",
          "type": "address"
        },
        {
          "internalType": "bytes",
          "name": "sufficientCleartexts",
          "type": "bytes"
        },
        {
          "internalType": "bytes",
          "name": "sufficientProof",
          "type": "bytes"
        }
      ],
      "name": "revealWithdrawAmountFor",
      "outputs": [
        {
          "internalType": "bytes32",
          "name": "amountHandle",
          "type": "bytes32"
        }
      ],
      "stateMutability": "nonpayable",
      "type": "function"
    },
    {
      "inputs": [
        {
          "internalType": "address",
          "name": "user",
          "type": "address"
        },
        {
          "internalType": "bytes",
          "name": "sufficientCleartexts",
          "type": "bytes"
        },
        {
          "internalType": "bytes",
          "name": "sufficientProof",
          "type": "bytes"
        }
      ],
      "name": "revealWithdrawToAmount",
      "outputs": [
        {
          "internalType": "bytes32",
          "name": "amountHandle",
          "type": "bytes32"
        }
      ],
      "stateMutability": "nonpayable",
      "type": "function"
    },
    {
      "inputs": [
        {
          "internalType": "address",
          "name": "user",
          "type": "address"
        },
        {
          "internalType": "bytes",
          "name": "sufficientCleartexts",
          "type": "bytes"
        },
        {
          "internalType": "bytes",
          "name": "sufficientProof",
          "type": "bytes"
        }
      ],
      "name": "revealWithdrawToAmountFor",
      "outputs": [
        {
          "internalType": "bytes32",
          "name": "amountHandle",
          "type": "bytes32"
        }
      ],
      "stateMutability": "nonpayable",
      "type": "function"
    },
    {
      "inputs": [
        {
          "internalType": "address",
          "name": "from",
          "type": "address"
        },
        {
          "internalType": "address",
          "name": "to",
          "type": "address"
        },
        {
          "internalType": "euint64",
          "name": "amount",
          "type": "bytes32"
        },
        {
          "internalType": "bytes",
          "name": "sufficientCleartexts",
          "type": "bytes"
        },
        {
          "internalType": "bytes",
          "name": "sufficientProof",
          "type": "bytes"
        }
      ],
      "name": "transferEncrypted",
      "outputs": [],
      "stateMutability": "nonpayable",
      "type": "function"
    },
    {
      "inputs": [
        {
          "internalType": "address",
          "name": "user",
          "type": "address"
        }
      ],
      "name": "unlockBalance",
      "outputs": [],
      "stateMutability": "nonpayable",
      "type": "function"
    },
    {
      "inputs": [
        {
          "internalType": "address",
          "name": "",
          "type": "address"
        }
      ],
      "name": "withdrawNonces",
      "outputs": [
        {
          "internalType": "uint256",
          "name": "",
          "type": "uint256"
        }
      ],
      "stateMutability": "view",
      "type": "function"
    },
    {
      "stateMutability": "payable",
      "type": "receive"
    }
  ],
  "bytecode": "0x6101606040523461035657604051610018604082610389565b6018815260208101907f4d65645661756c7420436f6e666964656e7469616c4554480000000000000000825260405191610053604084610389565b600183526020830191603160f81b835261006b61067a565b504660010361026a5761007c61067a565b506040516100898161035a565b73ca2e8f1f656cd25c01f05d0b243ab1ecd4a8ffb6815273d82385dada1ae3e969447f20a3164f6213100e7560208201527377627828a55156b04ac0dc0eb30467f1a552bb0360408201525b80517f9e7b61f58c47dc699ac88507c4f5bb9f121c03808c5676a8078fe583e464970080546001600160a01b03199081166001600160a01b039384161790915560208301517f9e7b61f58c47dc699ac88507c4f5bb9f121c03808c5676a8078fe583e4649701805483169184169190911790556040909201517f9e7b61f58c47dc699ac88507c4f5bb9f121c03808c5676a8078fe583e464970280549093169116179055610182816103ac565b6101205261018f84610542565b61014052519020918260e05251902080610100524660a0526040519060208201927f8b73c3c69bb8fe3d512ecc4cf759cc79239f7b179b0ffacaa9a75d522b39400f8452604083015260608201524660808201523060a082015260a081526101f860c082610389565b5190206080523060c052600980546001600160a01b031916331790556001600b556040516130d79081610699823960805181612b70015260a05181612c2d015260c05181612b3a015260e05181612bbf01526101005181612be5015261012051816108f60152610140518161091f0152f35b4662aa36a7036102d95761027c61067a565b506040516102898161035a565b73f0ffdc93b7e186bc2f8cb3daa75d86d1930a433d81527392c920834ec8941d2c77d188936e1f7a6f49c127602082015273be0e383937d564d7ff0bc3b46c51f0bf8d5c311a60408201526100d5565b46617a6903610347576102ea61067a565b506040516102f78161035a565b7350157cffd6bbfa2dece204a89ec419c23ef5755d815273e3a9105a3a932253a70f126eb1e3b589c643dd24602082015273901f8942346f7ab3a01f6d7613119bca447bb03060408201526100d5565b6373cac13b60e01b5f5260045ffd5b5f80fd5b606081019081106001600160401b0382111761037557604052565b634e487b7160e01b5f52604160045260245ffd5b601f909101601f19168101906001600160401b0382119082101761037557604052565b908151602081105f14610426575090601f8151116103e65760208151910151602082106103d7571790565b5f198260200360031b1b161790565b604460209160405192839163305a27a960e01b83528160048401528051918291826024860152018484015e5f828201840152601f01601f19168101030190fd5b6001600160401b038111610375575f54600181811c91168015610538575b602082101461052457601f81116104f2575b50602092601f821160011461049357928192935f92610488575b50508160011b915f199060031b1c1916175f5560ff90565b015190505f80610470565b601f198216935f8052805f20915f5b8681106104da57508360019596106104c2575b505050811b015f5560ff90565b01515f1960f88460031b161c191690555f80806104b5565b919260206001819286850151815501940192016104a2565b5f8052601f60205f20910160051c810190601f830160051c015b8181106105195750610456565b5f815560010161050c565b634e487b7160e01b5f52602260045260245ffd5b90607f1690610444565b908151602081105f1461056d575090601f8151116103e65760208151910151602082106103d7571790565b6001600160401b03811161037557600154600181811c91168015610670575b602082101461052457601f811161063d575b50602092601f82116001146105dc57928192935f926105d1575b50508160011b915f199060031b1c19161760015560ff90565b015190505f806105b8565b601f1982169360015f52805f20915f5b868110610625575083600195961061060d575b505050811b0160015560ff90565b01515f1960f88460031b161c191690555f80806105ff565b919260206001819286850151815501940192016105ec565b60015f52601f60205f20910160051c810190601f830160051c015b818110610665575061059e565b5f8155600101610658565b90607f169061058c565b604051906106878261035a565b5f604083828152826020820152015256fe60806040526004361015610022575b3615610018575f80fd5b6100206121a1565b005b5f3560e01c806303301bff1461189a578063275a9a64146118695780632e10e738146116645780633d4a19811461145757806354ac63f41461143b5780635c0dd7761461142357806362deca1f146113f357806367561d93146113975780636ba7a27414610e475780636e861c0e14610df9578063710bf32214610d7f57806372f4121b14610d635780637441b8bb14610c7b578063762d524914610c6057806379ba509714610bc15780637a64c7c414610a835780637ca79b0d14610a485780637f90c325146109d657806384b0196e146108de57806387acc7b81461074c5780638927b030146107325780638ab44bca146106f75780638da5cb5b146106cf5780638e7945b714610692578063aa67c91914610612578063b158e39a146105f3578063c4a30c9c14610584578063ce7a60ab146104a2578063d0e30db01461048f578063d5b9221b14610452578063d7f78c3214610438578063e30c397814610410578063f35a401c1461021b578063f5aa42bb146101e35763f8b2cb4f0361000e57346101df5760203660031901126101df576001600160a01b036101c861196f565b165f526002602052602060405f2054604051908152f35b5f80fd5b346101df5760203660031901126101df576001600160a01b0361020461196f565b165f526008602052602060405f2054604051908152f35b346101df5760a03660031901126101df5761023461196f565b61023c611985565b604435916064356001600160401b0381116101df5761025f90369060040161199b565b9092608435929091906001600160401b0384116101df576103096103809261028e61039396369060040161199b565b9160018060a01b0360095416331480156103f8575b6102ac90611a9d565b60018060a01b03851698895f5260066020526102cf60ff60405f20541615611ada565b895f5260026020526102e660405f20541515611b25565b895f5260026020526103046102ff8c60405f2054612217565b6122d5565b612735565b845f52600260205261031f8660405f205461268a565b5f86815260026020526040808220929092556001600160a01b03851680825291902054909690156103e65761036090875f52600260205260405f2054612ee0565b865f52600260205260405f20555b845f52600260205260405f205461270e565b50835f52600260205260405f205461270e565b50805f5260026020526103a960405f20546125e2565b50815f5260026020526103bf60405f20546125e2565b507f8fb556326f22f916c68b89ac61b2b94546e36d300cdf1f2398ecaada4b2574005f80a3005b865f52600260205260405f205561036e565b50335f9081526003602052604090205460ff166102a3565b346101df575f3660031901126101df57600a546040516001600160a01b039091168152602090f35b346101df575f3660031901126101df5760206040515f8152f35b346101df5760203660031901126101df576001600160a01b0361047361196f565b165f526003602052602060ff60405f2054166040519015158152f35b5f3660031901126101df576100206121a1565b346101df5760203660031901126101df576104bb61196f565b6009546001600160a01b03163314801561056c575b6104d990611a9d565b6001600160a01b03165f8181526007602052604090205460ff161561053257805f52600760205260405f2060ff1981541690557f8b27541935181bbd0969f701f3312d563150cdc3bc0e6bfeffa3960bf66b22da5f80a2005b60405162461bcd60e51b815260206004820152601260248201527110985b185b98d9481b9bdd081b1bd8dad95960721b6044820152606490fd5b50335f9081526003602052604090205460ff166104d0565b346101df5760203660031901126101df5761059d61196f565b335f5260036020526105b560ff60405f205416611a9d565b60018060a01b03165f526002602052602060405f2054806105d9575b604051908152f35b6105e2816125e2565b506105ed338261270e565b506105d1565b346101df575f3660031901126101df57602060405164e8d4a510008152f35b60203660031901126101df5761002061062961196f565b6009546001600160a01b03163314801561067a575b61064790611a9d565b610652341515611d2c565b61066364e8d4a51000341015612158565b64e8d4a5100034046001600160401b0316906127d7565b50335f9081526003602052604090205460ff1661063e565b346101df5760203660031901126101df576001600160a01b036106b361196f565b165f526007602052602060ff60405f2054166040519015158152f35b346101df575f3660031901126101df576009546040516001600160a01b039091168152602090f35b346101df5760203660031901126101df576001600160a01b0361071861196f565b165f5260056020526020600160405f200154604051908152f35b346101df575f3660031901126101df5760206105d16127a8565b346101df576107c261075d366119c8565b906107706002600b969496541415611b5e565b6002600b55335f52600460205260405f206107b16040519161079183611c5f565b805483526002600182015491826020860152015460408401521515611cee565b51946001600160401b039486612622565b16906108148215916107d48315611d2c565b335f5260046020525f6002604082208281558260018201550155335f52600660205260405f2060ff198154169055335f52600260205260405f205461268a565b335f81815260026020526040902082905561082e9161270e565b50335f52600260205261084460405f20546125e2565b5064e8d4a51000820291820464e8d4a510001417156108ca578061086d61088c92471015611d6d565b5f80808084335af19061087e611dc2565b5081156108a5575b50611df1565b335f51602061308b5f395f51905f525f80a26001600b55005b4760405191825260208201525f51602061306b5f395f51905f5260403392a282610886565b634e487b7160e01b5f52601160045260245ffd5b346101df575f3660031901126101df5761097a61091a7f0000000000000000000000000000000000000000000000000000000000000000612ced565b6109437f0000000000000000000000000000000000000000000000000000000000000000612e10565b6020610988604051926109568385611c7a565b5f84525f368137604051958695600f60f81b875260e08588015260e0870190611a79565b908582036040870152611a79565b4660608501523060808501525f60a085015283810360c08501528180845192838152019301915f5b8281106109bf57505050500390f35b8351855286955093810193928101926001016109b0565b346101df576020610a246109e936611a18565b936109fc6002600b959395541415611b5e565b6002600b556009546001600160a01b031633148015610a31575b610a1f90611a9d565b61237f565b6001600b55604051908152f35b50335f90815260038852604090205460ff16610a16565b346101df5760203660031901126101df576001600160a01b03610a6961196f565b165f5260046020526020600160405f200154604051908152f35b346101df5760403660031901126101df576024356001600160401b0381116101df57610b06610ab9610b0e92369060040161199b565b610ac86002600b541415611b5e565b6002600b55335f526007602052610ae660ff60405f20541615611baa565b335f526006602052610aff60ff60405f20541615611be7565b3691611cb8565b600435612431565b610b17816125e2565b50335f526002602052610b3c6102ff8260405f2054610b37811515611b25565b612217565b9060405190610b4a82611c5f565b81526002602082018381526040830190428252335f52600460205260405f209351845551600184015551910155335f52600660205260405f20600160ff198254161790556040519081527f6b354985518f8b6cfb2f751a0de1ca7cfee449239f4489bddd3fd2b04159975b60203392a26001600b55005b346101df575f3660031901126101df57600a546001600160a01b0381169033829003610c2657600980546001600160a01b0319908116841790915516600a557fb27970c1714b28277b78cc17ac2fe9556e7f048cd48358cffe3dc7d547608fdc5f80a2005b60405162461bcd60e51b81526020600482015260126024820152712737ba10383937b837b9b2b21037bbb732b960711b6044820152606490fd5b346101df575f3660031901126101df57602060405160018152f35b346101df5760203660031901126101df57610c9461196f565b6009546001600160a01b031633148015610d4b575b610cb290611a9d565b6001600160a01b03165f8181526007602052604090205460ff16610d0d57805f52600760205260405f20600160ff198254161790557fc5f84593e7086c66a205abab7ee44e1a8e6db58e50bf18ca46cb8239118b5ecd5f80a2005b60405162461bcd60e51b815260206004820152601660248201527510985b185b98d948185b1c9958591e481b1bd8dad95960521b6044820152606490fd5b50335f9081526003602052604090205460ff16610ca9565b346101df575f3660031901126101df576020604051610e108152f35b346101df5760203660031901126101df57610d9861196f565b610dad60018060a01b036009541633146120e4565b6001600160a01b0316610dc181151561211d565b600a80546001600160a01b031916821790557f6ab4d119f23076e8ad491bc65ce85f017fb0591dce08755ba8591059cc51737a5f80a2005b346101df5760203660031901126101df57610e1261196f565b610e2760018060a01b036009541633146120e4565b6001600160a01b03165f908152600360205260409020805460ff19169055005b346101df576101403660031901126101df57610e6161196f565b610e69611985565b6044359160ff831683036101df576064359060a4356001600160401b0381116101df57610e9a90369060040161199b565b9060c4356001600160401b0381116101df57610eba90369060040161199b565b90919060e4356001600160401b0381116101df57610edc90369060040161199b565b949092610104356001600160401b0381116101df57610eff90369060040161199b565b969094610124356001600160401b0381116101df57610f2290369060040161199b565b959097610f346002600b541415611b5e565b6002600b55608435421161135a576001600160a01b038d16156113245760ff8e16158e8115611316575b50156112dd576001600160a01b038b165f908152600860205260409020548c036112a8578d958c958c8f600160a01b6001900382165f52600460205260405f20986040519a8b9a610fae8c611c5f565b80548c5260018101549b8c91602082019d8e526002015490604001521515610fd590611cee565b8a516040519360208501957f2e51c888089deb11345943ac0c116e5e22269aceb5f1e0130bdf72fbbe246f188752600160a01b60019003166040860152600160a01b60019003166060850152608084015260ff1660a083015260c082015260843560e082015260e0815261104b61010082611c7a565b519020611056612b37565b906040519161190160f01b8352600283015260228201526042902091369061107d92611cb8565b61108691612c53565b61108f91612c8d565b6001600160a01b038c811691160361126f576110ab9451612735565b51928315611259575b83946110c36110ec9495612919565b6001600160a01b0387165f9081526004602052604090208690556001600160401b039486612622565b16928315916110fb8315611d2c565b600182018092116108ca576001600160a01b0384165f908152600860209081526040808320949094556004815283822082815560018101839055600290810183905560068252848320805460ff191690559052919091205461115d919061268a565b6001600160a01b0383165f90815260026020526040902081905561118290839061270e565b506001600160a01b0382165f908152600260205260409020546111a4906125e2565b5064e8d4a51000830292830464e8d4a510001417156108ca5761120e825f808080847fbb58d86bb78d4644e71a4d4b42240051fe9ae0329e6a67c23512ca025db4e418996111f660209a471015611d6d565b5af190611201611dc2565b50811561122b5750611df1565b60405160ff9490941684526001600160a01b031692a26001600b55005b6040805191825247868301526001600160a01b038516915f51602061306b5f395f51905f529190a286610886565b6110ec929350611267612f64565b9392506110b4565b60405162461bcd60e51b8152602060048201526011602482015270496e76616c6964207369676e617475726560781b6044820152606490fd5b60405162461bcd60e51b815260206004820152600d60248201526c496e76616c6964206e6f6e636560981b6044820152606490fd5b60405162461bcd60e51b8152602060048201526011602482015270496e76616c69642065786974206d6f646560781b6044820152606490fd5b6001915060ff16148e610f5e565b60405162461bcd60e51b815260206004820152600e60248201526d16995c9bc81c9958da5c1a595b9d60921b6044820152606490fd5b60405162461bcd60e51b8152602060048201526015602482015274105d5d1a1bdc9a5e985d1a5bdb88195e1c1a5c9959605a1b6044820152606490fd5b346101df5760203660031901126101df576113b061196f565b6113c560018060a01b036009541633146120e4565b6001600160a01b03166113d981151561211d565b5f908152600360205260409020805460ff19166001179055005b346101df576020610a2461140636611a18565b936114196002600b959395541415611b5e565b6002600b55611e2f565b346101df575f3660031901126101df57610020611f7c565b346101df5760206105d161144e36611a18565b93929092611e2f565b346101df5761146536611a18565b93926114766002600b541415611b5e565b6002600b556009546001600160a01b03163314801561164c575b61149990611a9d565b60018060a01b03841694855f52600560205260405f2090604051936114bd85611c30565b8254855260018301546020860181905260028401546001600160a01b0316604087019081526003850154606088015260049094015460ff161515608087019081529061150a901515611cee565b511561160c5791519351946001600160a01b03909416936001600160401b039361153693919087612622565b169182156115448115611d2c565b64e8d4a51000840293840464e8d4a510001417156108ca575f808481946115d389986115b4859761157a6115f49b471015611d6d565b8b8752600560205261158e60408820611da5565b8b875260066020526040872060ff1981541690558b87526002602052604087205461268a565b8a8652600260205260408620558985526002602052604085205461270e565b5087835260026020526115e960408420546125e2565b505af1610886611dc2565b5f51602061308b5f395f51905f525f80a26001600b55005b60405162461bcd60e51b815260206004820152601860248201527714dd59999a58da595b98de481b9bdd081d995c9a599a595960421b6044820152606490fd5b50335f9081526003602052604090205460ff16611490565b346101df5760803660031901126101df5761167d61196f565b611685611985565b6064356001600160401b0381116101df576116a490369060040161199b565b92909160018060a01b036009541633148015611851575b6116c490611a9d565b6116d36002600b541415611b5e565b6002600b556001600160a01b031680156118195761175361174b7f159e2724986a63ffefbd1c8cd894910fa443b5b69d7f7618e2964423f87bcb839460209460018060a01b031696875f526007865261173360ff60405f20541615611baa565b875f5260068652610aff60ff60405f20541615611be7565b604435612431565b9061175d826125e2565b50845f5260028352600461177e6102ff8460405f2054610b37811515611b25565b926040519061178c82611c30565b81528481019284845260408201908152606082019042825260808301945f8652895f526005885260405f2093518455516001840155600283019060018060a01b0390511660018060a01b0319825416179055516003820155019051151560ff80198354169116179055835f526006825260405f20600160ff19825416179055604051908152a26001600b55005b60405162461bcd60e51b815260206004820152601060248201526f2d32b937903232b9ba34b730ba34b7b760811b6044820152606490fd5b50335f9081526003602052604090205460ff166116bb565b346101df576020610a2461187c366119c8565b9261188f6002600b949394541415611b5e565b6002600b553361237f565b346101df5760403660031901126101df5760206118b561196f565b6009546001600160a01b031633148015611958575b6118d390611a9d565b6001600160a01b03165f8181526006835260409020546118f69060ff1615611ada565b805f526002825261190c60405f20541515611b25565b805f52600282526119266102ff60243560405f2054612217565b907f61fe12c06a644b7e30d3cc773b470f5208e74ef3d4e99dca7565191ca0d8dbc783604051848152a2604051908152f35b50335f90815260038352604090205460ff166118ca565b600435906001600160a01b03821682036101df57565b602435906001600160a01b03821682036101df57565b9181601f840112156101df578235916001600160401b0383116101df57602083818601950101116101df57565b60406003198201126101df576004356001600160401b0381116101df57816119f29160040161199b565b90929091602435906001600160401b0382116101df57611a149160040161199b565b9091565b9060606003198301126101df576004356001600160a01b03811681036101df57916024356001600160401b0381116101df5781611a579160040161199b565b90929091604435906001600160401b0382116101df57611a149160040161199b565b805180835260209291819084018484015e5f828201840152601f01601f1916010190565b15611aa457565b60405162461bcd60e51b815260206004820152600e60248201526d139bdd08185d5d1a1bdc9a5e995960921b6044820152606490fd5b15611ae157565b606460405162461bcd60e51b815260206004820152602060248201527f50656e64696e6720776974686472617720626c6f636b73207472616e736665726044820152fd5b15611b2c57565b60405162461bcd60e51b815260206004820152600a6024820152694e6f2062616c616e636560b01b6044820152606490fd5b15611b6557565b60405162461bcd60e51b815260206004820152601f60248201527f5265656e7472616e637947756172643a207265656e7472616e742063616c6c006044820152606490fd5b15611bb157565b60405162461bcd60e51b815260206004820152600e60248201526d10985b185b98d9481b1bd8dad95960921b6044820152606490fd5b15611bee57565b60405162461bcd60e51b815260206004820152601a6024820152795769746864726177616c20616c72656164792070656e64696e6760301b6044820152606490fd5b60a081019081106001600160401b03821117611c4b57604052565b634e487b7160e01b5f52604160045260245ffd5b606081019081106001600160401b03821117611c4b57604052565b601f909101601f19168101906001600160401b03821190821017611c4b57604052565b6001600160401b038111611c4b57601f01601f191660200190565b929192611cc482611c9d565b91611cd26040519384611c7a565b8294818452818301116101df578281602093845f960137010152565b15611cf557565b60405162461bcd60e51b815260206004820152600f60248201526e4e6f7468696e672070656e64696e6760881b6044820152606490fd5b15611d3357565b60405162461bcd60e51b81526020600482015260126024820152710416d6f756e74206d757374206265203e20360741b6044820152606490fd5b15611d7457565b60405162461bcd60e51b8152602060048201526009602482015268125b9cdbdb1d995b9d60ba1b6044820152606490fd5b60045f918281558260018201558260028201558260038201550155565b3d15611dec573d90611dd382611c9d565b91611de16040519384611c7a565b82523d5f602084013e565b606090565b15611df857565b60405162461bcd60e51b815260206004820152600f60248201526e151c985b9cd9995c8819985a5b1959608a1b6044820152606490fd5b92611ec59294919360018060a01b036009541633148015611f22575b611e5490611a9d565b60018060a01b031694855f52600560205260405f209460405195611e7787611c30565b8054875260018101546020880181815260028301546001600160a01b031660408a0152600383015460608a015260049092015460ff1615156080890152611ebf901515611cee565b51612735565b51908115611f12575b611ed782612919565b5f81815260056020908152604091829020848155600401805460ff1916600117905590518381525f51602061302b5f395f51905f529190a290565b9050611f1c612f64565b90611ece565b50335f9081526003602052604090205460ff16611e4b565b15611f4157565b60405162461bcd60e51b8152602060048201526013602482015272151a5b595bdd5d081b9bdd08195b185c1cd959606a1b6044820152606490fd5b335f5260046020526040805f208151611f9481611c5f565b815481526002600183015492836020840152015492839101526120785750335f52600560205260405f20612011604051611fcd81611c30565b8254815260018301549081602082015260018060a01b036002850154166040820152608060ff60046003870154966060850197885201541615159101521515611cee565b51610e1081018091116108ca57612029904211611f3a565b335f52600560205261203d60405f20611da5565b335f52600660205260405f2060ff198154169055337f1f268c08e7ecec3c5d80367de19c53863bff57a6c64bc13cecc1a186491f113e5f80a2565b610e1081018091116108ca5761208f904211611f3a565b335f5260046020525f6002604082208281558260018201550155335f52600660205260405f2060ff198154169055337f8b775bb80a5d4addc5ea2601b2378ae89a1bb9010227157ac02aa71498e799c45f80a2565b156120eb57565b60405162461bcd60e51b815260206004820152600a60248201526927b7363c9037bbb732b960b11b6044820152606490fd5b1561212457565b60405162461bcd60e51b815260206004820152600c60248201526b5a65726f206164647265737360a01b6044820152606490fd5b1561215f57565b60405162461bcd60e51b815260206004820152601a60248201527909ad2dc40c8cae0dee6d2e840d2e6406240dad2c6e4de5a8aa8960331b6044820152606490fd5b6121b06002600b541415611b5e565b6002600b556121c0341515611d2c565b6121d164e8d4a51000341015612158565b6121eb64e8d4a5100034046001600160401b0316336127d7565b337f8ce0bd46ec50cf39f0d0ea8686a686eb226af5796dcda4231b26fb84b5ef12345f80a26001600b55565b9081156122c5575b80156122b3575b602090606460018060a01b035f51602061304b5f395f51905f525416935f6040519586948593631391547f60e01b8552600485015260248401528160448401525af19081156122a8575f91612279575090565b90506020813d6020116122a0575b8161229460209383611c7a565b810103126101df575190565b3d9150612287565b6040513d5f823e3d90fd5b5060206122be612f64565b9050612226565b90506122cf612f64565b9061221f565b80156122e8575b6122e581612919565b90565b505f51602061304b5f395f51905f5254604051639cd07acb60e01b81525f6004820152906001600160a01b0316816044815f6020948160248401525af19081156122a8575f91612339575b506122dc565b90506020813d602011612363575b8161235460209383611c7a565b810103126101df57515f612333565b3d9150612347565b634e487b7160e01b5f52602160045260245ffd5b926123cf929594919360018060a01b031695865f52600460205260405f2094604051956123ab87611c5f565b80548752611ebf6001820154600260208a0193828552015460408a01521515611cee565b51918215612408575b6123e183612919565b5f51602061302b5f395f51905f52602084835f52600482528060405f2055604051908152a2565b9150612412612f64565b916123d8565b9081526001600160a01b03909116602082015260400190565b815190919015612537575f51602061304b5f395f51905f525460405163045fc19560e11b815260048101939093523360248401526080604484015260209183916001600160a01b03169082905f90829061248f906084830190611a79565b6005606483015203925af19081156122a8575f91612505575b505f5160206130ab5f395f51905f52546001600160a01b0316803b156101df575f6040518092630f8e573b60e21b82528183816124e9338960048401612418565b03925af180156122a8576124fb575090565b5f6122e591611c7a565b90506020813d60201161252f575b8161252060209383611c7a565b810103126101df57515f6124a8565b3d9150612513565b5080156125d9575f5160206130ab5f395f51905f52546040516382027b6d60e01b81529060209082906001600160a01b03168180612579338860048401612418565b03915afa9081156122a8575f916125aa575b50156125945790565b630276b5d960e01b5f526004523360245260445ffd5b6125cc915060203d6020116125d2575b6125c48183611c7a565b8101906129b4565b5f61258b565b503d6125ba565b506122e5612f64565b80156125f3575b6122e530826129cc565b506125fc612f64565b6125e9565b80511561260e5760200190565b634e487b7160e01b5f52603260045260245ffd5b61266e90829561266860209695949560405193612640604086611c7a565b600185526020368a87013761265485612601565b52612660368789611cb8565b923691611cb8565b91612a20565b810103126101df57356001600160401b03811681036101df5790565b9081156126fe575b80156126ec575b602090606460018060a01b035f51602061304b5f395f51905f525416935f60405195869485936303056db360e31b8552600485015260248401528160448401525af19081156122a8575f91612279575090565b5060206126f7612f64565b9050612699565b9050612708612f64565b90612692565b908115612720575b6122e590826129cc565b90506122e561272d612f64565b919050612716565b61275390829561266860209695949560405193612640604086611c7a565b810103126101df57358015908115036101df5761276c57565b60405162461bcd60e51b8152602060048201526014602482015273496e73756666696369656e742062616c616e636560601b6044820152606490fd5b466001036127b557600190565b4662aa36a7036127c55761271190565b617a6946146127d2575f90565b5f1990565b5f51602061304b5f395f51905f5254604051639cd07acb60e01b81526001600160401b0390931660048401526001600160a01b0316826044815f602094600560248401525af19182156122a8575f926128b0575b506001600160a01b0381165f81815260026020526040902054909261288692911561289e5761286690845f52600260205260405f2054612ee0565b835f52600260205260405f20555b825f52600260205260405f205461270e565b505f52600260205261289b60405f20546125e2565b50565b835f52600260205260405f2055612874565b9091506020813d6020116128de575b816128cc60209383611c7a565b810103126101df57519061288661282b565b3d91506128bf565b90602080835192838152019201905f5b8181106129035750505090565b82518452602093840193909201916001016128f6565b60408051916129288284611c7a565b60018352601f19820136602085013761294083612601565b525f5160206130ab5f395f51905f52546001600160a01b0316803b156101df578151637d6e912360e11b815260206004820152925f91849182908490829061298c9060248301906128e6565b03925af19081156129ab575061299f5750565b5f6129a991611c7a565b565b513d5f823e3d90fd5b908160209103126101df575180151581036101df5790565b5f5160206130ab5f395f51905f52546001600160a01b031691823b156101df57612a0f925f9283604051809681958294635ca4b5b160e11b845260048401612418565b03925af180156122a85761299f5750565b916020612aa15f9260018060a01b037f9e7b61f58c47dc699ac88507c4f5bb9f121c03808c5676a8078fe583e46497025416906040519485809481936378542ead60e01b835260606004840152612a8f612a7d606485018d6128e6565b8481036003190160248601528b611a79565b83810360031901604485015290611a79565b03925af19081156122a8575f91612b18575b5015612b09577fc6366bab028b8d033cb362cfd1f2f3457ef4e92fc738b6788b90d5a7846367a091612b04612af6926040519384936040855260408501906128e6565b908382036020850152611a79565b0390a1565b63cf6c44e960e01b5f5260045ffd5b612b31915060203d6020116125d2576125c48183611c7a565b5f612ab3565b307f00000000000000000000000000000000000000000000000000000000000000006001600160a01b03161480612c2a575b15612b92577f000000000000000000000000000000000000000000000000000000000000000090565b60405160208101907f8b73c3c69bb8fe3d512ecc4cf759cc79239f7b179b0ffacaa9a75d522b39400f82527f000000000000000000000000000000000000000000000000000000000000000060408201527f000000000000000000000000000000000000000000000000000000000000000060608201524660808201523060a082015260a08152612c2460c082611c7a565b51902090565b507f00000000000000000000000000000000000000000000000000000000000000004614612b69565b8151919060418303612c8357612c7c9250602082015190606060408401519301515f1a90612fb2565b9192909190565b50505f9160029190565b600481101561236b5780612c9f575050565b60018103612cb65763f645eedf60e01b5f5260045ffd5b60028103612cd1575063fce698f760e01b5f5260045260245ffd5b600314612cdb5750565b6335e2f38360e21b5f5260045260245ffd5b60ff8114612d335760ff811690601f8211612d245760405191612d11604084611c7a565b6020808452838101919036833783525290565b632cd44ac360e21b5f5260045ffd5b506040515f5f548060011c9160018216918215612e06575b602084108314612df2578385528492908115612dd35750600114612d76575b6122e592500382611c7a565b505f80805290917f290decd9548b62a8d60345a988386fc84ba6bc95484008f6362f93160ef3e5635b818310612db75750509060206122e592820101612d6a565b6020919350806001915483858801015201910190918392612d9f565b602092506122e594915060ff191682840152151560051b820101612d6a565b634e487b7160e01b5f52602260045260245ffd5b92607f1692612d4b565b60ff8114612e345760ff811690601f8211612d245760405191612d11604084611c7a565b506040515f6001548060011c9160018216918215612ed6575b602084108314612df2578385528492908115612dd35750600114612e77576122e592500382611c7a565b5060015f90815290917fb10e2d527612073b26eecdfd717e6a320cf44b4afac2b0732d9fcbe2b7fa0cf65b818310612eba5750509060206122e592820101612d6a565b6020919350806001915483858801015201910190918392612ea2565b92607f1692612e4d565b908115612f54575b8015612f42575b602090606460018060a01b035f51602061304b5f395f51905f525416935f604051958694859363022f65e760e31b8552600485015260248401528160448401525af19081156122a8575f91612279575090565b506020612f4d612f64565b9050612eef565b9050612f5e612f64565b90612ee8565b5f51602061304b5f395f51905f5254604051639cd07acb60e01b81525f6004820152906001600160a01b0316816044815f602094600560248401525af19081156122a8575f91612279575090565b91906fa2a8918ca85bafe22016d0b997e4df60600160ff1b03841161301f579160209360809260ff5f9560405194855216868401526040830152606082015282805260015afa156122a8575f516001600160a01b0381161561301557905f905f90565b505f906001905f90565b5050505f916003919056fecac470a69e1b1f14c5c2e50afcd870ddf62da8977c0a40a57aca51ae5cefc8cb9e7b61f58c47dc699ac88507c4f5bb9f121c03808c5676a8078fe583e4649701141b06527fadd86cb2dca0f64a919e435f0596599b2a425f57bd93f5d505e0b1e19ed71156e31b3c9e18ac7ad8d1b79f0a0feb3be18d23dae612e52040aada4b9e7b61f58c47dc699ac88507c4f5bb9f121c03808c5676a8078fe583e4649700a164736f6c634300081b000a",
  "linkReferences": {},
  "deployedLinkReferences": {}
}