{
  "_format": "hh-sol-artifact-1",
  "contractName": "ConsentManager",
  "sourceName": "contracts/ConsentManager.sol",
  "abi": [
    {
      "inputs": [
        {
          "internalType": "bool",
          "name": "_isTestnet",
          "type": "bool"
        }
      ],
      "stateMutability": "nonpayable",
      "type": "constructor"
    },
    {
      "inputs": [
        {
          "internalType": "bytes32",
          "name": "handle",
          "type": "bytes32"
        },
        {
          "internalType": "address",
          "name": "sender",
          "type": "address"
        }
      ],
      "name": "SenderNotAllowedToUseHandle",
      "type": "error"
    },
    {
      "inputs": [],
      "name": "ZamaProtocolUnsupported",
      "type": "error"
    },
    {
      "anonymous": false,
      "inputs": [
        {
          "indexed": true,
          "internalType": "uint8",
          "name": "kind",
          "type": "uint8"
        },
        {
          "indexed": false,
          "internalType": "uint40",
          "name": "newEpoch",
          "type": "uint40"
        },
        {
          "indexed": true,
          "internalType": "address",
          "name": "newConsumer",
          "type": "address"
        }
      ],
      "name": "AclEpochRotated",
      "type": "event"
    },
    {
      "anonymous": false,
      "inputs": [
        {
          "indexed": true,
          "internalType": "bytes32",
          "name": "handle",
          "type": "bytes32"
        },
        {
          "indexed": true,
          "internalType": "address",
          "name": "consumer",
          "type": "address"
        },
        {
          "indexed": false,
          "internalType": "uint40",
          "name": "epoch",
          "type": "uint40"
        },
        {
          "indexed": false,
          "internalType": "uint8",
          "name": "kind",
          "type": "uint8"
        }
      ],
      "name": "AclGranted",
      "type": "event"
    },
    {
      "anonymous": false,
      "inputs": [],
      "name": "ConsentChanged",
      "type": "event"
    },
    {
      "anonymous": false,
      "inputs": [
        {
          "indexed": false,
          "internalType": "uint256",
          "name": "newEpoch",
          "type": "uint256"
        }
      ],
      "name": "ConsentEpochRevoked",
      "type": "event"
    },
    {
      "anonymous": false,
      "inputs": [
        {
          "indexed": true,
          "internalType": "address",
          "name": "newOwner",
          "type": "address"
        }
      ],
      "name": "OwnershipAccepted",
      "type": "event"
    },
    {
      "anonymous": false,
      "inputs": [
        {
          "indexed": true,
          "internalType": "address",
          "name": "proposedOwner",
          "type": "address"
        }
      ],
      "name": "OwnershipProposed",
      "type": "event"
    },
    {
      "anonymous": false,
      "inputs": [
        {
          "indexed": false,
          "internalType": "bool",
          "name": "enabled",
          "type": "bool"
        }
      ],
      "name": "TestnetModeEnabled",
      "type": "event"
    },
    {
      "inputs": [],
      "name": "READER_CHANGE_DELAY",
      "outputs": [
        {
          "internalType": "uint256",
          "name": "",
          "type": "uint256"
        }
      ],
      "stateMutability": "view",
      "type": "function"
    },
    {
      "inputs": [],
      "name": "acceptOwnership",
      "outputs": [],
      "stateMutability": "nonpayable",
      "type": "function"
    },
    {
      "inputs": [
        {
          "internalType": "uint8",
          "name": "kind",
          "type": "uint8"
        }
      ],
      "name": "aclEpochForKind",
      "outputs": [
        {
          "internalType": "uint40",
          "name": "",
          "type": "uint40"
        }
      ],
      "stateMutability": "view",
      "type": "function"
    },
    {
      "inputs": [],
      "name": "applyConsentGate",
      "outputs": [],
      "stateMutability": "nonpayable",
      "type": "function"
    },
    {
      "inputs": [],
      "name": "confidentialProtocolId",
      "outputs": [
        {
          "internalType": "uint256",
          "name": "",
          "type": "uint256"
        }
      ],
      "stateMutability": "view",
      "type": "function"
    },
    {
      "inputs": [],
      "name": "consentGate",
      "outputs": [
        {
          "internalType": "address",
          "name": "",
          "type": "address"
        }
      ],
      "stateMutability": "view",
      "type": "function"
    },
    {
      "inputs": [],
      "name": "consentGateChangeEta",
      "outputs": [
        {
          "internalType": "uint256",
          "name": "",
          "type": "uint256"
        }
      ],
      "stateMutability": "view",
      "type": "function"
    },
    {
      "inputs": [],
      "name": "dataAccessLog",
      "outputs": [
        {
          "internalType": "contract DataAccessLog",
          "name": "",
          "type": "address"
        }
      ],
      "stateMutability": "view",
      "type": "function"
    },
    {
      "inputs": [],
      "name": "eligibilityEngine",
      "outputs": [
        {
          "internalType": "address",
          "name": "",
          "type": "address"
        }
      ],
      "stateMutability": "view",
      "type": "function"
    },
    {
      "inputs": [
        {
          "internalType": "address",
          "name": "_patient",
          "type": "address"
        },
        {
          "internalType": "uint256",
          "name": "_trialId",
          "type": "uint256"
        }
      ],
      "name": "getActiveConsent",
      "outputs": [
        {
          "internalType": "ebool",
          "name": "",
          "type": "bytes32"
        }
      ],
      "stateMutability": "nonpayable",
      "type": "function"
    },
    {
      "inputs": [
        {
          "internalType": "address",
          "name": "_patient",
          "type": "address"
        },
        {
          "internalType": "uint256",
          "name": "_trialId",
          "type": "uint256"
        }
      ],
      "name": "getEncryptedConsent",
      "outputs": [
        {
          "internalType": "ebool",
          "name": "",
          "type": "bytes32"
        }
      ],
      "stateMutability": "view",
      "type": "function"
    },
    {
      "inputs": [
        {
          "internalType": "address",
          "name": "_patient",
          "type": "address"
        }
      ],
      "name": "getPatientConsentEpoch",
      "outputs": [
        {
          "internalType": "uint256",
          "name": "",
          "type": "uint256"
        }
      ],
      "stateMutability": "view",
      "type": "function"
    },
    {
      "inputs": [
        {
          "internalType": "uint256",
          "name": "_trialId",
          "type": "uint256"
        },
        {
          "internalType": "externalEbool",
          "name": "_consent",
          "type": "bytes32"
        },
        {
          "internalType": "bytes",
          "name": "inputProof",
          "type": "bytes"
        }
      ],
      "name": "grantConsent",
      "outputs": [],
      "stateMutability": "nonpayable",
      "type": "function"
    },
    {
      "inputs": [
        {
          "internalType": "uint256",
          "name": "_trialId",
          "type": "uint256"
        },
        {
          "internalType": "uint256",
          "name": "",
          "type": "uint256"
        }
      ],
      "name": "grantConsent",
      "outputs": [],
      "stateMutability": "nonpayable",
      "type": "function"
    },
    {
      "inputs": [
        {
          "internalType": "address",
          "name": "_patient",
          "type": "address"
        },
        {
          "internalType": "uint256",
          "name": "_trialId",
          "type": "uint256"
        }
      ],
      "name": "hasConsentRecord",
      "outputs": [
        {
          "internalType": "bool",
          "name": "",
          "type": "bool"
        }
      ],
      "stateMutability": "view",
      "type": "function"
    },
    {
      "inputs": [],
      "name": "isTestnet",
      "outputs": [
        {
          "internalType": "bool",
          "name": "",
          "type": "bool"
        }
      ],
      "stateMutability": "view",
      "type": "function"
    },
    {
      "inputs": [],
      "name": "owner",
      "outputs": [
        {
          "internalType": "address",
          "name": "",
          "type": "address"
        }
      ],
      "stateMutability": "view",
      "type": "function"
    },
    {
      "inputs": [
        {
          "internalType": "address",
          "name": "",
          "type": "address"
        }
      ],
      "name": "patientConsentEpoch",
      "outputs": [
        {
          "internalType": "uint256",
          "name": "",
          "type": "uint256"
        }
      ],
      "stateMutability": "view",
      "type": "function"
    },
    {
      "inputs": [],
      "name": "pendingConsentGate",
      "outputs": [
        {
          "internalType": "address",
          "name": "",
          "type": "address"
        }
      ],
      "stateMutability": "view",
      "type": "function"
    },
    {
      "inputs": [],
      "name": "pendingOwner",
      "outputs": [
        {
          "internalType": "address",
          "name": "",
          "type": "address"
        }
      ],
      "stateMutability": "view",
      "type": "function"
    },
    {
      "inputs": [
        {
          "internalType": "address",
          "name": "_newOwner",
          "type": "address"
        }
      ],
      "name": "proposeOwnership",
      "outputs": [],
      "stateMutability": "nonpayable",
      "type": "function"
    },
    {
      "inputs": [
        {
          "internalType": "address",
          "name": "_patient",
          "type": "address"
        },
        {
          "internalType": "uint256",
          "name": "_trialId",
          "type": "uint256"
        },
        {
          "internalType": "ebool",
          "name": "_consent",
          "type": "bytes32"
        }
      ],
      "name": "recordConsentGrant",
      "outputs": [],
      "stateMutability": "nonpayable",
      "type": "function"
    },
    {
      "inputs": [],
      "name": "revokeAllConsent",
      "outputs": [],
      "stateMutability": "nonpayable",
      "type": "function"
    },
    {
      "inputs": [
        {
          "internalType": "uint256",
          "name": "_trialId",
          "type": "uint256"
        }
      ],
      "name": "revokeConsent",
      "outputs": [],
      "stateMutability": "nonpayable",
      "type": "function"
    },
    {
      "inputs": [
        {
          "internalType": "uint8",
          "name": "kind",
          "type": "uint8"
        },
        {
          "internalType": "address",
          "name": "newConsumer",
          "type": "address"
        }
      ],
      "name": "rotateTrustedContract",
      "outputs": [],
      "stateMutability": "nonpayable",
      "type": "function"
    },
    {
      "inputs": [
        {
          "internalType": "address",
          "name": "_gate",
          "type": "address"
        }
      ],
      "name": "scheduleConsentGate",
      "outputs": [],
      "stateMutability": "nonpayable",
      "type": "function"
    },
    {
      "inputs": [
        {
          "internalType": "address",
          "name": "_gate",
          "type": "address"
        }
      ],
      "name": "setConsentGate",
      "outputs": [],
      "stateMutability": "nonpayable",
      "type": "function"
    },
    {
      "inputs": [
        {
          "internalType": "address",
          "name": "_log",
          "type": "address"
        }
      ],
      "name": "setDataAccessLog",
      "outputs": [],
      "stateMutability": "nonpayable",
      "type": "function"
    },
    {
      "inputs": [
        {
          "internalType": "address",
          "name": "_engine",
          "type": "address"
        }
      ],
      "name": "setEligibilityEngine",
      "outputs": [],
      "stateMutability": "nonpayable",
      "type": "function"
    }
  ],
  "bytecode": "0x60a0604052346102af57604051601f611dbf38819003918201601f19168301916001600160401b038311848410176102b3578084926020946040528339810103126102af5751801515908181036102af576100586102e6565b50466001036101a9575f516020611d9f5f395f51905f529160209161007b6102e6565b506100846102c7565b73ca2e8f1f656cd25c01f05d0b243ab1ecd4a8ffb6815273d82385dada1ae3e969447f20a3164f6213100e75848201527377627828a55156b04ac0dc0eb30467f1a552bb0360408201525b80517f9e7b61f58c47dc699ac88507c4f5bb9f121c03808c5676a8078fe583e464970080546001600160a01b03199081166001600160a01b0393841617909155858301517f9e7b61f58c47dc699ac88507c4f5bb9f121c03808c5676a8078fe583e4649701805483169184169190911790556040928301517f9e7b61f58c47dc699ac88507c4f5bb9f121c03808c5676a8078fe583e4649702805483169190931617909155600180549091163317905560809190915251908152a1604051611a9e9081610301823960805181818161021001526107930152f35b4662aa36a703610225575f516020611d9f5f395f51905f52916020916101cd6102e6565b506101d66102c7565b73f0ffdc93b7e186bc2f8cb3daa75d86d1930a433d81527392c920834ec8941d2c77d188936e1f7a6f49c1278482015273be0e383937d564d7ff0bc3b46c51f0bf8d5c311a60408201526100cf565b46617a69036102a0575f516020611d9f5f395f51905f52916020916102486102e6565b506102516102c7565b7350157cffd6bbfa2dece204a89ec419c23ef5755d815273e3a9105a3a932253a70f126eb1e3b589c643dd248482015273901f8942346f7ab3a01f6d7613119bca447bb03060408201526100cf565b6373cac13b60e01b5f5260045ffd5b5f80fd5b634e487b7160e01b5f52604160045260245ffd5b60405190606082016001600160401b038111838210176102b357604052565b6102ee6102c7565b905f82525f60208301525f604083015256fe60806040526004361015610011575f80fd5b5f5f3560e01c806303a042fc146110d157806304e38cd31461102c5780630798230914611004578063112476ae14610fdc57806316a0042c14610efb5780631e68fd8e14610ea357806323738e3414610e875780632ff2b14d14610e3757806334be382614610dd657806348877d0414610dae5780634f11c69014610d87578063543d34b914610b8357806360c4f5ab14610a4f5780636fb75d4c14610a16578063710bf3221461099a57806379ba5097146108f95780638927b030146108d65780638990622c146107e15780638da5cb5b146107b857806392108c861461077b578063964b6d7b1461075d5780639fd05e14146106ee578063b6bdbf781461060b578063d42babaf14610449578063d4753a75146103d0578063e30c3978146103a7578063eae292a0146101f9578063f520f24f1461019f5763f806db8e14610159575f80fd5b3461019c57602036600319011261019c576020906040906001600160a01b03610180611158565b1661018c813314611264565b8152600b83522054604051908152f35b80fd5b503461019c57602036600319011261019c576101b9611158565b6101ce60018060a01b0360015416331461117e565b6001600160a01b03166101e28115156111b7565b600380546001600160a01b03191691909117905580f35b503461019c57604036600319011261019c576004357f000000000000000000000000000000000000000000000000000000000000000015610363575f5160206119b25f395f51905f5254604051639cd07acb60e01b81526001600482015260248101849052906020908290604490829087906001600160a01b03165af1908115610358578391610322575b5061028e81611380565b5061029933826113a2565b506102a381611579565b3383526009602052604083208284526020526040832055338252600a6020526040822081835260205260408220600160ff19825416179055338252600b602052604082205490338352600c60205260408320908352602052604082205561030b6007546111f2565b6007555f516020611a125f395f51905f528180a180f35b90506020813d602011610350575b8161033d60209383611214565b8101031261034c57515f610284565b5f80fd5b3d9150610330565b6040513d85823e3d90fd5b60405162461bcd60e51b815260206004820152601c60248201527b131959d858de4819dc985b9d081bdb9b1e481bdb881d195cdd1b995d60221b6044820152606490fd5b503461019c578060031936011261019c576002546040516001600160a01b039091168152602090f35b503461019c57602036600319011261019c576103ea611158565b6103ff60018060a01b0360015416331461117e565b6001600160a01b03166104138115156111b7565b60018060a01b0319600554161760055561546042018042116104355760065580f35b634e487b7160e01b82526011600452602482fd5b503461019c57606036600319011261019c57806004356044356001600160401b0381116106075736602382011215610607576004810135906001600160401b038211610605573660248383010111610605578360206104d093806024604051956104bc85601f19601f8601160188611214565b8287520183860137830101526024356116b7565b6104d981611380565b506104e433826113a2565b506104ee81611579565b3383526009602052604083208284526020526040832055338252600a6020526040822081835260205260408220600160ff19825416179055338252600b6020526040822054338352600c6020526040832082845260205260408320556105556007546111f2565b6007556003546001600160a01b03169081610580575b825f516020611a125f395f51905f528180a180f35b60405160208101903360601b8252426034820152603481526105a3605482611214565b519020823b15610605576105d0928492836040518096819582946306cc173360e41b84526004840161124b565b03925af180156105fa576105e5575b8061056b565b816105ef91611214565b61019c57805f6105df565b6040513d84823e3d90fd5b505b5050fd5b503461019c57602036600319011261019c57610625611158565b61063a60018060a01b0360015416331461117e565b6001600160a01b031680156106bb576007546106625781546001600160a01b03191617815580f35b60405162461bcd60e51b815260206004820152602b60248201527f43616e6e6f74206368616e676520656e67696e6520616674657220636f6e736560448201526a1b9d1cc819dc985b9d195960aa1b6064820152608490fd5b60405162461bcd60e51b815260206004820152600b60248201526a5a65726f20656e67696e6560a81b6044820152606490fd5b503461019c57604036600319011261019c5760209060ff906040906001600160a01b03610719611158565b16803314801561074a575b61072d90611264565b8152600a8452818120602435825284522054166040519015158152f35b5081546001600160a01b03163314610724565b503461019c578060031936011261019c576020600654604051908152f35b503461019c578060031936011261019c5760206040517f000000000000000000000000000000000000000000000000000000000000000015158152f35b503461019c578060031936011261019c576001546040516001600160a01b039091168152602090f35b503461019c57604036600319011261019c5761089260209161088d610804611158565b60243590610887906001600160a01b031633811480156108c3575b80156108af575b61082f90611264565b8085526009875260408520838652875260408086205495828152600a8952818120858252895261086460ff838320541661131c565b94838252600c8a52828220908252895281812054928152600b895220541461131c565b9261161a565b61161a565b61089b81611380565b506108a633826113a2565b50604051908152f35b506004546001600160a01b03163314610826565b5084546001600160a01b0316331461081f565b503461019c578060031936011261019c5760206108f16115eb565b604051908152f35b503461019c578060031936011261019c576002546001600160a01b038116903382900361096057600180546001600160a01b03199081168417909155166002557fb27970c1714b28277b78cc17ac2fe9556e7f048cd48358cffe3dc7d547608fdc8280a280f35b60405162461bcd60e51b81526020600482015260126024820152712737ba10383937b837b9b2b21037bbb732b960711b6044820152606490fd5b503461019c57602036600319011261019c576109b4611158565b6109c960018060a01b0360015416331461117e565b6001600160a01b03166109dd8115156111b7565b600280546001600160a01b031916821790557f6ab4d119f23076e8ad491bc65ce85f017fb0591dce08755ba8591059cc51737a8280a280f35b503461019c57602036600319011261019c576020906040906001600160a01b03610a3e611158565b168152600b83522054604051908152f35b503461019c57604036600319011261019c57610a69611158565b602435916001600160a01b03909116903382148015610b70575b610a8c90611264565b818152600a6020526040812083825260205260ff60408220541615610b3757818152600c602052604081208382526020526040812054828252600b602052604082205403610af25760209260409282526009845282822090825283522054604051908152f35b60405162461bcd60e51b815260206004820152601d60248201527f436f6e73656e74207265766f6b6564206f7220737570657273656465640000006044820152606490fd5b60405162461bcd60e51b8152602060048201526011602482015270139bc818dbdb9cd95b9d081c9958dbdc99607a1b6044820152606490fd5b5080546001600160a01b03163314610a83565b503461034c57606036600319011261034c57610b9d611158565b5f5460243590604435906001600160a01b03163303610d54576001600160a01b038316908115610d2057610bd081611380565b50610bdb84826113a2565b50610be581611579565b815f52600960205260405f20835f5260205260405f2055805f52600a60205260405f20825f5260205260405f20600160ff19825416179055805f52600b60205260405f2054905f52600c60205260405f20825f5260205260405f2055610c4c6007546111f2565b6007556003546001600160a01b03169182610c77575b835f516020611a125f395f51905f528180a180f35b60405160609190911b6001600160601b031916602082019081524260348301526e46494e414c495a455f494e4c494e4560881b60548301526043825290610cbf606382611214565b519020823b1561034c57610cec925f92836040518096819582946306cc173360e41b84526004840161124b565b03925af18015610d1557610d02575b8080610c62565b610d0e91505f90611214565b5f5f610cfb565b6040513d5f823e3d90fd5b60405162461bcd60e51b815260206004820152600c60248201526b16995c9bc81c185d1a595b9d60a21b6044820152606490fd5b60405162461bcd60e51b815260206004820152600b60248201526a4f6e6c7920656e67696e6560a81b6044820152606490fd5b3461034c575f36600319011261034c575f546040516001600160a01b039091168152602090f35b3461034c575f36600319011261034c576005546040516001600160a01b039091168152602090f35b3461034c575f36600319011261034c57335f52600b60205260405f20610dfc81546111f2565b9055335f52600b6020527f88132aaa66026d0178c7a1b14e51d92fa10254e9b8831b28bc8797350edbed2b602060405f2054604051908152a1005b3461034c57602036600319011261034c5760ff610e5261116e565b165f52600860205264ffffffffff60405f2054168015610e7f575b60209064ffffffffff60405191168152f35b506001610e6d565b3461034c575f36600319011261034c5760206040516154608152f35b3461034c57604036600319011261034c57610ebc61116e565b6024356001600160a01b0381169182820361034c57610ef4610ef993610eed60018060a01b0360015416331461117e565b15156111b7565b6114f1565b005b3461034c57602036600319011261034c57600435610f176112a1565b610f2081611380565b50610f2b33826113a2565b50335f52600960205260405f20825f5260205260405f2055335f52600a60205260405f20815f5260205260405f2060ff198154169055335f52600b60205260405f205490335f52600c60205260405f20905f5260205260405f205560018060a01b035f541680610fcc575b506004546001600160a01b031680610fbc575b5f516020611a125f395f51905f525f80a1005b610fc59061145d565b5080610fa9565b610fd5906113c9565b5080610f96565b3461034c575f36600319011261034c576004546040516001600160a01b039091168152602090f35b3461034c575f36600319011261034c576003546040516001600160a01b039091168152602090f35b3461034c575f36600319011261034c5761105160018060a01b0360015416331461117e565b60065480151590816110c6575b501561108f5760058054600480546001600160a01b03199081166001600160a01b038416179091555f600655169055005b60405162461bcd60e51b815260206004820152600f60248201526e54696d656c6f636b2061637469766560881b6044820152606490fd5b90504210158161105e565b3461034c57602036600319011261034c576110ea611158565b5061110060018060a01b0360015416331461117e565b60405162461bcd60e51b815260206004820152602a60248201527f557365207363686564756c65436f6e73656e7447617465202b206170706c79436044820152696f6e73656e744761746560b01b6064820152608490fd5b600435906001600160a01b038216820361034c57565b6004359060ff8216820361034c57565b1561118557565b60405162461bcd60e51b815260206004820152600a60248201526927b7363c9037bbb732b960b11b6044820152606490fd5b156111be57565b60405162461bcd60e51b815260206004820152600c60248201526b5a65726f206164647265737360a01b6044820152606490fd5b5f1981146112005760010190565b634e487b7160e01b5f52601160045260245ffd5b601f909101601f19168101906001600160401b0382119082101761123757604052565b634e487b7160e01b5f52604160045260245ffd5b6040909392919360608101946001825260208201520152565b1561126b57565b60405162461bcd60e51b815260206004820152600e60248201526d139bdd08185d5d1a1bdc9a5e995960921b6044820152606490fd5b5f602060018060a01b035f5160206119b25f395f51905f525416604460405180948193639cd07acb60e01b83528160048401528160248401525af1908115610d15575f916112ed575090565b90506020813d602011611314575b8161130860209383611214565b8101031261034c575190565b3d91506112fb565b1561137a5760015b5f5160206119b25f395f51905f5254604051639cd07acb60e01b815260ff9290921660048301525f6024830181905260209183916044918391906001600160a01b03165af1908115610d15575f916112ed575090565b5f611324565b8015611394575b6113913082611883565b90565b5061139d6112a1565b611387565b9081156113b4575b6113919082611883565b90506113916113c16112a1565b9190506113aa565b9060015f52600860205264ffffffffff60405f2054168015611455575b64ffffffffff600191160164ffffffffff81116112005760015f819052600860209081525f5160206119f25f395f51905f52805464ffffffffff191664ffffffffff851690811790915560405190815292946001600160a01b0316925f516020611a325f395f51905f529190a3565b5060016113e6565b9060025f52600860205264ffffffffff60405f20541680156114e9575b64ffffffffff600191160164ffffffffff81116112005760025f819052600860209081525f5160206119d25f395f51905f52805464ffffffffff191664ffffffffff851690811790915560405190815292946001600160a01b0316925f516020611a325f395f51905f529190a3565b50600161147a565b60ff9092919216805f52600860205264ffffffffff60405f2054168015611571575b64ffffffffff60019116019064ffffffffff8211611200575f516020611a325f395f51905f5260208395835f526008825264ffffffffff60405f209516948564ffffffffff1982541617905560405194855260018060a01b031693a3565b506001611513565b5f546001600160a01b0316806115c4575b506004546001600160a01b031690816115a1575050565b6115ae6115c192826113a2565b506004546001600160a01b03169061194a565b50565b6115ce90826113a2565b505f546115e4906001600160a01b0316826118e3565b505f61158a565b466001036115f857600190565b4662aa36a7036116085761271190565b617a694614611615575f90565b5f1990565b90811561168e575b801561167c575b602090606460018060a01b035f5160206119b25f395f51905f525416935f604051958694859363d99882d560e01b8552600485015260248401528160448401525af1908115610d15575f916112ed575090565b5060206116876112a1565b9050611629565b90506116986112a1565b90611622565b9081526001600160a01b03909116602082015260400190565b8151156117cb57602091829160018060a01b035f5160206119b25f395f51905f525416905f60a460405180978196829563045fc19560e11b84526004840152336024840152608060448401528051918291826084860152018484015e83838284010152836064830152601f801991011681010301925af1908115610d15575f91611799575b505f516020611a525f395f51905f52546001600160a01b0316803b1561034c575f6040518092630f8e573b60e21b825281838161177d33896004840161169e565b03925af18015610d155761178f575090565b5f61139191611214565b90506020813d6020116117c3575b816117b460209383611214565b8101031261034c57515f61173c565b3d91506117a7565b8091501561187a575f516020611a525f395f51905f52546040516382027b6d60e01b81529060209082906001600160a01b0316818061180e33886004840161169e565b03915afa908115610d15575f9161183f575b50156118295790565b630276b5d960e01b5f526004523360245260445ffd5b90506020813d602011611872575b8161185a60209383611214565b8101031261034c5751801515810361034c575f611820565b3d915061184d565b506113916112a1565b5f516020611a525f395f51905f52546001600160a01b031691823b1561034c576118c6925f9283604051809681958294635ca4b5b160e11b84526004840161169e565b03925af18015610d15576118d75750565b5f6118e191611214565b565b60015f5260086020525f5160206119f25f395f51905f525491929164ffffffffff16908115611941575b6040805164ffffffffff841681526001602082015292946001600160a01b0316925f516020611a725f395f51905f529190a3565b6001915061190d565b60025f5260086020525f5160206119d25f395f51905f525491929164ffffffffff169081156119a8575b6040805164ffffffffff841681526002602082015292946001600160a01b0316925f516020611a725f395f51905f529190a3565b6001915061197456fe9e7b61f58c47dc699ac88507c4f5bb9f121c03808c5676a8078fe583e46497016add646517a5b0f6793cd5891b7937d28a5b2981a5d88ebc7cd776088fea9041ad67d757c34507f157cacfa2e3153e9f260a2244f30428821be7be64587ac55fe2226d7f1931b42ec038ea9caa515dc17eeeea0a2c424c72626a84deabdd1e066da0feb3b0bd083f868beb07983147e8f9319e42d0b452d6e0bf7fa04e7066da9e7b61f58c47dc699ac88507c4f5bb9f121c03808c5676a8078fe583e464970058d1f3ed03db8b22ff8b8be3e7515f47bcd2b187270364bb5d5f1d0c1a0b9782a164736f6c634300081b000ac4ca5084a0d4a9c6539a21ec1f87d7c0c5eccb752545d5af3b9c34071b099b3f",
  "linkReferences": {},
  "deployedLinkReferences": {}
}