{
  "_format": "hh-sol-artifact-1",
  "contractName": "ConsentManager",
  "sourceName": "contracts/ConsentManager.sol",
  "abi": [
    {
      "inputs": [
        {
          "internalType": "bool",
          "name": "_isTestnet",
          "type": "bool"
        }
      ],
      "stateMutability": "nonpayable",
      "type": "constructor"
    },
    {
      "inputs": [
        {
          "internalType": "bytes32",
          "name": "handle",
          "type": "bytes32"
        },
        {
          "internalType": "address",
          "name": "sender",
          "type": "address"
        }
      ],
      "name": "SenderNotAllowedToUseHandle",
      "type": "error"
    },
    {
      "inputs": [],
      "name": "ZamaProtocolUnsupported",
      "type": "error"
    },
    {
      "anonymous": false,
      "inputs": [],
      "name": "ConsentChanged",
      "type": "event"
    },
    {
      "anonymous": false,
      "inputs": [
        {
          "indexed": false,
          "internalType": "uint256",
          "name": "newEpoch",
          "type": "uint256"
        }
      ],
      "name": "ConsentEpochRevoked",
      "type": "event"
    },
    {
      "anonymous": false,
      "inputs": [
        {
          "indexed": true,
          "internalType": "address",
          "name": "newOwner",
          "type": "address"
        }
      ],
      "name": "OwnershipAccepted",
      "type": "event"
    },
    {
      "anonymous": false,
      "inputs": [
        {
          "indexed": true,
          "internalType": "address",
          "name": "proposedOwner",
          "type": "address"
        }
      ],
      "name": "OwnershipProposed",
      "type": "event"
    },
    {
      "anonymous": false,
      "inputs": [
        {
          "indexed": false,
          "internalType": "bool",
          "name": "enabled",
          "type": "bool"
        }
      ],
      "name": "TestnetModeEnabled",
      "type": "event"
    },
    {
      "inputs": [],
      "name": "acceptOwnership",
      "outputs": [],
      "stateMutability": "nonpayable",
      "type": "function"
    },
    {
      "inputs": [],
      "name": "confidentialProtocolId",
      "outputs": [
        {
          "internalType": "uint256",
          "name": "",
          "type": "uint256"
        }
      ],
      "stateMutability": "view",
      "type": "function"
    },
    {
      "inputs": [],
      "name": "consentGate",
      "outputs": [
        {
          "internalType": "address",
          "name": "",
          "type": "address"
        }
      ],
      "stateMutability": "view",
      "type": "function"
    },
    {
      "inputs": [],
      "name": "dataAccessLog",
      "outputs": [
        {
          "internalType": "contract DataAccessLog",
          "name": "",
          "type": "address"
        }
      ],
      "stateMutability": "view",
      "type": "function"
    },
    {
      "inputs": [],
      "name": "eligibilityEngine",
      "outputs": [
        {
          "internalType": "address",
          "name": "",
          "type": "address"
        }
      ],
      "stateMutability": "view",
      "type": "function"
    },
    {
      "inputs": [
        {
          "internalType": "address",
          "name": "_patient",
          "type": "address"
        },
        {
          "internalType": "uint256",
          "name": "_trialId",
          "type": "uint256"
        }
      ],
      "name": "getActiveConsent",
      "outputs": [
        {
          "internalType": "ebool",
          "name": "",
          "type": "bytes32"
        }
      ],
      "stateMutability": "nonpayable",
      "type": "function"
    },
    {
      "inputs": [
        {
          "internalType": "address",
          "name": "_patient",
          "type": "address"
        },
        {
          "internalType": "uint256",
          "name": "_trialId",
          "type": "uint256"
        }
      ],
      "name": "getEncryptedConsent",
      "outputs": [
        {
          "internalType": "ebool",
          "name": "",
          "type": "bytes32"
        }
      ],
      "stateMutability": "view",
      "type": "function"
    },
    {
      "inputs": [
        {
          "internalType": "address",
          "name": "_patient",
          "type": "address"
        }
      ],
      "name": "getPatientConsentEpoch",
      "outputs": [
        {
          "internalType": "uint256",
          "name": "",
          "type": "uint256"
        }
      ],
      "stateMutability": "view",
      "type": "function"
    },
    {
      "inputs": [
        {
          "internalType": "uint256",
          "name": "_trialId",
          "type": "uint256"
        },
        {
          "internalType": "externalEbool",
          "name": "_consent",
          "type": "bytes32"
        },
        {
          "internalType": "bytes",
          "name": "inputProof",
          "type": "bytes"
        }
      ],
      "name": "grantConsent",
      "outputs": [],
      "stateMutability": "nonpayable",
      "type": "function"
    },
    {
      "inputs": [
        {
          "internalType": "uint256",
          "name": "_trialId",
          "type": "uint256"
        },
        {
          "internalType": "uint256",
          "name": "",
          "type": "uint256"
        }
      ],
      "name": "grantConsent",
      "outputs": [],
      "stateMutability": "nonpayable",
      "type": "function"
    },
    {
      "inputs": [
        {
          "internalType": "address",
          "name": "_patient",
          "type": "address"
        },
        {
          "internalType": "uint256",
          "name": "_trialId",
          "type": "uint256"
        }
      ],
      "name": "hasConsentRecord",
      "outputs": [
        {
          "internalType": "bool",
          "name": "",
          "type": "bool"
        }
      ],
      "stateMutability": "view",
      "type": "function"
    },
    {
      "inputs": [],
      "name": "isTestnet",
      "outputs": [
        {
          "internalType": "bool",
          "name": "",
          "type": "bool"
        }
      ],
      "stateMutability": "view",
      "type": "function"
    },
    {
      "inputs": [],
      "name": "owner",
      "outputs": [
        {
          "internalType": "address",
          "name": "",
          "type": "address"
        }
      ],
      "stateMutability": "view",
      "type": "function"
    },
    {
      "inputs": [
        {
          "internalType": "address",
          "name": "",
          "type": "address"
        }
      ],
      "name": "patientConsentEpoch",
      "outputs": [
        {
          "internalType": "uint256",
          "name": "",
          "type": "uint256"
        }
      ],
      "stateMutability": "view",
      "type": "function"
    },
    {
      "inputs": [],
      "name": "pendingOwner",
      "outputs": [
        {
          "internalType": "address",
          "name": "",
          "type": "address"
        }
      ],
      "stateMutability": "view",
      "type": "function"
    },
    {
      "inputs": [
        {
          "internalType": "address",
          "name": "_newOwner",
          "type": "address"
        }
      ],
      "name": "proposeOwnership",
      "outputs": [],
      "stateMutability": "nonpayable",
      "type": "function"
    },
    {
      "inputs": [],
      "name": "revokeAllConsent",
      "outputs": [],
      "stateMutability": "nonpayable",
      "type": "function"
    },
    {
      "inputs": [
        {
          "internalType": "uint256",
          "name": "_trialId",
          "type": "uint256"
        }
      ],
      "name": "revokeConsent",
      "outputs": [],
      "stateMutability": "nonpayable",
      "type": "function"
    },
    {
      "inputs": [
        {
          "internalType": "address",
          "name": "_gate",
          "type": "address"
        }
      ],
      "name": "setConsentGate",
      "outputs": [],
      "stateMutability": "nonpayable",
      "type": "function"
    },
    {
      "inputs": [
        {
          "internalType": "address",
          "name": "_log",
          "type": "address"
        }
      ],
      "name": "setDataAccessLog",
      "outputs": [],
      "stateMutability": "nonpayable",
      "type": "function"
    },
    {
      "inputs": [
        {
          "internalType": "address",
          "name": "_engine",
          "type": "address"
        }
      ],
      "name": "setEligibilityEngine",
      "outputs": [],
      "stateMutability": "nonpayable",
      "type": "function"
    }
  ],
  "bytecode": "0x60a0604052346102af57604051601f61146038819003918201601f19168301916001600160401b038311848410176102b3578084926020946040528339810103126102af5751801515908181036102af576100586102e6565b50466001036101a9575f5160206114405f395f51905f529160209161007b6102e6565b506100846102c7565b73ca2e8f1f656cd25c01f05d0b243ab1ecd4a8ffb6815273d82385dada1ae3e969447f20a3164f6213100e75848201527377627828a55156b04ac0dc0eb30467f1a552bb0360408201525b80517f9e7b61f58c47dc699ac88507c4f5bb9f121c03808c5676a8078fe583e464970080546001600160a01b03199081166001600160a01b0393841617909155858301517f9e7b61f58c47dc699ac88507c4f5bb9f121c03808c5676a8078fe583e4649701805483169184169190911790556040928301517f9e7b61f58c47dc699ac88507c4f5bb9f121c03808c5676a8078fe583e4649702805483169190931617909155600180549091163317905560809190915251908152a160405161113f908161030182396080518181816101b001526106970152f35b4662aa36a703610225575f5160206114405f395f51905f52916020916101cd6102e6565b506101d66102c7565b73f0ffdc93b7e186bc2f8cb3daa75d86d1930a433d81527392c920834ec8941d2c77d188936e1f7a6f49c1278482015273be0e383937d564d7ff0bc3b46c51f0bf8d5c311a60408201526100cf565b46617a69036102a0575f5160206114405f395f51905f52916020916102486102e6565b506102516102c7565b7350157cffd6bbfa2dece204a89ec419c23ef5755d815273e3a9105a3a932253a70f126eb1e3b589c643dd248482015273901f8942346f7ab3a01f6d7613119bca447bb03060408201526100cf565b6373cac13b60e01b5f5260045ffd5b5f80fd5b634e487b7160e01b5f52604160045260245ffd5b60405190606082016001600160401b038111838210176102b357604052565b6102ee6102c7565b905f82525f60208301525f604083015256fe60806040526004361015610011575f80fd5b5f5f3560e01c806303a042fc14610b5d5780630798230914610b35578063112476ae14610b0d57806316a0042c14610a6f57806334be382614610a0e5780634f11c690146109e757806360c4f5ab1461097d5780636fb75d4c14610945578063710bf3221461089c57806379ba5097146107fd5780638927b030146107db5780638990622c146106e45780638da5cb5b146106bc57806392108c86146106805780639fd05e1414610611578063b6bdbf781461052c578063d42babaf14610370578063e30c397814610347578063eae292a014610199578063f520f24f146101475763f806db8e14610101575f80fd5b34610144576020366003190112610144576020906040906001600160a01b03610128610bad565b16610134813314610c1e565b8152600883522054604051908152f35b80fd5b503461014457602036600319011261014457610161610bad565b61017660018060a01b03600154163314610bc3565b600380546001600160a01b0319166001600160a01b039290921691909117905580f35b5034610144576040366003190112610144576004357f000000000000000000000000000000000000000000000000000000000000000015610303575f5160206110d35f395f51905f5254604051639cd07acb60e01b81526001600482015260248101849052906020908290604490829087906001600160a01b03165af19081156102f85783916102c2575b5061022e81610d71565b506102393382610d93565b5061024381611052565b338352600660205260408320828452602052604083205533825260076020526040822081835260205260408220600160ff19825416179055338252600860205260408220549033835260096020526040832090835260205260408220556102ab600554610bfc565b6005555f5160206110f35f395f51905f528180a180f35b90506020813d6020116102f0575b816102dd60209383610c5b565b810103126102ec57515f610224565b5f80fd5b3d91506102d0565b6040513d85823e3d90fd5b60405162461bcd60e51b815260206004820152601c60248201527b131959d858de4819dc985b9d081bdb9b1e481bdb881d195cdd1b995d60221b6044820152606490fd5b50346101445780600319360112610144576002546040516001600160a01b039091168152602090f35b50346102ec5760603660031901126102ec576004356044356001600160401b0381116102ec57366023820112156102ec576004810135906001600160401b0382116102ec5736602483830101116102ec575f60206103f693806024604051956103e285601f19601f8601160188610c5b565b828752018386013783010152602435610e86565b6103ff81610d71565b5061040a3382610d93565b5061041481611052565b335f52600660205260405f20825f5260205260405f2055335f52600760205260405f20815f5260205260405f20600160ff19825416179055335f52600860205260405f2054335f52600960205260405f20825f5260205260405f205561047b600554610bfc565b6005556003546001600160a01b031690816104a6575b825f5160206110f35f395f51905f528180a180f35b60405160208101903360601b8252426034820152603481526104c9605482610c5b565b519020823b156102ec5760645f928360405195869485936306cc173360e41b855260016004860152602485015260448401525af180156105215761050e575b80610491565b61051a91505f90610c5b565b5f5f610508565b6040513d5f823e3d90fd5b346102ec5760203660031901126102ec57610545610bad565b61055a60018060a01b03600154163314610bc3565b6001600160a01b031680156105de57600554610585575f80546001600160a01b031916919091179055005b60405162461bcd60e51b815260206004820152602b60248201527f43616e6e6f74206368616e676520656e67696e6520616674657220636f6e736560448201526a1b9d1cc819dc985b9d195960aa1b6064820152608490fd5b60405162461bcd60e51b815260206004820152600b60248201526a5a65726f20656e67696e6560a81b6044820152606490fd5b346102ec5760403660031901126102ec576001600160a01b03610632610bad565b16803314801561066d575b61064690610c1e565b5f52600760205260405f206024355f52602052602060ff60405f2054166040519015158152f35b505f546001600160a01b0316331461063d565b346102ec575f3660031901126102ec5760206040517f000000000000000000000000000000000000000000000000000000000000000015158152f35b346102ec575f3660031901126102ec576001546040516001600160a01b039091168152602090f35b346102ec5760403660031901126102ec576020610797610702610bad565b6001600160a01b031661079260243533831480156107c8575b80156107b4575b61072b90610c1e565b825f526006855260405f20815f52855261078c60405f205493805f526007875260405f20835f52875261076460ff60405f205416610d0d565b92815f526009885260405f20905f52875260405f2054905f526008875260405f205414610d0d565b92610de9565b610de9565b6107a081610d71565b506107ab3382610d93565b50604051908152f35b506004546001600160a01b03163314610722565b505f546001600160a01b0316331461071b565b346102ec575f3660031901126102ec5760206107f5610dba565b604051908152f35b346102ec575f3660031901126102ec576002546001600160a01b038116903382900361086257600180546001600160a01b03199081168417909155166002557fb27970c1714b28277b78cc17ac2fe9556e7f048cd48358cffe3dc7d547608fdc5f80a2005b60405162461bcd60e51b81526020600482015260126024820152712737ba10383937b837b9b2b21037bbb732b960711b6044820152606490fd5b346102ec5760203660031901126102ec576108b5610bad565b6108ca60018060a01b03600154163314610bc3565b6001600160a01b0316801561091157600280546001600160a01b031916821790557f6ab4d119f23076e8ad491bc65ce85f017fb0591dce08755ba8591059cc51737a5f80a2005b60405162461bcd60e51b815260206004820152600c60248201526b5a65726f206164647265737360a01b6044820152606490fd5b346102ec5760203660031901126102ec576001600160a01b03610966610bad565b165f526008602052602060405f2054604051908152f35b346102ec5760403660031901126102ec576001600160a01b0361099e610bad565b1680331480156109d4575b6109b290610c1e565b5f52600660205260405f206024355f52602052602060405f2054604051908152f35b505f546001600160a01b031633146109a9565b346102ec575f3660031901126102ec575f546040516001600160a01b039091168152602090f35b346102ec575f3660031901126102ec57335f52600860205260405f20610a348154610bfc565b9055335f5260086020527f88132aaa66026d0178c7a1b14e51d92fa10254e9b8831b28bc8797350edbed2b602060405f2054604051908152a1005b346102ec5760203660031901126102ec57600435610a8b610c92565b610a9481610d71565b50610a9f3382610d93565b50335f52600660205260405f20825f5260205260405f2055335f52600760205260405f20815f5260205260405f2060ff198154169055335f52600860205260405f205490335f52600960205260405f20905f5260205260405f20555f5160206110f35f395f51905f525f80a1005b346102ec575f3660031901126102ec576004546040516001600160a01b039091168152602090f35b346102ec575f3660031901126102ec576003546040516001600160a01b039091168152602090f35b346102ec5760203660031901126102ec57610b76610bad565b610b8b60018060a01b03600154163314610bc3565b600480546001600160a01b0319166001600160a01b0392909216919091179055005b600435906001600160a01b03821682036102ec57565b15610bca57565b60405162461bcd60e51b815260206004820152600a60248201526927b7363c9037bbb732b960b11b6044820152606490fd5b5f198114610c0a5760010190565b634e487b7160e01b5f52601160045260245ffd5b15610c2557565b60405162461bcd60e51b815260206004820152600e60248201526d139bdd08185d5d1a1bdc9a5e995960921b6044820152606490fd5b601f909101601f19168101906001600160401b03821190821017610c7e57604052565b634e487b7160e01b5f52604160045260245ffd5b5f602060018060a01b035f5160206110d35f395f51905f525416604460405180948193639cd07acb60e01b83528160048401528160248401525af1908115610521575f91610cde575090565b90506020813d602011610d05575b81610cf960209383610c5b565b810103126102ec575190565b3d9150610cec565b15610d6b5760015b5f5160206110d35f395f51905f5254604051639cd07acb60e01b815260ff9290921660048301525f6024830181905260209183916044918391906001600160a01b03165af1908115610521575f91610cde575090565b5f610d15565b8015610d85575b610d823082611072565b90565b50610d8e610c92565b610d78565b908115610da5575b610d829082611072565b9050610d82610db2610c92565b919050610d9b565b46600103610dc757600190565b4662aa36a703610dd75761271190565b617a694614610de4575f90565b5f1990565b908115610e5d575b8015610e4b575b602090606460018060a01b035f5160206110d35f395f51905f525416935f604051958694859363d99882d560e01b8552600485015260248401528160448401525af1908115610521575f91610cde575090565b506020610e56610c92565b9050610df8565b9050610e67610c92565b90610df1565b9081526001600160a01b03909116602082015260400190565b815115610f9a57602091829160018060a01b035f5160206110d35f395f51905f525416905f60a460405180978196829563045fc19560e11b84526004840152336024840152608060448401528051918291826084860152018484015e83838284010152836064830152601f801991011681010301925af1908115610521575f91610f68575b505f5160206111135f395f51905f52546001600160a01b0316803b156102ec575f6040518092630f8e573b60e21b8252818381610f4c338960048401610e6d565b03925af1801561052157610f5e575090565b5f610d8291610c5b565b90506020813d602011610f92575b81610f8360209383610c5b565b810103126102ec57515f610f0b565b3d9150610f76565b80915015611049575f5160206111135f395f51905f52546040516382027b6d60e01b81529060209082906001600160a01b03168180610fdd338860048401610e6d565b03915afa908115610521575f9161100e575b5015610ff85790565b630276b5d960e01b5f526004523360245260445ffd5b90506020813d602011611041575b8161102960209383610c5b565b810103126102ec575180151581036102ec575f610fef565b3d915061101c565b50610d82610c92565b5f546001600160a01b031680611066575050565b61106f91610d93565b50565b5f5160206111135f395f51905f52546001600160a01b031691823b156102ec576110b5925f9283604051809681958294635ca4b5b160e11b845260048401610e6d565b03925af18015610521576110c65750565b5f6110d091610c5b565b56fe9e7b61f58c47dc699ac88507c4f5bb9f121c03808c5676a8078fe583e4649701e2226d7f1931b42ec038ea9caa515dc17eeeea0a2c424c72626a84deabdd1e069e7b61f58c47dc699ac88507c4f5bb9f121c03808c5676a8078fe583e4649700a164736f6c634300081b000ac4ca5084a0d4a9c6539a21ec1f87d7c0c5eccb752545d5af3b9c34071b099b3f",
  "linkReferences": {},
  "deployedLinkReferences": {}
}