{
  "_format": "hh-sol-artifact-1",
  "contractName": "DataAccessLog",
  "sourceName": "contracts/DataAccessLog.sol",
  "abi": [
    {
      "inputs": [],
      "stateMutability": "nonpayable",
      "type": "constructor"
    },
    {
      "anonymous": false,
      "inputs": [
        {
          "indexed": true,
          "internalType": "enum DataAccessLog.ActionType",
          "name": "action",
          "type": "uint8"
        },
        {
          "indexed": true,
          "internalType": "uint256",
          "name": "trialId",
          "type": "uint256"
        },
        {
          "indexed": true,
          "internalType": "bytes32",
          "name": "patientHash",
          "type": "bytes32"
        }
      ],
      "name": "ActionLogged",
      "type": "event"
    },
    {
      "anonymous": false,
      "inputs": [
        {
          "indexed": true,
          "internalType": "enum DataAccessLog.ActionType",
          "name": "action",
          "type": "uint8"
        },
        {
          "indexed": true,
          "internalType": "uint256",
          "name": "trialId",
          "type": "uint256"
        },
        {
          "indexed": true,
          "internalType": "bytes32",
          "name": "patientHash",
          "type": "bytes32"
        },
        {
          "indexed": false,
          "internalType": "uint256",
          "name": "timestamp",
          "type": "uint256"
        },
        {
          "indexed": false,
          "internalType": "address",
          "name": "performer",
          "type": "address"
        },
        {
          "indexed": false,
          "internalType": "uint256",
          "name": "logHeadPosition",
          "type": "uint256"
        }
      ],
      "name": "DetailedActionLogged",
      "type": "event"
    },
    {
      "anonymous": false,
      "inputs": [
        {
          "indexed": true,
          "internalType": "uint256",
          "name": "logHead",
          "type": "uint256"
        }
      ],
      "name": "LogBufferWrapped",
      "type": "event"
    },
    {
      "anonymous": false,
      "inputs": [
        {
          "indexed": true,
          "internalType": "address",
          "name": "newOwner",
          "type": "address"
        }
      ],
      "name": "OwnershipAccepted",
      "type": "event"
    },
    {
      "anonymous": false,
      "inputs": [
        {
          "indexed": true,
          "internalType": "address",
          "name": "proposedOwner",
          "type": "address"
        }
      ],
      "name": "OwnershipProposed",
      "type": "event"
    },
    {
      "inputs": [],
      "name": "LOGGER_CHANGE_DELAY",
      "outputs": [
        {
          "internalType": "uint256",
          "name": "",
          "type": "uint256"
        }
      ],
      "stateMutability": "view",
      "type": "function"
    },
    {
      "inputs": [],
      "name": "MAX_LOG_ENTRIES",
      "outputs": [
        {
          "internalType": "uint256",
          "name": "",
          "type": "uint256"
        }
      ],
      "stateMutability": "view",
      "type": "function"
    },
    {
      "inputs": [],
      "name": "acceptOwnership",
      "outputs": [],
      "stateMutability": "nonpayable",
      "type": "function"
    },
    {
      "inputs": [
        {
          "internalType": "address",
          "name": "_logger",
          "type": "address"
        }
      ],
      "name": "applyAuthorizedLogger",
      "outputs": [],
      "stateMutability": "nonpayable",
      "type": "function"
    },
    {
      "inputs": [
        {
          "internalType": "address",
          "name": "_logger",
          "type": "address"
        }
      ],
      "name": "cancelAuthorizedLoggerSchedule",
      "outputs": [],
      "stateMutability": "nonpayable",
      "type": "function"
    },
    {
      "inputs": [
        {
          "internalType": "uint256",
          "name": "_index",
          "type": "uint256"
        }
      ],
      "name": "getLog",
      "outputs": [
        {
          "components": [
            {
              "internalType": "enum DataAccessLog.ActionType",
              "name": "action",
              "type": "uint8"
            },
            {
              "internalType": "uint256",
              "name": "trialId",
              "type": "uint256"
            },
            {
              "internalType": "bytes32",
              "name": "patientHash",
              "type": "bytes32"
            },
            {
              "internalType": "uint256",
              "name": "timestamp",
              "type": "uint256"
            },
            {
              "internalType": "address",
              "name": "performer",
              "type": "address"
            }
          ],
          "internalType": "struct DataAccessLog.LogEntry",
          "name": "",
          "type": "tuple"
        }
      ],
      "stateMutability": "view",
      "type": "function"
    },
    {
      "inputs": [],
      "name": "getLogCount",
      "outputs": [
        {
          "internalType": "uint256",
          "name": "",
          "type": "uint256"
        }
      ],
      "stateMutability": "view",
      "type": "function"
    },
    {
      "inputs": [],
      "name": "getTotalLogCount",
      "outputs": [
        {
          "internalType": "uint256",
          "name": "",
          "type": "uint256"
        }
      ],
      "stateMutability": "view",
      "type": "function"
    },
    {
      "inputs": [
        {
          "internalType": "address",
          "name": "",
          "type": "address"
        }
      ],
      "name": "isAuthorizedLogger",
      "outputs": [
        {
          "internalType": "bool",
          "name": "",
          "type": "bool"
        }
      ],
      "stateMutability": "view",
      "type": "function"
    },
    {
      "inputs": [
        {
          "internalType": "enum DataAccessLog.ActionType",
          "name": "_action",
          "type": "uint8"
        },
        {
          "internalType": "uint256",
          "name": "_trialId",
          "type": "uint256"
        },
        {
          "internalType": "bytes32",
          "name": "_patientHash",
          "type": "bytes32"
        }
      ],
      "name": "logAction",
      "outputs": [],
      "stateMutability": "nonpayable",
      "type": "function"
    },
    {
      "inputs": [
        {
          "internalType": "address",
          "name": "",
          "type": "address"
        }
      ],
      "name": "loggerChangeEta",
      "outputs": [
        {
          "internalType": "uint256",
          "name": "",
          "type": "uint256"
        }
      ],
      "stateMutability": "view",
      "type": "function"
    },
    {
      "inputs": [
        {
          "internalType": "uint256",
          "name": "",
          "type": "uint256"
        }
      ],
      "name": "logs",
      "outputs": [
        {
          "internalType": "enum DataAccessLog.ActionType",
          "name": "action",
          "type": "uint8"
        },
        {
          "internalType": "uint256",
          "name": "trialId",
          "type": "uint256"
        },
        {
          "internalType": "bytes32",
          "name": "patientHash",
          "type": "bytes32"
        },
        {
          "internalType": "uint256",
          "name": "timestamp",
          "type": "uint256"
        },
        {
          "internalType": "address",
          "name": "performer",
          "type": "address"
        }
      ],
      "stateMutability": "view",
      "type": "function"
    },
    {
      "inputs": [],
      "name": "owner",
      "outputs": [
        {
          "internalType": "address",
          "name": "",
          "type": "address"
        }
      ],
      "stateMutability": "view",
      "type": "function"
    },
    {
      "inputs": [
        {
          "internalType": "address",
          "name": "",
          "type": "address"
        }
      ],
      "name": "pendingLoggerChanges",
      "outputs": [
        {
          "internalType": "bool",
          "name": "",
          "type": "bool"
        }
      ],
      "stateMutability": "view",
      "type": "function"
    },
    {
      "inputs": [],
      "name": "pendingOwner",
      "outputs": [
        {
          "internalType": "address",
          "name": "",
          "type": "address"
        }
      ],
      "stateMutability": "view",
      "type": "function"
    },
    {
      "inputs": [
        {
          "internalType": "address",
          "name": "_newOwner",
          "type": "address"
        }
      ],
      "name": "proposeOwnership",
      "outputs": [],
      "stateMutability": "nonpayable",
      "type": "function"
    },
    {
      "inputs": [
        {
          "internalType": "address",
          "name": "_logger",
          "type": "address"
        },
        {
          "internalType": "bool",
          "name": "_status",
          "type": "bool"
        }
      ],
      "name": "scheduleAuthorizedLogger",
      "outputs": [],
      "stateMutability": "nonpayable",
      "type": "function"
    }
  ],
  "bytecode": "0x60808060405234604257600680546001600160a01b031916339081179091555f908152600360205260409020805460ff19166001179055610aa390816100478239f35b5f80fdfe60806040526004361015610011575f80fd5b5f3560e01c80633206b2c6146107bd57806335ec9d01146107a0578063465ec99a14610768578063618033db1461074b5780636cc17330146105405780636ffaa6d114610524578063710bf322146104aa578063788099bb1461046d57806379ba5097146103ce57806383f08a901461037357806387e6f164146102945780638da5cb5b1461026c578063e1437f0f1461022f578063e2d753141461018d578063e30c397814610165578063e79899bd146100f45763f91b003d146100d4575f80fd5b346100f0575f3660031901126100f05760206040516154608152f35b5f80fd5b346100f05760203660031901126100f0576004356002548110156100f05761011d60a0916108e8565b5060ff8154169060018101549060028101546003820154916004600180881b03910154169261014f60405180966108c5565b6020850152604084015260608301526080820152f35b346100f0575f3660031901126100f0576007546040516001600160a01b039091168152602090f35b346100f05760403660031901126100f0576101a66108d2565b6024359081151582036100f0576101fe906101cc60018060a01b036006541633146109e2565b6001600160a01b0316916101e1831515610a1b565b825f52600460205260405f209060ff801983541691151516179055565b61546042019081421161021b575f52600560205260405f20555f80f35b634e487b7160e01b5f52601160045260245ffd5b346100f05760203660031901126100f0576001600160a01b036102506108d2565b165f526003602052602060ff60405f2054166040519015158152f35b346100f0575f3660031901126100f0576006546040516001600160a01b039091168152602090f35b346100f05760203660031901126100f0576102ad6108d2565b6102c260018060a01b036006541633146109e2565b6001600160a01b03165f8181526005602052604090205415158061035d575b1561032657805f52600460205261031660ff60405f205416825f52600360205260405f209060ff801983541691151516179055565b5f90815260056020526040812055005b60405162461bcd60e51b815260206004820152600f60248201526e54696d656c6f636b2061637469766560881b6044820152606490fd5b50805f52600560205260405f20544210156102e1565b346100f05760203660031901126100f05761038c6108d2565b6103a160018060a01b036006541633146109e2565b6001600160a01b03165f90815260056020908152604080832083905560049091529020805460ff19169055005b346100f0575f3660031901126100f0576007546001600160a01b038116903382900361043357600680546001600160a01b03199081168417909155166007557fb27970c1714b28277b78cc17ac2fe9556e7f048cd48358cffe3dc7d547608fdc5f80a2005b60405162461bcd60e51b81526020600482015260126024820152712737ba10383937b837b9b2b21037bbb732b960711b6044820152606490fd5b346100f05760203660031901126100f0576001600160a01b0361048e6108d2565b165f526004602052602060ff60405f2054166040519015158152f35b346100f05760203660031901126100f0576104c36108d2565b6104d860018060a01b036006541633146109e2565b6001600160a01b03166104ec811515610a1b565b600780546001600160a01b031916821790557f6ab4d119f23076e8ad491bc65ce85f017fb0591dce08755ba8591059cc51737a5f80a2005b346100f0575f3660031901126100f05760206040516127108152f35b346100f05760603660031901126100f057600435600a81101590816100f0576024359060443592335f52600360205260ff60405f2054161561070e57610587600154610943565b600155610592610918565b61059c8382610937565b836020820152846040820152426060820152336080820152612710600254105f1461065c5760025490600160401b821015610648576105e48260016105ea94016002556108e8565b90610951565b610634576040518383835f516020610a775f395f51905f525f80a46002545f1981019190821161021b578061062f5f516020610a575f395f51905f52933342846109c1565b0390a4005b634e487b7160e01b5f52602160045260245ffd5b634e487b7160e01b5f52604160045260245ffd5b5f546127108106925082156106ba575b508161068c61062f926105e45f516020610a575f395f51905f52956108e8565b6106965f54610943565b5f556040519182918787875f516020610a775f395f51905f525f80a43342846109c1565b6127109004916001830180931161021b5761068c61062f925f516020610a575f395f51905f52947f51d2a2ac310765a9fe16ef6a51ebf3e5214365650c5b893cc8bf900bfabb0b535f80a29250509161066c565b60405162461bcd60e51b81526020600482015260156024820152742737ba1030baba3437b934bd32b2103637b3b3b2b960591b6044820152606490fd5b346100f0575f3660031901126100f0576020600254604051908152f35b346100f05760203660031901126100f0576001600160a01b036107896108d2565b165f526005602052602060405f2054604051908152f35b346100f0575f3660031901126100f0576020600154604051908152f35b346100f05760203660031901126100f0576004355f60806107dc610918565b828152826020820152826040820152826060820152015260025481101561088a5761080860a0916108e8565b50610811610918565b9061082060ff82541683610937565b60018101549060208301918252600281015460408401908152600382015491606085019283526004600180881b039101541692608085019384526108686040518096516108c5565b516020850152516040840152516060830152515f196001841b01166080820152f35b60405162461bcd60e51b8152602060048201526013602482015272496e646578206f7574206f6620626f756e647360681b6044820152606490fd5b90600a8210156106345752565b600435906001600160a01b03821682036100f057565b6002548110156109045760025f52600560205f20910201905f90565b634e487b7160e01b5f52603260045260245ffd5b6040519060a082016001600160401b0381118382101761064857604052565b600a8210156106345752565b5f19811461021b5760010190565b906109ae57815190600a8210156106345760049160ff801983541691161781556020830151600182015560408301516002820155606083015160038201550190608060018060a01b039101511660018060a01b0319825416179055565b634e487b7160e01b5f525f60045260245ffd5b9081526001600160a01b039091166020820152604081019190915260600190565b156109e957565b60405162461bcd60e51b815260206004820152600a60248201526927b7363c9037bbb732b960b11b6044820152606490fd5b15610a2257565b60405162461bcd60e51b815260206004820152600c60248201526b5a65726f206164647265737360a01b6044820152606490fdfe1cc2c52bbdc458d65d9611e9f1cde2d0154760df4669f3fb583923608a64c461a977f1ceb6cc9b2201a49c0caabbf8a7fe6848331b5545eefc71944536904517a164736f6c634300081b000a",
  "linkReferences": {},
  "deployedLinkReferences": {}
}