{
  "_format": "hh-sol-artifact-1",
  "contractName": "MedVaultAutomation",
  "sourceName": "contracts/MedVaultAutomation.sol",
  "abi": [
    {
      "inputs": [
        {
          "internalType": "address",
          "name": "_trialManager",
          "type": "address"
        },
        {
          "internalType": "address payable",
          "name": "_vault",
          "type": "address"
        },
        {
          "internalType": "address",
          "name": "_chainlinkForwarder",
          "type": "address"
        }
      ],
      "stateMutability": "nonpayable",
      "type": "constructor"
    },
    {
      "anonymous": false,
      "inputs": [
        {
          "indexed": true,
          "internalType": "uint256",
          "name": "trialId",
          "type": "uint256"
        },
        {
          "indexed": false,
          "internalType": "bytes",
          "name": "reason",
          "type": "bytes"
        }
      ],
      "name": "DistributionBatchFailed",
      "type": "event"
    },
    {
      "anonymous": false,
      "inputs": [
        {
          "indexed": true,
          "internalType": "address",
          "name": "newOwner",
          "type": "address"
        }
      ],
      "name": "OwnershipAccepted",
      "type": "event"
    },
    {
      "anonymous": false,
      "inputs": [
        {
          "indexed": true,
          "internalType": "address",
          "name": "proposedOwner",
          "type": "address"
        }
      ],
      "name": "OwnershipProposed",
      "type": "event"
    },
    {
      "anonymous": false,
      "inputs": [
        {
          "indexed": true,
          "internalType": "uint256",
          "name": "trialId",
          "type": "uint256"
        },
        {
          "indexed": false,
          "internalType": "bool",
          "name": "distributed",
          "type": "bool"
        },
        {
          "indexed": false,
          "internalType": "bool",
          "name": "deactivated",
          "type": "bool"
        }
      ],
      "name": "TrialFinalized",
      "type": "event"
    },
    {
      "inputs": [],
      "name": "PAGINATED_DISTRIBUTION_THRESHOLD",
      "outputs": [
        {
          "internalType": "uint256",
          "name": "",
          "type": "uint256"
        }
      ],
      "stateMutability": "view",
      "type": "function"
    },
    {
      "inputs": [],
      "name": "PAGINATION_BATCH_SIZE",
      "outputs": [
        {
          "internalType": "uint256",
          "name": "",
          "type": "uint256"
        }
      ],
      "stateMutability": "view",
      "type": "function"
    },
    {
      "inputs": [],
      "name": "acceptOwnership",
      "outputs": [],
      "stateMutability": "nonpayable",
      "type": "function"
    },
    {
      "inputs": [
        {
          "internalType": "uint256",
          "name": "",
          "type": "uint256"
        }
      ],
      "name": "activeTrialIds",
      "outputs": [
        {
          "internalType": "uint256",
          "name": "",
          "type": "uint256"
        }
      ],
      "stateMutability": "view",
      "type": "function"
    },
    {
      "inputs": [],
      "name": "chainlinkForwarder",
      "outputs": [
        {
          "internalType": "address",
          "name": "",
          "type": "address"
        }
      ],
      "stateMutability": "view",
      "type": "function"
    },
    {
      "inputs": [
        {
          "internalType": "bytes",
          "name": "",
          "type": "bytes"
        }
      ],
      "name": "checkUpkeep",
      "outputs": [
        {
          "internalType": "bool",
          "name": "upkeepNeeded",
          "type": "bool"
        },
        {
          "internalType": "bytes",
          "name": "performData",
          "type": "bytes"
        }
      ],
      "stateMutability": "view",
      "type": "function"
    },
    {
      "inputs": [
        {
          "internalType": "uint256",
          "name": "",
          "type": "uint256"
        }
      ],
      "name": "distributionInProgress",
      "outputs": [
        {
          "internalType": "bool",
          "name": "",
          "type": "bool"
        }
      ],
      "stateMutability": "view",
      "type": "function"
    },
    {
      "inputs": [
        {
          "internalType": "uint256",
          "name": "",
          "type": "uint256"
        }
      ],
      "name": "finalized",
      "outputs": [
        {
          "internalType": "bool",
          "name": "",
          "type": "bool"
        }
      ],
      "stateMutability": "view",
      "type": "function"
    },
    {
      "inputs": [
        {
          "internalType": "uint256",
          "name": "_trialId",
          "type": "uint256"
        }
      ],
      "name": "onTrialCreated",
      "outputs": [],
      "stateMutability": "nonpayable",
      "type": "function"
    },
    {
      "inputs": [
        {
          "internalType": "uint256",
          "name": "_trialId",
          "type": "uint256"
        }
      ],
      "name": "onTrialDeactivated",
      "outputs": [],
      "stateMutability": "nonpayable",
      "type": "function"
    },
    {
      "inputs": [],
      "name": "owner",
      "outputs": [
        {
          "internalType": "address",
          "name": "",
          "type": "address"
        }
      ],
      "stateMutability": "view",
      "type": "function"
    },
    {
      "inputs": [],
      "name": "pendingOwner",
      "outputs": [
        {
          "internalType": "address",
          "name": "",
          "type": "address"
        }
      ],
      "stateMutability": "view",
      "type": "function"
    },
    {
      "inputs": [
        {
          "internalType": "bytes",
          "name": "performData",
          "type": "bytes"
        }
      ],
      "name": "performUpkeep",
      "outputs": [],
      "stateMutability": "nonpayable",
      "type": "function"
    },
    {
      "inputs": [
        {
          "internalType": "address",
          "name": "_newOwner",
          "type": "address"
        }
      ],
      "name": "proposeOwnership",
      "outputs": [],
      "stateMutability": "nonpayable",
      "type": "function"
    },
    {
      "inputs": [
        {
          "internalType": "address",
          "name": "_forwarder",
          "type": "address"
        }
      ],
      "name": "setChainlinkForwarder",
      "outputs": [],
      "stateMutability": "nonpayable",
      "type": "function"
    },
    {
      "inputs": [
        {
          "internalType": "address payable",
          "name": "_vault",
          "type": "address"
        }
      ],
      "name": "setVault",
      "outputs": [],
      "stateMutability": "nonpayable",
      "type": "function"
    },
    {
      "inputs": [],
      "name": "trialManager",
      "outputs": [
        {
          "internalType": "contract TrialManager",
          "name": "",
          "type": "address"
        }
      ],
      "stateMutability": "view",
      "type": "function"
    },
    {
      "inputs": [],
      "name": "vault",
      "outputs": [
        {
          "internalType": "contract SponsorIncentiveVault",
          "name": "",
          "type": "address"
        }
      ],
      "stateMutability": "view",
      "type": "function"
    }
  ],
  "bytecode": "0x60803460b657601f61142138819003918201601f19168301916001600160401b0383118484101760ba5780849260609460405283398101031260b65760428160ce565b602082015190916001600160a01b0382169182900360b65760406064910160ce565b60028054336001600160a01b0319918216179091555f80546001600160a01b03958616908316179055600180548216939093179092556005805491909316911617905560405161133f90816100e28239f35b5f80fd5b634e487b7160e01b5f52604160045260245ffd5b51906001600160a01b038216820360b65756fe6080806040526004361015610012575f80fd5b5f905f3560e01c90816331169d2414610dc3575080634585e33b1461065a5780634ddaced21461062b57806355f8cfdd146106045780636817031b146105795780636e04ff0d1461053d578063710bf322146104bd57806373e59d431461048e57806378ed50d61461046557806379ba5097146103c45780638da5cb5b1461039b578063933aaaea14610361578063991914ed14610345578063d02c21b1146102e3578063d4e748bd1461025a578063e30c397814610231578063f232ce921461010f5763fbfa77cf146100e4575f80fd5b3461010c578060031936011261010c576001546040516001600160a01b039091168152602090f35b80fd5b503461010c57602036600319011261010c5760043561013860018060a01b0383541633146112b2565b808252600760205260408220548061014e578280f35b6006545f19810190811161021d5761016581610e4f565b90549060031b1c905f198301908382116102095781036101d0575b50505060065480156101bc575f190161019881610e4f565b8154905f199060031b1b19169055600655815260076020528060408120555f808280f35b634e487b7160e01b83526031600452602483fd5b816101dd6101f592610e4f565b90919082549060031b91821b915f19901b1916179055565b8352600760205260408320555f8080610180565b634e487b7160e01b86526011600452602486fd5b634e487b7160e01b84526011600452602484fd5b503461010c578060031936011261010c576003546040516001600160a01b039091168152602090f35b503461010c57602036600319011261010c5760043561028360018060a01b0383541633146112b2565b8082526007602052604082205415610299575080f35b600654600160401b8110156102cf57816101dd8260016102bc9401600655610e4f565b6006549082526007602052604082205580f35b634e487b7160e01b83526041600452602483fd5b503461010c57602036600319011261010c576004356001600160a01b038116908190036103415761031f60018060a01b03600254163314611130565b61032a811515611277565b600580546001600160a01b03191691909117905580f35b5080fd5b503461010c578060031936011261010c57602060405160328152f35b503461010c57602036600319011261010c576004359060065482101561010c57602061038c83610e4f565b90549060031b1c604051908152f35b503461010c578060031936011261010c576002546040516001600160a01b039091168152602090f35b503461010c578060031936011261010c576003546001600160a01b038116903382900361042b57600280546001600160a01b03199081168417909155166003557fb27970c1714b28277b78cc17ac2fe9556e7f048cd48358cffe3dc7d547608fdc8280a280f35b60405162461bcd60e51b81526020600482015260126024820152712737ba10383937b837b9b2b21037bbb732b960711b6044820152606490fd5b503461010c578060031936011261010c576005546040516001600160a01b039091168152602090f35b503461010c57602036600319011261010c5760ff60406020926004358152600884522054166040519015158152f35b503461010c57602036600319011261010c576004356001600160a01b03811690819003610341576104f960018060a01b03600254163314611130565b610504811515611277565b600380546001600160a01b031916821790557f6ab4d119f23076e8ad491bc65ce85f017fb0591dce08755ba8591059cc51737a8280a280f35b503461010c5761054c36610ddc565b5050610556611169565b9061057560405192839215158352604060208401526040830190610e2b565b0390f35b503461010c57602036600319011261010c576004356001600160a01b03811690819003610341576105b560018060a01b03600254163314611130565b80156105d257600180546001600160a01b03191691909117905580f35b60405162461bcd60e51b815260206004820152600a60248201526916995c9bc81d985d5b1d60b21b6044820152606490fd5b503461010c578060031936011261010c57546040516001600160a01b039091168152602090f35b503461010c57602036600319011261010c5760ff60406020926004358152600484522054166040519015158152f35b503461092a5761066936610ddc565b6005546001600160a01b031633148015610daf575b15610d7057816040918101031261092a5780359060ff821680920361092a5760200135906001146106ad575080f35b805f52600760205260405f205415610d31575f8054604051631a7f3c3360e01b8152600481018490529190829060249082906001600160a01b03165afa9081156109b2575f91610d0f575b5060a081015115610cd7576101e001518015159081610ccc575b5015610c9357805f52600460205260ff60405f205416610c5a576001546040516321ab97fb60e21b8152600481018390525f916001600160a01b0316602082602481845afa80156109b25784925f91610c25575b5080151580610bb3575b15610b3c5760321015610a8f57505060015460405163d84df05b60e01b8152600481018490525f6024820152906001600160a01b0316602082604481845afa9081156109b25784925f92610a58575b50811590816109d9575b505f9182916109bd575b60018060a01b03600154169082604051602081019263e3b39cfd60e01b84528760248301528260448301526064820152601960848201526084815261081960a482610e7b565b51925af1610825611101565b9061092e576108505f5160206113135f395f51905f5291604051918291602083526020830190610e2b565b0390a25b5f80546001600160a01b0316803b1561092a575f8091602460405180948193636e8faa0b60e11b83528960048401525af19081610900575b50916040915f5160206112f35f395f51905f52936108f8575b81806108f1575b6108c3575b8251911515825215156020820152a280f35b8486526004602052828620600160ff19825416179055848652600860205282862060ff1981541690556108b1565b50806108ac565b5060016108a5565b5f5160206112f35f395f51905f52939195509161091f5f604094610e7b565b5f959193509161088c565b5f80fd5b505060015460405163c322122760e01b8152600481018490525f60248201529150602090829060449082906001600160a01b03165afa9081156109b2575f91610978575b50610854565b90506020813d6020116109aa575b8161099360209383610e7b565b8101031261092a576109a490610f13565b5f610972565b3d9150610986565b6040513d5f823e3d90fd5b838252600860205260408220805460ff191660011790556107d3565b604493506020915060405193848092639a5c845560e01b82528860048301525f60248301525afa80156109b25784925f91610a17575b50155f6107c9565b9250506020823d602011610a50575b81610a3360209383610e7b565b8101031261092a575f8091610a488694610f13565b915091610a0f565b3d9150610a26565b925090506020823d602011610a87575b81610a7560209383610e7b565b8101031261092a57839151905f6107bf565b3d9150610a68565b5f80916040518260208201916391c05b0b60e01b835286602482015260248152610aba604482610e7b565b51925af1610ac6611101565b90610af957610af15f5160206113135f395f51905f5291604051918291602083526020830190610e2b565b0390a2610854565b50506001546040516337b161d360e11b8152600481018490529150602090829060249082906001600160a01b03165afa9081156109b2575f916109785750610854565b5060249150602090604051928380926337b161d360e11b82528760048301525afa9081156109b2575f91610b79575b501561085457506001610854565b90506020813d602011610bab575b81610b9460209383610e7b565b8101031261092a57610ba590610f13565b5f610b6b565b3d9150610b87565b506040516337b161d360e11b8152600481018690529250602083602481855afa80156109b25785935f91610be9575b5015610770565b9350506020833d602011610c1d575b81610c0560209383610e7b565b8101031261092a57610c178593610f13565b5f610be2565b3d9150610bf8565b9250506020823d602011610c52575b81610c4160209383610e7b565b8101031261092a578391515f610766565b3d9150610c34565b60405162461bcd60e51b8152602060048201526011602482015270105b1c9958591e48199a5b985b1a5e9959607a1b6044820152606490fd5b60405162461bcd60e51b8152602060048201526011602482015270151c9a585b081b9bdd08195e1c1a5c9959607a1b6044820152606490fd5b90504210155f610712565b60405162461bcd60e51b815260206004820152601060248201526f547269616c206e6f742061637469766560801b6044820152606490fd5b610d2b91503d805f833e610d238183610e7b565b810190610f3d565b5f6106f8565b60405162461bcd60e51b8152602060048201526017602482015276151c9a585b081b9bdd081a5b881858dd1a5d99481cd95d604a1b6044820152606490fd5b60405162461bcd60e51b815260206004820152601760248201527627b7363c903337b93bb0b93232b91037b91037bbb732b960491b6044820152606490fd5b506002546001600160a01b0316331461067e565b3461092a575f36600319011261092a5780601960209252f35b90602060031983011261092a576004356001600160401b03811161092a578260238201121561092a576004810135926001600160401b03841161092a576024848301011161092a576024019190565b805180835260209291819084018484015e5f828201840152601f01601f1916010190565b600654811015610e675760065f5260205f2001905f90565b634e487b7160e01b5f52603260045260245ffd5b601f909101601f19168101906001600160401b03821190821017610e9e57604052565b634e487b7160e01b5f52604160045260245ffd5b6001600160401b038111610e9e57601f01601f191660200190565b81601f8201121561092a57805190610ee482610eb2565b92610ef26040519485610e7b565b8284526020838301011161092a57815f9260208093018386015e8301015290565b5190811515820361092a57565b519060ff8216820361092a57565b519061ffff8216820361092a57565b60208183031261092a578051906001600160401b03821161092a57016102208183031261092a576040519161022083016001600160401b03811184821017610e9e5760405281516001600160401b03811161092a5781610f9e918401610ecd565b835260208201516001600160401b03811161092a5781610fbf918401610ecd565b602084015260408201516001600160401b03811161092a5781610fe3918401610ecd565b60408401526060820151906001600160401b03821161092a57611007918301610ecd565b606083015260808101516001600160a01b038116810361092a576110f89161020091608085015261103a60a08201610f13565b60a085015261104b60c08201610f20565b60c085015261105c60e08201610f20565b60e085015261106e6101008201610f13565b6101008501526110816101208201610f2e565b6101208501526110946101408201610f20565b6101408501526110a76101608201610f20565b6101608501526110ba6101808201610f2e565b6101808501526110cd6101a08201610f13565b6101a08501526110e06101c08201610f13565b6101c08501526101e08101516101e085015201610f13565b61020082015290565b3d1561112b573d9061111282610eb2565b916111206040519384610e7b565b82523d5f602084013e565b606090565b1561113757565b60405162461bcd60e51b815260206004820152600a60248201526927b7363c9037bbb732b960b11b6044820152606490fd5b6006545f80546001600160a01b031691905b81811061119b575050505f90604051611195602082610e7b565b5f815290565b6111a481610e4f565b90549060031b1c604051631a7f3c3360e01b81528160048201525f81602481885afa9081156109b2575f9161125d575b5060a08101511515908161124e575b8161123e575b5080611227575b6111fd575060010161117b565b93925050506040519160016020840152604083015260408252611221606083610e7b565b60019190565b50805f52600460205260ff60405f205416156111f0565b6101e0915001514210155f6111e9565b6101e0810151151591506111e3565b61127191503d805f833e610d238183610e7b565b5f6111d4565b1561127e57565b60405162461bcd60e51b815260206004820152600c60248201526b5a65726f206164647265737360a01b6044820152606490fd5b156112b957565b60405162461bcd60e51b815260206004820152601160248201527027b7363c902a3934b0b626b0b730b3b2b960791b6044820152606490fdfe4089bb887c83f7f9f5eb4a2ae07012fcf8267ea21ac02ff4a2e69b731dbce92dee001f479891445f9c9863eaf06fd8f5b807183d17bc5815711f60a4773b3304a164736f6c634300081b000a",
  "linkReferences": {},
  "deployedLinkReferences": {}
}