{
  "_format": "hh-sol-artifact-1",
  "contractName": "SponsorIncentiveVaultTestHarness",
  "sourceName": "contracts/test/SponsorIncentiveVaultTestHarness.sol",
  "abi": [
    {
      "inputs": [
        {
          "internalType": "address payable",
          "name": "_cETH",
          "type": "address"
        },
        {
          "internalType": "address",
          "name": "_trialManager",
          "type": "address"
        },
        {
          "internalType": "address",
          "name": "_eligibilityEngine",
          "type": "address"
        }
      ],
      "stateMutability": "nonpayable",
      "type": "constructor"
    },
    {
      "inputs": [],
      "name": "AlreadyCompleted",
      "type": "error"
    },
    {
      "inputs": [],
      "name": "AlreadyPaidForThisMilestone",
      "type": "error"
    },
    {
      "inputs": [],
      "name": "AlreadyReclaimed",
      "type": "error"
    },
    {
      "inputs": [],
      "name": "AlreadyRegistered",
      "type": "error"
    },
    {
      "inputs": [],
      "name": "AmountTooLarge",
      "type": "error"
    },
    {
      "inputs": [],
      "name": "AppNotAccepted",
      "type": "error"
    },
    {
      "inputs": [],
      "name": "AuthAlreadyUsed",
      "type": "error"
    },
    {
      "inputs": [],
      "name": "BatchMustBeSequential",
      "type": "error"
    },
    {
      "inputs": [],
      "name": "BlockedAfterReclaim",
      "type": "error"
    },
    {
      "inputs": [],
      "name": "ChallengeClosed",
      "type": "error"
    },
    {
      "inputs": [],
      "name": "ChallengeNotOpen",
      "type": "error"
    },
    {
      "inputs": [],
      "name": "ChallengeStillActive",
      "type": "error"
    },
    {
      "inputs": [],
      "name": "ConfidentialFundingDisabled",
      "type": "error"
    },
    {
      "inputs": [],
      "name": "ECDSAInvalidSignature",
      "type": "error"
    },
    {
      "inputs": [
        {
          "internalType": "uint256",
          "name": "length",
          "type": "uint256"
        }
      ],
      "name": "ECDSAInvalidSignatureLength",
      "type": "error"
    },
    {
      "inputs": [
        {
          "internalType": "bytes32",
          "name": "s",
          "type": "bytes32"
        }
      ],
      "name": "ECDSAInvalidSignatureS",
      "type": "error"
    },
    {
      "inputs": [],
      "name": "EncryptedPoolSizeOverflow",
      "type": "error"
    },
    {
      "inputs": [],
      "name": "EntitlementNotStaged",
      "type": "error"
    },
    {
      "inputs": [],
      "name": "ForcedCreditRevert",
      "type": "error"
    },
    {
      "inputs": [],
      "name": "FundingLockedAfterRegistrationBegan",
      "type": "error"
    },
    {
      "inputs": [],
      "name": "InsufficientETHInVault",
      "type": "error"
    },
    {
      "inputs": [],
      "name": "InvalidClaimSignature",
      "type": "error"
    },
    {
      "inputs": [],
      "name": "InvalidKMSSignatures",
      "type": "error"
    },
    {
      "inputs": [],
      "name": "InvalidMilestoneIndex",
      "type": "error"
    },
    {
      "inputs": [],
      "name": "InvalidRegisterSignature",
      "type": "error"
    },
    {
      "inputs": [],
      "name": "InvalidShortString",
      "type": "error"
    },
    {
      "inputs": [],
      "name": "InvalidStartIndex",
      "type": "error"
    },
    {
      "inputs": [],
      "name": "MilestoneAlreadyDistributed",
      "type": "error"
    },
    {
      "inputs": [],
      "name": "MilestoneManagerNotSet",
      "type": "error"
    },
    {
      "inputs": [],
      "name": "MilestoneNotCompletedByParticipant",
      "type": "error"
    },
    {
      "inputs": [],
      "name": "MilestoneNotDistributed",
      "type": "error"
    },
    {
      "inputs": [],
      "name": "MilestonesNotFullyDistributed",
      "type": "error"
    },
    {
      "inputs": [],
      "name": "MustSendETH",
      "type": "error"
    },
    {
      "inputs": [],
      "name": "NoEligibleParticipants",
      "type": "error"
    },
    {
      "inputs": [],
      "name": "NoIncentivePool",
      "type": "error"
    },
    {
      "inputs": [],
      "name": "NoMilestonesConfigured",
      "type": "error"
    },
    {
      "inputs": [],
      "name": "NoParticipants",
      "type": "error"
    },
    {
      "inputs": [],
      "name": "NoPermitHolderFound",
      "type": "error"
    },
    {
      "inputs": [],
      "name": "NotAuthorized",
      "type": "error"
    },
    {
      "inputs": [],
      "name": "NotEligibleProof",
      "type": "error"
    },
    {
      "inputs": [],
      "name": "NotProposedOwner",
      "type": "error"
    },
    {
      "inputs": [],
      "name": "NotReclaimRecipient",
      "type": "error"
    },
    {
      "inputs": [],
      "name": "NotRegisteredSlot",
      "type": "error"
    },
    {
      "inputs": [],
      "name": "NothingToClaim",
      "type": "error"
    },
    {
      "inputs": [],
      "name": "NothingToReclaim",
      "type": "error"
    },
    {
      "inputs": [],
      "name": "NullifierAlreadyUsedForRegistration",
      "type": "error"
    },
    {
      "inputs": [],
      "name": "OnlyOwner",
      "type": "error"
    },
    {
      "inputs": [],
      "name": "OnlyPermitHolder",
      "type": "error"
    },
    {
      "inputs": [],
      "name": "OnlyPermitHolderCanRegister",
      "type": "error"
    },
    {
      "inputs": [],
      "name": "OnlySponsor",
      "type": "error"
    },
    {
      "inputs": [],
      "name": "OnlySponsorCanFund",
      "type": "error"
    },
    {
      "inputs": [],
      "name": "PaginationInProgress",
      "type": "error"
    },
    {
      "inputs": [],
      "name": "ParticipantNotRegistered",
      "type": "error"
    },
    {
      "inputs": [],
      "name": "PatientNotRegistered",
      "type": "error"
    },
    {
      "inputs": [],
      "name": "PermitHolderMismatch",
      "type": "error"
    },
    {
      "inputs": [],
      "name": "PoolAtCapacity",
      "type": "error"
    },
    {
      "inputs": [],
      "name": "PoolNotFunded",
      "type": "error"
    },
    {
      "inputs": [],
      "name": "ReentrancyGuardReentrantCall",
      "type": "error"
    },
    {
      "inputs": [],
      "name": "ScreeningAlreadyDistributed",
      "type": "error"
    },
    {
      "inputs": [],
      "name": "ScreeningAlreadyFinalized",
      "type": "error"
    },
    {
      "inputs": [],
      "name": "SignatureExpired",
      "type": "error"
    },
    {
      "inputs": [],
      "name": "SlotAlreadyConfirmed",
      "type": "error"
    },
    {
      "inputs": [],
      "name": "SponsorNoLongerVerified",
      "type": "error"
    },
    {
      "inputs": [],
      "name": "SponsorStillVerified",
      "type": "error"
    },
    {
      "inputs": [
        {
          "internalType": "string",
          "name": "str",
          "type": "string"
        }
      ],
      "name": "StringTooLong",
      "type": "error"
    },
    {
      "inputs": [],
      "name": "TestHelpersDisabled",
      "type": "error"
    },
    {
      "inputs": [],
      "name": "TrialAlreadyEnded",
      "type": "error"
    },
    {
      "inputs": [],
      "name": "TrialDoesNotExist",
      "type": "error"
    },
    {
      "inputs": [],
      "name": "TrialNotActive",
      "type": "error"
    },
    {
      "inputs": [],
      "name": "TrialNotYetEnded",
      "type": "error"
    },
    {
      "inputs": [],
      "name": "UseDistributeForScreening",
      "type": "error"
    },
    {
      "inputs": [],
      "name": "UseDistributePartialPaginatedForLargePools",
      "type": "error"
    },
    {
      "inputs": [],
      "name": "UsePaginatedVersion",
      "type": "error"
    },
    {
      "inputs": [],
      "name": "ZamaProtocolUnsupported",
      "type": "error"
    },
    {
      "inputs": [],
      "name": "ZeroAddress",
      "type": "error"
    },
    {
      "inputs": [],
      "name": "ZeroDestinationAddress",
      "type": "error"
    },
    {
      "anonymous": false,
      "inputs": [
        {
          "indexed": true,
          "internalType": "uint256",
          "name": "trialId",
          "type": "uint256"
        },
        {
          "indexed": true,
          "internalType": "uint256",
          "name": "nullifier",
          "type": "uint256"
        }
      ],
      "name": "AnonymousParticipantRegistered",
      "type": "event"
    },
    {
      "anonymous": false,
      "inputs": [
        {
          "indexed": true,
          "internalType": "uint256",
          "name": "trialId",
          "type": "uint256"
        },
        {
          "indexed": true,
          "internalType": "address",
          "name": "permitHolder",
          "type": "address"
        },
        {
          "indexed": false,
          "internalType": "bytes32",
          "name": "sufficientHandle",
          "type": "bytes32"
        }
      ],
      "name": "ClaimInitiated",
      "type": "event"
    },
    {
      "anonymous": false,
      "inputs": [],
      "name": "EIP712DomainChanged",
      "type": "event"
    },
    {
      "anonymous": false,
      "inputs": [
        {
          "indexed": true,
          "internalType": "uint256",
          "name": "trialId",
          "type": "uint256"
        },
        {
          "indexed": true,
          "internalType": "address",
          "name": "sponsor",
          "type": "address"
        }
      ],
      "name": "IncentiveFunded",
      "type": "event"
    },
    {
      "anonymous": false,
      "inputs": [
        {
          "indexed": true,
          "internalType": "uint256",
          "name": "trialId",
          "type": "uint256"
        },
        {
          "indexed": false,
          "internalType": "uint256",
          "name": "milestoneIndex",
          "type": "uint256"
        }
      ],
      "name": "MilestoneDistributedPublicSignaled",
      "type": "event"
    },
    {
      "anonymous": false,
      "inputs": [
        {
          "indexed": true,
          "internalType": "uint256",
          "name": "trialId",
          "type": "uint256"
        },
        {
          "indexed": false,
          "internalType": "uint256",
          "name": "milestoneIndex",
          "type": "uint256"
        }
      ],
      "name": "MilestoneRewardsDistributed",
      "type": "event"
    },
    {
      "anonymous": false,
      "inputs": [
        {
          "indexed": true,
          "internalType": "address",
          "name": "newOwner",
          "type": "address"
        }
      ],
      "name": "OwnershipAccepted",
      "type": "event"
    },
    {
      "anonymous": false,
      "inputs": [
        {
          "indexed": true,
          "internalType": "address",
          "name": "proposedOwner",
          "type": "address"
        }
      ],
      "name": "OwnershipProposed",
      "type": "event"
    },
    {
      "anonymous": false,
      "inputs": [
        {
          "indexed": true,
          "internalType": "uint256",
          "name": "trialId",
          "type": "uint256"
        },
        {
          "indexed": true,
          "internalType": "uint256",
          "name": "milestoneIndex",
          "type": "uint256"
        },
        {
          "indexed": true,
          "internalType": "address",
          "name": "participant",
          "type": "address"
        },
        {
          "indexed": false,
          "internalType": "bytes",
          "name": "reason",
          "type": "bytes"
        }
      ],
      "name": "ParticipantCreditFailed",
      "type": "event"
    },
    {
      "anonymous": false,
      "inputs": [
        {
          "indexed": false,
          "internalType": "bytes32[]",
          "name": "handlesList",
          "type": "bytes32[]"
        },
        {
          "indexed": false,
          "internalType": "bytes",
          "name": "abiEncodedCleartexts",
          "type": "bytes"
        }
      ],
      "name": "PublicDecryptionVerified",
      "type": "event"
    },
    {
      "anonymous": false,
      "inputs": [
        {
          "indexed": true,
          "internalType": "uint256",
          "name": "trialId",
          "type": "uint256"
        },
        {
          "indexed": true,
          "internalType": "address",
          "name": "recipient",
          "type": "address"
        },
        {
          "indexed": false,
          "internalType": "uint256",
          "name": "amount",
          "type": "uint256"
        }
      ],
      "name": "ReclaimClaimed",
      "type": "event"
    },
    {
      "anonymous": false,
      "inputs": [
        {
          "indexed": true,
          "internalType": "uint256",
          "name": "trialId",
          "type": "uint256"
        },
        {
          "indexed": true,
          "internalType": "address",
          "name": "owner",
          "type": "address"
        }
      ],
      "name": "ReclaimReroutedToOwner",
      "type": "event"
    },
    {
      "anonymous": false,
      "inputs": [
        {
          "indexed": true,
          "internalType": "uint256",
          "name": "trialId",
          "type": "uint256"
        },
        {
          "indexed": true,
          "internalType": "address",
          "name": "recipient",
          "type": "address"
        },
        {
          "indexed": false,
          "internalType": "uint256",
          "name": "amount",
          "type": "uint256"
        }
      ],
      "name": "ReclaimScheduled",
      "type": "event"
    },
    {
      "anonymous": false,
      "inputs": [
        {
          "indexed": true,
          "internalType": "uint256",
          "name": "trialId",
          "type": "uint256"
        },
        {
          "indexed": false,
          "internalType": "uint256",
          "name": "milestoneIndex",
          "type": "uint256"
        }
      ],
      "name": "RewardDustSkipped",
      "type": "event"
    },
    {
      "anonymous": false,
      "inputs": [
        {
          "indexed": true,
          "internalType": "uint256",
          "name": "trialId",
          "type": "uint256"
        }
      ],
      "name": "RewardsDistributed",
      "type": "event"
    },
    {
      "anonymous": false,
      "inputs": [
        {
          "indexed": true,
          "internalType": "uint256",
          "name": "trialId",
          "type": "uint256"
        },
        {
          "indexed": true,
          "internalType": "uint256",
          "name": "milestoneIndex",
          "type": "uint256"
        },
        {
          "indexed": true,
          "internalType": "address",
          "name": "participant",
          "type": "address"
        },
        {
          "indexed": false,
          "internalType": "uint256",
          "name": "amountWei",
          "type": "uint256"
        }
      ],
      "name": "SlotConfirmed",
      "type": "event"
    },
    {
      "anonymous": false,
      "inputs": [
        {
          "indexed": true,
          "internalType": "uint256",
          "name": "trialId",
          "type": "uint256"
        },
        {
          "indexed": true,
          "internalType": "uint256",
          "name": "milestoneIndex",
          "type": "uint256"
        },
        {
          "indexed": true,
          "internalType": "address",
          "name": "participant",
          "type": "address"
        }
      ],
      "name": "SlotPruned",
      "type": "event"
    },
    {
      "anonymous": false,
      "inputs": [
        {
          "indexed": true,
          "internalType": "address",
          "name": "recipient",
          "type": "address"
        }
      ],
      "name": "StrandedCethRecovered",
      "type": "event"
    },
    {
      "anonymous": false,
      "inputs": [
        {
          "indexed": true,
          "internalType": "uint256",
          "name": "trialId",
          "type": "uint256"
        }
      ],
      "name": "TrialPoolSizeMadePublic",
      "type": "event"
    },
    {
      "inputs": [],
      "name": "CHALLENGE_WINDOW",
      "outputs": [
        {
          "internalType": "uint256",
          "name": "",
          "type": "uint256"
        }
      ],
      "stateMutability": "view",
      "type": "function"
    },
    {
      "inputs": [],
      "name": "DISTRIBUTE_BATCH_SIZE",
      "outputs": [
        {
          "internalType": "uint256",
          "name": "",
          "type": "uint256"
        }
      ],
      "stateMutability": "view",
      "type": "function"
    },
    {
      "inputs": [],
      "name": "MAX_PARTICIPANTS",
      "outputs": [
        {
          "internalType": "uint256",
          "name": "",
          "type": "uint256"
        }
      ],
      "stateMutability": "view",
      "type": "function"
    },
    {
      "inputs": [],
      "name": "READER_CHANGE_DELAY",
      "outputs": [
        {
          "internalType": "uint256",
          "name": "",
          "type": "uint256"
        }
      ],
      "stateMutability": "view",
      "type": "function"
    },
    {
      "inputs": [],
      "name": "RECLAIM_GRACE_PERIOD",
      "outputs": [
        {
          "internalType": "uint256",
          "name": "",
          "type": "uint256"
        }
      ],
      "stateMutability": "view",
      "type": "function"
    },
    {
      "inputs": [],
      "name": "acceptOwnership",
      "outputs": [],
      "stateMutability": "nonpayable",
      "type": "function"
    },
    {
      "inputs": [],
      "name": "applyAutomationContract",
      "outputs": [],
      "stateMutability": "nonpayable",
      "type": "function"
    },
    {
      "inputs": [],
      "name": "applyDataAccessLog",
      "outputs": [],
      "stateMutability": "nonpayable",
      "type": "function"
    },
    {
      "inputs": [],
      "name": "applyMilestoneManager",
      "outputs": [],
      "stateMutability": "nonpayable",
      "type": "function"
    },
    {
      "inputs": [],
      "name": "applySponsorRegistry",
      "outputs": [],
      "stateMutability": "nonpayable",
      "type": "function"
    },
    {
      "inputs": [],
      "name": "automationContract",
      "outputs": [
        {
          "internalType": "address",
          "name": "",
          "type": "address"
        }
      ],
      "stateMutability": "view",
      "type": "function"
    },
    {
      "inputs": [],
      "name": "automationContractChangeEta",
      "outputs": [
        {
          "internalType": "uint256",
          "name": "",
          "type": "uint256"
        }
      ],
      "stateMutability": "view",
      "type": "function"
    },
    {
      "inputs": [],
      "name": "cETH",
      "outputs": [
        {
          "internalType": "contract ConfidentialETH",
          "name": "",
          "type": "address"
        }
      ],
      "stateMutability": "view",
      "type": "function"
    },
    {
      "inputs": [
        {
          "internalType": "bytes32",
          "name": "",
          "type": "bytes32"
        }
      ],
      "name": "claimAuthUsed",
      "outputs": [
        {
          "internalType": "bool",
          "name": "",
          "type": "bool"
        }
      ],
      "stateMutability": "view",
      "type": "function"
    },
    {
      "inputs": [
        {
          "internalType": "uint256",
          "name": "_trialId",
          "type": "uint256"
        },
        {
          "internalType": "uint256",
          "name": "_nullifier",
          "type": "uint256"
        },
        {
          "internalType": "address",
          "name": "_destination",
          "type": "address"
        },
        {
          "internalType": "externalEuint64",
          "name": "encryptedUnits",
          "type": "bytes32"
        },
        {
          "internalType": "bytes",
          "name": "inputProof",
          "type": "bytes"
        },
        {
          "internalType": "uint256",
          "name": "_withdrawToNonce",
          "type": "uint256"
        },
        {
          "internalType": "uint256",
          "name": "_withdrawToDeadline",
          "type": "uint256"
        },
        {
          "internalType": "bytes",
          "name": "_withdrawToSignature",
          "type": "bytes"
        }
      ],
      "name": "claimParticipantRewards",
      "outputs": [],
      "stateMutability": "nonpayable",
      "type": "function"
    },
    {
      "inputs": [
        {
          "internalType": "uint256",
          "name": "_trialId",
          "type": "uint256"
        },
        {
          "internalType": "uint256",
          "name": "_nullifier",
          "type": "uint256"
        },
        {
          "internalType": "address",
          "name": "_permitHolder",
          "type": "address"
        },
        {
          "internalType": "address",
          "name": "_destination",
          "type": "address"
        },
        {
          "internalType": "uint256",
          "name": "_units",
          "type": "uint256"
        },
        {
          "internalType": "bytes32",
          "name": "_encryptedAmountCommitment",
          "type": "bytes32"
        },
        {
          "internalType": "externalEuint64",
          "name": "encryptedUnits",
          "type": "bytes32"
        },
        {
          "internalType": "bytes",
          "name": "inputProof",
          "type": "bytes"
        },
        {
          "internalType": "uint256",
          "name": "_nonce",
          "type": "uint256"
        },
        {
          "internalType": "uint256",
          "name": "_deadline",
          "type": "uint256"
        },
        {
          "internalType": "bytes",
          "name": "_signature",
          "type": "bytes"
        },
        {
          "internalType": "uint256",
          "name": "_withdrawToNonce",
          "type": "uint256"
        },
        {
          "internalType": "uint256",
          "name": "_withdrawToDeadline",
          "type": "uint256"
        },
        {
          "internalType": "bytes",
          "name": "_withdrawToSignature",
          "type": "bytes"
        }
      ],
      "name": "claimParticipantRewardsFor",
      "outputs": [],
      "stateMutability": "nonpayable",
      "type": "function"
    },
    {
      "inputs": [
        {
          "internalType": "uint256",
          "name": "_trialId",
          "type": "uint256"
        }
      ],
      "name": "claimReclaimed",
      "outputs": [],
      "stateMutability": "nonpayable",
      "type": "function"
    },
    {
      "inputs": [],
      "name": "confidentialFundingAccountingReady",
      "outputs": [
        {
          "internalType": "bool",
          "name": "",
          "type": "bool"
        }
      ],
      "stateMutability": "view",
      "type": "function"
    },
    {
      "inputs": [],
      "name": "confidentialFundingEnabled",
      "outputs": [
        {
          "internalType": "bool",
          "name": "",
          "type": "bool"
        }
      ],
      "stateMutability": "view",
      "type": "function"
    },
    {
      "inputs": [],
      "name": "confidentialProtocolId",
      "outputs": [
        {
          "internalType": "uint256",
          "name": "",
          "type": "uint256"
        }
      ],
      "stateMutability": "view",
      "type": "function"
    },
    {
      "inputs": [
        {
          "internalType": "uint256",
          "name": "_trialId",
          "type": "uint256"
        },
        {
          "internalType": "uint256",
          "name": "_milestoneIndex",
          "type": "uint256"
        },
        {
          "internalType": "bytes",
          "name": "cleartexts",
          "type": "bytes"
        },
        {
          "internalType": "bytes",
          "name": "decryptionProof",
          "type": "bytes"
        }
      ],
      "name": "confirmReceipt",
      "outputs": [],
      "stateMutability": "nonpayable",
      "type": "function"
    },
    {
      "inputs": [
        {
          "internalType": "uint256",
          "name": "",
          "type": "uint256"
        },
        {
          "internalType": "address",
          "name": "",
          "type": "address"
        },
        {
          "internalType": "uint256",
          "name": "",
          "type": "uint256"
        }
      ],
      "name": "confirmedPayout",
      "outputs": [
        {
          "internalType": "bool",
          "name": "",
          "type": "bool"
        }
      ],
      "stateMutability": "view",
      "type": "function"
    },
    {
      "inputs": [
        {
          "internalType": "uint256",
          "name": "trialId",
          "type": "uint256"
        },
        {
          "internalType": "uint256",
          "name": "milestoneIndex",
          "type": "uint256"
        },
        {
          "internalType": "address",
          "name": "participant",
          "type": "address"
        },
        {
          "internalType": "uint256",
          "name": "amountWei",
          "type": "uint256"
        }
      ],
      "name": "creditParticipantRewardForBatch",
      "outputs": [
        {
          "internalType": "uint256",
          "name": "creditedWei",
          "type": "uint256"
        }
      ],
      "stateMutability": "nonpayable",
      "type": "function"
    },
    {
      "inputs": [],
      "name": "dataAccessLog",
      "outputs": [
        {
          "internalType": "contract IVaultDataAccessLog",
          "name": "",
          "type": "address"
        }
      ],
      "stateMutability": "view",
      "type": "function"
    },
    {
      "inputs": [],
      "name": "dataAccessLogChangeEta",
      "outputs": [
        {
          "internalType": "uint256",
          "name": "",
          "type": "uint256"
        }
      ],
      "stateMutability": "view",
      "type": "function"
    },
    {
      "inputs": [
        {
          "internalType": "uint256",
          "name": "_trialId",
          "type": "uint256"
        }
      ],
      "name": "distribute",
      "outputs": [],
      "stateMutability": "nonpayable",
      "type": "function"
    },
    {
      "inputs": [
        {
          "internalType": "uint256",
          "name": "_trialId",
          "type": "uint256"
        },
        {
          "internalType": "address",
          "name": "_participant",
          "type": "address"
        },
        {
          "internalType": "uint256",
          "name": "_milestoneIndex",
          "type": "uint256"
        }
      ],
      "name": "distributeMilestoneToParticipant",
      "outputs": [],
      "stateMutability": "nonpayable",
      "type": "function"
    },
    {
      "inputs": [
        {
          "internalType": "uint256",
          "name": "_trialId",
          "type": "uint256"
        },
        {
          "internalType": "uint256",
          "name": "_milestoneIndex",
          "type": "uint256"
        }
      ],
      "name": "distributePartial",
      "outputs": [],
      "stateMutability": "nonpayable",
      "type": "function"
    },
    {
      "inputs": [
        {
          "internalType": "uint256",
          "name": "_trialId",
          "type": "uint256"
        },
        {
          "internalType": "uint256",
          "name": "_milestoneIndex",
          "type": "uint256"
        },
        {
          "internalType": "uint256",
          "name": "_startIndex",
          "type": "uint256"
        },
        {
          "internalType": "uint256",
          "name": "_batchSize",
          "type": "uint256"
        }
      ],
      "name": "distributePartialPaginated",
      "outputs": [],
      "stateMutability": "nonpayable",
      "type": "function"
    },
    {
      "inputs": [],
      "name": "eip712Domain",
      "outputs": [
        {
          "internalType": "bytes1",
          "name": "fields",
          "type": "bytes1"
        },
        {
          "internalType": "string",
          "name": "name",
          "type": "string"
        },
        {
          "internalType": "string",
          "name": "version",
          "type": "string"
        },
        {
          "internalType": "uint256",
          "name": "chainId",
          "type": "uint256"
        },
        {
          "internalType": "address",
          "name": "verifyingContract",
          "type": "address"
        },
        {
          "internalType": "bytes32",
          "name": "salt",
          "type": "bytes32"
        },
        {
          "internalType": "uint256[]",
          "name": "extensions",
          "type": "uint256[]"
        }
      ],
      "stateMutability": "view",
      "type": "function"
    },
    {
      "inputs": [],
      "name": "eligibilityEngine",
      "outputs": [
        {
          "internalType": "contract IVaultEligibilityEngine",
          "name": "",
          "type": "address"
        }
      ],
      "stateMutability": "view",
      "type": "function"
    },
    {
      "inputs": [
        {
          "internalType": "uint256",
          "name": "trialId",
          "type": "uint256"
        },
        {
          "internalType": "uint256",
          "name": "milestoneIndex",
          "type": "uint256"
        },
        {
          "internalType": "address",
          "name": "participant",
          "type": "address"
        },
        {
          "internalType": "bytes",
          "name": "reason",
          "type": "bytes"
        }
      ],
      "name": "emitParticipantCreditFailed",
      "outputs": [],
      "stateMutability": "nonpayable",
      "type": "function"
    },
    {
      "inputs": [
        {
          "internalType": "uint256",
          "name": "_trialId",
          "type": "uint256"
        },
        {
          "internalType": "string[]",
          "name": "_names",
          "type": "string[]"
        },
        {
          "internalType": "uint16[]",
          "name": "_weights",
          "type": "uint16[]"
        },
        {
          "internalType": "uint256[]",
          "name": "_deadlines",
          "type": "uint256[]"
        }
      ],
      "name": "encodeConfidentialFundAndMilestonesData",
      "outputs": [
        {
          "internalType": "bytes",
          "name": "",
          "type": "bytes"
        }
      ],
      "stateMutability": "pure",
      "type": "function"
    },
    {
      "inputs": [
        {
          "internalType": "uint256",
          "name": "",
          "type": "uint256"
        },
        {
          "internalType": "address",
          "name": "",
          "type": "address"
        },
        {
          "internalType": "uint256",
          "name": "",
          "type": "uint256"
        }
      ],
      "name": "entitlementStaged",
      "outputs": [
        {
          "internalType": "bool",
          "name": "",
          "type": "bool"
        }
      ],
      "stateMutability": "view",
      "type": "function"
    },
    {
      "inputs": [
        {
          "internalType": "address",
          "name": "",
          "type": "address"
        }
      ],
      "name": "forceCreditRevertForParticipant",
      "outputs": [
        {
          "internalType": "bool",
          "name": "",
          "type": "bool"
        }
      ],
      "stateMutability": "view",
      "type": "function"
    },
    {
      "inputs": [
        {
          "internalType": "uint256",
          "name": "_trialId",
          "type": "uint256"
        }
      ],
      "name": "fundTrial",
      "outputs": [],
      "stateMutability": "payable",
      "type": "function"
    },
    {
      "inputs": [
        {
          "internalType": "uint256",
          "name": "_trialId",
          "type": "uint256"
        },
        {
          "internalType": "string[]",
          "name": "_names",
          "type": "string[]"
        },
        {
          "internalType": "uint16[]",
          "name": "_weights",
          "type": "uint16[]"
        },
        {
          "internalType": "uint256[]",
          "name": "_deadlines",
          "type": "uint256[]"
        }
      ],
      "name": "fundTrialAndSetMilestones",
      "outputs": [],
      "stateMutability": "payable",
      "type": "function"
    },
    {
      "inputs": [
        {
          "internalType": "uint256",
          "name": "_trialId",
          "type": "uint256"
        }
      ],
      "name": "getConfirmedDistributedWei",
      "outputs": [
        {
          "internalType": "uint256",
          "name": "",
          "type": "uint256"
        }
      ],
      "stateMutability": "view",
      "type": "function"
    },
    {
      "inputs": [
        {
          "internalType": "uint256",
          "name": "_trialId",
          "type": "uint256"
        }
      ],
      "name": "getEncryptedPoolSize",
      "outputs": [
        {
          "internalType": "euint64",
          "name": "",
          "type": "bytes32"
        }
      ],
      "stateMutability": "view",
      "type": "function"
    },
    {
      "inputs": [
        {
          "internalType": "uint256",
          "name": "_trialId",
          "type": "uint256"
        }
      ],
      "name": "getParticipantCount",
      "outputs": [
        {
          "internalType": "uint256",
          "name": "",
          "type": "uint256"
        }
      ],
      "stateMutability": "view",
      "type": "function"
    },
    {
      "inputs": [
        {
          "internalType": "uint256",
          "name": "_trialId",
          "type": "uint256"
        },
        {
          "internalType": "address",
          "name": "_participant",
          "type": "address"
        },
        {
          "internalType": "uint256",
          "name": "_milestoneIndex",
          "type": "uint256"
        }
      ],
      "name": "getStagedEntitlement",
      "outputs": [
        {
          "internalType": "ebool",
          "name": "",
          "type": "bytes32"
        }
      ],
      "stateMutability": "view",
      "type": "function"
    },
    {
      "inputs": [
        {
          "internalType": "uint256",
          "name": "_trialId",
          "type": "uint256"
        },
        {
          "internalType": "address",
          "name": "_participant",
          "type": "address"
        },
        {
          "internalType": "uint256",
          "name": "_milestoneIndex",
          "type": "uint256"
        }
      ],
      "name": "getStagedShareWei",
      "outputs": [
        {
          "internalType": "uint256",
          "name": "",
          "type": "uint256"
        }
      ],
      "stateMutability": "view",
      "type": "function"
    },
    {
      "inputs": [
        {
          "internalType": "uint256",
          "name": "_trialId",
          "type": "uint256"
        }
      ],
      "name": "getTotalDeposited",
      "outputs": [
        {
          "internalType": "uint256",
          "name": "",
          "type": "uint256"
        }
      ],
      "stateMutability": "view",
      "type": "function"
    },
    {
      "inputs": [
        {
          "internalType": "uint256",
          "name": "_trialId",
          "type": "uint256"
        }
      ],
      "name": "isDistributed",
      "outputs": [
        {
          "internalType": "bool",
          "name": "",
          "type": "bool"
        }
      ],
      "stateMutability": "view",
      "type": "function"
    },
    {
      "inputs": [
        {
          "internalType": "uint256",
          "name": "_trialId",
          "type": "uint256"
        },
        {
          "internalType": "address",
          "name": "_participant",
          "type": "address"
        }
      ],
      "name": "isParticipantRegistered",
      "outputs": [
        {
          "internalType": "bool",
          "name": "",
          "type": "bool"
        }
      ],
      "stateMutability": "view",
      "type": "function"
    },
    {
      "inputs": [
        {
          "internalType": "uint256",
          "name": "_trialId",
          "type": "uint256"
        }
      ],
      "name": "isPoolFunded",
      "outputs": [
        {
          "internalType": "bool",
          "name": "",
          "type": "bool"
        }
      ],
      "stateMutability": "view",
      "type": "function"
    },
    {
      "inputs": [
        {
          "internalType": "uint256",
          "name": "",
          "type": "uint256"
        },
        {
          "internalType": "uint256",
          "name": "",
          "type": "uint256"
        }
      ],
      "name": "lastPaidParticipantIndex",
      "outputs": [
        {
          "internalType": "uint256",
          "name": "",
          "type": "uint256"
        }
      ],
      "stateMutability": "view",
      "type": "function"
    },
    {
      "inputs": [
        {
          "internalType": "uint256",
          "name": "",
          "type": "uint256"
        },
        {
          "internalType": "uint256",
          "name": "",
          "type": "uint256"
        }
      ],
      "name": "lastProcessedIndex",
      "outputs": [
        {
          "internalType": "uint256",
          "name": "",
          "type": "uint256"
        }
      ],
      "stateMutability": "view",
      "type": "function"
    },
    {
      "inputs": [
        {
          "internalType": "uint256",
          "name": "_trialId",
          "type": "uint256"
        }
      ],
      "name": "makeEncryptedPoolSizePublic",
      "outputs": [],
      "stateMutability": "nonpayable",
      "type": "function"
    },
    {
      "inputs": [
        {
          "internalType": "uint256",
          "name": "",
          "type": "uint256"
        },
        {
          "internalType": "uint256",
          "name": "",
          "type": "uint256"
        }
      ],
      "name": "milestoneDistributed",
      "outputs": [
        {
          "internalType": "bool",
          "name": "",
          "type": "bool"
        }
      ],
      "stateMutability": "view",
      "type": "function"
    },
    {
      "inputs": [
        {
          "internalType": "uint256",
          "name": "",
          "type": "uint256"
        },
        {
          "internalType": "uint256",
          "name": "",
          "type": "uint256"
        }
      ],
      "name": "milestoneDistributedWei",
      "outputs": [
        {
          "internalType": "uint256",
          "name": "",
          "type": "uint256"
        }
      ],
      "stateMutability": "view",
      "type": "function"
    },
    {
      "inputs": [],
      "name": "milestoneManager",
      "outputs": [
        {
          "internalType": "contract IVaultMilestoneManager",
          "name": "",
          "type": "address"
        }
      ],
      "stateMutability": "view",
      "type": "function"
    },
    {
      "inputs": [],
      "name": "milestoneManagerChangeEta",
      "outputs": [
        {
          "internalType": "uint256",
          "name": "",
          "type": "uint256"
        }
      ],
      "stateMutability": "view",
      "type": "function"
    },
    {
      "inputs": [
        {
          "internalType": "uint256",
          "name": "",
          "type": "uint256"
        },
        {
          "internalType": "uint256",
          "name": "",
          "type": "uint256"
        }
      ],
      "name": "milestoneRemainderPaid",
      "outputs": [
        {
          "internalType": "bool",
          "name": "",
          "type": "bool"
        }
      ],
      "stateMutability": "view",
      "type": "function"
    },
    {
      "inputs": [
        {
          "internalType": "address",
          "name": "",
          "type": "address"
        },
        {
          "internalType": "address",
          "name": "from",
          "type": "address"
        },
        {
          "internalType": "euint64",
          "name": "amount",
          "type": "bytes32"
        },
        {
          "internalType": "bytes",
          "name": "data",
          "type": "bytes"
        }
      ],
      "name": "onConfidentialTransferReceived",
      "outputs": [
        {
          "internalType": "ebool",
          "name": "",
          "type": "bytes32"
        }
      ],
      "stateMutability": "nonpayable",
      "type": "function"
    },
    {
      "inputs": [],
      "name": "owner",
      "outputs": [
        {
          "internalType": "address",
          "name": "",
          "type": "address"
        }
      ],
      "stateMutability": "view",
      "type": "function"
    },
    {
      "inputs": [
        {
          "internalType": "uint256",
          "name": "",
          "type": "uint256"
        },
        {
          "internalType": "uint256",
          "name": "",
          "type": "uint256"
        }
      ],
      "name": "paginationStarted",
      "outputs": [
        {
          "internalType": "bool",
          "name": "",
          "type": "bool"
        }
      ],
      "stateMutability": "view",
      "type": "function"
    },
    {
      "inputs": [
        {
          "internalType": "uint256",
          "name": "",
          "type": "uint256"
        },
        {
          "internalType": "address",
          "name": "",
          "type": "address"
        },
        {
          "internalType": "uint256",
          "name": "",
          "type": "uint256"
        }
      ],
      "name": "participantMilestonePaid",
      "outputs": [
        {
          "internalType": "bool",
          "name": "",
          "type": "bool"
        }
      ],
      "stateMutability": "view",
      "type": "function"
    },
    {
      "inputs": [],
      "name": "pendingAutomationContract",
      "outputs": [
        {
          "internalType": "address",
          "name": "",
          "type": "address"
        }
      ],
      "stateMutability": "view",
      "type": "function"
    },
    {
      "inputs": [],
      "name": "pendingDataAccessLog",
      "outputs": [
        {
          "internalType": "address",
          "name": "",
          "type": "address"
        }
      ],
      "stateMutability": "view",
      "type": "function"
    },
    {
      "inputs": [],
      "name": "pendingMilestoneManager",
      "outputs": [
        {
          "internalType": "address",
          "name": "",
          "type": "address"
        }
      ],
      "stateMutability": "view",
      "type": "function"
    },
    {
      "inputs": [],
      "name": "pendingOwner",
      "outputs": [
        {
          "internalType": "address",
          "name": "",
          "type": "address"
        }
      ],
      "stateMutability": "view",
      "type": "function"
    },
    {
      "inputs": [
        {
          "internalType": "uint256",
          "name": "",
          "type": "uint256"
        }
      ],
      "name": "pendingReclaimRecipient",
      "outputs": [
        {
          "internalType": "address",
          "name": "",
          "type": "address"
        }
      ],
      "stateMutability": "view",
      "type": "function"
    },
    {
      "inputs": [
        {
          "internalType": "uint256",
          "name": "",
          "type": "uint256"
        }
      ],
      "name": "pendingReclaimWei",
      "outputs": [
        {
          "internalType": "uint256",
          "name": "",
          "type": "uint256"
        }
      ],
      "stateMutability": "view",
      "type": "function"
    },
    {
      "inputs": [],
      "name": "pendingSponsorRegistry",
      "outputs": [
        {
          "internalType": "address",
          "name": "",
          "type": "address"
        }
      ],
      "stateMutability": "view",
      "type": "function"
    },
    {
      "inputs": [
        {
          "internalType": "uint256",
          "name": "_trialId",
          "type": "uint256"
        },
        {
          "internalType": "uint256",
          "name": "_milestoneIndex",
          "type": "uint256"
        }
      ],
      "name": "prepareEntitlementProof",
      "outputs": [
        {
          "internalType": "bytes32",
          "name": "",
          "type": "bytes32"
        }
      ],
      "stateMutability": "nonpayable",
      "type": "function"
    },
    {
      "inputs": [
        {
          "internalType": "address",
          "name": "_newOwner",
          "type": "address"
        }
      ],
      "name": "proposeOwnership",
      "outputs": [],
      "stateMutability": "nonpayable",
      "type": "function"
    },
    {
      "inputs": [
        {
          "internalType": "uint256",
          "name": "_trialId",
          "type": "uint256"
        },
        {
          "internalType": "uint256",
          "name": "_milestoneIndex",
          "type": "uint256"
        }
      ],
      "name": "pruneUnconfirmedSlots",
      "outputs": [],
      "stateMutability": "nonpayable",
      "type": "function"
    },
    {
      "inputs": [
        {
          "internalType": "uint256",
          "name": "_trialId",
          "type": "uint256"
        }
      ],
      "name": "reclaimAbandonedToOwner",
      "outputs": [],
      "stateMutability": "nonpayable",
      "type": "function"
    },
    {
      "inputs": [
        {
          "internalType": "uint256",
          "name": "",
          "type": "uint256"
        }
      ],
      "name": "reclaimFinalized",
      "outputs": [
        {
          "internalType": "bool",
          "name": "",
          "type": "bool"
        }
      ],
      "stateMutability": "view",
      "type": "function"
    },
    {
      "inputs": [
        {
          "internalType": "uint256",
          "name": "_trialId",
          "type": "uint256"
        }
      ],
      "name": "reclaimUndistributed",
      "outputs": [],
      "stateMutability": "nonpayable",
      "type": "function"
    },
    {
      "inputs": [
        {
          "internalType": "address",
          "name": "_recipient",
          "type": "address"
        }
      ],
      "name": "recoverStrandedCeth",
      "outputs": [],
      "stateMutability": "nonpayable",
      "type": "function"
    },
    {
      "inputs": [
        {
          "internalType": "uint256",
          "name": "_trialId",
          "type": "uint256"
        },
        {
          "internalType": "uint256",
          "name": "_nullifier",
          "type": "uint256"
        }
      ],
      "name": "registerAnonymousParticipant",
      "outputs": [],
      "stateMutability": "nonpayable",
      "type": "function"
    },
    {
      "inputs": [
        {
          "internalType": "uint256",
          "name": "_trialId",
          "type": "uint256"
        },
        {
          "internalType": "uint256",
          "name": "_nullifier",
          "type": "uint256"
        },
        {
          "internalType": "address",
          "name": "_permitHolder",
          "type": "address"
        },
        {
          "internalType": "uint256",
          "name": "_nonce",
          "type": "uint256"
        },
        {
          "internalType": "uint256",
          "name": "_deadline",
          "type": "uint256"
        },
        {
          "internalType": "bytes",
          "name": "_signature",
          "type": "bytes"
        }
      ],
      "name": "registerAnonymousParticipantFor",
      "outputs": [],
      "stateMutability": "nonpayable",
      "type": "function"
    },
    {
      "inputs": [
        {
          "internalType": "uint256",
          "name": "",
          "type": "uint256"
        },
        {
          "internalType": "address",
          "name": "",
          "type": "address"
        }
      ],
      "name": "registerParticipant",
      "outputs": [],
      "stateMutability": "pure",
      "type": "function"
    },
    {
      "inputs": [
        {
          "internalType": "uint256",
          "name": "_trialId",
          "type": "uint256"
        }
      ],
      "name": "requestEncryptedPoolAccess",
      "outputs": [],
      "stateMutability": "nonpayable",
      "type": "function"
    },
    {
      "inputs": [
        {
          "internalType": "uint256",
          "name": "_trialId",
          "type": "uint256"
        },
        {
          "internalType": "uint256",
          "name": "_milestoneIndex",
          "type": "uint256"
        }
      ],
      "name": "resetPaginationState",
      "outputs": [],
      "stateMutability": "nonpayable",
      "type": "function"
    },
    {
      "inputs": [
        {
          "internalType": "address",
          "name": "_automation",
          "type": "address"
        }
      ],
      "name": "scheduleAutomationContract",
      "outputs": [],
      "stateMutability": "nonpayable",
      "type": "function"
    },
    {
      "inputs": [
        {
          "internalType": "address",
          "name": "_dataAccessLog",
          "type": "address"
        }
      ],
      "name": "scheduleDataAccessLog",
      "outputs": [],
      "stateMutability": "nonpayable",
      "type": "function"
    },
    {
      "inputs": [
        {
          "internalType": "address",
          "name": "_milestoneManager",
          "type": "address"
        }
      ],
      "name": "scheduleMilestoneManager",
      "outputs": [],
      "stateMutability": "nonpayable",
      "type": "function"
    },
    {
      "inputs": [
        {
          "internalType": "address",
          "name": "_registry",
          "type": "address"
        }
      ],
      "name": "scheduleSponsorRegistry",
      "outputs": [],
      "stateMutability": "nonpayable",
      "type": "function"
    },
    {
      "inputs": [
        {
          "internalType": "address",
          "name": "_automation",
          "type": "address"
        }
      ],
      "name": "setAutomationContract",
      "outputs": [],
      "stateMutability": "nonpayable",
      "type": "function"
    },
    {
      "inputs": [
        {
          "internalType": "address",
          "name": "_dataAccessLog",
          "type": "address"
        }
      ],
      "name": "setDataAccessLog",
      "outputs": [],
      "stateMutability": "nonpayable",
      "type": "function"
    },
    {
      "inputs": [
        {
          "internalType": "address",
          "name": "participant",
          "type": "address"
        },
        {
          "internalType": "bool",
          "name": "force",
          "type": "bool"
        }
      ],
      "name": "setForceCreditRevertForParticipant",
      "outputs": [],
      "stateMutability": "nonpayable",
      "type": "function"
    },
    {
      "inputs": [
        {
          "internalType": "address",
          "name": "_milestoneManager",
          "type": "address"
        }
      ],
      "name": "setMilestoneManager",
      "outputs": [],
      "stateMutability": "nonpayable",
      "type": "function"
    },
    {
      "inputs": [
        {
          "internalType": "address",
          "name": "_registry",
          "type": "address"
        }
      ],
      "name": "setSponsorRegistry",
      "outputs": [],
      "stateMutability": "nonpayable",
      "type": "function"
    },
    {
      "inputs": [
        {
          "internalType": "bool",
          "name": "enabled",
          "type": "bool"
        }
      ],
      "name": "setTestHelpersEnabled",
      "outputs": [],
      "stateMutability": "nonpayable",
      "type": "function"
    },
    {
      "inputs": [
        {
          "internalType": "uint256",
          "name": "_trialId",
          "type": "uint256"
        },
        {
          "internalType": "uint256",
          "name": "_milestoneIndex",
          "type": "uint256"
        }
      ],
      "name": "signalMilestoneDistributed",
      "outputs": [],
      "stateMutability": "nonpayable",
      "type": "function"
    },
    {
      "inputs": [],
      "name": "sponsorRegistry",
      "outputs": [
        {
          "internalType": "contract ISponsorRegistry",
          "name": "",
          "type": "address"
        }
      ],
      "stateMutability": "view",
      "type": "function"
    },
    {
      "inputs": [],
      "name": "sponsorRegistryChangeEta",
      "outputs": [
        {
          "internalType": "uint256",
          "name": "",
          "type": "uint256"
        }
      ],
      "stateMutability": "view",
      "type": "function"
    },
    {
      "inputs": [],
      "name": "testHelpersEnabled",
      "outputs": [
        {
          "internalType": "bool",
          "name": "",
          "type": "bool"
        }
      ],
      "stateMutability": "view",
      "type": "function"
    },
    {
      "inputs": [],
      "name": "trialManager",
      "outputs": [
        {
          "internalType": "contract IVaultTrialManager",
          "name": "",
          "type": "address"
        }
      ],
      "stateMutability": "view",
      "type": "function"
    },
    {
      "stateMutability": "payable",
      "type": "receive"
    }
  ],
  "bytecode": "0x61016080604052346103d4576060816174c180380380916100208285610407565b8339810103126103d45780516001600160a01b03811691908290036103d45761005760406100506020840161042a565b920161042a565b91604051610066604082610407565b601e815260208101907f4d65645661756c742053706f6e736f72496e63656e746976655661756c7400008252604051916100a1604084610407565b600183526020830191603160f81b83526100b961070c565b50466001036102e8576100ca61070c565b506040516100d7816103d8565b73ca2e8f1f656cd25c01f05d0b243ab1ecd4a8ffb6815273d82385dada1ae3e969447f20a3164f6213100e7560208201527377627828a55156b04ac0dc0eb30467f1a552bb0360408201525b80517f9e7b61f58c47dc699ac88507c4f5bb9f121c03808c5676a8078fe583e464970080546001600160a01b03199081166001600160a01b039384161790915560208301517f9e7b61f58c47dc699ac88507c4f5bb9f121c03808c5676a8078fe583e4649701805483169184169190911790556040909201517f9e7b61f58c47dc699ac88507c4f5bb9f121c03808c5676a8078fe583e4649702805490931691161790556101d08161043e565b610120526101dd846105d4565b61014052519020918260e05251902080610100524660a0526040519060208201927f8b73c3c69bb8fe3d512ecc4cf759cc79239f7b179b0ffacaa9a75d522b39400f8452604083015260608201524660808201523060a082015260a0815261024660c082610407565b5190206080523060c052600880546001600160a01b03199081163317909155600280548216929092179091556003805482166001600160a01b039384161790556004805490911692909116919091179055604051616d96908161072b823960805181616693015260a05181616750015260c0518161665d015260e051816166e201526101005181616708015261012051816121430152610140518161216d0152f35b4662aa36a703610357576102fa61070c565b50604051610307816103d8565b73f0ffdc93b7e186bc2f8cb3daa75d86d1930a433d81527392c920834ec8941d2c77d188936e1f7a6f49c127602082015273be0e383937d564d7ff0bc3b46c51f0bf8d5c311a6040820152610123565b46617a69036103c55761036861070c565b50604051610375816103d8565b7350157cffd6bbfa2dece204a89ec419c23ef5755d815273e3a9105a3a932253a70f126eb1e3b589c643dd24602082015273be0e383937d564d7ff0bc3b46c51f0bf8d5c311a6040820152610123565b6373cac13b60e01b5f5260045ffd5b5f80fd5b606081019081106001600160401b038211176103f357604052565b634e487b7160e01b5f52604160045260245ffd5b601f909101601f19168101906001600160401b038211908210176103f357604052565b51906001600160a01b03821682036103d457565b908151602081105f146104b8575090601f815111610478576020815191015160208210610469571790565b5f198260200360031b1b161790565b604460209160405192839163305a27a960e01b83528160048401528051918291826024860152018484015e5f828201840152601f01601f19168101030190fd5b6001600160401b0381116103f3575f54600181811c911680156105ca575b60208210146105b657601f8111610584575b50602092601f821160011461052557928192935f9261051a575b50508160011b915f199060031b1c1916175f5560ff90565b015190505f80610502565b601f198216935f8052805f20915f5b86811061056c5750836001959610610554575b505050811b015f5560ff90565b01515f1960f88460031b161c191690555f8080610547565b91926020600181928685015181550194019201610534565b5f8052601f60205f20910160051c810190601f830160051c015b8181106105ab57506104e8565b5f815560010161059e565b634e487b7160e01b5f52602260045260245ffd5b90607f16906104d6565b908151602081105f146105ff575090601f815111610478576020815191015160208210610469571790565b6001600160401b0381116103f357600154600181811c91168015610702575b60208210146105b657601f81116106cf575b50602092601f821160011461066e57928192935f92610663575b50508160011b915f199060031b1c19161760015560ff90565b015190505f8061064a565b601f1982169360015f52805f20915f5b8681106106b7575083600195961061069f575b505050811b0160015560ff90565b01515f1960f88460031b161c191690555f8080610691565b9192602060018192868501518155019401920161067e565b60015f52601f60205f20910160051c810190601f830160051c015b8181106106f75750610630565b5f81556001016106ea565b90607f169061061e565b60405190610719826103d8565b5f604083828152826020820152015256fe60806040526004361015610075575b3615610018575f80fd5b60405162461bcd60e51b815260206004820152602f60248201527f5573652066756e64547269616c28747269616c49642920746f2066756e64206160448201526e081cdc1958da599a58c81d1c9a585b608a1b6064820152608490fd5b5f5f3560e01c8062b6cbdf1461442e57806302d20dff1461441157806304d4566214613ffe5780630689d5ed14613fd65780630798230914613fae5780630aed466114613e185780630b7d662f14613df0578063118a65401461319f57806315e2b57914613a99578063163745af14613a7157806322518809146139fb57806322ddb7c61461396b57806323738e341461394e5780632753663d146138e7578063289e2e90146138465780632c083c9f146138295780632c20f8831461368f5780632d61629f146136525780632ea7ca0b146135c4578063301fc293146133b157806330afdb6114613384578063350289ff146132cf57806335099f2b146132a757806339436aa31461328a5780633a67e675146132565780633b1b84ff146131a45780633c08dc281461319f5780633ef3e1ee146131045780634184a57f14612fb557806346083bfd14612f625780634639417314612dca578063477e74b6146129fb57806348801b4f146129ce57806349ed3cee1461287a5780634d83181e1461283d5780634f11c6901461281457806355f8cfdd146127eb578063594d9bcf146127c157806359c56d28146127a55780635ad83491146127825780635e6cd8bd1461271d5780635f3eb64e146126ff57806362909f0a1461266c5780636aeb14a51461260e5780636f62c3a6146125dc578063710bf32214612568578063724cd79814612503578063750b4b07146124c1578063754ad0de146123aa57806379ba5097146123345780637ef4775b146123085780638194a34f1461228357806382fdc7bb1461222557806384b0196e1461212957806386ae5fec146120fd57806388012327146120bb5780638927b030146120985780638c337a8d1461203a5780638da5cb5b146120115780638ffaa42b14611fac57806391c05b0b14611cd657806398edadc314611c9b578063997f540914611b1c5780639a5c845514611aeb5780639b827a87146118625780639d3f0618146117f1578063a1b4d011146117c8578063a1ddb2081461179f578063a768f28514611770578063b65e2bbc14611733578063b807420c14611284578063bc93ac4014611154578063bde501bd14611136578063be26085e1461111b578063c3221227146110e9578063c3d7daa8146110c0578063cb84e53714611073578063d62aad2914611055578063d8332aa714610fd4578063d84df05b14610fa7578063d898ef8b14610eff578063dbf011c314610ed6578063e263de6d14610e5e578063e30c397814610e35578063e3b39cfd14610791578063e544504614610762578063e622cffc14610735578063ef226212146106e8578063f3baf070146106cc578063f520f24f14610634578063f9d01f7b146104a85763facd0ada14610473575061000e565b346104a55760203660031901126104a557602090600435815260278252604060018060a01b0391205416604051908152f35b80fd5b50346104a55760203660031901126104a55760085460043591906001600160a01b031633819003610625576002600b5414610616576002600b55600354604051631a7f3c3360e01b81526004810185905293908390859060249082906001600160a01b03165afa93841561060b5783946105e7575b50600a546001600160a01b03168061054d575b5061053f61054493948261647e565b6152dc565b506001600b5580f35b602060018060a01b0360808701511660246040518094819363353224d760e11b835260048301525afa9081156105dc57849161059e575b5061058f575f610530565b634c12289560e11b8352600483fd5b90506020813d6020116105d4575b816105b960209383614615565b810103126105d0576105ca906146c1565b5f610584565b8380fd5b3d91506105ac565b6040513d86823e3d90fd5b6106049194503d8085833e6105fc8183614615565b8101906146eb565b925f61051d565b6040513d85823e3d90fd5b633ee5aeb560e01b8252600482fd5b635fc483c560e01b8252600482fd5b50346104a55760203660031901126104a55761064e61448a565b506008546001600160a01b031633036106bd5760405162461bcd60e51b815260206004820152602e60248201527f557365207363686564756c65446174614163636573734c6f67202b206170706c60448201526d79446174614163636573734c6f6760901b6064820152608490fd5b635fc483c560e01b8152600490fd5b50346104a557806003193601126104a557602060405160c88152f35b50346104a55760403660031901126104a5576107026144a0565b5060405162461bcd60e51b815260206004820152600a60248201526911195c1c9958d85d195960b21b6044820152606490fd5b50346104a557604060209161074936614527565b9082526024845282822090825283522054604051908152f35b50346104a55760203660031901126104a55760ff60406020926004358152600d84522054166040519015158152f35b50346104a55760803660031901126104a557600435602435604435606435906002600b5414610e26576002600b55600354604051631a7f3c3360e01b8152600481018690529291908690849060249082906001600160a01b03165afa928315610e1b578693610dff575b50608083018051909390610817906001600160a01b0316615c74565b858752601f60205260ff604088205416610df05784159081610daa575b506005546001600160a01b03168015159390889085610d45575b50508315610d315786885260176020526040882086895260205260ff604089205416610d22575b86885260166020526004604089200154948515610d135785841015610d04575188939291906108ac906001600160a01b031661523d565b82610ccc57878452602080526040842087855260205260408420600160ff198254161790558784526022602052604084208785526020525f1960408520555b856108f68285614608565b1115610cbc5750845b8415610c9c57610925610912888a615d55565b91905b61091f8484614c13565b9061495c565b96600160ff19600c541617600c5573__$20089efc5df3e31f24c7f58c3630512626$__9160018060a01b0360055416908b885260166020526040882060018060a01b036002541660018060a01b03600454169160405194637e3edb1d60e01b86526004860152602485015260196044850152601d6064850152601b6084850152601c60a485015260c484015260e48301528b6101048301528a61012483015286610144830152826101648301526101848201526040816101a481865af4908115610c5b5787908892610c6a575b505060ff19600c5416600c55823b15610c66576040519063e76c64d160e01b8252602260048301528b60248301528a604483015260648201528681608481865af4908115610c5b578791610c42575b50508281149788610c10575b5060018060a01b03600554168a875260166020526040872092803b15610c0c578b95889561014494604051988997889662efcfeb60e41b88526004880152602487015260216044870152601760648701526019608487015260a48601528d60c486015260e48501526101048401526101248301525af490811561060b578391610bf3575b50506006546001600160a01b03169081610b46575b5050505f14610b11575060205f516020616cca5f395f51905f5291604051908152a25b6001600b5580f35b9050610b1e575b50610b09565b610b2f610b29614c7d565b826161a5565b5f516020616d4a5f395f51905f528280a25f610b18565b6040516020810191701410549512505317d41051d25390551151607a1b8352876031830152605182015242607182015260718152610b85609182614615565b51902090803b15610bef576040516306cc173360e41b81529183918391829084908290610bb6908d60048401614c26565b03925af18015610be457610bcb575b80610ae6565b81610bd591614615565b610be057845f610bc5565b8480fd5b6040513d84823e3d90fd5b8280fd5b81610bfd91614615565b610c0857815f610ad1565b5080fd5b8780fd5b610c32908b88526022602052604088208b895260205260408820548b8d616325565b50610c3c8a615dde565b5f610a4d565b81610c4c91614615565b610c5757855f610a41565b8580fd5b6040513d89823e3d90fd5b8680fd5b9050610c8e915060403d604011610c95575b610c868183614615565b810190615d3f565b905f6109f2565b503d610c7c565b87845260166020526040842054610925610cb68383614f0d565b91610915565b610cc69083614608565b946108ff565b90919287905260216020526040882086895260205260408820548303610cf557908792916108eb565b63ba00382760e01b8852600488fd5b6392c4425960e01b8952600489fd5b6308b6a47360e41b8952600489fd5b6312a4939960e11b8852600488fd5b81610875576361a9d49760e11b8852600488fd5b60249295506040519283809263010b152760e61b82528b60048301525afa908115610d9f578891610d7d575b5051151592875f61084e565b610d9991503d808a833e610d918183614615565b810190614b12565b5f610d71565b6040513d8a823e3d90fd5b6101e001514210610de157858752601660205260ff600560408920015416610dd2575f610834565b630612284560e31b8752600487fd5b634aeab5cb60e01b8752600487fd5b6386864ec960e01b8752600487fd5b610e149193503d8088833e6105fc8183614615565b915f6107fb565b6040513d88823e3d90fd5b633ee5aeb560e01b8552600485fd5b50346104a557806003193601126104a5576009546040516001600160a01b039091168152602090f35b50346104a55760403660031901126104a557610e7861448a565b60243590811515809203610bef5760ff60285416158015610eca575b610ebb5760018060a01b031682526029602052604082209060ff8019835416911617905580f35b637a7f12ed60e11b8352600483fd5b50617a69461415610e94565b50346104a557806003193601126104a557600a546040516001600160a01b039091168152602090f35b50346104a55760203660031901126104a557600354604051631a7f3c3360e01b815260048035908201819052918390829060249082906001600160a01b03165afa90811561060b578391610f8d575b50608001516001600160a01b03163303610f7e5781526016602052610f7a336003604084200154616249565b5080f35b6326344e6160e11b8252600482fd5b610fa191503d8085833e6105fc8183614615565b5f610f4e565b50346104a5576040602091610fbb36614527565b9082526021845282822090825283522054604051908152f35b50346104a55760203660031901126104a557610fee61448a565b6008546001600160a01b03163303610625576001600160a01b031680156110465760018060a01b031960145416176014556202a30042018042116110325760155580f35b634e487b7160e01b82526011600452602482fd5b63d92e233d60e01b8252600482fd5b50346104a557806003193601126104a557602060405162093a808152f35b50346104a55760403660031901126104a557600860406110916144a0565b926004358152601660205220019060018060a01b03165f52602052602060ff60405f2054166040519015158152f35b50346104a557806003193601126104a5576010546040516001600160a01b039091168152602090f35b50346104a55760ff60406020926110ff36614527565b9082526017855282822090825284522054166040519015158152f35b5060203660031901126104a5576111336004356157ce565b80f35b50346104a557806003193601126104a5576020601154604051908152f35b50346104a55760203660031901126104a557600354604051631a7f3c3360e01b815260048035908201819052918390829060249082906001600160a01b03165afa90811561060b57839161126a575b50608001516001600160a01b031633148015611256575b156112475780825260166020526003604083200154156112395780825260166020526003604083200154801561122b575b6111f48161688a565b818352601660205260036040842001557fbcd6e6c64403989d95d0d448676b13035a796bae3971fe10b105d9819b4a53628280a280f35b5061123461696c565b6111eb565b6239146960e21b8252600482fd5b63ea8e4eb560e01b8252600482fd5b506008546001600160a01b031633146111ba565b61127e91503d8085833e6105fc8183614615565b5f6111a3565b50346104a55761129336614527565b6002600b5414611724576002600b55600354604051631a7f3c3360e01b815260048101849052908490829060249082906001600160a01b03165afa9081156105dc57849161170a575b506080810180516112f5906001600160a01b0316615c74565b838552601f60205260ff6040862054166116fb57838552602080526040852083865260205260ff6040862054166116ec576005546001600160a01b0316156116dd5783855260176020526040852083865260205260ff6040862054166116ce57821591826116ae575b508385526016602052600460408620015490811561169f57601482116116905751611391906001600160a01b031661523d565b61139e6109128486615d55565b9086875b8481106115eb5750156115dc57600160ff19600c541617600c5560018060a01b03600554169286885260166020526040882060018060a01b036002541660018060a01b03600454169160405196637e3edb1d60e01b88526004880152602487015260196044870152601d6064870152601b6084870152601c60a487015260c486015260e48501528661010485015285610124850152876101448501526101648401526101848301526040826101a48173__$20089efc5df3e31f24c7f58c3630512626$__5af48015610e1b5761148e92879088926115ba575b505060ff19600c5416600c558486616270565b5061149982846163db565b15611594575b611575575b6114ad82615dde565b60065483906001600160a01b0316806114e3575b505060205f516020616cca5f395f51905f5291604051908152a26001600b5580f35b6040516020810190732820a92a24a0a62fa224a9aa2924a12aaa24a7a760611b825284603482015242605482015260548152611520607482614615565b51902090803b15610bef576040516306cc173360e41b81529183918391829084908290611551908b60048401614c26565b03925af18015610be457156114c1578161156a91614615565b610bef57825f6114c1565b818352601660205260408320600501805460ff191660011790556114a4565b82845260176020526040842082855260205260408420600160ff1982541617905561149f565b90506115d5915060403d604011610c9557610c868183614615565b905f61147b565b630353878960e61b8752600487fd5b878952601660205261160381600460408c2001614969565b905460039190911b1c6001600160a01b031661162088828b615ca5565b908161165b575b50611635575b6001016113a2565b905f198114611647576001019061162d565b634e487b7160e01b89526011600452602489fd5b9050888a52601960205260408a209060018060a01b03165f5260205260405f20878a5260205260ff60408a205416155f611627565b630be7ba4b60e11b8652600486fd5b6308b6a47360e41b8652600486fd5b6101e0015142106116bf575f61135e565b634aeab5cb60e01b8552600485fd5b6312a4939960e11b8552600485fd5b63af016c4160e01b8552600485fd5b63d1a7cdfb60e01b8552600485fd5b6386864ec960e01b8552600485fd5b61171e91503d8086833e6105fc8183614615565b5f6112dc565b633ee5aeb560e01b8352600483fd5b50346104a5576040602091611747366144b6565b918352601c85528383209060018060a01b03165f528452825f2090825283522054604051908152f35b50346104a55760203660031901126104a55760ff60406020926004358152601f84522054166040519015158152f35b50346104a557806003193601126104a557600e546040516001600160a01b039091168152602090f35b50346104a557806003193601126104a5576002546040516001600160a01b039091168152602090f35b50346104a557806003193601126104a5576008546001600160a01b031633036106bd5761182a6015548015159081611857575b50614c3f565b60148054600680546001600160a01b03199081166001600160a01b03841617909155601584905516905580f35b90504210155f611824565b50346104a55760c03660031901126104a5576004359060243590611884614474565b60643593608435939160a4356001600160401b038111610be0576118ac9036906004016144e0565b90838652601660205260408620805415611adc5760ff6005820154169081611acd575b50611abe5760449596976118e285615e0c565b602060018060a01b03600454166040519889809263cd5d36dd60e01b82528a60048301528960248301525afa968715610d9f578897611a82575b506001600160a01b038716938415611a73576001600160a01b038116948503611a6457894211611a555760405161196c8161195e858b8b6020850197886148e2565b03601f198101835282614615565b51902098898952600d60205260ff60408a205416611a4657611a01926119f3611a0a95936119fb936040519060208201927f19dfaff0b0d2be8694bc0be1363e937e5197470eb2875dda9084835bc0f8a7b684528b60408401528c60608401528a608084015260a083015260c082015260c081526119eb60e082614615565b51902061539b565b923691614906565b90616776565b909291926167b0565b6001600160a01b031603611a385783946111339452600d60205260408520600160ff19825416179055615ef4565b62501d1760e61b8452600484fd5b63ae6a662560e01b8952600489fd5b630819bdcd60e01b8952600489fd5b633e6b52d160e01b8952600489fd5b631303e3f760e01b8952600489fd5b9096506020813d602011611ab6575b81611a9e60209383614615565b81010312610c0c57611aaf906146ad565b955f61191c565b3d9150611a91565b6323b7d38760e01b8652600486fd5b6006915001544211155f6118cf565b634779f51360e11b8752600487fd5b50346104a55760ff6040602092611b0136614527565b90825284805282822090825284522054166040519015158152f35b50346104a55760203660031901126104a557611b3661448a565b6008546001600160a01b03163303610625576002600b5414610616576002600b556001600160a01b031680156110465760025460405163344ff10160e01b815230600482015290602090829060249082906001600160a01b03165afa90811561060b578391611c65575b508015611c565780611bb28492616230565b50600254611bc9906001600160a01b031682616249565b506002546001600160a01b031690813b15610bef57829160648392604051948593849263433a9d3760e01b845230600485015289602485015260448401525af18015610be457611c41575b50807fc75760498df3a1545ab1d2266a14ed0628376e863681f8c1c487703397d54d7391a26001600b5580f35b81611c4b91614615565b610c0857815f611c14565b63fddb35b360e01b8352600483fd5b90506020813d602011611c93575b81611c8060209383614615565b81010312611c8f57515f611ba0565b5f80fd5b3d9150611c73565b50346104a55760203660031901126104a5576002600b5414611cc7576002600b55610b09600435614cb1565b633ee5aeb560e01b8152600490fd5b50346104a55760203660031901126104a5576004356002600b5414610616576002600b55600354604051631a7f3c3360e01b815260048101839052908390829060249082906001600160a01b03165afa90811561060b578391611f92575b50608081018051909190611d50906001600160a01b0316615c74565b828452601f60205260ff604085205416611f83576101e001805115611f7457514210611f65578183526016602052604083205415611f5657818352601660205260ff600560408520015416611f475751611db2906001600160a01b031661523d565b600c805460ff1916600117905560055460025460045484926001600160a01b0391821692908216911673__$20089efc5df3e31f24c7f58c3630512626$__803b15610be05784926101849160405195869485936309fc33ff60e41b85526004850152601660248501526017604485015260196064850152601d6084850152601b60a4850152601c60c4850152602360e48501526101048401526101248301528761014483015260146101648301525af48015610be457611f32575b505060ff19600c5416600c55611e8281615dde565b6005546001600160a01b031680151590839082611ee2575b5050611ec5575b611eac610b29614c7d565b5f516020616d4a5f395f51905f528280a26001600b5580f35b805f516020616cca5f395f51905f526020604051858152a2611ea1565b602492506040519283809263010b152760e61b82528660048301525afa90811561060b578391611f18575b50511515825f611e9a565b611f2c91503d8085833e610d918183614615565b5f611f0d565b81611f3c91614615565b610c0857815f611e6d565b630612284560e31b8352600483fd5b634779f51360e11b8352600483fd5b634aeab5cb60e01b8352600483fd5b63abb34bc760e01b8452600484fd5b6386864ec960e01b8452600484fd5b611fa691503d8085833e6105fc8183614615565b5f611d34565b50346104a557806003193601126104a5576008546001600160a01b031633036106bd57611fe460135480151590816118575750614c3f565b60128054600a80546001600160a01b03199081166001600160a01b03841617909155601384905516905580f35b50346104a557806003193601126104a5576008546040516001600160a01b039091168152602090f35b50346104a55760203660031901126104a55761205461448a565b6008546001600160a01b03163303610625576001600160a01b031680156110465760018060a01b031960125416176012556202a30042018042116110325760135580f35b50346104a557806003193601126104a55760206120b3616176565b604051908152f35b50346104a55760ff60406020926120d1366144b6565b918352601986528383209060018060a01b03165f528552825f2090825284522054166040519015158152f35b50346104a55760203660031901126104a557600460406020928235815260168452200154604051908152f35b50346104a557806003193601126104a5576121c9906121677f00000000000000000000000000000000000000000000000000000000000000006169bf565b906121917f0000000000000000000000000000000000000000000000000000000000000000616ae2565b9060206121d7604051936121a58386614615565b8385525f368137604051968796600f60f81b885260e08589015260e08801906145e4565b9086820360408801526145e4565b904660608601523060808601528260a086015284820360c08601528080855193848152019401925b82811061220e57505050500390f35b8351855286955093810193928101926001016121ff565b50346104a55760203660031901126104a55761223f61448a565b6008546001600160a01b03163303610625576001600160a01b031680156110465760018060a01b0319600e541617600e556202a300420180421161103257600f5580f35b50346104a5576123046122de6122f06122cc61195e6122a13661456d565b9460409a949a98919698519a8b99600260208c015260408b015260a060608b015260c08a0191614992565b878103601f1901608089015291614a16565b848103601f190160a086015291614a56565b6040519182916020835260208301906145e4565b0390f35b50346104a55760203660031901126104a557604060209160043581526016835220541515604051908152f35b50346104a557806003193601126104a5576009546001600160a01b038116903382900361239b57600880546001600160a01b03199081168417909155166009557fb27970c1714b28277b78cc17ac2fe9556e7f048cd48358cffe3dc7d547608fdc8280a280f35b630f22ca5f60e01b8352600483fd5b50346104a5576123b936614527565b8183929352601660205260408220805415611f565760ff60058201541690816124b2575b506124a3576044906123ee84615e0c565b602060018060a01b03600454166040519384809263cd5d36dd60e01b82528560048301528860248301525afa91821561060b578392612467575b506001600160a01b0382168015612458573303612449576111339293615ef4565b634aaee81b60e01b8352600483fd5b631303e3f760e01b8452600484fd5b9091506020813d60201161249b575b8161248360209383614615565b81010312610bef57612494906146ad565b905f612428565b3d9150612476565b6323b7d38760e01b8252600482fd5b6006915001544211155f6123dd565b50346104a55760ff60406020926124d7366144b6565b918352601a86528383209060018060a01b03165f528552825f2090825284522054166040519015158152f35b50346104a557806003193601126104a5576008546001600160a01b031633036106bd5761253b60115480151590816118575750614c3f565b60108054600580546001600160a01b03199081166001600160a01b03841617909155601184905516905580f35b50346104a55760203660031901126104a55761258261448a565b6008546001600160a01b03163303610625576001600160a01b0316801561104657600980546001600160a01b031916821790557f6ab4d119f23076e8ad491bc65ce85f017fb0591dce08755ba8591059cc51737a8280a280f35b50346104a55760203660031901126104a55760ff60056040602093600435815260168552200154166040519015158152f35b50346104a55760203660031901126104a55761262861448a565b6008546001600160a01b03163303610625576001600160a01b031680156110465760018060a01b031960105416176010556202a30042018042116110325760115580f35b50346104a55760203660031901126104a55761268661448a565b506008546001600160a01b031633036106bd5760405162461bcd60e51b815260206004820152603860248201527f557365207363686564756c654175746f6d6174696f6e436f6e7472616374202b60448201527708185c1c1b1e505d5d1bdb585d1a5bdb90dbdb9d1c9858dd60421b6064820152608490fd5b50346104a557806003193601126104a5576020600f54604051908152f35b50346104a557806003193601126104a5576008546001600160a01b031633036106bd57612755600f5480151590816118575750614c3f565b600e8054600780546001600160a01b03199081166001600160a01b03841617909155600f84905516905580f35b50346104a557806003193601126104a557602060ff602854166040519015158152f35b50346104a557806003193601126104a557602060405160148152f35b50346104a55760203660031901126104a55760406020916004358152602683522054604051908152f35b50346104a557806003193601126104a5576003546040516001600160a01b039091168152602090f35b50346104a557806003193601126104a5576004546040516001600160a01b039091168152602090f35b50346104a5576040602091612851366144b6565b918352601b85528383209060018060a01b03165f528452825f2090825283522054604051908152f35b50346104a55761288936614527565b600354604051631a7f3c3360e01b815260048101849052908490829060249082906001600160a01b03165afa80156105dc5760809185916129b4575b500180516001600160a01b0316331480156129a0575b156129915782845260176020526040842082855260205260ff60408520541615612982577fe544deda3b295a666b2656afe9e885946699c0def8e1b1cc3f6b75f36023f5a8916129586020926129316001616919565b908115612971575b6129428261688a565b516001600160a01b03169080156129625761682c565b604051908152a280f35b5061296c87616919565b61682c565b905061297c87616919565b90612939565b63135aa5d960e01b8452600484fd5b63ea8e4eb560e01b8452600484fd5b506008546001600160a01b031633146128db565b6129c891503d8087833e6105fc8183614615565b5f6128c5565b50346104a55760406020916129e236614527565b9082526022845282822090825283522054604051908152f35b50346104a557612a0a366144b6565b906002600b5414612dbb576002600b558115612dac576005546001600160a01b031680156116dd57600354604051631a7f3c3360e01b815260048101869052908690829060249082906001600160a01b03165afa8015610e1b576080918791612d92575b50018051612a84906001600160a01b0316615c74565b848652601f60205260ff604087205416612d835751612aab906001600160a01b031661523d565b838552602080526040852083865260205260ff604086205416612d745783855260166020526008604086200160018060a01b0383165f5260205260ff60405f20541615612d6557846024916040519283809263010b152760e61b82528860048301525afa908115612d5a578591612d40575b5051821015612d3157612b31828285615ca5565b15612d225782845260196020526040842060018060a01b0382165f5260205260405f2082855260205260ff604085205416612d1357612b8e612b738385615d55565b9190858752601660205261091f600460408920015484614c13565b8185875260236020526040872085885260205260ff6040882054161580612d0a575b612cd8575b5050804710612cc95790612bcc859282858761550f565b50612bd684615dde565b6006546001600160a01b03169081612c0c575b50505060205f516020616cca5f395f51905f5291604051908152a26001600b5580f35b60405160208101917f494e444956494455414c5f4d494c4553544f4e455f444953545249425554494f8352602760f91b604083015260018060601b03199060601b16604182015284605582015242607582015260758152612c6e609582614615565b51902090803b15610bef576040516306cc173360e41b81529183918391829084908290612c9f908b60048401614c26565b03925af18015610be457612cb4575b80612be9565b81612cbe91614615565b610bef57825f612cae565b6358140e1f60e01b8552600485fd5b612ce29250614608565b83855260236020526040852083865260205260408520600160ff198254161790555f80612bb5565b50811515612bb0565b634941611560e11b8452600484fd5b6353793a0160e01b8452600484fd5b63fdf4d87360e01b8452600484fd5b612d5491503d8087833e610d918183614615565b5f612b1d565b6040513d87823e3d90fd5b630745908560e41b8552600485fd5b638bf74df360e01b8552600485fd5b6386864ec960e01b8652600486fd5b612da691503d8089833e6105fc8183614615565b5f612a6e565b63d9aa9ce160e01b8452600484fd5b633ee5aeb560e01b8452600484fd5b50346104a557612dd936614527565b9080835260166020526008604084200160018060a01b0333165f5260205260ff60405f20541615612f535780835260196020526040832060018060a01b0333165f5260205260405f2082845260205260ff60408420541615612f4457808352601a6020526040832060018060a01b0333165f5260205260405f2082845260205260ff604084205416612f3557808352601660205260ff60076040852001541615612f2657808352601660205260066040842001544211612f1757828160209452601c84526040812060018060a01b0333165f52845260405f208382528452604081205491612ec683615c51565b508215612f00575b908293604092612edd8561688a565b8252601c8652828220335f90815290875283902090825285522055604051908152f35b915080612f0e604092616919565b92909150612ece565b6375f9c4cb60e01b8352600483fd5b6323077b5160e21b8352600483fd5b631a3f174360e21b8352600483fd5b631ea7c67960e31b8352600483fd5b637a83481b60e01b8352600483fd5b50346104a55760803660031901126104a557612f7c61448a565b50612f856144a0565b90606435906001600160401b0382116104a55760206120b384612fab36600487016144e0565b9160443590614a7a565b50612fbf3661456d565b600354604051631a7f3c3360e01b815260048101899052949692959294905f90829060249082906001600160a01b03165afa9081156130c1575f916130ea575b50608001516001600160a01b031633036130db576005546001600160a01b03169283156130cc57833b15611c8f576130915f96879361307f61306d9a8c956040519c8d9b8c9a8b9963ac79720560e01b8b5260048b01523360248b015260a060448b015260a48a0191614992565b87810360031901606489015291614a16565b84810360031901608486015291614a56565b03925af180156130c1576130aa575b50611133906157ce565b6130b79192505f90614615565b5f906111336130a0565b6040513d5f823e3d90fd5b63af016c4160e01b5f5260045ffd5b63068c4f9960e31b5f5260045ffd5b6130fe91503d805f833e6105fc8183614615565b5f612fff565b34611c8f576020366003190112611c8f5761311d61448a565b506008546001600160a01b031633036131905760405162461bcd60e51b815260206004820152603260248201527f557365207363686564756c6553706f6e736f725265676973747279202b206170604482015271706c7953706f6e736f72526567697374727960701b6064820152608490fd5b635fc483c560e01b5f5260045ffd5b61450d565b34611c8f576020366003190112611c8f57600354604051631a7f3c3360e01b815260048035908201819052915f90829060249082906001600160a01b03165afa9081156130c1575f9161323c575b50608001516001600160a01b031633148015613228575b613212906148a5565b5f526016602052602060405f2054604051908152f35b506008546001600160a01b03163314613209565b61325091503d805f833e6105fc8183614615565b826131f2565b34611c8f5761326436614527565b905f52602360205260405f20905f52602052602060ff60405f2054166040519015158152f35b34611c8f575f366003190112611c8f576020601554604051908152f35b34611c8f575f366003190112611c8f576012546040516001600160a01b039091168152602090f35b34611c8f576020366003190112611c8f57600354604051631a7f3c3360e01b815260048035908201819052915f90829060249082906001600160a01b03165afa9081156130c1575f9161336a575b50608001516001600160a01b031633148015613356575b61333d906148a5565b5f5260166020526020600360405f200154604051908152f35b506008546001600160a01b03163314613334565b61337e91503d805f833e6105fc8183614615565b8261331d565b34611c8f576020366003190112611c8f576004355f5260166020526020600260405f200154604051908152f35b34611c8f576133bf36614527565b9060245f60018060a01b036003541660405192838092631a7f3c3360e01b82528660048301525afa9081156130c1575f916135aa575b506008546001600160a01b03163314908115613595575b811561357e575b501561356f57805f52601660205260405f2060ff6007820154161561356057600681015442111561355157600401918254805b61344c57005b5f1981018181116134af576134619085614969565b90545f858152601a6020908152604080832060039590951b9390931c6001600160a01b03168083529381528282208683529052205460ff16156134c3575b5080156134af575f190180613446565b634e487b7160e01b5f52601160045260245ffd5b826134fe576134d2818561564f565b82847f086d7d8e60812aa129becc6986b9c51fd5060350cbbeeb6fce0e9b7ebf5080c65f80a48461349f565b5f8481526019602090815260408083206001600160a01b0385168085529083528184208785528352818420805460ff19169055878452601b835281842090845282528083208684529091528120556134d2565b63c024250560e01b5f5260045ffd5b6323077b5160e21b5f5260045ffd5b63ea8e4eb560e01b5f5260045ffd5b608001516001600160a01b03163314905083613413565b6007546001600160a01b03163314915061340c565b6135be91503d805f833e6105fc8183614615565b836133f5565b34611c8f576020366003190112611c8f576135dd61448a565b506008546001600160a01b031633036131905760405162461bcd60e51b815260206004820152603460248201527f557365207363686564756c654d696c6573746f6e654d616e61676572202b20616044820152733838363ca6b4b632b9ba37b732a6b0b730b3b2b960611b6064820152608490fd5b34611c8f576020366003190112611c8f576001600160a01b0361367361448a565b165f526029602052602060ff60405f2054166040519015158152f35b34611c8f57610100366003190112611c8f576004356136ac614474565b6084356001600160401b038111611c8f576136cb9036906004016144e0565b909160e4356001600160401b038111611c8f576136ec9036906004016144e0565b9390926002600b541461381a576044916002600b55602060018060a01b03600454166040519485809263cd5d36dd60e01b825260243560048301528b60248301525afa9283156130c1575f936137de575b506001600160a01b03831680156137cf576001600160a01b038516156137c0578033036137b157875f526016602052600860405f2001905f5260205260ff60405f205416156137a25761379b9660c4359460a43594606435926153c1565b6001600b55005b637d9ee48b60e11b5f5260045ffd5b63c51f70ef60e01b5f5260045ffd5b63b6cf0c2560e01b5f5260045ffd5b631303e3f760e01b5f5260045ffd5b9092506020813d602011613812575b816137fa60209383614615565b81010312611c8f5761380b906146ad565b918761373d565b3d91506137ed565b633ee5aeb560e01b5f5260045ffd5b34611c8f575f366003190112611c8f5760206040516276a7008152f35b34611c8f5761385436614527565b6008549091906001600160a01b0316330361319057805f52601760205260405f20825f5260205260ff60405f2054166138d857805f526020805260405f20825f5260205260405f2060ff198154169055805f52602160205260405f20825f526020525f60408120555f52602260205260405f20905f526020525f1960405f20555f80f35b63195332a560e01b5f5260045ffd5b34611c8f576080366003190112611c8f57613900614474565b60ff600c54161561356f576001600160a01b0381165f9081526029602052604090205460ff1661393f576120b36020916064359060243560043561550f565b6354585bf960e01b5f5260045ffd5b34611c8f575f366003190112611c8f5760206040516202a3008152f35b34611c8f576080366003190112611c8f57613984614474565b6064356001600160401b038111611c8f576139a39036906004016144e0565b60ff600c54161561356f577f67ce8fe26689ae619844cc7e0e68306c21d50ac0b50bd0ca97e875de6fc63991604051936020855260018060a01b031693806139f66024359560043595602084019161493c565b0390a4005b34611c8f576020366003190112611c8f57600435801515809103611c8f57617a694603613a345760ff8019602854169116176028555f80f35b60405162461bcd60e51b815260206004820152601560248201527415195cdd081a195b1c195c9cc8191a5cd8589b1959605a1b6044820152606490fd5b34611c8f575f366003190112611c8f576014546040516001600160a01b039091168152602090f35b34611c8f576101c0366003190112611c8f57613ab3614474565b606435906001600160a01b0382168203611c8f5760e4356001600160401b038111611c8f57613ae69036906004016144e0565b929091610144356001600160401b038111611c8f57613b099036906004016144e0565b90949092906101a4356001600160401b038111611c8f57613b2e9036906004016144e0565b9590946002600b541461381a576044946002600b55602060018060a01b03600454166040519788809263cd5d36dd60e01b8252602435600483015260043560248301525afa9586156130c1575f96613db4575b506001600160a01b038616156137cf576001600160a01b0386811690821603613da5576001600160a01b038516156137c057610124354211613d96576004355f526016602052600860405f200160018060a01b0387165f5260205260ff60405f205416156137a257604051602081019060c4358252604080820152613c0e8161195e60608201898961493c565b51902060a43503613d54576040516020810190613c398161195e6101043560243560043588886148e2565b51902098895f52600d60205260ff60405f205416613d4557613cf4926119fb613ceb926119f360405160208101907fa93a11627adf2c83e8818c9bff24ab5296709dfe56c0c544f3746b0868ec716182526004356040820152602435606082015260018060a01b038816608082015260018060a01b038c1660a082015260843560c082015260a43560e0820152610104356101008201526101243561012082015261012081526119eb61014082614615565b909391936167b0565b6001600160a01b03908116911603613d365761379b965f52600d60205260405f20600160ff198254161790556101843593610164359360c435916004356153c1565b638964e19b60e01b5f5260045ffd5b63ae6a662560e01b5f5260045ffd5b60405162461bcd60e51b815260206004820152601a602482015279082dadeeadce840c6dedadad2e8dacadce840dad2e6dac2e8c6d60331b6044820152606490fd5b630819bdcd60e01b5f5260045ffd5b633e6b52d160e01b5f5260045ffd5b9095506020813d602011613de8575b81613dd060209383614615565b81010312611c8f57613de1906146ad565b9489613b81565b3d9150613dc3565b34611c8f575f366003190112611c8f576005546040516001600160a01b039091168152602090f35b34611c8f576020366003190112611c8f576004356002600b541461381a576002600b55600354604051631a7f3c3360e01b81526004810183905291905f90839060249082906001600160a01b03165afa9182156130c1575f92613f92575b506008546001600160a01b031633148015613f7c575b613e95906148a5565b6080820180519092613eb991613eb3906001600160a01b031661523d565b8261647e565b5f818152601660205260409020600481015460059091015490159060ff168015613f75575b15613f3057613eec82616565565b908115613f28575b5015613f19579051613f11916001600160a01b03909116906152dc565b506001600b55005b630e4e865d60e01b5f5260045ffd5b905083613ef4565b60405162461bcd60e51b815260206004820152601d60248201527f53637265656e696e67206e6f74207965742064697374726962757465640000006044820152606490fd5b5080613ede565b5060808201516001600160a01b03163314613e8c565b613fa79192503d805f833e6105fc8183614615565b9082613e76565b34611c8f575f366003190112611c8f576006546040516001600160a01b039091168152602090f35b34611c8f575f366003190112611c8f576007546040516001600160a01b039091168152602090f35b34611c8f576080366003190112611c8f576004356024356044356001600160401b038111611c8f576140349036906004016144e0565b9092906064356001600160401b038111611c8f576140569036906004016144e0565b9490916002600b541461381a576002600b55835f52601660205260405f209560018060a01b0333165f526008870160205260ff60405f20541615614402575f858152601960209081526040808320338452825280832089845290915290205460ff16156143f3575f858152601a60209081526040808320338452825280832089845290915290205460ff166143e45760ff6007880154161561356057600687015442116143d5575f858152601c6020908152604080832033845282528083208984529091529020549161412883615c51565b505f60206141e961416d6040988951976141428b8a614615565b60018952601f198b0136868b013761415989614f2b565b5261416536878b614906565b963691614906565b7f9e7b61f58c47dc699ac88507c4f5bb9f121c03808c5676a8078fe583e46497025489516378542ead60e01b8152606060048201529485936001600160a01b0390921692849283916141d76141c5606485018e61644b565b8481036003190160248601528c6145e4565b838103600319016044850152906145e4565b03925af19081156143cb575f91614391575b5015614382577fc6366bab028b8d033cb362cfd1f2f3457ef4e92fc738b6788b90d5a7846367a061423e60209461424b879589519384938b85528b85019061644b565b90838203898501526145e4565b0390a181010312611c8f5735801590811503611c8f5761437357815f52601b602052805f2060018060a01b0333165f52602052805f20835f526020526002614297825f20543385614f38565b94835f52601a602052825f2060018060a01b0333165f52602052825f20855f52602052825f20600160ff19825416179055835f526018602052825f2060018060a01b0333165f52602052825f20855f52602052825f20600160ff1982541617905501614304858254614608565b9055815f5260166020526001815f200161431f858254614608565b9055815f526024602052805f20835f52602052805f20614340858254614608565b9055519283527fb720190a59343264ff283f3f3b149b059701f46936dd136c6fb1990660a9878d60203394a46001600b55005b63782370cb60e01b5f5260045ffd5b63cf6c44e960e01b5f5260045ffd5b90506020813d6020116143c3575b816143ac60209383614615565b81010312611c8f576143bd906146c1565b896141fb565b3d915061439f565b86513d5f823e3d90fd5b6375f9c4cb60e01b5f5260045ffd5b631a3f174360e21b5f5260045ffd5b631ea7c67960e31b5f5260045ffd5b637a83481b60e01b5f5260045ffd5b34611c8f575f366003190112611c8f576020601354604051908152f35b34611c8f5761443c366144b6565b915f52601860205260405f209060018060a01b03165f5260205260405f20905f52602052602060ff60405f2054166040519015158152f35b604435906001600160a01b0382168203611c8f57565b600435906001600160a01b0382168203611c8f57565b602435906001600160a01b0382168203611c8f57565b6060906003190112611c8f57600435906024356001600160a01b0381168103611c8f579060443590565b9181601f84011215611c8f578235916001600160401b038311611c8f5760208381860195010111611c8f57565b34611c8f575f366003190112611c8f5760206040515f8152f35b6040906003190112611c8f576004359060243590565b9181601f84011215611c8f578235916001600160401b038311611c8f576020808501948460051b010111611c8f57565b906080600319830112611c8f57600435916024356001600160401b038111611c8f578161459c9160040161453d565b909290916044356001600160401b038111611c8f57816145be9160040161453d565b90929091606435906001600160401b038211611c8f576145e09160040161453d565b9091565b805180835260209291819084018484015e5f828201840152601f01601f1916010190565b919082018092116134af57565b601f909101601f19168101906001600160401b0382119082101761463857604052565b634e487b7160e01b5f52604160045260245ffd5b6001600160401b03811161463857601f01601f191660200190565b81601f82011215611c8f5780519061467e8261464c565b9261468c6040519485614615565b82845260208383010111611c8f57815f9260208093018386015e8301015290565b51906001600160a01b0382168203611c8f57565b51908115158203611c8f57565b519060ff82168203611c8f57565b519061ffff82168203611c8f57565b602081830312611c8f578051906001600160401b038211611c8f570161022081830312611c8f576040519161022083016001600160401b038111848210176146385760405281516001600160401b038111611c8f578161474c918401614667565b835260208201516001600160401b038111611c8f578161476d918401614667565b602084015260408201516001600160401b038111611c8f5781614791918401614667565b60408401526060820151916001600160401b038311611c8f576147bc6102009261489c948301614667565b60608501526147cd608082016146ad565b60808501526147de60a082016146c1565b60a08501526147ef60c082016146ce565b60c085015261480060e082016146ce565b60e085015261481261010082016146c1565b61010085015261482561012082016146dc565b61012085015261483861014082016146ce565b61014085015261484b61016082016146ce565b61016085015261485e61018082016146dc565b6101808501526148716101a082016146c1565b6101a08501526148846101c082016146c1565b6101c08501526101e08101516101e0850152016146c1565b61020082015290565b156148ac57565b60405162461bcd60e51b815260206004820152600e60248201526d139bdd08185d5d1a1bdc9a5e995960921b6044820152606490fd5b90949392606092608083019660018060a01b03168352602083015260408201520152565b9291926149128261464c565b916149206040519384614615565b829481845281830111611c8f578281602093845f960137010152565b908060209392818452848401375f828201840152601f01601f1916010190565b919082039182116134af57565b805482101561497e575f5260205f2001905f90565b634e487b7160e01b5f52603260045260245ffd5b90602083828152019060208160051b85010193835f915b8383106149b95750505050505090565b909192939495601f198282030186528635601e1984360301811215611c8f578301602081019190356001600160401b038111611c8f578036038313611c8f57614a08602092839260019561493c565b9801960194930191906149a9565b916020908281520191905f905b808210614a305750505090565b90919283359061ffff8216809203611c8f57602081600193829352019401920190614a23565b81835290916001600160fb1b038311611c8f5760209260051b809284830137010190565b50506002546001600160a01b031691505033819003614aa257637e81b53b60e11b5f5260045ffd5b6040519063e9ff0b5b60e01b8252600482015260208160248173__$a9c0e8932c349ca967c51f540a78b86c11$__5af49081156130c1575f91614ae3575090565b90506020813d602011614b0a575b81614afe60209383614615565b81010312611c8f575190565b3d9150614af1565b602081830312611c8f578051906001600160401b038211611c8f57019080601f83011215611c8f578151916001600160401b038311614638578260051b916020830193614b626040519586614615565b845260208085019383010191818311611c8f5760208101935b838510614b8a57505050505090565b84516001600160401b038111611c8f5782016060818503601f190112611c8f5760405191606083016001600160401b03811184821017614638576040526020820151926001600160401b038411611c8f57606083614bef886020809881980101614667565b8352614bfd604082016146dc565b8584015201516040820152815201940193614b7b565b818102929181159184041417156134af57565b6040909392919360608101946005825260208201520152565b15614c4657565b60405162461bcd60e51b815260206004820152600f60248201526e54696d656c6f636b2061637469766560881b6044820152606490fd5b60405190614c8c604083614615565b601682527529a1a922a2a724a723afa224a9aa2924a12aaa24a7a760511b6020830152565b805f52602660205260405f2054908115614efe575f81815260276020526040808220546003549151631a7f3c3360e01b8152600481018590526001600160a01b0391821695939092909183916024918391165afa9081156130c1575f91614ee4575b50608001516001600160a01b03168314614e07575b823303614df857815f5260266020525f60408120555f80808084875af13d15614df3573d614d558161464c565b90614d636040519283614615565b81525f60203d92013e5b15614d9f5760207fc75da738a6dee5de16ae633215cf36deea00ed479f7d23896273d30c76e929ec91604051908152a3565b5f8281526026602090815260408083209390935560088054602790925292822080546001600160a01b0319166001600160a01b03928316179055915490911692505f516020616d0a5f395f51905f529080a3565b614d6d565b6329e2cf7f60e11b5f5260045ffd5b600a546001600160a01b03168015159081614e74575b50614e3057614e2b8361523d565b614d28565b50600880545f83815260276020526040812080546001600160a01b0319166001600160a01b0393841617905591541692505f516020616d0a5f395f51905f529080a3565b602491506020906040519283809263353224d760e11b82528860048301525afa9081156130c1575f91614eaa575b50155f614e1d565b90506020813d602011614edc575b81614ec560209383614615565b81010312611c8f57614ed6906146c1565b5f614ea2565b3d9150614eb8565b614ef891503d805f833e6105fc8183614615565b5f614d13565b6312d37ee560e31b5f5260045ffd5b8115614f17570490565b634e487b7160e01b5f52601260045260245ffd5b80511561497e5760200190565b5f908315615201576002546040516358ac71cd60e11b815290602090829060049082906001600160a01b03165afa80156130c1575f90615209575b614f7e915085614f0d565b1561520157805f52601d60205260405f2060018060a01b0384165f52602052602060405f205491604460018060a01b0360045416935f60405195869485936327e6d22f60e21b8552600485015260248401525af19081156130c1575f916151cf575b506002546040516358ac71cd60e11b815290602090829060049082906001600160a01b03165afa9081156130c1575f9161519d575b506001600160401b03906150299086614f0d565b16604051916315a9590360e11b83526004830152602482015260208160448173__$20089efc5df3e31f24c7f58c3630512626$__5af49081156130c1575f9161516b575b5083471061515c576002546001600160a01b0316803b15611c8f575f8591600460405180948193630d0e30db60e41b83525af180156130c157615146575b50600254602091906150c6906001600160a01b031682616249565b50600254604051632df5f6bf60e11b81526001600160a01b03958616600482015260248101929092529093849160449183918691165af190811561513a575061510d575090565b6020813d602011615132575b8161512660209383614615565b81010312611c8f575090565b3d9150615119565b604051903d90823e3d90fd5b6151539192505f90614615565b5f9060206150ab565b6358140e1f60e01b5f5260045ffd5b90506020813d602011615195575b8161518660209383614615565b81010312611c8f57515f61506d565b3d9150615179565b90506020813d6020116151c7575b816151b860209383614615565b81010312611c8f57515f615015565b3d91506151ab565b90506020813d6020116151f9575b816151ea60209383614615565b81010312611c8f57515f614fe0565b3d91506151dd565b505050505f90565b506020813d602011615235575b8161522360209383614615565b81010312611c8f57614f7e9051614f73565b3d9150615216565b600a546001600160a01b03169081615253575050565b60405163353224d760e11b81526001600160a01b03909116600482015290602090829060249082905afa9081156130c1575f916152a2575b501561529357565b6386736ff560e01b5f5260045ffd5b90506020813d6020116152d4575b816152bd60209383614615565b81010312611c8f576152ce906146c1565b5f61528b565b3d91506152b0565b5f8181526016602052604090208054600290910154919392916152fe9161495c565b9247808511615393575b508315615384575f818152601f60209081526040808320805460ff1916600117905560268252808320879055602782529182902080546001600160a01b0319166001600160a01b0395909516948517905590518581527fd4104224858c5717c00ad4575d8eaac64ffbb97ffeeb09cdd3b2388c7d1fa54c9190a3565b63fddb35b360e01b5f5260045ffd5b93505f615308565b6042906153a661665a565b906040519161190160f01b8352600283015260228201522090565b979198959092939495600254975f9860018060a01b031696873b15611c8f576040516354ed2a4b60e11b81526001600160a01b03968716600482018190529c9096166024870152604486019690965260e060648601529396879586959161542d9160e48801919061493c565b92608486015260a48501526003198483030160c485015261544d9261493c565b03815a5f948591f180156130c1576154fc575b5060025460405163455a25e560e11b81526004810185905290602090829060249082906001600160a01b03165afa91821561513a57916154c9575b5060207f4f72d13e1ace7a401481df4f2e8ad54560a47647e19ac2b6ea2423cb99cbe77791604051908152a3565b90506020813d6020116154f4575b816154e460209383614615565b81010312611c8f5751602061549b565b3d91506154d7565b61550891505f90614615565b5f5f615460565b9291908215615201576002546040516358ac71cd60e11b81526001600160a01b039091169490602081600481895afa80156130c1575f9061561b575b615556915085614f0d565b156155e75760018060a01b036004541660405195630941d4c960e11b8752601d600488015260196024880152601b6044880152601c6064880152608487015260a486015260c485015260e484015260018060a01b03166101048301526101248201526020816101448173__$20089efc5df3e31f24c7f58c3630512626$__5af49081156130c1575f91614ae3575090565b93507fa35b3d01e5c7c8c27cb608a23ba2677ad44665c36325777cf55d1009dc609e2f925060209150604051908152a25f90565b506020813d602011615647575b8161563560209383614615565b81010312611c8f57615556905161554b565b3d9150615628565b805f52601660205260405f20600981019060018060a01b0384165f528160205260405f20549081156157c757600481019182545f1981019081116134af576156979084614969565b905460039190911b1c6001600160a01b03165f1982018281116134af57816156c26156e69287614969565b9080546001600160a01b0360039390931b83811b199091169290931690921b179055565b6001600160a01b03165f9081526020859052604090205581549182156157b3576008925f1901906157178282614969565b81546001600160a01b0360039290921b82901b191690915591905585165f8181529290910160209081526040808420805460ff19169055938152838320839055848352601d81528383209183525220548061578f575b505f52601d60205260405f209060018060a01b03165f526020525f6040812055565b815f52601e60205260405f20905f5260205260405f2060ff1981541690555f61576d565b634e487b7160e01b5f52603160045260245ffd5b5050505050565b600354604051631a7f3c3360e01b815260048101839052905f90829060249082906001600160a01b03165afa9081156130c1575f91615c37575b506080810180519091906001600160a01b031633036130db5760a081015115615c28576101e00151421015615c19573415615c0a576002546040516358ac71cd60e11b815290602090829060049082906001600160a01b03165afa9081156130c1575f91615bd8575b506001600160401b0380820291908204036134af573411615bc957815f52601660205260ff600560405f20015460081c16615bba57815f52601660205260405f206158bd348254614608565b9055815f52601660205260405f20549060018060a01b0360025416916040516358ac71cd60e11b8152602081600481875afa80156130c1575f90615b86575b6001600160401b039261590f9250614f0d565b11615b77576020600492604051938480926358ac71cd60e11b82525afa9182156130c1575f92615b42575b505f916020906001600160401b03906159539034614f0d565b5f516020616cea5f395f51905f5254604051639cd07acb60e01b81529190921660048201526005602482015293849160449183916001600160a01b03165af19182156130c1575f92615b0e575b505f8381526016602052604090206003015415615af557825f526016602052600360405f20015491808315615ae5575b15615ad3575b602090606460018060a01b035f516020616cea5f395f51905f525416945f604051968794859363022f65e760e31b8552600485015260248401528160448401525af180156130c1575f90615a9f575b615a769250835f526016602052600360405f2001555b825f526016602052615a53600360405f200154616230565b505f8381526016602052604090206003015490516001600160a01b031690616249565b5033907fc9ed46c3457a9cf96f25ce7f957f07e28bc05fcdc5fee1edff097f3c13e616d95f80a3565b506020823d602011615acb575b81615ab960209383614615565b81010312611c8f57615a769151615a25565b3d9150615aac565b506020615ade61696c565b90506159d6565b9250615aef61696c565b926159d0565b615a7691835f526016602052600360405f200155615a3b565b9091506020813d602011615b3a575b81615b2a60209383614615565b81010312611c8f5751905f6159a0565b3d9150615b1d565b91506020823d602011615b6f575b81615b5d60209383614615565b81010312611c8f57905190602061593a565b3d9150615b50565b63580eccbf60e11b5f5260045ffd5b506020813d602011615bb2575b81615ba060209383614615565b81010312611c8f5761590f90516158fc565b3d9150615b93565b63ce709acf60e01b5f5260045ffd5b630625040160e01b5f5260045ffd5b90506020813d602011615c02575b81615bf360209383614615565b81010312611c8f57515f615871565b3d9150615be6565b63d73ab2e160e01b5f5260045ffd5b63c9a2b56f60e01b5f5260045ffd5b6311f14d8f60e21b5f5260045ffd5b615c4b91503d805f833e6105fc8183614615565b5f615808565b8015615c65575b615c62308261682c565b90565b50615c6f5f616919565b615c58565b6007546001600160a01b03163314908115615c92575b501561356f57565b6001600160a01b0316331490505f615c8a565b60055460405163fb6e1b7d60e01b81526001600160a01b03918216600482015260248101929092529091166044820152606481019190915260208160848173__$20089efc5df3e31f24c7f58c3630512626$__5af49081156130c1575f91615d0b575090565b90506020813d602011615d37575b81615d2660209383614615565b81010312611c8f57615c62906146c1565b3d9150615d19565b9190826040910312611c8f576020825192015190565b919060018060a01b036005541692805f52601660205260405f2060405194637838526b60e11b8652600486015260248501526044840152606483015260408260848173__$20089efc5df3e31f24c7f58c3630512626$__5af49182156130c1575f905f93615dc257509190565b90506145e091925060403d604011610c9557610c868183614615565b5f52601660205260405f2060078101600160ff1982541617905562093a804201908142116134af5760060155565b600354604051631a7f3c3360e01b81526004810183905291905f90839060249082906001600160a01b03165afa9182156130c1575f92615eba575b505f52601660205260405f2060a082015115615c285760ff6005820154169081615eab575b81615e9d575b81615e8e575b50615e8b576101e00151421015615c1957565b50565b60c8915060040154105f615e78565b600681015442119150615e72565b600781015460ff169150615e6c565b615ecf9192503d805f833e6105fc8183614615565b905f615e47565b60041115615ee057565b634e487b7160e01b5f52602160045260245ffd5b90915f825f52601660205260405f206008810160018060a01b0384165f528060205260ff60405f205416616167576004820160c88154101561615857855f52601e60205260405f20875f5260205260ff60405f205416616149576004805460405163b6e4033f60e01b815291820189905260248201889052602090829060449082906001600160a01b03165afa80156130c1575f9061610d575b60029150615f9b81615ed6565b036160fe57855f52601e60205260405f20875f5260205260405f20600160ff1982541617905580549182156160e8575b600160401b83101561463857615fed866156c285600160099701865585614969565b6001600160a01b038681165f81815260209384526040808220805460ff19166001179055945495909601835283862094909455878552601d8252828520938552929052909120859055600654169182616056575b505f516020616d2a5f395f51905f52915080a3565b604051602081019160018060601b03199060601b16825242603482015260348152616082605482614615565b519020823b15611c8f575f926064849260405195869384926306cc173360e41b84526006600485015289602485015260448401525af180156130c1576160c9575b81616041565b505f6160d491614615565b5f516020616d2a5f395f51905f525f6160c3565b60058401805461ff001916610100179055615fcb565b6321bd41f360e21b5f5260045ffd5b506020813d602011616141575b8161612760209383614615565b81010312611c8f57516004811015611c8f57600290615f8e565b3d915061611a565b635dff479b60e11b5f5260045ffd5b63be6addbd60e01b5f5260045ffd5b630ea075bf60e21b5f5260045ffd5b4660010361618357600190565b4662aa36a7036161935761271190565b617a6946146161a0575f90565b5f1990565b6006546001600160a01b031691826161bc57505050565b6040516161e6602080838180820196805191829101885e8101428382015203018084520182614615565b519020823b15611c8f57616213925f92836040518096819582946306cc173360e41b845260048401614c26565b03925af180156130c1576162245750565b5f61622e91614615565b565b801561624057615c62308261682c565b50615c6f61696c565b90811561625b575b615c62908261682c565b9050615c6261626861696c565b919050616251565b929190835f52601660205260405f209360018060a01b036002541660018060a01b03600454169060405196634720128760e01b8852600488015260196024880152601d6044880152601b6064880152601c6084880152602360a488015260c487015260e48601526101048501526101248401526101448301526101648201525f6101848201526020816101a48173__$20089efc5df3e31f24c7f58c3630512626$__5af49081156130c1575f91614ae3575090565b929190835f52601660205260405f209360018060a01b036002541660018060a01b03600454169060405196634720128760e01b8852600488015260196024880152601d6044880152601b6064880152601c6084880152602360a488015260c487015260e486015261010485015261012484015261014483015261016482015260016101848201526020816101a48173__$20089efc5df3e31f24c7f58c3630512626$__5af49081156130c1575f91614ae3575090565b9060018060a01b036005541691805f52601660205260405f20604051936311f189c360e01b855260048501526024840152601960448401526064830152608482015260208160a48173__$20089efc5df3e31f24c7f58c3630512626$__5af49081156130c1575f91615d0b575090565b90602080835192838152019201905f5b8181106164685750505090565b825184526020938401939092019160010161645b565b906101e0018051421061655657815f526016602052600460405f2001541590811561653d575b50156164fd57805f52601f60205260ff60405f2054166164ee575f52601660205260405f2060ff60078201541690816164df575b5061355157565b6006915001544211155f6164d8565b6357ef322b60e01b5f5260045ffd5b60405162461bcd60e51b815260206004820152601860248201527711dc9858d9481c195c9a5bd9081b9bdd08195b185c1cd95960421b6044820152606490fd5b9050516276a70081018091116134af574210155f6164a4565b634aeab5cb60e01b5f5260045ffd5b6005546001600160a01b0316801561664457905f6024926040519384809263010b152760e61b82528560048301525afa9182156130c1575f92616628575b50815115616611575f5b825181101561660957815f52601760205260405f20815f5260205260ff60405f205416616601576165de81836163db565b6165fa576165ec8183616bb2565b6165fa576001905b016165ad565b5050505f90565b6001906165f4565b505050600190565b90505f52601660205260ff600560405f2001541690565b61663d9192503d805f833e610d918183614615565b905f6165a3565b505f52601660205260ff600560405f2001541690565b307f00000000000000000000000000000000000000000000000000000000000000006001600160a01b0316148061674d575b156166b5577f000000000000000000000000000000000000000000000000000000000000000090565b60405160208101907f8b73c3c69bb8fe3d512ecc4cf759cc79239f7b179b0ffacaa9a75d522b39400f82527f000000000000000000000000000000000000000000000000000000000000000060408201527f000000000000000000000000000000000000000000000000000000000000000060608201524660808201523060a082015260a0815261674760c082614615565b51902090565b507f0000000000000000000000000000000000000000000000000000000000000000461461668c565b81519190604183036167a65761679f9250602082015190606060408401519301515f1a90616c51565b9192909190565b50505f9160029190565b6167b981615ed6565b806167c2575050565b6167cb81615ed6565b600181036167e25763f645eedf60e01b5f5260045ffd5b6167eb81615ed6565b60028103616806575063fce698f760e01b5f5260045260245ffd5b60039061681281615ed6565b1461681a5750565b6335e2f38360e21b5f5260045260245ffd5b5f516020616d6a5f395f51905f52546001600160a01b031691823b15611c8f57604051635ca4b5b160e11b815260048101929092526001600160a01b03166024820152905f908290604490829084905af180156130c1576162245750565b60408051916168998284614615565b60018352601f1982013660208501376168b183614f2b565b525f516020616d6a5f395f51905f52546001600160a01b0316803b15611c8f578151637d6e912360e11b815260206004820152925f9184918290849082906168fd90602483019061644b565b03925af190811561691057506162245750565b513d5f823e3d90fd5b5f516020616cea5f395f51905f5254604051639cd07acb60e01b815260048101929092525f6024830181905260209183916044918391906001600160a01b03165af19081156130c1575f91614ae3575090565b5f516020616cea5f395f51905f5254604051639cd07acb60e01b81525f60048201819052600560248301529091602091839160449183916001600160a01b03165af19081156130c1575f91614ae3575090565b60ff8114616a055760ff811690601f82116169f657604051916169e3604084614615565b6020808452838101919036833783525290565b632cd44ac360e21b5f5260045ffd5b506040515f5f548060011c9160018216918215616ad8575b602084108314616ac4578385528492908115616aa55750600114616a48575b615c6292500382614615565b505f80805290917f290decd9548b62a8d60345a988386fc84ba6bc95484008f6362f93160ef3e5635b818310616a89575050906020615c6292820101616a3c565b6020919350806001915483858801015201910190918392616a71565b60209250615c6294915060ff191682840152151560051b820101616a3c565b634e487b7160e01b5f52602260045260245ffd5b92607f1692616a1d565b60ff8114616b065760ff811690601f82116169f657604051916169e3604084614615565b506040515f6001548060011c9160018216918215616ba8575b602084108314616ac4578385528492908115616aa55750600114616b4957615c6292500382614615565b5060015f90815290917fb10e2d527612073b26eecdfd717e6a320cf44b4afac2b0732d9fcbe2b7fa0cf65b818310616b8c575050906020615c6292820101616a3c565b6020919350806001915483858801015201910190918392616b74565b92607f1692616b1f565b805f526016602052600460405f2001918254925f5b848110616bd75750505050505f90565b616be18183614969565b905460039190911b1c6001600160a01b0316616bfe848287615ca5565b9081616c1c575b50616c1257600101616bc7565b5050505050600190565b9050845f52601a60205260405f209060018060a01b03165f5260205260405f20835f5260205260ff60405f205416155f616c05565b91906fa2a8918ca85bafe22016d0b997e4df60600160ff1b038411616cbe579160209360809260ff5f9560405194855216868401526040830152606082015282805260015afa156130c1575f516001600160a01b03811615616cb457905f905f90565b505f906001905f90565b5050505f916003919056fe62b24bd9c0bcb655745cd379ea0b82caec0357933e5585ef39dace55098e9b999e7b61f58c47dc699ac88507c4f5bb9f121c03808c5676a8078fe583e464970188e99c6ab1414f1244a37ab1828ce65a275ac8d886ea154b39f0fc77d1a23a6489ec8e040354cb50b6e9f9dd254b334c6d245de168ab322fb054d8017e7bc7996d1c76d614228b523baa4dcd9539e2c713b54ff4ab3ff2d1627e7f6cd32be4429e7b61f58c47dc699ac88507c4f5bb9f121c03808c5676a8078fe583e4649700a164736f6c634300081b000a",
  "linkReferences": {
    "contracts/lib/VaultConfidentialLib.sol": {
      "VaultConfidentialLib": [
        {
          "length": 20,
          "start": 20968
        }
      ]
    },
    "contracts/lib/VaultDistributionLib.sol": {
      "VaultDistributionLib": [
        {
          "length": 20,
          "start": 4192
        },
        {
          "length": 20,
          "start": 7038
        },
        {
          "length": 20,
          "start": 9480
        },
        {
          "length": 20,
          "start": 22389
        },
        {
          "length": 20,
          "start": 23788
        },
        {
          "length": 20,
          "start": 25616
        },
        {
          "length": 20,
          "start": 25796
        },
        {
          "length": 20,
          "start": 27178
        },
        {
          "length": 20,
          "start": 27360
        },
        {
          "length": 20,
          "start": 27472
        }
      ]
    }
  },
  "deployedLinkReferences": {
    "contracts/lib/VaultConfidentialLib.sol": {
      "VaultConfidentialLib": [
        {
          "length": 20,
          "start": 19133
        }
      ]
    },
    "contracts/lib/VaultDistributionLib.sol": {
      "VaultDistributionLib": [
        {
          "length": 20,
          "start": 2357
        },
        {
          "length": 20,
          "start": 5203
        },
        {
          "length": 20,
          "start": 7645
        },
        {
          "length": 20,
          "start": 20554
        },
        {
          "length": 20,
          "start": 21953
        },
        {
          "length": 20,
          "start": 23781
        },
        {
          "length": 20,
          "start": 23961
        },
        {
          "length": 20,
          "start": 25343
        },
        {
          "length": 20,
          "start": 25525
        },
        {
          "length": 20,
          "start": 25637
        }
      ]
    }
  }
}