{
  "_format": "hh-sol-artifact-1",
  "contractName": "StakingManager",
  "sourceName": "contracts/StakingManager.sol",
  "abi": [
    {
      "inputs": [
        {
          "internalType": "address payable",
          "name": "_cETH",
          "type": "address"
        },
        {
          "internalType": "address",
          "name": "_aavePool",
          "type": "address"
        },
        {
          "internalType": "address",
          "name": "_wethGateway",
          "type": "address"
        },
        {
          "internalType": "address",
          "name": "_aWeth",
          "type": "address"
        }
      ],
      "stateMutability": "nonpayable",
      "type": "constructor"
    },
    {
      "inputs": [],
      "name": "InvalidKMSSignatures",
      "type": "error"
    },
    {
      "inputs": [
        {
          "internalType": "bytes32",
          "name": "handle",
          "type": "bytes32"
        },
        {
          "internalType": "address",
          "name": "sender",
          "type": "address"
        }
      ],
      "name": "SenderNotAllowedToUseHandle",
      "type": "error"
    },
    {
      "inputs": [],
      "name": "ZamaProtocolUnsupported",
      "type": "error"
    },
    {
      "anonymous": false,
      "inputs": [
        {
          "indexed": true,
          "internalType": "address",
          "name": "user",
          "type": "address"
        },
        {
          "indexed": false,
          "internalType": "bytes32",
          "name": "sufficientHandle",
          "type": "bytes32"
        }
      ],
      "name": "ConfidentialStakeRequested",
      "type": "event"
    },
    {
      "anonymous": false,
      "inputs": [
        {
          "indexed": true,
          "internalType": "address",
          "name": "newOwner",
          "type": "address"
        }
      ],
      "name": "OwnershipAccepted",
      "type": "event"
    },
    {
      "anonymous": false,
      "inputs": [
        {
          "indexed": true,
          "internalType": "address",
          "name": "proposedOwner",
          "type": "address"
        }
      ],
      "name": "OwnershipProposed",
      "type": "event"
    },
    {
      "anonymous": false,
      "inputs": [
        {
          "indexed": true,
          "internalType": "address",
          "name": "user",
          "type": "address"
        },
        {
          "indexed": false,
          "internalType": "bytes32",
          "name": "sufficientHandle",
          "type": "bytes32"
        }
      ],
      "name": "PrivateUnstakeRequested",
      "type": "event"
    },
    {
      "anonymous": false,
      "inputs": [
        {
          "indexed": true,
          "internalType": "address",
          "name": "user",
          "type": "address"
        }
      ],
      "name": "PrivateUnstaked",
      "type": "event"
    },
    {
      "anonymous": false,
      "inputs": [
        {
          "indexed": false,
          "internalType": "bytes32[]",
          "name": "handlesList",
          "type": "bytes32[]"
        },
        {
          "indexed": false,
          "internalType": "bytes",
          "name": "abiEncodedCleartexts",
          "type": "bytes"
        }
      ],
      "name": "PublicDecryptionVerified",
      "type": "event"
    },
    {
      "anonymous": false,
      "inputs": [
        {
          "indexed": true,
          "internalType": "address",
          "name": "user",
          "type": "address"
        },
        {
          "indexed": false,
          "internalType": "bytes32",
          "name": "sufficientHandle",
          "type": "bytes32"
        }
      ],
      "name": "PublicUnstakeRequested",
      "type": "event"
    },
    {
      "anonymous": false,
      "inputs": [
        {
          "indexed": true,
          "internalType": "address",
          "name": "user",
          "type": "address"
        }
      ],
      "name": "PublicUnstaked",
      "type": "event"
    },
    {
      "anonymous": false,
      "inputs": [
        {
          "indexed": true,
          "internalType": "address",
          "name": "user",
          "type": "address"
        }
      ],
      "name": "Staked",
      "type": "event"
    },
    {
      "anonymous": false,
      "inputs": [
        {
          "indexed": true,
          "internalType": "address",
          "name": "user",
          "type": "address"
        }
      ],
      "name": "UnstakeCancelled",
      "type": "event"
    },
    {
      "anonymous": false,
      "inputs": [
        {
          "indexed": true,
          "internalType": "address",
          "name": "user",
          "type": "address"
        }
      ],
      "name": "Unstaked",
      "type": "event"
    },
    {
      "inputs": [],
      "name": "CANCEL_TIMEOUT_FUNDS",
      "outputs": [
        {
          "internalType": "uint256",
          "name": "",
          "type": "uint256"
        }
      ],
      "stateMutability": "view",
      "type": "function"
    },
    {
      "inputs": [],
      "name": "aWeth",
      "outputs": [
        {
          "internalType": "address",
          "name": "",
          "type": "address"
        }
      ],
      "stateMutability": "view",
      "type": "function"
    },
    {
      "inputs": [],
      "name": "aavePool",
      "outputs": [
        {
          "internalType": "address",
          "name": "",
          "type": "address"
        }
      ],
      "stateMutability": "view",
      "type": "function"
    },
    {
      "inputs": [],
      "name": "acceptOwnership",
      "outputs": [],
      "stateMutability": "nonpayable",
      "type": "function"
    },
    {
      "inputs": [],
      "name": "cETH",
      "outputs": [
        {
          "internalType": "contract ConfidentialETH",
          "name": "",
          "type": "address"
        }
      ],
      "stateMutability": "view",
      "type": "function"
    },
    {
      "inputs": [],
      "name": "cancelPendingConfidentialStake",
      "outputs": [],
      "stateMutability": "nonpayable",
      "type": "function"
    },
    {
      "inputs": [],
      "name": "cancelPendingUnstake",
      "outputs": [],
      "stateMutability": "nonpayable",
      "type": "function"
    },
    {
      "inputs": [
        {
          "internalType": "bytes",
          "name": "transferCleartexts",
          "type": "bytes"
        },
        {
          "internalType": "bytes",
          "name": "transferProof",
          "type": "bytes"
        }
      ],
      "name": "completeConfidentialStake",
      "outputs": [],
      "stateMutability": "nonpayable",
      "type": "function"
    },
    {
      "inputs": [
        {
          "internalType": "bytes",
          "name": "sufficientCleartexts",
          "type": "bytes"
        },
        {
          "internalType": "bytes",
          "name": "sufficientProof",
          "type": "bytes"
        },
        {
          "internalType": "bytes",
          "name": "transferCleartexts",
          "type": "bytes"
        },
        {
          "internalType": "bytes",
          "name": "transferProof",
          "type": "bytes"
        }
      ],
      "name": "completePrivateUnstake",
      "outputs": [],
      "stateMutability": "nonpayable",
      "type": "function"
    },
    {
      "inputs": [
        {
          "internalType": "bytes",
          "name": "sufficientCleartexts",
          "type": "bytes"
        },
        {
          "internalType": "bytes",
          "name": "sufficientProof",
          "type": "bytes"
        }
      ],
      "name": "completePublicUnstake",
      "outputs": [],
      "stateMutability": "nonpayable",
      "type": "function"
    },
    {
      "inputs": [
        {
          "internalType": "bytes",
          "name": "sufficientCleartexts",
          "type": "bytes"
        },
        {
          "internalType": "bytes",
          "name": "sufficientProof",
          "type": "bytes"
        }
      ],
      "name": "completeUnstake",
      "outputs": [],
      "stateMutability": "nonpayable",
      "type": "function"
    },
    {
      "inputs": [],
      "name": "confidentialProtocolId",
      "outputs": [
        {
          "internalType": "uint256",
          "name": "",
          "type": "uint256"
        }
      ],
      "stateMutability": "view",
      "type": "function"
    },
    {
      "inputs": [
        {
          "internalType": "address",
          "name": "user",
          "type": "address"
        }
      ],
      "name": "getEncryptedPrivateStaked",
      "outputs": [
        {
          "internalType": "euint64",
          "name": "",
          "type": "bytes32"
        }
      ],
      "stateMutability": "view",
      "type": "function"
    },
    {
      "inputs": [
        {
          "internalType": "address",
          "name": "user",
          "type": "address"
        }
      ],
      "name": "getEncryptedPublicStaked",
      "outputs": [
        {
          "internalType": "euint64",
          "name": "",
          "type": "bytes32"
        }
      ],
      "stateMutability": "view",
      "type": "function"
    },
    {
      "inputs": [
        {
          "internalType": "address",
          "name": "user",
          "type": "address"
        }
      ],
      "name": "getEncryptedTotalStaked",
      "outputs": [
        {
          "internalType": "euint64",
          "name": "",
          "type": "bytes32"
        }
      ],
      "stateMutability": "view",
      "type": "function"
    },
    {
      "inputs": [],
      "name": "owner",
      "outputs": [
        {
          "internalType": "address",
          "name": "",
          "type": "address"
        }
      ],
      "stateMutability": "view",
      "type": "function"
    },
    {
      "inputs": [],
      "name": "pendingOwner",
      "outputs": [
        {
          "internalType": "address",
          "name": "",
          "type": "address"
        }
      ],
      "stateMutability": "view",
      "type": "function"
    },
    {
      "inputs": [
        {
          "internalType": "address",
          "name": "user",
          "type": "address"
        }
      ],
      "name": "pendingUnstakeHandle",
      "outputs": [
        {
          "internalType": "bytes32",
          "name": "",
          "type": "bytes32"
        }
      ],
      "stateMutability": "view",
      "type": "function"
    },
    {
      "inputs": [],
      "name": "previewConfidentialStakeTransfer",
      "outputs": [
        {
          "internalType": "bytes32",
          "name": "",
          "type": "bytes32"
        }
      ],
      "stateMutability": "nonpayable",
      "type": "function"
    },
    {
      "inputs": [],
      "name": "previewPrivateUnstakeTransfer",
      "outputs": [
        {
          "internalType": "bytes32",
          "name": "",
          "type": "bytes32"
        }
      ],
      "stateMutability": "nonpayable",
      "type": "function"
    },
    {
      "inputs": [
        {
          "internalType": "address",
          "name": "_newOwner",
          "type": "address"
        }
      ],
      "name": "proposeOwnership",
      "outputs": [],
      "stateMutability": "nonpayable",
      "type": "function"
    },
    {
      "inputs": [
        {
          "internalType": "externalEuint64",
          "name": "encryptedUnits",
          "type": "bytes32"
        },
        {
          "internalType": "bytes",
          "name": "inputProof",
          "type": "bytes"
        }
      ],
      "name": "requestConfidentialStake",
      "outputs": [],
      "stateMutability": "nonpayable",
      "type": "function"
    },
    {
      "inputs": [
        {
          "internalType": "externalEuint64",
          "name": "encryptedGweiUnits",
          "type": "bytes32"
        },
        {
          "internalType": "bytes",
          "name": "inputProof",
          "type": "bytes"
        }
      ],
      "name": "requestPrivateUnstake",
      "outputs": [],
      "stateMutability": "nonpayable",
      "type": "function"
    },
    {
      "inputs": [
        {
          "internalType": "uint256",
          "name": "amount",
          "type": "uint256"
        }
      ],
      "name": "requestPublicUnstake",
      "outputs": [],
      "stateMutability": "nonpayable",
      "type": "function"
    },
    {
      "inputs": [
        {
          "internalType": "uint256",
          "name": "amount",
          "type": "uint256"
        }
      ],
      "name": "requestUnstake",
      "outputs": [],
      "stateMutability": "nonpayable",
      "type": "function"
    },
    {
      "inputs": [],
      "name": "stake",
      "outputs": [],
      "stateMutability": "payable",
      "type": "function"
    },
    {
      "inputs": [
        {
          "internalType": "externalEuint64",
          "name": "",
          "type": "bytes32"
        },
        {
          "internalType": "bytes",
          "name": "",
          "type": "bytes"
        }
      ],
      "name": "stakeFromConfidential",
      "outputs": [],
      "stateMutability": "pure",
      "type": "function"
    },
    {
      "inputs": [],
      "name": "wethGateway",
      "outputs": [
        {
          "internalType": "address",
          "name": "",
          "type": "address"
        }
      ],
      "stateMutability": "view",
      "type": "function"
    },
    {
      "stateMutability": "payable",
      "type": "receive"
    }
  ],
  "bytecode": "0x60e06040523461036357604051601f6128a638819003918201601f19168301916001600160401b03831184841017610367578084926080946040528339810103126103635780516001600160a01b0381169190829003610363576100656020820161039a565b61007d60606100766040850161039a565b930161039a565b926100866103ae565b504660010361027f576100976103ae565b506100a061037b565b73ca2e8f1f656cd25c01f05d0b243ab1ecd4a8ffb6815273d82385dada1ae3e969447f20a3164f6213100e7560208201527377627828a55156b04ac0dc0eb30467f1a552bb0360408201525b80517f9e7b61f58c47dc699ac88507c4f5bb9f121c03808c5676a8078fe583e464970080546001600160a01b03199081166001600160a01b039384161790915560208301517f9e7b61f58c47dc699ac88507c4f5bb9f121c03808c5676a8078fe583e4649701805483169184169190911790556040909201517f9e7b61f58c47dc699ac88507c4f5bb9f121c03808c5676a8078fe583e4649702805490931690821617909155821615158061026d575b8061025b575b156102225760018060a01b0319600154161760015560805260a05260c05260015f553360018060a01b031960095416176009556040516124dd90816103c982396080518181816103b40152818161091c01526115ed015260a051818181610328015281816108de015261158b015260c05181818161084b01526115210152f35b60405162461bcd60e51b81526020600482015260116024820152705a65726f2041617665206164647265737360781b6044820152606490fd5b506001600160a01b03841615156101a2565b506001600160a01b038316151561019c565b4662aa36a7036102ea576102916103ae565b5061029a61037b565b73f0ffdc93b7e186bc2f8cb3daa75d86d1930a433d81527392c920834ec8941d2c77d188936e1f7a6f49c127602082015273be0e383937d564d7ff0bc3b46c51f0bf8d5c311a60408201526100ec565b46617a6903610354576102fb6103ae565b5061030461037b565b7350157cffd6bbfa2dece204a89ec419c23ef5755d815273e3a9105a3a932253a70f126eb1e3b589c643dd24602082015273901f8942346f7ab3a01f6d7613119bca447bb03060408201526100ec565b6373cac13b60e01b5f5260045ffd5b5f80fd5b634e487b7160e01b5f52604160045260245ffd5b60405190606082016001600160401b0381118382101761036757604052565b51906001600160a01b038216820361036357565b6103b661037b565b905f82525f60208301525f604083015256fe60806040526004361015610057575b3615610018575f80fd5b60405162461bcd60e51b8152602060048201526017602482015276111a5c9958dd08115512081b9bdd081858d8d95c1d1959604a1b6044820152606490fd5b5f5f3560e01c80630199e7f31461122e578063063190e6146111f25780630a2f99111461115e5780630c7de4211461114b5780631346df8114610f445780631d55840114610f13578063230957211461087a57806330cd279214610d5f5780633392276914610afd5780633a4b66f1146108975780633e4d41771461087a5780635cd9ce3e146108355780636733632c146107f8578063710bf32214610716578063719842691461063d57806372f4121b1461062057806379ba50971461057f57806385870c3e146104485780638927b030146104255780638da5cb5b146103fc578063990404b8146103e3578063a03e4bc31461039e578063a1b4d01114610375578063c3ded69414610357578063c5e10eef14610312578063cc5f44e214610239578063e265ba50146101c15763e30c397814610196575061000e565b346101be57806003193601126101be57600a546040516001600160a01b039091168152602090f35b80fd5b50346101be576101d0366112da565b505060405162461bcd60e51b815260206004820152603860248201527f5573652072657175657374436f6e666964656e7469616c5374616b65202b20636044820152776f6d706c657465436f6e666964656e7469616c5374616b6560401b606482015260849150fd5b50346101be57806003193601126101be573381526006602052604061025f818320611394565b61026e602082015115156113bc565b0151610e1081018091116102fe57610287904211611b7f565b33815260066020525f60026040832082815582600182015501558060018060a01b0360015416803b156102fb5781809160246040518094819363ce7a60ab60e01b83523360048401525af180156102f0576102df5750f35b816102e991611371565b6101be5780f35b6040513d84823e3d90fd5b50fd5b634e487b7160e01b82526011600452602482fd5b50346101be57806003193601126101be576040517f00000000000000000000000000000000000000000000000000000000000000006001600160a01b03168152602090f35b50346101be576103726103693661128a565b92919091611461565b80f35b50346101be57806003193601126101be576001546040516001600160a01b039091168152602090f35b50346101be57806003193601126101be576040517f00000000000000000000000000000000000000000000000000000000000000006001600160a01b03168152602090f35b50346101be57806003193601126101be57610372611bc1565b50346101be57806003193601126101be576009546040516001600160a01b039091168152602090f35b50346101be57806003193601126101be576020610440612344565b604051908152f35b50346101be5761049861049261045d366112da565b61046e600287959495541415611415565b60028655338652600760205261048b60ff60408820541615611b39565b36916117e0565b90611d40565b6104a181611ee1565b50338252600360205260408220548015610541576104ca6104c5836104f793611f00565b611fb3565b91604051906104d882611342565b8152826020820152426040820152338452600460205260408420611825565b338252600760205260408220600160ff198254161790556040519081527f459d41d31aa98a1da97be20030f9de805206cdd59259227181d9fc6bd52ed9db60203392a26001815580f35b60405162461bcd60e51b8152602060048201526016602482015275139bc81c1c9a5d985d19481cdd185ad948199bdd5b9960521b6044820152606490fd5b50346101be57806003193601126101be57600a546001600160a01b03811690338290036105e657600980546001600160a01b0319908116841790915516600a557fb27970c1714b28277b78cc17ac2fe9556e7f048cd48358cffe3dc7d547608fdc8280a280f35b60405162461bcd60e51b81526020600482015260126024820152712737ba10383937b837b9b2b21037bbb732b960711b6044820152606490fd5b50346101be57806003193601126101be576020604051610e108152f35b50346101be57806003193601126101be5733815260066020528060206106b761066860408420611394565b6106768382015115156113bc565b61068c815160018060a01b036001541690611ce8565b5060018060a01b036001541690516040519586809481936303301bff60e01b835233600484016113fa565b03925af190811561070a57906106d3575b602090604051908152f35b506020813d602011610702575b816106ed60209383611371565b810103126106fe57602090516106c8565b5f80fd5b3d91506106e0565b604051903d90823e3d90fd5b50346101be5760203660031901126101be576004356001600160a01b038116908190036107f4576009546001600160a01b031633036107c257801561078e57600a80546001600160a01b031916821790557f6ab4d119f23076e8ad491bc65ce85f017fb0591dce08755ba8591059cc51737a8280a280f35b60405162461bcd60e51b815260206004820152600c60248201526b5a65726f206164647265737360a01b6044820152606490fd5b60405162461bcd60e51b815260206004820152600a60248201526927b7363c9037bbb732b960b11b6044820152606490fd5b5080fd5b50346101be5760203660031901126101be576004356001600160a01b038116908190036107f4578160409160209352600283522054604051908152f35b50346101be57806003193601126101be576040517f00000000000000000000000000000000000000000000000000000000000000006001600160a01b03168152602090f35b50346101be5760203660031901126101be57610372600435611899565b50806003193601126101be576108b1600282541415611415565b600281553415610ac757633b9aca003406610a7857633b9aca0034046001600160401b038111610a3a57817f00000000000000000000000000000000000000000000000000000000000000006001600160a01b0316803b156107f45760405163474cf53d60e01b81527f00000000000000000000000000000000000000000000000000000000000000006001600160a01b03166004820152336024820152604481018390529082908290606490829034905af180156102f057610a25575b50610984916001600160401b031690506123d3565b3382526002602052604082205415610a13576109ac90338352600260205260408320546120ce565b338252600260205260408220555b33815260026020526109d0336040832054611ce8565b5033815260026020526109e66040822054611ee1565b50337f77338642d9284a44296d29a273e04b8ab6b15c7d2439094cd460b7e4f0b330748280a26001815580f35b338252600260205260408220556109ba565b81610a2f91611371565b6107f457815f61096f565b60405162461bcd60e51b815260206004820152601660248201527514dd185ad9481bdd995c999b1bdddcc81d5a5b9d0d8d60521b6044820152606490fd5b60405162461bcd60e51b815260206004820152602160248201527f5374616b6520616d6f756e74206d75737420626520612077686f6c65204777656044820152606960f81b6064820152608490fd5b60405162461bcd60e51b815260206004820152600e60248201526d04d757374207374616b65203e20360941b6044820152606490fd5b50346101be5760803660031901126101be57806004356001600160401b0381116102fb57610b2f90369060040161125d565b906024356001600160401b038111610d5a57610b4f90369060040161125d565b90916044356001600160401b038111610d5657610b7090369060040161125d565b90929091906064356001600160401b038111610d5257610c27610b9a610c2c92369060040161125d565b949098610bab60028c541415611415565b60028b55338b526004602052610c1f610bc660408d20611394565b956020870190610bd8825115156113bc565b610c1960409c8d93845194610bed8187611371565b60018652601f190136602087013751610c0585611ab6565b52610c113687896117e0565b9236916117e0565b916121a9565b810190611ad7565b611aef565b519233875260046020525f60028689208281558260018201550155338752600760205284872060ff1981541690553387526003602052610c6f84868920546122c0565b3388526003602052858820553387526003602052610c903386892054611ce8565b503387526003602052610ca585882054611ee1565b50600154610cbc906001600160a01b031685611ce8565b506001546001600160a01b031691823b15610d52578794610cf686928851998a9788968795633cd6900760e21b8752333060048901611a6a565b03925af1908115610d495750610d34575b50337f723296e6659d8d1d3adf1e14a47f8c1e9abb09a0bdf669247571ba3e73e7967f8280a26001815580f35b81610d3e91611371565b6101be57805f610d07565b513d84823e3d90fd5b8780fd5b8580fd5b505050fd5b50346101be5780610d6f3661128a565b91939290610d81600285541415611415565b600284553384526006602052610d9960408520611394565b610da8602082015115156113bc565b519433855260066020525f600260408720828155826001820155015560018060a01b0360015416803b15610d565785809160246040518094819363ce7a60ab60e01b83523360048401525af1908115610f08578691610eef575b5050600154610e1a906001600160a01b031687611ce8565b506001546001600160a01b031690813b15610d5657858094610e5560405197889687958694633cd6900760e21b86528d303360048901611a6a565b03925af180156102f057610eda575b50503382526003602052604082205415610ec857610e8e90338352600360205260408320546120ce565b338252600360205260408220555b3381526003602052610eb2336040832054611ce8565b5033815260036020526109e66040822054611ee1565b33825260036020526040822055610e9c565b81610ee491611371565b6107f457815f610e64565b81610ef991611371565b610f0457845f610e02565b8480fd5b6040513d88823e3d90fd5b50346101be5760203660031901126101be57600435906001600160a01b03821682036101be57602061044083611840565b50346106fe57610f53366112da565b610f6460025f949394541415611415565b60025f55335f526006602052600160405f20015461110e57610f8b926104929136916117e0565b610f9481611ee1565b50600154604051633128c32760e21b815233600482015290602090829060249082905f906001600160a01b03165af190811561109a575f916110dc575b5080156110a557610fe86104c58361101593611f00565b9160405190610ff682611342565b8152826020820152426040820152335f52600660205260405f20611825565b6001546001600160a01b0316803b156106fe575f8091602460405180948193637441b8bb60e01b83523360048401525af1801561109a57611085575b506040519081527f5b271645d8d933282d1e0f70e93e78baa4d009bf41345f81f448622dd165a77860203392a26001815580f35b6110929192505f90611371565b5f905f611051565b6040513d5f823e3d90fd5b60405162461bcd60e51b815260206004820152600f60248201526e4e6f20634554482062616c616e636560881b6044820152606490fd5b90506020813d602011611106575b816110f760209383611371565b810103126106fe57515f610fd1565b3d91506110ea565b60405162461bcd60e51b81526020600482015260156024820152745374616b6520616c72656164792070656e64696e6760581b6044820152606490fd5b346106fe5761115c6103693661128a565b005b346106fe575f3660031901126106fe57335f5260046020525f60206111d761118860408420611394565b6111968382015115156113bc565b6111ac815160018060a01b036001541690611ce8565b5060018060a01b036001541690516040519485809481936303301bff60e01b835230600484016113fa565b03925af1801561109a575f906106d357602090604051908152f35b346106fe5760203660031901126106fe576004356001600160a01b038116908190036106fe575f526003602052602060405f2054604051908152f35b346106fe5760203660031901126106fe576004356001600160a01b03811681036106fe57610440602091611309565b9181601f840112156106fe578235916001600160401b0383116106fe57602083818601950101116106fe57565b60406003198201126106fe576004356001600160401b0381116106fe57816112b49160040161125d565b90929091602435906001600160401b0382116106fe576112d69160040161125d565b9091565b9060406003198301126106fe5760043591602435906001600160401b0382116106fe576112d69160040161125d565b6001600160a01b03165f81815260026020526040902054611333575f52600360205260405f205490565b5f52600260205260405f205490565b606081019081106001600160401b0382111761135d57604052565b634e487b7160e01b5f52604160045260245ffd5b601f909101601f19168101906001600160401b0382119082101761135d57604052565b906040516113a181611342565b60406002829480548452600181015460208501520154910152565b156113c357565b60405162461bcd60e51b815260206004820152600f60248201526e4e6f7468696e672070656e64696e6760881b6044820152606490fd5b6001600160a01b039091168152602081019190915260400190565b1561141c57565b60405162461bcd60e51b815260206004820152601f60248201527f5265656e7472616e637947756172643a207265656e7472616e742063616c6c006044820152606490fd5b610c276114eb919492945f9561147b60025f541415611415565b60025f55335f526005602052610c1f60405f206040519661149b88611342565b815488526114bf6001830154600260208b0194828652015460408b015215156113bc565b610c196040998a51936114d28c86611371565b60018552601f198c0136602087013751610c0585611ab6565b51335f5260056020525f60028382208281558260018201550155335f526008602052815f2060ff19815416905560018060a01b037f00000000000000000000000000000000000000000000000000000000000000001682516323b872dd60e01b81523360048201523060248201528260448201526020816064815f865af19081156117d6575f916117b7575b501561177b57825163095ea7b360e01b81527f00000000000000000000000000000000000000000000000000000000000000006001600160a01b03166004820181905260248201849052906020816044815f875af180156117545761175e575b50803b156106fe578351630402806960e51b81527f00000000000000000000000000000000000000000000000000000000000000006001600160a01b03166004820152602481018490523360448201525f8160648183865af1801561175457611738575b50849160446020928651948593849263095ea7b360e01b845260048401528160248401525af1801561172b576116926116d5938695936116a393600198506116fe575b50633b9aca00878060401b039104166123d3565b3385526002602052828520546122c0565b33845260026020528184205533835260026020526116c43382852054611ce8565b503383526002602052822054611ee1565b50337f79cdf940bc94110667cedeee100584fb615580eb56790c48cf17b21ebef0f1838280a255565b61171f9060203d602011611724575b6117178183611371565b810190611d0f565b61167e565b503d61170d565b50505051903d90823e3d90fd5b604495509161174a5f60209394611371565b5f9550919061163b565b85513d5f823e3d90fd5b6117769060203d602011611724576117178183611371565b6115d7565b825162461bcd60e51b81526020600482015260156024820152741855d15512081d1c985b9cd9995c8819985a5b1959605a1b6044820152606490fd5b6117d0915060203d602011611724576117178183611371565b5f611577565b84513d5f823e3d90fd5b9192916001600160401b03821161135d5760405191611809601f8201601f191660200184611371565b8294818452818301116106fe578281602093845f960137010152565b90604060029180518455602081015160018501550151910155565b6001600160a01b03165f8181526005602052604090819020905161186381611342565b815481526040600260018401549384602085015201549101528061189457505f526004602052600160405f20015490565b905090565b6118a760025f541415611415565b60025f558015611a1057335f5260086020526118ca60ff60405f20541615611b39565b633b9aca0081066119cf57335f52600260205260405f205480156119925761190e906104c590611908633b9aca0085046001600160401b03166123d3565b90611f00565b906040519061191c82611342565b81526002602082018381526040830190428252335f52600560205260405f209351845551600184015551910155335f52600860205260405f20600160ff198254161790556040519081527faa675e35bc1c202d048689a75fc83de0fa4f047532287d1283809f69069ce4a860203392a260015f55565b60405162461bcd60e51b8152602060048201526015602482015274139bc81c1d589b1a58c81cdd185ad948199bdd5b99605a1b6044820152606490fd5b60405162461bcd60e51b8152602060048201526019602482015278416d6f756e74206d7573742062652077686f6c65204777656960381b6044820152606490fd5b60405162461bcd60e51b81526020600482015260126024820152710416d6f756e74206d757374206265203e20360741b6044820152606490fd5b908060209392818452848401375f828201840152601f01601f1916010190565b95939192611aa593611ab398969260018060a01b0316885260018060a01b03166020880152604087015260a0606087015260a0860191611a4a565b926080818503910152611a4a565b90565b805115611ac35760200190565b634e487b7160e01b5f52603260045260245ffd5b908160209103126106fe573580151581036106fe5790565b15611af657565b60405162461bcd60e51b815260206004820152601b60248201527a496e73756666696369656e74207374616b65642062616c616e636560281b6044820152606490fd5b15611b4057565b60405162461bcd60e51b8152602060048201526017602482015276556e7374616b6520616c72656164792070656e64696e6760481b6044820152606490fd5b15611b8657565b60405162461bcd60e51b8152602060048201526013602482015272151a5b595bdd5d081b9bdd08195b185c1cd959606a1b6044820152606490fd5b335f526004602052611bd560405f20611394565b6020810151611c8b5750335f52600560205260405f20611c1d60405191611bfb83611342565b80548352604060026001830154928360208701520154930192835215156113bc565b51610e108101809111611c7757611c35904211611b7f565b335f5260056020525f6002604082208281558260018201550155335f52600860205260405f2060ff198154169055335f5160206124715f395f51905f525f80a2565b634e487b7160e01b5f52601160045260245ffd5b60400151610e108101809111611c7757611ca6904211611b7f565b335f5260046020525f6002604082208281558260018201550155335f52600760205260405f2060ff198154169055335f5160206124715f395f51905f525f80a2565b908115611cfa575b611ab39082612373565b9050611ab3611d07612422565b919050611cf0565b908160209103126106fe575180151581036106fe5790565b9081526001600160a01b03909116602082015260400190565b815190919015611e46575f5160206124915f395f51905f525460405163045fc19560e11b815260048101939093523360248401526080604484015260209183916001600160a01b03169082905f908290611d9e906084830190612185565b6005606483015203925af190811561109a575f91611e14575b505f5160206124b15f395f51905f52546001600160a01b0316803b156106fe575f6040518092630f8e573b60e21b8252818381611df8338960048401611d27565b03925af1801561109a57611e0a575090565b5f611ab391611371565b90506020813d602011611e3e575b81611e2f60209383611371565b810103126106fe57515f611db7565b3d9150611e22565b508015611ed8575f5160206124b15f395f51905f52546040516382027b6d60e01b81529060209082906001600160a01b03168180611e88338860048401611d27565b03915afa90811561109a575f91611eb9575b5015611ea35790565b630276b5d960e01b5f526004523360245260445ffd5b611ed2915060203d602011611724576117178183611371565b5f611e9a565b50611ab3612422565b8015611ef2575b611ab33082612373565b50611efb612422565b611ee8565b908115611fa3575b8015611f91575b602090606460018060a01b035f5160206124915f395f51905f525416935f6040519586948593631391547f60e01b8552600485015260248401528160448401525af190811561109a575f91611f62575090565b90506020813d602011611f89575b81611f7d60209383611371565b810103126106fe575190565b3d9150611f70565b506020611f9c612422565b9050611f0f565b9050611fad612422565b90611f08565b801561204b575b6040805190611fc98183611371565b60018252601f19810136602084013782611fe283611ab6565b525f5160206124b15f395f51905f52546001600160a01b0316803b156106fe578151637d6e912360e11b815260206004820152925f91849182908490829061202e906024830190612152565b03925af19081156120425750611e0a575090565b513d5f823e3d90fd5b505f5160206124915f395f51905f5254604051639cd07acb60e01b81525f6004820152906001600160a01b0316816044815f6020948160248401525af190811561109a575f9161209c575b50611fba565b90506020813d6020116120c6575b816120b760209383611371565b810103126106fe57515f612096565b3d91506120aa565b908115612142575b8015612130575b602090606460018060a01b035f5160206124915f395f51905f525416935f604051958694859363022f65e760e31b8552600485015260248401528160448401525af190811561109a575f91611f62575090565b50602061213b612422565b90506120dd565b905061214c612422565b906120d6565b90602080835192838152019201905f5b81811061216f5750505090565b8251845260209384019390920191600101612162565b805180835260209291819084018484015e5f828201840152601f01601f1916010190565b91602061222a5f9260018060a01b037f9e7b61f58c47dc699ac88507c4f5bb9f121c03808c5676a8078fe583e46497025416906040519485809481936378542ead60e01b835260606004840152612218612206606485018d612152565b8481036003190160248601528b612185565b83810360031901604485015290612185565b03925af190811561109a575f916122a1575b5015612292577fc6366bab028b8d033cb362cfd1f2f3457ef4e92fc738b6788b90d5a7846367a09161228d61227f92604051938493604085526040850190612152565b908382036020850152612185565b0390a1565b63cf6c44e960e01b5f5260045ffd5b6122ba915060203d602011611724576117178183611371565b5f61223c565b908115612334575b8015612322575b602090606460018060a01b035f5160206124915f395f51905f525416935f60405195869485936303056db360e31b8552600485015260248401528160448401525af190811561109a575f91611f62575090565b50602061232d612422565b90506122cf565b905061233e612422565b906122c8565b4660010361235157600190565b4662aa36a7036123615761271190565b617a69461461236e575f90565b5f1990565b5f5160206124b15f395f51905f52546001600160a01b031691823b156106fe576123b6925f9283604051809681958294635ca4b5b160e11b845260048401611d27565b03925af1801561109a576123c75750565b5f6123d191611371565b565b5f5160206124915f395f51905f5254604051639cd07acb60e01b815260048101929092526001600160a01b0316816044815f602094600560248401525af190811561109a575f91611f62575090565b5f5160206124915f395f51905f5254604051639cd07acb60e01b81525f6004820152906001600160a01b0316816044815f602094600560248401525af190811561109a575f91611f6257509056fe22cc830dad867e19cb47be932a438444a58da9fdc49c3f00d13fb9f0432b4e169e7b61f58c47dc699ac88507c4f5bb9f121c03808c5676a8078fe583e46497019e7b61f58c47dc699ac88507c4f5bb9f121c03808c5676a8078fe583e4649700a164736f6c634300081b000a",
  "linkReferences": {},
  "deployedLinkReferences": {}
}