{
  "_format": "hh-sol-artifact-1",
  "contractName": "TrialManager",
  "sourceName": "contracts/TrialManager.sol",
  "abi": [
    {
      "inputs": [
        {
          "internalType": "address",
          "name": "_sponsorRegistry",
          "type": "address"
        },
        {
          "internalType": "bool",
          "name": "_isTestnet",
          "type": "bool"
        }
      ],
      "stateMutability": "nonpayable",
      "type": "constructor"
    },
    {
      "inputs": [],
      "name": "DurationTooLong",
      "type": "error"
    },
    {
      "inputs": [],
      "name": "EncryptedCriteriaNotSet",
      "type": "error"
    },
    {
      "inputs": [],
      "name": "InvalidRegistryContract",
      "type": "error"
    },
    {
      "inputs": [
        {
          "internalType": "bytes32",
          "name": "handle",
          "type": "bytes32"
        },
        {
          "internalType": "address",
          "name": "sender",
          "type": "address"
        }
      ],
      "name": "SenderNotAllowedToUseHandle",
      "type": "error"
    },
    {
      "inputs": [],
      "name": "SponsorNotVerified",
      "type": "error"
    },
    {
      "inputs": [],
      "name": "TrialDoesNotExist",
      "type": "error"
    },
    {
      "inputs": [],
      "name": "ZamaProtocolUnsupported",
      "type": "error"
    },
    {
      "anonymous": false,
      "inputs": [
        {
          "indexed": true,
          "internalType": "uint256",
          "name": "trialId",
          "type": "uint256"
        },
        {
          "indexed": false,
          "internalType": "bytes",
          "name": "reason",
          "type": "bytes"
        }
      ],
      "name": "AutomationHookFailed",
      "type": "event"
    },
    {
      "anonymous": false,
      "inputs": [
        {
          "indexed": true,
          "internalType": "address",
          "name": "newOwner",
          "type": "address"
        }
      ],
      "name": "OwnershipAccepted",
      "type": "event"
    },
    {
      "anonymous": false,
      "inputs": [
        {
          "indexed": true,
          "internalType": "address",
          "name": "proposedOwner",
          "type": "address"
        }
      ],
      "name": "OwnershipProposed",
      "type": "event"
    },
    {
      "anonymous": false,
      "inputs": [
        {
          "indexed": true,
          "internalType": "address",
          "name": "sponsor",
          "type": "address"
        },
        {
          "indexed": false,
          "internalType": "string",
          "name": "name",
          "type": "string"
        }
      ],
      "name": "SponsorNameUpdated",
      "type": "event"
    },
    {
      "anonymous": false,
      "inputs": [
        {
          "indexed": true,
          "internalType": "address",
          "name": "newRegistry",
          "type": "address"
        }
      ],
      "name": "SponsorRegistryUpdated",
      "type": "event"
    },
    {
      "anonymous": false,
      "inputs": [
        {
          "indexed": true,
          "internalType": "uint256",
          "name": "trialId",
          "type": "uint256"
        },
        {
          "indexed": true,
          "internalType": "address",
          "name": "sponsor",
          "type": "address"
        },
        {
          "indexed": false,
          "internalType": "string",
          "name": "name",
          "type": "string"
        },
        {
          "indexed": false,
          "internalType": "uint256",
          "name": "endTime",
          "type": "uint256"
        },
        {
          "indexed": false,
          "internalType": "bool",
          "name": "encryptedCriteria",
          "type": "bool"
        }
      ],
      "name": "TrialCreated",
      "type": "event"
    },
    {
      "anonymous": false,
      "inputs": [
        {
          "indexed": true,
          "internalType": "uint256",
          "name": "trialId",
          "type": "uint256"
        }
      ],
      "name": "TrialDeactivated",
      "type": "event"
    },
    {
      "inputs": [],
      "name": "CRITERIA_SCHEMA_V2",
      "outputs": [
        {
          "internalType": "bytes32",
          "name": "",
          "type": "bytes32"
        }
      ],
      "stateMutability": "view",
      "type": "function"
    },
    {
      "inputs": [],
      "name": "MAX_STRING_LENGTH",
      "outputs": [
        {
          "internalType": "uint256",
          "name": "",
          "type": "uint256"
        }
      ],
      "stateMutability": "view",
      "type": "function"
    },
    {
      "inputs": [],
      "name": "MAX_TRIAL_DURATION",
      "outputs": [
        {
          "internalType": "uint256",
          "name": "",
          "type": "uint256"
        }
      ],
      "stateMutability": "view",
      "type": "function"
    },
    {
      "inputs": [],
      "name": "acceptOwnership",
      "outputs": [],
      "stateMutability": "nonpayable",
      "type": "function"
    },
    {
      "inputs": [],
      "name": "automationContract",
      "outputs": [
        {
          "internalType": "address",
          "name": "",
          "type": "address"
        }
      ],
      "stateMutability": "view",
      "type": "function"
    },
    {
      "inputs": [],
      "name": "confidentialProtocolId",
      "outputs": [
        {
          "internalType": "uint256",
          "name": "",
          "type": "uint256"
        }
      ],
      "stateMutability": "view",
      "type": "function"
    },
    {
      "inputs": [
        {
          "internalType": "string",
          "name": "_name",
          "type": "string"
        },
        {
          "internalType": "string",
          "name": "_phase",
          "type": "string"
        },
        {
          "internalType": "string",
          "name": "_location",
          "type": "string"
        },
        {
          "internalType": "string",
          "name": "_compensation",
          "type": "string"
        },
        {
          "internalType": "uint8",
          "name": "_minAge",
          "type": "uint8"
        },
        {
          "internalType": "uint8",
          "name": "_maxAge",
          "type": "uint8"
        },
        {
          "internalType": "bool",
          "name": "_requiresDiabetes",
          "type": "bool"
        },
        {
          "internalType": "uint16",
          "name": "_minHb",
          "type": "uint16"
        },
        {
          "internalType": "uint8",
          "name": "_genderReq",
          "type": "uint8"
        },
        {
          "internalType": "uint8",
          "name": "_minHeight",
          "type": "uint8"
        },
        {
          "internalType": "uint16",
          "name": "_maxWeight",
          "type": "uint16"
        },
        {
          "internalType": "bool",
          "name": "_requiresNonSmoker",
          "type": "bool"
        },
        {
          "internalType": "bool",
          "name": "_requiresNormalBP",
          "type": "bool"
        },
        {
          "internalType": "uint256",
          "name": "_duration",
          "type": "uint256"
        }
      ],
      "name": "createTrial",
      "outputs": [
        {
          "internalType": "uint256",
          "name": "",
          "type": "uint256"
        }
      ],
      "stateMutability": "nonpayable",
      "type": "function"
    },
    {
      "inputs": [
        {
          "internalType": "string",
          "name": "_name",
          "type": "string"
        },
        {
          "internalType": "string",
          "name": "_phase",
          "type": "string"
        },
        {
          "internalType": "string",
          "name": "_location",
          "type": "string"
        },
        {
          "internalType": "string",
          "name": "_compensation",
          "type": "string"
        },
        {
          "internalType": "externalEuint8",
          "name": "_minAge",
          "type": "bytes32"
        },
        {
          "internalType": "externalEuint8",
          "name": "_maxAge",
          "type": "bytes32"
        },
        {
          "internalType": "externalEbool",
          "name": "_requiresDiabetes",
          "type": "bytes32"
        },
        {
          "internalType": "externalEuint16",
          "name": "_minHb",
          "type": "bytes32"
        },
        {
          "internalType": "externalEuint8",
          "name": "_genderRequirement",
          "type": "bytes32"
        },
        {
          "internalType": "externalEuint8",
          "name": "_minHeight",
          "type": "bytes32"
        },
        {
          "internalType": "externalEuint16",
          "name": "_maxWeight",
          "type": "bytes32"
        },
        {
          "internalType": "externalEbool",
          "name": "_requiresNonSmoker",
          "type": "bytes32"
        },
        {
          "internalType": "externalEbool",
          "name": "_requiresNormalBP",
          "type": "bytes32"
        },
        {
          "internalType": "bytes",
          "name": "inputProof",
          "type": "bytes"
        },
        {
          "internalType": "uint256",
          "name": "_duration",
          "type": "uint256"
        }
      ],
      "name": "createTrialWithEncryptedCriteria",
      "outputs": [
        {
          "internalType": "uint256",
          "name": "",
          "type": "uint256"
        }
      ],
      "stateMutability": "nonpayable",
      "type": "function"
    },
    {
      "inputs": [
        {
          "internalType": "uint256",
          "name": "_trialId",
          "type": "uint256"
        }
      ],
      "name": "deactivateTrial",
      "outputs": [],
      "stateMutability": "nonpayable",
      "type": "function"
    },
    {
      "inputs": [],
      "name": "eligibilityEngine",
      "outputs": [
        {
          "internalType": "address",
          "name": "",
          "type": "address"
        }
      ],
      "stateMutability": "view",
      "type": "function"
    },
    {
      "inputs": [
        {
          "internalType": "uint256",
          "name": "_trialId",
          "type": "uint256"
        }
      ],
      "name": "getEncryptedCriteria",
      "outputs": [
        {
          "components": [
            {
              "internalType": "euint8",
              "name": "minAge",
              "type": "bytes32"
            },
            {
              "internalType": "euint8",
              "name": "maxAge",
              "type": "bytes32"
            },
            {
              "internalType": "ebool",
              "name": "requiresDiabetes",
              "type": "bytes32"
            },
            {
              "internalType": "euint16",
              "name": "minHb",
              "type": "bytes32"
            },
            {
              "internalType": "euint8",
              "name": "genderRequirement",
              "type": "bytes32"
            },
            {
              "internalType": "euint8",
              "name": "minHeight",
              "type": "bytes32"
            },
            {
              "internalType": "euint16",
              "name": "maxWeight",
              "type": "bytes32"
            },
            {
              "internalType": "ebool",
              "name": "requiresNonSmoker",
              "type": "bytes32"
            },
            {
              "internalType": "ebool",
              "name": "requiresNormalBP",
              "type": "bytes32"
            }
          ],
          "internalType": "struct TrialManager.EncryptedCriteria",
          "name": "",
          "type": "tuple"
        }
      ],
      "stateMutability": "view",
      "type": "function"
    },
    {
      "inputs": [
        {
          "internalType": "uint256",
          "name": "_trialId",
          "type": "uint256"
        }
      ],
      "name": "getTrial",
      "outputs": [
        {
          "components": [
            {
              "internalType": "string",
              "name": "name",
              "type": "string"
            },
            {
              "internalType": "string",
              "name": "phase",
              "type": "string"
            },
            {
              "internalType": "string",
              "name": "location",
              "type": "string"
            },
            {
              "internalType": "string",
              "name": "compensation",
              "type": "string"
            },
            {
              "internalType": "address",
              "name": "sponsor",
              "type": "address"
            },
            {
              "internalType": "bool",
              "name": "active",
              "type": "bool"
            },
            {
              "internalType": "uint8",
              "name": "minAge",
              "type": "uint8"
            },
            {
              "internalType": "uint8",
              "name": "maxAge",
              "type": "uint8"
            },
            {
              "internalType": "bool",
              "name": "requiresDiabetes",
              "type": "bool"
            },
            {
              "internalType": "uint16",
              "name": "minHb",
              "type": "uint16"
            },
            {
              "internalType": "uint8",
              "name": "genderRequirement",
              "type": "uint8"
            },
            {
              "internalType": "uint8",
              "name": "minHeight",
              "type": "uint8"
            },
            {
              "internalType": "uint16",
              "name": "maxWeight",
              "type": "uint16"
            },
            {
              "internalType": "bool",
              "name": "requiresNonSmoker",
              "type": "bool"
            },
            {
              "internalType": "bool",
              "name": "requiresNormalBP",
              "type": "bool"
            },
            {
              "internalType": "uint256",
              "name": "endTime",
              "type": "uint256"
            },
            {
              "internalType": "bool",
              "name": "encryptedCriteria",
              "type": "bool"
            }
          ],
          "internalType": "struct TrialManager.Trial",
          "name": "",
          "type": "tuple"
        }
      ],
      "stateMutability": "view",
      "type": "function"
    },
    {
      "inputs": [],
      "name": "isTestnet",
      "outputs": [
        {
          "internalType": "bool",
          "name": "",
          "type": "bool"
        }
      ],
      "stateMutability": "view",
      "type": "function"
    },
    {
      "inputs": [
        {
          "internalType": "uint256",
          "name": "_trialId",
          "type": "uint256"
        }
      ],
      "name": "isTrialSponsorVerified",
      "outputs": [
        {
          "internalType": "bool",
          "name": "",
          "type": "bool"
        }
      ],
      "stateMutability": "view",
      "type": "function"
    },
    {
      "inputs": [],
      "name": "owner",
      "outputs": [
        {
          "internalType": "address",
          "name": "",
          "type": "address"
        }
      ],
      "stateMutability": "view",
      "type": "function"
    },
    {
      "inputs": [],
      "name": "pendingOwner",
      "outputs": [
        {
          "internalType": "address",
          "name": "",
          "type": "address"
        }
      ],
      "stateMutability": "view",
      "type": "function"
    },
    {
      "inputs": [
        {
          "internalType": "address",
          "name": "_newOwner",
          "type": "address"
        }
      ],
      "name": "proposeOwnership",
      "outputs": [],
      "stateMutability": "nonpayable",
      "type": "function"
    },
    {
      "inputs": [
        {
          "internalType": "address",
          "name": "_automation",
          "type": "address"
        }
      ],
      "name": "setAutomationContract",
      "outputs": [],
      "stateMutability": "nonpayable",
      "type": "function"
    },
    {
      "inputs": [
        {
          "internalType": "address",
          "name": "_engine",
          "type": "address"
        }
      ],
      "name": "setEligibilityEngine",
      "outputs": [],
      "stateMutability": "nonpayable",
      "type": "function"
    },
    {
      "inputs": [
        {
          "internalType": "string",
          "name": "_name",
          "type": "string"
        }
      ],
      "name": "setSponsorName",
      "outputs": [],
      "stateMutability": "nonpayable",
      "type": "function"
    },
    {
      "inputs": [
        {
          "internalType": "address",
          "name": "_registry",
          "type": "address"
        }
      ],
      "name": "setSponsorRegistry",
      "outputs": [],
      "stateMutability": "nonpayable",
      "type": "function"
    },
    {
      "inputs": [
        {
          "internalType": "address",
          "name": "",
          "type": "address"
        }
      ],
      "name": "sponsorNames",
      "outputs": [
        {
          "internalType": "string",
          "name": "",
          "type": "string"
        }
      ],
      "stateMutability": "view",
      "type": "function"
    },
    {
      "inputs": [],
      "name": "sponsorRegistry",
      "outputs": [
        {
          "internalType": "address",
          "name": "",
          "type": "address"
        }
      ],
      "stateMutability": "view",
      "type": "function"
    },
    {
      "inputs": [],
      "name": "trialCounter",
      "outputs": [
        {
          "internalType": "uint256",
          "name": "",
          "type": "uint256"
        }
      ],
      "stateMutability": "view",
      "type": "function"
    },
    {
      "inputs": [
        {
          "internalType": "uint256",
          "name": "",
          "type": "uint256"
        }
      ],
      "name": "trials",
      "outputs": [
        {
          "internalType": "string",
          "name": "name",
          "type": "string"
        },
        {
          "internalType": "string",
          "name": "phase",
          "type": "string"
        },
        {
          "internalType": "string",
          "name": "location",
          "type": "string"
        },
        {
          "internalType": "string",
          "name": "compensation",
          "type": "string"
        },
        {
          "internalType": "address",
          "name": "sponsor",
          "type": "address"
        },
        {
          "internalType": "bool",
          "name": "active",
          "type": "bool"
        },
        {
          "internalType": "uint8",
          "name": "minAge",
          "type": "uint8"
        },
        {
          "internalType": "uint8",
          "name": "maxAge",
          "type": "uint8"
        },
        {
          "internalType": "bool",
          "name": "requiresDiabetes",
          "type": "bool"
        },
        {
          "internalType": "uint16",
          "name": "minHb",
          "type": "uint16"
        },
        {
          "internalType": "uint8",
          "name": "genderRequirement",
          "type": "uint8"
        },
        {
          "internalType": "uint8",
          "name": "minHeight",
          "type": "uint8"
        },
        {
          "internalType": "uint16",
          "name": "maxWeight",
          "type": "uint16"
        },
        {
          "internalType": "bool",
          "name": "requiresNonSmoker",
          "type": "bool"
        },
        {
          "internalType": "bool",
          "name": "requiresNormalBP",
          "type": "bool"
        },
        {
          "internalType": "uint256",
          "name": "endTime",
          "type": "uint256"
        },
        {
          "internalType": "bool",
          "name": "encryptedCriteria",
          "type": "bool"
        }
      ],
      "stateMutability": "view",
      "type": "function"
    }
  ],
  "bytecode": "0x60a080604052346103b0576040816134fc803803809161001f82856103cf565b8339810103126103b05780516001600160a01b038116918282036103b0576020015180151581036103b0576100526103f2565b50466001036102c4576100636103f2565b50604051610070816103b4565b73ca2e8f1f656cd25c01f05d0b243ab1ecd4a8ffb6815273d82385dada1ae3e969447f20a3164f6213100e7560208201527377627828a55156b04ac0dc0eb30467f1a552bb0360408201525b80517f9e7b61f58c47dc699ac88507c4f5bb9f121c03808c5676a8078fe583e464970080546001600160a01b03199081166001600160a01b039384161790915560208301517f9e7b61f58c47dc699ac88507c4f5bb9f121c03808c5676a8078fe583e4649701805483169184169190911790556040909201517f9e7b61f58c47dc699ac88507c4f5bb9f121c03808c5676a8078fe583e46497028054909316911617905560016003556080528115610290575f8091604051602081019063353224d760e11b8252836024820152602481526101986044826103cf565b51915afa3d15610288573d906001600160401b03821161027457604051916101ca601f8201601f1916602001846103cf565b82523d5f602084013e5b15908115610267575b5061025857600580546001600160a01b03191682179055604051907fcf510e9fe5c9585bfe354aa0373c8fb628bc210ad55e63bbb8088827b9b1dd295f80a2600680546001600160a01b031916331790556130eb908161041182396080518181816105730152818161088d015281816128620152612d8e0152f35b63ced2d3b560e01b5f5260045ffd5b602091505114155f6101dd565b634e487b7160e01b5f52604160045260245ffd5b6060906101d4565b60405162461bcd60e51b815260206004820152600c60248201526b5a65726f206164647265737360a01b6044820152606490fd5b4662aa36a703610333576102d66103f2565b506040516102e3816103b4565b73f0ffdc93b7e186bc2f8cb3daa75d86d1930a433d81527392c920834ec8941d2c77d188936e1f7a6f49c127602082015273be0e383937d564d7ff0bc3b46c51f0bf8d5c311a60408201526100bc565b46617a69036103a1576103446103f2565b50604051610351816103b4565b7350157cffd6bbfa2dece204a89ec419c23ef5755d815273e3a9105a3a932253a70f126eb1e3b589c643dd24602082015273901f8942346f7ab3a01f6d7613119bca447bb03060408201526100bc565b6373cac13b60e01b5f5260045ffd5b5f80fd5b606081019081106001600160401b0382111761027457604052565b601f909101601f19168101906001600160401b0382119082101761027457604052565b604051906103ff826103b4565b5f604083828152826020820152015256fe610160806040526004361015610013575f80fd5b5f3560e01c9081630689d5ed1461247e57508063186b1bac14611ac65780631a7f3c331461180f5780632f30a14c146117d557806334ccc5ea146117b95780633cdb7bf714610d345780633ef3e1ee14610c605780634425260e14610c425780634f11c69014610c1a57806361c501ec14610a7557806362909f0a14610a19578063710bf3221461099b57806379ba5097146108fc5780638927b030146108da5780638da5cb5b146108b257806392108c8614610876578063a832721a1461084e578063b6bdbf78146107f2578063c1126249146107d5578063c839b35e14610532578063cb133cd2146104de578063cf36002d1461038b578063dbf011c314610363578063dd1f54161461015c5763e30c397814610130575f80fd5b34610158575f366003190112610158576007546040516001600160a01b039091168152602090f35b5f80fd5b3461015857602036600319011261015857600435805f525f602052600560405f2001541561035457805f525f60205260ff600460405f20015460a01c161561031c57805f525f60205260018060a01b03600460405f2001541633148015610308575b156102b157805f525f60205260018060a01b03600460405f2001541633146102a3575b5f8181526020819052604090206004908101805460ff60a01b191690555481906001600160a01b031680610237575b507f265bfcb9efd040d32949da8f32fed7724df27b042f3aabb08c52b981e10f0ccd5f80a2005b5f8091604051826020820191637919674960e11b835286602482015260248152610262604482612562565b51925af161026e612819565b90610210576102995f51602061309f5f395f51905f52916040519182916020835260208301906124ce565b0390a28082610210565b6102ac33612d8c565b6101e1565b60405162461bcd60e51b815260206004820152602960248201527f4f6e6c792073706f6e736f72206f72206175746f6d6174696f6e2063616e206460448201526865616374697661746560b81b6064820152608490fd5b506004546001600160a01b031633146101be565b60405162461bcd60e51b815260206004820152601060248201526f416c726561647920696e61637469766560801b6044820152606490fd5b63abb34bc760e01b5f5260045ffd5b34610158575f366003190112610158576005546040516001600160a01b039091168152602090f35b34610158576020366003190112610158576004355f525f60205261040e60405f206103b581612585565b906103c260018201612585565b6103ce60028301612585565b916104386103de60038301612585565b61042a60048401549561041c60ff6006600588015497015416966040519a8b9a6102208c526102208c01906124ce565b908a820360208c01526124ce565b9088820360408a01526124ce565b9086820360608801526124ce565b9260018060a01b038116608086015260ff8160a01c16151560a086015260ff8160a81c1660c086015260ff8160b01c1660e086015260ff8160b81c16151561010086015261ffff8160c01c1661012086015260ff8160d01c1661014086015260ff8160d81c1661016086015261ffff8160e01c1661018086015260ff8160f01c1615156101a086015260f81c15156101c08501526101e084015215156102008301520390f35b34610158576020366003190112610158576004356001600160a01b03811690819003610158575f52600260205261052e61051a60405f20612585565b6040519182916020835260208301906124ce565b0390f35b34610158576020366003190112610158576004356001600160401b038111610158576105629036906004016124a1565b8015610799576101008111610764577f0000000000000000000000000000000000000000000000000000000000000000156106af575b335f908152600260205260409020916001600160401b03821161069b576105c9826105c385546124f2565b8561292e565b5f92601f83116001146106265790610616916105fd84805f51602061305f5f395f51905f5296975f9161061b575b5061297d565b90555b6040519182916020835233956020840191612676565b0390a2005b9050840135886105f7565b601f198316815f5260205f20905f5b81811061068357509084955f51602061305f5f395f51905f52956106169594931061066a575b5050600185811b019055610600565b8301355f19600388901b60f8161c19169055858061065b565b84870135835560209687019660019093019201610635565b634e487b7160e01b5f52604160045260245ffd5b5f8060018060a01b0360055416604051602081019063353224d760e11b8252336024820152602481526106e3604482612562565b51915afa6106ef612819565b81610758575b8161073e575b506105985760405162461bcd60e51b81526020600482015260166024820152752737ba1030903b32b934b334b2b21039b837b739b7b960511b6044820152606490fd5b610752915060208082518301019101612848565b836106fb565b805160201491506106f5565b60405162461bcd60e51b815260206004820152600d60248201526c4e616d6520746f6f206c6f6e6760981b6044820152606490fd5b60405162461bcd60e51b81526020600482015260146024820152734e616d652063616e6e6f7420626520656d70747960601b6044820152606490fd5b34610158575f366003190112610158576020600354604051908152f35b34610158576020366003190112610158576004356001600160a01b038116908190036101585761082d60018060a01b036006541633146127a5565b6108388115156127de565b600880546001600160a01b031916919091179055005b3461015857602036600319011261015857602061086c600435612860565b6040519015158152f35b34610158575f3660031901126101585760206040517f000000000000000000000000000000000000000000000000000000000000000015158152f35b34610158575f366003190112610158576006546040516001600160a01b039091168152602090f35b34610158575f3660031901126101585760206108f4612d5d565b604051908152f35b34610158575f366003190112610158576007546001600160a01b038116903382900361096157600680546001600160a01b03199081168417909155166007557fb27970c1714b28277b78cc17ac2fe9556e7f048cd48358cffe3dc7d547608fdc5f80a2005b60405162461bcd60e51b81526020600482015260126024820152712737ba10383937b837b9b2b21037bbb732b960711b6044820152606490fd5b34610158576020366003190112610158576004356001600160a01b03811690819003610158576109d660018060a01b036006541633146127a5565b6109e18115156127de565b600780546001600160a01b031916821790557f6ab4d119f23076e8ad491bc65ce85f017fb0591dce08755ba8591059cc51737a5f80a2005b34610158576020366003190112610158576004356001600160a01b0381169081900361015857610a5460018060a01b036006541633146127a5565b610a5f8115156127de565b600480546001600160a01b031916919091179055005b34610158576020366003190112610158576004355f610100604051610a998161252a565b8281528260208201528260408201528260608201528260808201528260a08201528260c08201528260e08201520152805f525f60205260ff600660405f2001541615610c0b57805f525f60205260018060a01b03600460405f2001541633148015610bf7575b15610bc1575f52600160205261012060405f20604051610b1e8161252a565b8154918282526001810154602083019081526002820154604084019081526003830154606085019081526004840154906080860191825260058501549260a0870193845260068601549460c08801958652610100600860078901549860e08b01998a52015498019788526040519889525160208901525160408801525160608701525160808601525160a08501525160c08401525160e083015251610100820152f35b60405162461bcd60e51b815260206004820152600e60248201526d139bdd08185d5d1a1bdc9a5e995960921b6044820152606490fd5b506008546001600160a01b03163314610aff565b632b7de1ff60e11b5f5260045ffd5b34610158575f366003190112610158576008546040516001600160a01b039091168152602090f35b34610158575f36600319011261015857602060405163096601808152f35b34610158576020366003190112610158576004356001600160a01b03811690818103610158575f8091610c9e60018060a01b036006541633146127a5565b604051602081019063353224d760e11b825283602482015260248152610cc5604482612562565b51915afa610cd1612819565b9015908115610d27575b50610d1857600580546001600160a01b031916821790557fcf510e9fe5c9585bfe354aa0373c8fb628bc210ad55e63bbb8088827b9b1dd295f80a2005b63ced2d3b560e01b5f5260045ffd5b6020915051141582610cdb565b34610158576101c0366003190112610158576004356001600160401b03811161015857610d659036906004016124a1565b60a052610100526024356001600160401b03811161015857610d8b9036906004016124a1565b906044356001600160401b03811161015857610dab9036906004016124a1565b90929091906064356001600160401b03811161015857610dcf9036906004016124a1565b60843561014081905290929060ff811690036101585760a43560ff811681036101585760c4359081151582036101585760e4359261ffff8416840361015857610104359460ff8616860361015857610124359660ff8816880361015857610144359861ffff8a168a0361015857610164359b8c15158d0361015857610184359b8c15158d036101585760ff871660ff610140511610156117805760a0511580159061174b578061173d575b156117095761010086116116d357610100811161169a57610100841161165d576101a435156116245763096601806101a4351161161557610eba33612d8c565b6003546101208190525f19146116015761012051600101600355426101a43581011061160157610f17610f2593610f339760405160e052610efc60e051612546565b610f0c3660a05161010051612640565b60e051523691612640565b602060e05101523691612640565b604060e05101523691612640565b606060e051015233608060e0510152600160a060e05101525f60c060e05101525f60e0805101525f61010060e05101525f61012060e05101525f61014060e05101525f61016060e05101525f61018060e05101525f6101a060e05101525f6101c060e05101526101a43542016101e060e05101525f61020060e0510152610120515f525f60205260405f2060c05260e0515180519060018060401b03821161069b57610fed82610fe560c051546124f2565b60c05161292e565b602090601f83116001146115965761100f92915f91836114a9575b505061297d565b60c051555b60e051602001518051906001600160401b03821161069b5761104a8261103f600160c05101546124f2565b600160c0510161292e565b602090601f83116001146115255761106b92915f91836114a957505061297d565b600160c05101555b60e051604001518051906001600160401b03821161069b576110a98261109e600260c05101546124f2565b600260c0510161292e565b602090601f83116001146114b4576110ca92915f91836114a957505061297d565b600260c05101555b60e051606001516080819052516001600160401b03811161069b5761110b81611100600360c05101546124f2565b600360c0510161292e565b6020601f821160011461141a57946112de61133698956112c861130a966112b261134c9e9b97611149886112f4996113209e5f9161140d575061297d565b600360c05101555b60c05160e051608081015160049290920180546001600160a01b0319166001600160a01b039390931692909217825560a0015161124291906111959015158261298f565b6111a860ff60c060e05101511682612696565b6111ba60ff60e08051015116826126b3565b6111cd61010060e05101511515826126d0565b6111e261ffff61012060e051015116826126ed565b6111f660ff61014060e0510151168261270c565b61120a60ff61016060e05101511682612729565b61121f61ffff61018060e05101511682612746565b6112326101a060e0510151151582612765565b6101c060e0510151151590612782565b6101e060e0510151600560c0510155600660c0510161020060e0510151151560ff8019835416911617905560018060a01b03600454168061139d575b50610120515f525f60205261129c61014051600460405f2001612696565b610120515f525f602052600460405f20016126b3565b610120515f525f602052600460405f20016126d0565b610120515f525f602052600460405f20016126ed565b610120515f525f602052600460405f200161270c565b610120515f525f602052600460405f2001612729565b610120515f525f602052600460405f2001612746565b610120515f525f602052600460405f2001612765565b610120515f525f602052600460405f2001612782565b604051606081526113666060820160a05161010051612676565b6101a435420160208301525f60408301525f51602061303f5f395f51905f5233928061012051930390a36020604051610120518152f35b5f809160405182602082019163d4e748bd60e01b8352610120516024820152602481526113cb604482612562565b51925af16113d7612819565b9061127e575f51602061309f5f395f51905f526040516020815280611404610120519460208301906124ce565b0390a25f61127e565b905060805101515f6105f7565b600360c051015f52805f20905f5b601f198416811061148f575061133698956112c861130a966112b261134c9e9b976001886113209d986112de986112f49b601f19811610611475575b5050811b01600360c0510155611151565b60805101515f1960f88460031b161c191690555f80611464565b909160206001819285608051015181550193019101611428565b015190508b80611008565b9190600260c051015f52805f20905f935b601f198416851061150a576001945083601f198116106114f2575b505050811b01600260c05101556110d2565b01515f1960f88460031b161c191690558a80806114e0565b818101518355602094850194600190930192909101906114c5565b9190600160c051015f52805f20905f935b601f198416851061157b576001945083601f19811610611563575b505050811b01600160c0510155611073565b01515f1960f88460031b161c191690558a8080611551565b81810151835560209485019460019093019290910190611536565b919060c0515f52805f20905f935b601f19841685106115e6576001945083601f198116106115ce575b505050811b0160c05155611014565b01515f1960f88460031b161c191690558a80806115bf565b818101518355602094850194600190930192909101906115a4565b634e487b7160e01b5f52601160045260245ffd5b634a94fa8360e11b5f5260045ffd5b60405162461bcd60e51b8152602060048201526011602482015270111d5c985d1a5bdb881c995c5d5a5c9959607a1b6044820152606490fd5b60405162461bcd60e51b8152602060048201526015602482015274436f6d70656e736174696f6e20746f6f206c6f6e6760581b6044820152606490fd5b60405162461bcd60e51b81526020600482015260116024820152704c6f636174696f6e20746f6f206c6f6e6760781b6044820152606490fd5b60405162461bcd60e51b815260206004820152600e60248201526d506861736520746f6f206c6f6e6760901b6044820152606490fd5b60405162461bcd60e51b815260206004820152600c60248201526b496e76616c6964206e616d6560a01b6044820152606490fd5b5061010060a0511115610e7a565b60405162461bcd60e51b815260206004820152600d60248201526c13985b59481c995c5d5a5c9959609a1b6044820152606490fd5b60405162461bcd60e51b8152602060048201526011602482015270496e76616c6964206167652072616e676560781b6044820152606490fd5b34610158575f3660031901126101585760206040516101008152f35b34610158575f3660031901126101585760206040517f0dd738ba66f27b7bbb29c5cc6def1e88d79b57acf1c5619ee961015ba8e503038152f35b34610158576020366003190112610158575f61020060405161183081612546565b6060815260606020820152606060408201526060808201528260808201528260a08201528260c08201528260e08201528261010082015282610120820152826101408201528261016082015282610180820152826101a0820152826101c0820152826101e082015201526004355f525f60205260405f2060ff6006604051926118b884612546565b6118c181612585565b84526118cf60018201612585565b60208501526118e060028201612585565b60408501526118f160038201612585565b6060850152600481015460018060a01b0381166080860152838160a01c16151560a0860152838160a81c1660c0860152838160b01c1660e0860152838160b81c16151561010086015261ffff8160c01c16610120860152838160d01c16610140860152838160d81c1661016086015261ffff8160e01c16610180860152838160f01c1615156101a086015260f81c15156101c085015260058101546101e08501520154161515610200820152604051809160208252610200611a0c6119f66119e06119ca855161022060208901526102408801906124ce565b6020860151878203601f190160408901526124ce565b6040850151868203601f190160608801526124ce565b6060840151858203601f190160808701526124ce565b9160018060a01b0360808201511660a085015260a0810151151560c085015260ff60c08201511660e085015260ff60e082015116610100850152610100810151151561012085015261ffff6101208201511661014085015260ff6101408201511661016085015260ff6101608201511661018085015261ffff610180820151166101a08501526101a081015115156101c08501526101c081015115156101e08501526101e081015182850152015115156102208301520390f35b34610158576101e0366003190112610158576004356001600160401b03811161015857611af79036906004016124a1565b906024356001600160401b03811161015857611b179036906004016124a1565b6044356001600160401b03811161015857611b369036906004016124a1565b9490936064356001600160401b03811161015857611b589036906004016124a1565b90966101a4356001600160401b03811161015857611b7a9036906004016124a1565b9890926101c43597861580159061174b5780612472575b156117095761010088116116d357610100841161169a57610100821161165d578815611624576309660180891161161557611bcb33612d8c565b600354995f198b146116015760018b01600355894201421161160157611c2b94611c13611c1f936040519b611bff8d612546565b611c0a368d8d612640565b8d523691612640565b60208b01523691612640565b60408801523691612640565b6060850152336080850152600160a08501525f60c08501525f60e08501525f6101008501525f6101208501525f6101408501525f6101608501525f6101808501525f6101a08501525f6101c08501528442016101e08501526001610200850152855f525f60205260405f2096845180519060018060401b03821161069b57611cbd82611cb78c546124f2565b8c61292e565b602090601f831160011461240b57611cde92915f91836114a957505061297d565b88555b60208501518051906001600160401b03821161069b57611d1182611d0860018d01546124f2565b60018d0161292e565b602090601f831160011461239e57611d3292915f91836114a957505061297d565b60018901555b60408501518051906001600160401b03821161069b57611d6882611d5f60028d01546124f2565b60028d0161292e565b602090601f831160011461233157611d8992915f91836114a957505061297d565b60028901555b60608501518051989095906001600160401b038a1161069b57898997611dc760209c611dbe60038601546124f2565b6003860161292e565b8b90601f83116001146122a457936102006006600895611e07868e975f51602061303f5f395f51905f529e9d9b9761214e9d9b5f9261229957505061297d565b60038201555b60808401516004820180546001600160a01b0319166001600160a01b039290921691909117815560a0850151611ee69190611e4a9015158261298f565b611e5b60ff60c08801511682612696565b611e6c60ff60e088015116826126b3565b611e7d6101008701511515826126d0565b611e9061ffff61012088015116826126ed565b611ea260ff610140880151168261270c565b611eb460ff6101608801511682612729565b611ec761ffff6101808801511682612746565b611ed86101a0870151151582612765565b6101c0860151151590612782565b6101e0840151600582015501910151151560ff801983541691161790558160018060a01b03600454168061222b575b5050611f2d611f25368387612640565b6084356129c5565b93611f44611f3c368484612640565b60a4356129c5565b611f5a611f52368585612640565b60c435612b0b565b611f70611f68368686612640565b60e435612bd9565b611f87611f7e368787612640565b610104356129c5565b91611f9f611f96368888612640565b610124356129c5565b93611fe6611fdd611fbd611fb4368b8b612640565b61014435612bd9565b97611fd5611fcc368c84612640565b61016435612b0b565b993691612640565b61018435612b0b565b97611ff08b612ca7565b50611ffa82612ca7565b5061200483612cc6565b5061200e84612ce0565b5061201885612ca7565b5061202286612ca7565b5061202c87612ce0565b5061203688612cc6565b5061204089612cc6565b5061204b338c612cf9565b506120563383612cf9565b506120613384612d20565b5061206c3385612d3f565b506120773386612cf9565b506120823387612cf9565b5061208d3388612d3f565b506120983389612d20565b506120a3338a612d20565b5089546001600160a01b03168061216a575b506040519a6120c38c61252a565b8b5260208b0191825260408b0192835260608b0193845260808b0194855260a08b0195865260c08b0196875260e08b019788526101008b019889525f5260206001905260405f2099518a555160018a01555160028901555160038801555160048701555160058601555160068501555160078401555191015560405192606084526060840191612676565b93420186820152600160408201528033940390a3604051908152f35b612174908c612cf9565b50895461218a906001600160a01b031683612cf9565b5089546121a0906001600160a01b031684612d20565b5089546121b6906001600160a01b031685612d3f565b5089546121cc906001600160a01b031686612cf9565b5089546121e2906001600160a01b031687612cf9565b5089546121f8906001600160a01b031688612d3f565b50895461220e906001600160a01b031689612d20565b508954612224906001600160a01b03168a612d20565b505f6120b5565b5f80916040516020839082019163d4e748bd60e01b835286602482015260248152612257604482612562565b51925af1612263612819565b90611f155761228f5f51602061309f5f395f51905f5291604051916020918392835260208301906124ce565b0390a2818d611f15565b015190505f80611008565b90600384015f52805f20915f5b601f1985168110612317575060066008956001865f51602061303f5f395f51905f529d9c9a968f98966102009661214e9e9c98601f198116106122ff575b505050811b016003820155611e0d565b01515f1960f88460031b161c191690555f80806122ef565b8183015184558d9b50600190930192918e01918e016122b1565b919060028b015f52805f20905f935b601f1984168510612383576001945083601f1981161061236b575b505050811b016002890155611d8f565b01515f1960f88460031b161c191690558a808061235b565b81810151835560209485019460019093019290910190612340565b919060018b015f52805f20905f935b601f19841685106123f0576001945083601f198116106123d8575b505050811b016001890155611d38565b01515f1960f88460031b161c191690558a80806123c8565b818101518355602094850194600190930192909101906123ad565b91908a5f52805f20905f935b601f1984168510612457576001945083601f1981161061243f575b505050811b018855611ce1565b01515f1960f88460031b161c191690558a8080612432565b81810151835560209485019460019093019290910190612417565b50610100871115611b91565b34610158575f366003190112610158576004546001600160a01b03168152602090f35b9181601f84011215610158578235916001600160401b038311610158576020838186019501011161015857565b805180835260209291819084018484015e5f828201840152601f01601f1916010190565b90600182811c92168015612520575b602083101461250c57565b634e487b7160e01b5f52602260045260245ffd5b91607f1691612501565b61012081019081106001600160401b0382111761069b57604052565b61022081019081106001600160401b0382111761069b57604052565b601f909101601f19168101906001600160401b0382119082101761069b57604052565b9060405191825f825492612598846124f2565b808452936001811690811561260357506001146125bf575b506125bd92500383612562565b565b90505f9291925260205f20905f915b8183106125e75750509060206125bd928201015f6125b0565b60209193508060019154838589010152019101909184926125ce565b9050602092506125bd94915060ff191682840152151560051b8201015f6125b0565b6001600160401b03811161069b57601f01601f191660200190565b92919261264c82612625565b9161265a6040519384612562565b829481845281830111610158578281602093845f960137010152565b908060209392818452848401375f828201840152601f01601f1916010190565b805460ff60a81b191660a89290921b60ff60a81b16919091179055565b805460ff60b01b191660b09290921b60ff60b01b16919091179055565b805460ff60b81b191691151560b81b60ff60b81b16919091179055565b805461ffff60c01b191660c09290921b61ffff60c01b16919091179055565b805460ff60d01b191660d09290921b60ff60d01b16919091179055565b805460ff60d81b191660d89290921b60ff60d81b16919091179055565b805461ffff60e01b191660e09290921b61ffff60e01b16919091179055565b805460ff60f01b191691151560f01b60ff60f01b16919091179055565b80546001600160f81b031691151560f81b6001600160f81b031916919091179055565b156127ac57565b60405162461bcd60e51b815260206004820152600a60248201526927b7363c9037bbb732b960b11b6044820152606490fd5b156127e557565b60405162461bcd60e51b815260206004820152600c60248201526b5a65726f206164647265737360a01b6044820152606490fd5b3d15612843573d9061282a82612625565b916128386040519384612562565b82523d5f602084013e565b606090565b90816020910312610158575180151581036101585790565b7f0000000000000000000000000000000000000000000000000000000000000000801561291b575b612915575f809160018060a01b03600554169082528160205260018060a01b03600460408420015416604051602081019163353224d760e11b83526024820152602481526128d7604482612562565b51915afa6128e3612819565b81612909575b816128f2575090565b612906915060208082518301019101612848565b90565b805160201491506128e9565b50600190565b506005546001600160a01b031615612888565b601f821161293b57505050565b5f5260205f20906020601f840160051c83019310612973575b601f0160051c01905b818110612968575050565b5f815560010161295d565b9091508190612954565b8160011b915f199060031b1c19161790565b805460ff60a01b191691151560a01b60ff60a01b16919091179055565b9081526001600160a01b03909116602082015260400190565b815190919015612ad3575f51602061307f5f395f51905f525460405163045fc19560e11b81526004810193909352336024840152608060448401526001600160a01b031690612a189060848401906124ce565b602091835f8180946002606483015203925af1908115612a96575f91612aa1575b505f5160206130bf5f395f51905f52546001600160a01b0316803b15610158575f6040518092630f8e573b60e21b8252818381612a7a3389600484016129ac565b03925af18015612a9657612a8c575090565b5f61290691612562565b6040513d5f823e3d90fd5b90506020813d602011612acb575b81612abc60209383612562565b8101031261015857515f612a39565b3d9150612aaf565b508015612b0257612ae43382612e4c565b15612aec5790565b630276b5d960e01b5f526004523360245260445ffd5b50612906612f25565b815190919015612bbe575f51602061307f5f395f51905f525460405163045fc19560e11b81526004810193909352336024840152608060448401526001600160a01b031690612b5e9060848401906124ce565b602091835f81809482606483015203925af1908115612a96575f91612aa157505f5160206130bf5f395f51905f52546001600160a01b0316803b15610158575f6040518092630f8e573b60e21b8252818381612a7a3389600484016129ac565b508015612bcf57612ae43382612e4c565b506129065f612fa2565b815190919015612c8d575f51602061307f5f395f51905f525460405163045fc19560e11b81526004810193909352336024840152608060448401526001600160a01b031690612c2c9060848401906124ce565b602091835f8180946003606483015203925af1908115612a96575f91612aa157505f5160206130bf5f395f51905f52546001600160a01b0316803b15610158575f6040518092630f8e573b60e21b8252818381612a7a3389600484016129ac565b508015612c9e57612ae43382612e4c565b50612906612ff0565b8015612cb8575b6129063082612ec7565b50612cc1612f25565b612cae565b8015612cd6576129063082612ec7565b50612cc15f612fa2565b8015612cf0576129063082612ec7565b50612cc1612ff0565b908115612d0b575b6129069082612ec7565b9050612906612d18612f25565b919050612d01565b908115612d31576129069082612ec7565b9050612906612d185f612fa2565b908115612d50576129069082612ec7565b9050612906612d18612ff0565b46600103612d6a57600190565b4662aa36a703612d7a5761271190565b617a694614612d87575f90565b5f1990565b7f000000000000000000000000000000000000000000000000000000000000000015612db55750565b60055460405163353224d760e11b602082019081526001600160a01b0393841660248084019190915282525f9384931691612df1604482612562565b51915afa612dfd612819565b9015908115612e3f575b8115612e24575b50612e1557565b631d9e948560e01b5f5260045ffd5b612e38915060208082518301019101612848565b155f612e0e565b8051602014159150612e07565b5f5160206130bf5f395f51905f52546040516382027b6d60e01b81529260209284926001600160a01b03169183918291612e8991600484016129ac565b03915afa908115612a96575f91612e9e575090565b612906915060203d602011612ec0575b612eb88183612562565b810190612848565b503d612eae565b5f5160206130bf5f395f51905f52546001600160a01b031691823b1561015857612f0a925f9283604051809681958294635ca4b5b160e11b8452600484016129ac565b03925af18015612a9657612f1b5750565b5f6125bd91612562565b5f51602061307f5f395f51905f5254604051639cd07acb60e01b81525f6004820152906001600160a01b0316816044815f602094600260248401525af1908115612a96575f91612f73575090565b90506020813d602011612f9a575b81612f8e60209383612562565b81010312610158575190565b3d9150612f81565b5f51602061307f5f395f51905f5254604051639cd07acb60e01b815260048101929092526001600160a01b0316816044815f6020948160248401525af1908115612a96575f91612f73575090565b5f51602061307f5f395f51905f5254604051639cd07acb60e01b81525f6004820152906001600160a01b0316816044815f602094600360248401525af1908115612a96575f91612f7357509056fe3e2c44f257c3ed8dbb027743a5f690b01f72704d5b005e735c74e34d7bed23fe7dc7380605ea4d9ed8aa475df8774c4549fc8a2db87b58580ec96de0e6d2cce99e7b61f58c47dc699ac88507c4f5bb9f121c03808c5676a8078fe583e46497015f5a9666c8df93fcca508846be4094d71c2ab1ccb2b5aff18b2cc7a4924cc9339e7b61f58c47dc699ac88507c4f5bb9f121c03808c5676a8078fe583e4649700a164736f6c634300081b000a",
  "linkReferences": {},
  "deployedLinkReferences": {}
}