{
  "_format": "hh-sol-artifact-1",
  "contractName": "ConfidentialETH",
  "sourceName": "contracts/ConfidentialETH.sol",
  "abi": [
    {
      "inputs": [],
      "stateMutability": "nonpayable",
      "type": "constructor"
    },
    {
      "inputs": [],
      "name": "ZamaProtocolUnsupported",
      "type": "error"
    },
    {
      "anonymous": false,
      "inputs": [
        {
          "indexed": true,
          "internalType": "address",
          "name": "user",
          "type": "address"
        },
        {
          "indexed": false,
          "internalType": "uint256",
          "name": "weiAmount",
          "type": "uint256"
        },
        {
          "indexed": false,
          "internalType": "uint64",
          "name": "units",
          "type": "uint64"
        }
      ],
      "name": "Deposit",
      "type": "event"
    },
    {
      "anonymous": false,
      "inputs": [
        {
          "indexed": true,
          "internalType": "address",
          "name": "from",
          "type": "address"
        },
        {
          "indexed": true,
          "internalType": "address",
          "name": "to",
          "type": "address"
        }
      ],
      "name": "EncryptedTransfer",
      "type": "event"
    },
    {
      "anonymous": false,
      "inputs": [
        {
          "indexed": true,
          "internalType": "address",
          "name": "user",
          "type": "address"
        },
        {
          "indexed": false,
          "internalType": "uint256",
          "name": "weiAmount",
          "type": "uint256"
        }
      ],
      "name": "Withdrawal",
      "type": "event"
    },
    {
      "inputs": [],
      "name": "UNIT_SCALE",
      "outputs": [
        {
          "internalType": "uint256",
          "name": "",
          "type": "uint256"
        }
      ],
      "stateMutability": "view",
      "type": "function"
    },
    {
      "inputs": [
        {
          "internalType": "address",
          "name": "_contract",
          "type": "address"
        }
      ],
      "name": "authorizeContract",
      "outputs": [],
      "stateMutability": "nonpayable",
      "type": "function"
    },
    {
      "inputs": [
        {
          "internalType": "address",
          "name": "",
          "type": "address"
        }
      ],
      "name": "authorizedContracts",
      "outputs": [
        {
          "internalType": "bool",
          "name": "",
          "type": "bool"
        }
      ],
      "stateMutability": "view",
      "type": "function"
    },
    {
      "inputs": [],
      "name": "confidentialProtocolId",
      "outputs": [
        {
          "internalType": "uint256",
          "name": "",
          "type": "uint256"
        }
      ],
      "stateMutability": "view",
      "type": "function"
    },
    {
      "inputs": [],
      "name": "deposit",
      "outputs": [],
      "stateMutability": "payable",
      "type": "function"
    },
    {
      "inputs": [
        {
          "internalType": "address",
          "name": "_recipient",
          "type": "address"
        }
      ],
      "name": "depositFor",
      "outputs": [],
      "stateMutability": "payable",
      "type": "function"
    },
    {
      "inputs": [
        {
          "internalType": "address",
          "name": "user",
          "type": "address"
        }
      ],
      "name": "getBalance",
      "outputs": [
        {
          "internalType": "euint64",
          "name": "",
          "type": "bytes32"
        }
      ],
      "stateMutability": "view",
      "type": "function"
    },
    {
      "inputs": [],
      "name": "owner",
      "outputs": [
        {
          "internalType": "address",
          "name": "",
          "type": "address"
        }
      ],
      "stateMutability": "view",
      "type": "function"
    },
    {
      "inputs": [
        {
          "internalType": "address",
          "name": "from",
          "type": "address"
        },
        {
          "internalType": "address",
          "name": "to",
          "type": "address"
        },
        {
          "internalType": "euint64",
          "name": "amount",
          "type": "bytes32"
        }
      ],
      "name": "transferEncrypted",
      "outputs": [],
      "stateMutability": "nonpayable",
      "type": "function"
    },
    {
      "inputs": [
        {
          "internalType": "uint64",
          "name": "units",
          "type": "uint64"
        }
      ],
      "name": "withdraw",
      "outputs": [],
      "stateMutability": "nonpayable",
      "type": "function"
    },
    {
      "inputs": [
        {
          "internalType": "address",
          "name": "user",
          "type": "address"
        },
        {
          "internalType": "address",
          "name": "destination",
          "type": "address"
        },
        {
          "internalType": "uint64",
          "name": "units",
          "type": "uint64"
        }
      ],
      "name": "withdrawTo",
      "outputs": [],
      "stateMutability": "nonpayable",
      "type": "function"
    },
    {
      "stateMutability": "payable",
      "type": "receive"
    }
  ],
  "bytecode": "0x6080604052346101355761001161016c565b50466001036100fe5761002261016c565b5061002b610139565b5f81525f60208201525f60408201525b80517f9e7b61f58c47dc699ac88507c4f5bb9f121c03808c5676a8078fe583e464970080546001600160a01b03199081166001600160a01b039384161790915560208301517f9e7b61f58c47dc699ac88507c4f5bb9f121c03808c5676a8078fe583e4649701805483169184169190911790556040928301517f9e7b61f58c47dc699ac88507c4f5bb9f121c03808c5676a8078fe583e46497028054831691909316179091556002805490911633179055600160035551610c8090816101e68239f35b4662aa36a70361011557610110610186565b61003b565b46617a690361012657610110610186565b6373cac13b60e01b5f5260045ffd5b5f80fd5b60405190606082016001600160401b0381118382101761015857604052565b634e487b7160e01b5f52604160045260245ffd5b610174610139565b905f82525f60208301525f6040830152565b61018e61016c565b50610197610139565b73f0ffdc93b7e186bc2f8cb3daa75d86d1930a433d81527392c920834ec8941d2c77d188936e1f7a6f49c127602082015273be0e383937d564d7ff0bc3b46c51f0bf8d5c311a60408201529056fe6080604052600436101561001a575b3615610018575f80fd5b005b5f3560e01c8063433a9d371461055b578063568a14a11461041d57806367561d931461039a578063750f0acc1461028c5780638927b0301461026a5780638da5cb5b14610242578063aa67c91914610193578063b158e39a14610174578063d0e30db01461010f578063d5b9221b146100d25763f8b2cb4f0361000e57346100ce5760203660031901126100ce576001600160a01b036100b86106ac565b165f525f602052602060405f2054604051908152f35b5f80fd5b346100ce5760203660031901126100ce576001600160a01b036100f36106ac565b165f526001602052602060ff60405f2054166040519015158152f35b5f3660031901126100ce57610125341515610761565b61013664e8d4a5100034101561088e565b64e8d4a5100034046001600160401b03166101518133610b0f565b5f516020610c545f395f51905f526040518061016f339434836108d7565b0390a2005b346100ce575f3660031901126100ce57602060405164e8d4a510008152f35b60203660031901126100ce576101a76106ac565b6002546001600160a01b03163314801561022a575b6101c5906106d8565b6101d0341515610761565b6101e164e8d4a5100034101561088e565b64e8d4a5100034046001600160401b0316905f516020610c545f395f51905f529061016f906102108482610b0f565b6040516001600160a01b03909116939091829134836108d7565b50335f9081526001602052604090205460ff166101bc565b346100ce575f3660031901126100ce576002546040516001600160a01b039091168152602090f35b346100ce575f3660031901126100ce576020610284610ae0565b604051908152f35b346100ce5760203660031901126100ce576004356001600160401b038116908181036100ce576102c160026003541415610715565b60026003556103056102f48315926102d98415610761565b335f525f6020526102ef60405f205415156107a2565b610a85565b335f525f60205260405f20546108f0565b335f81815260208190526040902082905561031f91610b98565b335f525f60205261033560405f20543090610b98565b64e8d4a51000820291820464e8d4a51000141715610386576103665f80808085335af1610360610812565b50610850565b6040519081525f516020610c345f395f51905f5260203392a26001600355005b634e487b7160e01b5f52601160045260245ffd5b346100ce5760203660031901126100ce576103b36106ac565b6002546001600160a01b031633036103eb576001600160a01b03165f908152600160208190526040909120805460ff19169091179055005b60405162461bcd60e51b815260206004820152600a60248201526927b7363c9037bbb732b960b11b6044820152606490fd5b346100ce5760603660031901126100ce576104366106ac565b61043e6106c2565b604435916001600160401b03831691908284036100ce576002546001600160a01b031633148015610543575b610473906106d8565b61048260026003541415610715565b60026003556104e38315916104978315610761565b6104ce6104bd60018060a01b03831697885f525f6020526102ef60405f205415156107a2565b875f525f60205260405f20546108f0565b5f878152602081905260409020819055610b98565b835f525f6020526104f960405f20543090610b98565b64e8d4a51000830292830464e8d4a5100014171561038657816105355f8080805f516020610c345f395f51905f52976020975af1610360610812565b604051908152a26001600355005b50335f9081526001602052604090205460ff1661046a565b346100ce5760603660031901126100ce576105746106ac565b61057c6106c2565b906106326044359260018060a01b036002541633148015610694575b6105a1906106d8565b61062160018060a01b03841693845f525f6020526105c38660405f20546108f0565b5f86815260208190526040808220929092556001600160a01b03851680825291902054909690156106835761060390875f525f60205260405f20546109ae565b865f525f60205260405f20555b845f525f60205260405f2054610b98565b835f525f60205260405f2054610b98565b805f525f60205261064860405f20543090610b98565b815f525f60205261065d3060405f2054610b98565b7f8fb556326f22f916c68b89ac61b2b94546e36d300cdf1f2398ecaada4b2574005f80a3005b865f525f60205260405f2055610610565b50335f9081526001602052604090205460ff16610598565b600435906001600160a01b03821682036100ce57565b602435906001600160a01b03821682036100ce57565b156106df57565b60405162461bcd60e51b815260206004820152600e60248201526d139bdd08185d5d1a1bdc9a5e995960921b6044820152606490fd5b1561071c57565b60405162461bcd60e51b815260206004820152601f60248201527f5265656e7472616e637947756172643a207265656e7472616e742063616c6c006044820152606490fd5b1561076857565b60405162461bcd60e51b81526020600482015260126024820152710416d6f756e74206d757374206265203e20360741b6044820152606490fd5b156107a957565b60405162461bcd60e51b815260206004820152600a6024820152694e6f2062616c616e636560b01b6044820152606490fd5b601f909101601f19168101906001600160401b038211908210176107fe57604052565b634e487b7160e01b5f52604160045260245ffd5b3d1561084b573d906001600160401b0382116107fe5760405191610840601f8201601f1916602001846107db565b82523d5f602084013e565b606090565b1561085757565b60405162461bcd60e51b815260206004820152600f60248201526e151c985b9cd9995c8819985a5b1959608a1b6044820152606490fd5b1561089557565b60405162461bcd60e51b815260206004820152601a60248201527909ad2dc40c8cae0dee6d2e840d2e6406240dad2c6e4de5a8aa8960331b6044820152606490fd5b9081526001600160401b03909116602082015260400190565b90811561099e575b801561098c575b602090606460018060a01b035f516020610c145f395f51905f525416935f60405195869485936303056db360e31b8552600485015260248401528160448401525af1908115610981575f91610952575090565b90506020813d602011610979575b8161096d602093836107db565b810103126100ce575190565b3d9150610960565b6040513d5f823e3d90fd5b506020610997610a32565b90506108ff565b90506109a8610a32565b906108f8565b908115610a22575b8015610a10575b602090606460018060a01b035f516020610c145f395f51905f525416935f604051958694859363022f65e760e31b8552600485015260248401528160448401525af1908115610981575f91610952575090565b506020610a1b610a32565b90506109bd565b9050610a2c610a32565b906109b6565b5f516020610c145f395f51905f5254604051639cd07acb60e01b81525f60048201819052600560248301529091602091839160449183916001600160a01b03165af1908115610981575f91610952575090565b5f516020610c145f395f51905f5254604051639cd07acb60e01b81526001600160401b03909216600483015260056024830152602090829060449082905f906001600160a01b03165af1908115610981575f91610952575090565b46600103610aed57600190565b4662aa36a703610afd5761271190565b617a694614610b0a575f90565b5f1990565b90610b1c610b7091610a85565b6001600160a01b0383165f818152602081905260409020549093919015610b8757610b5290845f525f60205260405f20546109ae565b835f525f60205260405f20555b825f525f60205260405f2054610b98565b5f525f602052610b8560405f20543090610b98565b565b835f525f60205260405f2055610b5f565b7f9e7b61f58c47dc699ac88507c4f5bb9f121c03808c5676a8078fe583e4649700546001600160a01b031691823b156100ce57604051635ca4b5b160e11b815260048101929092526001600160a01b03166024820152905f908290604490829084905af1801561098157610c095750565b5f610b85916107db56fe9e7b61f58c47dc699ac88507c4f5bb9f121c03808c5676a8078fe583e46497017fcf532c15f0a6db0bd6d0e038bea71d30d808c7d98cb3bf7268a95bf5081b65edb91c7cfba21699815cdfbceeeff58063764ec530eb7dfb48aa060443ac0169a164736f6c634300081b000a",
  "linkReferences": {},
  "deployedLinkReferences": {}
}