{
  "_format": "hh-sol-artifact-1",
  "contractName": "EligibilityEngine",
  "sourceName": "contracts/EligibilityEngine.sol",
  "abi": [
    {
      "inputs": [
        {
          "internalType": "address",
          "name": "_registry",
          "type": "address"
        },
        {
          "internalType": "address",
          "name": "_trialManager",
          "type": "address"
        },
        {
          "internalType": "address",
          "name": "_consentManager",
          "type": "address"
        }
      ],
      "stateMutability": "nonpayable",
      "type": "constructor"
    },
    {
      "inputs": [
        {
          "internalType": "int32",
          "name": "value",
          "type": "int32"
        }
      ],
      "name": "SecurityZoneOutOfBounds",
      "type": "error"
    },
    {
      "anonymous": false,
      "inputs": [
        {
          "indexed": true,
          "internalType": "address",
          "name": "patient",
          "type": "address"
        },
        {
          "indexed": true,
          "internalType": "uint256",
          "name": "trialId",
          "type": "uint256"
        },
        {
          "indexed": false,
          "internalType": "enum EligibilityEngine.ApplicationStatus",
          "name": "status",
          "type": "uint8"
        },
        {
          "indexed": false,
          "internalType": "bytes",
          "name": "message",
          "type": "bytes"
        }
      ],
      "name": "ApplicationStatusUpdated",
      "type": "event"
    },
    {
      "anonymous": false,
      "inputs": [
        {
          "indexed": true,
          "internalType": "address",
          "name": "patient",
          "type": "address"
        },
        {
          "indexed": true,
          "internalType": "uint256",
          "name": "trialId",
          "type": "uint256"
        }
      ],
      "name": "AppliedToTrial",
      "type": "event"
    },
    {
      "anonymous": false,
      "inputs": [
        {
          "indexed": true,
          "internalType": "address",
          "name": "patient",
          "type": "address"
        },
        {
          "indexed": true,
          "internalType": "uint256",
          "name": "trialId",
          "type": "uint256"
        }
      ],
      "name": "EligibilityComputed",
      "type": "event"
    },
    {
      "anonymous": false,
      "inputs": [
        {
          "indexed": true,
          "internalType": "address",
          "name": "patient",
          "type": "address"
        },
        {
          "indexed": true,
          "internalType": "uint256",
          "name": "trialId",
          "type": "uint256"
        }
      ],
      "name": "EligibilityScoreComputed",
      "type": "event"
    },
    {
      "inputs": [
        {
          "internalType": "uint256",
          "name": "",
          "type": "uint256"
        },
        {
          "internalType": "address",
          "name": "",
          "type": "address"
        }
      ],
      "name": "applications",
      "outputs": [
        {
          "internalType": "enum EligibilityEngine.ApplicationStatus",
          "name": "status",
          "type": "uint8"
        },
        {
          "internalType": "bytes",
          "name": "encryptedMessage",
          "type": "bytes"
        }
      ],
      "stateMutability": "view",
      "type": "function"
    },
    {
      "inputs": [
        {
          "internalType": "uint256",
          "name": "_trialId",
          "type": "uint256"
        },
        {
          "internalType": "bool",
          "name": "_eligible",
          "type": "bool"
        },
        {
          "internalType": "bytes",
          "name": "_signature",
          "type": "bytes"
        }
      ],
      "name": "applyToTrial",
      "outputs": [],
      "stateMutability": "nonpayable",
      "type": "function"
    },
    {
      "inputs": [],
      "name": "automationContract",
      "outputs": [
        {
          "internalType": "address",
          "name": "",
          "type": "address"
        }
      ],
      "stateMutability": "view",
      "type": "function"
    },
    {
      "inputs": [
        {
          "internalType": "address",
          "name": "_patient",
          "type": "address"
        },
        {
          "internalType": "uint256",
          "name": "_trialId",
          "type": "uint256"
        }
      ],
      "name": "checkEligibility",
      "outputs": [
        {
          "internalType": "ebool",
          "name": "",
          "type": "bytes32"
        }
      ],
      "stateMutability": "nonpayable",
      "type": "function"
    },
    {
      "inputs": [],
      "name": "consentManager",
      "outputs": [
        {
          "internalType": "contract ConsentManager",
          "name": "",
          "type": "address"
        }
      ],
      "stateMutability": "view",
      "type": "function"
    },
    {
      "inputs": [],
      "name": "dataAccessLog",
      "outputs": [
        {
          "internalType": "contract DataAccessLog",
          "name": "",
          "type": "address"
        }
      ],
      "stateMutability": "view",
      "type": "function"
    },
    {
      "inputs": [
        {
          "internalType": "address",
          "name": "",
          "type": "address"
        },
        {
          "internalType": "uint256",
          "name": "",
          "type": "uint256"
        }
      ],
      "name": "encryptedResults",
      "outputs": [
        {
          "internalType": "ebool",
          "name": "",
          "type": "bytes32"
        }
      ],
      "stateMutability": "view",
      "type": "function"
    },
    {
      "inputs": [
        {
          "internalType": "address",
          "name": "",
          "type": "address"
        },
        {
          "internalType": "uint256",
          "name": "",
          "type": "uint256"
        }
      ],
      "name": "encryptedScores",
      "outputs": [
        {
          "internalType": "euint8",
          "name": "",
          "type": "bytes32"
        }
      ],
      "stateMutability": "view",
      "type": "function"
    },
    {
      "inputs": [
        {
          "internalType": "address",
          "name": "_patient",
          "type": "address"
        },
        {
          "internalType": "uint256",
          "name": "_trialId",
          "type": "uint256"
        }
      ],
      "name": "getEncryptedResult",
      "outputs": [
        {
          "internalType": "ebool",
          "name": "",
          "type": "bytes32"
        }
      ],
      "stateMutability": "view",
      "type": "function"
    },
    {
      "inputs": [
        {
          "internalType": "address",
          "name": "_patient",
          "type": "address"
        },
        {
          "internalType": "uint256",
          "name": "_trialId",
          "type": "uint256"
        }
      ],
      "name": "getEncryptedScore",
      "outputs": [
        {
          "internalType": "euint8",
          "name": "",
          "type": "bytes32"
        }
      ],
      "stateMutability": "view",
      "type": "function"
    },
    {
      "inputs": [],
      "name": "owner",
      "outputs": [
        {
          "internalType": "address",
          "name": "",
          "type": "address"
        }
      ],
      "stateMutability": "view",
      "type": "function"
    },
    {
      "inputs": [],
      "name": "patientRegistry",
      "outputs": [
        {
          "internalType": "contract PatientRegistry",
          "name": "",
          "type": "address"
        }
      ],
      "stateMutability": "view",
      "type": "function"
    },
    {
      "inputs": [
        {
          "internalType": "address",
          "name": "_automation",
          "type": "address"
        }
      ],
      "name": "setAutomationContract",
      "outputs": [],
      "stateMutability": "nonpayable",
      "type": "function"
    },
    {
      "inputs": [
        {
          "internalType": "address",
          "name": "_log",
          "type": "address"
        }
      ],
      "name": "setDataAccessLog",
      "outputs": [],
      "stateMutability": "nonpayable",
      "type": "function"
    },
    {
      "inputs": [
        {
          "internalType": "uint256",
          "name": "",
          "type": "uint256"
        },
        {
          "internalType": "uint256",
          "name": "",
          "type": "uint256"
        }
      ],
      "name": "trialAppliedPatients",
      "outputs": [
        {
          "internalType": "address",
          "name": "",
          "type": "address"
        }
      ],
      "stateMutability": "view",
      "type": "function"
    },
    {
      "inputs": [],
      "name": "trialManager",
      "outputs": [
        {
          "internalType": "contract TrialManager",
          "name": "",
          "type": "address"
        }
      ],
      "stateMutability": "view",
      "type": "function"
    },
    {
      "inputs": [
        {
          "internalType": "uint256",
          "name": "_trialId",
          "type": "uint256"
        },
        {
          "internalType": "address",
          "name": "_patient",
          "type": "address"
        },
        {
          "internalType": "enum EligibilityEngine.ApplicationStatus",
          "name": "_status",
          "type": "uint8"
        },
        {
          "internalType": "bytes",
          "name": "_message",
          "type": "bytes"
        }
      ],
      "name": "updateApplicationStatus",
      "outputs": [],
      "stateMutability": "nonpayable",
      "type": "function"
    }
  ],
  "bytecode": "0x60803460ad57601f61293b38819003918201601f19168301916001600160401b0383118484101760b15780849260609460405283398101031260ad5760428160c5565b906057604060516020840160c5565b920160c5565b600580546001600160a01b031990811633179091555f805482166001600160a01b039586161790556001805482169385169390931790925560028054909216921691909117905560405161286290816100d98239f35b5f80fd5b634e487b7160e01b5f52604160045260245ffd5b51906001600160a01b038216820360ad5756fe60a0806040526004361015610012575f80fd5b5f905f3560e01c9081630689d5ed14611d0e575080630798230914611ce65780632e8ff56314611c7b57806349df1feb14610c785780635250c6e214610c5157806355f8cfdd14610c2857806362909f0a14610bd65780636685237414610aca5780638da5cb5b14610aa1578063ab033802146106a4578063c3603e5714610651578063d350a18f14610246578063e1ff109714610203578063e75bb266146101da578063f520f24f14610188578063f956b8b3146101455763fda0fbb8146100d9575f80fd5b34610142576040366003190112610142576020906040906001600160a01b03610100611d31565b16803314801561012e575b61011490611e53565b815260078352818120602435825283522054604051908152f35b506004546001600160a01b0316331461010b565b80fd5b5034610142576040366003190112610142576020906040906001600160a01b0361016d611d31565b16815260078352818120602435825283522054604051908152f35b5034610142576020366003190112610142576101a2611d31565b6101b760018060a01b036005541633146120e4565b600380546001600160a01b0319166001600160a01b039290921691909117905580f35b50346101425780600319360112610142576002546040516001600160a01b039091168152602090f35b5034610142576040366003190112610142576020906040906001600160a01b0361022b611d31565b16815260068352818120602435825283522054604051908152f35b50346101425760603660031901126101425760043560243580158015820361064d576044356001600160401b03811161064957610287903690600401611dfd565b909184865260086020526040862060018060a01b0333165f5260205260ff60405f2054166004811015610635576105fe576105aa57338552600660205260408520848652602052604085205480156105515785931561054a576001915b6102ed81611e9c565b6102fa6040519182611d95565b81815236828601116105465760ff9560208361034894829883860137830101526040519586948594630135f2c360e61b86526004860152166024840152606060448401526064830190611dd9565b03815f5160206128365f395f51905f525afa90811561053b578391610501575b50156104c057808252600860209081526040808420335f908152908352819020805460ff1916600117905582845260099091528220805490600160401b8210156104ac57906103bc91600182018155611e2a565b81546001600160a01b03600392831b81811b199092163390921b919091179092555483911680610411575b5050337f3b24d68835e06bc68422306adf8de6b9c3f3d25de0cef1c8f15cf59739c9fd0c8380a380f35b60405160208101903360601b8252661054141312515160ca1b603482015242603b820152603b8152610444605b82611d95565b51902090803b156104a8576040516306cc173360e41b81529183918391829084908290610475908a600484016120cb565b03925af1801561049d57156103e7578161048e91611d95565b61049957815f6103e7565b5080fd5b6040513d84823e3d90fd5b8280fd5b634e487b7160e01b84526041600452602484fd5b60405162461bcd60e51b815260206004820152601960248201527824b73b30b634b21032b634b3b4b134b634ba3c90383937b7b360391b6044820152606490fd5b90506020813d602011610533575b8161051c60209383611d95565b810103126104a85761052d90611e8f565b5f610368565b3d915061050f565b6040513d85823e3d90fd5b8580fd5b83916102e4565b60405162461bcd60e51b815260206004820152602b60248201527f456c69676962696c697479206e6f742079657420636f6d707574656420666f7260448201526a081d1a1a5cc81d1c9a585b60aa1b6064820152608490fd5b60405162461bcd60e51b815260206004820152602660248201527f50617469656e74206973206e6f7420656c696769626c6520666f722074686973604482015265081d1c9a585b60d21b6064820152608490fd5b60405162461bcd60e51b815260206004820152600f60248201526e105b1c9958591e48185c1c1b1a5959608a1b6044820152606490fd5b634e487b7160e01b87526021600452602487fd5b8480fd5b8380fd5b50346101425760403660031901126101425760243590600435815260096020526040812090815483101561014257602061068b8484611e2a565b905460405160039290921b1c6001600160a01b03168152f35b5034610142576080366003190112610142576004356106c1611d47565b604435600481101561064d576064356001600160401b038111610649576106ec903690600401611dfd565b929060248660018060a01b036001541660405192838092631a7f3c3360e01b82528a60048301525afa908115610a96578791610a74575b50608001516001600160a01b03163303610a2f5784865260086020526040862060018060a01b0383165f5260205260ff60405f205416600481101561063557156109f3578486526008602081815260408089206001600160a01b0386165f818152918452828220805460ff191660ff8a16179055898b52938352818a209381529290915290206001016001600160401b0385116109df5790816107c7869354611d5d565b601f811161098d575b5087601f841160011461092c57889084610921575b508360011b905f198560031b1c19161790555b6003546001600160a01b031680610874575b5092610841926060927fb8d37bb75e47252fab0d1ead541c50f4b09cf8a0cde18749fa1cca6d7adb33c89560405195868095611db8565b604060208501528160408501528484013781860183018890526001600160a01b031694601f01601f19168101030190a380f35b915086604051602081019060018060601b03198660601b16825260ff60f81b8760f81b166034820152426035820152603581526108b2605582611d95565b51902092803b15610499576108e193829189836040518098819582946306cc173360e41b8452600484016120cb565b03925af19283156109145786936108f9575b5061080a565b819293509061090791611d95565b610546578390865f6108f3565b50604051903d90823e3d90fd5b90508201355f6107e5565b8189526020892090601f1985168a5b81811061097257508511610959575b5050600183811b0190556107f8565b8301355f19600386901b60f8161c191690555f8061094a565b8286013584558996506001909301926020928301920161093b565b9080929350885260208820601f870160051c810191602088106109d5575b90601f88959493920160051c01905b8181106109c757506107d0565b8981558794506001016109ba565b90915081906109ab565b634e487b7160e01b87526041600452602487fd5b60405162461bcd60e51b8152602060048201526014602482015273139bc8185c1c1b1a58d85d1a5bdb88199bdd5b9960621b6044820152606490fd5b60405162461bcd60e51b815260206004820152601e60248201527f4f6e6c792073706f6e736f722063616e207570646174652073746174757300006044820152606490fd5b610a9091503d8089833e610a888183611d95565b810190611f1a565b5f610723565b6040513d89823e3d90fd5b50346101425780600319360112610142576005546040516001600160a01b039091168152602090f35b503461014257604036600319011261014257610ae4611d47565b60043582526008602052604082209060018060a01b03165f5260205260405f20600160ff8254169101916040519281815491610b1f83611d5d565b8087529260018116908115610baa5750600114610b6c575b610b5785610b6888610b4b81890382611d95565b60405193848094611db8565b604060208401526040830190611dd9565b0390f35b9080935052602082205b818310610b90575050820160200182610b4b610b57610b37565b600181602092949394548385890101520191019190610b76565b60ff191660208089019190915293151560051b87019093019350859250610b4b9150610b579050610b37565b503461014257602036600319011261014257610bf0611d31565b610c0560018060a01b036005541633146120e4565b600480546001600160a01b0319166001600160a01b039290921691909117905580f35b50346101425780600319360112610142576001546040516001600160a01b039091168152602090f35b5034610142578060031936011261014257546040516001600160a01b039091168152602090f35b503461170457604036600319011261170457610c92611d31565b6001600160a01b038116913383148015611c67575b15611c3357600254604051630cc6669f60e31b815260048101859052602480359082015290602090829060449082906001600160a01b03165afa9081156116f9575f91611bf9575b5015611bb6575f80546040516305a9b47160e51b815260048101869052916101209183916024918391906001600160a01b03165af19081156116f9575f91611af4575b5061010081015115611ab357600154604051631a7f3c3360e01b81526024803560048301529094915f91869182906001600160a01b03165afa9384156116f9575f94611a97575b5060a084015115611a5c57815193610d9760ff60c0830151166125fa565b928515611a4c575b8315611a35575b90610e1f9160609460405190610dbc8783611d95565b60028252601f1987019889366020850137610dd683612808565b52610de082612815565b526020608081905260405190610df69082611d95565b5f80825236813760405180958192631888debd60e01b83526080519460156002600486016125ca565b03815f5f5160206128365f395f51905f525af19283156116f9575f936119ff575b50610ecc8151610e5660ff60e0860151166125fa565b81156119ef575b80156119e1575b60405191610e728984611d95565b600283528a36608051850137610e8783612808565b52610e9182612815565b5260805160405190610ea39082611d95565b5f80825236813760405180938192631888debd60e01b83526080519460146002600486016125ca565b03815f5f5160206128365f395f51905f525af19081156116f9575f916119ab575b50610fb193610efc919061211d565b6101008301519097901561199b57610f226080830151610f1c60016126ab565b90612206565b975b60a0830151610f3b61ffff6101208701511661271c565b811561198b575b801561197d575b60405191610f578a84611d95565b600283528436608051850137610f6c83612808565b52610f7682612815565b5260805160405190610f889082611d95565b5f80825236813760405180978192631888debd60e01b83526080519460126003600486016125ca565b03815f5f5160206128365f395f51905f525af180156116f95789955f91611946575b5061014085015160ff166001810361191d5750610ff9608051850151610f1c60016126ab565b915b6101608601805160ff161561190c576110259061101f60ff8c8901519251166125fa565b906122a0565b935b6101808701805161ffff16156118fb576110c5985061104f61ffff604089015192511661271c565b81156118eb575b80156118dd575b6040519161106b8d84611d95565b60028352833660805185013761108083612808565b5261108a82612815565b526080516040519061109c9082611d95565b5f808252368137604051809a8192631888debd60e01b83526080519460136003600486016125ca565b03815f5f5160206128365f395f51905f525af180156116f9578c985f916118a6575b50955b6101a088015115611893576101c061110960c0830151610f1c5f6126ab565b985b01511561186d5761117161117161117161117161117161117161113860e061118b980151610f1c5f6126ab565b9e5b61116261116861114861266d565b6111628d6111546127cd565b61115c61266d565b91612337565b90612418565b916111546127cd565b61116261117c6127cd565b61118461266d565b908c612337565b6080516040519061119c9082611d95565b5f80825236813760809261120c604051926111b78685611d95565b60038452601f198601938436608051830137600c6111d482612808565b5260026111e082612815565b525f6111eb82612825565b5260405180938192631888debd60e01b835260805194600260048501612592565b03815f5f5160206128365f395f51905f525af180156116f9578e915f91611834575b506112a9928590828215611824575b15611814575b6112506040519485611d95565b600284523660805185013761126483612808565b5261126e82612815565b52608051604051906112809082611d95565b5f80825236813760405180938192631888debd60e01b835260805194600f6002600486016125ca565b03815f5f5160206128365f395f51905f525af19081156116f9575f916117e0575b5060805160405161130a916112df9082611d95565b5f8082523681376040516112f38782611d95565b60038152843660805183013760026111d482612808565b03815f5f5160206128365f395f51905f525af19081156116f9575f916117aa575b506113be916111626113428361134a9450876122a0565b6111546127cd565b6080516040519061135b9082611d95565b5f80825236813760405161136f8782611d95565b600381528436608051830137600461138682612808565b52600261139282612815565b525f61139d82612825565b5260405180948192631888debd60e01b835260805194600260048501612592565b03815f5f5160206128365f395f51905f525af19182156116f9575f92611772575b50611162611342836113f29450866122a0565b906080515061143460405161140960805182611d95565b5f80825236813760405161141d8782611d95565b60038152833660805183013760066111d482612808565b03815f5f5160206128365f395f51905f525af19081156116f9575f9161173c575b506114ab926111626113428361146c9450876122a0565b93608051506040519161148160805184611d95565b5f8084523681376114956040519283611d95565b600382523660805183013760086111d482612808565b03815f5f5160206128365f395f51905f525af19081156116f9575f91611708575b506114d6916122a0565b6114de6127cd565b6114e661266d565b906114f092612337565b6114f991612418565b9a6115039161211d565b9061150d9161211d565b906115179161211d565b906115219161211d565b9061152b9161211d565b906115359161211d565b9061153f9161211d565b93611549856124c8565b6115538286612529565b5f5160206128365f395f51905f523b1561170457604051631a778f2d60e11b8152600481018690525f81602481835f5160206128365f395f51905f525af180156116f9576116e4575b506115a6816124c8565b6115b08282612529565b8584526006608051526040842060243585526080515284604085205585845260076080515260408420602435855260805152604084205560018060a01b03600354169182611657575b50505060405192602435817f26fc4ce3e31d2ac9b7b0e8176c0f0eec4025d028898c19644eb12750d75bbf208480a37fc5d660bf01d7f2156960a5ea5eda456222a444054c009346ceee0dab95194e0e6024359280a3815260805190f35b6040519060805182019260018060601b0319911b16825242603482015260348152611683605482611d95565b519020813b156104a85782916064839260405194859384926306cc173360e41b845260026004850152602435602485015260448401525af1801561049d579082916116cf575b806115f9565b816116d991611d95565b61014257805f6116c9565b6116f19194505f90611d95565b5f925f61159c565b6040513d5f823e3d90fd5b5f80fd5b90506080513d60805111611735575b6117218183611d95565b81608051918101031261170457515f6114cc565b503d611717565b90506080513d6080511161176b575b6117558183611d95565b81608051918101031261170457516114ab611455565b503d61174b565b91506080513d608051116117a3575b61178b8184611d95565b826080519181010312611704579051906111626113df565b503d611781565b90506080513d608051116117d9575b6117c38183611d95565b81608051918101031261170457516113be61132b565b503d6117b9565b90506080513d6080511161180d575b6117f98183611d95565b81608051918101031261170457515f6112ca565b503d6117ef565b915061181e61266d565b91611243565b915061182e61266d565b9161123d565b9150506080513d60805111611866575b61184e8183611d95565b81608051918101031261170457518d906112a961122e565b503d611844565b5061118b61117161117161117161117161117161117161188d60016126ab565b9e61113a565b6101c06118a060016126ab565b9861110b565b9850506080513d608051116118d6575b6118c0818a611d95565b886080519181010312611704578b97515f6110e7565b503d6118b6565b506118e661278f565b61105d565b90506118f561278f565b90611056565b5061190660016126ab565b956110ea565b5061191760016126ab565b93611027565b60020361193c57611936608051850151610f1c5f6126ab565b91610ffb565b61193660016126ab565b9550506080513d60805111611976575b6119608187611d95565b856080519181010312611704578894515f610fd3565b503d611956565b5061198661278f565b610f49565b905061199561278f565b90610f42565b6119a560016126ab565b97610f24565b90506080513d608051116119da575b6119c48183611d95565b8160805191810103126117045751610fb1610eed565b503d6119ba565b506119ea61266d565b610e64565b90506119f961266d565b90610e5d565b9092506080513d60805111611a2e575b611a198183611d95565b8160805191810103126117045751915f610e40565b503d611a0f565b9250610e1f90611a4361266d565b93909150610da6565b9450611a5661266d565b94610d9f565b60405162461bcd60e51b8152602060048201526013602482015272547269616c206973206e6f742061637469766560681b6044820152606490fd5b611aac9194503d805f833e610a888183611d95565b925f610d79565b60405162461bcd60e51b815260206004820152601960248201527814185d1a595b9d081c1c9bd99a5b19481b9bdd08199bdd5b99603a1b6044820152606490fd5b9050610120813d8211611bae575b81611b106101209383611d95565b81010312611704576040519061012082016001600160401b03811183821017611b9a57611b8e9161010091604052805184526020810151602085015260408101516040850152606081015160608501526080810151608085015260a081015160a085015260c081015160c085015260e081015160e085015201611e8f565b6101008201525f610d32565b634e487b7160e01b5f52604160045260245ffd5b3d9150611b02565b60405162461bcd60e51b815260206004820152601b60248201527a14185d1a595b9d0818dbdb9cd95b9d081b9bdd0819dc985b9d1959602a1b6044820152606490fd5b90506020813d602011611c2b575b81611c1460209383611d95565b8101031261170457611c2590611e8f565b5f610cef565b3d9150611c07565b60405162461bcd60e51b815260206004820152600c60248201526b155b985d5d1a1bdc9a5e995960a21b6044820152606490fd5b506004546001600160a01b03163314610ca7565b34611704576040366003190112611704576001600160a01b03611c9c611d31565b168033148015611cd2575b611cb090611e53565b5f52600660205260405f206024355f52602052602060405f2054604051908152f35b506004546001600160a01b03163314611ca7565b34611704575f366003190112611704576003546040516001600160a01b039091168152602090f35b34611704575f366003190112611704576004546001600160a01b03168152602090f35b600435906001600160a01b038216820361170457565b602435906001600160a01b038216820361170457565b90600182811c92168015611d8b575b6020831014611d7757565b634e487b7160e01b5f52602260045260245ffd5b91607f1691611d6c565b601f909101601f19168101906001600160401b03821190821017611b9a57604052565b906004821015611dc55752565b634e487b7160e01b5f52602160045260245ffd5b805180835260209291819084018484015e5f828201840152601f01601f1916010190565b9181601f84011215611704578235916001600160401b038311611704576020838186019501011161170457565b8054821015611e3f575f5260205f2001905f90565b634e487b7160e01b5f52603260045260245ffd5b15611e5a57565b60405162461bcd60e51b815260206004820152600d60248201526c1058d8d95cdcc819195b9a5959609a1b6044820152606490fd5b5190811515820361170457565b6001600160401b038111611b9a57601f01601f191660200190565b81601f8201121561170457805190611ece82611e9c565b92611edc6040519485611d95565b8284526020838301011161170457815f9260208093018386015e8301015290565b519060ff8216820361170457565b519061ffff8216820361170457565b602081830312611704578051906001600160401b038211611704570161020081830312611704576040519161020083016001600160401b03811184821017611b9a5760405281516001600160401b0381116117045781611f7b918401611eb7565b835260208201516001600160401b0381116117045781611f9c918401611eb7565b602084015260408201516001600160401b0381116117045781611fc0918401611eb7565b60408401526060820151906001600160401b03821161170457611fe4918301611eb7565b60608301526080810151906001600160a01b0382168203611704576101e091608084015261201460a08201611e8f565b60a084015261202560c08201611efd565b60c084015261203660e08201611efd565b60e08401526120486101008201611e8f565b61010084015261205b6101208201611f0b565b61012084015261206e6101408201611efd565b6101408401526120816101608201611efd565b6101608401526120946101808201611f0b565b6101808401526120a76101a08201611e8f565b6101a08401526120ba6101c08201611e8f565b6101c084015201516101e082015290565b6040909392919360608101946003825260208201520152565b156120eb57565b60405162461bcd60e51b815260206004820152600a60248201526927b7363c9037bbb732b960b11b6044820152606490fd5b9081156121f4575b80156121e4575b6040519161213b606084611d95565b60028352604036602085013761215083612808565b5261215a82612815565b5261219560208092604051906121708383611d95565b5f82525f368137604051631888debd60e01b81529384928392600a5f600486016125ca565b03815f5f5160206128365f395f51905f525af19182156116f9575f926121ba57505090565b90809250813d83116121dd575b6121d18183611d95565b81010312611704575190565b503d6121c7565b506121ef60016126ab565b61212c565b905061220060016126ab565b90612125565b90811561228e575b801561227e575b60405191612224606084611d95565b60028352604036602085013761223983612808565b5261224382612815565b5261219560208092604051906122598383611d95565b5f82525f368137604051631888debd60e01b8152938492839260185f600486016125ca565b5061228960016126ab565b612215565b905061229a60016126ab565b9061220e565b908115612327575b8015612319575b604051916122be606084611d95565b6002835260403660208501376122d383612808565b526122dd82612815565b5261219560208092604051906122f38383611d95565b5f82525f368137604051631888debd60e01b8152938492839260126002600486016125ca565b5061232261266d565b6122af565b905061233161266d565b906122a8565b91908215612407575b80156123f9575b81156123e9575b6040519261235d608085611d95565b60038452606036602086013761237284612808565b5261237c83612815565b5261238682612825565b52602090816123d76040519261239c8385611d95565b5f84525f3681376121956040519485938493631888debd60e01b8552600260048601526004602486015260806044860152608485019061255f565b8381036003190160648501529061255f565b90506123f361266d565b9061234e565b5061240261266d565b612347565b91506124125f6126ab565b91612340565b90811561249f575b8015612491575b60405191612436606084611d95565b60028352604036602085013761244b83612808565b5261245582612815565b52612195602080926040519061246b8383611d95565b5f82525f368137604051631888debd60e01b8152938492839260086002600486016125ca565b5061249a61266d565b612427565b90506124a961266d565b90612420565b9081526001600160a01b03909116602082015260400190565b5f5160206128365f395f51905f523b15611704575f6124fd9160405180938192631974142760e21b83523090600484016124af565b0381835f5160206128365f395f51905f525af180156116f95761251d5750565b5f61252791611d95565b565b5f5160206128365f395f51905f523b1561170457604051631974142760e21b8152915f91839182916124fd9190600484016124af565b90602080835192838152019201905f5b81811061257c5750505090565b825184526020938401939092019160010161256f565b916125b99060ff6125c79593168452601a602085015260806040850152608084019061255f565b91606081840391015261255f565b90565b9293919060ff1683526020811015611dc5576125c7936125b991602085015260806040850152608084019061255f565b6121956020809260405161260e8382611d95565b5f81525f36813760405191612624608084611d95565b600383526060368585013761263883612808565b52600261264483612815565b525f61264f83612825565b52604051631888debd60e01b81529384928392600260048501612592565b6020612195816040516126808282611d95565b5f81525f36813760405190612696608083611d95565b60038252606036848401375f61263883612808565b612195602080926040516126bf8382611d95565b5f81525f368137604051916126d5608084611d95565b60038352606036858501376126e983612808565b525f6126f483612815565b525f6126ff83612825565b52604051631888debd60e01b815293849283925f60048501612592565b612195602080926040516127308382611d95565b5f81525f36813760405191612746608084611d95565b600383526060368585013761275a83612808565b52600361276683612815565b525f61277183612825565b52604051631888debd60e01b81529384928392600360048501612592565b6020612195816040516127a28282611d95565b5f81525f368137604051906127b8608083611d95565b60038252606036848401375f61275a83612808565b6020612195816040516127e08282611d95565b5f81525f368137604051906127f6608083611d95565b60038252606036848401376001612638835b805115611e3f5760200190565b805160011015611e3f5760400190565b805160021015611e3f576060019056fe000000000000000000000000ea30c4b8b44078bbf8a6ef5b9f1ec1626c7848d9a164736f6c634300081b000a",
  "linkReferences": {},
  "deployedLinkReferences": {}
}