{
  "_format": "hh-sol-artifact-1",
  "contractName": "EligibilityProofLib",
  "sourceName": "contracts/lib/EligibilityProofLib.sol",
  "abi": [
    {
      "inputs": [
        {
          "internalType": "address",
          "name": "trialManager",
          "type": "address"
        },
        {
          "internalType": "uint256",
          "name": "trialId",
          "type": "uint256"
        }
      ],
      "name": "encryptedCriteriaBindingHash",
      "outputs": [
        {
          "internalType": "bytes32",
          "name": "",
          "type": "bytes32"
        }
      ],
      "stateMutability": "view",
      "type": "function"
    },
    {
      "inputs": [
        {
          "components": [
            {
              "internalType": "string",
              "name": "name",
              "type": "string"
            },
            {
              "internalType": "string",
              "name": "phase",
              "type": "string"
            },
            {
              "internalType": "string",
              "name": "location",
              "type": "string"
            },
            {
              "internalType": "string",
              "name": "compensation",
              "type": "string"
            },
            {
              "internalType": "address",
              "name": "sponsor",
              "type": "address"
            },
            {
              "internalType": "bool",
              "name": "active",
              "type": "bool"
            },
            {
              "internalType": "uint8",
              "name": "minAge",
              "type": "uint8"
            },
            {
              "internalType": "uint8",
              "name": "maxAge",
              "type": "uint8"
            },
            {
              "internalType": "bool",
              "name": "requiresDiabetes",
              "type": "bool"
            },
            {
              "internalType": "uint16",
              "name": "minHb",
              "type": "uint16"
            },
            {
              "internalType": "uint8",
              "name": "genderRequirement",
              "type": "uint8"
            },
            {
              "internalType": "uint8",
              "name": "minHeight",
              "type": "uint8"
            },
            {
              "internalType": "uint16",
              "name": "maxWeight",
              "type": "uint16"
            },
            {
              "internalType": "bool",
              "name": "requiresNonSmoker",
              "type": "bool"
            },
            {
              "internalType": "bool",
              "name": "requiresNormalBP",
              "type": "bool"
            },
            {
              "internalType": "uint256",
              "name": "endTime",
              "type": "uint256"
            },
            {
              "internalType": "bool",
              "name": "encryptedCriteria",
              "type": "bool"
            }
          ],
          "internalType": "struct TrialManager.Trial",
          "name": "trial",
          "type": "tuple"
        }
      ],
      "name": "requireTrialOpen",
      "outputs": [],
      "stateMutability": "view",
      "type": "function"
    },
    {
      "inputs": [
        {
          "internalType": "address",
          "name": "patientDocumentStore",
          "type": "address"
        },
        {
          "internalType": "bytes32",
          "name": "docSchemaHash",
          "type": "bytes32"
        },
        {
          "internalType": "bytes32[]",
          "name": "_publicInputs",
          "type": "bytes32[]"
        },
        {
          "internalType": "uint256",
          "name": "_docBaseIndex",
          "type": "uint256"
        },
        {
          "internalType": "uint256",
          "name": "_nullifier",
          "type": "uint256"
        },
        {
          "internalType": "uint256",
          "name": "_trialId",
          "type": "uint256"
        }
      ],
      "name": "verifyDocumentBinding",
      "outputs": [],
      "stateMutability": "view",
      "type": "function"
    },
    {
      "inputs": [
        {
          "components": [
            {
              "internalType": "address",
              "name": "trialManager",
              "type": "address"
            },
            {
              "internalType": "address",
              "name": "patientRegistry",
              "type": "address"
            },
            {
              "internalType": "address",
              "name": "eligibilityVerifier",
              "type": "address"
            },
            {
              "internalType": "address",
              "name": "eligibilityVerifierEncrypted",
              "type": "address"
            },
            {
              "internalType": "address",
              "name": "patientDocumentStore",
              "type": "address"
            }
          ],
          "internalType": "struct EligibilityProofLib.ProofAddrs",
          "name": "addrs",
          "type": "tuple"
        },
        {
          "internalType": "bytes32",
          "name": "criteriaSchemaHash",
          "type": "bytes32"
        },
        {
          "internalType": "bytes32",
          "name": "docSchemaHash",
          "type": "bytes32"
        },
        {
          "internalType": "uint256",
          "name": "eligibilityPublicInputCount",
          "type": "uint256"
        },
        {
          "internalType": "uint256",
          "name": "eligibilityEncryptedPublicInputCount",
          "type": "uint256"
        },
        {
          "internalType": "bytes",
          "name": "_proof",
          "type": "bytes"
        },
        {
          "internalType": "bytes32[]",
          "name": "_publicInputs",
          "type": "bytes32[]"
        },
        {
          "internalType": "uint256",
          "name": "_trialId",
          "type": "uint256"
        },
        {
          "internalType": "uint256",
          "name": "_nullifier",
          "type": "uint256"
        },
        {
          "internalType": "bytes32",
          "name": "_commitment",
          "type": "bytes32"
        },
        {
          "internalType": "bytes32",
          "name": "_expectedFheStageHash",
          "type": "bytes32"
        },
        {
          "internalType": "bool",
          "name": "_encryptedMode",
          "type": "bool"
        }
      ],
      "name": "verifyEligibilityProofCore",
      "outputs": [],
      "stateMutability": "view",
      "type": "function"
    }
  ],
  "bytecode": "0x60808060405234601957611c5f908161001e823930815050f35b5f80fdfe6080806040526004361015610012575f80fd5b5f3560e01c9081637c92caf3146106b95750806381b460e7146101c7578063d57c6e17146100765763e5feffe314610048575f80fd5b604036600319011261007257602061006a610061610927565b60243590611ad4565b604051908152f35b5f80fd5b366003190161020081126100725760a0136100725760405160a081016001600160401b038111828210176101b3576040526100af610927565b81526024356001600160a01b03811681036100725760208201526044356001600160a01b03811681036100725760408201526064356001600160a01b03811681036100725760608201526084356001600160a01b0381168103610072576080820152610124356001600160401b0381116100725736602382011215610072576004810135916001600160401b03831161007257366024848401011161007257610144356001600160401b0381116100725761016e903690600401610967565b9390916101e435938415158503610072576101b1956101c435946101a435946101843594602461016435950190610104359060e4359060c4359060a43590610c17565b005b634e487b7160e01b5f52604160045260245ffd5b60c0366003190112610072576101db610927565b6044356001600160401b038111610072576101fa903690600401610967565b916064359060078201808311610377576001610217828787610a60565b350361060257506006820180831161037757610237602435918686610a60565b35036105c7576001600160a01b03169283156105895761010060449460405195868092632c09f60560e21b8252608435600483015260a43560248301525afa93841561057e575f5f5f905f925f945f995f915f91610507575b50816104fe575b50156104bb576102a887878a610a60565b350361047e5760018601808711610377576102c4908689610a60565b35036104425760028501808611610377576102e0908588610a60565b35036104055760038401808511610377576102fc908487610a60565b35036103c8576004830180841161037757610318908386610a60565b350361038b57600582018092116103775761033292610a60565b350361033a57005b60405162461bcd60e51b8152602060048201526015602482015274096caf240d0c2dcc8d8ca406640dad2e6dac2e8c6d605b1b6044820152606490fd5b634e487b7160e01b5f52601160045260245ffd5b60405162461bcd60e51b8152602060048201526015602482015274096caf240d0c2dcc8d8ca406440dad2e6dac2e8c6d605b1b6044820152606490fd5b60405162461bcd60e51b8152602060048201526015602482015274096caf240d0c2dcc8d8ca406240dad2e6dac2e8c6d605b1b6044820152606490fd5b60405162461bcd60e51b8152602060048201526015602482015274096caf240d0c2dcc8d8ca406040dad2e6dac2e8c6d605b1b6044820152606490fd5b60405162461bcd60e51b81526020600482015260146024820152730828aa640c6e840d0c2e6d040dad2e6dac2e8c6d60631b6044820152606490fd5b60405162461bcd60e51b8152602060048201526015602482015274088dec64086928840d0c2e6d040dad2e6dac2e8c6d605b1b6044820152606490fd5b60405162461bcd60e51b815260206004820152601b60248201527a111bd8dd5b595b9d081b5a5cdcda5b99c81bdc881c995d9bdad959602a1b6044820152606490fd5b9050158a610297565b9a5050505050505050610100843d8211610576575b8161052a61010093836108a3565b810103126100725783516020850151604086015160608701519060808801519260a08901519461056860e061056160c08d01610a84565b9b01610a84565b90919293949599908b610290565b3d915061051c565b6040513d5f823e3d90fd5b60405162461bcd60e51b8152602060048201526016602482015275111bd8dd5b595b9d081cdd1bdc99481b9bdd081cd95d60521b6044820152606490fd5b60405162461bcd60e51b8152602060048201526013602482015272088dec640e6c6d0cadac240dad2e6dac2e8c6d606b1b6044820152606490fd5b9392919050610612848484610a60565b35610678575b83811061062157005b61062c818484610a60565b3561063957600101610618565b60405162461bcd60e51b8152602060048201526017602482015276446f63206669656c6473206d757374206265207a65726f60481b6044820152606490fd5b60405162461bcd60e51b8152602060048201526019602482015278496e76616c6964206861735f646f63756d656e7420666c616760381b6044820152606490fd5b602036600319011261007257600435906001600160401b038211610072576102206003198336030112610072576106ef81610887565b60048201356001600160401b0381116100725761071290600436918501016108e1565b815260248201356001600160401b0381116100725761073790600436918501016108e1565b602082015260448201356001600160401b0381116100725761075f90600436918501016108e1565b604082015260648201356001600160401b0381116100725761078790600436918501016108e1565b60608201526084820135916001600160a01b03831683036100725761020461087c916101b19460808501526107be60a4820161093d565b60a08501526107cf60c4820161094a565b60c08501526107e060e4820161094a565b60e08501526107f2610104820161093d565b6101008501526108056101248201610958565b610120850152610818610144820161094a565b61014085015261082b610164820161094a565b61016085015261083e6101848201610958565b6101808501526108516101a4820161093d565b6101a08501526108646101c4820161093d565b6101c08501526101e48101356101e08501520161093d565b610200820152610997565b61022081019081106001600160401b038211176101b357604052565b601f909101601f19168101906001600160401b038211908210176101b357604052565b6001600160401b0381116101b357601f01601f191660200190565b81601f82011215610072578035906108f8826108c6565b9261090660405194856108a3565b8284526020838301011161007257815f926020809301838601378301015290565b600435906001600160a01b038216820361007257565b3590811515820361007257565b359060ff8216820361007257565b359061ffff8216820361007257565b9181601f84011215610072578235916001600160401b038311610072576020808501948460051b01011161007257565b60a081015115610a25576101e0018051156109e957514210156109b657565b60405162461bcd60e51b815260206004820152600b60248201526a151c9a585b08195b99195960aa1b6044820152606490fd5b60405162461bcd60e51b8152602060048201526014602482015273151c9a585b08191bd95cc81b9bdd08195e1a5cdd60621b6044820152606490fd5b60405162461bcd60e51b8152602060048201526013602482015272547269616c206973206e6f742061637469766560681b6044820152606490fd5b9190811015610a705760051b0190565b634e487b7160e01b5f52603260045260245ffd5b5190811515820361007257565b81601f8201121561007257805190610aa8826108c6565b92610ab660405194856108a3565b8284526020838301011161007257815f9260208093018386015e8301015290565b519060ff8216820361007257565b519061ffff8216820361007257565b15610afb57565b60405162461bcd60e51b815260206004820152601260248201527108c908a40e6e8c2ceca40dad2e6dac2e8c6d60731b6044820152606490fd5b15610b3c57565b60405162461bcd60e51b8152602060048201526018602482015277086e4d2e8cae4d2c240e6c6d0cadac240dad2e6dac2e8c6d60431b6044820152606490fd5b93929180916040865281604087015260608601375f60608286010152601f8019910116830192602060608286030191015281606084015260018060fb1b0382116100725760209260609260051b8092608083013701010190565b15610bdd57565b60405162461bcd60e51b815260206004820152601260248201527124b73b30b634b2102737b4b910383937b7b360711b6044820152606490fd5b9499969a929091979c939895988d15610a7057868c3503611a94578d60011015610a70578760208d013503611a5a578551604051631a7f3c3360e01b81526004810189905295905f90879060249082906001600160a01b03165afa95861561057e575f9661188e575b50610c8a86610997565b61020086015115158115150361184a5761149e57508c0361145d57604084018051909b906001600160a01b031615611425578c60051015610a70575f516020611c335f395f51905f52610ce3910660a08c013514610af4565b8b60061015610a7057610cfb9060c08b013514610b35565b80156113ea576020838101516040516382dba82960e01b81526004810193909352829060249082906001600160a01b03165afa90811561057e575f916113b8575b508a60021015610a7057604089013503611375578960101015610a705761020088013561133a578960071015610a705760ff60c08201511660e0890135036112f9578960081015610a705760ff60e082015116610100890135036112b8578960091015610a7057610100810151156112b05760ff60015b166101208901350361126d5789600a1015610a705761ffff610120820151166101408901350361122d5789600b1015610a705760ff61014082015116610160890135036111ec5789600c1015610a705760ff61016082015116610180890135036111a85789600d1015610a705761ffff610180820151166101a0890135036111645789600e1015610a70576101a08101511561115c5760ff60015b166101c0890135036111185789600f1015610a70576101c00151156111105760ff60015b166101e0880135036110cd57608001516001600160a01b0316926018891115610a70576103008701803560010361108857508860171015610a70576102e0870135036105c7578215610589576044610100926040519485938492632c09f60560e21b8452600484015260248301525afa90811561057e575f5f5f905f925f945f965f915f91611011575b5081611008575b50156104bb578a60111015610a70576102208901350361047e578960121015610a705761024088013503610442578860131015610a705761026087013503610405578760141015610a7057610280860135036103c8578660151015610a70576102a08501350361038b578560161015610a70576102c08401350361033a576020935b60018060a01b0390511691610fb060405196879586948594633a94343960e21b865260048601610b7c565b03915afa801561057e575f90610fcd575b610fcb9150610bd6565b565b506020813d602011611000575b81610fe7602093836108a3565b8101031261007257610ffb610fcb91610a84565b610fc1565b3d9150610fda565b9050155f610f03565b975050505050505050610100813d8211611080575b8161103461010093836108a3565b810103126100725780516020820151604083015160608401519060808501519260a08601519461107260e061106b60c08a01610a84565b9801610a84565b90919293949596905f610efc565b3d9150611026565b9799989793505050506018851115610a7057356106785760115b601881106110b557506020939495610f85565b6110c0818686610a60565b35610639576001016110a2565b60405162461bcd60e51b815260206004820152601b60248201527a04372697465726961206d69736d617463683a206e6f726d616c425602c1b6044820152606490fd5b60ff5f610e72565b60405162461bcd60e51b815260206004820152601c60248201527b21b934ba32b934b09036b4b9b6b0ba31b41d103737b729b6b7b5b2b960211b6044820152606490fd5b60ff5f610e4e565b60405162461bcd60e51b815260206004820152601c60248201527b10dc9a5d195c9a58481b5a5cdb585d18da0e881b585e15d95a59da1d60221b6044820152606490fd5b60405162461bcd60e51b815260206004820152601c60248201527b10dc9a5d195c9a58481b5a5cdb585d18da0e881b5a5b92195a59da1d60221b6044820152606490fd5b60405162461bcd60e51b815260206004820152601960248201527821b934ba32b934b09036b4b9b6b0ba31b41d1033b2b73232b960391b6044820152606490fd5b60405162461bcd60e51b815260206004820152601860248201527721b934ba32b934b09036b4b9b6b0ba31b41d1036b4b7243160411b6044820152606490fd5b60405162461bcd60e51b815260206004820152601b60248201527a4372697465726961206d69736d617463683a20646961626574657360281b6044820152606490fd5b60ff5f610db3565b60405162461bcd60e51b81526020600482015260196024820152784372697465726961206d69736d617463683a206d617841676560381b6044820152606490fd5b60405162461bcd60e51b81526020600482015260196024820152784372697465726961206d69736d617463683a206d696e41676560381b6044820152606490fd5b60405162461bcd60e51b8152602060048201526013602482015272506c61696e74657874206d6f646520666c616760681b6044820152606490fd5b60405162461bcd60e51b815260206004820152601b60248201527a0a0e4deccd2d8ca40c6dedadad2e8dacadce840dad2e6dac2e8c6d602b1b6044820152606490fd5b90506020813d6020116113e2575b816113d3602093836108a3565b8101031261007257515f610d3c565b3d91506113c6565b60405162461bcd60e51b815260206004820152601360248201527210dbdb5b5a5d1b595b9d081c995c5d5a5c9959606a1b6044820152606490fd5b60405162461bcd60e51b815260206004820152601060248201526f15995c9a599a595c881b9bdd081cd95d60821b6044820152606490fd5b60405162461bcd60e51b81526020600482015260196024820152784578706563746564203235207075626c696320696e7075747360381b6044820152606490fd5b92505091508a03611809576060820180519099906001600160a01b0316156117c7578a60031015610a70575f516020611c335f395f51905f526114e7910660608a013514610af4565b8960041015610a70576114ff90608089013514610b35565b80516115159083906001600160a01b0316611ad4565b8960051015610a70575f516020611c335f395f51905f52900660a088013503611776578860061015610a7057600160c08801350361173b57608001516001600160a01b031692600e891115610a70576101c0870180356001036116f6575088600d1015610a70576101a0870135036105c7578215610589576044610100926040519485938492632c09f60560e21b8452600484015260248301525afa90811561057e575f5f5f905f925f945f965f915f91611686575b508161167d575b50156104bb578a60071015610a705760e08901350361047e578960081015610a705761010088013503610442578860091015610a7057610120870135036104055787600a1015610a7057610140860135036103c85786600b1015610a70576101608501350361038b5785600c1015610a70576101808401350361033a5760209360018060a01b0390511691610fb060405196879586948594633a94343960e21b865260048601610b7c565b9050155f6115d2565b975050505050505050610100813d82116116ee575b816116a961010093836108a3565b810103126100725780516020820151604083015160608401519060808501519260a0860151946116e060e061106b60c08a01610a84565b90919293949596905f6115cb565b3d915061169b565b979998979350505050600e851115610a7057356106785760075b600e811061172357506020939495610f85565b61172e818686610a60565b3561063957600101611710565b60405162461bcd60e51b8152602060048201526013602482015272456e63727970746564206d6f646520666c616760681b6044820152606490fd5b60405162461bcd60e51b815260206004820152602360248201527f456e637279707465642063726974657269612062696e64696e67206d69736d616044820152620e8c6d60eb1b6064820152608490fd5b60405162461bcd60e51b815260206004820152601a602482015279115b98dc9e5c1d1959081d995c9a599a595c881b9bdd081cd95d60321b6044820152606490fd5b60405162461bcd60e51b81526020600482015260196024820152784578706563746564203135207075626c696320696e7075747360381b6044820152606490fd5b60405162461bcd60e51b815260206004820152601c60248201527b0a8e4d2c2d840c6e4d2e8cae4d2c240dadec8ca40dad2e6dac2e8c6d60231b6044820152606490fd5b9095503d805f833e6118a081836108a3565b810190602081830312610072578051906001600160401b03821161007257016102208183031261007257604051916118d783610887565b81516001600160401b03811161007257816118f3918401610a91565b835260208201516001600160401b0381116100725781611914918401610a91565b602084015260408201516001600160401b0381116100725781611938918401610a91565b60408401526060820151906001600160401b0382116100725761195c918301610a91565b606083015260808101516001600160a01b038116810361007257611a4d9161020091608085015261198f60a08201610a84565b60a08501526119a060c08201610ad7565b60c08501526119b160e08201610ad7565b60e08501526119c36101008201610a84565b6101008501526119d66101208201610ae5565b6101208501526119e96101408201610ad7565b6101408501526119fc6101608201610ad7565b610160850152611a0f6101808201610ae5565b610180850152611a226101a08201610a84565b6101a0850152611a356101c08201610a84565b6101c08501526101e08101516101e085015201610a84565b610200820152945f610c80565b60405162461bcd60e51b815260206004820152601260248201527109cead8d8d2ccd2cae440dad2e6dac2e8c6d60731b6044820152606490fd5b60405162461bcd60e51b815260206004820152601860248201527714d8dbdc19481b5a5cdb585d18da0e881d1c9a585b17da5960421b6044820152606490fd5b604051631871407b60e21b8152600481019290925261012090829060249082906001600160a01b03165afa90811561057e575f91611b8b575b508051906020810151906040810151906060810151608082015160a08301519060c08401519261010060e0860151950151956040519760208901998a5260408901526060880152608087015260a086015260c085015260e08401526101008301526101208201526101208152611b85610140826108a3565b51902090565b9050610120813d8211611c2a575b81611ba761012093836108a3565b8101031261007257604051906101208201906001600160401b038211838310176101b35761010091604052805183526020810151602084015260408101516040840152606081015160608401526080810151608084015260a081015160a084015260c081015160c084015260e081015160e084015201516101008201525f611b0d565b3d9150611b9956fe30644e72e131a029b85045b68181585d2833e84879b9709143e1f593f0000001a164736f6c634300081b000a",
  "linkReferences": {},
  "deployedLinkReferences": {}
}