{
  "_format": "hh-sol-artifact-1",
  "contractName": "EligibilityEngineTestHarness",
  "sourceName": "contracts/test/EligibilityEngineTestHarness.sol",
  "abi": [
    {
      "inputs": [
        {
          "internalType": "address",
          "name": "_patientRegistry",
          "type": "address"
        },
        {
          "internalType": "address",
          "name": "_trialManager",
          "type": "address"
        },
        {
          "internalType": "address",
          "name": "_consentManager",
          "type": "address"
        }
      ],
      "stateMutability": "nonpayable",
      "type": "constructor"
    },
    {
      "inputs": [
        {
          "internalType": "bytes32",
          "name": "handle",
          "type": "bytes32"
        },
        {
          "internalType": "address",
          "name": "sender",
          "type": "address"
        }
      ],
      "name": "SenderNotAllowedToUseHandle",
      "type": "error"
    },
    {
      "inputs": [],
      "name": "TestHelpersDisabled",
      "type": "error"
    },
    {
      "inputs": [],
      "name": "ZamaProtocolUnsupported",
      "type": "error"
    },
    {
      "anonymous": false,
      "inputs": [
        {
          "indexed": true,
          "internalType": "uint8",
          "name": "kind",
          "type": "uint8"
        },
        {
          "indexed": false,
          "internalType": "uint40",
          "name": "newEpoch",
          "type": "uint40"
        },
        {
          "indexed": true,
          "internalType": "address",
          "name": "newConsumer",
          "type": "address"
        }
      ],
      "name": "AclEpochRotated",
      "type": "event"
    },
    {
      "anonymous": false,
      "inputs": [
        {
          "indexed": true,
          "internalType": "bytes32",
          "name": "handle",
          "type": "bytes32"
        },
        {
          "indexed": true,
          "internalType": "address",
          "name": "consumer",
          "type": "address"
        },
        {
          "indexed": false,
          "internalType": "uint40",
          "name": "epoch",
          "type": "uint40"
        },
        {
          "indexed": false,
          "internalType": "uint8",
          "name": "kind",
          "type": "uint8"
        }
      ],
      "name": "AclGranted",
      "type": "event"
    },
    {
      "anonymous": false,
      "inputs": [
        {
          "indexed": true,
          "internalType": "uint256",
          "name": "nullifier",
          "type": "uint256"
        },
        {
          "indexed": true,
          "internalType": "uint256",
          "name": "trialId",
          "type": "uint256"
        },
        {
          "indexed": false,
          "internalType": "enum EligibilityEngine.ApplicationStatus",
          "name": "status",
          "type": "uint8"
        }
      ],
      "name": "AnonymousApplicationStatusUpdated",
      "type": "event"
    },
    {
      "anonymous": false,
      "inputs": [
        {
          "indexed": true,
          "internalType": "uint256",
          "name": "nullifier",
          "type": "uint256"
        },
        {
          "indexed": true,
          "internalType": "uint256",
          "name": "trialId",
          "type": "uint256"
        }
      ],
      "name": "AnonymousEligibilityStageCancelled",
      "type": "event"
    },
    {
      "anonymous": false,
      "inputs": [
        {
          "indexed": true,
          "internalType": "uint256",
          "name": "nullifier",
          "type": "uint256"
        },
        {
          "indexed": true,
          "internalType": "uint256",
          "name": "trialId",
          "type": "uint256"
        },
        {
          "indexed": false,
          "internalType": "bytes32",
          "name": "finalCt",
          "type": "bytes32"
        }
      ],
      "name": "AnonymousEligibilityStaged",
      "type": "event"
    },
    {
      "anonymous": false,
      "inputs": [
        {
          "indexed": true,
          "internalType": "uint256",
          "name": "nullifier",
          "type": "uint256"
        },
        {
          "indexed": true,
          "internalType": "uint256",
          "name": "trialId",
          "type": "uint256"
        }
      ],
      "name": "AnonymousEncryptedPropensityCommitted",
      "type": "event"
    },
    {
      "anonymous": false,
      "inputs": [
        {
          "indexed": true,
          "internalType": "address",
          "name": "patient",
          "type": "address"
        },
        {
          "indexed": true,
          "internalType": "uint256",
          "name": "trialId",
          "type": "uint256"
        },
        {
          "indexed": false,
          "internalType": "enum EligibilityEngine.ApplicationStatus",
          "name": "status",
          "type": "uint8"
        },
        {
          "indexed": false,
          "internalType": "bytes",
          "name": "message",
          "type": "bytes"
        }
      ],
      "name": "ApplicationStatusUpdated",
      "type": "event"
    },
    {
      "anonymous": false,
      "inputs": [
        {
          "indexed": true,
          "internalType": "address",
          "name": "patient",
          "type": "address"
        },
        {
          "indexed": true,
          "internalType": "uint256",
          "name": "trialId",
          "type": "uint256"
        }
      ],
      "name": "AppliedToTrial",
      "type": "event"
    },
    {
      "anonymous": false,
      "inputs": [
        {
          "indexed": true,
          "internalType": "bytes32",
          "name": "role",
          "type": "bytes32"
        },
        {
          "indexed": false,
          "internalType": "address",
          "name": "oldAddr",
          "type": "address"
        },
        {
          "indexed": false,
          "internalType": "address",
          "name": "newAddr",
          "type": "address"
        }
      ],
      "name": "AuthorizedReaderChanged",
      "type": "event"
    },
    {
      "anonymous": false,
      "inputs": [
        {
          "indexed": true,
          "internalType": "uint256",
          "name": "commitment",
          "type": "uint256"
        },
        {
          "indexed": false,
          "internalType": "uint256",
          "name": "trialCount",
          "type": "uint256"
        }
      ],
      "name": "BatchEligibilityComputed",
      "type": "event"
    },
    {
      "anonymous": false,
      "inputs": [
        {
          "indexed": true,
          "internalType": "uint256",
          "name": "commitment",
          "type": "uint256"
        },
        {
          "indexed": true,
          "internalType": "uint256",
          "name": "trialId",
          "type": "uint256"
        },
        {
          "indexed": true,
          "internalType": "uint256",
          "name": "nullifier",
          "type": "uint256"
        }
      ],
      "name": "BatchEligibilityTrialChecked",
      "type": "event"
    },
    {
      "anonymous": false,
      "inputs": [
        {
          "indexed": true,
          "internalType": "uint256",
          "name": "nullifier",
          "type": "uint256"
        },
        {
          "indexed": true,
          "internalType": "uint256",
          "name": "trialId",
          "type": "uint256"
        }
      ],
      "name": "DocumentSponsorAuthorizeSkipped",
      "type": "event"
    },
    {
      "anonymous": false,
      "inputs": [
        {
          "indexed": true,
          "internalType": "address",
          "name": "patient",
          "type": "address"
        },
        {
          "indexed": true,
          "internalType": "uint256",
          "name": "trialId",
          "type": "uint256"
        }
      ],
      "name": "EligibilityComputed",
      "type": "event"
    },
    {
      "anonymous": false,
      "inputs": [
        {
          "indexed": true,
          "internalType": "uint256",
          "name": "nullifier",
          "type": "uint256"
        },
        {
          "indexed": true,
          "internalType": "uint256",
          "name": "trialId",
          "type": "uint256"
        },
        {
          "indexed": false,
          "internalType": "bytes32",
          "name": "resultHash",
          "type": "bytes32"
        },
        {
          "indexed": false,
          "internalType": "bytes32",
          "name": "fheStageHash",
          "type": "bytes32"
        },
        {
          "indexed": false,
          "internalType": "bytes32",
          "name": "criteriaSchemaHash",
          "type": "bytes32"
        },
        {
          "indexed": false,
          "internalType": "bool",
          "name": "eligible",
          "type": "bool"
        }
      ],
      "name": "EligibilityProofVerified",
      "type": "event"
    },
    {
      "anonymous": false,
      "inputs": [
        {
          "indexed": true,
          "internalType": "address",
          "name": "patient",
          "type": "address"
        },
        {
          "indexed": true,
          "internalType": "uint256",
          "name": "trialId",
          "type": "uint256"
        }
      ],
      "name": "EligibilityScoreComputed",
      "type": "event"
    },
    {
      "anonymous": false,
      "inputs": [
        {
          "indexed": true,
          "internalType": "address",
          "name": "newOwner",
          "type": "address"
        }
      ],
      "name": "OwnershipAccepted",
      "type": "event"
    },
    {
      "anonymous": false,
      "inputs": [
        {
          "indexed": true,
          "internalType": "address",
          "name": "proposedOwner",
          "type": "address"
        }
      ],
      "name": "OwnershipProposed",
      "type": "event"
    },
    {
      "anonymous": false,
      "inputs": [
        {
          "indexed": true,
          "internalType": "uint256",
          "name": "trialId",
          "type": "uint256"
        },
        {
          "indexed": true,
          "internalType": "uint256",
          "name": "nullifier",
          "type": "uint256"
        }
      ],
      "name": "ScoreLeaderboardAggregateFailed",
      "type": "event"
    },
    {
      "anonymous": false,
      "inputs": [
        {
          "indexed": true,
          "internalType": "uint256",
          "name": "trialId",
          "type": "uint256"
        },
        {
          "indexed": true,
          "internalType": "uint256",
          "name": "nullifier",
          "type": "uint256"
        }
      ],
      "name": "ScoreLeaderboardApplicantFailed",
      "type": "event"
    },
    {
      "anonymous": false,
      "inputs": [
        {
          "indexed": true,
          "internalType": "uint256",
          "name": "nullifier",
          "type": "uint256"
        },
        {
          "indexed": true,
          "internalType": "uint256",
          "name": "trialId",
          "type": "uint256"
        }
      ],
      "name": "SilentApply",
      "type": "event"
    },
    {
      "inputs": [],
      "name": "CRITERIA_SCHEMA_HASH",
      "outputs": [
        {
          "internalType": "bytes32",
          "name": "",
          "type": "bytes32"
        }
      ],
      "stateMutability": "view",
      "type": "function"
    },
    {
      "inputs": [],
      "name": "DOC_SCHEMA_HASH",
      "outputs": [
        {
          "internalType": "bytes32",
          "name": "",
          "type": "bytes32"
        }
      ],
      "stateMutability": "view",
      "type": "function"
    },
    {
      "inputs": [],
      "name": "ELIGIBILITY_ENCRYPTED_PUBLIC_INPUT_COUNT",
      "outputs": [
        {
          "internalType": "uint256",
          "name": "",
          "type": "uint256"
        }
      ],
      "stateMutability": "view",
      "type": "function"
    },
    {
      "inputs": [],
      "name": "ELIGIBILITY_PUBLIC_INPUT_COUNT",
      "outputs": [
        {
          "internalType": "uint256",
          "name": "",
          "type": "uint256"
        }
      ],
      "stateMutability": "view",
      "type": "function"
    },
    {
      "inputs": [],
      "name": "READER_CHANGE_DELAY",
      "outputs": [
        {
          "internalType": "uint256",
          "name": "",
          "type": "uint256"
        }
      ],
      "stateMutability": "view",
      "type": "function"
    },
    {
      "inputs": [],
      "name": "STAGING_TTL",
      "outputs": [
        {
          "internalType": "uint256",
          "name": "",
          "type": "uint256"
        }
      ],
      "stateMutability": "view",
      "type": "function"
    },
    {
      "inputs": [],
      "name": "TEST_HELPERS_CHANGE_DELAY",
      "outputs": [
        {
          "internalType": "uint256",
          "name": "",
          "type": "uint256"
        }
      ],
      "stateMutability": "view",
      "type": "function"
    },
    {
      "inputs": [],
      "name": "acceptOwnership",
      "outputs": [],
      "stateMutability": "nonpayable",
      "type": "function"
    },
    {
      "inputs": [
        {
          "internalType": "uint8",
          "name": "kind",
          "type": "uint8"
        }
      ],
      "name": "aclEpochForKind",
      "outputs": [
        {
          "internalType": "uint40",
          "name": "",
          "type": "uint40"
        }
      ],
      "stateMutability": "view",
      "type": "function"
    },
    {
      "inputs": [
        {
          "internalType": "uint256",
          "name": "",
          "type": "uint256"
        },
        {
          "internalType": "uint256",
          "name": "",
          "type": "uint256"
        }
      ],
      "name": "anonymousApplicationAccepted",
      "outputs": [
        {
          "internalType": "bool",
          "name": "",
          "type": "bool"
        }
      ],
      "stateMutability": "view",
      "type": "function"
    },
    {
      "inputs": [
        {
          "internalType": "uint256",
          "name": "",
          "type": "uint256"
        },
        {
          "internalType": "uint256",
          "name": "",
          "type": "uint256"
        }
      ],
      "name": "anonymousApplications",
      "outputs": [
        {
          "internalType": "enum EligibilityEngine.ApplicationStatus",
          "name": "",
          "type": "uint8"
        }
      ],
      "stateMutability": "view",
      "type": "function"
    },
    {
      "inputs": [
        {
          "internalType": "bytes32",
          "name": "_role",
          "type": "bytes32"
        }
      ],
      "name": "applyAuthorizedReader",
      "outputs": [],
      "stateMutability": "nonpayable",
      "type": "function"
    },
    {
      "inputs": [],
      "name": "applyDataAccessLog",
      "outputs": [],
      "stateMutability": "nonpayable",
      "type": "function"
    },
    {
      "inputs": [],
      "name": "applyTestHelpersEnabled",
      "outputs": [],
      "stateMutability": "nonpayable",
      "type": "function"
    },
    {
      "inputs": [
        {
          "internalType": "uint256",
          "name": "",
          "type": "uint256"
        },
        {
          "internalType": "bool",
          "name": "",
          "type": "bool"
        },
        {
          "internalType": "bytes",
          "name": "",
          "type": "bytes"
        }
      ],
      "name": "applyToTrial",
      "outputs": [],
      "stateMutability": "pure",
      "type": "function"
    },
    {
      "inputs": [
        {
          "internalType": "uint256",
          "name": "",
          "type": "uint256"
        },
        {
          "internalType": "uint256",
          "name": "",
          "type": "uint256"
        }
      ],
      "name": "attestationCriteriaSchemaHashes",
      "outputs": [
        {
          "internalType": "bytes32",
          "name": "",
          "type": "bytes32"
        }
      ],
      "stateMutability": "view",
      "type": "function"
    },
    {
      "inputs": [
        {
          "internalType": "uint256",
          "name": "",
          "type": "uint256"
        },
        {
          "internalType": "uint256",
          "name": "",
          "type": "uint256"
        }
      ],
      "name": "attestationFheStageHashes",
      "outputs": [
        {
          "internalType": "bytes32",
          "name": "",
          "type": "bytes32"
        }
      ],
      "stateMutability": "view",
      "type": "function"
    },
    {
      "inputs": [
        {
          "internalType": "uint256",
          "name": "",
          "type": "uint256"
        },
        {
          "internalType": "uint256",
          "name": "",
          "type": "uint256"
        }
      ],
      "name": "attestationProfileCommitments",
      "outputs": [
        {
          "internalType": "bytes32",
          "name": "",
          "type": "bytes32"
        }
      ],
      "stateMutability": "view",
      "type": "function"
    },
    {
      "inputs": [
        {
          "internalType": "uint256",
          "name": "_nullifier",
          "type": "uint256"
        },
        {
          "internalType": "uint256",
          "name": "_trialId",
          "type": "uint256"
        }
      ],
      "name": "attestationReceipt",
      "outputs": [
        {
          "components": [
            {
              "internalType": "bool",
              "name": "verified",
              "type": "bool"
            },
            {
              "internalType": "bytes32",
              "name": "resultHash",
              "type": "bytes32"
            },
            {
              "internalType": "bytes32",
              "name": "profileCommitment",
              "type": "bytes32"
            },
            {
              "internalType": "bytes32",
              "name": "criteriaSchemaHash",
              "type": "bytes32"
            },
            {
              "internalType": "bytes32",
              "name": "fheStageHash",
              "type": "bytes32"
            }
          ],
          "internalType": "struct EligibilityEngine.AttestationReceipt",
          "name": "",
          "type": "tuple"
        }
      ],
      "stateMutability": "view",
      "type": "function"
    },
    {
      "inputs": [],
      "name": "authorizedRegistry",
      "outputs": [
        {
          "internalType": "address",
          "name": "",
          "type": "address"
        }
      ],
      "stateMutability": "view",
      "type": "function"
    },
    {
      "inputs": [],
      "name": "automationContract",
      "outputs": [
        {
          "internalType": "address",
          "name": "",
          "type": "address"
        }
      ],
      "stateMutability": "view",
      "type": "function"
    },
    {
      "inputs": [
        {
          "internalType": "uint256",
          "name": "",
          "type": "uint256"
        },
        {
          "internalType": "uint256",
          "name": "",
          "type": "uint256"
        }
      ],
      "name": "batchEligibilityChecked",
      "outputs": [
        {
          "internalType": "bool",
          "name": "",
          "type": "bool"
        }
      ],
      "stateMutability": "view",
      "type": "function"
    },
    {
      "inputs": [
        {
          "internalType": "bytes32",
          "name": "_role",
          "type": "bytes32"
        }
      ],
      "name": "cancelAuthorizedReaderSchedule",
      "outputs": [],
      "stateMutability": "nonpayable",
      "type": "function"
    },
    {
      "inputs": [
        {
          "internalType": "uint256",
          "name": "_nullifier",
          "type": "uint256"
        },
        {
          "internalType": "uint256",
          "name": "_trialId",
          "type": "uint256"
        },
        {
          "internalType": "address",
          "name": "_permitRecipient",
          "type": "address"
        }
      ],
      "name": "cancelStagedAnonymousEligibility",
      "outputs": [],
      "stateMutability": "nonpayable",
      "type": "function"
    },
    {
      "inputs": [
        {
          "internalType": "address",
          "name": "",
          "type": "address"
        },
        {
          "internalType": "uint256",
          "name": "",
          "type": "uint256"
        }
      ],
      "name": "checkEligibility",
      "outputs": [],
      "stateMutability": "pure",
      "type": "function"
    },
    {
      "inputs": [
        {
          "internalType": "uint256",
          "name": "_commitment",
          "type": "uint256"
        },
        {
          "internalType": "uint256[]",
          "name": "_trialIds",
          "type": "uint256[]"
        },
        {
          "internalType": "uint256[]",
          "name": "_nullifiers",
          "type": "uint256[]"
        },
        {
          "internalType": "address",
          "name": "_permitRecipient",
          "type": "address"
        }
      ],
      "name": "checkEligibilityBatch",
      "outputs": [
        {
          "internalType": "bytes32[]",
          "name": "finalCts",
          "type": "bytes32[]"
        }
      ],
      "stateMutability": "nonpayable",
      "type": "function"
    },
    {
      "inputs": [
        {
          "internalType": "uint256",
          "name": "_commitment",
          "type": "uint256"
        },
        {
          "internalType": "uint256",
          "name": "_trialId",
          "type": "uint256"
        }
      ],
      "name": "compareCachedEligibilityPaths",
      "outputs": [
        {
          "internalType": "bytes32",
          "name": "cachedFinal",
          "type": "bytes32"
        },
        {
          "internalType": "bytes32",
          "name": "refreshedFinal",
          "type": "bytes32"
        }
      ],
      "stateMutability": "nonpayable",
      "type": "function"
    },
    {
      "inputs": [
        {
          "internalType": "uint256",
          "name": "_commitment",
          "type": "uint256"
        },
        {
          "internalType": "uint256",
          "name": "plaintextTrialId",
          "type": "uint256"
        },
        {
          "internalType": "uint256",
          "name": "encryptedTrialId",
          "type": "uint256"
        }
      ],
      "name": "comparePlaintextVsEncryptedEligibility",
      "outputs": [
        {
          "internalType": "bytes32",
          "name": "plaintextFinal",
          "type": "bytes32"
        },
        {
          "internalType": "bytes32",
          "name": "encryptedFinal",
          "type": "bytes32"
        },
        {
          "internalType": "bytes32",
          "name": "plaintextScore",
          "type": "bytes32"
        },
        {
          "internalType": "bytes32",
          "name": "encryptedScore",
          "type": "bytes32"
        }
      ],
      "stateMutability": "nonpayable",
      "type": "function"
    },
    {
      "inputs": [],
      "name": "confidentialProtocolId",
      "outputs": [
        {
          "internalType": "uint256",
          "name": "",
          "type": "uint256"
        }
      ],
      "stateMutability": "view",
      "type": "function"
    },
    {
      "inputs": [],
      "name": "consentGate",
      "outputs": [
        {
          "internalType": "contract EncryptedConsentGate",
          "name": "",
          "type": "address"
        }
      ],
      "stateMutability": "view",
      "type": "function"
    },
    {
      "inputs": [],
      "name": "consentManager",
      "outputs": [
        {
          "internalType": "contract ConsentManager",
          "name": "",
          "type": "address"
        }
      ],
      "stateMutability": "view",
      "type": "function"
    },
    {
      "inputs": [],
      "name": "dataAccessLog",
      "outputs": [
        {
          "internalType": "contract DataAccessLog",
          "name": "",
          "type": "address"
        }
      ],
      "stateMutability": "view",
      "type": "function"
    },
    {
      "inputs": [],
      "name": "dataAccessLogChangeEta",
      "outputs": [
        {
          "internalType": "uint256",
          "name": "",
          "type": "uint256"
        }
      ],
      "stateMutability": "view",
      "type": "function"
    },
    {
      "inputs": [],
      "name": "eligibilityVerifier",
      "outputs": [
        {
          "internalType": "contract IHonkVerifier",
          "name": "",
          "type": "address"
        }
      ],
      "stateMutability": "view",
      "type": "function"
    },
    {
      "inputs": [],
      "name": "eligibilityVerifierEncrypted",
      "outputs": [
        {
          "internalType": "contract IHonkVerifier",
          "name": "",
          "type": "address"
        }
      ],
      "stateMutability": "view",
      "type": "function"
    },
    {
      "inputs": [
        {
          "internalType": "uint256",
          "name": "_trialId",
          "type": "uint256"
        }
      ],
      "name": "encryptedCriteriaBindingHash",
      "outputs": [
        {
          "internalType": "bytes32",
          "name": "",
          "type": "bytes32"
        }
      ],
      "stateMutability": "view",
      "type": "function"
    },
    {
      "inputs": [
        {
          "internalType": "uint256",
          "name": "_commitment",
          "type": "uint256"
        },
        {
          "internalType": "uint256",
          "name": "_nullifier",
          "type": "uint256"
        },
        {
          "internalType": "uint256",
          "name": "_trialId",
          "type": "uint256"
        },
        {
          "internalType": "address",
          "name": "_permitRecipient",
          "type": "address"
        },
        {
          "internalType": "address",
          "name": "_consentWallet",
          "type": "address"
        },
        {
          "internalType": "ebool",
          "name": "_consent",
          "type": "bytes32"
        },
        {
          "internalType": "bytes",
          "name": "_proof",
          "type": "bytes"
        },
        {
          "internalType": "bytes32[]",
          "name": "_publicInputs",
          "type": "bytes32[]"
        }
      ],
      "name": "finalizeAnonymousEligibilityWithConsent",
      "outputs": [
        {
          "internalType": "ebool",
          "name": "finalResult",
          "type": "bytes32"
        }
      ],
      "stateMutability": "nonpayable",
      "type": "function"
    },
    {
      "inputs": [
        {
          "internalType": "uint256",
          "name": "_commitment",
          "type": "uint256"
        },
        {
          "internalType": "uint256",
          "name": "_nullifier",
          "type": "uint256"
        },
        {
          "internalType": "uint256",
          "name": "_trialId",
          "type": "uint256"
        },
        {
          "internalType": "address",
          "name": "_permitRecipient",
          "type": "address"
        },
        {
          "internalType": "address",
          "name": "_consentWallet",
          "type": "address"
        },
        {
          "internalType": "bytes",
          "name": "_proof",
          "type": "bytes"
        },
        {
          "internalType": "bytes32[]",
          "name": "_publicInputs",
          "type": "bytes32[]"
        }
      ],
      "name": "finalizeAnonymousEligibilityWithProof",
      "outputs": [
        {
          "internalType": "ebool",
          "name": "finalResult",
          "type": "bytes32"
        }
      ],
      "stateMutability": "nonpayable",
      "type": "function"
    },
    {
      "inputs": [
        {
          "internalType": "uint256",
          "name": "_nullifier",
          "type": "uint256"
        },
        {
          "internalType": "uint256",
          "name": "_trialId",
          "type": "uint256"
        }
      ],
      "name": "getAnonymousApplicationStatus",
      "outputs": [
        {
          "internalType": "enum EligibilityEngine.ApplicationStatus",
          "name": "",
          "type": "uint8"
        }
      ],
      "stateMutability": "view",
      "type": "function"
    },
    {
      "inputs": [
        {
          "internalType": "uint256",
          "name": "_nullifier",
          "type": "uint256"
        },
        {
          "internalType": "uint256",
          "name": "_trialId",
          "type": "uint256"
        }
      ],
      "name": "getAnonymousResult",
      "outputs": [
        {
          "internalType": "ebool",
          "name": "",
          "type": "bytes32"
        }
      ],
      "stateMutability": "view",
      "type": "function"
    },
    {
      "inputs": [
        {
          "internalType": "uint256",
          "name": "_nullifier",
          "type": "uint256"
        },
        {
          "internalType": "uint256",
          "name": "_trialId",
          "type": "uint256"
        }
      ],
      "name": "getAnonymousResultForVault",
      "outputs": [
        {
          "internalType": "ebool",
          "name": "",
          "type": "bytes32"
        }
      ],
      "stateMutability": "view",
      "type": "function"
    },
    {
      "inputs": [
        {
          "internalType": "uint256",
          "name": "_nullifier",
          "type": "uint256"
        },
        {
          "internalType": "uint256",
          "name": "_trialId",
          "type": "uint256"
        }
      ],
      "name": "getAnonymousScore",
      "outputs": [
        {
          "internalType": "euint8",
          "name": "",
          "type": "bytes32"
        }
      ],
      "stateMutability": "view",
      "type": "function"
    },
    {
      "inputs": [
        {
          "internalType": "uint256",
          "name": "_nullifier",
          "type": "uint256"
        },
        {
          "internalType": "uint256",
          "name": "_trialId",
          "type": "uint256"
        }
      ],
      "name": "getConsentWalletForNullifier",
      "outputs": [
        {
          "internalType": "address",
          "name": "",
          "type": "address"
        }
      ],
      "stateMutability": "view",
      "type": "function"
    },
    {
      "inputs": [
        {
          "internalType": "uint256",
          "name": "_nullifier",
          "type": "uint256"
        },
        {
          "internalType": "uint256",
          "name": "_trialId",
          "type": "uint256"
        }
      ],
      "name": "getDecryptPermitHolder",
      "outputs": [
        {
          "internalType": "address",
          "name": "",
          "type": "address"
        }
      ],
      "stateMutability": "view",
      "type": "function"
    },
    {
      "inputs": [
        {
          "internalType": "address",
          "name": "_patient",
          "type": "address"
        },
        {
          "internalType": "uint256",
          "name": "_trialId",
          "type": "uint256"
        }
      ],
      "name": "getEncryptedResult",
      "outputs": [
        {
          "internalType": "ebool",
          "name": "",
          "type": "bytes32"
        }
      ],
      "stateMutability": "view",
      "type": "function"
    },
    {
      "inputs": [
        {
          "internalType": "address",
          "name": "_patient",
          "type": "address"
        },
        {
          "internalType": "uint256",
          "name": "_trialId",
          "type": "uint256"
        }
      ],
      "name": "getEncryptedScore",
      "outputs": [
        {
          "internalType": "euint8",
          "name": "",
          "type": "bytes32"
        }
      ],
      "stateMutability": "view",
      "type": "function"
    },
    {
      "inputs": [
        {
          "internalType": "uint256",
          "name": "_nullifier",
          "type": "uint256"
        },
        {
          "internalType": "uint256",
          "name": "_trialId",
          "type": "uint256"
        }
      ],
      "name": "isAnonymousApplicationAccepted",
      "outputs": [
        {
          "internalType": "bool",
          "name": "",
          "type": "bool"
        }
      ],
      "stateMutability": "view",
      "type": "function"
    },
    {
      "inputs": [],
      "name": "lastDiffCompareHandles",
      "outputs": [
        {
          "internalType": "bytes32",
          "name": "plaintextFinal",
          "type": "bytes32"
        },
        {
          "internalType": "bytes32",
          "name": "encryptedFinal",
          "type": "bytes32"
        },
        {
          "internalType": "bytes32",
          "name": "plaintextScore",
          "type": "bytes32"
        },
        {
          "internalType": "bytes32",
          "name": "encryptedScore",
          "type": "bytes32"
        }
      ],
      "stateMutability": "view",
      "type": "function"
    },
    {
      "inputs": [],
      "name": "lastDiffEncryptedFinal",
      "outputs": [
        {
          "internalType": "bytes32",
          "name": "",
          "type": "bytes32"
        }
      ],
      "stateMutability": "view",
      "type": "function"
    },
    {
      "inputs": [],
      "name": "lastDiffEncryptedScore",
      "outputs": [
        {
          "internalType": "bytes32",
          "name": "",
          "type": "bytes32"
        }
      ],
      "stateMutability": "view",
      "type": "function"
    },
    {
      "inputs": [],
      "name": "lastDiffPlaintextFinal",
      "outputs": [
        {
          "internalType": "bytes32",
          "name": "",
          "type": "bytes32"
        }
      ],
      "stateMutability": "view",
      "type": "function"
    },
    {
      "inputs": [],
      "name": "lastDiffPlaintextScore",
      "outputs": [
        {
          "internalType": "bytes32",
          "name": "",
          "type": "bytes32"
        }
      ],
      "stateMutability": "view",
      "type": "function"
    },
    {
      "inputs": [],
      "name": "legacyPatientRegistry",
      "outputs": [
        {
          "internalType": "address",
          "name": "",
          "type": "address"
        }
      ],
      "stateMutability": "view",
      "type": "function"
    },
    {
      "inputs": [
        {
          "internalType": "uint256",
          "name": "",
          "type": "uint256"
        },
        {
          "internalType": "uint256",
          "name": "",
          "type": "uint256"
        }
      ],
      "name": "noirResultHashes",
      "outputs": [
        {
          "internalType": "bytes32",
          "name": "",
          "type": "bytes32"
        }
      ],
      "stateMutability": "view",
      "type": "function"
    },
    {
      "inputs": [
        {
          "internalType": "uint256",
          "name": "",
          "type": "uint256"
        },
        {
          "internalType": "uint256",
          "name": "",
          "type": "uint256"
        }
      ],
      "name": "noirVerifiedResults",
      "outputs": [
        {
          "internalType": "bool",
          "name": "",
          "type": "bool"
        }
      ],
      "stateMutability": "view",
      "type": "function"
    },
    {
      "inputs": [
        {
          "internalType": "uint256",
          "name": "_trialId",
          "type": "uint256"
        },
        {
          "internalType": "uint256",
          "name": "_nullifier",
          "type": "uint256"
        }
      ],
      "name": "onDocumentRecorded",
      "outputs": [],
      "stateMutability": "nonpayable",
      "type": "function"
    },
    {
      "inputs": [
        {
          "internalType": "uint256",
          "name": "_nullifier",
          "type": "uint256"
        },
        {
          "internalType": "uint256",
          "name": "_trialId",
          "type": "uint256"
        },
        {
          "internalType": "externalEbool",
          "name": "encryptedResult",
          "type": "bytes32"
        },
        {
          "internalType": "bytes",
          "name": "inputProof",
          "type": "bytes"
        }
      ],
      "name": "overwriteAnonymousResultForTest",
      "outputs": [],
      "stateMutability": "nonpayable",
      "type": "function"
    },
    {
      "inputs": [],
      "name": "owner",
      "outputs": [
        {
          "internalType": "address",
          "name": "",
          "type": "address"
        }
      ],
      "stateMutability": "view",
      "type": "function"
    },
    {
      "inputs": [],
      "name": "patientDocumentStore",
      "outputs": [
        {
          "internalType": "contract PatientDocumentStore",
          "name": "",
          "type": "address"
        }
      ],
      "stateMutability": "view",
      "type": "function"
    },
    {
      "inputs": [],
      "name": "patientRegistry",
      "outputs": [
        {
          "internalType": "contract IAnonymousPatientRegistry",
          "name": "",
          "type": "address"
        }
      ],
      "stateMutability": "view",
      "type": "function"
    },
    {
      "inputs": [],
      "name": "pendingDataAccessLog",
      "outputs": [
        {
          "internalType": "address",
          "name": "",
          "type": "address"
        }
      ],
      "stateMutability": "view",
      "type": "function"
    },
    {
      "inputs": [],
      "name": "pendingOwner",
      "outputs": [
        {
          "internalType": "address",
          "name": "",
          "type": "address"
        }
      ],
      "stateMutability": "view",
      "type": "function"
    },
    {
      "inputs": [
        {
          "internalType": "bytes32",
          "name": "",
          "type": "bytes32"
        }
      ],
      "name": "pendingReaderChanges",
      "outputs": [
        {
          "internalType": "address",
          "name": "",
          "type": "address"
        }
      ],
      "stateMutability": "view",
      "type": "function"
    },
    {
      "inputs": [],
      "name": "pendingTestHelpersValue",
      "outputs": [
        {
          "internalType": "bool",
          "name": "",
          "type": "bool"
        }
      ],
      "stateMutability": "view",
      "type": "function"
    },
    {
      "inputs": [
        {
          "internalType": "address",
          "name": "_newOwner",
          "type": "address"
        }
      ],
      "name": "proposeOwnership",
      "outputs": [],
      "stateMutability": "nonpayable",
      "type": "function"
    },
    {
      "inputs": [
        {
          "internalType": "bytes32",
          "name": "",
          "type": "bytes32"
        }
      ],
      "name": "readerChangeEta",
      "outputs": [
        {
          "internalType": "uint256",
          "name": "",
          "type": "uint256"
        }
      ],
      "stateMutability": "view",
      "type": "function"
    },
    {
      "inputs": [
        {
          "internalType": "uint256",
          "name": "_commitment",
          "type": "uint256"
        },
        {
          "internalType": "uint256",
          "name": "_trialId",
          "type": "uint256"
        }
      ],
      "name": "resetBatchEligibilityCheck",
      "outputs": [],
      "stateMutability": "nonpayable",
      "type": "function"
    },
    {
      "inputs": [
        {
          "internalType": "uint8",
          "name": "kind",
          "type": "uint8"
        },
        {
          "internalType": "address",
          "name": "newConsumer",
          "type": "address"
        }
      ],
      "name": "rotateTrustedContract",
      "outputs": [],
      "stateMutability": "nonpayable",
      "type": "function"
    },
    {
      "inputs": [
        {
          "internalType": "bytes32",
          "name": "_role",
          "type": "bytes32"
        },
        {
          "internalType": "address",
          "name": "_newAddr",
          "type": "address"
        }
      ],
      "name": "scheduleAuthorizedReader",
      "outputs": [],
      "stateMutability": "nonpayable",
      "type": "function"
    },
    {
      "inputs": [
        {
          "internalType": "address",
          "name": "_log",
          "type": "address"
        }
      ],
      "name": "scheduleDataAccessLog",
      "outputs": [],
      "stateMutability": "nonpayable",
      "type": "function"
    },
    {
      "inputs": [
        {
          "internalType": "bool",
          "name": "enabled",
          "type": "bool"
        }
      ],
      "name": "scheduleTestHelpersEnabled",
      "outputs": [],
      "stateMutability": "nonpayable",
      "type": "function"
    },
    {
      "inputs": [],
      "name": "scoreLeaderboard",
      "outputs": [
        {
          "internalType": "address",
          "name": "",
          "type": "address"
        }
      ],
      "stateMutability": "view",
      "type": "function"
    },
    {
      "inputs": [
        {
          "internalType": "uint256",
          "name": "_nullifier",
          "type": "uint256"
        },
        {
          "internalType": "uint256",
          "name": "_trialId",
          "type": "uint256"
        },
        {
          "internalType": "bool",
          "name": "_accepted",
          "type": "bool"
        }
      ],
      "name": "setApplicationAcceptedForTest",
      "outputs": [],
      "stateMutability": "nonpayable",
      "type": "function"
    },
    {
      "inputs": [
        {
          "internalType": "address",
          "name": "_registry",
          "type": "address"
        }
      ],
      "name": "setAuthorizedRegistry",
      "outputs": [],
      "stateMutability": "nonpayable",
      "type": "function"
    },
    {
      "inputs": [
        {
          "internalType": "address",
          "name": "_automation",
          "type": "address"
        }
      ],
      "name": "setAutomationContract",
      "outputs": [],
      "stateMutability": "nonpayable",
      "type": "function"
    },
    {
      "inputs": [
        {
          "internalType": "address",
          "name": "_gate",
          "type": "address"
        }
      ],
      "name": "setConsentGate",
      "outputs": [],
      "stateMutability": "nonpayable",
      "type": "function"
    },
    {
      "inputs": [
        {
          "internalType": "address",
          "name": "_log",
          "type": "address"
        }
      ],
      "name": "setDataAccessLog",
      "outputs": [],
      "stateMutability": "nonpayable",
      "type": "function"
    },
    {
      "inputs": [
        {
          "internalType": "address",
          "name": "_verifier",
          "type": "address"
        }
      ],
      "name": "setEligibilityVerifier",
      "outputs": [],
      "stateMutability": "nonpayable",
      "type": "function"
    },
    {
      "inputs": [
        {
          "internalType": "address",
          "name": "_legacy",
          "type": "address"
        }
      ],
      "name": "setLegacyPatientRegistry",
      "outputs": [],
      "stateMutability": "nonpayable",
      "type": "function"
    },
    {
      "inputs": [
        {
          "internalType": "address",
          "name": "_leaderboard",
          "type": "address"
        }
      ],
      "name": "setScoreLeaderboard",
      "outputs": [],
      "stateMutability": "nonpayable",
      "type": "function"
    },
    {
      "inputs": [
        {
          "internalType": "address",
          "name": "_vault",
          "type": "address"
        }
      ],
      "name": "setSponsorIncentiveVault",
      "outputs": [],
      "stateMutability": "nonpayable",
      "type": "function"
    },
    {
      "inputs": [
        {
          "internalType": "uint256",
          "name": "",
          "type": "uint256"
        },
        {
          "internalType": "uint256",
          "name": "",
          "type": "uint256"
        }
      ],
      "name": "silentApplyOutcome",
      "outputs": [
        {
          "internalType": "enum EligibilityEngine.SilentApplyOutcome",
          "name": "",
          "type": "uint8"
        }
      ],
      "stateMutability": "view",
      "type": "function"
    },
    {
      "inputs": [],
      "name": "sponsorIncentiveVault",
      "outputs": [
        {
          "internalType": "address",
          "name": "",
          "type": "address"
        }
      ],
      "stateMutability": "view",
      "type": "function"
    },
    {
      "inputs": [
        {
          "internalType": "uint256",
          "name": "_commitment",
          "type": "uint256"
        },
        {
          "internalType": "uint256",
          "name": "_trialId",
          "type": "uint256"
        },
        {
          "internalType": "uint256",
          "name": "_nullifier",
          "type": "uint256"
        },
        {
          "internalType": "address",
          "name": "_permitRecipient",
          "type": "address"
        }
      ],
      "name": "stageAnonymousEligibility",
      "outputs": [
        {
          "internalType": "bytes32",
          "name": "finalCt",
          "type": "bytes32"
        }
      ],
      "stateMutability": "nonpayable",
      "type": "function"
    },
    {
      "inputs": [],
      "name": "testHelpersChangeEta",
      "outputs": [
        {
          "internalType": "uint256",
          "name": "",
          "type": "uint256"
        }
      ],
      "stateMutability": "view",
      "type": "function"
    },
    {
      "inputs": [],
      "name": "testHelpersEnabled",
      "outputs": [
        {
          "internalType": "bool",
          "name": "",
          "type": "bool"
        }
      ],
      "stateMutability": "view",
      "type": "function"
    },
    {
      "inputs": [],
      "name": "trialManager",
      "outputs": [
        {
          "internalType": "contract TrialManager",
          "name": "",
          "type": "address"
        }
      ],
      "stateMutability": "view",
      "type": "function"
    },
    {
      "inputs": [
        {
          "internalType": "uint256",
          "name": "_trialId",
          "type": "uint256"
        },
        {
          "internalType": "uint256",
          "name": "_nullifier",
          "type": "uint256"
        },
        {
          "internalType": "enum EligibilityEngine.ApplicationStatus",
          "name": "_status",
          "type": "uint8"
        }
      ],
      "name": "updateAnonymousApplicationStatus",
      "outputs": [],
      "stateMutability": "nonpayable",
      "type": "function"
    },
    {
      "inputs": [
        {
          "internalType": "uint256",
          "name": "_trialId",
          "type": "uint256"
        },
        {
          "internalType": "address",
          "name": "_patient",
          "type": "address"
        },
        {
          "internalType": "enum EligibilityEngine.ApplicationStatus",
          "name": "_status",
          "type": "uint8"
        },
        {
          "internalType": "bytes",
          "name": "_message",
          "type": "bytes"
        }
      ],
      "name": "updateApplicationStatus",
      "outputs": [],
      "stateMutability": "nonpayable",
      "type": "function"
    }
  ],
  "bytecode": "0x60806040523461032157604051601f6166a238819003918201601f19168301916001600160401b03831184841017610325578084926060946040528339810103126103215761004d81610358565b90610066604061005f60208401610358565b9201610358565b9161006f61036c565b504660010361023d5761008061036c565b50610089610339565b73ca2e8f1f656cd25c01f05d0b243ab1ecd4a8ffb6815273d82385dada1ae3e969447f20a3164f6213100e7560208201527377627828a55156b04ac0dc0eb30467f1a552bb0360408201525b80517f9e7b61f58c47dc699ac88507c4f5bb9f121c03808c5676a8078fe583e464970080546001600160a01b03199081166001600160a01b039384161790915560208301517f9e7b61f58c47dc699ac88507c4f5bb9f121c03808c5676a8078fe583e4649701805483169184169190911790556040909201517f9e7b61f58c47dc699ac88507c4f5bb9f121c03808c5676a8078fe583e4649702805490931690821617909155168015158061022b575b80610219575b156101e557600a80546001600160a01b031990811633179091555f80548216929092179091556002805482166001600160a01b03938416179055600380549091169290911691909117905560405161631b90816103878239f35b60405162461bcd60e51b815260206004820152600c60248201526b5a65726f206164647265737360a01b6044820152606490fd5b506001600160a01b038316151561018b565b506001600160a01b0382161515610185565b4662aa36a7036102a85761024f61036c565b50610258610339565b73f0ffdc93b7e186bc2f8cb3daa75d86d1930a433d81527392c920834ec8941d2c77d188936e1f7a6f49c127602082015273be0e383937d564d7ff0bc3b46c51f0bf8d5c311a60408201526100d5565b46617a6903610312576102b961036c565b506102c2610339565b7350157cffd6bbfa2dece204a89ec419c23ef5755d815273e3a9105a3a932253a70f126eb1e3b589c643dd24602082015273901f8942346f7ab3a01f6d7613119bca447bb03060408201526100d5565b6373cac13b60e01b5f5260045ffd5b5f80fd5b634e487b7160e01b5f52604160045260245ffd5b60405190606082016001600160401b0381118382101761032557604052565b51906001600160a01b038216820361032157565b610374610339565b905f82525f60208301525f604083015256fe60e06040526004361015610011575f80fd5b5f5f3560e01c806303a042fc1461395757806305e20537146139c05780630689d5ed146139985780630798230914613970578063090741a0146139575780630b92f1f61461393a5780630d35e56f146138ad5780630fcba9b2146137af578063112476ae1461378757806315c7a0b71461376a578063163745af14613742578063188721ad1461370e5780631928a518146135d75780631ac3ee2a146135485780631b785e25146135195780631e68fd8e146134315780631f9d9d231461340257806323738e34146115ab57806328cec8ac14612fc7578063291dc1ce14612fac5780632a5f95c114612ea05780632d0391ba14612e735780632d7306e014612e4a5780632e75b09e14612e2e5780632e8ff56314612dc45780632ff2b14d14612d7657806334e8bbc114612d4c57806339436aa314612d2e578063467cd4f014611653578063475bf99714612d0557806349df1feb14612c995780635250c6e214612c7257806355f8cfdd14612c4957806358af3a7314612c1c5780635ad8349114612bf95780635d73f54414612bd05780636276c7b314610bd057806362909f0a14610bd057806366d0b65c14610bd05780636808d27214612b7a578063685e67ee14612b5c5780636a12875e14612b2e578063710bf32214612ab25780637390364614612a9457806373ca56ee14612a6a57806379ba5097146129c95780637a41b788146129ab5780637f8c99d714612979578063837e0fa5146129285780638927b0301461290d5780638c7784b3146126525780638da5cb5b14612629578063917cebb9146125f7578063972a6ddf146122045780639757a16f1461213e578063984498cd146121185780639d3f0618146120b05780639f9b48bc1461203c578063a14ea2b814612013578063a232409d14611bfc578063ab0338021461176b578063b19e56281461168a578063b6e4033f14611653578063bd2f086c14611620578063be82747914611602578063c0b21fd0146115b0578063c3e0acad146115ab578063c6bb653114611582578063c6c0b5cc146114fe578063cd5d36dd146113e2578063d350a18f14611374578063d8332aa71461130f578063dae14b09146112aa578063ddf4d69414610f69578063dfed353214610e24578063e1cfaf2814610dfb578063e30c397814610dd2578063e59ac6ba14610c72578063e5ae6f5914610bef578063e6414e3714610bd0578063e653b287146107b1578063e75bb26614610788578063e9d0e3ef14610727578063ed3b658b146105d8578063ee06e5b214610581578063f093e2d81461050e578063f1bc7aef146104e5578063f520f24f146104595763fda0fbb8146103ed575f80fd5b34610456576040366003190112610456576020906040906001600160a01b036104146139e8565b168033148015610442575b610428906140ef565b8152601a8352818120602435825283522054604051908152f35b506009546001600160a01b0316331461041f565b80fd5b5034610456576020366003190112610456576104736139e8565b5061048960018060a01b03600a54163314613b50565b60405162461bcd60e51b815260206004820152602e60248201527f557365207363686564756c65446174614163636573734c6f67202b206170706c60448201526d79446174614163636573734c6f6760901b6064820152608490fd5b50346104565780600319360112610456576008546040516001600160a01b039091168152602090f35b50346104565760203660031901126104565760043580151580910361057d5761054260018060a01b03600a54163314613b50565b61ff00602a549160081b169061ff00191617602a55615460420180421161056957602b5580f35b634e487b7160e01b82526011600452602482fd5b5080fd5b50346104565760603660031901126104565760443580151580910361057d576105ae60ff602a5416615710565b60043582526021602052604082206024358352602052604082209060ff8019835416911617905580f35b503461045657610100366003190112610456576044356105f6613a14565b6105fe613a2a565b60a435929060c4356001600160401b03811161072357610622903690600401613a56565b93909260e4356001600160401b03811161071f57610644903690600401613a83565b97909661065c60018060a01b03600c54163314613f5c565b6001600160a01b038516906106728215156144eb565b61067b81615662565b50600354610692906001600160a01b03168261569b565b506003546001600160a01b031691823b1561071b57906064849283604051958694859363543d34b960e01b8552600485015289602485015260448401525af18015610710576106fb575b60206106f38a8a8a8a8a8a8a602435600435614530565b604051908152f35b610706828092613cbe565b61045657806106dc565b6040513d84823e3d90fd5b8380fd5b8780fd5b8580fd5b50346104565761073636613a40565b9060018060a01b03600a541633148015610774575b61075490613f1f565b82526025602052604082209082526020526040812060ff19815416905580f35b50600c546001600160a01b0316331461074b565b50346104565780600319360112610456576003546040516001600160a01b039091168152602090f35b5034610456576107c036613a40565b906107d660018060a01b03600c54163314613f5c565b600254604051631a7f3c3360e01b815260048101849052908490829060249082906001600160a01b03165afa8015610bc557610200918591610ba3575b50015115610b6c57829061014060018060a01b0383541660246040518097819363695c98bb60e01b83528660048401525af1908115610710578293948392610b49575b508254604051633e9d33cb60e11b8152600481019290925290936101409185916024918391906001600160a01b03165af1928315610710579084918394610b12575b50906108a391615b85565b509161012060018060a01b036002541694602460405180978193631871407b60e21b835260048301525afa938415610710578294610a77575b50926108e960049461590e565b90826101006040516108fa81613ca2565b8281528260208201528260408201528260608201528260808201528260a08201528260c08201528260e08201520152805160208201516040830151606084015160808501519160a08601519360c0870151956109b861010060e08a0151990151996040519261096884613ca2565b8352602083019384526040808401958652606084019687526080840197885260a0840198895260c08401998a5260e084019a8b5261010084019b8c525163a403936360e01b81529d8e0190614330565b516101448c0152516101648b0152516101848a0152516101a4890152516101c4880152516101e487015251610204860152516102248501525161024484015260016102648401526040836102848173__$881c67f95f960d39365d324323ccfd73af$__5af48015610a6a576040938291610a3b575b505082519182526020820152f35b9050610a5d9150833d8511610a63575b610a558183613cbe565b81019061431a565b5f610a2d565b503d610a4b565b50604051903d90823e3d90fd5b9350610120843d8211610b0a575b81610a936101209383613cbe565b8101031261057d576108e960049461010060405191610ab183613ca2565b805183526020810151602084015260408101516040840152606081015160608401526080810151608084015260a081015160a084015260c081015160c084015260e081015160e0840152015161010082015294506108dc565b3d9150610a85565b6108a392919450610b3a906101403d8111610b42575b610b328183613cbe565b810190613fea565b939091610898565b503d610b28565b610140919250610b6590823d8111610b4257610b328183613cbe565b9190610856565b60405162461bcd60e51b815260206004820152600f60248201526e141b185a5b9d195e1d081d1c9a585b608a1b6044820152606490fd5b610bbf91503d8087833e610bb78183613cbe565b810190613d6c565b5f610813565b6040513d86823e3d90fd5b503461045657602036600319011261045657610bea6139e8565b613b89565b503461045657602090610c0136613a40565b9060018060a01b036005541633148015610c5e575b8015610c4a575b610c2690613f1f565b825260238352604082209082528252604060018060a01b0391205416604051908152f35b50600a546001600160a01b03163314610c1d565b50600c546001600160a01b03163314610c16565b5034610456576020366003190112610456576004359060018060a01b036002541691604051631a7f3c3360e01b81528160048201528281602481875afa908115610dc75790610200918491610dad575b50015115610d5a576040519263e5feffe360e01b84526004840152602483015260208260448173__$a2104887d4f8d9eac857bd1531af13406a$__5af4908115610d4e5790610d17575b602090604051908152f35b506020813d602011610d46575b81610d3160209383613cbe565b81010312610d425760209051610d0c565b5f80fd5b3d9150610d24565b604051903d90823e3d90fd5b60405162461bcd60e51b815260206004820152602560248201527f547269616c20646f6573206e6f742075736520656e6372797074656420637269604482015264746572696160d81b6064820152608490fd5b610dc191503d8086833e610bb78183613cbe565b5f610cc2565b6040513d85823e3d90fd5b5034610456578060031936011261045657600b546040516001600160a01b039091168152602090f35b50346104565780600319360112610456576006546040516001600160a01b039091168152602090f35b503461045657610e3336613a40565b90808352602260205260408320828452602052602460018060a01b036040852054168460018060a01b036002541660405193848092631a7f3c3360e01b82528860048301525afa918215610f5e57918593916040959360209792610f42575b503314908115610f2b575b508015610f17575b8015610f03575b8015610eef575b8015610edb575b610ec390613f1f565b8252601d845282822090825283522054604051908152f35b50600a546001600160a01b03163314610eba565b506005546001600160a01b03163314610eb3565b50600c546001600160a01b03163314610eac565b506006546001600160a01b03163314610ea5565b608001516001600160a01b0316331490505f610e9d565b610f579192503d8087833e610bb78183613cbe565b905f610e92565b6040513d87823e3d90fd5b503461045657606036600319011261045657604435610f9360018060a01b03600c54163314613f5c565b60018060a01b0360025416604051631a7f3c3360e01b81526024356004820152838082602481865afa918215610a6a57819261128d575b506024919260405192838092631a7f3c3360e01b82528760048301525afa908115610bc5578491611273575b50610200820151611233576102000151156111f357825460405163695c98bb60e01b815260048035908201529290610140908490602490829088906001600160a01b03165af1928315610bc55784936111d2575b50610120830151156111995760406110899261106e6110688661590e565b916159ce565b82516317c3f9e160e11b8152948592839290600484016144c8565b038173__$881c67f95f960d39365d324323ccfd73af$__5af4928315610bc55784928594611170575b50906110bd91615b85565b939092821561115f575b6110d083615e53565b8315611148575b83946110e66111249495615e53565b8115611138575b6110f682615e53565b80925015611128575b61110882615e53565b8360265584602755806028558160295560405194859485613b25565b0390f35b9050611132615f56565b906110ff565b9050611142615f56565b906110ed565b61112492935061115782615ed9565b9392506110d7565b915061116a81615ed9565b916110c7565b6111909194506110bd92935060403d604011610a6357610a558183613cbe565b939092916110b2565b60405162461bcd60e51b815260206004820152601160248201527014185d1a595b9d081b9bdd08199bdd5b99607a1b6044820152606490fd5b6111ec9193506101403d8111610b4257610b328183613cbe565b915f61104a565b60405162461bcd60e51b8152602060048201526018602482015277115b98dc9e5c1d1959081d1c9a585b081c995c5d5a5c995960421b6044820152606490fd5b60405162461bcd60e51b8152602060048201526018602482015277141b185a5b9d195e1d081d1c9a585b081c995c5d5a5c995960421b6044820152606490fd5b61128791503d8086833e610bb78183613cbe565b5f610ff6565b602492506112a4903d8084833e610bb78183613cbe565b91610fca565b50346104565780600319360112610456576112d060018060a01b03600a54163314613b50565b6112e6602b548015159081611304575b50614200565b602a5460ff808260081c161515169060ff191617602a5580602b5580f35b90504210155f6112e0565b5034610456576020366003190112610456576113296139e8565b61133e60018060a01b03600a54163314613b50565b6001600160a01b0316611352811515613c00565b60018060a01b0319601054161760105561546042018042116105695760115580f35b50346104565760603660031901126104565761138e613b41565b506044356001600160401b03811161057d576113ae903690600401613a56565b505060405162461bcd60e51b815260206004820152600a60248201526911195c1c9958d85d195960b21b6044820152606490fd5b5034610456576020906113f436613a40565b81835260228452604080842082855285528320546001600160a01b0316929183156114d4575b5050506001600160a01b031633811480156114c0575b80156114ac575b8015611498575b8015611484575b8015611470575b801561145c575b6106f390613f1f565b50600a546001600160a01b03163314611453565b506008546001600160a01b0316331461144c565b506005546001600160a01b03163314611445565b506006546001600160a01b0316331461143e565b506007546001600160a01b03163314611437565b50600c546001600160a01b03163314611430565b82526024845260408083209183529084529020600201546001600160a01b031690505f808061141a565b50346104565761150d36613a40565b81835260216020526040832081845260205260ff604084205416918261153b575b6020836040519015158152f35b9091508252602080526040822090825260205260ff60408220541690600382101561156e57506001602091145f8061152e565b634e487b7160e01b81526021600452602490fd5b50346104565780600319360112610456576007546040516001600160a01b039091168152602090f35b613ac3565b5034610456576020366003190112610456576115ca6139e8565b6115df60018060a01b03600a54163314613b50565b600180546001600160a01b0319166001600160a01b039290921691909117905580f35b50346104565780600319360112610456576020602b54604051908152f35b5034610456576020366003190112610456576020906004358152600d8252604060018060a01b0391205416604051908152f35b50346104565760ff604060209261166936613a40565b908252601f855282822090825284522054166116886040518092613b18565bf35b5034610456576060366003190112610456576024356004356044356001600160a01b0381169081900361071b57611705906116d060018060a01b03600c54163314613f5c565b6116db811515613fa3565b8285526024602090815260408087208688529091528520600201546001600160a01b031614614278565b808352602460205260408320828452602052611726604084205415156142c0565b808352602460205260408320828452602052611744604084206142fd565b7f531be854624155ace8feaa7624c89efee81e78b0d2fb401c027853d1db61a53d8380a380f35b5034610456576080366003190112610456576004356117886139fe565b604435600481101561071b576064356001600160401b038111611bf8576117b3903690600401613a56565b9260018060a01b0360025416604051631a7f3c3360e01b81528660048201528781602481855afa908115611bed578891611bd3575b50608001516001600160a01b03163303611b8e57602060249160405192838092635419390d60e11b82528a60048301525afa8015611b83578790611b44575b611831915061416d565b848652601b6020526040862060018060a01b0382165f5260205260ff60405f2054166004811015611b305715611af457848652601b6020526040862060018060a01b0382165f526020526118888360405f206141b6565b848652601b602090815260408088206001600160a01b0384165f908152925290206001016001600160401b038511611ae0578054600181811c91168015611ad6575b6020821014611ac257601f8111611a7d575b508487601f8211600114611a1b578891611a10575b508560011b905f198760031b1c19161790555b60045486906001600160a01b031680611970575b50509161196a611950927fb8d37bb75e47252fab0d1ead541c50f4b09cf8a0cde18749fa1cca6d7adb33c89460405194858095613b18565b6040602085015260018060a01b0316956040840191614258565b0390a380f35b604051606084901b6001600160601b0319166020820190815260f887901b6001600160f81b0319166034830152426035808401919091528252906119b5605582613cbe565b51902090803b15611a0c576119e491839189836040518096819582946306cc173360e41b8452600484016141ce565b03925af1801561071057156119185781611a0091959395613cbe565b6107235791855f611918565b8280fd5b90508301355f6118f1565b82895260208920915086601f1981168a5b818110611a62575010611a49575b5050600185811b019055611904565b8401355f19600388901b60f8161c191690555f80611a3a565b8784013585556001909401936020938401938a935001611a2c565b81885260208820601f870160051c81019160208810611ab8575b601f0160051c01905b818110611aad57506118dc565b888155600101611aa0565b9091508190611a97565b634e487b7160e01b88526022600452602488fd5b90607f16906118ca565b634e487b7160e01b87526041600452602487fd5b60405162461bcd60e51b8152602060048201526014602482015273139bc8185c1c1b1a58d85d1a5bdb88199bdd5b9960621b6044820152606490fd5b634e487b7160e01b87526021600452602487fd5b506020813d602011611b7b575b81611b5e60209383613cbe565b81010312611b7757611b7261183191613d42565b611827565b8680fd5b3d9150611b51565b6040513d89823e3d90fd5b60405162461bcd60e51b815260206004820152601e60248201527f4f6e6c792073706f6e736f722063616e207570646174652073746174757300006044820152606490fd5b611be791503d808a833e610bb78183613cbe565b5f6117e8565b6040513d8a823e3d90fd5b8480fd5b503461045657602036600319011261045657600435611c2660018060a01b03600a54163314613b50565b808252600e6020526040822054151580611ffd575b611c4490614200565b808252600d6020818152604080852054848652600e835281862086905584865292909152832080546001600160a01b03191690556001600160a01b0316907f68ad06d9309d9e917865c172f0e7f61d2495ec1a1f46c631bf649cb26c5b204f8103611cea576009546040519091905f51602061624f5f395f51905f529080611cd6866001600160a01b0387168361423e565b0390a26001600160a01b0319161760095580f35b7f0c1e29592c3c8d8a0f36c76ce18fb1c002b5aa5514de292e507d7e1ce95710678103611d5257600c546040519091905f51602061624f5f395f51905f529080611d3e866001600160a01b0387168361423e565b0390a26001600160a01b03191617600c5580f35b7f7b8d60480804e3c6f1b53df360c1c9450cf91afb71969b968f48c8c63b9296b78103611dba576005546040519091905f51602061624f5f395f51905f529080611da6866001600160a01b0387168361423e565b0390a26001600160a01b0319161760055580f35b7f0ad430a6acc85b4b0d24662fc5888d01d16cb74f56f983fcab25c5e9792d72ee8103611e22576006546040519091905f51602061624f5f395f51905f529080611e0e866001600160a01b0387168361423e565b0390a26001600160a01b0319161760065580f35b7ffbebd9d2929c6ea6dcd04ada2e2581739aef31bbdfb6b769ebdc4e3a0cd46f068103611e8a576007546040519091905f51602061624f5f395f51905f529080611e76866001600160a01b0387168361423e565b0390a26001600160a01b0319161760075580f35b7fc43c448fbed8840d5766c9b704144545dc4ea3685fa6d4ad240577715a251b638103611ef2576012546040519091905f51602061624f5f395f51905f529080611ede866001600160a01b0387168361423e565b0390a26001600160a01b0319161760125580f35b7f6698ee2044e92863455e07f79e46096eec399147084a7e3553122fdc7a9e9b458103611f5a576013546040519091905f51602061624f5f395f51905f529080611f46866001600160a01b0387168361423e565b0390a26001600160a01b0319161760135580f35b7f01f6633db3181eff58b0837688e7a6d7b740bd00531b60aa1fa5a0510e77e2928103611fc2576008546040519091905f51602061624f5f395f51905f529080611fae866001600160a01b0387168361423e565b0390a26001600160a01b0319161760085580f35b60405162461bcd60e51b8152602060048201526013602482015272556e6b6e6f776e2072656164657220726f6c6560681b6044820152606490fd5b50808252600e6020526040822054421015611c3b565b50346104565780600319360112610456576012546040516001600160a01b039091168152602090f35b50346104565761204b36613a40565b6007549092906001600160a01b0316330361207e576020926040928252601d845282822090825283522054604051908152f35b60405162461bcd60e51b815260206004820152600a60248201526913db9b1e481d985d5b1d60b21b6044820152606490fd5b50346104565780600319360112610456576120d660018060a01b03600a54163314613b50565b6120eb60115480151590816113045750614200565b60108054600480546001600160a01b03199081166001600160a01b03841617909155601184905516905580f35b5034610456578060031936011261045657602060ff602a5460081c166040519015158152f35b5034610456576080366003190112610456576064356001600160401b03811161057d5761216f903690600401613a56565b9061217e60ff602a5416615710565b8261218883613ce1565b916121966040519384613cbe565b838352368482011161057d57836121ba946020928386013783010152604435615752565b6121c381615662565b506004358252601d60205260408220602435835260205280604083205560018060a01b0360075416806121f4578280f35b6121fd9161569b565b505f808280f35b503461045657606036600319011261045657600435602435604435600481101561071b57600254604051631a7f3c3360e01b8152600481018590526001600160a01b03909116908581602481855afa801561255b5760809187916125dd575b50019060018060a01b03825116331480156125c9575b156125665781516001600160a01b031633146124e5575b50600282149081612490575b50828552601f6020526040852084865260205260ff604086205416600481101561247c571561243757828552601f602052604085208486526020526122e482604087206141b6565b80612423575b6123ab575b60045484906001600160a01b031680612327575b505060205f5160206161cf5f395f51905f52916123236040518092613b18565ba380f35b604051602081019085825260ff60f81b8560f81b16604082015242604182015260418152612356606182613cbe565b51902090803b15611a0c576040516306cc173360e41b81529183918391829084908290612387908c600484016141ce565b03925af18015610710571561230357816123a091613cbe565b61071b57835f612303565b60085484906001600160a01b0316803b1561057d57818091604460405180958193633c447ed160e11b83528a60048401528960248401525af1918261240e575b50506124095782825f5160206161af5f395f51905f528680a36122ef565b6122ef565b8161241891613cbe565b611bf857845f6123eb565b506008546001600160a01b031615156122ea565b60405162461bcd60e51b815260206004820152601e60248201527f4e6f20616e6f6e796d6f7573206170706c69636174696f6e20666f756e6400006044820152606490fd5b634e487b7160e01b86526021600452602486fd5b516001600160a01b031633036124a6575f61229c565b60405162461bcd60e51b815260206004820152601760248201527613db9b1e481cdc1bdb9cdbdc8818d85b881858d8d95c1d604a1b6044820152606490fd5b602060249160405192838092635419390d60e11b82528960048301525afa801561255b578690612520575b61251a915061416d565b5f612290565b506020813d602011612553575b8161253a60209383613cbe565b810103126107235761254e61251a91613d42565b612510565b3d915061252d565b6040513d88823e3d90fd5b60405162461bcd60e51b815260206004820152603560248201527f4f6e6c792073706f6e736f72206f7220617574686f72697a65642072656769736044820152747472792063616e207570646174652073746174757360581b6064820152608490fd5b50600c546001600160a01b03163314612279565b6125f191503d8089833e610bb78183613cbe565b5f612263565b50346104565760ff604060209261260d36613a40565b9082526021855282822090825284522054166040519015158152f35b5034610456578060031936011261045657600a546040516001600160a01b039091168152602090f35b50346104565760803660031901126104565760043590602435604435612676613a14565b9361268c60018060a01b03600c54163314613f5c565b61269781151561412b565b6001600160a01b0385166126ac811515613fa3565b82855260246020526040852084865260205260408520546128d757845460405163695c98bb60e01b8152600481018490529061014090829060249082908a906001600160a01b03165af190811561255b579060249187916128b8575b50612719610120820151151561406e565b600254604051631a7f3c3360e01b81526004810188905292889184919082906001600160a01b03165afa918215611b8357879261289c575b5073__$a2104887d4f8d9eac857bd1531af13406a$__803b1561071f57876040518092637c92caf360e01b825260206004830152818061279460248201896143b8565b03915af48015611bed57612887575b509160046127b987612855969460209b966155ea565b939098604051936127c985613c3b565b8a85528b850186815260408087019283524260608801908152608088019586528b855260248f528185208d86528f52932095518655516001860155516002850180546001600160a01b0319166001600160a01b03929092169190911790555160038401555191015561283a86615662565b5061284481615682565b5061284f828761569b565b506156c3565b507f5e916b26f53cabc8f0fa4b1a7f4acbdb6a0365f5a8f26344613fadba82fc566784604051858152a3604051908152f35b612892888092613cbe565b611b77575f6127a3565b6128b19192503d8089833e610bb78183613cbe565b905f612751565b6128d191506101403d8111610b4257610b328183613cbe565b5f612708565b60405162461bcd60e51b815260206004820152600e60248201526d105b1c9958591e481cdd1859d95960921b6044820152606490fd5b503461045657806003193601126104565760206106f36156e1565b50346104565761293736613a40565b908252602080526040822090825260205260ff60408220541660405190600381101561296557602092508152f35b634e487b7160e01b83526021600452602483fd5b50346104565760ff604060209261298f36613a40565b9082526014855282822090825284522054166040519015158152f35b50346104565780600319360112610456576020602854604051908152f35b5034610456578060031936011261045657600b546001600160a01b0381169033829003612a3057600a80546001600160a01b0319908116841790915516600b557fb27970c1714b28277b78cc17ac2fe9556e7f048cd48358cffe3dc7d547608fdc8280a280f35b60405162461bcd60e51b81526020600482015260126024820152712737ba10383937b837b9b2b21037bbb732b960711b6044820152606490fd5b50346104565760203660031901126104565760406020916004358152600e83522054604051908152f35b5034610456578060031936011261045657602060405162093a808152f35b503461045657602036600319011261045657612acc6139e8565b612ae160018060a01b03600a54163314613b50565b6001600160a01b0316612af5811515613c00565b600b80546001600160a01b031916821790557f6ab4d119f23076e8ad491bc65ce85f017fb0591dce08755ba8591059cc51737a8280a280f35b5034610456578060031936011261045657602654602754906111246028546029549060405194859485613b25565b50346104565780600319360112610456576020602654604051908152f35b503461045657602036600319011261045657600435612ba460018060a01b03600a54163314613b50565b808252600e60209081526040808420849055918352600d9052812080546001600160a01b031916905580f35b50346104565780600319360112610456576001546040516001600160a01b039091168152602090f35b5034610456578060031936011261045657602060ff602a54166040519015158152f35b5034610456576040602091612c3036613a40565b9082526018845282822090825283522054604051908152f35b50346104565780600319360112610456576002546040516001600160a01b039091168152602090f35b5034610456578060031936011261045657546040516001600160a01b039091168152602090f35b503461045657604036600319011261045657612cb36139e8565b5060405162461bcd60e51b815260206004820152602360248201527f4c656761637920656c69676962696c69747920636865636b20646570726563616044820152621d195960ea1b6064820152608490fd5b50346104565780600319360112610456576013546040516001600160a01b039091168152602090f35b50346104565780600319360112610456576020601154604051908152f35b50346104565780600319360112610456575060205f51602061616f5f395f51905f52604051908152f35b503461045657602036600319011261045657612da164ffffffffff91612d9a613ab3565b90506155d9565b54168015612dbc575b60209064ffffffffff60405191168152f35b506001612daa565b5034610456576040366003190112610456576020906040906001600160a01b03612dec6139e8565b168033148015612e1a575b612e00906140ef565b815260198352818120602435825283522054604051908152f35b506009546001600160a01b03163314612df7565b5034610456578060031936011261045657602060405160198152f35b5034610456578060031936011261045657600c546040516001600160a01b039091168152602090f35b5034610456576040602091612e8736613a40565b9082526015845282822090825283522054604051908152f35b5034610d4257612eaf36613a40565b6008546001600160a01b031633819003612f7157815f52601f60205260405f20835f5260205260ff60405f2054166004811015612f5d57600214612ef1578380f35b803b15610d42575f8091604460405180948193633c447ed160e11b83528860048401528760248401525af19081612f48575b50612f41575f5160206161af5f395f51905f528380a35b5f80808380f35b5050612f3a565b612f559194505f90613cbe565b5f925f612f23565b634e487b7160e01b5f52602160045260245ffd5b60405162461bcd60e51b81526020600482015260136024820152724f6e6c7920646f63756d656e742073746f726560681b6044820152606490fd5b34610d42575f366003190112610d42576020604051600f8152f35b34610d42576080366003190112610d42576004356024356001600160401b038111610d4257612ffa903690600401613a83565b9091906044356001600160401b038111610d425761301c903690600401613a83565b9390613026613a14565b9061303c60018060a01b03600c54163314613f5c565b6130506001600160a01b0383161515613fa3565b831515806133f7575b156133bd57858403613386575f805460405163695c98bb60e01b81526004810188905293916101409185916024918391906001600160a01b03165af1928315613317575f93613365575b506130b4610120840151151561406e565b6130bd856140c8565b966130cb6040519889613cbe565b858852601f196130da876140c8565b013660208a01375f5b8681106131265761112489897fb14d696ab9fe22a509a96c7205e6a01bb66b5f26c1c78824e03cc7ffa2e4c08760208b604051908152a260405191829182613adf565b6131318188886140df565b359061313e8184876140df565b35895f52602560205260405f20835f5260205260ff60405f20541661332257895f52602560205260405f20835f5260205260405f20600160ff1982541617905560245f60018060a01b036002541660405192838092631a7f3c3360e01b82528860048301525afa908115613317575f916132fd575b5060a0810151156132c2576101e081015180151590816132b8575b501561328557836131df91896155ea565b6131ea829592615662565b506131f481615682565b506131ff878661569b565b5061320a87826156c3565b506006546001600160a01b031680613274575b50508b518310156132605760019360208d8560051b0101528a7ff9ba2d452d1f7528ccacb49f0b991fc24be20ba18d19d4a3a371b4641b1672395f80a4016130e3565b634e487b7160e01b5f52603260045260245ffd5b61327d916156c3565b508c8061321d565b60405162461bcd60e51b815260206004820152600b60248201526a151c9a585b08195b99195960aa1b6044820152606490fd5b905042108d6131ce565b60405162461bcd60e51b8152602060048201526013602482015272547269616c206973206e6f742061637469766560681b6044820152606490fd5b61331191503d805f833e610bb78183613cbe565b8c6131b3565b6040513d5f823e3d90fd5b60405162461bcd60e51b815260206004820152601b60248201527a151c9a585b08185b1c9958591e4818985d18da0b58da1958dad959602a1b6044820152606490fd5b61337f9193506101403d8111610b4257610b328183613cbe565b91876130a3565b60405162461bcd60e51b815260206004820152600f60248201526e098cadccee8d040dad2e6dac2e8c6d608b1b6044820152606490fd5b60405162461bcd60e51b8152602060048201526012602482015271496e76616c69642062617463682073697a6560701b6044820152606490fd5b506010841115613059565b34610d425761341036613a40565b905f52601660205260405f20905f52602052602060405f2054604051908152f35b34610d42576040366003190112610d425761344a613ab3565b6134526139fe565b61346760018060a01b03600a54163314613b50565b6001600160a01b03169061347c821515613c00565b64ffffffffff61348b826155d9565b54168015613511575b64ffffffffff60019116019064ffffffffff82116134fd57602060ff8264ffffffffff6134e17f6da0feb3b0bd083f868beb07983147e8f9319e42d0b452d6e0bf7fa04e7066da956155d9565b9516948564ffffffffff198254161790556040519485521692a3005b634e487b7160e01b5f52601160045260245ffd5b506001613494565b34610d425761352736613a40565b905f52601760205260405f20905f52602052602060405f2054604051908152f35b34610d425760e0366003190112610d4257613561613a14565b613569613a2a565b60a4356001600160401b038111610d4257613588903690600401613a56565b909260c43592916001600160401b038411610d42576020946135b16106f3953690600401613a83565b9490936135c960018060a01b03600c54163314613f5c565b604435602435600435614530565b34610d42576135e536613a40565b90805f52602260205260405f20825f52602052602460018060a01b0360405f2054165f60018060a01b036002541660405193848092631a7f3c3360e01b82528860048301525afa918215613317575f926136f2575b5033149081156136db575b5080156136c7575b80156136b3575b801561369f575b801561368b575b61366b90613f1f565b5f52601e60205260405f20905f52602052602060405f2054604051908152f35b50600a546001600160a01b03163314613662565b506005546001600160a01b0316331461365b565b50600c546001600160a01b03163314613654565b506006546001600160a01b0316331461364d565b608001516001600160a01b03163314905083613645565b6137079192503d805f833e610bb78183613cbe565b908461363a565b34610d425761371c36613a40565b905f52602560205260405f20905f52602052602060ff60405f2054166040519015158152f35b34610d42575f366003190112610d42576010546040516001600160a01b039091168152602090f35b34610d42575f366003190112610d42576020602954604051908152f35b34610d42575f366003190112610d42576005546040516001600160a01b039091168152602090f35b34610d425760a06137bf36613a40565b5f60806040516137ce81613c3b565b8281528260208201528260408201528260608201520152815f52601460205260405f20815f5260205260ff60405f20541691805f52601560205260405f20825f5260205260405f205491815f52601660205260405f20815f5260205260405f205490825f52601860205260405f20815f5260205260405f2054925f52601760205260405f20905f5260205260405f20549260806040519561386e87613c3b565b15159586815260208101928352604081019384526060810194855201938452604051948552516020850152516040840152516060830152516080820152f35b34610d42576040366003190112610d42576004356138c96139fe565b6138de60018060a01b03600a54163314613b50565b6138f26001600160a01b0382161515613c00565b5f828152600d6020526040902080546001600160a01b0319166001600160a01b03909216919091179055426154608101919082106134fd575f52600e60205260405f20555f80f35b34610d42575f366003190112610d42576020602754604051908152f35b34610d42576020366003190112610d4257610bea6139e8565b34610d42575f366003190112610d42576004546040516001600160a01b039091168152602090f35b34610d42575f366003190112610d42576009546040516001600160a01b039091168152602090f35b34610d42575f366003190112610d425760205f51602061620f5f395f51905f52604051908152f35b600435906001600160a01b0382168203610d4257565b602435906001600160a01b0382168203610d4257565b606435906001600160a01b0382168203610d4257565b608435906001600160a01b0382168203610d4257565b6040906003190112610d42576004359060243590565b9181601f84011215610d42578235916001600160401b038311610d425760208381860195010111610d4257565b9181601f84011215610d42578235916001600160401b038311610d42576020808501948460051b010111610d4257565b6004359060ff82168203610d4257565b34610d42575f366003190112610d425760206040516154608152f35b60206040818301928281528451809452019201905f5b818110613b025750505090565b8251845260209384019390920191600101613af5565b906004821015612f5d5752565b9094939260609260808301968352602083015260408201520152565b602435908115158203610d4257565b15613b5757565b60405162461bcd60e51b815260206004820152600a60248201526927b7363c9037bbb732b960b11b6044820152606490fd5b613b9e60018060a01b03600a54163314613b50565b60405162461bcd60e51b815260206004820152603460248201527f557365207363686564756c65417574686f72697a6564526561646572202b20616044820152733838363ca0baba3437b934bd32b22932b0b232b960611b6064820152608490fd5b15613c0757565b60405162461bcd60e51b815260206004820152600c60248201526b5a65726f206164647265737360a01b6044820152606490fd5b60a081019081106001600160401b03821117613c5657604052565b634e487b7160e01b5f52604160045260245ffd5b61022081019081106001600160401b03821117613c5657604052565b61014081019081106001600160401b03821117613c5657604052565b61012081019081106001600160401b03821117613c5657604052565b601f909101601f19168101906001600160401b03821190821017613c5657604052565b6001600160401b038111613c5657601f01601f191660200190565b81601f82011215610d4257805190613d1382613ce1565b92613d216040519485613cbe565b82845260208383010111610d4257815f9260208093018386015e8301015290565b51908115158203610d4257565b519060ff82168203610d4257565b519061ffff82168203610d4257565b602081830312610d42578051906001600160401b038211610d42570161022081830312610d425760405191613da083613c6a565b81516001600160401b038111610d425781613dbc918401613cfc565b835260208201516001600160401b038111610d425781613ddd918401613cfc565b602084015260408201516001600160401b038111610d425781613e01918401613cfc565b60408401526060820151906001600160401b038211610d4257613e25918301613cfc565b606083015260808101516001600160a01b0381168103610d4257613f1691610200916080850152613e5860a08201613d42565b60a0850152613e6960c08201613d4f565b60c0850152613e7a60e08201613d4f565b60e0850152613e8c6101008201613d42565b610100850152613e9f6101208201613d5d565b610120850152613eb26101408201613d4f565b610140850152613ec56101608201613d4f565b610160850152613ed86101808201613d5d565b610180850152613eeb6101a08201613d42565b6101a0850152613efe6101c08201613d42565b6101c08501526101e08101516101e085015201613d42565b61020082015290565b15613f2657565b60405162461bcd60e51b815260206004820152600e60248201526d139bdd08185d5d1a1bdc9a5e995960921b6044820152606490fd5b15613f6357565b60405162461bcd60e51b81526020600482015260186024820152774f6e6c7920617574686f72697a656420726567697374727960401b6044820152606490fd5b15613faa57565b60405162461bcd60e51b8152602060048201526018602482015277125b9d985b1a59081c195c9b5a5d081c9958da5c1a595b9d60421b6044820152606490fd5b9081610140910312610d42576140656101206040519261400984613c86565b805184526020810151602085015260408101516040850152606081015160608501526080810151608085015260a081015160a085015260c081015160c085015260e081015160e085015261010081015161010085015201613d42565b61012082015290565b1561407557565b60405162461bcd60e51b815260206004820152602560248201527f50617469656e74206e6f7420666f756e6420666f72207468697320636f6d6d696044820152641d1b595b9d60da1b6064820152608490fd5b6001600160401b038111613c565760051b60200190565b91908110156132605760051b0190565b156140f657565b60405162461bcd60e51b815260206004820152600d60248201526c1058d8d95cdcc819195b9a5959609a1b6044820152606490fd5b1561413257565b60405162461bcd60e51b815260206004820152601360248201527210dbdb5b5a5d1b595b9d081c995c5d5a5c9959606a1b6044820152606490fd5b1561417457565b60405162461bcd60e51b815260206004820152601a60248201527914dc1bdb9cdbdc881b9bc81b1bdb99d95c881d995c9a599a595960321b6044820152606490fd5b906004811015612f5d5760ff80198354169116179055565b6040909392919360608101946003825260208201520152565b6040909392919360608101946002825260208201520152565b1561420757565b60405162461bcd60e51b815260206004820152600f60248201526e54696d656c6f636b2061637469766560881b6044820152606490fd5b6001600160a01b0391821681529116602082015260400190565b908060209392818452848401375f828201840152601f01601f1916010190565b1561427f57565b60405162461bcd60e51b81526020600482015260196024820152780a0cae4dad2e840e4cac6d2e0d2cadce840dad2e6dac2e8c6d603b1b6044820152606490fd5b156142c757565b60405162461bcd60e51b815260206004820152600e60248201526d139bdd1a1a5b99c81cdd1859d95960921b6044820152606490fd5b60045f918281558260018201558260028201558260038201550155565b9190826040910312610d42576020825192015190565b6101208091805184526020810151602085015260408101516040850152606081015160608501526080810151608085015260a081015160a085015260c081015160c085015260e081015160e085015261010081015161010085015201511515910152565b805180835260209291819084018484015e5f828201840152601f01601f1916010190565b90610200806144116143ff6143ed6143db87516102208852610220880190614394565b60208801518782036020890152614394565b60408701518682036040880152614394565b60608601518582036060870152614394565b9360018060a01b03608082015116608085015260a0810151151560a085015260ff60c08201511660c085015260ff60e08201511660e0850152610100810151151561010085015261ffff6101208201511661012085015260ff6101408201511661014085015260ff6101608201511661016085015261ffff610180820151166101808501526101a081015115156101a08501526101c081015115156101c08501526101e08101516101e08501520151151591015290565b806144da610160926144e89594614330565b8161014082015201906143b8565b90565b156144f257565b60405162461bcd60e51b8152602060048201526016602482015275125b9d985b1a590818dbdb9cd95b9d081dd85b1b195d60521b6044820152606490fd5b919693909592945f9560018060a01b03169261454d841515613fa3565b6001600160a01b03831615936145b09061456786156144eb565b895f52602460205260405f208b5f5260205261458860405f205415156142c0565b895f52602460205260405f208b5f5260205260018060a01b03600260405f2001541614614278565b875f52602460205260405f20895f52602052600360405f20015462093a8081018091116134fd5742116155a257875f52601f60205260405f20895f5260205260ff60405f2054166004811015612f5d5761460a9015615db3565b875f526020805260405f20895f5260205260ff60405f2054166003811015612f5d576146369015615db3565b61464181151561412b565b875f52602460205260405f20895f5260205280600460405f2001540361556757875f52602460205260405f20895f5260205260405f20549460018060a01b036002541690604051631a7f3c3360e01b81528b60048201525f81602481865afa801561331757610200915f9161554d575b50015115159260018060a01b035f5416604051956382dba82960e01b8752826004880152602087602481855afa968715613317575f97615519575b50601254601354600854604051976001600160a01b0391821697938216929091169061471789613c3b565b88526020880194855260408801918252606088019081526080880196875273__$a2104887d4f8d9eac857bd1531af13406a$__965f51602061616f5f395f51905f52915f51602061620f5f395f51905f5293893b15610d425760405163d57c6e1760e01b81529a516001600160a01b0390811660048d01529751881660248c015251871660448b015251861660648a015251909416608488015260a487019390935260c4860192909252601960e4860152600f6101048601526102006101248601526147e891610204860191614258565b838103600319016101448501528d8152916001600160fb1b038e11610d42578360208f8f8f9684968f92985f99879560051b8095888601376101648601526101848501526101a48401528d6101c4840152896101e4840152010301915af4801561331757615504575b50614f8f57508760041015614c13576080840135918215614f1857868652602460205260408620888752602052604086206040519061488f82613c3b565b805480835260018201546020840190815260028301546001600160a01b03166040850190815260038401546060860152600490930154608085015292906148d79015156142c0565b51915190516001600160a01b0316916148f1831515613fa3565b8989526024602052604089208b8a5260205261490f60408a206142fd565b61491881615662565b5061492282615682565b50898952601d602052604089208b8a526020528060408a2055898952601e602052604089208b8a526020528160408a205561495d838261569b565b5061496883836156c3565b506149738382615fa4565b61497d8383615fa4565b6005546001600160a01b031680614ef1575b506007546001600160a01b03169081614eca575b50506006546001600160a01b031680614dc6575b50508787526022602090815260408089208b8a5290915280882080546001600160a01b0319166001600160a01b0390931692909217909155519088885f51602061628f5f395f51905f528980a3614d8e57508585526023602090815260408087208988529091528520546001600160a01b0316614d4a57858552602360205260408520878652602052604085209060018060a01b031660018060a01b0319825416179055848452601d60205260408420868552602052604084205496858552601f6020526040852087865260205260408520600160ff19825416179055858552602080526040852087865260205260408520600160ff1982541617905585855260216020526040852087865260205260408520600160ff1982541617905585855260146020526040852087865260205260408520600160ff1982541617905580600310159384614d3657606081013587875260156020526040872089885260205280604088205582600210159182614d22576040810135938989526016602052604089208b8a526020528460408a205560061015614d225760c00135958888526018602052604088208a89526020528660408920558888526017602052604088208a895260205285604089205560018060a01b036004541680614c5f575b508715614c27575050614c13575f51602061618f5f395f51905f5260806020955f5160206161cf5f395f51905f5297958a958a95925b8815614c0b5750905b60405192835288830152604082015260016060820152a36040519085855f51602061626f5f395f51905f528380a35060018152a390565b905090614bd4565b634e487b7160e01b85526032600452602485fd5b9150949295939150613260575f51602061618f5f395f51905f526080889388935f5160206161cf5f395f51905f529860209892614bcb565b928815614d1857505f92845b60405160208101918c83526040820152426060820152734154544553544154494f4e5f46494e414c495a4560601b608082015260748152614cad609482613cbe565b51902090803b15614d1457614cdc918a918d836040518096819582946306cc173360e41b8452600484016141e7565b03925af18015614d0957908991614cf4575b50614b95565b81614cfe91613cbe565b61071f57875f614cee565b6040513d8b823e3d90fd5b8980fd5b925f915082614c6b565b634e487b7160e01b88526032600452602488fd5b634e487b7160e01b86526032600452602486fd5b60405162461bcd60e51b815260206004820152601c60248201527b10dbdb9cd95b9d081dd85b1b195d08185b1c9958591e48189bdd5b9960221b6044820152606490fd5b62461bcd60e51b815260206004820152601360248201527216995c9bc818dbdb9cd95b9d081dd85b1b195d606a1b6044820152606490fd5b614dd090826156c3565b506006546001600160a01b031690614de99082906160fb565b803b1561071f5787808a60448d836040519687948593630a8d86fb60e41b8552600485015260248401525af19182614eb5575b5050614eb05787895f5160206162ef5f395f51905f528980a35b6006546001600160a01b0316803b1561071f5787808a60448d836040519687948593631ee89e3560e11b8552600485015260248401525af19182614e9b575b5050614e965787895f51602061622f5f395f51905f528980a35b5f806149b7565b614e8f565b81614ea591613cbe565b61071f57875f614e75565b614e36565b81614ebf91613cbe565b61071f57875f614e1c565b614ed7614eea928261569b565b506007546001600160a01b031690616088565b5f806149a3565b614efb908261569b565b50600554614f12906001600160a01b031682616015565b5f61498f565b50505050509250808352602460205260408320828452602052614f3d604084206142fd565b808352602080526040832082845260205260408320600260ff198254161790558083526021602052604083208284526020526040832060ff1981541690555f51602061626f5f395f51905f528380a390565b939792918686526024602052604086208887526020526040862060405190614fb682613c3b565b805480835260018201546020840190815260028301546001600160a01b0316604085019081526003840154606086015260049093015460808501529290614ffe9015156142c0565b51915190516001600160a01b031691615018831515613fa3565b8989526024602052604089208b8a5260205261503660408a206142fd565b61503f81615662565b5061504982615682565b50898952601d602052604089208b8a526020528060408a2055898952601e602052604089208b8a526020528160408a2055615084838261569b565b5061508f83836156c3565b5061509a8382615fa4565b6150a48383615fa4565b6005546001600160a01b0316806154dd575b506007546001600160a01b031690816154c9575b50506006546001600160a01b0316806153c5575b50508787526022602090815260408089208b8a5290915280882080546001600160a01b0319166001600160a01b0390931692909217909155519088885f51602061628f5f395f51905f528980a3614d8e57508585526023602090815260408087208988529091528520546001600160a01b0316614d4a57858552602360205260408520878652602052604085209060018060a01b031660018060a01b0319825416179055848452601d60205260408420868552602052604084205496858552601f6020526040852087865260205260408520600160ff19825416179055858552602080526040852087865260205260408520600160ff1982541617905585855260216020526040852087865260205260408520600160ff1982541617905585855260146020526040852087865260205260408520600160ff1982541617905582600210159283614d3657604082013594878752601560205260408720898852602052856040882055878752601660205260408720898852602052604087205560041015614c1357608001359185855260186020526040852087865260205282604086205585855260176020526040852087865260205281604086205560018060a01b036004541680615322575b5061530e57845f51602061618f5f395f51905f526080855f5160206161cf5f395f51905f5297958a9560209850604051928352888301526040820152856060820152a36040519085855f51602061626f5f395f51905f528380a35060018152a390565b634e487b7160e01b84526032600452602484fd5b90505f906040516020810190888252866040820152426060820152734154544553544154494f4e5f46494e414c495a4560601b608082015260748152615369609482613cbe565b51902090803b15611b77576153989187918a836040518096819582946306cc173360e41b8452600484016141e7565b03925af1801561255b579086916153b0575b506152ab565b816153ba91613cbe565b611bf857845f6153aa565b6153cf90826156c3565b506006546001600160a01b0316906153e89082906160fb565b803b1561071f5787808a60448d836040519687948593630a8d86fb60e41b8552600485015260248401525af191826154b4575b50506154af5787895f5160206162ef5f395f51905f528980a35b6006546001600160a01b0316803b1561071f5787808a60448d836040519687948593631ee89e3560e11b8552600485015260248401525af1918261549a575b50506154955787895f51602061622f5f395f51905f528980a35b5f806150de565b61548e565b816154a491613cbe565b61071f57875f615474565b615435565b816154be91613cbe565b61071f57875f61541b565b614ed76154d6928261569b565b5f806150ca565b6154e7908261569b565b506005546154fe906001600160a01b031682616015565b5f6150b6565b6155119197505f90613cbe565b5f955f614851565b9096506020813d602011615545575b8161553560209383613cbe565b81010312610d425751955f6146ec565b3d9150615528565b61556191503d805f833e610bb78183613cbe565b5f6146b1565b60405162461bcd60e51b8152602060048201526013602482015272086dedadad2e8dacadce840dad2e6dac2e8c6d606b1b6044820152606490fd5b60405162461bcd60e51b815260206004820152600f60248201526e14dd1859da5b99c8195e1c1a5c9959608a1b6044820152606490fd5b60ff165f52600f60205260405f2090565b9091610200830151615657575061560a929161106e61106860409361590e565b038173__$881c67f95f960d39365d324323ccfd73af$__5af4918215613317575f905f9361563757509190565b905061565391925060403d604011610a6357610a558183613cbe565b9091565b906156539250615b85565b8015615673575b6144e83082615df3565b5061567d5f615ed9565b615669565b8015615692576144e83082615df3565b5061567d615f56565b9081156156ad575b6144e89082615df3565b90506144e86156bb5f615ed9565b9190506156a3565b9081156156d4576144e89082615df3565b90506144e86156bb615f56565b466001036156ee57600190565b4662aa36a7036156fe5761271190565b617a69461461570b575f90565b5f1990565b15801561572d575b61571e57565b637a7f12ed60e11b5f5260045ffd5b50617a69461415615718565b9081526001600160a01b03909116602082015260400190565b815190919015615857575f5160206161ef5f395f51905f525460405163045fc19560e11b815260048101939093523360248401526080604484015260209183916001600160a01b03169082905f9082906157b0906084830190614394565b82606483015203925af1908115613317575f91615825575b505f5160206162af5f395f51905f52546001600160a01b0316803b15610d42575f6040518092630f8e573b60e21b8252818381615809338960048401615739565b03925af180156133175761581b575090565b5f6144e891613cbe565b90506020813d60201161584f575b8161584060209383613cbe565b81010312610d4257515f6157c8565b3d9150615833565b508015615904575f5160206162af5f395f51905f52546040516382027b6d60e01b81529060209082906001600160a01b03168180615899338860048401615739565b03915afa908115613317575f916158ca575b50156158b45790565b630276b5d960e01b5f526004523360245260445ffd5b90506020813d6020116158fc575b816158e560209383613cbe565b81010312610d42576158f690613d42565b5f6158ab565b3d91506158d8565b506144e85f615ed9565b5f61012060405161591e81613c86565b8281528260208201528260408201528260608201528260808201528260a08201528260c08201528260e082015282610100820152015280519060208101519060408101516060820151608083015160a08401519060c08501519260e0860151946101206101008801519701511515976040519961599a8b613c86565b8a5260208a015260408901526060880152608087015260a086015260c085015260e084015261010083015261012082015290565b6040516159da81613c6a565b60608152602081016060905260408101606090526060810160609052608081015f905260a081015f905260c081015f905260e081015f905261010081015f905261012081015f905261014081015f905261016081015f905261018081015f90526101a081015f90526101c081015f90526101e081015f9052610200015f905280808051602082015160c05260408201516060830151600160a01b6001900360808501511660a0850151151560c086015160ff1660e087015160ff169061010088015115159261012089015161ffff16946101408a015160ff16966101608b015160ff16986101808c015161ffff169a6101a08d015115159c6101c0015115159d6101e001519e6102000151151560805260405160a05260a051615afc90613c6a565b60a0515260c05160a0516020015260a0516040015260a0516060015260a0516080015260a05160a0015260a05160c0015260a05160e0015260a051610100015260a051610120015260a051610140015260a051610160015260a051610180015260a0516101a0015260a0516101c0015260a0516101e0015260805160a051610200015260a05190565b600254604051631871407b60e21b8152600481019390935291929161012090849060249082906001600160a01b03165afa928315613317575f93615d19575b50615bce9061590e565b915f610100604051615bdf81613ca2565b8281528260208201528260408201528260608201528260808201528260a08201528260c08201528260e0820152015280519060208101516040820151606083015160808401519060a08501519260c08601519461010060e08801519701519760405190615c4b82613ca2565b8152602081019182526040808201938452606082019485526080820195865260a0820196875260c0820197885260e082019889526101008201998a525163a403936360e01b81529a615ca19060048d0190614330565b516101448b0152516101648a015251610184890152516101a4880152516101c4870152516101e48601525161020485015251610224840152516102448301525f6102648301526040826102848173__$881c67f95f960d39365d324323ccfd73af$__5af4918215613317575f905f9361563757509190565b909250610120813d8211615dab575b81615d366101209383613cbe565b81010312610d4257615bce9061010060405191615d5283613ca2565b805183526020810151602084015260408101516040840152606081015160608401526080810151608084015260a081015160a084015260c081015160c084015260e081015160e084015201516101008201529290615bc4565b3d9150615d28565b15615dba57565b60405162461bcd60e51b8152602060048201526011602482015270105b1c9958591e48199a5b985b1a5e9959607a1b6044820152606490fd5b5f5160206162af5f395f51905f52546001600160a01b031691823b15610d4257615e36925f9283604051809681958294635ca4b5b160e11b845260048401615739565b03925af1801561331757615e475750565b5f615e5191613cbe565b565b6040805191615e628284613cbe565b6001835260208301601f19830136823783511561326057525f5160206162af5f395f51905f52546001600160a01b0316803b15610d42578151637d6e912360e11b8152925f918491829084908290615ebd9060048301613adf565b03925af1908115615ed05750615e475750565b513d5f823e3d90fd5b5f5160206161ef5f395f51905f5254604051639cd07acb60e01b815260048101929092526001600160a01b0316816044815f6020948160248401525af1908115613317575f91615f27575090565b90506020813d602011615f4e575b81615f4260209383613cbe565b81010312610d42575190565b3d9150615f35565b5f5160206161ef5f395f51905f5254604051639cd07acb60e01b81525f6004820152906001600160a01b0316816044815f602094600260248401525af1908115613317575f91615f27575090565b5f8052600f6020527ff4803e074bd026baaf6ed2e288c9515f68c72fb7216eebdd7cae1718a53ec3755464ffffffffff1691821561600c575b60405f5160206162cf5f395f51905f529164ffffffffff8251951685525f602086015260018060a01b031693a3565b60019250615fdd565b60025f52600f6020527fa74ba3945261e09fde15ba3db55005b205e61eeb4ad811ac0faa2b315bffeead5464ffffffffff1691821561607f575b60405f5160206162cf5f395f51905f529164ffffffffff8251951685526002602086015260018060a01b031693a3565b6001925061604f565b60015f52600f6020527f169f97de0d9a84d840042b17d3c6b9638b3d6fd9024c9eb0c7a306a17b49f88f5464ffffffffff169182156160f2575b60405f5160206162cf5f395f51905f529164ffffffffff8251951685526001602086015260018060a01b031693a3565b600192506160c2565b60035f52600f6020527f45f76dafbbad695564362934e24d72eedc57f9fc1a65f39bca62176cc82968285464ffffffffff16918215616165575b60405f5160206162cf5f395f51905f529164ffffffffff8251951685526003602086015260018060a01b031693a3565b6001925061613556fe0dd738ba66f27b7bbb29c5cc6def1e88d79b57acf1c5619ee961015ba8e50303c3153be9a718758990b6ccd60d5fadfbd0462460c343a8473064e01bf346e9e1e52e0b95af09047c9ad3883d7abefe1cec25a73b36e9fc1502acd666edc88a1b59604682590590d3834bb055beebf179de53952cb5e3bfeef55f68cc91139e9e9e7b61f58c47dc699ac88507c4f5bb9f121c03808c5676a8078fe583e46497011ae7635df2a72fd90186c4aeb9e7e770321b4ccd05823c7c71b29687379b68ed1a94bda2270274d408cdcd8caf26c71282f97b78c77933407f7d9960965e786377a1a2a04a06af1b1942ca5121ea6754946741dd90ac7a61eefe10b925fd8b44ccc537d6bc6219d97040bd9f3507ab8e2e97132de6a417806fa727e48caf7260d14530a3efae4c2f49131f1d8ab2764b33921c328e74cacb80fb2c95cc72ee839e7b61f58c47dc699ac88507c4f5bb9f121c03808c5676a8078fe583e464970058d1f3ed03db8b22ff8b8be3e7515f47bcd2b187270364bb5d5f1d0c1a0b9782f316d7c8fbaed21bbba081082c31ad45e10c53e396b47b339214094cb1a9304da164736f6c634300081b000a",
  "linkReferences": {
    "contracts/lib/EligibilityComputeLib.sol": {
      "EligibilityComputeLib": [
        {
          "length": 20,
          "start": 3471
        },
        {
          "length": 20,
          "start": 5140
        },
        {
          "length": 20,
          "start": 22933
        },
        {
          "length": 20,
          "start": 24695
        }
      ]
    },
    "contracts/lib/EligibilityProofLib.sol": {
      "EligibilityProofLib": [
        {
          "length": 20,
          "start": 4209
        },
        {
          "length": 20,
          "start": 10971
        },
        {
          "length": 20,
          "start": 19134
        }
      ]
    }
  },
  "deployedLinkReferences": {
    "contracts/lib/EligibilityComputeLib.sol": {
      "EligibilityComputeLib": [
        {
          "length": 20,
          "start": 2568
        },
        {
          "length": 20,
          "start": 4237
        },
        {
          "length": 20,
          "start": 22030
        },
        {
          "length": 20,
          "start": 23792
        }
      ]
    },
    "contracts/lib/EligibilityProofLib.sol": {
      "EligibilityProofLib": [
        {
          "length": 20,
          "start": 3306
        },
        {
          "length": 20,
          "start": 10068
        },
        {
          "length": 20,
          "start": 18231
        }
      ]
    }
  }
}