{
  "_format": "hh-sol-artifact-1",
  "contractName": "EncryptedConsentGate",
  "sourceName": "contracts/EncryptedConsentGate.sol",
  "abi": [
    {
      "inputs": [
        {
          "internalType": "address",
          "name": "_eligibilityEngine",
          "type": "address"
        },
        {
          "internalType": "address",
          "name": "_consentManager",
          "type": "address"
        }
      ],
      "stateMutability": "nonpayable",
      "type": "constructor"
    },
    {
      "inputs": [],
      "name": "ZamaProtocolUnsupported",
      "type": "error"
    },
    {
      "anonymous": false,
      "inputs": [
        {
          "indexed": true,
          "internalType": "address",
          "name": "computer",
          "type": "address"
        }
      ],
      "name": "ComputerAuthorized",
      "type": "event"
    },
    {
      "anonymous": false,
      "inputs": [
        {
          "indexed": true,
          "internalType": "address",
          "name": "computer",
          "type": "address"
        }
      ],
      "name": "ComputerDeauthorized",
      "type": "event"
    },
    {
      "anonymous": false,
      "inputs": [
        {
          "indexed": true,
          "internalType": "uint256",
          "name": "trialId",
          "type": "uint256"
        },
        {
          "indexed": true,
          "internalType": "bytes32",
          "name": "resultId",
          "type": "bytes32"
        },
        {
          "indexed": false,
          "internalType": "ebool",
          "name": "gatedResult",
          "type": "bytes32"
        }
      ],
      "name": "GateComputed",
      "type": "event"
    },
    {
      "anonymous": false,
      "inputs": [
        {
          "indexed": true,
          "internalType": "address",
          "name": "newOwner",
          "type": "address"
        }
      ],
      "name": "OwnershipAccepted",
      "type": "event"
    },
    {
      "anonymous": false,
      "inputs": [
        {
          "indexed": true,
          "internalType": "address",
          "name": "proposedOwner",
          "type": "address"
        }
      ],
      "name": "OwnershipProposed",
      "type": "event"
    },
    {
      "inputs": [],
      "name": "acceptOwnership",
      "outputs": [],
      "stateMutability": "nonpayable",
      "type": "function"
    },
    {
      "inputs": [
        {
          "internalType": "address",
          "name": "_computer",
          "type": "address"
        }
      ],
      "name": "authorizeComputer",
      "outputs": [],
      "stateMutability": "nonpayable",
      "type": "function"
    },
    {
      "inputs": [
        {
          "internalType": "address",
          "name": "",
          "type": "address"
        }
      ],
      "name": "authorizedComputers",
      "outputs": [
        {
          "internalType": "bool",
          "name": "",
          "type": "bool"
        }
      ],
      "stateMutability": "view",
      "type": "function"
    },
    {
      "inputs": [
        {
          "internalType": "uint256",
          "name": "",
          "type": "uint256"
        },
        {
          "internalType": "bytes32",
          "name": "",
          "type": "bytes32"
        },
        {
          "internalType": "ebool",
          "name": "",
          "type": "bytes32"
        },
        {
          "internalType": "ebool",
          "name": "",
          "type": "bytes32"
        }
      ],
      "name": "computeGate",
      "outputs": [
        {
          "internalType": "ebool",
          "name": "",
          "type": "bytes32"
        }
      ],
      "stateMutability": "pure",
      "type": "function"
    },
    {
      "inputs": [
        {
          "internalType": "uint256",
          "name": "_trialId",
          "type": "uint256"
        },
        {
          "internalType": "uint256",
          "name": "_nullifier",
          "type": "uint256"
        }
      ],
      "name": "computeGateWithActiveConsent",
      "outputs": [
        {
          "internalType": "ebool",
          "name": "",
          "type": "bytes32"
        }
      ],
      "stateMutability": "nonpayable",
      "type": "function"
    },
    {
      "inputs": [],
      "name": "confidentialProtocolId",
      "outputs": [
        {
          "internalType": "uint256",
          "name": "",
          "type": "uint256"
        }
      ],
      "stateMutability": "view",
      "type": "function"
    },
    {
      "inputs": [],
      "name": "consentManager",
      "outputs": [
        {
          "internalType": "contract ConsentManager",
          "name": "",
          "type": "address"
        }
      ],
      "stateMutability": "view",
      "type": "function"
    },
    {
      "inputs": [
        {
          "internalType": "address",
          "name": "_computer",
          "type": "address"
        }
      ],
      "name": "deauthorizeComputer",
      "outputs": [],
      "stateMutability": "nonpayable",
      "type": "function"
    },
    {
      "inputs": [],
      "name": "eligibilityEngine",
      "outputs": [
        {
          "internalType": "contract EligibilityEngine",
          "name": "",
          "type": "address"
        }
      ],
      "stateMutability": "view",
      "type": "function"
    },
    {
      "inputs": [
        {
          "internalType": "uint256",
          "name": "_trialId",
          "type": "uint256"
        },
        {
          "internalType": "bytes32",
          "name": "_uniqueId",
          "type": "bytes32"
        }
      ],
      "name": "gateExists",
      "outputs": [
        {
          "internalType": "bool",
          "name": "",
          "type": "bool"
        }
      ],
      "stateMutability": "view",
      "type": "function"
    },
    {
      "inputs": [
        {
          "internalType": "uint256",
          "name": "_trialId",
          "type": "uint256"
        },
        {
          "internalType": "bytes32",
          "name": "_uniqueId",
          "type": "bytes32"
        }
      ],
      "name": "getGatedResult",
      "outputs": [
        {
          "internalType": "ebool",
          "name": "",
          "type": "bytes32"
        }
      ],
      "stateMutability": "view",
      "type": "function"
    },
    {
      "inputs": [
        {
          "internalType": "uint256",
          "name": "",
          "type": "uint256"
        },
        {
          "internalType": "bytes32",
          "name": "",
          "type": "bytes32"
        }
      ],
      "name": "hasGatedResult",
      "outputs": [
        {
          "internalType": "bool",
          "name": "",
          "type": "bool"
        }
      ],
      "stateMutability": "view",
      "type": "function"
    },
    {
      "inputs": [],
      "name": "owner",
      "outputs": [
        {
          "internalType": "address",
          "name": "",
          "type": "address"
        }
      ],
      "stateMutability": "view",
      "type": "function"
    },
    {
      "inputs": [],
      "name": "pendingOwner",
      "outputs": [
        {
          "internalType": "address",
          "name": "",
          "type": "address"
        }
      ],
      "stateMutability": "view",
      "type": "function"
    },
    {
      "inputs": [
        {
          "internalType": "address",
          "name": "_newOwner",
          "type": "address"
        }
      ],
      "name": "proposeOwnership",
      "outputs": [],
      "stateMutability": "nonpayable",
      "type": "function"
    },
    {
      "inputs": [
        {
          "internalType": "uint256",
          "name": "_trialId",
          "type": "uint256"
        },
        {
          "internalType": "address",
          "name": "_sponsor",
          "type": "address"
        }
      ],
      "name": "setTrialSponsor",
      "outputs": [],
      "stateMutability": "nonpayable",
      "type": "function"
    },
    {
      "inputs": [
        {
          "internalType": "uint256",
          "name": "",
          "type": "uint256"
        }
      ],
      "name": "trialSponsor",
      "outputs": [
        {
          "internalType": "address",
          "name": "",
          "type": "address"
        }
      ],
      "stateMutability": "view",
      "type": "function"
    },
    {
      "inputs": [
        {
          "internalType": "uint256",
          "name": "_trialId",
          "type": "uint256"
        },
        {
          "internalType": "bytes32",
          "name": "_uniqueId",
          "type": "bytes32"
        }
      ],
      "name": "verifyGatePassed",
      "outputs": [
        {
          "internalType": "ebool",
          "name": "",
          "type": "bytes32"
        }
      ],
      "stateMutability": "view",
      "type": "function"
    }
  ],
  "bytecode": "0x60806040523461028757604051601f6110d338819003918201601f19168301916001600160401b0383118484101761028b578084926040948552833981010312610287576100586020610051836102be565b92016102be565b906100616102d2565b50466001036101a3576100726102d2565b5061007b61029f565b73ca2e8f1f656cd25c01f05d0b243ab1ecd4a8ffb6815273d82385dada1ae3e969447f20a3164f6213100e7560208201527377627828a55156b04ac0dc0eb30467f1a552bb0360408201525b80517f9e7b61f58c47dc699ac88507c4f5bb9f121c03808c5676a8078fe583e464970080546001600160a01b03199081166001600160a01b039384161790915560208301517f9e7b61f58c47dc699ac88507c4f5bb9f121c03808c5676a8078fe583e4649701805483169184169190911790556040928301517f9e7b61f58c47dc699ac88507c4f5bb9f121c03808c5676a8078fe583e464970280548316918416919091179055600280548216331790555f805482169483169490941790935560018054909316931692909217905551610de690816102ed8239f35b4662aa36a70361020e576101b56102d2565b506101be61029f565b73f0ffdc93b7e186bc2f8cb3daa75d86d1930a433d81527392c920834ec8941d2c77d188936e1f7a6f49c127602082015273be0e383937d564d7ff0bc3b46c51f0bf8d5c311a60408201526100c7565b46617a69036102785761021f6102d2565b5061022861029f565b7350157cffd6bbfa2dece204a89ec419c23ef5755d815273e3a9105a3a932253a70f126eb1e3b589c643dd24602082015273901f8942346f7ab3a01f6d7613119bca447bb03060408201526100c7565b6373cac13b60e01b5f5260045ffd5b5f80fd5b634e487b7160e01b5f52604160045260245ffd5b60405190606082016001600160401b0381118382101761028b57604052565b51906001600160a01b038216820361028757565b6102da61029f565b905f82525f60208301525f604083015256fe6080806040526004361015610012575f80fd5b5f3560e01c9081631e5888af14610a86575080632e0b0e7114610a075780634f11c690146109e05780635a81225014610276578063677678c61461098b578063710bf32214610911578063781a54471461088457806379ba5097146107e5578063835ba7a4146102cf578063882bd59a1461029d5780638927b0301461027b57806389a9cc90146102765780638a85ad0f1461020d5780638da5cb5b146101e5578063bd1a5b2e14610173578063ca18e14d14610136578063e30c39781461010e5763e75bb266146100e2575f80fd5b3461010a575f36600319011261010a576001546040516001600160a01b039091168152602090f35b5f80fd5b3461010a575f36600319011261010a576003546040516001600160a01b039091168152602090f35b3461010a57602036600319011261010a576001600160a01b03610157610acb565b165f526006602052602060ff60405f2054166040519015158152f35b3461010a57602036600319011261010a5761018c610acb565b6101a160018060a01b03600254163314610b69565b6001600160a01b03165f818152600660205260408120805460ff191690557fafe306e1a6564c1c83aaeecb2e15985f0aa0b39ae43576bff6c325b232883e9d9080a2005b3461010a575f36600319011261010a576002546040516001600160a01b039091168152602090f35b3461010a57604036600319011261010a576024356001600160a01b0381169081900361010a5761024860018060a01b03600254163314610b69565b610253811515610ba2565b6004355f90815260076020526040902080546001600160a01b0319169091179055005b610ae1565b3461010a575f36600319011261010a576020610295610c92565b604051908152f35b3461010a57602036600319011261010a576004355f526007602052602060018060a01b0360405f205416604051908152f35b3461010a57604036600319011261010a576004356024359060018060a01b0360025416331480156107cd575b61030490610bdd565b60018060a01b035f54169160405163e5ae6f5960e01b8152816004820152826024820152602081604481875afa9081156105fb575f916107ae575b506001600160a01b03811680156107765760405163cd5d36dd60e01b8152836004820152846024820152602081604481895afa9081156105fb575f91610747575b506001600160a01b03161561070f57600154604051631bedd75360e21b8152600481018390526001600160a01b039091169290602081602481875afa9081156105fb575f916106dd575b5060405190602082019287845286604084015260018060601b03199060601b166060830152607482015260748152610403609482610c1a565b51902092845f52600560205260405f20845f5260205260ff60405f20541661068e57602090604460405180988193636ff69a9960e11b835260048301528860248301525afa9485156105fb575f9561065a575b505f9160446020926040519485938492632264188b60e21b845260048401528860248401525af19081156105fb575f91610628575b5061049584610c70565b5061049f81610c70565b50808415610618575b15610606575b602090606460018060a01b035f516020610dba5f395f51905f525416955f604051978894859363d99882d560e01b8552600485015260248401528160448401525af19182156105fb575f926105c6575b6020935061050b83610c70565b505f8181526007855260409020546001600160a01b031661058d575b805f526004845260405f20825f5284528260405f2055805f526005845260405f20825f52845260405f20600160ff198254161790557fd2cd4f34cb7fa9a30a95c8e26b1d5cb58dedb227aeba6ae388c7274760c719d584604051858152a3604051908152f35b5f8181526007855260409020546105b3906001600160a01b03168480156105b857610d3c565b610527565b506105c1610cc1565b610d3c565b91506020833d6020116105f3575b816105e160209383610c1a565b8101031261010a5760209251916104fe565b3d91506105d4565b6040513d5f823e3d90fd5b506020610611610cc1565b90506104ae565b9350610622610cc1565b936104a8565b90506020813d602011610652575b8161064360209383610c1a565b8101031261010a57518461048b565b3d9150610636565b9094506020813d602011610686575b8161067660209383610c1a565b8101031261010a5751935f610456565b3d9150610669565b60405162461bcd60e51b815260206004820152602160248201527f4761746520616c726561647920636f6d707574656420666f72207468697320496044820152601160fa1b6064820152608490fd5b90506020813d602011610707575b816106f860209383610c1a565b8101031261010a5751876103ca565b3d91506106eb565b60405162461bcd60e51b815260206004820152601060248201526f2737903832b936b4ba103437b63232b960811b6044820152606490fd5b610769915060203d60201161076f575b6107618183610c1a565b810190610c51565b86610380565b503d610757565b60405162461bcd60e51b815260206004820152601060248201526f15d85b1b195d081b9bdd08189bdd5b9960821b6044820152606490fd5b6107c7915060203d60201161076f576107618183610c1a565b8461033f565b50335f9081526006602052604090205460ff166102fb565b3461010a575f36600319011261010a576003546001600160a01b038116903382900361084a57600280546001600160a01b03199081168417909155166003557fb27970c1714b28277b78cc17ac2fe9556e7f048cd48358cffe3dc7d547608fdc5f80a2005b60405162461bcd60e51b81526020600482015260126024820152712737ba10383937b837b9b2b21037bbb732b960711b6044820152606490fd5b3461010a5761089236610ab5565b9060018060a01b0360025416331480156108f4575b80156108dc575b6108b790610bdd565b5f52600560205260405f20905f52602052602060ff60405f2054166040519015158152f35b50335f9081526006602052604090205460ff166108ae565b50805f52600760205260018060a01b0360405f20541633146108a7565b3461010a57602036600319011261010a5761092a610acb565b61093f60018060a01b03600254163314610b69565b6001600160a01b0316610953811515610ba2565b600380546001600160a01b031916821790557f6ab4d119f23076e8ad491bc65ce85f017fb0591dce08755ba8591059cc51737a5f80a2005b3461010a57608036600319011261010a57606460405162461bcd60e51b815260206004820152602060248201527f55736520636f6d707574654761746557697468416374697665436f6e73656e746044820152fd5b3461010a575f36600319011261010a575f546040516001600160a01b039091168152602090f35b3461010a57602036600319011261010a57610a20610acb565b610a3560018060a01b03600254163314610b69565b6001600160a01b0316610a49811515610ba2565b805f52600660205260405f20600160ff198254161790557fb9bf3cff81288f96dfab8741ccf96588b8fc6a94e906c24d049b9092715a3ab05f80a2005b3461010a57602090610a9736610ab5565b905f526005835260405f20905f52825260ff60405f20541615158152f35b604090600319011261010a576004359060243590565b600435906001600160a01b038216820361010a57565b3461010a57610aef36610ab5565b9060018060a01b036002541633148015610b4c575b8015610b34575b610b1490610bdd565b5f52600460205260405f20905f52602052602060405f2054604051908152f35b50335f9081526006602052604090205460ff16610b0b565b50805f52600760205260018060a01b0360405f2054163314610b04565b15610b7057565b60405162461bcd60e51b815260206004820152600a60248201526927b7363c9037bbb732b960b11b6044820152606490fd5b15610ba957565b60405162461bcd60e51b815260206004820152600c60248201526b5a65726f206164647265737360a01b6044820152606490fd5b15610be457565b60405162461bcd60e51b815260206004820152600e60248201526d139bdd08185d5d1a1bdc9a5e995960921b6044820152606490fd5b601f909101601f19168101906001600160401b03821190821017610c3d57604052565b634e487b7160e01b5f52604160045260245ffd5b9081602091031261010a57516001600160a01b038116810361010a5790565b8015610c84575b610c813082610d3c565b90565b50610c8d610cc1565b610c77565b46600103610c9f57600190565b4662aa36a703610caf5761271190565b617a694614610cbc575f90565b5f1990565b5f602060018060a01b035f516020610dba5f395f51905f525416604460405180948193639cd07acb60e01b83528160048401528160248401525af19081156105fb575f91610d0d575090565b90506020813d602011610d34575b81610d2860209383610c1a565b8101031261010a575190565b3d9150610d1b565b7f9e7b61f58c47dc699ac88507c4f5bb9f121c03808c5676a8078fe583e4649700546001600160a01b031691823b1561010a57604051635ca4b5b160e11b815260048101929092526001600160a01b03166024820152905f908290604490829084905af180156105fb57610dad5750565b5f610db791610c1a565b56fe9e7b61f58c47dc699ac88507c4f5bb9f121c03808c5676a8078fe583e4649701a164736f6c634300081b000a",
  "linkReferences": {},
  "deployedLinkReferences": {}
}