{
  "_format": "hh-sol-artifact-1",
  "contractName": "HonkVerifierEncrypted",
  "sourceName": "contracts/HonkVerifierEncrypted.sol",
  "abi": [
    {
      "inputs": [],
      "name": "InvertOfZero",
      "type": "error"
    },
    {
      "inputs": [],
      "name": "PointAtInfinity",
      "type": "error"
    },
    {
      "inputs": [
        {
          "internalType": "uint256",
          "name": "logN",
          "type": "uint256"
        },
        {
          "internalType": "uint256",
          "name": "actualLength",
          "type": "uint256"
        },
        {
          "internalType": "uint256",
          "name": "expectedLength",
          "type": "uint256"
        }
      ],
      "name": "ProofLengthWrongWithLogN",
      "type": "error"
    },
    {
      "inputs": [],
      "name": "PublicInputsLengthWrong",
      "type": "error"
    },
    {
      "inputs": [],
      "name": "ShpleminiFailed",
      "type": "error"
    },
    {
      "inputs": [],
      "name": "SumcheckFailed",
      "type": "error"
    },
    {
      "inputs": [],
      "name": "ValueGeFieldOrder",
      "type": "error"
    },
    {
      "inputs": [],
      "name": "ValueGeGroupOrder",
      "type": "error"
    },
    {
      "inputs": [],
      "name": "ValueGeLimbMax",
      "type": "error"
    },
    {
      "inputs": [
        {
          "internalType": "bytes",
          "name": "proof",
          "type": "bytes"
        },
        {
          "internalType": "bytes32[]",
          "name": "publicInputs",
          "type": "bytes32[]"
        }
      ],
      "name": "verify",
      "outputs": [
        {
          "internalType": "bool",
          "name": "",
          "type": "bool"
        }
      ],
      "stateMutability": "view",
      "type": "function"
    }
  ],
  "bytecode": "0x610100604052348015610010575f5ffd5b50610800608052600b60a0527f239170d70c743966939a55d0ef272bc853d1a5d869a2d879193e53be38f10a3f60c052601760e05260805160a05160c05160e051615ca46100dc5f395f8181610180015261081101525f61015f01525f8181605b01528181609401528181610100015281816101a10152818161092a01528181610a3701528181610a6301528181610add0152818161131e015281816113be015281816115fb0152818161164701528181611695015281816116ec0152612df101525f5050615ca45ff3fe608060405234801561000f575f5ffd5b5060043610610029575f3560e01c8063ea50d0e41461002d575b5f5ffd5b61004061003b3660046157bd565b610054565b604051901515815260200160405180910390f35b5f5f61007f7f000000000000000000000000000000000000000000000000000000000000000061028b565b905061008c816020615895565b85146100ed577f0000000000000000000000000000000000000000000000000000000000000000856100bf836020615895565b6040516359895a5360e01b815260048101939093526024830191909152604482015260640160405180910390fd5b5f6100f6610339565b90505f61012488887f000000000000000000000000000000000000000000000000000000000000000061034e565b90506008826040015161013791906158ac565b85146101565760405163fa06659360e01b815260040160405180910390fd5b5f6101c58288887f00000000000000000000000000000000000000000000000000000000000000007f00000000000000000000000000000000000000000000000000000000000000007f0000000000000000000000000000000000000000000000000000000000000000610709565b90506102158787808060200260200160405190810160405280939291908181526020018383602002808284375f9201919091525050855185516020810151604090910151919350915060016107bb565b8151606001525f6102268383610922565b905080610246576040516313f8744360e31b815260040160405180910390fd5b5f610252848685610a23565b905080610272576040516352ec174560e11b815260040160405180910390fd5b81801561027c5750805b9b9a5050505050505050505050565b5f8061029960026008615895565b905060016102a8600885615895565b6102b29190615895565b6102bc90826158bf565b90506102ca60016029615895565b6102d490826158bf565b905060026102e36001856158ac565b6102ed9190615895565b6102f790826158bf565b9050610304600184615895565b61030e90826158bf565b905061031b600280615895565b61032590826158bf565b90506103326008826158bf565b9392505050565b6103416152d1565b6103496117cf565b905090565b61035661545b565b5f805b600881101561040a575f8683876103716020836158bf565b9261037e939291906158d2565b610387916158f9565b9050610394600283615916565b156103a05760786103a3565b60885b6103ae906002615a18565b81106103cd5760405163eb73e0bd60e01b815260040160405180910390fd5b6103d681612108565b845183600881106103e9576103e9615a26565b6020020181815250506020836103ff91906158bf565b925050600101610359565b5061042e85828661041c6040836158bf565b92610429939291906158d2565b61213a565b602083015261043e6040826158bf565b905061045185828661041c6040836158bf565b60408084019190915261046490826158bf565b905061047785828661041c6040836158bf565b60608301526104876040826158bf565b905061049a85828661041c6040836158bf565b60c08301526104aa6040826158bf565b90506104bd85828661041c6040836158bf565b60e08301526104cd6040826158bf565b90506104e085828661041c6040836158bf565b60808301526104f06040826158bf565b905061050385828661041c6040836158bf565b6101008301526105146040826158bf565b905061052785828661041c6040836158bf565b60a08301526105376040826158bf565b90505f5b838110156105c7575f5b60088110156105be5761057187848861055f6020836158bf565b9261056c939291906158d2565b6121f5565b846101200151836019811061058857610588615a26565b6020020151826008811061059e5761059e615a26565b6020020181815250506020836105b491906158bf565b9250600101610545565b5060010161053b565b505f5b602981101561061b576105e486838761055f6020836158bf565b83610140015182602981106105fb576105fb615a26565b60200201818152505060208261061191906158bf565b91506001016105ca565b505f5b6106296001856158ac565b8110156106725761064186838761041c6040836158bf565b836101600151826018811061065857610658615a26565b60200201526106686040836158bf565b915060010161061e565b505f5b838110156106c55761068e86838761055f6020836158bf565b83610180015182601981106106a5576106a5615a26565b6020020181815250506020826106bb91906158bf565b9150600101610675565b506106d785828661041c6040836158bf565b6101a08301526106e86040826158bf565b90506106fb85828661041c6040836158bf565b6101c0830152509392505050565b61071161550b565b5f610720888888888886612208565b908352905061072f818961224c565b602084019190915290506107438184612351565b604084019190915290506107588882856123ee565b6060840191909152905061076c88826124d0565b60808401919091529050610781888285612569565b60a084019190915290506107968882856126eb565b60c084019190915290506107aa88826127af565b5060e0830152509695505050505050565b5f600180826107e8866107e3896107de6107d98a63100000006158bf565b612108565b6127fb565b612816565b90505f610806876108018a6107de6107d98b60016158bf565b61282f565b90505f5b61083560087f00000000000000000000000000000000000000000000000000000000000000006158ac565b8110156108a2575f61085f8c838151811061085257610852615a26565b6020026020010151612857565b905061086f866107de8684612816565b955061087f856107de8584612816565b945061088b848b612816565b9350610897838b61282f565b92505060010161080a565b505f5b6008811015610909575f8a82600881106108c1576108c1615a26565b602002015190506108d6866107de8684612816565b95506108e6856107de8584612816565b94506108f2848b612816565b93506108fe838b61282f565b9250506001016108a5565b506109148484612886565b9a9950505050505050505050565b5f806001815b7f00000000000000000000000000000000000000000000000000000000000000008110156109f9575f866101200151826019811061096857610968615a26565b602002015190505f61097a8286612894565b90508061099a576040516313f8744360e31b815260040160405180910390fd5b5f876060015184601981106109b1576109b1615a26565b602002015190506109c283826128b4565b95506109e9886040015185601981106109dd576109dd615a26565b60200201518683612a63565b9450505050806001019050610928565b505f610a13866101400151865f0151876020015185612a8e565b90508281145b9695505050505050565b5f610a2c615564565b5f610a5b8460a001517f0000000000000000000000000000000000000000000000000000000000000000612b07565b90505f610a897f000000000000000000000000000000000000000000000000000000000000000060246158bf565b610a949060026158bf565b6001600160401b03811115610aab57610aab615a3a565b604051908082528060200260200182016040528015610ad4578160200160208202803683370190505b5090505f610b037f000000000000000000000000000000000000000000000000000000000000000060246158bf565b610b0e9060026158bf565b6001600160401b03811115610b2557610b25615a3a565b604051908082528060200260200182016040528015610b5e57816020015b610b4b6155d4565b815260200190600190039081610b435790505b509050610b90610b8b8760e00151855f81518110610b7e57610b7e615a26565b602002602001015161282f565b612bd0565b84610120018181525050610bc4610b8b8760e00151855f81518110610bb757610bb7615a26565b6020026020010151612816565b610140850181905261012085015160c0880151610be5926107e391906127fb565b845260a0860151610c1590610bf990612bd0565b6107de8661012001516108018a60c001518961014001516127fb565b6020850152815160019083905f90610c2f57610c2f615a26565b602002602001018181525050876101a00151815f81518110610c5357610c53615a26565b6020908102919091010152600160a08501525f60c08501528351610c7690612c68565b60408501526020840151610c8990612c68565b606085015260015b60248111610d3457610cab85604001518660a001516127fb565b838281518110610cbd57610cbd615a26565b602002602001018181525050610d068560c001516107e38b6101400151600185610ce791906158ac565b60298110610cf757610cf7615a26565b60200201518860a001516127fb565b60c086015260a08501516080880151610d1f91906127fb565b60a0860152610d2d81615a4e565b9050610c91565b505f5b6005811015610e02575f610d4c601d836158bf565b90505f610d5a6024846158bf565b9050610d8b858381518110610d7157610d71615a26565b60200260200101516107e389606001518a60a001516127fb565b858381518110610d9d57610d9d615a26565b602002602001018181525050610dda8760c001516107e38d61014001518460298110610dcb57610dcb615a26565b60200201518a60a001516127fb565b60c088015260a087015160808a0151610df391906127fb565b60a08801525050600101610d37565b50866060015181600181518110610e1b57610e1b615a26565b6020026020010181905250866080015181600281518110610e3e57610e3e615a26565b60200260200101819052508660a0015181600381518110610e6157610e61615a26565b60200260200101819052508660c0015181600481518110610e8457610e84615a26565b60200260200101819052508660e0015181600581518110610ea757610ea7615a26565b602002602001018190525086610100015181600681518110610ecb57610ecb615a26565b602002602001018190525086610120015181600781518110610eef57610eef615a26565b602002602001018190525086610140015181600881518110610f1357610f13615a26565b602002602001018190525086610160015181600981518110610f3757610f37615a26565b6020026020010181905250866101c0015181600a81518110610f5b57610f5b615a26565b602002602001018190525086610180015181600b81518110610f7f57610f7f615a26565b6020026020010181905250866101a0015181600c81518110610fa357610fa3615a26565b6020026020010181905250866101e0015181600d81518110610fc757610fc7615a26565b602002602001018190525086610200015181600e81518110610feb57610feb615a26565b602002602001018190525086610220015181600f8151811061100f5761100f615a26565b60200260200101819052508661024001518160108151811061103357611033615a26565b60200260200101819052508661026001518160118151811061105757611057615a26565b60200260200101819052508661028001518160128151811061107b5761107b615a26565b6020026020010181905250866102a001518160138151811061109f5761109f615a26565b6020026020010181905250866102c00151816014815181106110c3576110c3615a26565b6020026020010181905250866102e00151816015815181106110e7576110e7615a26565b60200260200101819052508661030001518160168151811061110b5761110b615a26565b60200260200101819052508661032001518160178151811061112f5761112f615a26565b60200260200101819052508661034001518160188151811061115357611153615a26565b60200260200101819052508661036001518160198151811061117757611177615a26565b602002602001018190525086610380015181601a8151811061119b5761119b615a26565b6020026020010181905250866103a0015181601b815181106111bf576111bf615a26565b6020026020010181905250866103c0015181601c815181106111e3576111e3615a26565b6020026020010181905250876020015181601d8151811061120657611206615a26565b6020026020010181905250876040015181601e8151811061122957611229615a26565b6020026020010181905250876060015181601f8151811061124c5761124c615a26565b602002602001018190525087608001518160208151811061126f5761126f615a26565b60200260200101819052508760a001518160218151811061129257611292615a26565b6020026020010181905250876101000151816022815181106112b6576112b6615a26565b60200260200101819052508760c00151816023815181106112d9576112d9615a26565b60200260200101819052508760e00151816024815181106112fc576112fc615a26565b60200260200101819052505f61134287606001518660c001518b6101800151877f0000000000000000000000000000000000000000000000000000000000000000612c7a565b905061136c815f8151811061135957611359615a26565b60200260200101518661012001516127fb565b608086018190526101808a01515160c089015161139d92916107e39161139291906127fb565b8861014001516127fb565b608086015260c08701516113b090612dd8565b60a08601525f5b6113e260017f00000000000000000000000000000000000000000000000000000000000000006158ac565b8110156115df57611412610b8b8960e001518784600161140291906158bf565b81518110610b7e57610b7e615a26565b61012087015260e088015161144190610b8b90876114318560016158bf565b81518110610bb757610bb7615a26565b61014087015260a086015161012087015161145c91906127fb565b61016087015260a086015160c089015161148491611479916127fb565b8761014001516127fb565b61018087018190526114a79061149990612c68565b6107e3886101600151612c68565b84826114b5602460016158bf565b6114bf91906158bf565b815181106114cf576114cf615a26565b6020026020010181815250505f6115128761018001518c61018001518460016114f891906158bf565b6019811061150857611508615a26565b60200201516127fb565b905061154c816107e38961016001518686600161152f91906158bf565b8151811061153f5761153f615a26565b60200260200101516127fb565b905061155c876080015182612816565b608088015260a087015160c08a015161158291611578916127fb565b8a60c001516127fb565b60a08801526101608b0151826018811061159e5761159e615a26565b602002015184836115b1602460016158bf565b6115bb91906158bf565b815181106115cb576115cb615a26565b6020908102919091010152506001016113b7565b50604080518082019091526001815260026020820152826116217f000000000000000000000000000000000000000000000000000000000000000060246158bf565b8151811061163157611631615a26565b602090810291909101015260808501518361166d7f000000000000000000000000000000000000000000000000000000000000000060246158bf565b8151811061167d5761167d615a26565b60209081029190910101526101c089015180836116bb7f000000000000000000000000000000000000000000000000000000000000000060246158bf565b6116c69060016158bf565b815181106116d6576116d6615a26565b602090810291909101015260e0880151846117127f000000000000000000000000000000000000000000000000000000000000000060246158bf565b61171d9060016158bf565b8151811061172d5761172d615a26565b6020026020010181815250505f6117448486612de3565b90505f61175083612ef3565b905061175e8c5f0151612f2a565b6117b5575f6117718d5f01518484612f63565b90505f5f6117818f5f0151612fe8565b9150915061178e826130c5565b611797816130c5565b6117a28583856130ef565b94506117af8482856130ef565b93505050505b6117bf8282613115565b9c9b505050505050505050505050565b6117d76152d1565b50604080516103e0810182526108008152600b602080830191909152601782840152825180840184527f251cae7efbeea01e286dbfbcdf5a5f6feeeaef80a5a16507b207bac1b260c1f181527f0d3b308cf8370e2ebd04a835677270df5154c5e58fbfe318f838ef0991a5a97e818301526060830152825180840184527f14a913194d13de173dfd400d02513bf509295c68b83669c17ebdef9c966377ac81527f28db9680c9adc56ca914123f36356b4429542fd2aa4fb00438e1e8114b18d6e2818301526080830152825180840184527f012303a042a04dbb967a7d36ab07c7c0843ad68dec40cd050f070a24786d82e081527f22c09970b42ace96e3a1b0d653cb2a2e4d03dedbadc90f24720ab073971753748183015260a0830152825180840184527f2b0a9a9ee08e5b63e14b9d92b2ef5dd0f5eb0f768b40bbaa08400345cf42c2ae81527f07c824e48b4d02458fd7bbe21eb73d5cec1120c9e9c866a15e916cd1a0b6b4ab8183015260c0830152825180840184527f211c626142345716a1cf178890ddacaae0fa2dc056c73d93de912d0ecb80721381527f0b0208b73631c93decee1cc5fc1ffad9ccada53ec02f079f9a4c48fcb60e9c978183015260e0830152825180840184527f2c5c185a38acc0f5c826b2341f449592ac244a5ff49730ac15b94b185b4baf8581527f19ee711438acbca460b073897e8f65955b4aa04f1f2b33a22b29071f33feda7881830152610100830152825180840184527f1958b13f38f58756e23989a418de3c113d47a2256ba6f60a9e2ec0523c52a99181527f286c1d4c53af6654de284fbb620f90a9e00aa9470a9e3c58a56cc81e212df92381830152610120830152825180840184527f1044c164efef1f4e1c18d7165b998ec1dc3b2e20d548afd03fad9a6cd6b77bc681527f1d4a4146b71f2be5bf33df21b7c3b437dead5e7a794f7f9cf97f70b6baa6fc5181830152610140830152825180840184527f231c7b5e044da4c7c63fc7d9cc9e97793d5cc4f8ba81978b7e3d5de30c0ffb0181527f201cd5d5bb7a798033ecdca4c4ab9d7cb819f0f2d9aa5424a92f6814854b0fee81830152610160830152825180840184527f16ac16e6a426ceb9567bed75b7bf190c3125d7bf52a3ad125dcd7bf31a17326c81527f0eb5095f3f26dd97e0c3599521833a1e60c648577dd22fdbe2d7f21758d5156881830152610180830152825180840184527f2bfebf7e0eff7aba82e1fe0337aec14b70bd4e028217414093d80b8cc22e505681527f0c1bc71ea583a70c55833bcc61904a219100013e2005db19104bf860cedf8f42818301526101a0830152825180840184527f08dfd55744be2b8368e2ebc1051b2b4b9a6d6d26b3e3383607cc5ab3000509c581527f2b7c7e090e0f8c515341be131fbb269256e6d560e2f47a4efa61b2730967a76c818301526101c0830152825180840184527f1c25ab78c0a7dde8329f54b632a6406a73d5a499c4f30b2007d6546db0f83e8481527f1b025a43907abb97fab0965ee8af046739d9e17d9c29fa4be2907247ec935a41818301526101e0830152825180840184527f2d17a21693befa088ee25994bbf1bed76d0f1ce2f76e9f0ca62b513807e7831481527f2c85ca8a192e5e8c50afc12ac267fe635016ead5fc120cdfd295746b6b58f2a881830152610200830152825180840184527f24f4c99e382fe002c01046058d2599d2f58595634fd7b6c4d075f1bee5ab33d381527f1ae23873822e87c31b5c24946a22b69da11c14518cb072acadeeea5ea10d1f3781830152610220830152825180840184527f255de9a9b1d2d9527f587e41804215652abb660de7652b5b6fde5153df808b3281527f1f18be92e876d4c8f02366bb433559440ad36febd8b0da87e74f8986ad0a590681830152610240830152825180840184527f295f3ba3155570f1245cebf0fc3ed7543f83f18df3302e198a3f7217d63b913a81527f11d8fbf19fab04ede3a001b4d9563b740883a93c9ccdef9bade5443310302d4581830152610260830152825180840184527f1f462c149cd036398addd5f82b6eb06eecb8f2d2817f624268d3d1f07b415ca181527f15a126188df1b3cdf7fd77dc5a5f39127f44b52c4c0196f3ab94472155d52a7581830152610280830152825180840184527f2fde90a9c17f014d04ca7677b0e6d5a67949bf96013a77b1379f6940bcd31eef81527f2a3c31f7482d1e3a43ceca11ec71e50c77a88b2b58fab91cc7a2c3458efc87e0818301526102a0830152825180840184527f21a7758e40464c6c777413c2783b8e85036d332f0ed95b007ae02a51e264142181527f1c33cb71b522b57e5846a55eead3f83730a831237a74fca4fbd76b184fc61e5c818301526102c0830152825180840184527f017274a7d3100b5439817cac5adbe86b393d0d4e6a4490433de63cc8d7cf830581527f0ac92403dcdac2a763b890bf3ac04d1a5b7fa9e4e396f137a0bc5c3d9af07cd6818301526102e0830152825180840184527f2cec26d4549b5db46cf5e3d8ae566b15621f1a7328dcb4a7c8c6c1c6e18fe47181527f0fc1b7297c0ff190a35ab0edc3c7cc4d401c4590ef7826b8c9882d2fb952872781830152610300830152825180840184527f099e3bd5a0a00ab7fe18040105b9b395b5d8b7b4a63b05df652b0d10ef146d2681527e15b8d2515d76e2ccec99dcd194592129af3a637f5a622a32440f860d1e2a7f81830152610320830152825180840184527f1b917517920bad3d8bc01c9595092a222b888108dc25d1aa450e0b4bc212c37e81527f305e8992b148eedb22e6e992077a84482141c7ebe42000a1d58ccb74381f6d1981830152610340830152825180840184527f16465a5ccbb550cd2c63bd58116fe47c86847618681dc29d8a9363ab7c40e1c381527f2e24d420fbf9508ed31de692db477b439973ac12d7ca796d6fe98ca40e6ca6b781830152610360830152825180840184527f043d063b130adfb37342af45d0155a28edd1a7e46c840d9c943fdf45521c64ce81527f261522c4089330646aff96736194949330952ae74c573d1686d9cb4a007338548183015261038083015282518084018452600181526002818301526103a083015282518084019093527f1fb1695909ad750901f6a85da5fce88a7770259cd317cb9166b2f1426fd4822883527f2fe376b1ad688c2ec70449e9dc5d261a335e1e8b4a29618183b784ade94a1cff908301526103c081019190915290565b5f5f516020615c4f5f395f51905f528210612136576040516320a3358960e01b815260040160405180910390fd5b5090565b6121426155d4565b5f61215060208285876158d2565b612159916158f9565b90505f61216a6040602086886158d2565b612173916158f9565b90505f516020615c2f5f395f51905f528210801561219d57505f516020615c2f5f395f51905f5281105b6121ba5760405163303df09f60e11b815260040160405180910390fd5b8082175f036121dc57604051634ddaa5e560e01b815260040160405180910390fd5b6040805180820190915291825260208201529392505050565b5f61033261220383856158f9565b612857565b6122106155ec565b5f61221e8888888888613309565b908352925061222d838961362c565b6040850191909152602084019190915291989197509095505050505050565b612254615610565b5f61225d61562f565b8481526101008401805151602080840191909152905181015160408084019190915260a086018051516060850152518201516080840152516122d6915f516020615c4f5f395f51905f52916122b491859101615a66565b604051602081830303815290604052805190602001205f1c6107d99190615916565b91505f6122e2836136c2565b50808552905060015b6122f76001601c6158ac565b811015612347576123288561230d6001846158ac565b601b811061231d5761231d615a26565b6020020151836127fb565b8582601b811061233a5761233a615a26565b60200201526001016122eb565b5050509250929050565b61235961564d565b5f61237e5f516020615c4f5f395f51905f52856040516020016122b491815260200190565b9350612389846136c2565b50825260015b838110156123e6576123c7836123a66001846158ac565b601981106123b6576123b6615a26565b6020020151846114f86001856158ac565b8382601981106123d9576123d9615a26565b602002015260010161238f565b509093915050565b6123f661564d565b5f805b838110156124c65761240961566c565b8581525f5b600881101561247257876101200151836019811061242e5761242e615a26565b6020020151816008811061244457612444615a26565b6020020151826124558360016158bf565b6009811061246557612465615a26565b602002015260010161240e565b506124955f516020615c4f5f395f51905f52826040516020016122b49190615a99565b95505f6124a1876136c2565b8685601981106124b3576124b3615a26565b60200201919091525050506001016123f9565b5090949293505050565b5f5f6124da61568b565b8381525f5b602981101561252d5785610140015181602981106124ff576124ff615a26565b6020020151826125108360016158bf565b602a811061252057612520615a26565b60200201526001016124df565b506125505f516020615c4f5f395f51905f52826040516020016122b49190615acd565b91505f61255c836136c2565b5096929550919350505050565b5f80806125776001856158ac565b612582906002615895565b61258d9060016158bf565b6001600160401b038111156125a4576125a4615a3a565b6040519080825280602002602001820160405280156125cd578160200160208202803683370190505b50905084815f815181106125e3576125e3615a26565b60209081029190910101525f5b6125fb6001866158ac565b8110156126ae57866101600151816018811061261957612619615a26565b6020020151518261262b836002615895565b6126369060016158bf565b8151811061264657612646615a26565b602002602001018181525050866101600151816018811061266957612669615a26565b602002015160200151828260026126809190615895565b61268b9060026158bf565b8151811061269b5761269b615a26565b60209081029190910101526001016125f0565b506126d15f516020615c4f5f395f51905f52826040516020016122b49190615b01565b91505f6126dd836136c2565b509792965091945050505050565b5f80806126f98460016158bf565b6001600160401b0381111561271057612710615a3a565b604051908082528060200260200182016040528015612739578160200160208202803683370190505b50905084815f8151811061274f5761274f615a26565b60209081029190910101525f5b848110156126ae57866101800151816019811061277b5761277b615a26565b60200201518261278c8360016158bf565b8151811061279c5761279c615a26565b602090810291909101015260010161275c565b5f5f6127b96156aa565b8381526101a08501805151602080840191909152905181015160408084019190915251612550915f516020615c4f5f395f51905f52916122b491859101615b36565b5f5f516020615c4f5f395f51905f5282840990505b92915050565b5f5f516020615c4f5f395f51905f528284089392505050565b5f5f516020615c4f5f395f51905f52825f516020615c4f5f395f51905f520384089392505050565b5f815f516020615c4f5f395f51905f528110612810576040516320a3358960e01b815260040160405180910390fd5b5f610332836107de84612bd0565b815160208301515f9182916128a99190612816565b929092149392505050565b60408051610100810182527f30644e72e131a029b85045b68181585d2833e84879b9709143e1f593efffec5181526102d060208201527f30644e72e131a029b85045b68181585d2833e84879b9709143e1f593efffff1191810191909152609060608201527f30644e72e131a029b85045b68181585d2833e84879b9709143e1f593efffff71608082015260f060a08201527f30644e72e131a029b85045b68181585d2833e84879b9709143e1f593effffd3160c08201526113b060e08201525f906001825b600881101561299b57612991826107de878461282f565b915060010161297a565b506129a46156c8565b5f5b6008811015612a05575f8482600881106129c2576129c2615a26565b602002015190506129d7816107de898561282f565b90506129e281612bd0565b9050808383600881106129f7576129f7615a26565b6020020152506001016129a6565b505f5b6008811015612a58575f878260088110612a2457612a24615a26565b60200201519050612a418184846008811061150857611508615a26565b9050612a4d8682612816565b955050600101612a08565b50610a1984836127fb565b5f5f612a7960016107e3856107de89600161282f565b9050612a8584826127fb565b95945050505050565b5f612a976156e7565b612aa28682856136f2565b612aae8686838661389e565b612aba86868386613a86565b612ac5868285613cd5565b612ad0868285613ec9565b612adc8686838661420c565b612ae78682856146be565b612af2868285614ad0565b612afd868285614e91565b610a198185615191565b60605f826001600160401b03811115612b2257612b22615a3a565b604051908082528060200260200182016040528015612b4b578160200160208202803683370190505b50905083815f81518110612b6157612b61615a26565b602090810291909101015260015b83811015612bc857612ba382612b866001846158ac565b81518110612b9657612b96615a26565b6020026020010151612dd8565b828281518110612bb557612bb5615a26565b6020908102919091010152600101612b6f565b509392505050565b5f81808203612bf257604051635964a97160e11b815260040160405180910390fd5b5f604051602081526020808201526020604082015282606082015260025f516020615c4f5f395f51905f520360808201525f516020615c4f5f395f51905f5260a082015260205f60c08360055afa80612c545763f8d6170960e01b5f5260045ffd5b505f5160c091909101604052949350505050565b5f516020615c4f5f395f51905f520390565b60605f826001600160401b03811115612c9557612c95615a3a565b604051908082528060200260200182016040528015612cbe578160200160208202803683370190505b509050825b8015612dcd575f85612cd66001846158ac565b81518110612ce657612ce6615a26565b602002602001015190505f89600184612cff91906158ac565b60198110612d0f57612d0f615a26565b602002015190505f612d6a612d2e612d27858d6127fb565b60026127fb565b6108018b612d3d6001896158ac565b60198110612d4d57612d4d615a26565b60200201516107de612d64886107de60018a61282f565b8761282f565b9050612d8b816107de610b8b612d85876107de60018961282f565b86612816565b99508990508085612d9d6001876158ac565b81518110612dad57612dad615a26565b60200260200101818152505050505080612dc690615b69565b9050612cc3565b509695505050505050565b5f61281082836127fb565b612deb6155d4565b5f612e177f000000000000000000000000000000000000000000000000000000000000000060246158bf565b612e229060026158bf565b90505f5b81811015612e5857612e50858281518110612e4357612e43615a26565b60200260200101516130c5565b600101612e26565b50604051600190815b60018401811015612ebd5760208102870160208202870181515160408501528151602001516060850152805160808501525050604080830160606040850160075afa8316925060408260808460065afa90921691600101612e61565b5080518452602081015160208501525080612eeb576040516352ec174560e11b815260040160405180910390fd5b505092915050565b612efb6155d4565b602082015115612136576020820151612f21905f516020615c2f5f395f51905f526158ac565b60208301525090565b5f80805b6008811015612f5b57838160088110612f4957612f49615a26565b60200201519190911790600101612f2e565b501592915050565b5f5f5f612f6f86612fe8565b91509150612f7b6156c8565b82518152602080840151818301528251604080840191909152838201516060840152875160808401528782015160a0840152865160c08401528682015160e084015251612fdd915f516020615c4f5f395f51905f52916122b491859101615b7e565b979650505050505050565b612ff06155d4565b612ff86155d4565b8251602084015160408501516060860151608087015160a088015160c089015160e08a0151608896871b9097179693861b9094179490811b9091179291901b175f516020615c2f5f395f51905f528410801561306057505f516020615c2f5f395f51905f5283105b801561307857505f516020615c2f5f395f51905f5282105b801561309057505f516020615c2f5f395f51905f5281105b6130ad5760405163303df09f60e11b815260040160405180910390fd5b92855260208086019290925283528201529092909150565b60208101518151175f036130ec57604051634ddaa5e560e01b815260040160405180910390fd5b50565b6130f76155d4565b6130ff6155d4565b61310983866151ea565b9050612a858185615240565b81516020808401518351848301516040805194850195909552938301919091527f198e9393920d483a7260bfb731fb5d25f1aa493335a9e71297e485b7aef312c260608301527f1800deef121f1e76426a00665e5c4479674322d4f75edadd46debd5cd992f6ed60808301527f090689d0585ff075ec9e99ad690c3395bc4b313370b38ef355acdadcd122975b60a08301527f12c85ea5db8c6deb4aab71808dcb408fe3d1e7690c43d37b4ce6cc0166fa7daa60c083015260e08201526101008101919091527f260e01b251f6f1c7e7ff4e580791dee8ea51d87a358e038b4efe30fac09383c16101208201527f0118c4d5b837bcc2bc89b5b398b5974e9f5944073b32078b7e231fec938883b06101408201527f04fc6369f7110fe3d25156c1bb9a72859cf2a04641f99ba4ee413c80da6a5fe46101608201527f22febda3c0c0632a56475b4214e5615e11e6dd3f96e6cea2854a87d4dacc5e556101808201525f9081906101a00160405160208183030381529060405290505f5f60086001600160a01b0316836040516132ab9190615bb2565b5f60405180830381855afa9150503d805f81146132e3576040519150601f19603f3d011682016040523d82523d5f602084013e6132e8565b606091505b5091509150818015610a19575080806020019051810190610a199190615bc8565b5f80806133178460016158bf565b6133229060066158bf565b6001600160401b0381111561333957613339615a3a565b604051908082528060200260200182016040528015613362578160200160208202803683370190505b509050845f1b815f8151811061337a5761337a615a26565b60209081029190910101525f5b6133926008866158ac565b81101561342a575f516020615c4f5f395f51905f528888838181106133b9576133b9615a26565b905060200201355f1c106133e0576040516320a3358960e01b815260040160405180910390fd5b8787828181106133f2576133f2615a26565b905060200201358282600161340791906158bf565b8151811061341757613417615a26565b6020908102919091010152600101613387565b505f5b600881101561349b57885161345590826008811061344d5761344d615a26565b602002015190565b828260086134648960016158bf565b61346e91906158ac565b61347891906158bf565b8151811061348857613488615a26565b602090810291909101015260010161342d565b50602088015151816134ae8660016158bf565b815181106134be576134be615a26565b602090810291909101810191909152888101510151816134df8660016158bf565b6134ea9060016158bf565b815181106134fa576134fa615a26565b6020908102919091010152604088015151816135178660016158bf565b6135229060026158bf565b8151811061353257613532615a26565b60209081029190910181019190915260408901510151816135548660016158bf565b61355f9060036158bf565b8151811061356f5761356f615a26565b60209081029190910101526060880151518161358c8660016158bf565b6135979060046158bf565b815181106135a7576135a7615a26565b60209081029190910181019190915260608901510151816135c98660016158bf565b6135d49060056158bf565b815181106135e4576135e4615a26565b6020026020010181815250506136125f516020615c4f5f395f51905f52826040516020016122b49190615b01565b915061361d826136c2565b50989197509095505050505050565b5f5f5f613637615706565b85815260c0858101805151602080850191909152905181015160408085019190915260e08801805151606086015251820151608080860191909152880180515160a0860152518201519284019290925290516136a8915f516020615c4f5f395f51905f52916122b491859101615be7565b91506136b3826136c2565b90979096509194509092505050565b5f808260016001607f1b038116607f82901c6136dd82612108565b94506136e881612108565b9350505050915091565b5f6136fe8460076152a1565b90507f183227397098d014dc2822db40c0ac2e9419f4243cdcb848a1f0fac9f80000005f61375f61375961373385600361282f565b6107de61374e6137438b5f6152a1565b6107de8c601d6152a1565b6107de8b601c6152a1565b836127fb565b90506137e06137d56137bc6137a361378a856107e361377f8d60026152a1565b6107de8e601c6152a1565b6107e36137988c60036152a1565b6107de8d601d6152a1565b6107e36137b18b60046152a1565b6107de8c601e6152a1565b6107e36137ca8a60056152a1565b6107de8b601f6152a1565b6107e38860016152a1565b90506137ff816107e36137f486600161282f565b6107de8a60276152a1565b905061380b81846127fb565b905061381781856127fb565b8552505f905061385161384761383c61383188601c6152a1565b6107e389601f6152a1565b6108018860246152a1565b6107e3875f6152a1565b9050613862816107de84600261282f565b9050613873816107de84600161282f565b905061387f81836127fb565b905061388b81846127fb565b9050808460015b60200201525050505050565b5f5f5f6138d46138ca6138b289601c6152a1565b6107e36138c08b60126152a1565b8a602001516127fb565b8760400151612816565b905061390d816107de6139036138eb8b601d6152a1565b6107e36138f98d60136152a1565b8c602001516127fb565b8960400151612816565b9050613932816107de6139036139248b601e6152a1565b6107e36138f98d60146152a1565b9050613957816107de6139036139498b601f6152a1565b6107e36138f98d60156152a1565b92505f905061397b6138ca61396d89601c6152a1565b6107e36138c08b600e6152a1565b90506139a0816107de6139036139928b601d6152a1565b6107e36138f98d600f6152a1565b90506139c5816107de6139036139b78b601e6152a1565b6107e36138f98d60106152a1565b90506139ea816107de6139036139dc8b601f6152a1565b6107e36138f98d60116152a1565b91505f9050613a11613a0b613a008960206152a1565b6107e38a601a6152a1565b846127fb565b9050613a4681610801613a40613a288b60286152a1565b6107e3613a368d601b6152a1565b8c606001516127fb565b856127fb565b9050613a5281856127fb565b6040860152505f613a75613a40613a6a89601b6152a1565b6107de8a60286152a1565b606090950194909452505050505050565b5f5f5f613a9b866020015187602001516127fb565b9050613aff613ae4613ad6613abe613ab48b60166152a1565b8a60400151612816565b6107e3613acc8c60176152a1565b8b602001516127fb565b6107e3613a408b60186152a1565b6107e3613af5613a408b60196152a1565b89602001516127fb565b9250505f613b15866020015187602001516127fb565b90505f613b42613b296139038a601c6152a1565b6107e3613b378b60036152a1565b6107de8c60246152a1565b90505f613b6b613b538a601d6152a1565b6107e3613b608c5f6152a1565b6107de8d60256152a1565b90505f613b95613b7c8b601e6152a1565b6107e3613b8a8d60016152a1565b6107de8e60266152a1565b9050613bd0613bb9613baf856107e3868e602001516127fb565b6107e384886127fb565b6107e36138f9613bca8e60046152a1565b886127fb565b9450505050505f613be5613a0b8860216152a1565b90505f613bf6613a0b8960216152a1565b90505f613c2e613c15613c0a8b60236152a1565b6107e38c60066152a1565b610801613c238c60236152a1565b6107de8d60066152a1565b90505f613c52613c4c613c4187896127fb565b6107de8d60216152a1565b8361282f565b9050613c5e81886127fb565b90505f613c86613c78613c728d60066152a1565b876127fb565b610801613c728e60226152a1565b90505f613c948c60236152a1565b90505f613ca4613c4c83846127fb565b60808c0185905260a08c018490529050613cbe818b6127fb565b8b6006602002015250505050505050505050505050565b5f613ce15f600161282f565b90505f613cef5f600261282f565b90505f613cfd5f600361282f565b90505f613d19613d0e88601d6152a1565b61080189601c6152a1565b90505f613d35613d2a89601e6152a1565b6108018a601d6152a1565b90505f613d51613d468a601f6152a1565b6108018b601e6152a1565b90505f613d6d613d628b60246152a1565b6108018c601f6152a1565b905083613d7e816107de818b612816565b9050613d8e816107de878a612816565b9050613d9e816107de8789612816565b9050613daf816107de8d60086152a1565b9050613dbb818a6127fb565b60e08b01525082613dd0816107de818b612816565b9050613de0816107de868a612816565b9050613df0816107de8689612816565b9050613e01816107de8d60086152a1565b9050613e0d818a6127fb565b6101008b01525081613e23816107de818b612816565b9050613e33816107de858a612816565b9050613e43816107de8589612816565b9050613e54816107de8d60086152a1565b9050613e60818a6127fb565b6101208b01525080613e76816107de818b612816565b9050613e86816107de848a612816565b9050613e96816107de8489612816565b9050613ea7816107de8d60086152a1565b9050613eb3818a6127fb565b610140909a019990995250505050505050505050565b613f026040518060e001604052805f81526020015f81526020015f81526020015f81526020015f81526020015f81526020015f81525090565b613f0d84601d6152a1565b8152613f1a84601e6152a1565b6020820152613f2a8460246152a1565b6040820152613f3a8460276152a1565b6060820152613f4a8460266152a1565b6080820152613f5a8460256152a1565b60a08201525f613f6b8560026152a1565b90505f613f78865f6152a1565b90505f613f8c8460400151855f015161282f565b90505f613fa1856020015186602001516127fb565b606086015190915086905f90613fb790806127fb565b90505f613fcf613bca89602001518a606001516127fb565b90505f613fee613fe78a60a001518b60400151612816565b8a51612816565b9050613ffd613c7282886127fb565b905061402461401e614018614012848761282f565b8861282f565b84612816565b83612816565b905061404c61404161403683876127fb565b6107de8f60096152a1565b6107de60018a61282f565b6101608c015250505050602085015160808601515f9161406b91612816565b90505f61408961407f8860600151886127fb565b886020015161282f565b90505f6140ad61409984876127fb565b6107e3613a408b60a001518c5f015161282f565b90506140d56140ca6140bf838c6127fb565b6107de8e60096152a1565b6107de60018961282f565b6101808b0152505f91506140f690506140ef836011612816565b87516127fb565b90505f6141038384612816565b905061410f8182612816565b90505f61411d8360096127fb565b9050614146614140613a0b6141398b60a001518c5f0151612816565b8b51612816565b8261282f565b60c089018190525f9061416190613bca90614036908d6127fb565b90506141748b600b602002015182612816565b6101608c0152505086515f925061419b91506140ef906141949080612816565b8851612816565b90505f6141db6141b6836107de8a5f01518b60a0015161282f565b6020890151610801906141c99080612816565b6107de8b602001518c60800151612816565b90506141f889600c60200201516107e3613bca614036858d6127fb565b89600c602002015250505050505050505050565b614276604051806101e001604052805f81526020015f81526020015f81526020015f81526020015f81526020015f81526020015f81526020015f81526020015f81526020015f81526020015f81526020015f81526020015f81526020015f81526020015f81525090565b83515f9061428490806127fb565b90505f61429482875f01516127fb565b90506142aa6142a488601e6152a1565b826127fb565b8084526142bf906107e3613a408a601d6152a1565b8084526142db906107e36142d48a601c6152a1565b89516127fb565b8084526142ed906107e38960016152a1565b808452602084018190526143069061080189601f6152a1565b8352614316613d0e8860246152a1565b60808401526143346143298860276152a1565b61080189601f6152a1565b6060840152608083015161434d906107de81600161282f565b6101c0840152608083015161438d906143839061437c906107de60015f516020615c4f5f395f51905f526158ac565b6001612816565b84606001516127fb565b60a084018190526143c3906143b5906107de6143aa8b60026152a1565b6107de8c60036152a1565b6107de613c728a600a6152a1565b85600e60200201526101c08301516143e7906143b5906107de6143aa8b60026152a1565b6101e0860152825161440c906107de6144018a60026152a1565b6107de8b60036152a1565b6101208401525f61442b61442189601f6152a1565b856020015161282f565b905061443c816107de83600161282f565b60e085015261444f6137598960266152a1565b6040850181905261446e906107e36144688b60256152a1565b866127fb565b6040850181905261448e906107e36144878b60246152a1565b8a516127fb565b60408501526144ab6144a18960276152a1565b856040015161282f565b60408501525f6144bf613d468a60266152a1565b90506145116144ec61375961437c886080015160015f516020615c4f5f395f51905f526107de91906158ac565b6107de61437c886040015160015f516020615c4f5f395f51905f526107de91906158ac565b60c086015260408501516145339061452990806127fb565b866040015161282f565b61010086015260c085015161456590614551906107de8c60046152a1565b6107de61455f8c600a6152a1565b896127fb565b6102008801526101c085015161458490614551906107de8c60046152a1565b6102208801526101008501516145a390614551906107de8c60046152a1565b61024088015260e08501516145bd906107de8b60046152a1565b6101408601526145dc6145d18a60256152a1565b6108018b601d6152a1565b610160860152608085015161461a90613d469061460f9061437c906107de60015f516020615c4f5f395f51905f526158ac565b8761016001516127fb565b61018086018190526101208601516101a08701819052614651916107e3906107de6146468e60056152a1565b6107de8f60026152a1565b6101a08601819052855161467191906107e3906107de6146468e5f6152a1565b6101a086018190526101408601516146899190612816565b6101a086018190526146a3906107de61455f8c600a6152a1565b6101a0860181905287600d6020020152505050505050505050565b6146f76040518060e001604052805f81526020015f81526020015f81526020015f81526020015f81526020015f81526020015f81525090565b61472c61471361470886601c6152a1565b6107de8760256152a1565b6107e36147218760246152a1565b6107de88601d6152a1565b815261477161476661474d61474287601c6152a1565b6107de88601f6152a1565b6107e361475b88601d6152a1565b6107de89601e6152a1565b6108018660266152a1565b6040820181905261478690600160441b6127fb565b6040820181905261479c906108018660276152a1565b6040820181905281516147af9190612816565b604082018190526147c5906107de8660056152a1565b604082015280516147da90600160441b6127fb565b8082526147fa906107e36147ef8760246152a1565b6107de8860256152a1565b808252602082018190526148219061080161481687601e6152a1565b6107e388601f6152a1565b60208201819052614837906107de8660046152a1565b6020820152805160608201819052614854906107e386601f6152a1565b606082018190526148789061080161486d8760266152a1565b6107e38860276152a1565b6060820181905261488d906107de865f6152a1565b8160600181815250505f6148b66148ac83602001518460400151612816565b8360600151612816565b90506148c7816107de8760036152a1565b90506148df6148d78660256152a1565b6140006127fb565b608083018190526148f5906107e38760246152a1565b60808301819052614908906140006127fb565b6080830181905261491e906107e387601e6152a1565b60808301819052614931906140006127fb565b60808301819052614947906107e387601d6152a1565b6080830181905261495a906140006127fb565b60808301819052614970906107e387601c6152a1565b608083018190526149869061080187601f6152a1565b6080830181905261499c906107de8760056152a1565b60808301526149af6148d78660266152a1565b60a083018190526149c5906107e38760256152a1565b60a083018190526149d8906140006127fb565b60a083018190526149ee906107e38760246152a1565b60a08301819052614a01906140006127fb565b60a08301819052614a17906107e387601f6152a1565b60a08301819052614a2a906140006127fb565b60a08301819052614a40906107e387601e6152a1565b60a08301819052614a56906108018760276152a1565b60a08301819052614a6b906107de875f6152a1565b60a0830181905260808301515f91614a839190612816565b9050614a94816107de8860046152a1565b9050614aa08282612816565b60c08401819052614ab9906107de613c7289600b6152a1565b60c084018190528560136020020152505050505050565b614b466040518061022001604052805f81526020015f81526020015f81526020015f81526020015f81526020015f81526020015f81526020015f81526020015f81526020015f81526020015f81526020015f81526020015f81526020015f81526020015f81526020015f81526020015f81525090565b614b5f614b5485601c6152a1565b6107e38660026152a1565b8152614b7a614b6f85601d6152a1565b6107e38660036152a1565b6020820152614b98614b8d85601e6152a1565b6107e38660046152a1565b6040820152614bb6614bab85601f6152a1565b6107e38660056152a1565b60608201528051614be890614be190614bda90614bd390806127fb565b84516127fb565b83516127fb565b82516127fb565b60808201526020810151614c2690614c1c90614c1290614c0890806127fb565b84602001516127fb565b83602001516127fb565b82602001516127fb565b60a08201526040810151614c6490614c5a90614c5090614c4690806127fb565b84604001516127fb565b83604001516127fb565b82604001516127fb565b60c08201526060810151614c9890614c8e90614c849061438390806127fb565b83606001516127fb565b82606001516127fb565b60e0820152608081015160a0820151614cb19190612816565b61010082015260c081015160e0820151614ccb9190612816565b61012082015260a0810151614cef90614ce49080612816565b826101200151612816565b61014082015260e0810151614d1390614d089080612816565b826101000151612816565b610160820152610120810151614d299080612816565b6101e08201819052614d4a90614d3f9080612816565b826101600151612816565b6101e0820152610100810151614d609080612816565b6101a08201819052614d8190614d769080612816565b826101400151612816565b6101a08201819052610160820151614d9891612816565b6101808201526101408101516101e0820151614db49190612816565b6101c0820152614dc861375985600c6152a1565b6102008201819052610280840151610180830151614df3926107e3916107de906108018a60246152a1565b8360146020020152614e2383601560200201516107e38361020001516107de856101a001516108018a60256152a1565b8360156020020152614e5383601660200201516107e38361020001516107de856101c001516108018a60266152a1565b8360166020020152614e8383601760200201516107e38361020001516107de856101e001516108018a60276152a1565b836017602002015250505050565b614ee36040518061016001604052805f81526020015f81526020015f81526020015f81526020015f81526020015f81526020015f81526020015f81526020015f81526020015f81526020015f81525090565b5f6040518060800160405280614f187f10dc6e9c006ea38b04b1e03b4bd9490c0d03f98929ca1d7fb56821fd19d3b6e7612108565b8152602001614f467f0c28145b6a44df3e0149b3d0a30b3bb599df9756d4dd9b84a86b38cfb45a740b612108565b8152602001614f737e544b8338791518b2c7645a50392798b21f75bb60e3596170067d00141cac15612108565b8152602001614fa17f222c01175718386f2e2e82eb122789e352e105a3b8fa852613bc534433ee428b612108565b90529050614fbe614fb386601c6152a1565b6107e38760026152a1565b6101208301819052614ffd90614ff290614fe790614fdc90806127fb565b8561012001516127fb565b8461012001516127fb565b8361012001516127fb565b825261500a85601d6152a1565b602083015261501a85601e6152a1565b604083015261502a85601f6152a1565b606083015281516020830151615052916148ac916150489190612816565b8460400151612816565b6080830152615065613a0b86600d6152a1565b61014083015281516150869061507c90835f611508565b8360800151612816565b60a08301526150b284601860200201516107e38461014001516107de8660a001516108018b60246152a1565b61030085015260208201516150cd9061507c90836001611508565b60c08301526150f984601960200201516107e38461014001516107de8660c001516108018b60256152a1565b61032085015260408201516151149061507c90836002611508565b60e083015261514084601a60200201516107e38461014001516107de8660e001516108018b60266152a1565b610340850152606082015161515b9061507c90836003611508565b61010083015261518984601b60200201516107e38461014001516107de8661010001516108018b60276152a1565b84601b613892565b815160015b601c8110156151e3576151d9826107e38684601c81106151b8576151b8615a26565b6020020151866151c96001876158ac565b601b811061150857611508615a26565b9150600101615196565b5092915050565b6151f26155d4565b6151fa6155d4565b604051835181526020840151602082015284604082015260408160608360075afa80615224575f5ffd5b5080518252602080820151908301526060016040529392505050565b6152486155d4565b6152506155d4565b6040518451815260208501516020820152835160408201526020840151606082015260408160808360065afa80615285575f5ffd5b5080518252602080820151908301526080016040529392505050565b5f828260288111156152b5576152b5615c1a565b602981106152c5576152c5615a26565b60200201519392505050565b604051806103e001604052805f81526020015f81526020015f81526020016152f76155d4565b81526020016153046155d4565b81526020016153116155d4565b815260200161531e6155d4565b815260200161532b6155d4565b81526020016153386155d4565b81526020016153456155d4565b81526020016153526155d4565b815260200161535f6155d4565b815260200161536c6155d4565b81526020016153796155d4565b81526020016153866155d4565b81526020016153936155d4565b81526020016153a06155d4565b81526020016153ad6155d4565b81526020016153ba6155d4565b81526020016153c76155d4565b81526020016153d46155d4565b81526020016153e16155d4565b81526020016153ee6155d4565b81526020016153fb6155d4565b81526020016154086155d4565b81526020016154156155d4565b81526020016154226155d4565b815260200161542f6155d4565b815260200161543c6155d4565b81526020016154496155d4565b81526020016154566155d4565b905290565b604051806101e0016040528061546f6156c8565b815260200161547c6155d4565b81526020016154896155d4565b81526020016154966155d4565b81526020016154a36155d4565b81526020016154b06155d4565b81526020016154bd6155d4565b81526020016154ca6155d4565b81526020016154d76155d4565b81526020016154e4615724565b81526020016154f1615752565b81526020016154fe615771565b815260200161543c61564d565b60405180610100016040528061551f6155ec565b815260200161552c615610565b815260200161553961564d565b815260200161554661564d565b81526020015f81526020015f81526020015f81526020015f81525090565b604051806101c001604052805f81526020015f81526020015f81526020015f81526020015f81526020015f81526020015f81526020016155a261579f565b81526020016155af61579f565b81526020015f81526020015f81526020015f81526020015f8152602001606081525090565b60405180604001604052805f81526020015f81525090565b60405180608001604052805f81526020015f81526020015f81526020015f81525090565b604051806103600160405280601b906020820280368337509192915050565b6040518060a001604052806005906020820280368337509192915050565b6040518061032001604052806019906020820280368337509192915050565b6040518061012001604052806009906020820280368337509192915050565b604051806105400160405280602a906020820280368337509192915050565b60405180606001604052806003906020820280368337509192915050565b6040518061010001604052806008906020820280368337509192915050565b604051806103800160405280601c906020820280368337509192915050565b6040518060e001604052806007906020820280368337509192915050565b6040518061032001604052806019905b61573c6156c8565b8152602001906001900390816157345790505090565b6040518061052001604052806029906020820280368337509192915050565b6040518061030001604052806018905b6157896155d4565b8152602001906001900390816157815790505090565b60405180608001604052806004906020820280368337509192915050565b5f5f5f5f604085870312156157d0575f5ffd5b84356001600160401b038111156157e5575f5ffd5b8501601f810187136157f5575f5ffd5b80356001600160401b0381111561580a575f5ffd5b87602082840101111561581b575f5ffd5b6020918201955093508501356001600160401b0381111561583a575f5ffd5b8501601f8101871361584a575f5ffd5b80356001600160401b0381111561585f575f5ffd5b8760208260051b8401011115615873575f5ffd5b949793965060200194505050565b634e487b7160e01b5f52601160045260245ffd5b808202811582820484141761281057612810615881565b8181038181111561281057612810615881565b8082018082111561281057612810615881565b5f5f858511156158e0575f5ffd5b838611156158ec575f5ffd5b5050820193919092039150565b80356020831015612810575f19602084900360031b1b1692915050565b5f8261593057634e487b7160e01b5f52601260045260245ffd5b500690565b6001815b60018411156159705780850481111561595457615954615881565b600184161561596257908102905b60019390931c928002615939565b935093915050565b5f8261598657506001612810565b8161599257505f612810565b81600181146159a857600281146159b2576159ce565b6001915050612810565b60ff8411156159c3576159c3615881565b50506001821b612810565b5060208310610133831016604e8410600b84101617156159f1575081810a612810565b6159fd5f198484615935565b805f1904821115615a1057615a10615881565b029392505050565b5f61033260ff841683615978565b634e487b7160e01b5f52603260045260245ffd5b634e487b7160e01b5f52604160045260245ffd5b5f60018201615a5f57615a5f615881565b5060010190565b5f8183825b6005811015615a8a578151835260209283019290910190600101615a6b565b50505060a08201905092915050565b5f8183825b6009811015615abd578151835260209283019290910190600101615a9e565b5050506101208201905092915050565b5f8183825b602a811015615af1578151835260209283019290910190600101615ad2565b5050506105408201905092915050565b81515f90829060208501835b82811015615b2b578151845260209384019390910190600101615b0d565b509195945050505050565b5f8183825b6003811015615b5a578151835260209283019290910190600101615b3b565b50505060608201905092915050565b5f81615b7757615b77615881565b505f190190565b5f8183825b6008811015615ba2578151835260209283019290910190600101615b83565b5050506101008201905092915050565b5f82518060208501845e5f920191825250919050565b5f60208284031215615bd8575f5ffd5b81518015158114610332575f5ffd5b5f8183825b6007811015615c0b578151835260209283019290910190600101615bec565b50505060e08201905092915050565b634e487b7160e01b5f52602160045260245ffdfe30644e72e131a029b85045b68181585d97816a916871ca8d3c208c16d87cfd4730644e72e131a029b85045b68181585d2833e84879b9709143e1f593f0000001a26469706673582212203278ea1197b0329fa55ce2eca000163319643d3c651771814449d3900617c80b64736f6c634300081b0033",
  "linkReferences": {},
  "deployedLinkReferences": {}
}