{
  "_format": "hh-sol-artifact-1",
  "contractName": "MedVaultRegistry",
  "sourceName": "contracts/MedVaultRegistry.sol",
  "abi": [
    {
      "inputs": [
        {
          "internalType": "address",
          "name": "_semaphore",
          "type": "address"
        },
        {
          "internalType": "address",
          "name": "_patientRegistry",
          "type": "address"
        },
        {
          "internalType": "address",
          "name": "_eligibilityEngine",
          "type": "address"
        }
      ],
      "stateMutability": "nonpayable",
      "type": "constructor"
    },
    {
      "inputs": [],
      "name": "ECDSAInvalidSignature",
      "type": "error"
    },
    {
      "inputs": [
        {
          "internalType": "uint256",
          "name": "length",
          "type": "uint256"
        }
      ],
      "name": "ECDSAInvalidSignatureLength",
      "type": "error"
    },
    {
      "inputs": [
        {
          "internalType": "bytes32",
          "name": "s",
          "type": "bytes32"
        }
      ],
      "name": "ECDSAInvalidSignatureS",
      "type": "error"
    },
    {
      "inputs": [
        {
          "internalType": "bytes32",
          "name": "handle",
          "type": "bytes32"
        },
        {
          "internalType": "address",
          "name": "sender",
          "type": "address"
        }
      ],
      "name": "SenderNotAllowedToUseHandle",
      "type": "error"
    },
    {
      "inputs": [],
      "name": "ZamaProtocolUnsupported",
      "type": "error"
    },
    {
      "anonymous": false,
      "inputs": [
        {
          "indexed": true,
          "internalType": "uint256",
          "name": "trialId",
          "type": "uint256"
        },
        {
          "indexed": true,
          "internalType": "uint256",
          "name": "nullifierHash",
          "type": "uint256"
        },
        {
          "indexed": true,
          "internalType": "bytes32",
          "name": "blindedRef",
          "type": "bytes32"
        }
      ],
      "name": "AnonymousApplication",
      "type": "event"
    },
    {
      "anonymous": false,
      "inputs": [
        {
          "indexed": true,
          "internalType": "uint256",
          "name": "trialId",
          "type": "uint256"
        },
        {
          "indexed": true,
          "internalType": "uint256",
          "name": "nullifierHash",
          "type": "uint256"
        },
        {
          "indexed": true,
          "internalType": "bytes32",
          "name": "blindedRef",
          "type": "bytes32"
        },
        {
          "indexed": false,
          "internalType": "bytes32",
          "name": "finalCt",
          "type": "bytes32"
        }
      ],
      "name": "AnonymousApplyStaged",
      "type": "event"
    },
    {
      "anonymous": false,
      "inputs": [
        {
          "indexed": true,
          "internalType": "address",
          "name": "relayer",
          "type": "address"
        },
        {
          "indexed": false,
          "internalType": "bool",
          "name": "authorized",
          "type": "bool"
        }
      ],
      "name": "AuthorizedRelayerUpdated",
      "type": "event"
    },
    {
      "anonymous": false,
      "inputs": [
        {
          "indexed": true,
          "internalType": "address",
          "name": "newOwner",
          "type": "address"
        }
      ],
      "name": "OwnershipAccepted",
      "type": "event"
    },
    {
      "anonymous": false,
      "inputs": [
        {
          "indexed": true,
          "internalType": "address",
          "name": "proposedOwner",
          "type": "address"
        }
      ],
      "name": "OwnershipProposed",
      "type": "event"
    },
    {
      "anonymous": false,
      "inputs": [
        {
          "indexed": true,
          "internalType": "uint256",
          "name": "commitment",
          "type": "uint256"
        }
      ],
      "name": "PatientRegistered",
      "type": "event"
    },
    {
      "anonymous": false,
      "inputs": [
        {
          "indexed": true,
          "internalType": "address",
          "name": "relayer",
          "type": "address"
        },
        {
          "indexed": true,
          "internalType": "uint256",
          "name": "commitment",
          "type": "uint256"
        }
      ],
      "name": "PatientRegisteredViaRelayer",
      "type": "event"
    },
    {
      "inputs": [],
      "name": "ANONYMOUS_APPLY_TYPEHASH",
      "outputs": [
        {
          "internalType": "bytes32",
          "name": "",
          "type": "bytes32"
        }
      ],
      "stateMutability": "view",
      "type": "function"
    },
    {
      "inputs": [],
      "name": "CANCEL_ANONYMOUS_APPLY_TYPEHASH",
      "outputs": [
        {
          "internalType": "bytes32",
          "name": "",
          "type": "bytes32"
        }
      ],
      "stateMutability": "view",
      "type": "function"
    },
    {
      "inputs": [],
      "name": "CONSENT_GRANT_TYPEHASH",
      "outputs": [
        {
          "internalType": "bytes32",
          "name": "",
          "type": "bytes32"
        }
      ],
      "stateMutability": "view",
      "type": "function"
    },
    {
      "inputs": [],
      "name": "CONSENT_WALLET_BINDING_TYPEHASH",
      "outputs": [
        {
          "internalType": "bytes32",
          "name": "",
          "type": "bytes32"
        }
      ],
      "stateMutability": "view",
      "type": "function"
    },
    {
      "inputs": [],
      "name": "MERKLE_TREE_DURATION",
      "outputs": [
        {
          "internalType": "uint256",
          "name": "",
          "type": "uint256"
        }
      ],
      "stateMutability": "view",
      "type": "function"
    },
    {
      "inputs": [],
      "name": "REGISTER_VIA_RELAYER_TYPEHASH",
      "outputs": [
        {
          "internalType": "bytes32",
          "name": "",
          "type": "bytes32"
        }
      ],
      "stateMutability": "view",
      "type": "function"
    },
    {
      "inputs": [],
      "name": "RELAYER_AUTH_DELAY",
      "outputs": [
        {
          "internalType": "uint256",
          "name": "",
          "type": "uint256"
        }
      ],
      "stateMutability": "view",
      "type": "function"
    },
    {
      "inputs": [],
      "name": "acceptOwnership",
      "outputs": [],
      "stateMutability": "nonpayable",
      "type": "function"
    },
    {
      "inputs": [
        {
          "internalType": "uint256",
          "name": "",
          "type": "uint256"
        }
      ],
      "name": "anonymousApplyDeadlines",
      "outputs": [
        {
          "internalType": "uint256",
          "name": "",
          "type": "uint256"
        }
      ],
      "stateMutability": "view",
      "type": "function"
    },
    {
      "inputs": [
        {
          "internalType": "address",
          "name": "_relayer",
          "type": "address"
        }
      ],
      "name": "applyRelayerAuth",
      "outputs": [],
      "stateMutability": "nonpayable",
      "type": "function"
    },
    {
      "inputs": [
        {
          "internalType": "uint256",
          "name": "",
          "type": "uint256"
        },
        {
          "internalType": "uint256",
          "name": "",
          "type": "uint256"
        },
        {
          "internalType": "uint256",
          "name": "",
          "type": "uint256"
        }
      ],
      "name": "applyToTrialWithConsent",
      "outputs": [],
      "stateMutability": "pure",
      "type": "function"
    },
    {
      "inputs": [
        {
          "internalType": "address",
          "name": "",
          "type": "address"
        }
      ],
      "name": "authorizedRelayers",
      "outputs": [
        {
          "internalType": "bool",
          "name": "",
          "type": "bool"
        }
      ],
      "stateMutability": "view",
      "type": "function"
    },
    {
      "inputs": [
        {
          "internalType": "uint256",
          "name": "trialId",
          "type": "uint256"
        },
        {
          "components": [
            {
              "internalType": "uint256",
              "name": "merkleTreeDepth",
              "type": "uint256"
            },
            {
              "internalType": "uint256",
              "name": "merkleTreeRoot",
              "type": "uint256"
            },
            {
              "internalType": "uint256",
              "name": "nullifier",
              "type": "uint256"
            },
            {
              "internalType": "uint256",
              "name": "message",
              "type": "uint256"
            },
            {
              "internalType": "uint256",
              "name": "scope",
              "type": "uint256"
            },
            {
              "internalType": "uint256[8]",
              "name": "points",
              "type": "uint256[8]"
            }
          ],
          "internalType": "struct ISemaphore.SemaphoreProof",
          "name": "proof",
          "type": "tuple"
        },
        {
          "internalType": "uint256",
          "name": "commitment",
          "type": "uint256"
        },
        {
          "internalType": "address",
          "name": "permitRecipient",
          "type": "address"
        },
        {
          "internalType": "uint256",
          "name": "deadline",
          "type": "uint256"
        },
        {
          "internalType": "bytes",
          "name": "permitSignature",
          "type": "bytes"
        },
        {
          "internalType": "bytes",
          "name": "cancelSignature",
          "type": "bytes"
        }
      ],
      "name": "cancelAnonymousApplyStage",
      "outputs": [],
      "stateMutability": "nonpayable",
      "type": "function"
    },
    {
      "inputs": [
        {
          "internalType": "externalEuint8",
          "name": "_age",
          "type": "bytes32"
        },
        {
          "internalType": "externalEbool",
          "name": "_gender",
          "type": "bytes32"
        },
        {
          "internalType": "externalEuint16",
          "name": "_weight",
          "type": "bytes32"
        },
        {
          "internalType": "externalEuint8",
          "name": "_height",
          "type": "bytes32"
        },
        {
          "internalType": "externalEbool",
          "name": "_hasDiabetes",
          "type": "bytes32"
        },
        {
          "internalType": "externalEuint16",
          "name": "_hbLevel",
          "type": "bytes32"
        },
        {
          "internalType": "externalEbool",
          "name": "_isSmoker",
          "type": "bytes32"
        },
        {
          "internalType": "externalEbool",
          "name": "_hasHypertension",
          "type": "bytes32"
        },
        {
          "internalType": "bytes",
          "name": "inputProof",
          "type": "bytes"
        }
      ],
      "name": "computeHealthDataHash",
      "outputs": [
        {
          "internalType": "bytes32",
          "name": "",
          "type": "bytes32"
        }
      ],
      "stateMutability": "pure",
      "type": "function"
    },
    {
      "inputs": [],
      "name": "confidentialProtocolId",
      "outputs": [
        {
          "internalType": "uint256",
          "name": "",
          "type": "uint256"
        }
      ],
      "stateMutability": "view",
      "type": "function"
    },
    {
      "inputs": [],
      "name": "eligibilityEngine",
      "outputs": [
        {
          "internalType": "contract IEligibilityEngine",
          "name": "",
          "type": "address"
        }
      ],
      "stateMutability": "view",
      "type": "function"
    },
    {
      "inputs": [
        {
          "internalType": "uint256",
          "name": "trialId",
          "type": "uint256"
        },
        {
          "components": [
            {
              "internalType": "uint256",
              "name": "merkleTreeDepth",
              "type": "uint256"
            },
            {
              "internalType": "uint256",
              "name": "merkleTreeRoot",
              "type": "uint256"
            },
            {
              "internalType": "uint256",
              "name": "nullifier",
              "type": "uint256"
            },
            {
              "internalType": "uint256",
              "name": "message",
              "type": "uint256"
            },
            {
              "internalType": "uint256",
              "name": "scope",
              "type": "uint256"
            },
            {
              "internalType": "uint256[8]",
              "name": "points",
              "type": "uint256[8]"
            }
          ],
          "internalType": "struct ISemaphore.SemaphoreProof",
          "name": "proof",
          "type": "tuple"
        },
        {
          "internalType": "uint256",
          "name": "commitment",
          "type": "uint256"
        },
        {
          "internalType": "address",
          "name": "permitRecipient",
          "type": "address"
        },
        {
          "internalType": "address",
          "name": "consentWallet",
          "type": "address"
        },
        {
          "internalType": "uint256",
          "name": "deadline",
          "type": "uint256"
        },
        {
          "internalType": "bytes",
          "name": "permitSignature",
          "type": "bytes"
        },
        {
          "internalType": "bytes",
          "name": "consentWalletSignature",
          "type": "bytes"
        },
        {
          "internalType": "externalEbool",
          "name": "consent",
          "type": "bytes32"
        },
        {
          "internalType": "bytes",
          "name": "proofConsent",
          "type": "bytes"
        },
        {
          "internalType": "uint256",
          "name": "consentDeadline",
          "type": "uint256"
        },
        {
          "internalType": "bytes",
          "name": "consentGrantSignature",
          "type": "bytes"
        },
        {
          "internalType": "bytes",
          "name": "noirProof",
          "type": "bytes"
        },
        {
          "internalType": "bytes32[]",
          "name": "publicInputs",
          "type": "bytes32[]"
        }
      ],
      "name": "finalizeAnonymousApplyWithConsent",
      "outputs": [],
      "stateMutability": "nonpayable",
      "type": "function"
    },
    {
      "inputs": [
        {
          "internalType": "uint256",
          "name": "trialId",
          "type": "uint256"
        },
        {
          "components": [
            {
              "internalType": "uint256",
              "name": "merkleTreeDepth",
              "type": "uint256"
            },
            {
              "internalType": "uint256",
              "name": "merkleTreeRoot",
              "type": "uint256"
            },
            {
              "internalType": "uint256",
              "name": "nullifier",
              "type": "uint256"
            },
            {
              "internalType": "uint256",
              "name": "message",
              "type": "uint256"
            },
            {
              "internalType": "uint256",
              "name": "scope",
              "type": "uint256"
            },
            {
              "internalType": "uint256[8]",
              "name": "points",
              "type": "uint256[8]"
            }
          ],
          "internalType": "struct ISemaphore.SemaphoreProof",
          "name": "proof",
          "type": "tuple"
        },
        {
          "internalType": "uint256",
          "name": "commitment",
          "type": "uint256"
        },
        {
          "internalType": "address",
          "name": "permitRecipient",
          "type": "address"
        },
        {
          "internalType": "address",
          "name": "consentWallet",
          "type": "address"
        },
        {
          "internalType": "uint256",
          "name": "deadline",
          "type": "uint256"
        },
        {
          "internalType": "bytes",
          "name": "permitSignature",
          "type": "bytes"
        },
        {
          "internalType": "bytes",
          "name": "consentWalletSignature",
          "type": "bytes"
        },
        {
          "internalType": "bytes",
          "name": "noirProof",
          "type": "bytes"
        },
        {
          "internalType": "bytes32[]",
          "name": "publicInputs",
          "type": "bytes32[]"
        }
      ],
      "name": "finalizeAnonymousApplyWithProof",
      "outputs": [],
      "stateMutability": "nonpayable",
      "type": "function"
    },
    {
      "inputs": [
        {
          "internalType": "address",
          "name": "wallet",
          "type": "address"
        }
      ],
      "name": "getCommitmentForWallet",
      "outputs": [
        {
          "internalType": "uint256",
          "name": "",
          "type": "uint256"
        }
      ],
      "stateMutability": "view",
      "type": "function"
    },
    {
      "inputs": [],
      "name": "getPatientCount",
      "outputs": [
        {
          "internalType": "uint256",
          "name": "",
          "type": "uint256"
        }
      ],
      "stateMutability": "view",
      "type": "function"
    },
    {
      "inputs": [
        {
          "internalType": "uint256",
          "name": "trialId",
          "type": "uint256"
        },
        {
          "internalType": "uint256",
          "name": "nullifierHash",
          "type": "uint256"
        }
      ],
      "name": "hasAppliedToTrial",
      "outputs": [
        {
          "internalType": "bool",
          "name": "",
          "type": "bool"
        }
      ],
      "stateMutability": "view",
      "type": "function"
    },
    {
      "inputs": [],
      "name": "isRegistered",
      "outputs": [
        {
          "internalType": "bool",
          "name": "",
          "type": "bool"
        }
      ],
      "stateMutability": "view",
      "type": "function"
    },
    {
      "inputs": [
        {
          "internalType": "uint256",
          "name": "identityCommitment",
          "type": "uint256"
        }
      ],
      "name": "isRegisteredMember",
      "outputs": [
        {
          "internalType": "bool",
          "name": "",
          "type": "bool"
        }
      ],
      "stateMutability": "view",
      "type": "function"
    },
    {
      "inputs": [],
      "name": "owner",
      "outputs": [
        {
          "internalType": "address",
          "name": "",
          "type": "address"
        }
      ],
      "stateMutability": "view",
      "type": "function"
    },
    {
      "inputs": [],
      "name": "patientGroupId",
      "outputs": [
        {
          "internalType": "uint256",
          "name": "",
          "type": "uint256"
        }
      ],
      "stateMutability": "view",
      "type": "function"
    },
    {
      "inputs": [],
      "name": "patientRegistry",
      "outputs": [
        {
          "internalType": "contract IAnonymousPatientRegistry",
          "name": "",
          "type": "address"
        }
      ],
      "stateMutability": "view",
      "type": "function"
    },
    {
      "inputs": [],
      "name": "pendingOwner",
      "outputs": [
        {
          "internalType": "address",
          "name": "",
          "type": "address"
        }
      ],
      "stateMutability": "view",
      "type": "function"
    },
    {
      "inputs": [
        {
          "internalType": "address",
          "name": "",
          "type": "address"
        }
      ],
      "name": "pendingRelayerAuth",
      "outputs": [
        {
          "internalType": "bool",
          "name": "",
          "type": "bool"
        }
      ],
      "stateMutability": "view",
      "type": "function"
    },
    {
      "inputs": [
        {
          "internalType": "address",
          "name": "_newOwner",
          "type": "address"
        }
      ],
      "name": "proposeOwnership",
      "outputs": [],
      "stateMutability": "nonpayable",
      "type": "function"
    },
    {
      "inputs": [
        {
          "internalType": "address",
          "name": "",
          "type": "address"
        }
      ],
      "name": "registerNonces",
      "outputs": [
        {
          "internalType": "uint256",
          "name": "",
          "type": "uint256"
        }
      ],
      "stateMutability": "view",
      "type": "function"
    },
    {
      "inputs": [
        {
          "internalType": "uint256",
          "name": "identityCommitment",
          "type": "uint256"
        },
        {
          "internalType": "address",
          "name": "_viewPermitRecipient",
          "type": "address"
        },
        {
          "internalType": "bytes32",
          "name": "_profileCommitment",
          "type": "bytes32"
        },
        {
          "internalType": "bytes32",
          "name": "_profileSaltCommitment",
          "type": "bytes32"
        },
        {
          "internalType": "externalEuint8",
          "name": "_age",
          "type": "bytes32"
        },
        {
          "internalType": "externalEbool",
          "name": "_gender",
          "type": "bytes32"
        },
        {
          "internalType": "externalEuint16",
          "name": "_weight",
          "type": "bytes32"
        },
        {
          "internalType": "externalEuint8",
          "name": "_height",
          "type": "bytes32"
        },
        {
          "internalType": "externalEbool",
          "name": "_hasDiabetes",
          "type": "bytes32"
        },
        {
          "internalType": "externalEuint16",
          "name": "_hbLevel",
          "type": "bytes32"
        },
        {
          "internalType": "externalEbool",
          "name": "_isSmoker",
          "type": "bytes32"
        },
        {
          "internalType": "externalEbool",
          "name": "_hasHypertension",
          "type": "bytes32"
        },
        {
          "internalType": "bytes",
          "name": "inputProof",
          "type": "bytes"
        }
      ],
      "name": "registerPatient",
      "outputs": [],
      "stateMutability": "nonpayable",
      "type": "function"
    },
    {
      "inputs": [
        {
          "internalType": "address",
          "name": "patientWallet",
          "type": "address"
        },
        {
          "internalType": "uint256",
          "name": "identityCommitment",
          "type": "uint256"
        },
        {
          "internalType": "address",
          "name": "_viewPermitRecipient",
          "type": "address"
        },
        {
          "internalType": "bytes32",
          "name": "_profileCommitment",
          "type": "bytes32"
        },
        {
          "internalType": "bytes32",
          "name": "_profileSaltCommitment",
          "type": "bytes32"
        },
        {
          "internalType": "externalEuint8",
          "name": "_age",
          "type": "bytes32"
        },
        {
          "internalType": "externalEbool",
          "name": "_gender",
          "type": "bytes32"
        },
        {
          "internalType": "externalEuint16",
          "name": "_weight",
          "type": "bytes32"
        },
        {
          "internalType": "externalEuint8",
          "name": "_height",
          "type": "bytes32"
        },
        {
          "internalType": "externalEbool",
          "name": "_hasDiabetes",
          "type": "bytes32"
        },
        {
          "internalType": "externalEuint16",
          "name": "_hbLevel",
          "type": "bytes32"
        },
        {
          "internalType": "externalEbool",
          "name": "_isSmoker",
          "type": "bytes32"
        },
        {
          "internalType": "externalEbool",
          "name": "_hasHypertension",
          "type": "bytes32"
        },
        {
          "internalType": "bytes",
          "name": "inputProof",
          "type": "bytes"
        },
        {
          "internalType": "uint256",
          "name": "nonce",
          "type": "uint256"
        },
        {
          "internalType": "uint256",
          "name": "deadline",
          "type": "uint256"
        },
        {
          "internalType": "bytes",
          "name": "signature",
          "type": "bytes"
        }
      ],
      "name": "registerPatientViaRelayer",
      "outputs": [],
      "stateMutability": "nonpayable",
      "type": "function"
    },
    {
      "inputs": [
        {
          "internalType": "address",
          "name": "",
          "type": "address"
        }
      ],
      "name": "relayerAuthChangeEta",
      "outputs": [
        {
          "internalType": "uint256",
          "name": "",
          "type": "uint256"
        }
      ],
      "stateMutability": "view",
      "type": "function"
    },
    {
      "inputs": [
        {
          "internalType": "address",
          "name": "_relayer",
          "type": "address"
        },
        {
          "internalType": "bool",
          "name": "_authorize",
          "type": "bool"
        }
      ],
      "name": "scheduleRelayerAuth",
      "outputs": [],
      "stateMutability": "nonpayable",
      "type": "function"
    },
    {
      "inputs": [],
      "name": "semaphore",
      "outputs": [
        {
          "internalType": "contract ISemaphore",
          "name": "",
          "type": "address"
        }
      ],
      "stateMutability": "view",
      "type": "function"
    },
    {
      "inputs": [
        {
          "internalType": "address",
          "name": "",
          "type": "address"
        }
      ],
      "name": "setTrustedRelayer",
      "outputs": [],
      "stateMutability": "nonpayable",
      "type": "function"
    },
    {
      "inputs": [
        {
          "internalType": "uint256",
          "name": "trialId",
          "type": "uint256"
        },
        {
          "components": [
            {
              "internalType": "uint256",
              "name": "merkleTreeDepth",
              "type": "uint256"
            },
            {
              "internalType": "uint256",
              "name": "merkleTreeRoot",
              "type": "uint256"
            },
            {
              "internalType": "uint256",
              "name": "nullifier",
              "type": "uint256"
            },
            {
              "internalType": "uint256",
              "name": "message",
              "type": "uint256"
            },
            {
              "internalType": "uint256",
              "name": "scope",
              "type": "uint256"
            },
            {
              "internalType": "uint256[8]",
              "name": "points",
              "type": "uint256[8]"
            }
          ],
          "internalType": "struct ISemaphore.SemaphoreProof",
          "name": "proof",
          "type": "tuple"
        },
        {
          "internalType": "uint256",
          "name": "commitment",
          "type": "uint256"
        },
        {
          "internalType": "address",
          "name": "permitRecipient",
          "type": "address"
        },
        {
          "internalType": "uint256",
          "name": "deadline",
          "type": "uint256"
        },
        {
          "internalType": "bytes",
          "name": "permitSignature",
          "type": "bytes"
        }
      ],
      "name": "stageAnonymousApply",
      "outputs": [],
      "stateMutability": "nonpayable",
      "type": "function"
    },
    {
      "inputs": [
        {
          "internalType": "uint256",
          "name": "",
          "type": "uint256"
        },
        {
          "internalType": "uint256",
          "name": "",
          "type": "uint256"
        }
      ],
      "name": "trialApplications",
      "outputs": [
        {
          "internalType": "bool",
          "name": "",
          "type": "bool"
        }
      ],
      "stateMutability": "view",
      "type": "function"
    },
    {
      "inputs": [
        {
          "internalType": "uint256",
          "name": "newDuration",
          "type": "uint256"
        }
      ],
      "name": "updateMerkleTreeDuration",
      "outputs": [],
      "stateMutability": "nonpayable",
      "type": "function"
    }
  ],
  "bytecode": "0x6080806040523461021a5760608161336f803803809161001f8285610352565b83398101031261021a5761003281610375565b9061004b604061004460208401610375565b9201610375565b91610054610389565b50466001036102315760205f91610069610389565b5060405161007681610323565b73ca2e8f1f656cd25c01f05d0b243ab1ecd4a8ffb6815273d82385dada1ae3e969447f20a3164f6213100e75838201527377627828a55156b04ac0dc0eb30467f1a552bb0360408201525b80517f9e7b61f58c47dc699ac88507c4f5bb9f121c03808c5676a8078fe583e464970080546001600160a01b03199081166001600160a01b0393841617909155848301517f9e7b61f58c47dc699ac88507c4f5bb9f121c03808c5676a8078fe583e4649701805483169184169190911790556040928301517f9e7b61f58c47dc699ac88507c4f5bb9f121c03808c5676a8078fe583e4649702805483169184169190911790558554169216918217845551632c88036360e01b815230600482015262278d00602482015292839160449183915af1908115610226575f916101f0575b50600155600280546001600160a01b03199081166001600160a01b0393841617909155600380548216939092169290921790556004805490911633179055604051612fc790816103a88239f35b90506020813d60201161021e575b8161020b60209383610352565b8101031261021a57515f6101a3565b5f80fd5b3d91506101fe565b6040513d5f823e3d90fd5b4662aa36a7036102a35760205f91610247610389565b5060405161025481610323565b73f0ffdc93b7e186bc2f8cb3daa75d86d1930a433d81527392c920834ec8941d2c77d188936e1f7a6f49c1278382015273be0e383937d564d7ff0bc3b46c51f0bf8d5c311a60408201526100c1565b46617a69036103145760205f916102b8610389565b506040516102c581610323565b7350157cffd6bbfa2dece204a89ec419c23ef5755d815273e3a9105a3a932253a70f126eb1e3b589c643dd248382015273901f8942346f7ab3a01f6d7613119bca447bb03060408201526100c1565b6373cac13b60e01b5f5260045ffd5b606081019081106001600160401b0382111761033e57604052565b634e487b7160e01b5f52604160045260245ffd5b601f909101601f19168101906001600160401b0382119082101761033e57604052565b51906001600160a01b038216820361021a57565b6040519061039682610323565b5f604083828152826020820152015256fe6080806040526004361015610012575f80fd5b5f905f3560e01c9081630cfb977514611b10575080631260cd6714611adc5780631cb35a8714611ab55780631f497bdd14611a785780632236684414611a4c57806322bfba6514611a2257806325ddd856146119fb578063277da38f146119de57806329e295c5146119a157806330f37a821461198557806334d3f6ff146119685780633e1a9c35146119305780633f2e2a65146117135780634118f60d1461162a5780634f11c690146116015780635250c6e2146115d8578063592f316e146115535780635a483dcc1461152b578063710bf3221461148057806379ba5097146113df5780637a95787d146113545780637b5d25341461132d57806386fcf299146112f457806388902dac146111c75780638927b030146111ac5780638d23773c1461117a5780638da5cb5b146111515780639054b6cf146110c957806390d7336c1461103e578063a273767f14610ecb578063af61b90114610cd4578063b2cf03a014610bb8578063b7d935fc14610ae7578063c190665b14610a5e578063c815e66a14610a36578063cfc0679a1461054b578063e30c397814610522578063e4e997f01461022b5763e96f7f28146101cb575f80fd5b34610228576101203660031901126102285761010435906001600160401b0382116102285760206102206102023660048601611b8f565b9060e43560c43560a435608435606435604435602435600435612a71565b604051908152f35b80fd5b5034610228576101a0366003190112610228576004356024356001600160a01b0381169081900361051e5760443590610184356001600160401b0381116104155761027a903690600401611b8f565b829192156104e15783156104a257841561046257338652600c60205260ff604087205416610428578593338552600c60205260408520600160ff19825416179055338552600b60205285604086205560018060a01b03855416600154813b15610424578691604483926040519485938492631783efc360e01b845260048401528c60248401525af1908115610419578691610400575b50506002546001600160a01b031690813b156103fc578580946103b460405197889687958694630e4e997f60e41b86528d6004870152602486015260448501526064356064850152608435608485015260a43560a485015260c43560c485015260e43560e4850152610104356101048501526101243561012485015261014435610144850152610164356101648501526101a06101848501526101a4840191611cfe565b03925af180156103f1576103d8575b50805f516020612efb5f395f51905f5291a280f35b816103e291611cc7565b6103ed57815f6103c3565b5080fd5b6040513d84823e3d90fd5b8580fd5b8161040a91611cc7565b61041557845f610310565b8480fd5b6040513d88823e3d90fd5b8680fd5b60405162461bcd60e51b8152602060048201526012602482015271105b1c9958591e481c9959da5cdd195c995960721b6044820152606490fd5b60405162461bcd60e51b815260206004820152601860248201527716995c9bc81a59195b9d1a5d1e4818dbdb5b5a5d1b595b9d60421b6044820152606490fd5b60405162461bcd60e51b815260206004820152601760248201527616995c9bc81c1c9bd99a5b194818dbdb5b5a5d1b595b9d604a1b6044820152606490fd5b60405162461bcd60e51b815260206004820152601560248201527416995c9bc81c195c9b5a5d081c9958da5c1a595b9d605a1b6044820152606490fd5b8280fd5b50346102285780600319360112610228576005546040516001600160a01b039091168152602090f35b50346102285761022036600319011261022857610566611b4b565b6044356001600160a01b038116810361051e576101a4356001600160401b038111610a3257610599903690600401611b8f565b91906001600160401b036102043511610415576105bc3661020435600401611b8f565b9033875260066020526105d560ff604089205416611bec565b6001600160a01b038616156109f7576001600160a01b0386168752600960205260408720546101c435036109c2576101e43542116109895760016101c435016101c43511610975576001600160a01b03861687526009602052604087206101c435600101905561073c916107339161072d9061066e8887610184356101643561014435610124356101043560e43560c43560a435612a71565b60405160208101915f516020612f3b5f395f51905f52835260018060a01b038c166040830152602435606083015260018060a01b038a16608083015260643560a083015260c08201526101c43560e08201526101e43561010082015261010081526106db61012082611cc7565b5190206107146107226106ec6124d9565b92604051928391602083019586909160429261190160f01b8352600283015260228201520190565b03601f198101835282611cc7565b519020923691612576565b90612c91565b90929192612ccb565b6001600160a01b03858116911603610930576001600160a01b038216156104e157606435156104a25760243515610462576001600160a01b0384168552600c602052604085205460ff16610428576001600160a01b039384168552600c60205260408520805460ff191660019081179091558554905486959190911690813b156103fc578591604483926040519485938492631783efc360e01b8452600484015260243560248401525af190811561092557859161090b575b50506002546001600160a01b0316803b15610415576108a79385809460405196879586948593630e4e997f60e41b8552602435600486015260018060a01b031660248501526064356044850152608435606485015260a435608485015260c43560a485015260e43560c48501526101043560e4850152610124356101048501526101443561012485015261016435610144850152610184356101648501526101a06101848501526101a4840191611cfe565b03925af180156103f1576108f6575b50602435337fcf404d2b75bd196a0a27292fe103bed33287f3aeb9e180ee5f733a54d81f43138380a36024355f516020612efb5f395f51905f528280a280f35b8161090091611cc7565b61022857805f6108b6565b8161091591611cc7565b61092057835f6107f5565b505050fd5b6040513d87823e3d90fd5b60405162461bcd60e51b815260206004820152601e60248201527f496e76616c696420726567697374726174696f6e207369676e617475726500006044820152606490fd5b634e487b7160e01b87526011600452602487fd5b60405162461bcd60e51b815260206004820152601160248201527014da59db985d1d5c9948195e1c1a5c9959607a1b6044820152606490fd5b60405162461bcd60e51b815260206004820152600d60248201526c496e76616c6964206e6f6e636560981b6044820152606490fd5b60405162461bcd60e51b815260206004820152601360248201527216995c9bc81c185d1a595b9d081dd85b1b195d606a1b6044820152606490fd5b8380fd5b503461022857806003193601126102285760206040515f516020612edb5f395f51905f528152f35b503461022857806003193601126102285760018060a01b038154166020600154602460405180948193631fb8d68360e21b835260048301525afa9081156103f1578291610ab1575b602082604051908152f35b90506020813d602011610adf575b81610acc60209383611cc7565b810103126103ed5760209150515f610aa6565b3d9150610abf565b503461022857604036600319011261022857610b01611b4b565b60243590811515820361051e57610b2360018060a01b036004541633146122e8565b6001600160a01b0316908115610b8457610b54908284526007602052604084209060ff801983541691151516179055565b615460420190814211610b705782526008602052604082205580f35b634e487b7160e01b83526011600452602483fd5b60405162461bcd60e51b815260206004820152600c60248201526b2d32b937903932b630bcb2b960a11b6044820152606490fd5b503461022857602036600319011261022857610bd2611b4b565b610be760018060a01b036004541633146122e8565b6001600160a01b031680825260086020526040822054151580610cbe575b15610c87578082526007602052610c3a60ff6040842054168284526006602052604084209060ff801983541691151516179055565b808252600860205281604081205580825260066020527f431c9efc75fd5a8b5d510e3458e1c31ac5c3de0385743f60f76491e1e0867391602060ff6040852054166040519015158152a280f35b60405162461bcd60e51b815260206004820152600f60248201526e54696d656c6f636b2061637469766560881b6044820152606490fd5b5080825260086020526040822054421015610c05565b503461022857610240366003190112610228576004356101a03660231901126103ed576101c43590610d04611b61565b9061020435610224356001600160401b0381116103fc57610d2c610d36913690600401611b8f565b9083868887612339565b818552600d602052604085209260643593848752602052610d5e60ff60408820541615611c32565b600354610d75906001600160a01b03161515611c7e565b828652600e602052604086208487526020526040862054821115610e9157602090838752600e8252604087208588528252826040882055608460018060a01b036003541696886040519889948593638c7784b360e01b8552600485015288602485015289604485015260018060a01b031660648401525af1938415610925578594610e59575b50828552600a60205260408520557fe469eba31f321d8bebe627bfc87b4538c257f6925eb03365632c70c2275abe8160206040518181019085825284604082015260408152610e4b606082611cc7565b51902094604051908152a480f35b9093506020813d602011610e89575b81610e7560209383611cc7565b81010312610e855751925f610dfb565b5f80fd5b3d9150610e68565b60405162461bcd60e51b815260206004820152601260248201527114dd185b19481cdd1859d9481c195c9b5a5d60721b6044820152606490fd5b503461022857610340366003190112610228576101a036602319011261022857610ef3611b61565b610efb611b78565b9082610244356001600160401b0381116103ed57610f1d903690600401611b8f565b9290610264356001600160401b038111610a3257610f3f903690600401611b8f565b9590926102a4356001600160401b0381116103fc57610f62903690600401611b8f565b9092906102e4356001600160401b03811161103a57610f85903690600401611b8f565b949093610304356001600160401b03811161103657610fa8903690600401611b8f565b9890976001600160401b03610324351161103257610fcc3660046103243501611bbc565b9c909b3381526006602052604090205460ff16610fe890611bec565b610ffd9161022435856101c435600435612339565b6064359b8c916102243587600435611014956125fd565b6102c4359361028435916101c4356004359d61102f9e61273b565b80f35b8a80fd5b8980fd5b8780fd5b50346102285760203660031901126102285760018060a01b038154166020600154604460405180948193632414275160e21b8352600483015260043560248301525afa9081156103f1576020929161109c575b506040519015158152f35b6110bc9150823d84116110c2575b6110b48183611cc7565b810190612321565b5f611091565b503d6110aa565b5034610228576020366003190112610228576110e3611b4b565b506110f960018060a01b036004541633146122e8565b60405162461bcd60e51b815260206004820152602a60248201527f557365207363686564756c6552656c6179657241757468202b206170706c79526044820152690cad8c2f2cae482eae8d60b31b6064820152608490fd5b50346102285780600319360112610228576004546040516001600160a01b039091168152602090f35b50346102285760ff604060209261119036611b35565b908252600d855282822090825284522054166040519015158152f35b5034610228578060031936011261022857602061022061270c565b5034610228576020366003190112610228576004356111f160018060a01b036004541633146122e8565b610e1081106112af576301e13380811161126057815460015483926001600160a01b0390921691823b156109205760448492836040519586948593633f3c2dbb60e21b8552600485015260248401525af180156103f15761124f5750f35b8161125991611cc7565b6102285780f35b60405162461bcd60e51b815260206004820152602160248201527f4475726174696f6e2061626f7665206d6178696d756d202833363520646179736044820152602960f81b6064820152608490fd5b60405162461bcd60e51b815260206004820152601f60248201527f4475726174696f6e2062656c6f77206d696e696d756d20283120686f757229006044820152606490fd5b5034610228576020366003190112610228576020906040906001600160a01b0361131c611b4b565b168152600983522054604051908152f35b5034610228578060031936011261022857546040516001600160a01b039091168152602090f35b50346102285760603660031901126102285760405162461bcd60e51b815260206004820152604560248201527f446570726563617465643a20757365207374616765416e6f6e796d6f7573417060448201527f706c79202b2066696e616c697a65416e6f6e796d6f75734170706c7957697468606482015264283937b7b360d91b608482015260a490fd5b50346102285780600319360112610228576005546001600160a01b038116903382900361144657600480546001600160a01b03199081168417909155166005557fb27970c1714b28277b78cc17ac2fe9556e7f048cd48358cffe3dc7d547608fdc8280a280f35b60405162461bcd60e51b81526020600482015260126024820152712737ba10383937b837b9b2b21037bbb732b960711b6044820152606490fd5b50346102285760203660031901126102285761149a611b4b565b6114af60018060a01b036004541633146122e8565b6001600160a01b031680156114f757600580546001600160a01b031916821790557f6ab4d119f23076e8ad491bc65ce85f017fb0591dce08755ba8591059cc51737a8280a280f35b60405162461bcd60e51b815260206004820152600c60248201526b5a65726f206164647265737360a01b6044820152606490fd5b503461022857806003193601126102285760206040515f516020612f3b5f395f51905f528152f35b5034610228576020366003190112610228576001600160a01b03611575611b4b565b16803303611593578160409160209352600b83522054604051908152f35b60405162461bcd60e51b815260206004820152601d60248201527f43616e206f6e6c79207175657279206f776e20636f6d6d69746d656e740000006044820152606490fd5b50346102285780600319360112610228576002546040516001600160a01b039091168152602090f35b50346102285780600319360112610228576003546040516001600160a01b039091168152602090f35b5034610228576102c0366003190112610228576101a036602319011261022857611652611b61565b61165a611b78565b9082610244356001600160401b0381116103ed5761167c903690600401611b8f565b90610264356001600160401b038111610a325761169d903690600401611b8f565b90610284356001600160401b0381116103fc576116be903690600401611b8f565b6102a4359790959194906001600160401b03891161103a5761102f9961170260ff6116ef60409c3690600401611bbc565b9c909b3381526006602052205416611bec565b61022435916101c435600435611d78565b5034610e8557610260366003190112610e85576004356101a0366023190112610e855761173e611b61565b906102043590610224356001600160401b038111610e8557611764903690600401611b8f565b92610244356001600160401b038111610e85576117886117af913690600401611b8f565b959093335f5260066020526117a360ff60405f205416611bec565b83886101c43588612339565b825f52600d60205260405f209360643594855f526020526117d760ff60405f20541615611c32565b6003546001600160a01b0316926117ef841515611c7e565b8242116118f05761184b9161072d610733926040519960208b01905f516020612f5b5f395f51905f5282528960408d01528a60608d015260018060a01b03169a8b9788608083015260a082015260a081526106db60c082611cc7565b6001600160a01b0316036118b057803b15610e85575f92836064926040519687958694631633cac560e31b86526004860152602485015260448401525af180156118a557611897575080f35b6118a391505f90611cc7565b005b6040513d5f823e3d90fd5b60405162461bcd60e51b8152602060048201526018602482015277496e76616c69642063616e63656c207369676e617475726560401b6044820152606490fd5b60405162461bcd60e51b815260206004820152601860248201527710d85b98d95b081cda59db985d1d5c9948195e1c1a5c995960421b6044820152606490fd5b34610e85576020366003190112610e85576001600160a01b03611951611b4b565b165f526008602052602060405f2054604051908152f35b34610e85575f366003190112610e8557602060405162278d008152f35b34610e85575f366003190112610e855760206040516154608152f35b34610e85576020366003190112610e85576001600160a01b036119c2611b4b565b165f526006602052602060ff60405f2054166040519015158152f35b34610e85575f366003190112610e85576020600154604051908152f35b34610e85575f366003190112610e855760206040515f516020612ebb5f395f51905f528152f35b34610e85576020366003190112610e85576004355f52600a602052602060405f2054604051908152f35b34610e85575f366003190112610e8557335f52600c602052602060ff60405f2054166040519015158152f35b34610e85576020366003190112610e85576001600160a01b03611a99611b4b565b165f526007602052602060ff60405f2054166040519015158152f35b34610e85575f366003190112610e855760206040515f516020612f5b5f395f51905f528152f35b34610e8557611aea36611b35565b905f52600d60205260405f20905f52602052602060ff60405f2054166040519015158152f35b34610e85575f366003190112610e8557805f516020612f9b5f395f51905f5260209252f35b6040906003190112610e85576004359060243590565b600435906001600160a01b0382168203610e8557565b6101e435906001600160a01b0382168203610e8557565b61020435906001600160a01b0382168203610e8557565b9181601f84011215610e85578235916001600160401b038311610e855760208381860195010111610e8557565b9181601f84011215610e85578235916001600160401b038311610e85576020808501948460051b010111610e8557565b15611bf357565b60405162461bcd60e51b815260206004820152601760248201527627b7363c9030baba3437b934bd32b2103932b630bcb2b960491b6044820152606490fd5b15611c3957565b60405162461bcd60e51b815260206004820152601d60248201527f416c7265616479206170706c69656420746f207468697320747269616c0000006044820152606490fd5b15611c8557565b60405162461bcd60e51b815260206004820152601a602482015279115b1a59da589a5b1a5d1e48195b99da5b99481b9bdd081cd95d60321b6044820152606490fd5b601f909101601f19168101906001600160401b03821190821017611cea57604052565b634e487b7160e01b5f52604160045260245ffd5b908060209392818452848401375f828201840152601f01601f1916010190565b81835290916001600160fb1b038311610e855760209260051b809284830137010190565b90816020910312610e8557516004811015610e855790565b60041115611d6457565b634e487b7160e01b5f52602160045260245ffd5b9b9198969997939590949a929a60018060a01b038a16156122a8578642116122685760018060a01b035f5416600154604051632414275160e21b8152816004820152886024820152602081604481865afa9081156118a5575f91612249575b50156121f957604051906308ade83160e31b8252600482015260243560248201526044356044820152606435606482015260843560848201526020816101c48160a435958660a483015261010060c4808401375afa9081156118a5575f916121da575b501561219b578d0361215c57604080516020810188815260608d901b6001600160601b0319169282019290925260348152611e76605482611cc7565b5190206084350361211a57611edc9161072d610733928f8d6040519060208201925f516020612f9b5f395f51905f52845260408301528b6060830152606435608083015260018060a01b031660a08201528b60c082015260c081526106db60e082611cc7565b6001600160a01b038981169116036120ca57611f958b96611f09611fa79560209c5f998f8c6064356125fd565b878752600d8b526040872060643588528b52611f2c60ff60408920541615611c32565b6003546001600160a01b031698611f448a1515611c7e565b6040519c8d9b8c9a8b99630d61f71560e11b8b5260048b015260643560248b015260448a015260018060a01b0316606489015260018060a01b0316608488015260e060a488015260e4870191611cfe565b8481036003190160c486015291611d1e565b03925af180156118a55761209b575b5060035460405163b6e4033f60e01b815260643560048201526024810183905290602090829060449082906001600160a01b03165afa9081156118a5575f9161206c575b5061200481611d5a565b1561206957805f52600d60205260405f206064355f5260205260405f20600160ff19825416179055604051602081019060643582528260408201526040815261204e606082611cc7565b51902090606435905f516020612f7b5f395f51905f525f80a4565b50565b61208e915060203d602011612094575b6120868183611cc7565b810190611d42565b5f611ffa565b503d61207c565b6020813d6020116120c2575b816120b460209383611cc7565b81010312610e855751611fb6565b3d91506120a7565b60405162461bcd60e51b815260206004820152602260248201527f496e76616c6964207065726d697420726563697069656e74207369676e617475604482015261726560f01b6064820152608490fd5b60405162461bcd60e51b815260206004820152601a602482015279086dedadad2e8dacadce85ee6d2cedcc2d840dad2e6dac2e8c6d60331b6044820152606490fd5b60405162461bcd60e51b815260206004820152601760248201527614d8dbdc19481b5a5cdb585d18da0e881d1c9a585b1259604a1b6044820152606490fd5b60405162461bcd60e51b815260206004820152601760248201527624b73b30b634b21029b2b6b0b83437b93290383937b7b360491b6044820152606490fd5b6121f3915060203d6020116110c2576110b48183611cc7565b5f611e3a565b60405162461bcd60e51b815260206004820152602260248201527f436f6d6d69746d656e74206e6f74207265676973746572656420696e2067726f604482015261075760f41b6064820152608490fd5b612262915060203d6020116110c2576110b48183611cc7565b5f611dd7565b60405162461bcd60e51b815260206004820152601860248201527714195c9b5a5d081cda59db985d1d5c9948195e1c1a5c995960421b6044820152606490fd5b60405162461bcd60e51b8152602060048201526018602482015277125b9d985b1a59081c195c9b5a5d081c9958da5c1a595b9d60421b6044820152606490fd5b156122ef57565b60405162461bcd60e51b815260206004820152600a60248201526927b7363c9037bbb732b960b11b6044820152606490fd5b90816020910312610e8557518015158103610e855790565b6001600160a01b0383169591949192919086156122a8578442116122685760018060a01b035f54169260015490604051632414275160e21b8152826004820152886024820152602081604481895afa9081156118a5575f916124ba575b50156121f957604051916308ade83160e31b835260048301526024356024830152604435604483015260643594856064840152608435928360848201526020816101c48160a435958660a483015261010060c4808401375afa9081156118a5575f9161249b575b501561219b57830361215c57604051602081019189835260018060601b03199060601b16604082015260348152612435605482611cc7565b5190200361211a5761248b956107339561072d946040519260208401945f516020612f9b5f395f51905f5286526040850152606084015260808301528860a083015260c082015260c081526106db60e082611cc7565b6001600160a01b0316036120ca57565b6124b4915060203d6020116110c2576110b48183611cc7565b5f6123fd565b6124d3915060203d6020116110c2576110b48183611cc7565b5f612396565b60406010602082516124eb8482611cc7565b828152016f4d65645661756c74526567697374727960801b8152206001602083516125168582611cc7565b82815201603160f81b81522082519160208301937f8b73c3c69bb8fe3d512ecc4cf759cc79239f7b179b0ffacaa9a75d522b39400f855283015260608201524660808201523060a082015260a0815261257060c082611cc7565b51902090565b9192916001600160401b038211611cea576040519161259f601f8201601f191660200184611cc7565b829481845281830111610e85578281602093845f960137010152565b156125c257565b60405162461bcd60e51b815260206004820152601360248201527216995c9bc818dbdb9cd95b9d081dd85b1b195d606a1b6044820152606490fd5b6001600160a01b039092169491939092906126198615156125bb565b8142116126bd57612669946107339461072d936040519160208301935f516020612edb5f395f51905f5285526040840152606083015288608083015260a082015260a081526106db60c082611cc7565b6001600160a01b03160361267957565b606460405162461bcd60e51b815260206004820152602060248201527f496e76616c696420636f6e73656e742077616c6c6574207369676e61747572656044820152fd5b60405162461bcd60e51b815260206004820152602160248201527f436f6e73656e742062696e64696e67207369676e6174757265206578706972656044820152601960fa1b6064820152608490fd5b4660010361271957600190565b4662aa36a7036127295761271190565b617a694614612736575f90565b5f1990565b9d999397929b94909c9a9661279892968f918f612792935f52600d60205260405f20905f5260205261277460ff60405f20541615611c32565b60035461278b906001600160a01b03161515611c7e565b3691612576565b90612ade565b6001600160a01b03909616966127af8815156125bb565b814211612a2c57879261072d610733928f612802956040519060208201925f516020612ebb5f395f51905f5284528d6040840152606083015288608083015260a082015260a081526106db60c082611cc7565b6001600160a01b0316036129e7576020968a966128a95f956128bb94886128508f9a821590816129d4575b612838903090612dc2565b6003546001600160a01b03169083906129c657612dc2565b60018060a01b03600354169a6040519e8f9d8e9c8d9b63ed3b658b60e01b8d5260048d015260248c015260448b015260018060a01b031660648a0152608489015260a488015261010060c4880152610104870191611cfe565b8481036003190160e486015291611d1e565b03925af180156118a557612997575b5060035460405163b6e4033f60e01b8152600481018390526024810184905290602090829060449082906001600160a01b03165afa9081156118a5575f91612978575b5061291781611d5a565b1561297457815f52600d60205260405f20815f5260205260405f20600160ff1982541617905560405160208101908282528360408201526040815261295d606082611cc7565b519020915f516020612f7b5f395f51905f525f80a4565b5050565b612991915060203d602011612094576120868183611cc7565b5f61290d565b6020813d6020116129be575b816129b060209383611cc7565b81010312610e8557516128ca565b3d91506129a3565b506129cf612d47565b612dc2565b506128386129e0612d47565b905061282d565b60405162461bcd60e51b815260206004820152601f60248201527f496e76616c696420636f6e73656e74206772616e74207369676e6174757265006044820152606490fd5b60405162461bcd60e51b815260206004820152601f60248201527f436f6e73656e74206772616e74207369676e61747572652065787069726564006044820152606490fd5b98929461257097929894610714969792976040519a8b9960208b019d8e5260408b015260608a0152608089015260a088015260c087015260e086015261010085015261012080850152610140840191611cfe565b9081526001600160a01b03909116602082015260400190565b815115612bf557602091829160018060a01b035f516020612e9b5f395f51905f525416905f60a460405180978196829563045fc19560e11b84526004840152336024840152608060448401528051918291826084860152018484015e83838284010152836064830152601f801991011681010301925af19081156118a5575f91612bc3575b505f516020612f1b5f395f51905f52546001600160a01b0316803b15610e85575f6040518092630f8e573b60e21b8252818381612ba4338960048401612ac5565b03925af180156118a557612bb6575090565b5f612bc091611cc7565b90565b90506020813d602011612bed575b81612bde60209383611cc7565b81010312610e8557515f612b63565b3d9150612bd1565b80915015612c88575f516020612f1b5f395f51905f52546040516382027b6d60e01b81529060209082906001600160a01b03168180612c38338860048401612ac5565b03915afa9081156118a5575f91612c69575b5015612c535790565b630276b5d960e01b5f526004523360245260445ffd5b612c82915060203d6020116110c2576110b48183611cc7565b5f612c4a565b50612bc0612d47565b8151919060418303612cc157612cba9250602082015190606060408401519301515f1a90612e22565b9192909190565b50505f9160029190565b612cd481611d5a565b80612cdd575050565b612ce681611d5a565b60018103612cfd5763f645eedf60e01b5f5260045ffd5b612d0681611d5a565b60028103612d21575063fce698f760e01b5f5260045260245ffd5b600390612d2d81611d5a565b14612d355750565b6335e2f38360e21b5f5260045260245ffd5b5f602060018060a01b035f516020612e9b5f395f51905f525416604460405180948193639cd07acb60e01b83528160048401528160248401525af19081156118a5575f91612d93575090565b90506020813d602011612dba575b81612dae60209383611cc7565b81010312610e85575190565b3d9150612da1565b5f516020612f1b5f395f51905f52546001600160a01b031691823b15610e8557612e05925f9283604051809681958294635ca4b5b160e11b845260048401612ac5565b03925af180156118a557612e165750565b5f612e2091611cc7565b565b91906fa2a8918ca85bafe22016d0b997e4df60600160ff1b038411612e8f579160209360809260ff5f9560405194855216868401526040830152606082015282805260015afa156118a5575f516001600160a01b03811615612e8557905f905f90565b505f906001905f90565b5050505f916003919056fe9e7b61f58c47dc699ac88507c4f5bb9f121c03808c5676a8078fe583e4649701c8f333a20a3fc3604ea260b0af9f1a22fce632b2f726c7dbcd4ecf12f5041ff0ebb738af1775421b1410935e225a9450c696b730fcb7bf0e68174cd23f2de0234c5da917c89b368a7c58084e36d80fc37bc7af94d1c6e5fdab59d8c19b9858d99e7b61f58c47dc699ac88507c4f5bb9f121c03808c5676a8078fe583e46497001f8d0b95731f745d7f9f8df6adab91da27d8809a4248ac155ab711a0082400314b4eaf641862218da542a4fcf09799be4d534672fae9dee079b43819fdd0eebb2781aa971870e4ce67772689e03c8f88a41c87389876c835e6beb2ddb4f29268c6b765112138f485c7e1d0ffea3eadc0bcca9cabedbe978809dd7081809f953ca164736f6c634300081b000a",
  "linkReferences": {},
  "deployedLinkReferences": {}
}