{
  "_format": "hh-sol-artifact-1",
  "contractName": "MedVaultAutomation",
  "sourceName": "contracts/MedVaultAutomation.sol",
  "abi": [
    {
      "inputs": [
        {
          "internalType": "address",
          "name": "_engine",
          "type": "address"
        },
        {
          "internalType": "address",
          "name": "_consentManager",
          "type": "address"
        },
        {
          "internalType": "address",
          "name": "_trialManager",
          "type": "address"
        },
        {
          "internalType": "address payable",
          "name": "_vault",
          "type": "address"
        }
      ],
      "stateMutability": "nonpayable",
      "type": "constructor"
    },
    {
      "anonymous": false,
      "inputs": [
        {
          "indexed": true,
          "internalType": "address",
          "name": "patient",
          "type": "address"
        },
        {
          "indexed": true,
          "internalType": "uint256",
          "name": "trialId",
          "type": "uint256"
        }
      ],
      "name": "AddedToQueue",
      "type": "event"
    },
    {
      "anonymous": false,
      "inputs": [
        {
          "indexed": true,
          "internalType": "uint256",
          "name": "trialId",
          "type": "uint256"
        },
        {
          "indexed": false,
          "internalType": "bool",
          "name": "distributed",
          "type": "bool"
        },
        {
          "indexed": false,
          "internalType": "bool",
          "name": "deactivated",
          "type": "bool"
        }
      ],
      "name": "TrialFinalized",
      "type": "event"
    },
    {
      "inputs": [
        {
          "internalType": "bytes",
          "name": "",
          "type": "bytes"
        }
      ],
      "name": "checkUpkeep",
      "outputs": [
        {
          "internalType": "bool",
          "name": "upkeepNeeded",
          "type": "bool"
        },
        {
          "internalType": "bytes",
          "name": "performData",
          "type": "bytes"
        }
      ],
      "stateMutability": "view",
      "type": "function"
    },
    {
      "inputs": [],
      "name": "consentManager",
      "outputs": [
        {
          "internalType": "contract ConsentManager",
          "name": "",
          "type": "address"
        }
      ],
      "stateMutability": "view",
      "type": "function"
    },
    {
      "inputs": [],
      "name": "engine",
      "outputs": [
        {
          "internalType": "contract EligibilityEngine",
          "name": "",
          "type": "address"
        }
      ],
      "stateMutability": "view",
      "type": "function"
    },
    {
      "inputs": [
        {
          "internalType": "address",
          "name": "_patient",
          "type": "address"
        },
        {
          "internalType": "uint256",
          "name": "_trialId",
          "type": "uint256"
        }
      ],
      "name": "enqueue",
      "outputs": [],
      "stateMutability": "nonpayable",
      "type": "function"
    },
    {
      "inputs": [
        {
          "internalType": "address",
          "name": "",
          "type": "address"
        },
        {
          "internalType": "uint256",
          "name": "",
          "type": "uint256"
        }
      ],
      "name": "enqueued",
      "outputs": [
        {
          "internalType": "bool",
          "name": "",
          "type": "bool"
        }
      ],
      "stateMutability": "view",
      "type": "function"
    },
    {
      "inputs": [
        {
          "internalType": "uint256",
          "name": "",
          "type": "uint256"
        }
      ],
      "name": "finalized",
      "outputs": [
        {
          "internalType": "bool",
          "name": "",
          "type": "bool"
        }
      ],
      "stateMutability": "view",
      "type": "function"
    },
    {
      "inputs": [
        {
          "internalType": "bytes",
          "name": "performData",
          "type": "bytes"
        }
      ],
      "name": "performUpkeep",
      "outputs": [],
      "stateMutability": "nonpayable",
      "type": "function"
    },
    {
      "inputs": [
        {
          "internalType": "uint256",
          "name": "",
          "type": "uint256"
        }
      ],
      "name": "queue",
      "outputs": [
        {
          "internalType": "address",
          "name": "patient",
          "type": "address"
        },
        {
          "internalType": "uint256",
          "name": "trialId",
          "type": "uint256"
        }
      ],
      "stateMutability": "view",
      "type": "function"
    },
    {
      "inputs": [
        {
          "internalType": "address payable",
          "name": "_vault",
          "type": "address"
        }
      ],
      "name": "setVault",
      "outputs": [],
      "stateMutability": "nonpayable",
      "type": "function"
    },
    {
      "inputs": [],
      "name": "trialManager",
      "outputs": [
        {
          "internalType": "contract TrialManager",
          "name": "",
          "type": "address"
        }
      ],
      "stateMutability": "view",
      "type": "function"
    },
    {
      "inputs": [],
      "name": "vault",
      "outputs": [
        {
          "internalType": "contract SponsorIncentiveVault",
          "name": "",
          "type": "address"
        }
      ],
      "stateMutability": "view",
      "type": "function"
    }
  ],
  "bytecode": "0x6080346100d357601f610fe138819003918201601f19168301916001600160401b038311848410176100d7578084926080946040528339810103126100d357610047816100eb565b90610054602082016100eb565b6060610062604084016100eb565b9201516001600160a01b03811693908490036100d3575f80546001600160a01b03199081166001600160a01b039384161790915560018054821693831693909317909255600280548316939091169290921790915560038054909116919091179055604051610ee190816101008239f35b5f80fd5b634e487b7160e01b5f52604160045260245ffd5b51906001600160a01b03821682036100d35756fe6080806040526004361015610012575f80fd5b5f905f3560e01c9081630ee0a17d1461076d575080634585e33b1461028b5780634ddaced21461025c57806355f8cfdd146102335780636817031b146101f55780636e04ff0d146101a0578063c9d4623f14610179578063cadd7b141461013d578063ddf0b009146100eb578063e75bb266146100c25763fbfa77cf14610097575f80fd5b346100bf57806003193601126100bf576003546040516001600160a01b039091168152602090f35b80fd5b50346100bf57806003193601126100bf576001546040516001600160a01b039091168152602090f35b50346100bf5760203660031901126100bf5760043560045481101561013957610113906109bf565b508054600190910154604051918291610135916001600160a01b0316836109ef565b0390f35b5080fd5b50346100bf5760ff60406020926101533661094a565b6001600160a01b0390911682526005855282822090825284522054604051911615158152f35b50346100bf57806003193601126100bf57546040516001600160a01b039091168152602090f35b50346100bf5760606020916101b436610970565b50506101be610c9f565b939091604051948593151584526040838501528051928391826040870152018585015e828201840152601f01601f19168101030190f35b50346100bf5760203660031901126100bf576004356001600160a01b0381169081900361013957600380546001600160a01b03191691909117905580f35b50346100bf57806003193601126100bf576002546040516001600160a01b039091168152602090f35b50346100bf5760203660031901126100bf5760ff60406020926004358152600684522054166040519015158152f35b503461044457604061029c36610970565b90809291810103126104445780359060ff821680920361044457602001359060010361052a57600254604051631a7f3c3360e01b815260048101839052905f90829060249082906001600160a01b03165afa90811561051f575f916104fd575b5060a0810151156104c5576101e0015180151590816104ba575b501561048157805f52600660205260ff60405f205416610448575f818152600660205260408120805460ff191660011790556003546001600160a01b0316803b15610444575f80916024604051809481936391c05b0b60e01b83528860048401525af1908161042f575b50610427575b60025483919082906001600160a01b0316803b1561013957818091602460405180958193636e8faa0b60e11b83528a60048401525af1918261040a575b5050907f4089bb887c83f7f9f5eb4a2ae07012fcf8267ea21ac02ff4a2e69b731dbce92d92604092610402575b8251911515825215156020820152a280f35b5060016103f0565b8161041791949394610a25565b6104235790845f6103c3565b8480fd5b506001610386565b61043c9194505f90610a25565b5f925f610380565b5f80fd5b60405162461bcd60e51b8152602060048201526011602482015270105b1c9958591e48199a5b985b1a5e9959607a1b6044820152606490fd5b60405162461bcd60e51b8152602060048201526011602482015270151c9a585b081b9bdd08195e1c1a5c9959607a1b6044820152606490fd5b90504210155f610316565b60405162461bcd60e51b815260206004820152601060248201526f547269616c206e6f742061637469766560801b6044820152606490fd5b61051991503d805f833e6105118183610a25565b810190610aee565b5f6102fc565b6040513d5f823e3d90fd5b600454908181101561073857610548610542826109bf565b50610a55565b915f19810190811161072457610560610567916109bf565b50916109bf565b9190916106d0578082036106f7575b505060045480156106e3575f190161058d816109bf565b6106d0576001815f809355015560045560018060a01b038151165f52600560205260405f2090602081019182515f5260205260405f2060ff198154169055610605602060018060a01b036001541660018060a01b0384511690855191604051809581948293630cc6669f60e31b8452600484016109ef565b03915afa90811561051f575f91610696575b5061062157505080f35b5f8054915192516040516349df1feb60e01b81529360209385936001600160a01b039182169385939192849261065c929116600484016109ef565b03925af1801561051f5761066e575080f35b602090813d831161068f575b6106848183610a25565b810103126104445780f35b503d61067a565b90506020813d6020116106c8575b816106b160209383610a25565b81010312610444576106c290610a48565b5f610617565b3d91506106a4565b634e487b7160e01b5f525f60045260245ffd5b634e487b7160e01b5f52603160045260245ffd5b805482546001600160a01b0319166001600160a01b03919091161782556001908101549101555f80610576565b634e487b7160e01b5f52601160045260245ffd5b60405162461bcd60e51b815260206004820152600d60248201526c092dcecc2d8d2c840d2dcc8caf609b1b6044820152606490fd5b346104445761077b3661094a565b600154630cc6669f60e31b845290929060209082906001600160a01b031681806107a98888600484016109ef565b03915afa90811561051f575f91610910575b50156108de5760018060a01b0316805f52600560205260405f20825f5260205260ff60405f2054166108a6576040516107f381610a0a565b8181526020810190838252600454600160401b8110156108925780600161081d92016004556109bf565b9290926106d057905182546001600160a01b0319166001600160a01b0391909116178255516001918201555f8281526005602090815260408083208684529091528120805460ff19169092179091557f04be2e7980f36e9bc20cc4775829e043b11e0e79cef25c0f0d089f086f9ad85e9080a3005b634e487b7160e01b5f52604160045260245ffd5b60405162461bcd60e51b815260206004820152601060248201526f416c726561647920696e20717565756560801b6044820152606490fd5b60405162461bcd60e51b815260206004820152600a602482015269139bc818dbdb9cd95b9d60b21b6044820152606490fd5b90506020813d602011610942575b8161092b60209383610a25565b810103126104445761093c90610a48565b836107bb565b3d915061091e565b6040906003190112610444576004356001600160a01b0381168103610444579060243590565b906020600319830112610444576004356001600160401b0381116104445782602382011215610444576004810135926001600160401b0384116104445760248483010111610444576024019190565b6004548110156109db5760045f5260205f209060011b01905f90565b634e487b7160e01b5f52603260045260245ffd5b6001600160a01b039091168152602081019190915260400190565b604081019081106001600160401b0382111761089257604052565b601f909101601f19168101906001600160401b0382119082101761089257604052565b5190811515820361044457565b90604051610a6281610a0a565b82546001600160a01b031681526001909201546020830152565b81601f82011215610444578051906001600160401b0382116108925760405192610ab0601f8401601f191660200185610a25565b8284526020838301011161044457815f9260208093018386015e8301015290565b519060ff8216820361044457565b519061ffff8216820361044457565b602081830312610444578051906001600160401b038211610444570161020081830312610444576040519161020083016001600160401b038111848210176108925760405281516001600160401b0381116104445781610b4f918401610a7c565b835260208201516001600160401b0381116104445781610b70918401610a7c565b602084015260408201516001600160401b0381116104445781610b94918401610a7c565b60408401526060820151906001600160401b03821161044457610bb8918301610a7c565b60608301526080810151906001600160a01b0382168203610444576101e0916080840152610be860a08201610a48565b60a0840152610bf960c08201610ad1565b60c0840152610c0a60e08201610ad1565b60e0840152610c1c6101008201610a48565b610100840152610c2f6101208201610adf565b610120840152610c426101408201610ad1565b610140840152610c556101608201610ad1565b610160840152610c686101808201610adf565b610180840152610c7b6101a08201610a48565b6101a0840152610c8e6101c08201610a48565b6101c084015201516101e082015290565b60025460405163c112624960e01b815291906001600160a01b0316602083600481845afa92831561051f575f93610ea0575b5060015b838110610ddc575050905060045480610d00575b505f90604051610cfa602082610a25565b5f815290565b6001549091906001600160a01b03165f5b838110610d2057505090610ce9565b610d5c6020610d31610542846109bf565b805190820151604051630cc6669f60e31b81529384928392906001600160a01b0316600484016109ef565b0381865afa90811561051f575f91610da3575b50610d7c57600101610d11565b925050604051915f6020840152604083015260408252610d9d606083610a25565b60019190565b90506020813d8211610dd4575b81610dbd60209383610a25565b8101031261044457610dce90610a48565b5f610d6f565b3d9150610db0565b604051631a7f3c3360e01b8152600481018290525f81602481865afa90811561051f575f91610e86575b5060a081015115159081610e77575b81610e67575b5080610e50575b610e2e57600101610cd5565b9250506040519160016020840152604083015260408252610d9d606083610a25565b50805f52600660205260ff60405f20541615610e22565b6101e0915001514210155f610e1b565b6101e081015115159150610e15565b610e9a91503d805f833e6105118183610a25565b5f610e06565b9092506020813d602011610ecc575b81610ebc60209383610a25565b810103126104445751915f610cd1565b3d9150610eaf56fea164736f6c634300081b000a",
  "linkReferences": {},
  "deployedLinkReferences": {}
}