{
  "_format": "hh-sol-artifact-1",
  "contractName": "MockAave",
  "sourceName": "contracts/test/MockAave.sol",
  "abi": [
    {
      "inputs": [
        {
          "internalType": "address",
          "name": "",
          "type": "address"
        },
        {
          "internalType": "uint256",
          "name": "",
          "type": "uint256"
        }
      ],
      "name": "approve",
      "outputs": [
        {
          "internalType": "bool",
          "name": "",
          "type": "bool"
        }
      ],
      "stateMutability": "pure",
      "type": "function"
    },
    {
      "inputs": [
        {
          "internalType": "address",
          "name": "account",
          "type": "address"
        }
      ],
      "name": "balanceOf",
      "outputs": [
        {
          "internalType": "uint256",
          "name": "",
          "type": "uint256"
        }
      ],
      "stateMutability": "view",
      "type": "function"
    },
    {
      "inputs": [
        {
          "internalType": "address",
          "name": "",
          "type": "address"
        }
      ],
      "name": "balances",
      "outputs": [
        {
          "internalType": "uint256",
          "name": "",
          "type": "uint256"
        }
      ],
      "stateMutability": "view",
      "type": "function"
    },
    {
      "inputs": [
        {
          "internalType": "address",
          "name": "",
          "type": "address"
        },
        {
          "internalType": "address",
          "name": "onBehalfOf",
          "type": "address"
        },
        {
          "internalType": "uint16",
          "name": "",
          "type": "uint16"
        }
      ],
      "name": "depositETH",
      "outputs": [],
      "stateMutability": "payable",
      "type": "function"
    },
    {
      "inputs": [
        {
          "internalType": "address",
          "name": "account",
          "type": "address"
        },
        {
          "internalType": "uint256",
          "name": "amount",
          "type": "uint256"
        }
      ],
      "name": "testCredit",
      "outputs": [],
      "stateMutability": "nonpayable",
      "type": "function"
    },
    {
      "inputs": [
        {
          "internalType": "address",
          "name": "sender",
          "type": "address"
        },
        {
          "internalType": "address",
          "name": "recipient",
          "type": "address"
        },
        {
          "internalType": "uint256",
          "name": "amount",
          "type": "uint256"
        }
      ],
      "name": "transferFrom",
      "outputs": [
        {
          "internalType": "bool",
          "name": "",
          "type": "bool"
        }
      ],
      "stateMutability": "nonpayable",
      "type": "function"
    },
    {
      "inputs": [
        {
          "internalType": "address",
          "name": "",
          "type": "address"
        },
        {
          "internalType": "uint256",
          "name": "amount",
          "type": "uint256"
        },
        {
          "internalType": "address",
          "name": "to",
          "type": "address"
        }
      ],
      "name": "withdrawETH",
      "outputs": [],
      "stateMutability": "nonpayable",
      "type": "function"
    },
    {
      "stateMutability": "payable",
      "type": "receive"
    }
  ],
  "bytecode": "0x60808060405234601557610388908161001a8239f35b5f80fdfe6080604052600436101561001a575b3615610018575f80fd5b005b5f3560e01c8063048e6125146102a7578063095ea7b31461028257806323b872dd146101fd57806327e235e31461017b578063474cf53d146101b257806370a082311461017b576380500d200361000e5734610177576060366003190112610177576100846102e0565b506024356044356001600160a01b03811690819003610177575f8080938193338352826020526100ba826040852054101561032d565b33835282602052604083206100d083825461036e565b90555af13d15610172573d6001600160401b03811161015e5760405190601f8101601f19908116603f011682016001600160401b0381118382101761015e5760405281525f60203d92013e5b1561012357005b60405162461bcd60e51b8152602060048201526013602482015272115512081d1c985b9cd9995c8819985a5b1959606a1b6044820152606490fd5b634e487b7160e01b5f52604160045260245ffd5b61011c565b5f80fd5b34610177576020366003190112610177576001600160a01b0361019c6102e0565b165f525f602052602060405f2054604051908152f35b6060366003190112610177576101c66102e0565b506101cf6102f6565b60443561ffff8116036101775760018060a01b03165f525f60205260405f206101f934825461030c565b9055005b34610177576060366003190112610177576102166102e0565b61021e6102f6565b6044359160018060a01b0316805f525f6020526102418360405f2054101561032d565b5f525f60205260405f2061025683825461036e565b905560018060a01b03165f525f60205261027560405f2091825461030c565b9055602060405160018152f35b346101775760403660031901126101775761029b6102e0565b50602060405160018152f35b34610177576040366003190112610177576001600160a01b036102c86102e0565b165f525f60205260405f206101f9602435825461030c565b600435906001600160a01b038216820361017757565b602435906001600160a01b038216820361017757565b9190820180921161031957565b634e487b7160e01b5f52601160045260245ffd5b1561033457565b60405162461bcd60e51b8152602060048201526012602482015271092dce6eaccccd2c6d2cadce840c2ae8aa8960731b6044820152606490fd5b919082039182116103195756fea164736f6c634300081b000a",
  "linkReferences": {},
  "deployedLinkReferences": {}
}