{
  "_format": "hh-sol-artifact-1",
  "contractName": "PatientRegistry",
  "sourceName": "contracts/PatientRegistry.sol",
  "abi": [
    {
      "inputs": [],
      "stateMutability": "nonpayable",
      "type": "constructor"
    },
    {
      "inputs": [
        {
          "internalType": "uint8",
          "name": "got",
          "type": "uint8"
        },
        {
          "internalType": "uint8",
          "name": "expected",
          "type": "uint8"
        }
      ],
      "name": "InvalidEncryptedInput",
      "type": "error"
    },
    {
      "anonymous": false,
      "inputs": [
        {
          "indexed": true,
          "internalType": "address",
          "name": "patient",
          "type": "address"
        },
        {
          "indexed": false,
          "internalType": "uint256",
          "name": "timestamp",
          "type": "uint256"
        }
      ],
      "name": "ProfileUpdated",
      "type": "event"
    },
    {
      "inputs": [],
      "name": "authorizedEngine",
      "outputs": [
        {
          "internalType": "address",
          "name": "",
          "type": "address"
        }
      ],
      "stateMutability": "view",
      "type": "function"
    },
    {
      "inputs": [],
      "name": "dataAccessLog",
      "outputs": [
        {
          "internalType": "contract DataAccessLog",
          "name": "",
          "type": "address"
        }
      ],
      "stateMutability": "view",
      "type": "function"
    },
    {
      "inputs": [
        {
          "internalType": "address",
          "name": "_patient",
          "type": "address"
        }
      ],
      "name": "getPatient",
      "outputs": [
        {
          "components": [
            {
              "internalType": "euint8",
              "name": "age",
              "type": "bytes32"
            },
            {
              "internalType": "ebool",
              "name": "gender",
              "type": "bytes32"
            },
            {
              "internalType": "euint16",
              "name": "weight",
              "type": "bytes32"
            },
            {
              "internalType": "euint8",
              "name": "height",
              "type": "bytes32"
            },
            {
              "internalType": "ebool",
              "name": "hasDiabetes",
              "type": "bytes32"
            },
            {
              "internalType": "euint16",
              "name": "hbLevel",
              "type": "bytes32"
            },
            {
              "internalType": "ebool",
              "name": "isSmoker",
              "type": "bytes32"
            },
            {
              "internalType": "ebool",
              "name": "hasHypertension",
              "type": "bytes32"
            },
            {
              "internalType": "bool",
              "name": "exists",
              "type": "bool"
            }
          ],
          "internalType": "struct PatientRegistry.Patient",
          "name": "",
          "type": "tuple"
        }
      ],
      "stateMutability": "nonpayable",
      "type": "function"
    },
    {
      "inputs": [],
      "name": "owner",
      "outputs": [
        {
          "internalType": "address",
          "name": "",
          "type": "address"
        }
      ],
      "stateMutability": "view",
      "type": "function"
    },
    {
      "inputs": [
        {
          "internalType": "address",
          "name": "_engine",
          "type": "address"
        }
      ],
      "name": "setAuthorizedEngine",
      "outputs": [],
      "stateMutability": "nonpayable",
      "type": "function"
    },
    {
      "inputs": [
        {
          "internalType": "address",
          "name": "_log",
          "type": "address"
        }
      ],
      "name": "setDataAccessLog",
      "outputs": [],
      "stateMutability": "nonpayable",
      "type": "function"
    },
    {
      "inputs": [
        {
          "components": [
            {
              "internalType": "uint256",
              "name": "ctHash",
              "type": "uint256"
            },
            {
              "internalType": "uint8",
              "name": "securityZone",
              "type": "uint8"
            },
            {
              "internalType": "uint8",
              "name": "utype",
              "type": "uint8"
            },
            {
              "internalType": "bytes",
              "name": "signature",
              "type": "bytes"
            }
          ],
          "internalType": "struct InEuint8",
          "name": "_age",
          "type": "tuple"
        },
        {
          "components": [
            {
              "internalType": "uint256",
              "name": "ctHash",
              "type": "uint256"
            },
            {
              "internalType": "uint8",
              "name": "securityZone",
              "type": "uint8"
            },
            {
              "internalType": "uint8",
              "name": "utype",
              "type": "uint8"
            },
            {
              "internalType": "bytes",
              "name": "signature",
              "type": "bytes"
            }
          ],
          "internalType": "struct InEbool",
          "name": "_gender",
          "type": "tuple"
        },
        {
          "components": [
            {
              "internalType": "uint256",
              "name": "ctHash",
              "type": "uint256"
            },
            {
              "internalType": "uint8",
              "name": "securityZone",
              "type": "uint8"
            },
            {
              "internalType": "uint8",
              "name": "utype",
              "type": "uint8"
            },
            {
              "internalType": "bytes",
              "name": "signature",
              "type": "bytes"
            }
          ],
          "internalType": "struct InEuint16",
          "name": "_weight",
          "type": "tuple"
        },
        {
          "components": [
            {
              "internalType": "uint256",
              "name": "ctHash",
              "type": "uint256"
            },
            {
              "internalType": "uint8",
              "name": "securityZone",
              "type": "uint8"
            },
            {
              "internalType": "uint8",
              "name": "utype",
              "type": "uint8"
            },
            {
              "internalType": "bytes",
              "name": "signature",
              "type": "bytes"
            }
          ],
          "internalType": "struct InEuint8",
          "name": "_height",
          "type": "tuple"
        },
        {
          "components": [
            {
              "internalType": "uint256",
              "name": "ctHash",
              "type": "uint256"
            },
            {
              "internalType": "uint8",
              "name": "securityZone",
              "type": "uint8"
            },
            {
              "internalType": "uint8",
              "name": "utype",
              "type": "uint8"
            },
            {
              "internalType": "bytes",
              "name": "signature",
              "type": "bytes"
            }
          ],
          "internalType": "struct InEbool",
          "name": "_hasDiabetes",
          "type": "tuple"
        },
        {
          "components": [
            {
              "internalType": "uint256",
              "name": "ctHash",
              "type": "uint256"
            },
            {
              "internalType": "uint8",
              "name": "securityZone",
              "type": "uint8"
            },
            {
              "internalType": "uint8",
              "name": "utype",
              "type": "uint8"
            },
            {
              "internalType": "bytes",
              "name": "signature",
              "type": "bytes"
            }
          ],
          "internalType": "struct InEuint16",
          "name": "_hbLevel",
          "type": "tuple"
        },
        {
          "components": [
            {
              "internalType": "uint256",
              "name": "ctHash",
              "type": "uint256"
            },
            {
              "internalType": "uint8",
              "name": "securityZone",
              "type": "uint8"
            },
            {
              "internalType": "uint8",
              "name": "utype",
              "type": "uint8"
            },
            {
              "internalType": "bytes",
              "name": "signature",
              "type": "bytes"
            }
          ],
          "internalType": "struct InEbool",
          "name": "_isSmoker",
          "type": "tuple"
        },
        {
          "components": [
            {
              "internalType": "uint256",
              "name": "ctHash",
              "type": "uint256"
            },
            {
              "internalType": "uint8",
              "name": "securityZone",
              "type": "uint8"
            },
            {
              "internalType": "uint8",
              "name": "utype",
              "type": "uint8"
            },
            {
              "internalType": "bytes",
              "name": "signature",
              "type": "bytes"
            }
          ],
          "internalType": "struct InEbool",
          "name": "_hasHypertension",
          "type": "tuple"
        }
      ],
      "name": "submitEncryptedProfile",
      "outputs": [],
      "stateMutability": "nonpayable",
      "type": "function"
    }
  ],
  "bytecode": "0x6080806040523460375760038054336001600160a01b03199182168117909255600180549091169091179055610cc4908161003c8239f35b5f80fdfe6080806040526004361015610012575f80fd5b5f905f3560e01c908163079823091461083f575080634b5f8736146107ee5780638353ec781461036a5780638da5cb5b14610341578063b5368e20146100eb578063ea813beb146100c25763f520f24f1461006b575f80fd5b346100bf5760203660031901126100bf576004356001600160a01b038116908190036100bd576100a660018060a01b03600354163314610862565b600280546001600160a01b03191691909117905580f35b505b80fd5b50346100bf57806003193601126100bf576001546040516001600160a01b039091168152602090f35b50346100bf5760203660031901126100bf576004356001600160a01b038116908190036100bd57816101006040516101228161089b565b8281528260208201528260408201528260608201528260808201528260a08201528260c08201528260e08201520152803314801561032d575b156102f85781604091610120935280602052206040519061017b8261089b565b8054908183526001810154602084019081526002820154604085019081526003830154606086019081526004840154906080870191825260058501549260a0880193845260068601549460c0890195865260ff600860078901549860e08c01998a52015416976101008a01981515808a5260018060a01b03600154169081331490816102f0575b50610246575b5050604051985189525160208901525160408801525160608701525160808601525160a08501525160c08401525160e0830152511515610100820152f35b61024f91610b8b565b610265815160018060a01b036001541690610b8b565b61027b825160018060a01b036001541690610b8b565b610291835160018060a01b036001541690610b8b565b6102a7845160018060a01b036001541690610b8b565b6102bd855160018060a01b036001541690610b8b565b6102d3865160018060a01b036001541690610b8b565b6102e9875160018060a01b036001541690610b8b565b5f80610208565b90505f610202565b60405162461bcd60e51b815260206004820152600d60248201526c1058d8d95cdcc819195b9a5959609a1b6044820152606490fd5b506001546001600160a01b0316331461015b565b50346100bf57806003193601126100bf576003546040516001600160a01b039091168152602090f35b503461074057610100366003190112610740576004356001600160401b038111610740576080600319823603011261074057602435906001600160401b038211610740576080600319833603011261074057604435916001600160401b038311610740576080600319843603011261074057606435916001600160401b038311610740576080600319843603011261074057608435906001600160401b03821161074057608060031983360301126107405760a4356001600160401b03811161074057608060031982360301126107405760c435906001600160401b03821161074057608060031983360301126107405760e435926001600160401b038411610740576080600319853603011261074057610489903690600401610917565b610492906109c4565b946104a1903690600401610917565b6104aa90610a32565b966104b9903690600401610917565b6104c290610a98565b956104d1903690600401610917565b6104da906109c4565b936104e9903690600401610917565b6104f290610a32565b90610501903690600401610917565b61050a90610a98565b91610519903690600401610917565b61052290610a32565b92610531903690600401610917565b61053a90610a32565b9361054486610b1c565b61054d88610b1c565b61055687610b1c565b61055f81610b1c565b61056882610b1c565b61057183610b1c565b61057a84610b1c565b61058385610b1c565b61058d3387610b8b565b6105973389610b8b565b6105a13388610b8b565b6105ab3382610b8b565b6105b53383610b8b565b6105bf3384610b8b565b6105c93385610b8b565b6105d33386610b8b565b600154600897906001600160a01b031680610744575b50604051966105f78861089b565b87526020870198895260408701908152606087019182526080870192835260a0870193845260c0870194855260e0870195865261010087019860018a52335f525f60205260405f2097518855516001880155516002870155516003860155516004850155516005840155516006830155516007820155019051151560ff8019835416911617905560018060a01b0360025416806106bf575b506040514281527f03754aecf8745159503d95ad9d4b5e5ec503371279ddc036d4ac93cd953f9de260203392a280f35b60405160208101903360601b8252426034820152603481526106e26054826108e6565b519020813b15610740575f916064839260405194859384926306cc173360e41b845282600485015282602485015260448401525af18015610735571561068f5761072e91505f906108e6565b5f5f61068f565b6040513d5f823e3d90fd5b5f80fd5b61074e9088610b8b565b600154610764906001600160a01b03168a610b8b565b60015461077a906001600160a01b031682610b8b565b600154610790906001600160a01b031683610b8b565b6001546107a6906001600160a01b031684610b8b565b6001546107bc906001600160a01b031685610b8b565b6001546107d2906001600160a01b031686610b8b565b6001546107e8906001600160a01b031687610b8b565b5f6105e9565b34610740576020366003190112610740576004356001600160a01b038116908190036107405761082960018060a01b03600354163314610862565b600180546001600160a01b031916919091179055005b34610740575f366003190112610740576002546001600160a01b03168152602090f35b1561086957565b60405162461bcd60e51b815260206004820152600a60248201526927b7363c9037bbb732b960b11b6044820152606490fd5b61012081019081106001600160401b038211176108b757604052565b634e487b7160e01b5f52604160045260245ffd5b608081019081106001600160401b038211176108b757604052565b601f909101601f19168101906001600160401b038211908210176108b757604052565b359060ff8216820361074057565b91906080838203126107405760405161092f816108cb565b80938035825261094160208201610909565b602083015261095260408201610909565b60408301526060810135906001600160401b03821161074057019082601f830112156107405781356001600160401b0381116108b757604051936109a0601f8301601f1916602001866108e6565b81855260208285010111610740576020815f92826060960183880137850101520152565b60ff60408201511660028103610a1b5750610a18906109e1610bc8565b50805190606060ff6020830151169101519060405192610a00846108cb565b83526020830152600260408301526060820152610bec565b90565b6367cf307160e01b5f52600452600260245260445ffd5b60ff60408201511680610a825750610a1890610a4c610bc8565b50805190606060ff6020830151169101519060405192610a6b846108cb565b835260208301525f60408301526060820152610bec565b6367cf307160e01b5f526004525f60245260445ffd5b60ff60408201511660038103610aec5750610a1890610ab5610bc8565b50805190606060ff6020830151169101519060405192610ad4846108cb565b83526020830152600360408301526060820152610bec565b6367cf307160e01b5f52600452600360245260445ffd5b9081526001600160a01b03909116602082015260400190565b73ea30c4b8b44078bbf8a6ef5b9f1ec1626c7848d93b15610740575f610b589160405180938192631974142760e21b8352309060048401610b03565b03818373ea30c4b8b44078bbf8a6ef5b9f1ec1626c7848d95af1801561073557610b7f5750565b5f610b89916108e6565b565b73ea30c4b8b44078bbf8a6ef5b9f1ec1626c7848d93b1561074057604051631974142760e21b8152915f9183918291610b58919060048401610b03565b60405190610bd5826108cb565b606080835f81525f60208201525f60408201520152565b6020606060e4829360405194859384926313fce3b160e11b8452604060048501528051604485015260ff8382015116606485015260ff60408201511660848501520151608060a484015280519182918260c4860152018484015e5f838284010152336024830152601f801991011681010301815f73ea30c4b8b44078bbf8a6ef5b9f1ec1626c7848d95af1908115610735575f91610c88575090565b90506020813d602011610caf575b81610ca3602093836108e6565b81010312610740575190565b3d9150610c9656fea164736f6c634300081b000a",
  "linkReferences": {},
  "deployedLinkReferences": {}
}