{
  "_format": "hh-sol-artifact-1",
  "contractName": "PatientDocumentStore",
  "sourceName": "contracts/PatientDocumentStore.sol",
  "abi": [
    {
      "inputs": [
        {
          "internalType": "address",
          "name": "_trialManager",
          "type": "address"
        }
      ],
      "stateMutability": "nonpayable",
      "type": "constructor"
    },
    {
      "inputs": [
        {
          "internalType": "bytes32",
          "name": "handle",
          "type": "bytes32"
        },
        {
          "internalType": "address",
          "name": "sender",
          "type": "address"
        }
      ],
      "name": "SenderNotAllowedToUseHandle",
      "type": "error"
    },
    {
      "inputs": [],
      "name": "ZamaProtocolUnsupported",
      "type": "error"
    },
    {
      "anonymous": false,
      "inputs": [
        {
          "indexed": true,
          "internalType": "uint256",
          "name": "nullifier",
          "type": "uint256"
        },
        {
          "indexed": true,
          "internalType": "uint256",
          "name": "trialId",
          "type": "uint256"
        },
        {
          "indexed": false,
          "internalType": "address",
          "name": "patient",
          "type": "address"
        }
      ],
      "name": "AccessRevoked",
      "type": "event"
    },
    {
      "anonymous": false,
      "inputs": [
        {
          "indexed": true,
          "internalType": "uint8",
          "name": "kind",
          "type": "uint8"
        },
        {
          "indexed": false,
          "internalType": "uint40",
          "name": "newEpoch",
          "type": "uint40"
        },
        {
          "indexed": true,
          "internalType": "address",
          "name": "newConsumer",
          "type": "address"
        }
      ],
      "name": "AclEpochRotated",
      "type": "event"
    },
    {
      "anonymous": false,
      "inputs": [
        {
          "indexed": true,
          "internalType": "bytes32",
          "name": "handle",
          "type": "bytes32"
        },
        {
          "indexed": true,
          "internalType": "address",
          "name": "consumer",
          "type": "address"
        },
        {
          "indexed": false,
          "internalType": "uint40",
          "name": "epoch",
          "type": "uint40"
        },
        {
          "indexed": false,
          "internalType": "uint8",
          "name": "kind",
          "type": "uint8"
        }
      ],
      "name": "AclGranted",
      "type": "event"
    },
    {
      "anonymous": false,
      "inputs": [
        {
          "indexed": true,
          "internalType": "uint256",
          "name": "nullifier",
          "type": "uint256"
        },
        {
          "indexed": true,
          "internalType": "uint256",
          "name": "trialId",
          "type": "uint256"
        }
      ],
      "name": "DocumentKeyRotated",
      "type": "event"
    },
    {
      "anonymous": false,
      "inputs": [
        {
          "indexed": true,
          "internalType": "uint256",
          "name": "nullifier",
          "type": "uint256"
        },
        {
          "indexed": true,
          "internalType": "uint256",
          "name": "trialId",
          "type": "uint256"
        },
        {
          "indexed": true,
          "internalType": "bytes32",
          "name": "oldCidHash",
          "type": "bytes32"
        },
        {
          "indexed": false,
          "internalType": "bytes32",
          "name": "oldKeyHandleHash0",
          "type": "bytes32"
        },
        {
          "indexed": false,
          "internalType": "bytes32",
          "name": "oldKeyHandleHash1",
          "type": "bytes32"
        },
        {
          "indexed": false,
          "internalType": "bytes32",
          "name": "oldKeyHandleHash2",
          "type": "bytes32"
        },
        {
          "indexed": false,
          "internalType": "bytes32",
          "name": "oldKeyHandleHash3",
          "type": "bytes32"
        },
        {
          "indexed": false,
          "internalType": "string",
          "name": "oldCid",
          "type": "string"
        }
      ],
      "name": "DocumentLegacyHandleRevoked",
      "type": "event"
    },
    {
      "anonymous": false,
      "inputs": [
        {
          "indexed": true,
          "internalType": "uint256",
          "name": "nullifier",
          "type": "uint256"
        },
        {
          "indexed": true,
          "internalType": "uint256",
          "name": "trialId",
          "type": "uint256"
        },
        {
          "indexed": true,
          "internalType": "bytes32",
          "name": "cidHash",
          "type": "bytes32"
        },
        {
          "indexed": false,
          "internalType": "bytes32",
          "name": "patientBlinded",
          "type": "bytes32"
        }
      ],
      "name": "DocumentRecorded",
      "type": "event"
    },
    {
      "anonymous": false,
      "inputs": [
        {
          "indexed": true,
          "internalType": "uint256",
          "name": "nullifier",
          "type": "uint256"
        },
        {
          "indexed": true,
          "internalType": "uint256",
          "name": "trialId",
          "type": "uint256"
        },
        {
          "indexed": true,
          "internalType": "bytes32",
          "name": "newCidHash",
          "type": "bytes32"
        },
        {
          "indexed": false,
          "internalType": "bytes32",
          "name": "oldCidHash",
          "type": "bytes32"
        }
      ],
      "name": "DocumentRotated",
      "type": "event"
    },
    {
      "anonymous": false,
      "inputs": [
        {
          "indexed": true,
          "internalType": "address",
          "name": "indexer",
          "type": "address"
        },
        {
          "indexed": false,
          "internalType": "uint256",
          "name": "timestamp",
          "type": "uint256"
        }
      ],
      "name": "IndexerHeartbeat",
      "type": "event"
    },
    {
      "anonymous": false,
      "inputs": [
        {
          "indexed": true,
          "internalType": "uint256",
          "name": "nullifier",
          "type": "uint256"
        },
        {
          "indexed": true,
          "internalType": "uint256",
          "name": "trialId",
          "type": "uint256"
        },
        {
          "indexed": true,
          "internalType": "bytes32",
          "name": "oldCidHash",
          "type": "bytes32"
        },
        {
          "indexed": false,
          "internalType": "address",
          "name": "indexer",
          "type": "address"
        },
        {
          "indexed": false,
          "internalType": "string",
          "name": "oldCid",
          "type": "string"
        }
      ],
      "name": "LegacyCidUnpinAttested",
      "type": "event"
    },
    {
      "anonymous": false,
      "inputs": [
        {
          "indexed": true,
          "internalType": "address",
          "name": "newOwner",
          "type": "address"
        }
      ],
      "name": "OwnershipAccepted",
      "type": "event"
    },
    {
      "anonymous": false,
      "inputs": [
        {
          "indexed": true,
          "internalType": "address",
          "name": "proposedOwner",
          "type": "address"
        }
      ],
      "name": "OwnershipProposed",
      "type": "event"
    },
    {
      "anonymous": false,
      "inputs": [
        {
          "indexed": true,
          "internalType": "uint256",
          "name": "nullifier",
          "type": "uint256"
        },
        {
          "indexed": true,
          "internalType": "uint256",
          "name": "trialId",
          "type": "uint256"
        }
      ],
      "name": "SponsorAuthorizeSkipped",
      "type": "event"
    },
    {
      "anonymous": false,
      "inputs": [
        {
          "indexed": true,
          "internalType": "uint256",
          "name": "nullifier",
          "type": "uint256"
        },
        {
          "indexed": true,
          "internalType": "uint256",
          "name": "trialId",
          "type": "uint256"
        },
        {
          "indexed": false,
          "internalType": "address",
          "name": "sponsor",
          "type": "address"
        }
      ],
      "name": "SponsorAuthorized",
      "type": "event"
    },
    {
      "anonymous": false,
      "inputs": [
        {
          "indexed": true,
          "internalType": "uint256",
          "name": "nullifier",
          "type": "uint256"
        },
        {
          "indexed": true,
          "internalType": "uint256",
          "name": "trialId",
          "type": "uint256"
        },
        {
          "indexed": false,
          "internalType": "address",
          "name": "sponsor",
          "type": "address"
        }
      ],
      "name": "SponsorKeyPulled",
      "type": "event"
    },
    {
      "anonymous": false,
      "inputs": [
        {
          "indexed": true,
          "internalType": "address",
          "name": "indexer",
          "type": "address"
        },
        {
          "indexed": false,
          "internalType": "bool",
          "name": "trusted",
          "type": "bool"
        }
      ],
      "name": "UnpinIndexerSet",
      "type": "event"
    },
    {
      "inputs": [],
      "name": "DOC_SCHEMA_HASH",
      "outputs": [
        {
          "internalType": "bytes32",
          "name": "",
          "type": "bytes32"
        }
      ],
      "stateMutability": "view",
      "type": "function"
    },
    {
      "inputs": [],
      "name": "INDEXER_HEARTBEAT_MAX_AGE",
      "outputs": [
        {
          "internalType": "uint256",
          "name": "",
          "type": "uint256"
        }
      ],
      "stateMutability": "view",
      "type": "function"
    },
    {
      "inputs": [],
      "name": "acceptOwnership",
      "outputs": [],
      "stateMutability": "nonpayable",
      "type": "function"
    },
    {
      "inputs": [
        {
          "internalType": "uint8",
          "name": "kind",
          "type": "uint8"
        }
      ],
      "name": "aclEpochForKind",
      "outputs": [
        {
          "internalType": "uint40",
          "name": "",
          "type": "uint40"
        }
      ],
      "stateMutability": "view",
      "type": "function"
    },
    {
      "inputs": [
        {
          "internalType": "uint256",
          "name": "_nullifier",
          "type": "uint256"
        },
        {
          "internalType": "uint256",
          "name": "_trialId",
          "type": "uint256"
        },
        {
          "internalType": "bytes32",
          "name": "_oldCidHash",
          "type": "bytes32"
        },
        {
          "internalType": "string",
          "name": "_oldCid",
          "type": "string"
        }
      ],
      "name": "attestLegacyCidUnpinned",
      "outputs": [],
      "stateMutability": "nonpayable",
      "type": "function"
    },
    {
      "inputs": [
        {
          "internalType": "uint256",
          "name": "_trialId",
          "type": "uint256"
        },
        {
          "internalType": "uint256",
          "name": "_nullifier",
          "type": "uint256"
        }
      ],
      "name": "authorizeSponsorOnAccept",
      "outputs": [],
      "stateMutability": "nonpayable",
      "type": "function"
    },
    {
      "inputs": [],
      "name": "confidentialProtocolId",
      "outputs": [
        {
          "internalType": "uint256",
          "name": "",
          "type": "uint256"
        }
      ],
      "stateMutability": "view",
      "type": "function"
    },
    {
      "inputs": [],
      "name": "dataAccessLog",
      "outputs": [
        {
          "internalType": "contract DataAccessLog",
          "name": "",
          "type": "address"
        }
      ],
      "stateMutability": "view",
      "type": "function"
    },
    {
      "inputs": [
        {
          "internalType": "uint256",
          "name": "_nullifier",
          "type": "uint256"
        },
        {
          "internalType": "uint256",
          "name": "_trialId",
          "type": "uint256"
        }
      ],
      "name": "documentExists",
      "outputs": [
        {
          "internalType": "bool",
          "name": "",
          "type": "bool"
        }
      ],
      "stateMutability": "view",
      "type": "function"
    },
    {
      "inputs": [],
      "name": "eligibilityEngine",
      "outputs": [
        {
          "internalType": "address",
          "name": "",
          "type": "address"
        }
      ],
      "stateMutability": "view",
      "type": "function"
    },
    {
      "inputs": [
        {
          "internalType": "uint256",
          "name": "_nullifier",
          "type": "uint256"
        },
        {
          "internalType": "uint256",
          "name": "_trialId",
          "type": "uint256"
        }
      ],
      "name": "getDocumentBindingForEngine",
      "outputs": [
        {
          "internalType": "bytes32",
          "name": "cidHash",
          "type": "bytes32"
        },
        {
          "internalType": "bytes32",
          "name": "aesKeyCtHash",
          "type": "bytes32"
        },
        {
          "internalType": "bytes32",
          "name": "keyHandleHash0",
          "type": "bytes32"
        },
        {
          "internalType": "bytes32",
          "name": "keyHandleHash1",
          "type": "bytes32"
        },
        {
          "internalType": "bytes32",
          "name": "keyHandleHash2",
          "type": "bytes32"
        },
        {
          "internalType": "bytes32",
          "name": "keyHandleHash3",
          "type": "bytes32"
        },
        {
          "internalType": "bool",
          "name": "exists",
          "type": "bool"
        },
        {
          "internalType": "bool",
          "name": "revoked",
          "type": "bool"
        }
      ],
      "stateMutability": "view",
      "type": "function"
    },
    {
      "inputs": [
        {
          "internalType": "uint256",
          "name": "_nullifier",
          "type": "uint256"
        },
        {
          "internalType": "uint256",
          "name": "_trialId",
          "type": "uint256"
        }
      ],
      "name": "getDocumentCid",
      "outputs": [
        {
          "internalType": "string",
          "name": "",
          "type": "string"
        }
      ],
      "stateMutability": "view",
      "type": "function"
    },
    {
      "inputs": [
        {
          "internalType": "uint256",
          "name": "_nullifier",
          "type": "uint256"
        },
        {
          "internalType": "uint256",
          "name": "_trialId",
          "type": "uint256"
        }
      ],
      "name": "getDocumentRecord",
      "outputs": [
        {
          "internalType": "string",
          "name": "cid",
          "type": "string"
        },
        {
          "internalType": "bytes32",
          "name": "aesKeyCtHash",
          "type": "bytes32"
        },
        {
          "internalType": "euint64",
          "name": "keyChunk0",
          "type": "bytes32"
        },
        {
          "internalType": "euint64",
          "name": "keyChunk1",
          "type": "bytes32"
        },
        {
          "internalType": "euint64",
          "name": "keyChunk2",
          "type": "bytes32"
        },
        {
          "internalType": "euint64",
          "name": "keyChunk3",
          "type": "bytes32"
        },
        {
          "internalType": "address",
          "name": "patient",
          "type": "address"
        },
        {
          "internalType": "address",
          "name": "authorizedSponsor",
          "type": "address"
        },
        {
          "internalType": "bool",
          "name": "exists",
          "type": "bool"
        },
        {
          "internalType": "bool",
          "name": "revoked",
          "type": "bool"
        }
      ],
      "stateMutability": "view",
      "type": "function"
    },
    {
      "inputs": [
        {
          "internalType": "uint256",
          "name": "_nullifier",
          "type": "uint256"
        },
        {
          "internalType": "uint256",
          "name": "_trialId",
          "type": "uint256"
        }
      ],
      "name": "getKeyForSponsor",
      "outputs": [
        {
          "internalType": "euint64",
          "name": "keyChunk0",
          "type": "bytes32"
        },
        {
          "internalType": "euint64",
          "name": "keyChunk1",
          "type": "bytes32"
        },
        {
          "internalType": "euint64",
          "name": "keyChunk2",
          "type": "bytes32"
        },
        {
          "internalType": "euint64",
          "name": "keyChunk3",
          "type": "bytes32"
        }
      ],
      "stateMutability": "view",
      "type": "function"
    },
    {
      "inputs": [
        {
          "internalType": "address",
          "name": "",
          "type": "address"
        }
      ],
      "name": "indexerLastHeartbeat",
      "outputs": [
        {
          "internalType": "uint256",
          "name": "",
          "type": "uint256"
        }
      ],
      "stateMutability": "view",
      "type": "function"
    },
    {
      "inputs": [
        {
          "internalType": "address",
          "name": "_indexer",
          "type": "address"
        }
      ],
      "name": "isUnpinIndexerActive",
      "outputs": [
        {
          "internalType": "bool",
          "name": "",
          "type": "bool"
        }
      ],
      "stateMutability": "view",
      "type": "function"
    },
    {
      "inputs": [],
      "name": "owner",
      "outputs": [
        {
          "internalType": "address",
          "name": "",
          "type": "address"
        }
      ],
      "stateMutability": "view",
      "type": "function"
    },
    {
      "inputs": [],
      "name": "pendingOwner",
      "outputs": [
        {
          "internalType": "address",
          "name": "",
          "type": "address"
        }
      ],
      "stateMutability": "view",
      "type": "function"
    },
    {
      "inputs": [],
      "name": "postIndexerHeartbeat",
      "outputs": [],
      "stateMutability": "nonpayable",
      "type": "function"
    },
    {
      "inputs": [
        {
          "internalType": "address",
          "name": "_newOwner",
          "type": "address"
        }
      ],
      "name": "proposeOwnership",
      "outputs": [],
      "stateMutability": "nonpayable",
      "type": "function"
    },
    {
      "inputs": [
        {
          "internalType": "uint256",
          "name": "_nullifier",
          "type": "uint256"
        },
        {
          "internalType": "uint256",
          "name": "_trialId",
          "type": "uint256"
        }
      ],
      "name": "pullSponsorKeyAccess",
      "outputs": [],
      "stateMutability": "nonpayable",
      "type": "function"
    },
    {
      "inputs": [
        {
          "internalType": "uint256",
          "name": "_nullifier",
          "type": "uint256"
        },
        {
          "internalType": "uint256",
          "name": "_trialId",
          "type": "uint256"
        },
        {
          "internalType": "string",
          "name": "_cid",
          "type": "string"
        },
        {
          "internalType": "bytes32",
          "name": "_aesKeyCtHash",
          "type": "bytes32"
        },
        {
          "internalType": "externalEuint64",
          "name": "_keyChunk0",
          "type": "bytes32"
        },
        {
          "internalType": "externalEuint64",
          "name": "_keyChunk1",
          "type": "bytes32"
        },
        {
          "internalType": "externalEuint64",
          "name": "_keyChunk2",
          "type": "bytes32"
        },
        {
          "internalType": "externalEuint64",
          "name": "_keyChunk3",
          "type": "bytes32"
        },
        {
          "internalType": "bytes",
          "name": "inputProof",
          "type": "bytes"
        }
      ],
      "name": "recordDocumentCid",
      "outputs": [],
      "stateMutability": "nonpayable",
      "type": "function"
    },
    {
      "inputs": [
        {
          "internalType": "uint256",
          "name": "_nullifier",
          "type": "uint256"
        },
        {
          "internalType": "uint256",
          "name": "_trialId",
          "type": "uint256"
        },
        {
          "internalType": "string",
          "name": "_newCid",
          "type": "string"
        },
        {
          "internalType": "bytes32",
          "name": "_newAesKeyCtHash",
          "type": "bytes32"
        },
        {
          "internalType": "externalEuint64",
          "name": "_c0",
          "type": "bytes32"
        },
        {
          "internalType": "externalEuint64",
          "name": "_c1",
          "type": "bytes32"
        },
        {
          "internalType": "externalEuint64",
          "name": "_c2",
          "type": "bytes32"
        },
        {
          "internalType": "externalEuint64",
          "name": "_c3",
          "type": "bytes32"
        },
        {
          "internalType": "bytes",
          "name": "inputProof",
          "type": "bytes"
        }
      ],
      "name": "revokeAccess",
      "outputs": [],
      "stateMutability": "nonpayable",
      "type": "function"
    },
    {
      "inputs": [
        {
          "internalType": "uint256",
          "name": "_nullifier",
          "type": "uint256"
        },
        {
          "internalType": "uint256",
          "name": "_trialId",
          "type": "uint256"
        },
        {
          "internalType": "string",
          "name": "_newCid",
          "type": "string"
        },
        {
          "internalType": "bytes32",
          "name": "_newAesKeyCtHash",
          "type": "bytes32"
        },
        {
          "internalType": "externalEuint64",
          "name": "_c0",
          "type": "bytes32"
        },
        {
          "internalType": "externalEuint64",
          "name": "_c1",
          "type": "bytes32"
        },
        {
          "internalType": "externalEuint64",
          "name": "_c2",
          "type": "bytes32"
        },
        {
          "internalType": "externalEuint64",
          "name": "_c3",
          "type": "bytes32"
        },
        {
          "internalType": "bytes",
          "name": "inputProof",
          "type": "bytes"
        }
      ],
      "name": "rotateDocument",
      "outputs": [],
      "stateMutability": "nonpayable",
      "type": "function"
    },
    {
      "inputs": [
        {
          "internalType": "uint8",
          "name": "kind",
          "type": "uint8"
        },
        {
          "internalType": "address",
          "name": "newConsumer",
          "type": "address"
        }
      ],
      "name": "rotateTrustedContract",
      "outputs": [],
      "stateMutability": "nonpayable",
      "type": "function"
    },
    {
      "inputs": [
        {
          "internalType": "address",
          "name": "_log",
          "type": "address"
        }
      ],
      "name": "setDataAccessLog",
      "outputs": [],
      "stateMutability": "nonpayable",
      "type": "function"
    },
    {
      "inputs": [
        {
          "internalType": "address",
          "name": "_engine",
          "type": "address"
        }
      ],
      "name": "setEligibilityEngine",
      "outputs": [],
      "stateMutability": "nonpayable",
      "type": "function"
    },
    {
      "inputs": [
        {
          "internalType": "address",
          "name": "_indexer",
          "type": "address"
        },
        {
          "internalType": "bool",
          "name": "_trusted",
          "type": "bool"
        }
      ],
      "name": "setUnpinIndexer",
      "outputs": [],
      "stateMutability": "nonpayable",
      "type": "function"
    },
    {
      "inputs": [],
      "name": "trialManager",
      "outputs": [
        {
          "internalType": "contract TrialManager",
          "name": "",
          "type": "address"
        }
      ],
      "stateMutability": "view",
      "type": "function"
    },
    {
      "inputs": [
        {
          "internalType": "address",
          "name": "",
          "type": "address"
        }
      ],
      "name": "trustedUnpinIndexer",
      "outputs": [
        {
          "internalType": "bool",
          "name": "",
          "type": "bool"
        }
      ],
      "stateMutability": "view",
      "type": "function"
    },
    {
      "inputs": [
        {
          "internalType": "uint256",
          "name": "",
          "type": "uint256"
        },
        {
          "internalType": "uint256",
          "name": "",
          "type": "uint256"
        },
        {
          "internalType": "bytes32",
          "name": "",
          "type": "bytes32"
        }
      ],
      "name": "unpinAttestations",
      "outputs": [
        {
          "internalType": "address",
          "name": "indexer",
          "type": "address"
        },
        {
          "internalType": "uint256",
          "name": "attestedAt",
          "type": "uint256"
        },
        {
          "internalType": "bool",
          "name": "completed",
          "type": "bool"
        }
      ],
      "stateMutability": "view",
      "type": "function"
    },
    {
      "inputs": [
        {
          "internalType": "uint256",
          "name": "_nullifier",
          "type": "uint256"
        },
        {
          "internalType": "uint256",
          "name": "_trialId",
          "type": "uint256"
        },
        {
          "internalType": "externalEuint64",
          "name": "_c0",
          "type": "bytes32"
        },
        {
          "internalType": "externalEuint64",
          "name": "_c1",
          "type": "bytes32"
        },
        {
          "internalType": "externalEuint64",
          "name": "_c2",
          "type": "bytes32"
        },
        {
          "internalType": "externalEuint64",
          "name": "_c3",
          "type": "bytes32"
        },
        {
          "internalType": "bytes",
          "name": "inputProof",
          "type": "bytes"
        }
      ],
      "name": "updateDocumentKey",
      "outputs": [],
      "stateMutability": "nonpayable",
      "type": "function"
    }
  ],
  "bytecode": "0x6080604052346102b757604051601f6130b238819003918201601f19168301916001600160401b038311848410176102bb578084926020946040528339810103126102b757516001600160a01b038116908190036102b75761005f6102ee565b50466001036101d3576100706102ee565b506100796102cf565b73ca2e8f1f656cd25c01f05d0b243ab1ecd4a8ffb6815273d82385dada1ae3e969447f20a3164f6213100e7560208201527377627828a55156b04ac0dc0eb30467f1a552bb0360408201525b80517f9e7b61f58c47dc699ac88507c4f5bb9f121c03808c5676a8078fe583e464970080546001600160a01b03199081166001600160a01b039384161790915560208301517f9e7b61f58c47dc699ac88507c4f5bb9f121c03808c5676a8078fe583e4649701805483169184169190911790556040909201517f9e7b61f58c47dc699ac88507c4f5bb9f121c03808c5676a8078fe583e464970280549093169116179055801561019f57600380546001600160a01b031990811633179091555f8054909116919091179055604051612da990816103098239f35b60405162461bcd60e51b815260206004820152600c60248201526b5a65726f206164647265737360a01b6044820152606490fd5b4662aa36a70361023e576101e56102ee565b506101ee6102cf565b73f0ffdc93b7e186bc2f8cb3daa75d86d1930a433d81527392c920834ec8941d2c77d188936e1f7a6f49c127602082015273be0e383937d564d7ff0bc3b46c51f0bf8d5c311a60408201526100c5565b46617a69036102a85761024f6102ee565b506102586102cf565b7350157cffd6bbfa2dece204a89ec419c23ef5755d815273e3a9105a3a932253a70f126eb1e3b589c643dd24602082015273901f8942346f7ab3a01f6d7613119bca447bb03060408201526100c5565b6373cac13b60e01b5f5260045ffd5b5f80fd5b634e487b7160e01b5f52604160045260245ffd5b60405190606082016001600160401b038111838210176102bb57604052565b6102f66102cf565b905f82525f60208301525f604083015256fe60e06040526004361015610011575f80fd5b5f5f3560e01c806301ff57ba146112db57806305e20537146112a057806307982309146112775780630e62960b146112455780631e68fd8e146111575780632b0193e4146111245780632ff2b14d146110d65780633b0c8d911461109e57806348971334146110865780634f11c6901461105d57806355f8cfdd14611036578063710bf32214610fba5780637888fda214610f8a57806379ba509714610ee95780638927b03014610ec65780638da5cb5b14610e9d5780639001d0fb14610e1c5780639e82eafc14610db7578063aef1309d14610d7b578063b027d81414610c87578063b1258ebc14610c68578063b4bfc87514610c3a578063b6bdbf7814610be0578063bb29138714610ba1578063d29ba04e1461059a578063e30c397814610571578063e67bc41314610553578063ea1036c4146104b7578063ef53323114610451578063f520f24f146103ff578063f6e696b8146103c65763fa019d181461017a575f80fd5b346103c35760803660031901126103c3576044356024356004356064356001600160401b0381116103c1576101b39036906004016117e9565b33865260086020526101cb60ff6040882054166128f2565b3386526009602052604086205415610387573386526009602052604086205462093a80810180911161037357421161033457846102093683856119d5565b60208151910120036102fb57828652600a602052604086208487526020526040862085875260205260408620600281019260ff8454166102c35781546001600160a01b03191633908117835542600193840155845460ff1916909217909355604080519182526020820181905281018290527f7a04b9df83718446892f838abc69093459e6cdbd53e6377d208638873fd82cf89290916060918391908190838501378181018301899052601f01601f19168101030190a480f35b60405162461bcd60e51b815260206004820152601060248201526f105b1c9958591e48185d1d195cdd195960821b6044820152606490fd5b60405162461bcd60e51b8152602060048201526011602482015270086928840d0c2e6d040dad2e6dac2e8c6d607b1b6044820152606490fd5b60405162461bcd60e51b8152602060048201526017602482015276496e646578657220686561727462656174207374616c6560481b6044820152606490fd5b634e487b7160e01b87526011600452602487fd5b60405162461bcd60e51b81526020600482015260126024820152711219585c9d1899585d081c995c5d5a5c995960721b6044820152606490fd5b845b80fd5b50346103c35760203660031901126103c3576020906040906001600160a01b036103ee6118ab565b168152600983522054604051908152f35b50346103c35760203660031901126103c3576104196118ab565b61042e60018060a01b03600354163314611ffb565b600280546001600160a01b0319166001600160a01b039290921691909117905580f35b50346103c357806003193601126103c357338152600860205261047a60ff6040832054166128f2565b33815260096020524260408220556040514281527f15219997e64687017b0cd91f68792378a0ec945228d70be97834305816d0a6da60203392a280f35b50346103c35760403660031901126103c3576104d16118ab565b6024359081151580920361054f5760207fd8a988051511fd5d1f8d91f20993858e11ae646e7cfb65e415abc39a5070f6c19161051860018060a01b03600354163314611ffb565b6001600160a01b03169261052d841515612034565b838552600882526040852060ff1981541660ff8316179055604051908152a280f35b8280fd5b50346103c357806003193601126103c357602060405162093a808152f35b50346103c357806003193601126103c3576004546040516001600160a01b039091168152602090f35b50346103c3576105a936611816565b600154969b9a99989796949590949192916001600160a01b03168015610b6b5760208a60448d604051948593849263cd5d36dd60e01b8452600484015260248301525afa908115610b60578c91610b22575b506001600160a01b03168015159081610b18575b5015610adf5761062087151561191f565b61062b8c1515611957565b898b52600560205260408b20898c5260205260ff600760408d20015460a01c16610a9e576106919261068961067d61067161066b9461066b368b876119d5565b9061294d565b9861066b368a866119d5565b9561066b3689856119d5565b9536916119d5565b9261069b81612b09565b506106a582612b09565b506106af83612b09565b506106b984612b09565b506106c43382612b28565b506106cf3383612b28565b506106da3384612b28565b506106e53385612b28565b50604051996101408b016001600160401b0381118c821017610a8a5760405261070f3687896119d5565b8b5260208b015260408a01526060890152608088015260a08701523360c08701528460e08701526001610100870152846101208701528385526005602052604085208386526020526040852095805196875160018060401b038111610a76576107828161077c8454611a0b565b84611ae3565b6020601f8211600114610a0557610881959493926107be83610120946007948d9e8e926109fa575b50508160011b915f199060031b1c19161790565b81555b6020848101516001838101919091556040808701516002850155606087015160038501556080870151600485015560a080880151600586015560c0880151600680870180546001600160a01b0319166001600160a01b0393841617905560e08a01519790960180546101008b015199909a01516001600160b01b0319909a169790911696909617961515901b60ff60a01b169590951795151560a81b60ff60a81b1695909517909255888a528152818920878a52905287205536916119d5565b60208151910120818360405160208101903360601b8252826034820152836054820152605481526108b3607482611997565b5190206002546001600160a01b031680610952575b5060207fa433fb47858883b3b28358817861e9b86383b56133cd7b372b52418630c8e7fa91604051908152a46001546001600160a01b0316918261090b57505050f35b823b1561094d5760448492836040519586948593632a5f95c160e01b8552600485015260248401525af161093c5750f35b8161094691611997565b6103c35780f35b505050fd5b9150915060405160208101908682528460408201528360608201524260808201526080815261098260a082611997565b519020813b156109f65786916064839260405194859384926306cc173360e41b8452600760048501528a602485015260448401525af19182156109eb5786869286946109cf575b506108c8565b6109dd929450819350611997565b6103c157838391865f6109c9565b6040513d88823e3d90fd5b8680fd5b015190505f806107aa565b82895280892099895b601f1984168110610a5e5750926001838b9c6007946108819a99989761012097601f19811610610a46575b505050811b0181556107c1565b01515f1960f88460031b161c191690555f8080610a39565b828201518c556001909b019a60209283019201610a0e565b634e487b7160e01b88526041600452602488fd5b634e487b7160e01b8b52604160045260248bfd5b60405162461bcd60e51b8152602060048201526019602482015278111bd8dd5b595b9d08185b1c9958591e481c9958dbdc991959603a1b6044820152606490fd5b60405162461bcd60e51b81526020600482015260116024820152702737ba103832b936b4ba103437b63232b960791b6044820152606490fd5b905033145f61060f565b90506020813d602011610b58575b81610b3d60209383611997565b81010312610b5457610b4e90611c38565b5f6105fb565b8b80fd5b3d9150610b30565b6040513d8e823e3d90fd5b60405162461bcd60e51b815260206004820152600e60248201526d115b99da5b99481b9bdd081cd95d60921b6044820152606490fd5b50346103c35760203660031901126103c35760209060ff906040906001600160a01b03610bcc6118ab565b168152600884522054166040519015158152f35b50346103c35760203660031901126103c357610bfa6118ab565b610c0f60018060a01b03600354163314611ffb565b6001600160a01b0316610c23811515612034565b600180546001600160a01b03191691909117905580f35b50346103c35760203660031901126103c3576020610c5e610c596118ab565b6128a9565b6040519015158152f35b50346103c357610c7736611816565b5050505050505050505050612871565b50346103c357604061010091610c9c36611885565b90610cb260018060a01b036001541633146124bb565b825260056020528282209082526020522060ff5f516020612d5d5f395f51905f52610cdc83611a43565b6020815191012006916001810154905f516020612d5d5f395f51905f526002820154065f516020612d5d5f395f51905f526003830154065f516020612d5d5f395f51905f526004840154069160075f516020612d5d5f395f51905f5260058601540694015494604051978852602088015260408701526060860152608085015260a0840152818160a01c16151560c084015260a81c16151560e0820152f35b50346103c35760e03660031901126103c35760c4356001600160401b038111610db357610dac9036906004016117e9565b5050612871565b5080fd5b50346103c35760603660031901126103c35760406060916004358152600a602052818120602435825260205281812060443582526020522060018060a01b038154169060ff600260018301549201541690604051928352602083015215156040820152f35b50346103c357610e57610e37610e3136611885565b90612687565b966040969196959295949394519a8b9a6101408c526101408c01906118c1565b60208b019990995260408a01526060890152608088015260a08701526001600160a01b0390811660c08701521660e0850152151561010084015215156101208301520390f35b50346103c357806003193601126103c3576003546040516001600160a01b039091168152602090f35b50346103c357806003193601126103c3576020610ee1612bed565b604051908152f35b50346103c357806003193601126103c3576004546001600160a01b0381169033829003610f5057600380546001600160a01b03199081168417909155166004557fb27970c1714b28277b78cc17ac2fe9556e7f048cd48358cffe3dc7d547608fdc8280a280f35b60405162461bcd60e51b81526020600482015260126024820152712737ba10383937b837b9b2b21037bbb732b960711b6044820152606490fd5b50346103c357610fb7610f9c36611885565b90610fb260018060a01b036001541633146124bb565b612501565b80f35b50346103c35760203660031901126103c357610fd46118ab565b610fe960018060a01b03600354163314611ffb565b6001600160a01b0316610ffd811515612034565b600480546001600160a01b031916821790557f6ab4d119f23076e8ad491bc65ce85f017fb0591dce08755ba8591059cc51737a8280a280f35b50346103c357806003193601126103c357546040516001600160a01b039091168152602090f35b50346103c357806003193601126103c3576001546040516001600160a01b039091168152602090f35b50346103c357610fb761109836611885565b90612202565b50346103c35760ff600760406020936110b636611885565b90825260058652828220908252855220015460a01c166040519015158152f35b50346103c35760203660031901126103c35761110164ffffffffff916110fa61189b565b9050612b4f565b5416801561111c575b60209064ffffffffff60405191168152f35b50600161110a565b50346103c35761115361113f61113936611885565b9061206f565b6040519182916020835260208301906118c1565b0390f35b50346103c35760403660031901126103c35761117161189b565b6024356001600160a01b038116919082900361054f5761119c60018060a01b03600354163314611ffb565b6111a7821515612034565b64ffffffffff6111b682612b4f565b5416801561123d575b64ffffffffff60019116019064ffffffffff821161122957602060ff8264ffffffffff61120c7f6da0feb3b0bd083f868beb07983147e8f9319e42d0b452d6e0bf7fa04e7066da95612b4f565b9516948564ffffffffff198254161790556040519485521692a380f35b634e487b7160e01b84526011600452602484fd5b5060016111bf565b50346103c357608061125f61125936611885565b90611e60565b91604051938452602084015260408301526060820152f35b50346103c357806003193601126103c3576002546040516001600160a01b039091168152602090f35b50346103c357806003193601126103c35760206040517f1ae7635df2a72fd90186c4aeb9e7e770321b4ccd05823c7c71b29687379b68ed8152f35b50346116e2576112ea36611816565b9195979399909296949860c05260a05290939497969592919260a0515f52600560205260405f2060c0515f5260205260405f209161133160ff600785015460a01c166118e5565b60068301546001600160a01b031633036117b55761135084151561191f565b61135b821515611957565b6113663685876119d5565b6020815191012061137684611a43565b602081519101201461177e5761138b83611a43565b6020815191012060805261139e83611a43565b995f516020612d5d5f395f51905f52600285015406995f516020612d5d5f395f51905f52600386015406975f516020612d5d5f395f51905f52600487015406995f516020612d5d5f395f51905f526005880154069b60a0515f52600660205260405f2060c0515f5260205260405f20928354915f19831461176a576001929092019093556007880180546001600160a01b03191690556114719261066b916114699061145d906114519085368c876119d5565b9661066b368b866119d5565b9661066b368a856119d5565b9636916119d5565b9361147b82612b09565b5061148583612b09565b5061148f84612b09565b5061149985612b09565b506114a43383612b28565b506114af3384612b28565b506114ba3385612b28565b506114c53386612b28565b506001600160401b038711611756576114e8876114e28854611a0b565b88611ae3565b5f87601f81116001146116f15780611514925f916116e6575b508160011b915f199060031b1c19161790565b86555b60018601556002850155600384015560048301556005820155600760ff60a81b19818301541691015560018060a01b036002541680611652575b50906115909160405133815260c051907fd2ba3a3435b2cf3d7fc56557f43627b4c46c251aae1e05868586ebcb52a511f1602060a05192a336916119d5565b60208151910120604051608051815260c051907fd30f0fca7dc39501f524683386444b7a622a4a634c6f57779e3b942a974e4563602060a05192a460405193845260208401526040830152606082015260a06080820152608051917f32f689dc1351f02ffe8e2ff8673cf21433697097ee477b403c8e834ba14d0e6160c051928061162260a0519460a08301906118c1565b0390a460c05160a0517f19087377353e37f2ab2ae2ab35e0a45a3a4ab57fa915adfd28ae07c27d7680328380a380f35b604051602081019061167a8161166c423360a05187611b32565b03601f198101835282611997565b519020813b156116e2575f916064839260405194859384926306cc173360e41b84526009600485015260c051602485015260448401525af180156116d7571561155157611590929198505f6116ce91611997565b5f979091611551565b6040513d5f823e3d90fd5b5f80fd5b90508a01355f611501565b50865f5260205f20905f5b8a601f198b16821061173e57505088601f19811610611725575b5050600187811b018655611517565b8901355f1960038a901b60f8161c191690555f80611716565b600183946020939484930135815501930191016116fc565b634e487b7160e01b5f52604160045260245ffd5b634e487b7160e01b5f52601160045260245ffd5b60405162461bcd60e51b815260206004820152600f60248201526e434944206d757374206368616e676560881b6044820152606490fd5b60405162461bcd60e51b815260206004820152600c60248201526b13db9b1e481c185d1a595b9d60a21b6044820152606490fd5b9181601f840112156116e2578235916001600160401b0383116116e257602083818601950101116116e257565b906101206003198301126116e25760043591602435916044356001600160401b0381116116e2578261184a916004016117e9565b90929091606435916084359160a4359160c4359160e4359161010435906001600160401b0382116116e257611881916004016117e9565b9091565b60409060031901126116e2576004359060243590565b6004359060ff821682036116e257565b600435906001600160a01b03821682036116e257565b805180835260209291819084018484015e5f828201840152601f01601f1916010190565b156118ec57565b60405162461bcd60e51b815260206004820152600b60248201526a139bc8191bd8dd5b595b9d60aa1b6044820152606490fd5b1561192657565b60405162461bcd60e51b8152602060048201526009602482015268115b5c1d1e4810d25160ba1b6044820152606490fd5b1561195e57565b60405162461bcd60e51b815260206004820152601160248201527008adae0e8f240828aa640c6e840d0c2e6d607b1b6044820152606490fd5b601f909101601f19168101906001600160401b0382119082101761175657604052565b6001600160401b03811161175657601f01601f191660200190565b9291926119e1826119ba565b916119ef6040519384611997565b8294818452818301116116e2578281602093845f960137010152565b90600182811c92168015611a39575b6020831014611a2557565b634e487b7160e01b5f52602260045260245ffd5b91607f1691611a1a565b9060405191825f825492611a5684611a0b565b8084529360018116908115611ac15750600114611a7d575b50611a7b92500383611997565b565b90505f9291925260205f20905f915b818310611aa5575050906020611a7b928201015f611a6e565b6020919350806001915483858901015201910190918492611a8c565b905060209250611a7b94915060ff191682840152151560051b8201015f611a6e565b601f8211611af057505050565b5f5260205f20906020601f840160051c83019310611b28575b601f0160051c01905b818110611b1d575050565b5f8155600101611b12565b9091508190611b09565b90815260609190911b6001600160601b0319166020820152603481019190915260540190565b6040909392919360608101946008825260208201520152565b15611b7857565b60405162461bcd60e51b8152602060048201526015602482015274141d5b1b081ad95e481858d8d95cdcc8199a5c9cdd605a1b6044820152606490fd5b15611bbc57565b60405162461bcd60e51b815260206004820152600e60248201526d1058d8d95cdcc81c995d9bdad95960921b6044820152606490fd5b81601f820112156116e257805190611c09826119ba565b92611c176040519485611997565b828452602083830101116116e257815f9260208093018386015e8301015290565b51906001600160a01b03821682036116e257565b519081151582036116e257565b519060ff821682036116e257565b519061ffff821682036116e257565b6020818303126116e2578051906001600160401b0382116116e25701610220818303126116e2576040519161022083016001600160401b038111848210176117565760405281516001600160401b0381116116e25781611cd7918401611bf2565b835260208201516001600160401b0381116116e25781611cf8918401611bf2565b602084015260408201516001600160401b0381116116e25781611d1c918401611bf2565b60408401526060820151916001600160401b0383116116e257611d4761020092611e27948301611bf2565b6060850152611d5860808201611c38565b6080850152611d6960a08201611c4c565b60a0850152611d7a60c08201611c59565b60c0850152611d8b60e08201611c59565b60e0850152611d9d6101008201611c4c565b610100850152611db06101208201611c67565b610120850152611dc36101408201611c59565b610140850152611dd66101608201611c59565b610160850152611de96101808201611c67565b610180850152611dfc6101a08201611c4c565b6101a0850152611e0f6101c08201611c4c565b6101c08501526101e08101516101e085015201611c4c565b61020082015290565b6060906020815260156020820152742737ba1030baba3437b934bd32b2103932b0b232b960591b60408201520190565b805f52600560205260405f20825f5260205260405f20600781015490611e8b60ff8360a01c166118e5565b600601546001600160a01b031633148015611fe7575b611fb557815f52600760205260405f20835f5260205260405f205490825f52600660205260405f20845f5260205260405f20549060018060a01b03163314611f4d575f8054604051631a7f3c3360e01b8152600481018790529190829060249082906001600160a01b03165afa9081156116d7575f91611f93575b50608001516001600160a01b03163314611f4d5760405162461bcd60e51b815280611f4960048201611e30565b0390fd5b81611f5c611f62931515611b71565b14611bb5565b5f52600560205260405f20905f5260205260405f206002810154600382015492600560048401549301549193929190565b611faf91503d805f833e611fa78183611997565b810190611c76565b5f611f1c565b505f52600560205260405f20905f5260205260405f206002810154600382015492600560048401549301549193929190565b506001546001600160a01b03163314611ea1565b1561200257565b60405162461bcd60e51b815260206004820152600a60248201526927b7363c9037bbb732b960b11b6044820152606490fd5b1561203b57565b60405162461bcd60e51b815260206004820152600c60248201526b5a65726f206164647265737360a01b6044820152606490fd5b90815f52600560205260405f20815f5260205260405f209160078301549261209c60ff8560a01c166118e5565b600601546001600160a01b031633148015612198575b61218e57805f52600760205260405f20825f5260205260405f2054815f52600660205260405f20835f5260205260405f20549360018060a01b03163314612159575f8054604051631a7f3c3360e01b8152600481018690529190829060249082906001600160a01b03165afa9081156116d7575f91612174575b50608001516001600160a01b031633146121595760405162461bcd60e51b815280611f4960048201611e30565b6121719381611f5c61216c931515611b71565b6121ac565b90565b61218891503d805f833e611fa78183611997565b5f61212c565b61217192506121ac565b506001546001600160a01b031633146120b2565b5f52600560205260405f20905f5260205261217160405f20611a43565b156121d057565b60405162461bcd60e51b815260206004820152600a60248201526927379039b837b739b7b960b11b6044820152606490fd5b805f52600560205260405f20825f5260205260405f20600781015461222c60ff8260a01c166118e5565b61223c60ff8260a81c1615611bb5565b5f8054604051631a7f3c3360e01b8152600481018790529190829060249082906001600160a01b03165afa80156116d7576080915f916124a1575b500151916001600160a01b038316916122918315156121c9565b82330361246d576001600160a01b031682900361242f57835f52600660205260405f20855f5260205260405f2054845f52600760205260405f20865f526020528060405f2054146124275761234d918391865f52600760205260405f20885f5260205260405f205561234682600283019261230d828554612b28565b506123468260038301612321828254612b28565b506123468260056004870196612338838954612b28565b500198612346828b54612b28565b5054612b60565b506002546001600160a01b0316918261237e575b505f516020612d1d5f395f51905f529150602090604051908152a3565b604051602081019185835260018060601b03199060601b166040820152426054820152631c1d5b1b60e21b6074820152605881526123bd607882611997565b51902091803b156116e2576040516306cc173360e41b8152925f9184918290849082906123ee908b60048401611b58565b03925af19081156116d7575f516020612d1d5f395f51905f5292602092612417575b5090612361565b5f61242191611997565b5f612410565b505050505050565b60405162461bcd60e51b815260206004820152601660248201527514dc1bdb9cdbdc881b9bdd08185d5d1a1bdc9a5e995960521b6044820152606490fd5b60405162461bcd60e51b815260206004820152600c60248201526b27b7363c9039b837b739b7b960a11b6044820152606490fd5b6124b591503d805f833e611fa78183611997565b5f612277565b156124c257565b60405162461bcd60e51b81526020600482015260176024820152764f6e6c7920656c69676962696c69747920656e67696e6560481b6044820152606490fd5b90805f52600560205260405f20825f52602052600760405f200180549061252d60ff8360a01c166118e5565b61253d60ff8360a81c1615611bb5565b5f8054604051631a7f3c3360e01b8152600481018790529190829060249082906001600160a01b03165afa9081156116d7575f9161266d575b50608001516001600160a01b03169182906125928215156121c9565b6001600160a01b0316146126675780546001600160a01b0319166001600160a01b038381169190911790915560025416806125e3575b5060205f516020612cfd5f395f51905f5291604051908152a3565b9060405160208101906125fc8161166c42868987611b32565b51902091803b156116e2576040516306cc173360e41b8152925f91849182908490829061262d908b60048401611b58565b03925af19081156116d7575f516020612cfd5f395f51905f5292602092612657575b5091506125c8565b5f61266191611997565b5f61264f565b50505050565b61268191503d805f833e611fa78183611997565b5f612576565b805f52600560205260405f20825f5260205260405f206007810154906126b260ff8360a01c166118e5565b600601546001600160a01b03163314801561285d575b61280c57815f52600760205260405f20835f5260205260405f205490825f52600660205260405f20845f5260205260405f20549060018060a01b03163314612770575f8054604051631a7f3c3360e01b8152600481018790529190829060249082906001600160a01b03165afa9081156116d7575f916127f2575b50608001516001600160a01b031633146127705760405162461bcd60e51b815280611f4960048201611e30565b81611f5c61277f931515611b71565b5f52600560205260405f20905f5260205260405f209060018201549160028101549160038201549160048101549160058201549160018060a01b03600682015416916127cf600783015492611a43565b979695949392916001600160a01b0381169160ff60a083901c81169260a81c1690565b61280691503d805f833e611fa78183611997565b5f612743565b505f52600560205260405f20905f5260205260405f209060018201549160028101549160038201549160048101549160058201549160018060a01b03600682015416916127cf600783015492611a43565b506001546001600160a01b031633146126c8565b60405162461bcd60e51b815260206004820152601060248201526f557365207265766f6b6541636365737360801b6044820152606490fd5b6001600160a01b03165f8181526008602052604090205460ff16156128ed575f52600960205260405f205480156128ed5762093a80810180911161176a5742111590565b505f90565b156128f957565b60405162461bcd60e51b81526020600482015260136024820152722737ba103a393ab9ba32b21034b73232bc32b960691b6044820152606490fd5b9081526001600160a01b03909116602082015260400190565b815190919015612a53575f516020612d3d5f395f51905f525460405163045fc19560e11b815260048101939093523360248401526080604484015260209183916001600160a01b03169082905f9082906129ab9060848301906118c1565b6005606483015203925af19081156116d7575f91612a21575b505f516020612d7d5f395f51905f52546001600160a01b0316803b156116e2575f6040518092630f8e573b60e21b8252818381612a05338960048401612934565b03925af180156116d757612a17575090565b5f61217191611997565b90506020813d602011612a4b575b81612a3c60209383611997565b810103126116e257515f6129c4565b3d9150612a2f565b508015612b00575f516020612d7d5f395f51905f52546040516382027b6d60e01b81529060209082906001600160a01b03168180612a95338860048401612934565b03915afa9081156116d7575f91612ac6575b5015612ab05790565b630276b5d960e01b5f526004523360245260445ffd5b90506020813d602011612af8575b81612ae160209383611997565b810103126116e257612af290611c4c565b5f612aa7565b3d9150612ad4565b50612171612c1c565b8015612b1a575b6121713082612c9e565b50612b23612c1c565b612b10565b908115612b3a575b6121719082612c9e565b9050612171612b47612c1c565b919050612b30565b60ff165f52600b60205260405f2090565b60055f52600b6020527febae6141bae5521e99e0a8d610356b0f501fea54980b59c84841db43ba7204f45491929164ffffffffff16908115612be4575b6040805164ffffffffff841681526005602082015292946001600160a01b0316927f58d1f3ed03db8b22ff8b8be3e7515f47bcd2b187270364bb5d5f1d0c1a0b97829190a3565b60019150612b9d565b46600103612bfa57600190565b4662aa36a703612c0a5761271190565b617a694614612c17575f90565b5f1990565b5f516020612d3d5f395f51905f5254604051639cd07acb60e01b81525f60048201819052600560248301529091602091839160449183916001600160a01b03165af19081156116d7575f91612c6f575090565b90506020813d602011612c96575b81612c8a60209383611997565b810103126116e2575190565b3d9150612c7d565b5f516020612d7d5f395f51905f52546001600160a01b031691823b156116e257612ce1925f9283604051809681958294635ca4b5b160e11b845260048401612934565b03925af180156116d757612cf25750565b5f611a7b9161199756fe997cd783b9bf15cb52686f036d101c98557c2903c72eb88e25fbebc81c2c8eea11548cef8e0d3c3833388a729bc82e9d055c4ec54b600dddd6951423690c5e839e7b61f58c47dc699ac88507c4f5bb9f121c03808c5676a8078fe583e464970130644e72e131a029b85045b68181585d2833e84879b9709143e1f593f00000019e7b61f58c47dc699ac88507c4f5bb9f121c03808c5676a8078fe583e4649700a164736f6c634300081b000a",
  "linkReferences": {},
  "deployedLinkReferences": {}
}