{
  "_format": "hh-sol-artifact-1",
  "contractName": "RejectOnce",
  "sourceName": "contracts/test/RejectOnce.sol",
  "abi": [
    {
      "inputs": [],
      "name": "allowReceive",
      "outputs": [],
      "stateMutability": "nonpayable",
      "type": "function"
    },
    {
      "stateMutability": "payable",
      "type": "receive"
    }
  ],
  "bytecode": "0x60808060405234601357608c908160188239f35b5f80fdfe60808060405260043610156051575b36156017575f80fd5b60ff5f541615602257005b62461bcd60e51b815260206004820152600a6024820152690a4cad4cac6e8408aa8960b31b6044820152606490fd5b5f3560e01c6355de84c503600e5734607b575f366003190112607b575f805460ff19166001179055005b5f80fdfea164736f6c634300081b000a",
  "linkReferences": {},
  "deployedLinkReferences": {}
}