{
  "_format": "hh-sol-artifact-1",
  "contractName": "SponsorRegistry",
  "sourceName": "contracts/SponsorRegistry.sol",
  "abi": [
    {
      "inputs": [],
      "stateMutability": "nonpayable",
      "type": "constructor"
    },
    {
      "inputs": [
        {
          "internalType": "bytes32",
          "name": "handle",
          "type": "bytes32"
        },
        {
          "internalType": "address",
          "name": "sender",
          "type": "address"
        }
      ],
      "name": "SenderNotAllowedToUseHandle",
      "type": "error"
    },
    {
      "inputs": [],
      "name": "ZamaProtocolUnsupported",
      "type": "error"
    },
    {
      "anonymous": false,
      "inputs": [
        {
          "indexed": true,
          "internalType": "address",
          "name": "newOwner",
          "type": "address"
        }
      ],
      "name": "OwnershipAccepted",
      "type": "event"
    },
    {
      "anonymous": false,
      "inputs": [
        {
          "indexed": true,
          "internalType": "address",
          "name": "proposedOwner",
          "type": "address"
        }
      ],
      "name": "OwnershipProposed",
      "type": "event"
    },
    {
      "anonymous": false,
      "inputs": [
        {
          "indexed": true,
          "internalType": "address",
          "name": "sponsor",
          "type": "address"
        },
        {
          "indexed": false,
          "internalType": "string",
          "name": "name",
          "type": "string"
        }
      ],
      "name": "SponsorAdded",
      "type": "event"
    },
    {
      "anonymous": false,
      "inputs": [
        {
          "indexed": true,
          "internalType": "address",
          "name": "sponsor",
          "type": "address"
        }
      ],
      "name": "SponsorRemoved",
      "type": "event"
    },
    {
      "anonymous": false,
      "inputs": [
        {
          "indexed": true,
          "internalType": "address",
          "name": "applicant",
          "type": "address"
        },
        {
          "indexed": false,
          "internalType": "enum SponsorRegistry.RequestStatus",
          "name": "status",
          "type": "uint8"
        }
      ],
      "name": "SponsorshipRequestResolved",
      "type": "event"
    },
    {
      "anonymous": false,
      "inputs": [
        {
          "indexed": true,
          "internalType": "address",
          "name": "applicant",
          "type": "address"
        },
        {
          "indexed": false,
          "internalType": "euint64",
          "name": "encryptedInstitutionId",
          "type": "bytes32"
        }
      ],
      "name": "SponsorshipRequested",
      "type": "event"
    },
    {
      "inputs": [],
      "name": "acceptOwnership",
      "outputs": [],
      "stateMutability": "nonpayable",
      "type": "function"
    },
    {
      "inputs": [
        {
          "internalType": "address",
          "name": "_sponsor",
          "type": "address"
        },
        {
          "internalType": "string",
          "name": "_name",
          "type": "string"
        }
      ],
      "name": "addSponsor",
      "outputs": [],
      "stateMutability": "nonpayable",
      "type": "function"
    },
    {
      "inputs": [],
      "name": "auditor",
      "outputs": [
        {
          "internalType": "address",
          "name": "",
          "type": "address"
        }
      ],
      "stateMutability": "view",
      "type": "function"
    },
    {
      "inputs": [],
      "name": "confidentialProtocolId",
      "outputs": [
        {
          "internalType": "uint256",
          "name": "",
          "type": "uint256"
        }
      ],
      "stateMutability": "view",
      "type": "function"
    },
    {
      "inputs": [
        {
          "internalType": "address",
          "name": "_sponsor",
          "type": "address"
        }
      ],
      "name": "getEncryptedInstitutionId",
      "outputs": [
        {
          "internalType": "euint64",
          "name": "",
          "type": "bytes32"
        }
      ],
      "stateMutability": "view",
      "type": "function"
    },
    {
      "inputs": [
        {
          "internalType": "address",
          "name": "_applicant",
          "type": "address"
        }
      ],
      "name": "getRequestEncryptedId",
      "outputs": [
        {
          "internalType": "euint64",
          "name": "",
          "type": "bytes32"
        }
      ],
      "stateMutability": "view",
      "type": "function"
    },
    {
      "inputs": [
        {
          "internalType": "address",
          "name": "_sponsor",
          "type": "address"
        }
      ],
      "name": "isVerifiedSponsor",
      "outputs": [
        {
          "internalType": "bool",
          "name": "",
          "type": "bool"
        }
      ],
      "stateMutability": "view",
      "type": "function"
    },
    {
      "inputs": [],
      "name": "owner",
      "outputs": [
        {
          "internalType": "address",
          "name": "",
          "type": "address"
        }
      ],
      "stateMutability": "view",
      "type": "function"
    },
    {
      "inputs": [],
      "name": "pendingOwner",
      "outputs": [
        {
          "internalType": "address",
          "name": "",
          "type": "address"
        }
      ],
      "stateMutability": "view",
      "type": "function"
    },
    {
      "inputs": [
        {
          "internalType": "address",
          "name": "_newOwner",
          "type": "address"
        }
      ],
      "name": "proposeOwnership",
      "outputs": [],
      "stateMutability": "nonpayable",
      "type": "function"
    },
    {
      "inputs": [
        {
          "internalType": "address",
          "name": "_applicant",
          "type": "address"
        }
      ],
      "name": "rejectSponsorship",
      "outputs": [],
      "stateMutability": "nonpayable",
      "type": "function"
    },
    {
      "inputs": [
        {
          "internalType": "address",
          "name": "_sponsor",
          "type": "address"
        }
      ],
      "name": "removeSponsor",
      "outputs": [],
      "stateMutability": "nonpayable",
      "type": "function"
    },
    {
      "inputs": [
        {
          "internalType": "externalEuint64",
          "name": "_encryptedInstitutionId",
          "type": "bytes32"
        },
        {
          "internalType": "bytes",
          "name": "inputProof",
          "type": "bytes"
        }
      ],
      "name": "requestSponsorship",
      "outputs": [],
      "stateMutability": "nonpayable",
      "type": "function"
    },
    {
      "inputs": [
        {
          "internalType": "address",
          "name": "",
          "type": "address"
        }
      ],
      "name": "requests",
      "outputs": [
        {
          "internalType": "euint64",
          "name": "encryptedInstitutionId",
          "type": "bytes32"
        },
        {
          "internalType": "enum SponsorRegistry.RequestStatus",
          "name": "status",
          "type": "uint8"
        },
        {
          "internalType": "uint256",
          "name": "requestedAt",
          "type": "uint256"
        },
        {
          "internalType": "bool",
          "name": "hasEncryptedData",
          "type": "bool"
        }
      ],
      "stateMutability": "view",
      "type": "function"
    },
    {
      "inputs": [
        {
          "internalType": "address",
          "name": "",
          "type": "address"
        }
      ],
      "name": "sponsors",
      "outputs": [
        {
          "internalType": "string",
          "name": "name",
          "type": "string"
        },
        {
          "internalType": "bool",
          "name": "verified",
          "type": "bool"
        },
        {
          "internalType": "uint256",
          "name": "addedAt",
          "type": "uint256"
        },
        {
          "internalType": "euint64",
          "name": "encryptedInstitutionId",
          "type": "bytes32"
        }
      ],
      "stateMutability": "view",
      "type": "function"
    }
  ],
  "bytecode": "0x60806040523461021957610011610250565b504660010361013557610022610250565b5061002b61021d565b73ca2e8f1f656cd25c01f05d0b243ab1ecd4a8ffb6815273d82385dada1ae3e969447f20a3164f6213100e7560208201527377627828a55156b04ac0dc0eb30467f1a552bb0360408201525b80517f9e7b61f58c47dc699ac88507c4f5bb9f121c03808c5676a8078fe583e464970080546001600160a01b03199081166001600160a01b039384161790915560208301517f9e7b61f58c47dc699ac88507c4f5bb9f121c03808c5676a8078fe583e4649701805483169184169190911790556040928301517f9e7b61f58c47dc699ac88507c4f5bb9f121c03808c5676a8078fe583e46497028054831691909316179091556003805490911633179055516111f6908161026b8239f35b4662aa36a7036101a057610147610250565b5061015061021d565b73f0ffdc93b7e186bc2f8cb3daa75d86d1930a433d81527392c920834ec8941d2c77d188936e1f7a6f49c127602082015273be0e383937d564d7ff0bc3b46c51f0bf8d5c311a6040820152610077565b46617a690361020a576101b1610250565b506101ba61021d565b7350157cffd6bbfa2dece204a89ec419c23ef5755d815273e3a9105a3a932253a70f126eb1e3b589c643dd24602082015273901f8942346f7ab3a01f6d7613119bca447bb0306040820152610077565b6373cac13b60e01b5f5260045ffd5b5f80fd5b60405190606082016001600160401b0381118382101761023c57604052565b634e487b7160e01b5f52604160045260245ffd5b61025861021d565b905f82525f60208301525f604083015256fe6080806040526004361015610012575f80fd5b5f3560e01c9081633ec045a614610ca45750806357b41ec814610c2a5780636a6449ae14610beb578063710bf32214610b4257806374adad1d14610ad757806379ba509714610a385780638927b03014610a165780638da5cb5b146109ee57806390a5fd19146109745780639b1baabd146108aa578063c4112671146104c6578063d35590c2146103c7578063e30c39781461039f578063ee84da49146101a55763ef784250146100c1575f80fd5b346101a15760203660031901126101a1576100da610cc7565b6100ef60018060a01b03600354163314610de1565b6001600160a01b03165f81815260208190526040812060018101805460ff19169055805461011c90610d0a565b601f8111610182575b505561012f610ea4565b815f52600260205260405f2055805f5260016020525f60036040822082815582600182015582600282015501557f37fe34a55e61111a88dc57c0e39a21511fb9baf8382601ef19ce83a519877ba25f80a2005b8183526020832061019b91601f0160051c810190610e5f565b5f610125565b5f80fd5b346101a15760403660031901126101a1576024356001600160401b0381116101a1576101d5903690600401610cdd565b335f52600160205260ff600160405f2001541660048110156102ef578015908115610394575b501561035657335f525f60205260ff600160405f200154166103165761022e91610226913691610e1a565b600435610f6c565b61023781610f31565b50808115610303575b61024b903390611129565b60405161025781610d42565b818152602081019060018252604081014281526060820160018152335f52600160205260405f20925183556001830193519160048310156102ef576102c19460039360ff8019835416911617905551600284015551151591019060ff801983541691151516179055565b6040519081527fda33206953d62c2f091f1c76ae7de03f4c68d8839d2222aebc91e66bbd1579ab60203392a2005b634e487b7160e01b5f52602160045260245ffd5b5061024b61030f610ea4565b9050610240565b60405162461bcd60e51b815260206004820152601860248201527720b63932b0b23c903b32b934b334b2b21039b837b739b7b960411b6044820152606490fd5b60405162461bcd60e51b81526020600482015260166024820152755265717565737420616c72656164792065786973747360501b6044820152606490fd5b6003915014836101fb565b346101a1575f3660031901126101a1576004546040516001600160a01b039091168152602090f35b346101a15760203660031901126101a1576001600160a01b036103e8610cc7565b165f525f60205260405f206040515f91805461040381610d0a565b80845290600181169081156104a25750600114610469575b5061042b82610453940383610d5d565b60ff600182015416906003600282015491015490604051948594608086526080860190610d80565b9215156020850152604084015260608301520390f35b9250805f5260205f205f905b84821061048c57508201602001925061042b61041b565b6001816020925483858801015201910190610475565b60ff191660208086019190915291151560051b8401909101935061042b905061041b565b346101a15760403660031901126101a1576104df610cc7565b6024356001600160401b0381116101a1576104fe903690600401610cdd565b9161051460018060a01b03600354163314610de1565b82156108755760018060a01b031691825f525f60205260ff600160405f2001541661083d57825f52600160205260ff600160405f2001541660048110156102ef576001148015610818575b156107d357825f52600160205260ff600360405f200154165f146107bc57825f52600160205260405f20545b60405161059781610d42565b6105a2368486610e1a565b81526020810160018152604082014281526060830191848352875f525f60205260405f20935180519060018060401b0382116107a8576105e28654610d0a565b601f811161076d575b50602090601f8311600114610703579180600396959492610638945f926106f8575b50508160011b915f1990881b1c19161786555b511515600186019060ff801983541691151516179055565b51600284015551910155835f52600260205260405f2055825f52600160205260ff600160405f2001541660048110156102ef577fd7eef3af4445425ea784b763ec8f465105b5834c3a84c516c404b68833b00952926001604092146106c2575b82825193849260208452816020850152848401375f828201840152601f01601f19168101030190a2005b845f5260016020526001825f2001600260ff19825416179055845f5160206111ca5f395f51905f526020845160028152a2610698565b015190508c8061060d565b90601f19831691875f52815f20925f5b81811061075557509260019285926106389660039a9998961061073e575b505050811b018655610620565b01515f19838a1b60f8161c191690558c8080610731565b92936020600181928786015181550195019301610713565b61079890875f5260205f20601f850160051c8101916020861061079e575b601f0160051c0190610e5f565b8a6105eb565b909150819061078b565b634e487b7160e01b5f52604160045260245ffd5b6107c4610ea4565b6107cd81610f31565b5061058b565b60405162461bcd60e51b815260206004820152601e60248201527f4e6f2070656e64696e672073706f6e736f7273686970207265717565737400006044820152606490fd5b50825f52600160205260ff600160405f2001541660048110156102ef5760021461055f565b60405162461bcd60e51b815260206004820152601060248201526f105b1c9958591e481d995c9a599a595960821b6044820152606490fd5b60405162461bcd60e51b815260206004820152600d60248201526c13985b59481c995c5d5a5c9959609a1b6044820152606490fd5b346101a15760203660031901126101a1576108c3610cc7565b6108d860018060a01b03600354163314610de1565b6001600160a01b03165f818152600160208190526040909120015460ff1660048110156102ef5760010361093a57805f526001602052600160405f2001600360ff198254161790555f5160206111ca5f395f51905f52602060405160038152a2005b60405162461bcd60e51b8152602060048201526012602482015271139bc81c195b991a5b99c81c995c5d595cdd60721b6044820152606490fd5b346101a15760203660031901126101a1576001600160a01b03610995610cc7565b1680331480156109da575b80156109c6575b6109b090610da4565b5f526002602052602060405f2054604051908152f35b506005546001600160a01b031633146109a7565b506003546001600160a01b031633146109a0565b346101a1575f3660031901126101a1576003546040516001600160a01b039091168152602090f35b346101a1575f3660031901126101a1576020610a30610e75565b604051908152f35b346101a1575f3660031901126101a1576004546001600160a01b0381169033829003610a9d57600380546001600160a01b03199081168417909155166004557fb27970c1714b28277b78cc17ac2fe9556e7f048cd48358cffe3dc7d547608fdc5f80a2005b60405162461bcd60e51b81526020600482015260126024820152712737ba10383937b837b9b2b21037bbb732b960711b6044820152606490fd5b346101a15760203660031901126101a1576001600160a01b03610af8610cc7565b165f52600160205260405f20805460ff6001830154169160ff60036002830154920154169060405192835260048410156102ef576080936020840152604083015215156060820152f35b346101a15760203660031901126101a157610b5b610cc7565b610b7060018060a01b03600354163314610de1565b6001600160a01b03168015610bb757600480546001600160a01b031916821790557f6ab4d119f23076e8ad491bc65ce85f017fb0591dce08755ba8591059cc51737a5f80a2005b60405162461bcd60e51b815260206004820152600c60248201526b5a65726f206164647265737360a01b6044820152606490fd5b346101a15760203660031901126101a1576001600160a01b03610c0c610cc7565b165f525f602052602060ff600160405f200154166040519015158152f35b346101a15760203660031901126101a1576001600160a01b03610c4b610cc7565b168033148015610c90575b8015610c7c575b610c6690610da4565b5f526001602052602060405f2054604051908152f35b506005546001600160a01b03163314610c5d565b506003546001600160a01b03163314610c56565b346101a1575f3660031901126101a1576005546001600160a01b03168152602090f35b600435906001600160a01b03821682036101a157565b9181601f840112156101a1578235916001600160401b0383116101a157602083818601950101116101a157565b90600182811c92168015610d38575b6020831014610d2457565b634e487b7160e01b5f52602260045260245ffd5b91607f1691610d19565b608081019081106001600160401b038211176107a857604052565b601f909101601f19168101906001600160401b038211908210176107a857604052565b805180835260209291819084018484015e5f828201840152601f01601f1916010190565b15610dab57565b60405162461bcd60e51b815260206004820152600e60248201526d139bdd08185d5d1a1bdc9a5e995960921b6044820152606490fd5b15610de857565b60405162461bcd60e51b815260206004820152600a60248201526927b7363c9037bbb732b960b11b6044820152606490fd5b9192916001600160401b0382116107a85760405191610e43601f8201601f191660200184610d5d565b8294818452818301116101a1578281602093845f960137010152565b818110610e6a575050565b5f8155600101610e5f565b46600103610e8257600190565b4662aa36a703610e925761271190565b617a694614610e9f575f90565b5f1990565b5f51602061118a5f395f51905f5254604051639cd07acb60e01b81525f60048201819052600560248301529091602091839160449183916001600160a01b03165af1908115610f26575f91610ef7575090565b90506020813d602011610f1e575b81610f1260209383610d5d565b810103126101a1575190565b3d9150610f05565b6040513d5f823e3d90fd5b8015610f45575b610f423082611129565b90565b50610f4e610ea4565b610f38565b9081526001600160a01b03909116602082015260400190565b815190919015611072575f51602061118a5f395f51905f525460405163045fc19560e11b815260048101939093523360248401526080604484015260209183916001600160a01b03169082905f908290610fca906084830190610d80565b6005606483015203925af1908115610f26575f91611040575b505f5160206111aa5f395f51905f52546001600160a01b0316803b156101a1575f6040518092630f8e573b60e21b8252818381611024338960048401610f53565b03925af18015610f2657611036575090565b5f610f4291610d5d565b90506020813d60201161106a575b8161105b60209383610d5d565b810103126101a157515f610fe3565b3d915061104e565b508015611120575f5160206111aa5f395f51905f52546040516382027b6d60e01b81529060209082906001600160a01b031681806110b4338860048401610f53565b03915afa908115610f26575f916110e5575b50156110cf5790565b630276b5d960e01b5f526004523360245260445ffd5b90506020813d602011611118575b8161110060209383610d5d565b810103126101a1575180151581036101a1575f6110c6565b3d91506110f3565b50610f42610ea4565b5f5160206111aa5f395f51905f52546001600160a01b031691823b156101a15761116c925f9283604051809681958294635ca4b5b160e11b845260048401610f53565b03925af18015610f265761117d5750565b5f61118791610d5d565b56fe9e7b61f58c47dc699ac88507c4f5bb9f121c03808c5676a8078fe583e46497019e7b61f58c47dc699ac88507c4f5bb9f121c03808c5676a8078fe583e4649700c76b621c9861b343a1c48ceabdde9cfb2bd77578830caea48e153de3d37324f6a164736f6c634300081b000a",
  "linkReferences": {},
  "deployedLinkReferences": {}
}