{
  "_format": "hh-sol-artifact-1",
  "contractName": "SponsorRegistry",
  "sourceName": "contracts/SponsorRegistry.sol",
  "abi": [
    {
      "inputs": [],
      "stateMutability": "nonpayable",
      "type": "constructor"
    },
    {
      "anonymous": false,
      "inputs": [
        {
          "indexed": true,
          "internalType": "address",
          "name": "sponsor",
          "type": "address"
        },
        {
          "indexed": false,
          "internalType": "string",
          "name": "name",
          "type": "string"
        }
      ],
      "name": "SponsorAdded",
      "type": "event"
    },
    {
      "anonymous": false,
      "inputs": [
        {
          "indexed": true,
          "internalType": "address",
          "name": "sponsor",
          "type": "address"
        }
      ],
      "name": "SponsorRemoved",
      "type": "event"
    },
    {
      "anonymous": false,
      "inputs": [
        {
          "indexed": true,
          "internalType": "address",
          "name": "applicant",
          "type": "address"
        },
        {
          "indexed": false,
          "internalType": "enum SponsorRegistry.RequestStatus",
          "name": "status",
          "type": "uint8"
        }
      ],
      "name": "SponsorshipRequestResolved",
      "type": "event"
    },
    {
      "anonymous": false,
      "inputs": [
        {
          "indexed": true,
          "internalType": "address",
          "name": "applicant",
          "type": "address"
        },
        {
          "indexed": false,
          "internalType": "bytes",
          "name": "encryptedData",
          "type": "bytes"
        }
      ],
      "name": "SponsorshipRequested",
      "type": "event"
    },
    {
      "inputs": [
        {
          "internalType": "address",
          "name": "_sponsor",
          "type": "address"
        },
        {
          "internalType": "string",
          "name": "_name",
          "type": "string"
        }
      ],
      "name": "addSponsor",
      "outputs": [],
      "stateMutability": "nonpayable",
      "type": "function"
    },
    {
      "inputs": [
        {
          "internalType": "address",
          "name": "_sponsor",
          "type": "address"
        }
      ],
      "name": "isVerifiedSponsor",
      "outputs": [
        {
          "internalType": "bool",
          "name": "",
          "type": "bool"
        }
      ],
      "stateMutability": "view",
      "type": "function"
    },
    {
      "inputs": [],
      "name": "owner",
      "outputs": [
        {
          "internalType": "address",
          "name": "",
          "type": "address"
        }
      ],
      "stateMutability": "view",
      "type": "function"
    },
    {
      "inputs": [
        {
          "internalType": "address",
          "name": "_applicant",
          "type": "address"
        }
      ],
      "name": "rejectSponsorship",
      "outputs": [],
      "stateMutability": "nonpayable",
      "type": "function"
    },
    {
      "inputs": [
        {
          "internalType": "address",
          "name": "_sponsor",
          "type": "address"
        }
      ],
      "name": "removeSponsor",
      "outputs": [],
      "stateMutability": "nonpayable",
      "type": "function"
    },
    {
      "inputs": [
        {
          "internalType": "bytes",
          "name": "_encryptedData",
          "type": "bytes"
        }
      ],
      "name": "requestSponsorship",
      "outputs": [],
      "stateMutability": "nonpayable",
      "type": "function"
    },
    {
      "inputs": [
        {
          "internalType": "address",
          "name": "",
          "type": "address"
        }
      ],
      "name": "requests",
      "outputs": [
        {
          "internalType": "bytes",
          "name": "encryptedData",
          "type": "bytes"
        },
        {
          "internalType": "enum SponsorRegistry.RequestStatus",
          "name": "status",
          "type": "uint8"
        },
        {
          "internalType": "uint256",
          "name": "requestedAt",
          "type": "uint256"
        }
      ],
      "stateMutability": "view",
      "type": "function"
    },
    {
      "inputs": [
        {
          "internalType": "address",
          "name": "",
          "type": "address"
        }
      ],
      "name": "sponsors",
      "outputs": [
        {
          "internalType": "string",
          "name": "name",
          "type": "string"
        },
        {
          "internalType": "bool",
          "name": "verified",
          "type": "bool"
        },
        {
          "internalType": "uint256",
          "name": "addedAt",
          "type": "uint256"
        }
      ],
      "stateMutability": "view",
      "type": "function"
    },
    {
      "inputs": [
        {
          "internalType": "address",
          "name": "_newOwner",
          "type": "address"
        }
      ],
      "name": "transferOwnership",
      "outputs": [],
      "stateMutability": "nonpayable",
      "type": "function"
    }
  ],
  "bytecode": "0x60808060405234602757600280546001600160a01b03191633179055610afa908161002c8239f35b5f80fdfe6080806040526004361015610012575f80fd5b5f3560e01c9081636a6449ae146108c85750806374adad1d146107c95780638da5cb5b146107a15780639b1baabd146106d7578063c411267114610494578063cb67dfb31461027d578063d35590c21461018a578063ef784250146101155763f2fde38b1461007f575f80fd5b3461011157602036600319011261011157610098610903565b600254906100b0336001600160a01b038416146109e0565b6001600160a01b03169081156100d0576001600160a01b03191617600255005b60405162461bcd60e51b81526020600482015260196024820152784e6577206f776e6572206973207a65726f206164647265737360381b6044820152606490fd5b5f80fd5b346101115760203660031901126101115761012e610903565b61014360018060a01b036002541633146109e0565b6001600160a01b03165f818152602081905260408120600101805460ff191690557f37fe34a55e61111a88dc57c0e39a21511fb9baf8382601ef19ce83a519877ba29080a2005b34610111576020366003190112610111576001600160a01b036101ab610903565b165f525f60205260405f206040515f9180546101c681610919565b80845290600181169081156102595750600114610220575b506101ee8261020f94038361096c565b600260ff60018301541691015460405193849360608552606085019061098f565b911515602084015260408301520390f35b9250805f5260205f205f905b8482106102435750820160200192506101ee6101de565b600181602092548385880101520191019061022c565b60ff191660208086019190915291151560051b840190910193506101ee90506101de565b34610111576020366003190112610111576004356001600160401b038111610111576102ad9036906004016109b3565b90335f52600160205260ff600160405f2001541660048110156103c05761045657604051906102db82610951565b6102e6368483610a19565b82526020820190600182526040830192428452335f52600160205260405f20905180519060018060401b0382116104425761032b826103258554610919565b85610a5e565b602090601f83116001146103df5761035a92915f91836103d4575b50508160011b915f199060031b1c19161790565b81555b60018101925160048110156103c0577fd40f6686193ad765fd49762371d70cd04a4f1f21d05ee1c4f08f9439c8c8637a946103bb9460029260ff80198354169116179055519101556040519182916020835233956020840191610aad565b0390a2005b634e487b7160e01b5f52602160045260245ffd5b015190508880610346565b90601f19831691845f52815f20925f5b81811061042a5750908460019594939210610412575b505050811b01815561035d565b01515f1960f88460031b161c19169055878080610405565b929360206001819287860151815501950193016103ef565b634e487b7160e01b5f52604160045260245ffd5b60405162461bcd60e51b81526020600482015260166024820152755265717565737420616c72656164792065786973747360501b6044820152606490fd5b34610111576040366003190112610111576104ad610903565b6024356001600160401b038111610111576104cc9036906004016109b3565b906104e260018060a01b036002541633146109e0565b81156106a2576040516104f481610951565b6104ff368484610a19565b8152602081019360018552604082019042825260018060a01b031694855f525f60205260405f20925180519060018060401b0382116104425761054c826105468754610919565b87610a5e565b602090601f831160011461063b57918061057f9260029695945f926106305750508160011b915f199060031b1c19161790565b84555b600184019051151560ff8019835416911617905551910155825f52600160205260ff600160405f200154169160048310156103c05760017fd7eef3af4445425ea784b763ec8f465105b5834c3a84c516c404b68833b0095293146105f8575b6103bb604051928392602084526020840191610aad565b835f526001602052600160405f2001600260ff19825416179055835f516020610ace5f395f51905f52602060405160028152a26105e1565b015190508a80610346565b90601f19831691865f52815f20925f5b81811061068a575091600193918560029897969410610672575b505050811b018455610582565b01515f1960f88460031b161c19169055898080610665565b9293602060018192878601518155019501930161064b565b60405162461bcd60e51b815260206004820152600d60248201526c13985b59481c995c5d5a5c9959609a1b6044820152606490fd5b34610111576020366003190112610111576106f0610903565b61070560018060a01b036002541633146109e0565b6001600160a01b03165f818152600160208190526040909120015460ff1660048110156103c05760010361076757805f526001602052600160405f2001600360ff198254161790555f516020610ace5f395f51905f52602060405160038152a2005b60405162461bcd60e51b8152602060048201526012602482015271139bc81c195b991a5b99c81c995c5d595cdd60721b6044820152606490fd5b34610111575f366003190112610111576002546040516001600160a01b039091168152602090f35b34610111576020366003190112610111576001600160a01b036107ea610903565b165f52600160205260405f20604051905f8282549161080883610919565b80835292600181169081156108a95750600114610868575b61082c9250038361096c565b600260ff60018301541691015461084e6040519360608552606085019061098f565b9060048310156103c0578392602084015260408301520390f35b5090825f5260205f20905f915b81831061088d57505090602061082c92820101610820565b6020919350806001915483858901015201910190918492610875565b6020925061082c94915060ff191682840152151560051b820101610820565b34610111576020366003190112610111576020906001600160a01b036108ec610903565b165f525f825260ff600160405f2001541615158152f35b600435906001600160a01b038216820361011157565b90600182811c92168015610947575b602083101461093357565b634e487b7160e01b5f52602260045260245ffd5b91607f1691610928565b606081019081106001600160401b0382111761044257604052565b601f909101601f19168101906001600160401b0382119082101761044257604052565b805180835260209291819084018484015e5f828201840152601f01601f1916010190565b9181601f84011215610111578235916001600160401b038311610111576020838186019501011161011157565b156109e757565b60405162461bcd60e51b815260206004820152600a60248201526927b7363c9037bbb732b960b11b6044820152606490fd5b9192916001600160401b0382116104425760405191610a42601f8201601f19166020018461096c565b829481845281830111610111578281602093845f960137010152565b601f8211610a6b57505050565b5f5260205f20906020601f840160051c83019310610aa3575b601f0160051c01905b818110610a98575050565b5f8155600101610a8d565b9091508190610a84565b908060209392818452848401375f828201840152601f01601f191601019056fec76b621c9861b343a1c48ceabdde9cfb2bd77578830caea48e153de3d37324f6a164736f6c634300081b000a",
  "linkReferences": {},
  "deployedLinkReferences": {}
}