{
  "_format": "hh-sol-artifact-1",
  "contractName": "SponsorRegistry",
  "sourceName": "contracts/SponsorRegistry.sol",
  "abi": [
    {
      "inputs": [],
      "stateMutability": "nonpayable",
      "type": "constructor"
    },
    {
      "inputs": [
        {
          "internalType": "bytes32",
          "name": "handle",
          "type": "bytes32"
        },
        {
          "internalType": "address",
          "name": "sender",
          "type": "address"
        }
      ],
      "name": "SenderNotAllowedToUseHandle",
      "type": "error"
    },
    {
      "inputs": [],
      "name": "ZamaProtocolUnsupported",
      "type": "error"
    },
    {
      "anonymous": false,
      "inputs": [
        {
          "indexed": true,
          "internalType": "address",
          "name": "newOwner",
          "type": "address"
        }
      ],
      "name": "OwnershipAccepted",
      "type": "event"
    },
    {
      "anonymous": false,
      "inputs": [
        {
          "indexed": true,
          "internalType": "address",
          "name": "proposedOwner",
          "type": "address"
        }
      ],
      "name": "OwnershipProposed",
      "type": "event"
    },
    {
      "anonymous": false,
      "inputs": [
        {
          "indexed": true,
          "internalType": "address",
          "name": "sponsor",
          "type": "address"
        },
        {
          "indexed": false,
          "internalType": "string",
          "name": "name",
          "type": "string"
        }
      ],
      "name": "SponsorAdded",
      "type": "event"
    },
    {
      "anonymous": false,
      "inputs": [
        {
          "indexed": true,
          "internalType": "address",
          "name": "sponsor",
          "type": "address"
        }
      ],
      "name": "SponsorRemoved",
      "type": "event"
    },
    {
      "anonymous": false,
      "inputs": [
        {
          "indexed": true,
          "internalType": "address",
          "name": "applicant",
          "type": "address"
        },
        {
          "indexed": false,
          "internalType": "enum SponsorRegistry.RequestStatus",
          "name": "status",
          "type": "uint8"
        }
      ],
      "name": "SponsorshipRequestResolved",
      "type": "event"
    },
    {
      "anonymous": false,
      "inputs": [
        {
          "indexed": true,
          "internalType": "address",
          "name": "applicant",
          "type": "address"
        },
        {
          "indexed": false,
          "internalType": "euint64",
          "name": "encryptedInstitutionId",
          "type": "bytes32"
        }
      ],
      "name": "SponsorshipRequested",
      "type": "event"
    },
    {
      "inputs": [],
      "name": "READER_CHANGE_DELAY",
      "outputs": [
        {
          "internalType": "uint256",
          "name": "",
          "type": "uint256"
        }
      ],
      "stateMutability": "view",
      "type": "function"
    },
    {
      "inputs": [],
      "name": "acceptOwnership",
      "outputs": [],
      "stateMutability": "nonpayable",
      "type": "function"
    },
    {
      "inputs": [
        {
          "internalType": "address",
          "name": "_sponsor",
          "type": "address"
        },
        {
          "internalType": "string",
          "name": "_name",
          "type": "string"
        }
      ],
      "name": "addSponsor",
      "outputs": [],
      "stateMutability": "nonpayable",
      "type": "function"
    },
    {
      "inputs": [],
      "name": "applyAuditor",
      "outputs": [],
      "stateMutability": "nonpayable",
      "type": "function"
    },
    {
      "inputs": [],
      "name": "auditor",
      "outputs": [
        {
          "internalType": "address",
          "name": "",
          "type": "address"
        }
      ],
      "stateMutability": "view",
      "type": "function"
    },
    {
      "inputs": [],
      "name": "auditorChangeEta",
      "outputs": [
        {
          "internalType": "uint256",
          "name": "",
          "type": "uint256"
        }
      ],
      "stateMutability": "view",
      "type": "function"
    },
    {
      "inputs": [],
      "name": "confidentialProtocolId",
      "outputs": [
        {
          "internalType": "uint256",
          "name": "",
          "type": "uint256"
        }
      ],
      "stateMutability": "view",
      "type": "function"
    },
    {
      "inputs": [
        {
          "internalType": "address",
          "name": "_sponsor",
          "type": "address"
        }
      ],
      "name": "getEncryptedInstitutionId",
      "outputs": [
        {
          "internalType": "euint64",
          "name": "",
          "type": "bytes32"
        }
      ],
      "stateMutability": "view",
      "type": "function"
    },
    {
      "inputs": [
        {
          "internalType": "address",
          "name": "_applicant",
          "type": "address"
        }
      ],
      "name": "getRequestEncryptedId",
      "outputs": [
        {
          "internalType": "euint64",
          "name": "",
          "type": "bytes32"
        }
      ],
      "stateMutability": "view",
      "type": "function"
    },
    {
      "inputs": [
        {
          "internalType": "address",
          "name": "_sponsor",
          "type": "address"
        }
      ],
      "name": "isVerifiedSponsor",
      "outputs": [
        {
          "internalType": "bool",
          "name": "",
          "type": "bool"
        }
      ],
      "stateMutability": "view",
      "type": "function"
    },
    {
      "inputs": [],
      "name": "owner",
      "outputs": [
        {
          "internalType": "address",
          "name": "",
          "type": "address"
        }
      ],
      "stateMutability": "view",
      "type": "function"
    },
    {
      "inputs": [],
      "name": "pendingAuditor",
      "outputs": [
        {
          "internalType": "address",
          "name": "",
          "type": "address"
        }
      ],
      "stateMutability": "view",
      "type": "function"
    },
    {
      "inputs": [],
      "name": "pendingOwner",
      "outputs": [
        {
          "internalType": "address",
          "name": "",
          "type": "address"
        }
      ],
      "stateMutability": "view",
      "type": "function"
    },
    {
      "inputs": [
        {
          "internalType": "address",
          "name": "_newOwner",
          "type": "address"
        }
      ],
      "name": "proposeOwnership",
      "outputs": [],
      "stateMutability": "nonpayable",
      "type": "function"
    },
    {
      "inputs": [
        {
          "internalType": "address",
          "name": "_applicant",
          "type": "address"
        }
      ],
      "name": "rejectSponsorship",
      "outputs": [],
      "stateMutability": "nonpayable",
      "type": "function"
    },
    {
      "inputs": [
        {
          "internalType": "address",
          "name": "_sponsor",
          "type": "address"
        }
      ],
      "name": "removeSponsor",
      "outputs": [],
      "stateMutability": "nonpayable",
      "type": "function"
    },
    {
      "inputs": [
        {
          "internalType": "externalEuint64",
          "name": "_encryptedInstitutionId",
          "type": "bytes32"
        },
        {
          "internalType": "bytes",
          "name": "inputProof",
          "type": "bytes"
        }
      ],
      "name": "requestSponsorship",
      "outputs": [],
      "stateMutability": "nonpayable",
      "type": "function"
    },
    {
      "inputs": [
        {
          "internalType": "address",
          "name": "",
          "type": "address"
        }
      ],
      "name": "requests",
      "outputs": [
        {
          "internalType": "euint64",
          "name": "encryptedInstitutionId",
          "type": "bytes32"
        },
        {
          "internalType": "enum SponsorRegistry.RequestStatus",
          "name": "status",
          "type": "uint8"
        },
        {
          "internalType": "uint256",
          "name": "requestedAt",
          "type": "uint256"
        },
        {
          "internalType": "bool",
          "name": "hasEncryptedData",
          "type": "bool"
        }
      ],
      "stateMutability": "view",
      "type": "function"
    },
    {
      "inputs": [
        {
          "internalType": "address",
          "name": "_auditor",
          "type": "address"
        }
      ],
      "name": "scheduleAuditor",
      "outputs": [],
      "stateMutability": "nonpayable",
      "type": "function"
    },
    {
      "inputs": [
        {
          "internalType": "address",
          "name": "",
          "type": "address"
        }
      ],
      "name": "sponsors",
      "outputs": [
        {
          "internalType": "string",
          "name": "name",
          "type": "string"
        },
        {
          "internalType": "bool",
          "name": "verified",
          "type": "bool"
        },
        {
          "internalType": "uint256",
          "name": "addedAt",
          "type": "uint256"
        },
        {
          "internalType": "euint64",
          "name": "encryptedInstitutionId",
          "type": "bytes32"
        }
      ],
      "stateMutability": "view",
      "type": "function"
    }
  ],
  "bytecode": "0x60806040523461021957610011610250565b504660010361013557610022610250565b5061002b61021d565b73ca2e8f1f656cd25c01f05d0b243ab1ecd4a8ffb6815273d82385dada1ae3e969447f20a3164f6213100e7560208201527377627828a55156b04ac0dc0eb30467f1a552bb0360408201525b80517f9e7b61f58c47dc699ac88507c4f5bb9f121c03808c5676a8078fe583e464970080546001600160a01b03199081166001600160a01b039384161790915560208301517f9e7b61f58c47dc699ac88507c4f5bb9f121c03808c5676a8078fe583e4649701805483169184169190911790556040928301517f9e7b61f58c47dc699ac88507c4f5bb9f121c03808c5676a8078fe583e464970280548316919093161790915560038054909116331790555161140a908161026b8239f35b4662aa36a7036101a057610147610250565b5061015061021d565b73f0ffdc93b7e186bc2f8cb3daa75d86d1930a433d81527392c920834ec8941d2c77d188936e1f7a6f49c127602082015273be0e383937d564d7ff0bc3b46c51f0bf8d5c311a6040820152610077565b46617a690361020a576101b1610250565b506101ba61021d565b7350157cffd6bbfa2dece204a89ec419c23ef5755d815273e3a9105a3a932253a70f126eb1e3b589c643dd24602082015273901f8942346f7ab3a01f6d7613119bca447bb0306040820152610077565b6373cac13b60e01b5f5260045ffd5b5f80fd5b60405190606082016001600160401b0381118382101761023c57604052565b634e487b7160e01b5f52604160045260245ffd5b61025861021d565b905f82525f60208301525f604083015256fe6080806040526004361015610012575f80fd5b5f3560e01c90816323738e3414610ec1575080632ce713bd14610e995780633ec045a614610e715780634bb8266a14610dcc57806355fbdcab14610daf57806357b41ec814610d355780636a6449ae14610cf6578063710bf32214610c4d57806374adad1d14610be257806379ba509714610b435780638927b03014610b215780638da5cb5b14610af957806390a5fd1914610a7f5780639b1baabd146109b5578063c4112671146105d1578063d35590c2146104d2578063e30c3978146104aa578063ee84da49146102b0578063ef0a7d771461020a5763ef784250146100f8575f80fd5b3461020657602036600319011261020657610111610edb565b61012660018060a01b03600354163314610fb8565b60018060a01b0316805f525f6020525f6003604082206101468154610f1e565b806101c3575b5082600182015582600282015501556101636110b8565b5f82815260026020526040902081905561017c90611145565b50805f5260016020525f60036040822082815582600182015582600282015501557f37fe34a55e61111a88dc57c0e39a21511fb9baf8382601ef19ce83a519877ba25f80a2005b601f81116001146101d957508281555b5f61014c565b818452602084206101f591601f0160051c810190600101611073565b8083528260208120818355556101d3565b5f80fd5b3461020657602036600319011261020657610223610edb565b61023860018060a01b03600354163314610fb8565b6001600160a01b0316801561027c5760018060a01b03196006541617600655615460420180421161026857600755005b634e487b7160e01b5f52601160045260245ffd5b60405162461bcd60e51b815260206004820152600c60248201526b2d32b9379030bab234ba37b960a11b6044820152606490fd5b34610206576040366003190112610206576024356001600160401b038111610206576102e0903690600401610ef1565b335f52600160205260ff600160405f2001541660048110156103fa57801590811561049f575b501561046157335f525f60205260ff600160405f20015416610421576103399161033191369161102e565b600435611180565b61034281611145565b5080811561040e575b61035690339061133d565b60405161036281610f56565b818152602081019060018252604081014281526060820160018152335f52600160205260405f20925183556001830193519160048310156103fa576103cc9460039360ff8019835416911617905551600284015551151591019060ff801983541691151516179055565b6040519081527fda33206953d62c2f091f1c76ae7de03f4c68d8839d2222aebc91e66bbd1579ab60203392a2005b634e487b7160e01b5f52602160045260245ffd5b5061035661041a6110b8565b905061034b565b60405162461bcd60e51b815260206004820152601860248201527720b63932b0b23c903b32b934b334b2b21039b837b739b7b960411b6044820152606490fd5b60405162461bcd60e51b81526020600482015260166024820152755265717565737420616c72656164792065786973747360501b6044820152606490fd5b600391501483610306565b34610206575f366003190112610206576004546040516001600160a01b039091168152602090f35b34610206576020366003190112610206576001600160a01b036104f3610edb565b165f525f60205260405f206040515f91805461050e81610f1e565b80845290600181169081156105ad5750600114610574575b506105368261055e940383610f71565b60ff600182015416906003600282015491015490604051948594608086526080860190610f94565b9215156020850152604084015260608301520390f35b9250805f5260205f205f905b848210610597575082016020019250610536610526565b6001816020925483858801015201910190610580565b60ff191660208086019190915291151560051b840190910193506105369050610526565b34610206576040366003190112610206576105ea610edb565b6024356001600160401b03811161020657610609903690600401610ef1565b9161061f60018060a01b03600354163314610fb8565b82156109805760018060a01b031691825f525f60205260ff600160405f2001541661094857825f52600160205260ff600160405f2001541660048110156103fa576001148015610923575b156108de57825f52600160205260ff600360405f200154165f146108c757825f52600160205260405f20545b6040516106a281610f56565b6106ad36848661102e565b81526020810160018152604082014281526060830191848352875f525f60205260405f20935180519060018060401b0382116108b3576106ed8654610f1e565b601f8111610878575b50602090601f831160011461080e579180600396959492610743945f92610803575b50508160011b915f1990881b1c19161786555b511515600186019060ff801983541691151516179055565b51600284015551910155835f52600260205260405f2055825f52600160205260ff600160405f2001541660048110156103fa577fd7eef3af4445425ea784b763ec8f465105b5834c3a84c516c404b68833b00952926001604092146107cd575b82825193849260208452816020850152848401375f828201840152601f01601f19168101030190a2005b845f5260016020526001825f2001600260ff19825416179055845f5160206113de5f395f51905f526020845160028152a26107a3565b015190508c80610718565b90601f19831691875f52815f20925f5b81811061086057509260019285926107439660039a99989610610849575b505050811b01865561072b565b01515f19838a1b60f8161c191690558c808061083c565b9293602060018192878601518155019501930161081e565b6108a390875f5260205f20601f850160051c810191602086106108a9575b601f0160051c0190611073565b8a6106f6565b9091508190610896565b634e487b7160e01b5f52604160045260245ffd5b6108cf6110b8565b6108d881611145565b50610696565b60405162461bcd60e51b815260206004820152601e60248201527f4e6f2070656e64696e672073706f6e736f7273686970207265717565737400006044820152606490fd5b50825f52600160205260ff600160405f2001541660048110156103fa5760021461066a565b60405162461bcd60e51b815260206004820152601060248201526f105b1c9958591e481d995c9a599a595960821b6044820152606490fd5b60405162461bcd60e51b815260206004820152600d60248201526c13985b59481c995c5d5a5c9959609a1b6044820152606490fd5b34610206576020366003190112610206576109ce610edb565b6109e360018060a01b03600354163314610fb8565b6001600160a01b03165f818152600160208190526040909120015460ff1660048110156103fa57600103610a4557805f526001602052600160405f2001600360ff198254161790555f5160206113de5f395f51905f52602060405160038152a2005b60405162461bcd60e51b8152602060048201526012602482015271139bc81c195b991a5b99c81c995c5d595cdd60721b6044820152606490fd5b34610206576020366003190112610206576001600160a01b03610aa0610edb565b168033148015610ae5575b8015610ad1575b610abb90610ff1565b5f526002602052602060405f2054604051908152f35b506005546001600160a01b03163314610ab2565b506003546001600160a01b03163314610aab565b34610206575f366003190112610206576003546040516001600160a01b039091168152602090f35b34610206575f366003190112610206576020610b3b611089565b604051908152f35b34610206575f366003190112610206576004546001600160a01b0381169033829003610ba857600380546001600160a01b03199081168417909155166004557fb27970c1714b28277b78cc17ac2fe9556e7f048cd48358cffe3dc7d547608fdc5f80a2005b60405162461bcd60e51b81526020600482015260126024820152712737ba10383937b837b9b2b21037bbb732b960711b6044820152606490fd5b34610206576020366003190112610206576001600160a01b03610c03610edb565b165f52600160205260405f20805460ff6001830154169160ff60036002830154920154169060405192835260048410156103fa576080936020840152604083015215156060820152f35b3461020657602036600319011261020657610c66610edb565b610c7b60018060a01b03600354163314610fb8565b6001600160a01b03168015610cc257600480546001600160a01b031916821790557f6ab4d119f23076e8ad491bc65ce85f017fb0591dce08755ba8591059cc51737a5f80a2005b60405162461bcd60e51b815260206004820152600c60248201526b5a65726f206164647265737360a01b6044820152606490fd5b34610206576020366003190112610206576001600160a01b03610d17610edb565b165f525f602052602060ff600160405f200154166040519015158152f35b34610206576020366003190112610206576001600160a01b03610d56610edb565b168033148015610d9b575b8015610d87575b610d7190610ff1565b5f526001602052602060405f2054604051908152f35b506005546001600160a01b03163314610d68565b506003546001600160a01b03163314610d61565b34610206575f366003190112610206576020600754604051908152f35b34610206575f36600319011261020657610df160018060a01b03600354163314610fb8565b6007548015159081610e66575b5015610e2f5760068054600580546001600160a01b03199081166001600160a01b038416179091555f600755169055005b60405162461bcd60e51b815260206004820152600f60248201526e54696d656c6f636b2061637469766560881b6044820152606490fd5b905042101581610dfe565b34610206575f366003190112610206576005546040516001600160a01b039091168152602090f35b34610206575f366003190112610206576006546040516001600160a01b039091168152602090f35b34610206575f366003190112610206578061546060209252f35b600435906001600160a01b038216820361020657565b9181601f84011215610206578235916001600160401b038311610206576020838186019501011161020657565b90600182811c92168015610f4c575b6020831014610f3857565b634e487b7160e01b5f52602260045260245ffd5b91607f1691610f2d565b608081019081106001600160401b038211176108b357604052565b601f909101601f19168101906001600160401b038211908210176108b357604052565b805180835260209291819084018484015e5f828201840152601f01601f1916010190565b15610fbf57565b60405162461bcd60e51b815260206004820152600a60248201526927b7363c9037bbb732b960b11b6044820152606490fd5b15610ff857565b60405162461bcd60e51b815260206004820152600e60248201526d139bdd08185d5d1a1bdc9a5e995960921b6044820152606490fd5b9192916001600160401b0382116108b35760405191611057601f8201601f191660200184610f71565b829481845281830111610206578281602093845f960137010152565b81811061107e575050565b5f8155600101611073565b4660010361109657600190565b4662aa36a7036110a65761271190565b617a6946146110b3575f90565b5f1990565b5f51602061139e5f395f51905f5254604051639cd07acb60e01b81525f60048201819052600560248301529091602091839160449183916001600160a01b03165af190811561113a575f9161110b575090565b90506020813d602011611132575b8161112660209383610f71565b81010312610206575190565b3d9150611119565b6040513d5f823e3d90fd5b8015611159575b611156308261133d565b90565b506111626110b8565b61114c565b9081526001600160a01b03909116602082015260400190565b815190919015611286575f51602061139e5f395f51905f525460405163045fc19560e11b815260048101939093523360248401526080604484015260209183916001600160a01b03169082905f9082906111de906084830190610f94565b6005606483015203925af190811561113a575f91611254575b505f5160206113be5f395f51905f52546001600160a01b0316803b15610206575f6040518092630f8e573b60e21b8252818381611238338960048401611167565b03925af1801561113a5761124a575090565b5f61115691610f71565b90506020813d60201161127e575b8161126f60209383610f71565b8101031261020657515f6111f7565b3d9150611262565b508015611334575f5160206113be5f395f51905f52546040516382027b6d60e01b81529060209082906001600160a01b031681806112c8338860048401611167565b03915afa90811561113a575f916112f9575b50156112e35790565b630276b5d960e01b5f526004523360245260445ffd5b90506020813d60201161132c575b8161131460209383610f71565b8101031261020657518015158103610206575f6112da565b3d9150611307565b506111566110b8565b5f5160206113be5f395f51905f52546001600160a01b031691823b1561020657611380925f9283604051809681958294635ca4b5b160e11b845260048401611167565b03925af1801561113a576113915750565b5f61139b91610f71565b56fe9e7b61f58c47dc699ac88507c4f5bb9f121c03808c5676a8078fe583e46497019e7b61f58c47dc699ac88507c4f5bb9f121c03808c5676a8078fe583e4649700c76b621c9861b343a1c48ceabdde9cfb2bd77578830caea48e153de3d37324f6a164736f6c634300081b000a",
  "linkReferences": {},
  "deployedLinkReferences": {}
}