{
  "_format": "hh-sol-artifact-1",
  "contractName": "SponsorIncentiveVault",
  "sourceName": "contracts/SponsorIncentiveVault.sol",
  "abi": [
    {
      "inputs": [
        {
          "internalType": "address payable",
          "name": "_cETH",
          "type": "address"
        },
        {
          "internalType": "address",
          "name": "_trialManager",
          "type": "address"
        },
        {
          "internalType": "address",
          "name": "_eligibilityEngine",
          "type": "address"
        }
      ],
      "stateMutability": "nonpayable",
      "type": "constructor"
    },
    {
      "inputs": [],
      "name": "ECDSAInvalidSignature",
      "type": "error"
    },
    {
      "inputs": [
        {
          "internalType": "uint256",
          "name": "length",
          "type": "uint256"
        }
      ],
      "name": "ECDSAInvalidSignatureLength",
      "type": "error"
    },
    {
      "inputs": [
        {
          "internalType": "bytes32",
          "name": "s",
          "type": "bytes32"
        }
      ],
      "name": "ECDSAInvalidSignatureS",
      "type": "error"
    },
    {
      "inputs": [],
      "name": "InvalidShortString",
      "type": "error"
    },
    {
      "inputs": [
        {
          "internalType": "string",
          "name": "str",
          "type": "string"
        }
      ],
      "name": "StringTooLong",
      "type": "error"
    },
    {
      "inputs": [],
      "name": "ZamaProtocolUnsupported",
      "type": "error"
    },
    {
      "anonymous": false,
      "inputs": [
        {
          "indexed": true,
          "internalType": "uint256",
          "name": "trialId",
          "type": "uint256"
        },
        {
          "indexed": true,
          "internalType": "uint256",
          "name": "nullifier",
          "type": "uint256"
        }
      ],
      "name": "AnonymousParticipantRegistered",
      "type": "event"
    },
    {
      "anonymous": false,
      "inputs": [
        {
          "indexed": true,
          "internalType": "uint256",
          "name": "trialId",
          "type": "uint256"
        },
        {
          "indexed": true,
          "internalType": "address",
          "name": "permitHolder",
          "type": "address"
        },
        {
          "indexed": false,
          "internalType": "bytes32",
          "name": "sufficientHandle",
          "type": "bytes32"
        }
      ],
      "name": "ClaimInitiated",
      "type": "event"
    },
    {
      "anonymous": false,
      "inputs": [],
      "name": "EIP712DomainChanged",
      "type": "event"
    },
    {
      "anonymous": false,
      "inputs": [
        {
          "indexed": true,
          "internalType": "uint256",
          "name": "trialId",
          "type": "uint256"
        },
        {
          "indexed": true,
          "internalType": "address",
          "name": "sponsor",
          "type": "address"
        }
      ],
      "name": "IncentiveFunded",
      "type": "event"
    },
    {
      "anonymous": false,
      "inputs": [
        {
          "indexed": true,
          "internalType": "uint256",
          "name": "trialId",
          "type": "uint256"
        },
        {
          "indexed": false,
          "internalType": "uint256",
          "name": "milestoneIndex",
          "type": "uint256"
        }
      ],
      "name": "MilestoneRewardsDistributed",
      "type": "event"
    },
    {
      "anonymous": false,
      "inputs": [
        {
          "indexed": true,
          "internalType": "address",
          "name": "newOwner",
          "type": "address"
        }
      ],
      "name": "OwnershipAccepted",
      "type": "event"
    },
    {
      "anonymous": false,
      "inputs": [
        {
          "indexed": true,
          "internalType": "address",
          "name": "proposedOwner",
          "type": "address"
        }
      ],
      "name": "OwnershipProposed",
      "type": "event"
    },
    {
      "anonymous": false,
      "inputs": [
        {
          "indexed": true,
          "internalType": "uint256",
          "name": "trialId",
          "type": "uint256"
        },
        {
          "indexed": false,
          "internalType": "uint256",
          "name": "milestoneIndex",
          "type": "uint256"
        }
      ],
      "name": "RewardDustSkipped",
      "type": "event"
    },
    {
      "anonymous": false,
      "inputs": [
        {
          "indexed": true,
          "internalType": "uint256",
          "name": "trialId",
          "type": "uint256"
        }
      ],
      "name": "RewardsDistributed",
      "type": "event"
    },
    {
      "inputs": [],
      "name": "DISTRIBUTE_BATCH_SIZE",
      "outputs": [
        {
          "internalType": "uint256",
          "name": "",
          "type": "uint256"
        }
      ],
      "stateMutability": "view",
      "type": "function"
    },
    {
      "inputs": [],
      "name": "MAX_PARTICIPANTS",
      "outputs": [
        {
          "internalType": "uint256",
          "name": "",
          "type": "uint256"
        }
      ],
      "stateMutability": "view",
      "type": "function"
    },
    {
      "inputs": [],
      "name": "RECLAIM_GRACE_PERIOD",
      "outputs": [
        {
          "internalType": "uint256",
          "name": "",
          "type": "uint256"
        }
      ],
      "stateMutability": "view",
      "type": "function"
    },
    {
      "inputs": [],
      "name": "acceptOwnership",
      "outputs": [],
      "stateMutability": "nonpayable",
      "type": "function"
    },
    {
      "inputs": [],
      "name": "automationContract",
      "outputs": [
        {
          "internalType": "address",
          "name": "",
          "type": "address"
        }
      ],
      "stateMutability": "view",
      "type": "function"
    },
    {
      "inputs": [],
      "name": "cETH",
      "outputs": [
        {
          "internalType": "contract ConfidentialETH",
          "name": "",
          "type": "address"
        }
      ],
      "stateMutability": "view",
      "type": "function"
    },
    {
      "inputs": [
        {
          "internalType": "bytes32",
          "name": "",
          "type": "bytes32"
        }
      ],
      "name": "claimAuthUsed",
      "outputs": [
        {
          "internalType": "bool",
          "name": "",
          "type": "bool"
        }
      ],
      "stateMutability": "view",
      "type": "function"
    },
    {
      "inputs": [
        {
          "internalType": "uint256",
          "name": "_trialId",
          "type": "uint256"
        },
        {
          "internalType": "uint256",
          "name": "_nullifier",
          "type": "uint256"
        },
        {
          "internalType": "address",
          "name": "_destination",
          "type": "address"
        },
        {
          "internalType": "externalEuint64",
          "name": "encryptedUnits",
          "type": "bytes32"
        },
        {
          "internalType": "bytes",
          "name": "inputProof",
          "type": "bytes"
        }
      ],
      "name": "claimParticipantRewards",
      "outputs": [],
      "stateMutability": "nonpayable",
      "type": "function"
    },
    {
      "inputs": [
        {
          "internalType": "uint256",
          "name": "_trialId",
          "type": "uint256"
        },
        {
          "internalType": "uint256",
          "name": "_nullifier",
          "type": "uint256"
        },
        {
          "internalType": "address",
          "name": "_permitHolder",
          "type": "address"
        },
        {
          "internalType": "address",
          "name": "_destination",
          "type": "address"
        },
        {
          "internalType": "uint256",
          "name": "_units",
          "type": "uint256"
        },
        {
          "internalType": "externalEuint64",
          "name": "encryptedUnits",
          "type": "bytes32"
        },
        {
          "internalType": "bytes",
          "name": "inputProof",
          "type": "bytes"
        },
        {
          "internalType": "uint256",
          "name": "_nonce",
          "type": "uint256"
        },
        {
          "internalType": "uint256",
          "name": "_deadline",
          "type": "uint256"
        },
        {
          "internalType": "bytes",
          "name": "_signature",
          "type": "bytes"
        }
      ],
      "name": "claimParticipantRewardsFor",
      "outputs": [],
      "stateMutability": "nonpayable",
      "type": "function"
    },
    {
      "inputs": [],
      "name": "confidentialProtocolId",
      "outputs": [
        {
          "internalType": "uint256",
          "name": "",
          "type": "uint256"
        }
      ],
      "stateMutability": "view",
      "type": "function"
    },
    {
      "inputs": [],
      "name": "dataAccessLog",
      "outputs": [
        {
          "internalType": "contract DataAccessLog",
          "name": "",
          "type": "address"
        }
      ],
      "stateMutability": "view",
      "type": "function"
    },
    {
      "inputs": [
        {
          "internalType": "uint256",
          "name": "_trialId",
          "type": "uint256"
        }
      ],
      "name": "distribute",
      "outputs": [],
      "stateMutability": "nonpayable",
      "type": "function"
    },
    {
      "inputs": [
        {
          "internalType": "uint256",
          "name": "_trialId",
          "type": "uint256"
        },
        {
          "internalType": "address",
          "name": "_participant",
          "type": "address"
        },
        {
          "internalType": "uint256",
          "name": "_milestoneIndex",
          "type": "uint256"
        }
      ],
      "name": "distributeMilestoneToParticipant",
      "outputs": [],
      "stateMutability": "nonpayable",
      "type": "function"
    },
    {
      "inputs": [
        {
          "internalType": "uint256",
          "name": "_trialId",
          "type": "uint256"
        },
        {
          "internalType": "uint256",
          "name": "_milestoneIndex",
          "type": "uint256"
        }
      ],
      "name": "distributePartial",
      "outputs": [],
      "stateMutability": "nonpayable",
      "type": "function"
    },
    {
      "inputs": [
        {
          "internalType": "uint256",
          "name": "_trialId",
          "type": "uint256"
        },
        {
          "internalType": "uint256",
          "name": "_milestoneIndex",
          "type": "uint256"
        },
        {
          "internalType": "uint256",
          "name": "_startIndex",
          "type": "uint256"
        },
        {
          "internalType": "uint256",
          "name": "_batchSize",
          "type": "uint256"
        }
      ],
      "name": "distributePartialPaginated",
      "outputs": [],
      "stateMutability": "nonpayable",
      "type": "function"
    },
    {
      "inputs": [],
      "name": "eip712Domain",
      "outputs": [
        {
          "internalType": "bytes1",
          "name": "fields",
          "type": "bytes1"
        },
        {
          "internalType": "string",
          "name": "name",
          "type": "string"
        },
        {
          "internalType": "string",
          "name": "version",
          "type": "string"
        },
        {
          "internalType": "uint256",
          "name": "chainId",
          "type": "uint256"
        },
        {
          "internalType": "address",
          "name": "verifyingContract",
          "type": "address"
        },
        {
          "internalType": "bytes32",
          "name": "salt",
          "type": "bytes32"
        },
        {
          "internalType": "uint256[]",
          "name": "extensions",
          "type": "uint256[]"
        }
      ],
      "stateMutability": "view",
      "type": "function"
    },
    {
      "inputs": [],
      "name": "eligibilityEngine",
      "outputs": [
        {
          "internalType": "contract EligibilityEngine",
          "name": "",
          "type": "address"
        }
      ],
      "stateMutability": "view",
      "type": "function"
    },
    {
      "inputs": [
        {
          "internalType": "uint256",
          "name": "_trialId",
          "type": "uint256"
        }
      ],
      "name": "fundTrial",
      "outputs": [],
      "stateMutability": "payable",
      "type": "function"
    },
    {
      "inputs": [
        {
          "internalType": "uint256",
          "name": "_trialId",
          "type": "uint256"
        }
      ],
      "name": "getEncryptedPoolSize",
      "outputs": [
        {
          "internalType": "euint64",
          "name": "",
          "type": "bytes32"
        }
      ],
      "stateMutability": "view",
      "type": "function"
    },
    {
      "inputs": [
        {
          "internalType": "uint256",
          "name": "_trialId",
          "type": "uint256"
        }
      ],
      "name": "getParticipantCount",
      "outputs": [
        {
          "internalType": "uint256",
          "name": "",
          "type": "uint256"
        }
      ],
      "stateMutability": "view",
      "type": "function"
    },
    {
      "inputs": [
        {
          "internalType": "uint256",
          "name": "_trialId",
          "type": "uint256"
        }
      ],
      "name": "getTotalDeposited",
      "outputs": [
        {
          "internalType": "uint256",
          "name": "",
          "type": "uint256"
        }
      ],
      "stateMutability": "view",
      "type": "function"
    },
    {
      "inputs": [
        {
          "internalType": "uint256",
          "name": "_trialId",
          "type": "uint256"
        }
      ],
      "name": "isDistributed",
      "outputs": [
        {
          "internalType": "bool",
          "name": "",
          "type": "bool"
        }
      ],
      "stateMutability": "view",
      "type": "function"
    },
    {
      "inputs": [
        {
          "internalType": "uint256",
          "name": "_trialId",
          "type": "uint256"
        },
        {
          "internalType": "address",
          "name": "_participant",
          "type": "address"
        }
      ],
      "name": "isParticipantRegistered",
      "outputs": [
        {
          "internalType": "bool",
          "name": "",
          "type": "bool"
        }
      ],
      "stateMutability": "view",
      "type": "function"
    },
    {
      "inputs": [
        {
          "internalType": "uint256",
          "name": "_trialId",
          "type": "uint256"
        }
      ],
      "name": "isPoolFunded",
      "outputs": [
        {
          "internalType": "bool",
          "name": "",
          "type": "bool"
        }
      ],
      "stateMutability": "view",
      "type": "function"
    },
    {
      "inputs": [
        {
          "internalType": "uint256",
          "name": "",
          "type": "uint256"
        },
        {
          "internalType": "uint256",
          "name": "",
          "type": "uint256"
        }
      ],
      "name": "lastProcessedIndex",
      "outputs": [
        {
          "internalType": "uint256",
          "name": "",
          "type": "uint256"
        }
      ],
      "stateMutability": "view",
      "type": "function"
    },
    {
      "inputs": [
        {
          "internalType": "uint256",
          "name": "",
          "type": "uint256"
        },
        {
          "internalType": "uint256",
          "name": "",
          "type": "uint256"
        }
      ],
      "name": "milestoneDistributed",
      "outputs": [
        {
          "internalType": "bool",
          "name": "",
          "type": "bool"
        }
      ],
      "stateMutability": "view",
      "type": "function"
    },
    {
      "inputs": [
        {
          "internalType": "uint256",
          "name": "",
          "type": "uint256"
        },
        {
          "internalType": "uint256",
          "name": "",
          "type": "uint256"
        }
      ],
      "name": "milestoneDistributedWei",
      "outputs": [
        {
          "internalType": "uint256",
          "name": "",
          "type": "uint256"
        }
      ],
      "stateMutability": "view",
      "type": "function"
    },
    {
      "inputs": [],
      "name": "milestoneManager",
      "outputs": [
        {
          "internalType": "contract TrialMilestoneManager",
          "name": "",
          "type": "address"
        }
      ],
      "stateMutability": "view",
      "type": "function"
    },
    {
      "inputs": [
        {
          "internalType": "uint256",
          "name": "",
          "type": "uint256"
        },
        {
          "internalType": "uint256",
          "name": "",
          "type": "uint256"
        }
      ],
      "name": "milestoneRemainderPaid",
      "outputs": [
        {
          "internalType": "bool",
          "name": "",
          "type": "bool"
        }
      ],
      "stateMutability": "view",
      "type": "function"
    },
    {
      "inputs": [],
      "name": "owner",
      "outputs": [
        {
          "internalType": "address",
          "name": "",
          "type": "address"
        }
      ],
      "stateMutability": "view",
      "type": "function"
    },
    {
      "inputs": [
        {
          "internalType": "uint256",
          "name": "",
          "type": "uint256"
        },
        {
          "internalType": "uint256",
          "name": "",
          "type": "uint256"
        }
      ],
      "name": "paginationStarted",
      "outputs": [
        {
          "internalType": "bool",
          "name": "",
          "type": "bool"
        }
      ],
      "stateMutability": "view",
      "type": "function"
    },
    {
      "inputs": [
        {
          "internalType": "uint256",
          "name": "",
          "type": "uint256"
        },
        {
          "internalType": "address",
          "name": "",
          "type": "address"
        },
        {
          "internalType": "uint256",
          "name": "",
          "type": "uint256"
        }
      ],
      "name": "participantMilestonePaid",
      "outputs": [
        {
          "internalType": "bool",
          "name": "",
          "type": "bool"
        }
      ],
      "stateMutability": "view",
      "type": "function"
    },
    {
      "inputs": [],
      "name": "pendingOwner",
      "outputs": [
        {
          "internalType": "address",
          "name": "",
          "type": "address"
        }
      ],
      "stateMutability": "view",
      "type": "function"
    },
    {
      "inputs": [
        {
          "internalType": "address",
          "name": "_newOwner",
          "type": "address"
        }
      ],
      "name": "proposeOwnership",
      "outputs": [],
      "stateMutability": "nonpayable",
      "type": "function"
    },
    {
      "inputs": [
        {
          "internalType": "uint256",
          "name": "_trialId",
          "type": "uint256"
        }
      ],
      "name": "reclaimAbandonedToOwner",
      "outputs": [],
      "stateMutability": "nonpayable",
      "type": "function"
    },
    {
      "inputs": [
        {
          "internalType": "uint256",
          "name": "",
          "type": "uint256"
        }
      ],
      "name": "reclaimFinalized",
      "outputs": [
        {
          "internalType": "bool",
          "name": "",
          "type": "bool"
        }
      ],
      "stateMutability": "view",
      "type": "function"
    },
    {
      "inputs": [
        {
          "internalType": "uint256",
          "name": "_trialId",
          "type": "uint256"
        }
      ],
      "name": "reclaimUndistributed",
      "outputs": [],
      "stateMutability": "nonpayable",
      "type": "function"
    },
    {
      "inputs": [
        {
          "internalType": "uint256",
          "name": "_trialId",
          "type": "uint256"
        },
        {
          "internalType": "uint256",
          "name": "_nullifier",
          "type": "uint256"
        }
      ],
      "name": "registerAnonymousParticipant",
      "outputs": [],
      "stateMutability": "nonpayable",
      "type": "function"
    },
    {
      "inputs": [
        {
          "internalType": "uint256",
          "name": "_trialId",
          "type": "uint256"
        },
        {
          "internalType": "uint256",
          "name": "_nullifier",
          "type": "uint256"
        },
        {
          "internalType": "address",
          "name": "_permitHolder",
          "type": "address"
        },
        {
          "internalType": "uint256",
          "name": "_nonce",
          "type": "uint256"
        },
        {
          "internalType": "uint256",
          "name": "_deadline",
          "type": "uint256"
        },
        {
          "internalType": "bytes",
          "name": "_signature",
          "type": "bytes"
        }
      ],
      "name": "registerAnonymousParticipantFor",
      "outputs": [],
      "stateMutability": "nonpayable",
      "type": "function"
    },
    {
      "inputs": [
        {
          "internalType": "uint256",
          "name": "",
          "type": "uint256"
        },
        {
          "internalType": "address",
          "name": "",
          "type": "address"
        }
      ],
      "name": "registerParticipant",
      "outputs": [],
      "stateMutability": "pure",
      "type": "function"
    },
    {
      "inputs": [
        {
          "internalType": "uint256",
          "name": "_trialId",
          "type": "uint256"
        }
      ],
      "name": "requestEncryptedPoolAccess",
      "outputs": [],
      "stateMutability": "nonpayable",
      "type": "function"
    },
    {
      "inputs": [
        {
          "internalType": "uint256",
          "name": "_trialId",
          "type": "uint256"
        },
        {
          "internalType": "uint256",
          "name": "_milestoneIndex",
          "type": "uint256"
        }
      ],
      "name": "resetPaginationState",
      "outputs": [],
      "stateMutability": "nonpayable",
      "type": "function"
    },
    {
      "inputs": [
        {
          "internalType": "address",
          "name": "_automation",
          "type": "address"
        }
      ],
      "name": "setAutomationContract",
      "outputs": [],
      "stateMutability": "nonpayable",
      "type": "function"
    },
    {
      "inputs": [
        {
          "internalType": "address",
          "name": "_dataAccessLog",
          "type": "address"
        }
      ],
      "name": "setDataAccessLog",
      "outputs": [],
      "stateMutability": "nonpayable",
      "type": "function"
    },
    {
      "inputs": [
        {
          "internalType": "address",
          "name": "_milestoneManager",
          "type": "address"
        }
      ],
      "name": "setMilestoneManager",
      "outputs": [],
      "stateMutability": "nonpayable",
      "type": "function"
    },
    {
      "inputs": [
        {
          "internalType": "address",
          "name": "_registry",
          "type": "address"
        }
      ],
      "name": "setSponsorRegistry",
      "outputs": [],
      "stateMutability": "nonpayable",
      "type": "function"
    },
    {
      "inputs": [],
      "name": "sponsorRegistry",
      "outputs": [
        {
          "internalType": "contract ISponsorRegistry",
          "name": "",
          "type": "address"
        }
      ],
      "stateMutability": "view",
      "type": "function"
    },
    {
      "inputs": [],
      "name": "trialManager",
      "outputs": [
        {
          "internalType": "contract TrialManager",
          "name": "",
          "type": "address"
        }
      ],
      "stateMutability": "view",
      "type": "function"
    },
    {
      "stateMutability": "payable",
      "type": "receive"
    }
  ],
  "bytecode": "0x61016080604052346103d4576060816166b380380380916100208285610407565b8339810103126103d45780516001600160a01b03811691908290036103d45761005760406100506020840161042a565b920161042a565b91604051610066604082610407565b601e815260208101907f4d65645661756c742053706f6e736f72496e63656e746976655661756c7400008252604051916100a1604084610407565b600183526020830191603160f81b83526100b961070c565b50466001036102e8576100ca61070c565b506040516100d7816103d8565b73ca2e8f1f656cd25c01f05d0b243ab1ecd4a8ffb6815273d82385dada1ae3e969447f20a3164f6213100e7560208201527377627828a55156b04ac0dc0eb30467f1a552bb0360408201525b80517f9e7b61f58c47dc699ac88507c4f5bb9f121c03808c5676a8078fe583e464970080546001600160a01b03199081166001600160a01b039384161790915560208301517f9e7b61f58c47dc699ac88507c4f5bb9f121c03808c5676a8078fe583e4649701805483169184169190911790556040909201517f9e7b61f58c47dc699ac88507c4f5bb9f121c03808c5676a8078fe583e4649702805490931691161790556101d08161043e565b610120526101dd846105d4565b61014052519020918260e05251902080610100524660a0526040519060208201927f8b73c3c69bb8fe3d512ecc4cf759cc79239f7b179b0ffacaa9a75d522b39400f8452604083015260608201524660808201523060a082015260a0815261024660c082610407565b5190206080523060c052600880546001600160a01b03199081163317909155600280548216929092179091556003805482166001600160a01b039384161790556004805490911692909116919091179055604051615f88908161072b823960805181615a66015260a05181615b23015260c05181615a30015260e05181615ab501526101005181615adb01526101205181612d5f01526101405181612d890152f35b4662aa36a703610357576102fa61070c565b50604051610307816103d8565b73f0ffdc93b7e186bc2f8cb3daa75d86d1930a433d81527392c920834ec8941d2c77d188936e1f7a6f49c127602082015273be0e383937d564d7ff0bc3b46c51f0bf8d5c311a6040820152610123565b46617a69036103c55761036861070c565b50604051610375816103d8565b7350157cffd6bbfa2dece204a89ec419c23ef5755d815273e3a9105a3a932253a70f126eb1e3b589c643dd24602082015273901f8942346f7ab3a01f6d7613119bca447bb0306040820152610123565b6373cac13b60e01b5f5260045ffd5b5f80fd5b606081019081106001600160401b038211176103f357604052565b634e487b7160e01b5f52604160045260245ffd5b601f909101601f19168101906001600160401b038211908210176103f357604052565b51906001600160a01b03821682036103d457565b908151602081105f146104b8575090601f815111610478576020815191015160208210610469571790565b5f198260200360031b1b161790565b604460209160405192839163305a27a960e01b83528160048401528051918291826024860152018484015e5f828201840152601f01601f19168101030190fd5b6001600160401b0381116103f3575f54600181811c911680156105ca575b60208210146105b657601f8111610584575b50602092601f821160011461052557928192935f9261051a575b50508160011b915f199060031b1c1916175f5560ff90565b015190505f80610502565b601f198216935f8052805f20915f5b86811061056c5750836001959610610554575b505050811b015f5560ff90565b01515f1960f88460031b161c191690555f8080610547565b91926020600181928685015181550194019201610534565b5f8052601f60205f20910160051c810190601f830160051c015b8181106105ab57506104e8565b5f815560010161059e565b634e487b7160e01b5f52602260045260245ffd5b90607f16906104d6565b908151602081105f146105ff575090601f815111610478576020815191015160208210610469571790565b6001600160401b0381116103f357600154600181811c91168015610702575b60208210146105b657601f81116106cf575b50602092601f821160011461066e57928192935f92610663575b50508160011b915f199060031b1c19161760015560ff90565b015190505f8061064a565b601f1982169360015f52805f20915f5b8681106106b7575083600195961061069f575b505050811b0160015560ff90565b01515f1960f88460031b161c191690555f8080610691565b9192602060018192868501518155019401920161067e565b60015f52601f60205f20910160051c810190601f830160051c015b8181106106f75750610630565b5f81556001016106ea565b90607f169061061e565b60405190610719826103d8565b5f604083828152826020820152015256fe60806040526004361015610075575b3615610018575f80fd5b60405162461bcd60e51b815260206004820152602f60248201527f5573652066756e64547269616c28747269616c49642920746f2066756e64206160448201526e081cdc1958da599a58c81d1c9a585b608a1b6064820152608490fd5b5f5f3560e01c8062b6cbdf1461438d5780630689d5ed14614365578063079823091461433d5780630aed4661146140da5780630b7d662f146140b2578063289e2e9014613ffe5780632c083c9f14613fe15780632ea7ca0b14613f89578063350289ff14613ed45780633a67e67514613ea05780633b1b84ff14613dee5780633d63dd3514613a605780633ef3e1ee14613a06578063477e74b61461342e5780634f11c6901461340557806355f8cfdd146133dc57806359c56d28146133c057806362909f0a146133665780636f62c3a614613335578063710bf322146132b9578063754ad0de14612f0e57806379ba509714612e6d5780637ef4775b14612e4157806384b0196e14612d4557806386ae5fec14612d185780638927b03014612cf55780638da5cb5b14612ccc57806391c05b0b146125cc5780639a5c84551461259a5780639b827a87146120a7578063a1b4d0111461207e578063a768f2851461204f578063b807420c1461191a578063be26085e1461130f578063c3221227146112dd578063cb84e53714611290578063d84df05b14611263578063d898ef8b14611196578063dbf011c31461116d578063e30c397814611144578063e3b39cfd146109a2578063e544504614610973578063e622cffc14610946578063ef226212146108a3578063f23ee5ed146105e6578063f3baf070146105ca578063f520f24f146105705763f9d01f7b1461028f575061000e565b3461056d57602036600319011261056d576004356102b860018060a01b036008541633146149aa565b6102c76002600b5414156144a6565b6002600b55600354604051631a7f3c3360e01b81526004810183905283918290829060249082906001600160a01b03165afa908115610562578291610540575b50600a546001600160a01b03168061046d575b506101e00161032c8151421015614782565b828252600d6020526003604083200154158091811561043b575b508261041c94610395829461035b84956147d1565b828452600d60205260ff6004604086200154168015610434575b61037e90614818565b61038783615493565b90811561042c575b50614864565b80825260116020526103ae60ff604084205416156148af565b808252600d6020526103d46040832054828452600d6020526001604085200154906148ef565b9047808311610424575b506103ea8215156148fc565b8252601160205260408220805460ff191660011790556008546001600160a01b03165af161041661493d565b5061496c565b6001600b5580f35b91505f6103de565b90505f61038f565b5080610375565b91925050516276a70081018091116104595783919042101582610346565b634e487b7160e01b84526011600452602484fd5b608082015160405163353224d760e11b81526001600160a01b039091166004820152919250602090829060249082905afa9081156105355784916104f7575b506104b95782905f61031a565b60405162461bcd60e51b815260206004820152601660248201527514dc1bdb9cdbdc881cdd1a5b1b081d995c9a599a595960521b6044820152606490fd5b90506020813d60201161052d575b81610512602093836144f2565b81010312610529576105239061459e565b5f6104ac565b8380fd5b3d9150610505565b6040513d86823e3d90fd5b61055c91503d8084833e61055481836144f2565b8101906145c8565b5f610307565b6040513d84823e3d90fd5b80fd5b503461056d57602036600319011261056d5761058a6143d3565b61059f60018060a01b036008541633146149aa565b6001600160a01b03166105b38115156149e3565b600680546001600160a01b03191691909117905580f35b503461056d578060031936011261056d57602060405160c88152f35b503461056d5760a036600319011261056d576004356106036143e9565b906084356001600160401b038111610529576106256044913690600401614455565b90936106366002600b5414156144a6565b6002600b55602060018060a01b03600454166040519485809263cd5d36dd60e01b825260243560048301528860248301525afa92831561089857869361085c575b506001600160a01b0383169461068e861515614a5b565b6001600160a01b0382166106a3811515614ae5565b8633036108225733036107d3578693858552600d60205260056040862001875f526020526106d760ff60405f205416614b6c565b6002546001600160a01b031690813b156107cf57858094610712604051978896879586946305c21ce760e31b86526064359160048701614c4b565b03925af18015610562576107b6575b505060025460405163455a25e560e11b81526004810184905290602090829060249082906001600160a01b03165afa90811561053557849161077f575b5060205f516020615f5c5f395f51905f5291604051908152a36001600b5580f35b90506020813d6020116107ae575b8161079a602093836144f2565b810103126107aa5751602061075e565b5f80fd5b3d915061078d565b816107c0916144f2565b6107cb57825f610721565b8280fd5b8580fd5b60405162461bcd60e51b815260206004820152602160248201527f44657374696e6174696f6e206d757374206265207065726d697420686f6c64656044820152603960f91b6064820152608490fd5b60405162461bcd60e51b815260206004820152601260248201527127b7363c903832b936b4ba103437b63232b960711b6044820152606490fd5b9092506020813d602011610890575b81610878602093836144f2565b810103126107cf576108899061458a565b915f610677565b3d915061086b565b6040513d88823e3d90fd5b503461056d57604036600319011261056d576108bd6143ff565b5060405162461bcd60e51b815260206004820152605460248201527f4c656761637920726567697374726174696f6e20646570726563617465642e2060448201527f557365207265676973746572416e6f6e796d6f75735061727469636970616e7460648201527314373ab63634b334b2b9149034b739ba32b0b21760611b608482015260a490fd5b503461056d57604060209161095a3661443f565b9082526015845282822090825283522054604051908152f35b503461056d57602036600319011261056d5760ff60406020926004358152600c84522054166040519015158152f35b503461056d57608036600319011261056d57606435906109c76002600b5414156144a6565b6002600b556007546001600160a01b0316331480156110d2575b6109ea90614a1e565b60043581526011602052610a0560ff60408320541615614cdb565b60055460249082906001600160a01b0316610a21811515614c93565b8235156110af575b6004358252600e6020526040822083358352602052610a4f60ff60408420541615614d32565b6040519283809263010b152760e61b825260043560048301525afa9081156105625790610a8891839161108d575b505160243510614e7f565b6004358152600d602052600360408220015491610aa6831515615280565b82604435101561105257600354604051631a7f3c3360e01b81526004803590820152908390829060249082906001600160a01b03165afa9081156110475790610b0391849161102d575b50608001516001600160a01b03166153c1565b604435610fc9576004358252601260205260408220602435835260205260408220600160ff198254161790555b82610b3d826044356147c4565b1115610fb75750815b610b546024356004356155a0565b93610b68610b628487614ede565b836148ef565b9084915f19946044355b838110610e265750610c4f95969750821495868097610e1b575b80610e12575b610d78575b50506004358652600d602052610bcd610bb783600160408a2001546147c4565b6004358852600d602052604088205410156152dc565b6004358652601360205260408620602435875260205260408620556004358552600d60205260016040862001610c048282546147c4565b905560043585526015602052604085206024358652602052610c2b604086209182546147c4565b90556004358452601560205260408420602435855260205260408420541115615369565b610d2c575b60065481906001600160a01b031680610c8e575b5060405160243581525f516020615edc5f395f51905f52602060043592a26001600b5580f35b6040516020810190701410549512505317d41051d25390551151607a1b82526024356031820152604435605182015242607182015260718152610cd26091826144f2565b51902090803b15610d2857610d0483929183926040519485809481936306cc173360e41b835260043560048401614f39565b03925af180156105625715610c685781610d1d916144f2565b61056d57805f610c68565b5050fd5b6004358152600e60205260408120602435825260205260408120600160ff19825416179055602435610c5457600480358252600d6020526040822001805460ff19166001179055610c54565b610e0a929391610de7610e04926004358b52601460205260408b206024358c52602052610dac60ff60408d20541615615324565b6004358b52601460205260408b206024358c5260205260408b20600160ff198254161790556004358b52600d602052600360408c20016151aa565b905460039190911b1c6001600160a01b0316602435600435615769565b906147c4565b905f80610b97565b50811515610b92565b505f19811415610b8c565b6004358852600d60205288610e4182600360408c20016151aa565b905460039190911b1c6001600160a01b0316602435801590610f02575b80610ecb575b610e73575b5050600101610b72565b610ec2939692985090610e04916004358b52600f60205260408b2060018060a01b0382165f5260205260405f206024358c5260205260408b20600160ff19825416179055602435600435615769565b9285885f610e69565b506004358a52600f60205260408a2060018060a01b0382165f5260205260405f206024358b5260205260ff60408b20541615610e64565b506005546040516313981ba960e31b815291925060209082906001600160a01b03168180610f368760048035908401614ec5565b03915afa908115610fac578a91610f7b575b5060016024350160243511610f6757908a916001602435011115610e5e565b634e487b7160e01b8a52601160045260248afd5b90506020813d8211610fa4575b81610f95602093836144f2565b810103126107aa57515f610f48565b3d9150610f88565b6040513d8c823e3d90fd5b610fc3906044356147c4565b91610b46565b6004358252601360205260408220602435835260205260408220546044350315610b305760405162461bcd60e51b815260206004820152601860248201527710985d18da081b5d5cdd081899481cd95c5d595b9d1a585b60421b6044820152606490fd5b61104191503d8086833e61055481836144f2565b5f610af0565b6040513d85823e3d90fd5b60405162461bcd60e51b8152602060048201526013602482015272092dcecc2d8d2c840e6e8c2e4e840d2dcc8caf606b1b6044820152606490fd5b6110a991503d8085833e6110a181836144f2565b810190614d7e565b5f610a7d565b6004358252600d6020526110cd60ff60046040852001541615615234565b610a29565b50600354604051631a7f3c3360e01b81526004803590820152908290829060249082906001600160a01b03165afa90811561056257906109ea91839161112a575b50608001516001600160a01b0316331490506109e1565b61113e91503d8085833e61055481836144f2565b5f611113565b503461056d578060031936011261056d576009546040516001600160a01b039091168152602090f35b503461056d578060031936011261056d57600a546040516001600160a01b039091168152602090f35b503461056d57602036600319011261056d57600354604051631a7f3c3360e01b815260048035908201819052918390829060249082906001600160a01b03165afa908115611047578391611249575b50608001516001600160a01b03163303611215578152600d6020526112113360026040842001546158d9565b5080f35b60405162461bcd60e51b815260206004820152600c60248201526b27b7363c9039b837b739b7b960a11b6044820152606490fd5b61125d91503d8085833e61055481836144f2565b5f6111e5565b503461056d5760406020916112773661443f565b9082526013845282822090825283522054604051908152f35b503461056d57604036600319011261056d57600560406112ae6143ff565b926004358152600d60205220019060018060a01b03165f52602052602060ff60405f2054166040519015158152f35b503461056d5760ff60406020926112f33661443f565b908252600e855282822090825284522054166040519015158152f35b50602036600319011261056d57600354604051631a7f3c3360e01b815260048035908201819052918390829060249082906001600160a01b03165afa908115611047578391611900575b506080810180519091906001600160a01b031633036118c35760a08101511561188b576101e0015142101561185057341561181b576002546040516358ac71cd60e11b815290602090829060049082906001600160a01b03165afa9081156105355784916117e9575b506001600160401b0380820291908204036104595734116117b157818352600d60205260ff600460408520015460081c1661175c57818352600d6020526040832061140e3482546147c4565b9055818352600d60205260408320549060018060a01b0360025416916040516358ac71cd60e11b8152602081600481875afa8015610898578690611728575b6001600160401b039261146092506152be565b116116e457600460208593604051928380926358ac71cd60e11b82525afa9081156110475783916116ad575b506020906001600160401b03906114a390346152be565b5f516020615efc5f395f51905f5254604051639cd07acb60e01b81529190921660048201526005602482015293849160449183916001600160a01b03165af1918215610535578492611679575b50828452600d60205260408420600201541561166057828452600d602052600260408520015491808315611650575b1561163e575b602090606460018060a01b035f516020615efc5f395f51905f5254169487604051968794859363022f65e760e31b8552600485015260248401528160448401525af1801561053557849061160a575b6115cd9250838552600d60205260026040862001555b828452600d602052600260408520015480156115f7575b6115ac903090615df2565b828452600d602052604084206002015490516001600160a01b0316906158d9565b5033907fc9ed46c3457a9cf96f25ce7f957f07e28bc05fcdc5fee1edff097f3c13e616d98380a380f35b506115ac611603615857565b90506115a1565b506020823d602011611636575b81611624602093836144f2565b810103126107aa576115cd9151611574565b3d9150611617565b506020611649615857565b9050611525565b925061165a615857565b9261151f565b6115cd91838552600d602052600260408620015561158a565b9091506020813d6020116116a5575b81611695602093836144f2565b810103126107aa5751905f6114f0565b3d9150611688565b9250506020823d6020116116dc575b816116c9602093836144f2565b810103126107aa5760208492519061148c565b3d91506116bc565b60405162461bcd60e51b815260206004820152601c60248201527b456e6372797074656420706f6f6c2073697a65206f766572666c6f7760201b6044820152606490fd5b506020813d602011611754575b81611742602093836144f2565b810103126107aa57611460905161144d565b3d9150611735565b60405162461bcd60e51b815260206004820152602760248201527f46756e64696e67206c6f636b656420616674657220726567697374726174696f60448201526637103132b3b0b760c91b6064820152608490fd5b60405162461bcd60e51b815260206004820152601060248201526f416d6f756e7420746f6f206c6172676560801b6044820152606490fd5b90506020813d602011611813575b81611804602093836144f2565b810103126107aa57515f6113c2565b3d91506117f7565b60405162461bcd60e51b815260206004820152600d60248201526c09aeae6e840e6cadcc8408aa89609b1b6044820152606490fd5b60405162461bcd60e51b8152602060048201526013602482015272151c9a585b08185b1c9958591e48195b991959606a1b6044820152606490fd5b60405162461bcd60e51b815260206004820152601060248201526f547269616c206e6f742061637469766560801b6044820152606490fd5b60405162461bcd60e51b815260206004820152601560248201527413db9b1e481cdc1bdb9cdbdc8818d85b88199d5b99605a1b6044820152606490fd5b61191491503d8085833e61055481836144f2565b5f611359565b503461056d576119293661443f565b919061193a6002600b5414156144a6565b6002600b556007546001600160a01b031633148015611fde575b61195d90614a1e565b808252601160205261197660ff60408420541615614cdb565b80825260126020526040822083835260205260ff604083205416611fa1576005546001600160a01b0316926119ac841515614c93565b818352600e602052604083208184526020526119cf60ff60408520541615614d32565b818352600d60205260036040842001546119ea811515615280565b600354604051631a7f3c3360e01b815260048101859052908590829060249082906001600160a01b03165afa908115611f965790611a3b918691611f825750608001516001600160a01b03166153c1565b611a4582846155a0565b959091611a5b611a558289614ede565b846148ef565b90611a6884471015614ef1565b858752600d602052611a98611a8485600160408b2001546147c4565b878952600d602052604089205410156152dc565b8697879886159485159a5b8b8b8b878410611e6457505050505015611e245787935f1999895b848110611cb7575050505050611b40939495965f1981141580611cae575b611c2a575b5050848652600d60205260016040872001611afd8282546147c4565b9055848652601560205260408620848752602052611b20604087209182546147c4565b905583855260156020526040852083865260205260408520541115615369565b818352600e602090815260408085208386529091528320805460ff1916600117905560065483906001600160a01b031680611b98575b505060205f516020615edc5f395f51905f5291604051908152a26001600b5580f35b6040516020810190732820a92a24a0a62fa224a9aa2924a12aaa24a7a760611b825284603482015242605482015260548152611bd56074826144f2565b51902090803b156107cb576040516306cc173360e41b81529183918391829084908290611c06908b60048401614f39565b03925af180156105625715611b765781611c1f916144f2565b6107cb57825f611b76565b611ca79291611c8e610e0492898b52601460205260408b20898c52602052611c5960ff60408d20541615615324565b898b52601460205260408b20898c5260205260408b20600160ff19825416179055898b52600d602052600360408c20016151aa565b905460039190911b1c6001600160a01b03168789615769565b5f80611ae1565b50811515611adc565b611ccf81600360408e8e8152600d60205220016151aa565b905460039190911b1c6001600160a01b03168383611d7e575b80611d4b575b611cfc575b50600101611abe565b611d429297919c5084610e049160408e8e8152600f60205281812060018060a01b0384165f526020528d825f2090825260205220600160ff198254161790558b8d615769565b948a6001611cf3565b508a8c52600f60205260408c2060018060a01b0382165f5260205260405f208a8d5260205260ff60408d20541615611cee565b50611dae6020828d60018060a01b0360055416906040518095819482936313981ba960e31b845260048401614ec5565b03915afa908115611e19578d91611de8575b5060018b0190818c11611dd4571015611ce8565b634e487b7160e01b8e52601160045260248efd5b90506020813d8211611e11575b81611e02602093836144f2565b810103126107aa57515f611dc0565b3d9150611df5565b6040513d8f823e3d90fd5b60405162461bcd60e51b81526020600482015260186024820152774e6f20656c696769626c65207061727469636970616e747360401b6044820152606490fd5b60036040838693611e7c9552600d60205220016151aa565b9054899260039290921b1c6001600160a01b031690611f05575b81611ed0575b50611eaa575b600101611aa3565b915f198114611ebc5760010191611ea2565b634e487b7160e01b8b52601160045260248bfd5b90508a8c52600f60205260408c209060018060a01b03165f5260205260405f20898c5260205260ff60408c205416155f611e9c565b9050611f296020828d60405193849283926313981ba960e31b845260048401614ec5565b0381875afa908115611e19578d91611f51575b5060018b0190818c11611dd457101590611e96565b90506020813d8211611f7a575b81611f6b602093836144f2565b810103126107aa57515f611f3c565b3d9150611f5e565b61104191503d8088833e61055481836144f2565b6040513d87823e3d90fd5b60405162461bcd60e51b81526020600482015260156024820152742ab9b2903830b3b4b730ba32b2103b32b939b4b7b760591b6044820152606490fd5b50600354604051631a7f3c3360e01b815260048101839052908390829060249082906001600160a01b03165afa908115611047579061195d918491612035575b50608001516001600160a01b031633149050611954565b61204991503d8086833e61055481836144f2565b5f61201e565b503461056d57602036600319011261056d5760ff60406020926004358152601184522054166040519015158152f35b503461056d578060031936011261056d576002546040516001600160a01b039091168152602090f35b503461056d5760c036600319011261056d576120c16143e9565b60a4356001600160401b0381116107cb576120e0903690600401614455565b91906004358452600d60205260408420926120fd84541515614f6b565b61210e60ff60048601541615614fab565b60018060a01b0360045416926040519363cd5d36dd60e01b855260243560048601526004356024860152602085604481845afa94851561251b57879561255e575b506121646001600160a01b0386161515614a5b565b61217b6001600160a01b0383811690871614614aa0565b6001600160a01b0385165f9081526005870160205260409020546121a29060ff1615614ff5565b6121b260c8600388015410615036565b600435875260106020526040872060243588526020526121d960ff60408920541615615075565b60405163b6e4033f60e01b815260243560048201526004356024820152602081604481855afa9182156125535761222860026044946020948c91612526575b50612222816150e9565b14615107565b60405192838092637f8c99d760e01b8252602435600483015260043560248301525afa90811561251b5787916124d0575b5061234f9261226a61234692615162565b612278608435421115614b2c565b61234060405160208101906122a88161229a6064356024356004358b88614bb1565b03601f1981018352826144f2565b51902095868a52600c6020526122c560ff60408c20541615614bd5565b61233860405160208101907f19dfaff0b0d2be8694bc0be1363e937e5197470eb2875dda9084835bc0f8a7b682526004356040820152602435606082015260018060a01b038816608082015260643560a082015260843560c082015260c0815261233060e0826144f2565b51902061557a565b923691614c15565b90615b49565b90939193615b83565b6001600160a01b0390811691160361248e5783926005918452600c60205260408420600160ff198254161790556004358452601060205260408420602435855260205260408420600160ff19825416179055600381015415612478575b6123b983600383016151d3565b6001600160a01b038381165f908152929091016020526040909120805460ff19166001179055600654169081612405575b826024356004355f516020615f1c5f395f51905f528380a380f35b60405161241c8161229a6020820194429086615214565b51902090803b15610d285761244e83929183926040519485809481936306cc173360e41b835260043560048401614f52565b03925af1801561056257612463575b806123ea565b8161246d916144f2565b61056d57805f61245d565b60048101805461ff0019166101001790556123ac565b60405162461bcd60e51b815260206004820152601a602482015279496e76616c6964207265676973746572207369676e617475726560301b6044820152606490fd5b90506020813d602011612513575b816124eb602093836144f2565b8101031261250f5761234f9261226a6125066123469361459e565b92505092612259565b8680fd5b3d91506124de565b6040513d89823e3d90fd5b6125469150853d871161254c575b61253e81836144f2565b8101906150d1565b5f612218565b503d612534565b6040513d8a823e3d90fd5b9094506020813d602011612592575b8161257a602093836144f2565b8101031261250f5761258b9061458a565b935f61214f565b3d915061256d565b503461056d5760ff60406020926125b03661443f565b9082526012855282822090825284522054166040519015158152f35b503461056d57602036600319011261056d576004356125f06002600b5414156144a6565b6002600b556007546001600160a01b031633148015612c5d575b61261390614a1e565b808252601160205261262c60ff60408420541615614cdb565b600354604051631a7f3c3360e01b815260048101839052908390829060249082906001600160a01b03165afa908115611047578391612c43575b506101e0810190815115612c07576126846126c99251421015614782565b828452600d60205261269b60408520541515614f6b565b828452600d6020526126b760ff60046040872001541615615234565b608001516001600160a01b03166153c1565b808252600d60205260036040832001546126e4811515615280565b60328111612bab57818352600d60205260408320549061270682471015614ef1565b6005546001600160a01b03168015159290859084612b59575b50508215612a995750828452600d6020526003604085200154612743811515615280565b60055460249086906001600160a01b031661275f811515614c93565b6040519283809263010b152760e61b82528960048301525afa908115610898578691612a7f575b5061279381511515614e7f565b848652600d602052604086205490805115612a6b576127106127c76127e09361ffff6020806127cf96015101511690614ede565b0492836152be565b916127da8484614ede565b906148ef565b9085925f1991875b8281106129ba575050505f19811415806129b1575b612951575b50505b828452600d60205261281f600160408620019182546147c4565b9055818352600d60205260408320600401805460ff19166001179055612913575b60065482906001600160a01b031680612881575b50807f6d1c76d614228b523baa4dcd9539e2c713b54ff4ab3ff2d1627e7f6cd32be44291a26001600b5580f35b60405160208101907529a1a922a2a724a723afa224a9aa2924a12aaa24a7a760511b8252426036820152603681526128ba6056826144f2565b51902090803b156107cb576040516306cc173360e41b815291839183918290849082906128eb908a60048401614f39565b03925af1801561056257156128545781612904916144f2565b61290f57815f612854565b5080fd5b808252600e6020526040822082805260205260408220600160ff19825416179055805f516020615edc5f395f51905f526020604051858152a2612840565b6129aa9291612992610e049287895260146020526040892089805260205260408920600160ff19825416179055878952600d602052600360408a20016151aa565b905460039190911b1c6001600160a01b031686615664565b5f80612802565b508115156127fd565b878952600d6020526129d281600360408c20016151aa565b60018060a01b0391549060031b1c16888a52600f60205260408a2060018060a01b0382165f5260205260405f208a805260205260ff60408b20541615612a1c575b506001016127e8565b82612a629397929550610e04918a8c52600f60205260408c2060018060a01b0382165f5260205260405f208c805260205260408c20600160ff198254161790558a615664565b93826001612a13565b634e487b7160e01b87526032600452602487fd5b612a9391503d8088833e6110a181836144f2565b5f612786565b90612ab2612aa782846152be565b926127da8385614ede565b9085925f199187905b8888828410612b105750505050505f1981141580612b07575b612ae0575b5050612805565b612b009291612992610e0492878952600d602052600360408a20016151aa565b5f80612ad9565b50811515612ad4565b83955093612b35612b4d946003604085859c9799610e049752600d60205220016151aa565b905460039190911b1c6001600160a01b03168a615664565b93600183019091612abb565b60249294506040519283809263010b152760e61b82528860048301525afa908115611f96578591612b91575b5051151591845f61271f565b612ba591503d8087833e6110a181836144f2565b5f612b85565b60405162461bcd60e51b815260206004820152602e60248201527f55736520646973747269627574655061727469616c506167696e61746564206660448201526d6f72206c6172676520706f6f6c7360901b6064820152608490fd5b60405162461bcd60e51b8152602060048201526014602482015273151c9a585b08191bd95cc81b9bdd08195e1a5cdd60621b6044820152606490fd5b612c5791503d8085833e61055481836144f2565b5f612666565b50600354604051631a7f3c3360e01b815260048101839052908390829060249082906001600160a01b03165afa801561104757612613918491612cb2575b50608001516001600160a01b03163314905061260a565b612cc691503d8086833e61055481836144f2565b5f612c9b565b503461056d578060031936011261056d576008546040516001600160a01b039091168152602090f35b503461056d578060031936011261056d576020612d10615828565b604051908152f35b503461056d57602036600319011261056d57600360406020926004358152600d8452200154604051908152f35b503461056d578060031936011261056d57612de590612d837f0000000000000000000000000000000000000000000000000000000000000000615bff565b90612dad7f0000000000000000000000000000000000000000000000000000000000000000615d22565b906020612df360405193612dc183866144f2565b8385525f368137604051968796600f60f81b885260e08589015260e0880190614482565b908682036040880152614482565b904660608601523060808601528260a086015284820360c08601528080855193848152019401925b828110612e2a57505050500390f35b835185528695509381019392810192600101612e1b565b503461056d57602036600319011261056d5760406020916004358152600d835220541515604051908152f35b503461056d578060031936011261056d576009546001600160a01b0381169033829003612ed457600880546001600160a01b03199081168417909155166009557fb27970c1714b28277b78cc17ac2fe9556e7f048cd48358cffe3dc7d547608fdc8280a280f35b60405162461bcd60e51b81526020600482015260126024820152712737ba10383937b837b9b2b21037bbb732b960711b6044820152606490fd5b503461056d57612f1d3661443f565b90808352600d60205260408320612f3681541515614f6b565b6004810190612f4960ff83541615614fab565b6004805460405163cd5d36dd60e01b8152918201869052602482018590529091906001600160a01b0316602083604481845afa92831561251b57879361327d575b506001600160a01b03831690612fa1821515614a5b565b8760036005850194845f5285602052612fc160ff60405f20541615614ff5565b0191612fd060c8845410615036565b878252601060205260408220898352602052612ff360ff60408420541615615075565b6040519063b6e4033f60e01b8252896004830152886024830152602082604481845afa91821561104757600260209361303892604496916125265750612222816150e9565b60405192838092637f8c99d760e01b82528c60048301528b60248301525afa801561323357899061323e575b61306e9150615162565b600354604051631a7f3c3360e01b815260048101889052908990829060249082906001600160a01b03165afa908115613233578991613219575b50823314908115613202575b50156131b157836130f09189968888526010602052604088208a895260205260408820600160ff1982541617905581541561319e575b506151d3565b5f5260205260405f20600160ff1982541617905560018060a01b0360065416908161312c575b5050805f516020615f1c5f395f51905f5291a380f35b6040516131438161229a6020820194429086615214565b51902090803b156107cb576040516306cc173360e41b81529183918391829084908290613174908a60048401614f52565b03925af1801561056257613189575b80613116565b81613193916144f2565b6107cb57825f613183565b805461ff0019166101001790555f6130ea565b60405162461bcd60e51b8152602060048201526024808201527f4f6e6c792070617469656e74206f722073706f6e736f722063616e207265676960448201526339ba32b960e11b6064820152608490fd5b608001516001600160a01b0316331490505f6130b4565b61322d91503d808b833e61055481836144f2565b5f6130a8565b6040513d8b823e3d90fd5b506020813d602011613275575b81613258602093836144f2565b810103126132715761326c61306e9161459e565b613064565b8880fd5b3d915061324b565b9092506020813d6020116132b1575b81613299602093836144f2565b8101031261250f576132aa9061458a565b915f612f8a565b3d915061328c565b503461056d57602036600319011261056d576132d36143d3565b6132e860018060a01b036008541633146149aa565b6001600160a01b03166132fc8115156149e3565b600980546001600160a01b031916821790557f6ab4d119f23076e8ad491bc65ce85f017fb0591dce08755ba8591059cc51737a8280a280f35b503461056d57602036600319011261056d5760ff6004604060209382358152600d8552200154166040519015158152f35b503461056d57602036600319011261056d576133806143d3565b61339560018060a01b036008541633146149aa565b6001600160a01b03166133a98115156149e3565b600780546001600160a01b03191691909117905580f35b503461056d578060031936011261056d57602060405160328152f35b503461056d578060031936011261056d576003546040516001600160a01b039091168152602090f35b503461056d578060031936011261056d576004546040516001600160a01b039091168152602090f35b503461056d5761343d36614415565b9061344d6002600b5414156144a6565b6002600b558115806139b0576005546001600160a01b0316613470811515614c93565b600354604051631a7f3c3360e01b815260048101879052908790829060249082906001600160a01b03165afa801561251b576134e5918891613996575b506007546001600160a01b031633148015613980575b6134cc90614a1e565b86885260116020526126b760ff60408a20541615614cdb565b848652600e6020526040862084875260205261350860ff60408820541615614d32565b848652600d6020526005604087200160018060a01b0384165f5260205260ff60405f2054161561393e5760405163010b152760e61b8152600481018690528681602481855afa801561251b57613568918891613924575b50518510614e7f565b602060405180926313981ba960e31b82528180613589888b60048401614ec5565b03915afa9081156108985786916138f2575b505f91156138c9575b501561387557828452600f6020526040842060018060a01b0382165f5260205260405f2082855260205260ff604085205416613830576136426136056135ea84866155a0565b9190868852600d6020526127da600360408a20015484614ede565b8186885260146020526040882086895260205260ff6040892054161580613827575b6137f5575b505061363a81471015614ef1565b828486615769565b838552600d60205261365c600160408720019182546147c4565b9055828452600d6020526001604085200154838552600d6020526040852054106137a657828452600f602090815260408086206001600160a01b038085165f908152918452908290208588529092528520805460ff191660011790556006548592911690816136e9575b50505060205f516020615edc5f395f51905f5291604051908152a26001600b5580f35b60405160208101917f494e444956494455414c5f4d494c4553544f4e455f444953545249425554494f8352602760f91b604083015260018060601b03199060601b1660418201528460558201524260758201526075815261374b6095826144f2565b51902090803b156107cb576040516306cc173360e41b8152918391839182908490829061377c908b60048401614f39565b03925af1801561056257613791575b806136c6565b8161379b916144f2565b6107cb57825f61378b565b60405162461bcd60e51b815260206004820152602160248201527f446973747269627574696f6e206578636565647320706f6f6c2062616c616e636044820152606560f81b6064820152608490fd5b6137ff92506147c4565b84865260146020526040862084875260205260408620600160ff198254161790555f8061362c565b50811515613627565b60405162461bcd60e51b815260206004820152601f60248201527f416c7265616479207061696420666f722074686973206d696c6573746f6e65006044820152606490fd5b60405162461bcd60e51b815260206004820152602660248201527f4d696c6573746f6e65206e6f7420636f6d706c6574656420627920706172746960448201526518da5c185b9d60d21b6064820152608490fd5b6001840191508184116138de5710155f6135a4565b634e487b7160e01b86526011600452602486fd5b90506020813d60201161391c575b8161390d602093836144f2565b810103126107aa57515f61359b565b3d9150613900565b61393891503d808a833e6110a181836144f2565b5f61355f565b60405162461bcd60e51b815260206004820152601a60248201527914185c9d1a58da5c185b9d081b9bdd081c9959da5cdd195c995960321b6044820152606490fd5b5060808101516001600160a01b031633146134c3565b6139aa91503d808a833e61055481836144f2565b5f6134ad565b60405162461bcd60e51b815260206004820152602860248201527f5573652064697374726962757465282920666f722073637265656e696e67206d604482015267696c6573746f6e6560c01b6064820152608490fd5b503461056d57602036600319011261056d57613a206143d3565b613a3560018060a01b036008541633146149aa565b6001600160a01b0316613a498115156149e3565b600a80546001600160a01b03191691909117905580f35b50346107aa576101403660031901126107aa57600435602435613a816143e9565b6064356001600160a01b0381168082036107aa5760c4356001600160401b0381116107aa57613ab4903690600401614455565b61010435959094919260e435929091610124356001600160401b0381116107aa57613ae3903690600401614455565b91613af36002600b5414156144a6565b6002600b5560018060a01b03600454169960208c6044604051809e819363cd5d36dd60e01b835287600484015260248301525afa968715613d60578c9b5f98613daa575b506001600160a01b0388169c8d968d9493929190613b56891515614a5b565b6001600160a01b03811698613b6c818b14614aa0565b613b778b1515614ae5565b84421115613b8490614b2c565b825f52600d60205260405f20600501905f5260205260405f205460ff16613baa90614b6c565b604051809184876020840195613bc09387614bb1565b03601f1981018252613bd290826144f2565b51902097885f52600c60205260405f205460ff1615613bf090614bd5565b6040519360208501957fa67ba8b69ba011bd7cc134e82f63fd35a28af0ecae4d3b91fdb1c26f22eb904c87526040860152606085015287608085015260a084015260843560c084015260e08301526101008201526101008152613c55610120826144f2565b519020613c619061557a565b913690613c6d92614c15565b613c7691615b49565b613c7f91615b83565b6001600160a01b031603613d6b575f908152600c60205260409020805460ff191660011790556002546001600160a01b031690813b156107aa575f8094613ce0604051978896879586946305c21ce760e31b865260a4359160048701614c4b565b03925af18015613d6057613d4b575b5060025460405163455a25e560e11b81526004810184905290602090829060249082906001600160a01b03165afa90811561053557849161077f575060205f516020615f5c5f395f51905f5291604051908152a36001600b5580f35b613d589193505f906144f2565b5f915f613cef565b6040513d5f823e3d90fd5b60405162461bcd60e51b8152602060048201526017602482015276496e76616c696420636c61696d207369676e617475726560481b6044820152606490fd5b92919b5096506020823d602011613de6575b81613dc9602093836144f2565b810103126107aa578b9a613ddd8c9361458a565b97909192613b37565b3d9150613dbc565b346107aa5760203660031901126107aa57600354604051631a7f3c3360e01b815260048035908201819052915f90829060249082906001600160a01b03165afa908115613d60575f91613e86575b50608001516001600160a01b031633148015613e72575b613e5c90614a1e565b5f52600d602052602060405f2054604051908152f35b506008546001600160a01b03163314613e53565b613e9a91503d805f833e61055481836144f2565b82613e3c565b346107aa57613eae3661443f565b905f52601460205260405f20905f52602052602060ff60405f2054166040519015158152f35b346107aa5760203660031901126107aa57600354604051631a7f3c3360e01b815260048035908201819052915f90829060249082906001600160a01b03165afa908115613d60575f91613f6f575b50608001516001600160a01b031633148015613f5b575b613f4290614a1e565b5f52600d6020526020600260405f200154604051908152f35b506008546001600160a01b03163314613f39565b613f8391503d805f833e61055481836144f2565b82613f22565b346107aa5760203660031901126107aa57613fa26143d3565b613fb760018060a01b036008541633146149aa565b6001600160a01b0316613fcb8115156149e3565b600580546001600160a01b031916919091179055005b346107aa575f3660031901126107aa5760206040516276a7008152f35b346107aa5761400c3661443f565b9061402260018060a01b036008541633146149aa565b805f52600e60205260405f20825f5260205260ff60405f20541661407957805f52601260205260405f20825f5260205260405f2060ff1981541690555f52601360205260405f20905f526020525f60408120555f80f35b60405162461bcd60e51b8152602060048201526011602482015270105b1c9958591e4818dbdb5c1b195d1959607a1b6044820152606490fd5b346107aa575f3660031901126107aa576005546040516001600160a01b039091168152602090f35b346107aa5760203660031901126107aa5760246004356140ff6002600b5414156144a6565b6002600b55600354604051631a7f3c3360e01b815260048101839052925f9184919082906001600160a01b03165afa918215613d60575f92614321575b506008546001600160a01b03163314801561430b575b156142b85760808201805190926101e091614175906001600160a01b03166153c1565b01916141848351421015614782565b815f52600d602052600360405f200154158093811561428b575b505f809381936141ee61426d976141b585966147d1565b838552600d60205260ff6004604087200154168015614284575b6141d890614818565b6141e184615493565b90811561427c5750614864565b818352601160205261420760ff604085205416156148af565b818352600d60205261422d6040842054838552600d6020526001604086200154906148ef565b9147808411614274575b506142438315156148fc565b8352601160205260408320805460ff19166001179055516001600160a01b03165af161041661493d565b6001600b55005b925088614237565b90508961038f565b50806141cf565b9050516276a70081018091116142a4574210155f61419e565b634e487b7160e01b5f52601160045260245ffd5b60405162461bcd60e51b815260206004820152602560248201527f4e6f7420617574686f72697a65643a206f6e6c79206f776e6572206f7220737060448201526437b739b7b960d91b6064820152608490fd5b5060808201516001600160a01b03163314614152565b6143369192503d805f833e61055481836144f2565b908261413c565b346107aa575f3660031901126107aa576006546040516001600160a01b039091168152602090f35b346107aa575f3660031901126107aa576007546040516001600160a01b039091168152602090f35b346107aa5761439b36614415565b915f52600f60205260405f209060018060a01b03165f5260205260405f20905f52602052602060ff60405f2054166040519015158152f35b600435906001600160a01b03821682036107aa57565b604435906001600160a01b03821682036107aa57565b602435906001600160a01b03821682036107aa57565b60609060031901126107aa57600435906024356001600160a01b03811681036107aa579060443590565b60409060031901126107aa576004359060243590565b9181601f840112156107aa578235916001600160401b0383116107aa57602083818601950101116107aa57565b805180835260209291819084018484015e5f828201840152601f01601f1916010190565b156144ad57565b60405162461bcd60e51b815260206004820152601f60248201527f5265656e7472616e637947756172643a207265656e7472616e742063616c6c006044820152606490fd5b601f909101601f19168101906001600160401b0382119082101761451557604052565b634e487b7160e01b5f52604160045260245ffd5b6001600160401b03811161451557601f01601f191660200190565b81601f820112156107aa5780519061455b82614529565b9261456960405194856144f2565b828452602083830101116107aa57815f9260208093018386015e8301015290565b51906001600160a01b03821682036107aa57565b519081151582036107aa57565b519060ff821682036107aa57565b519061ffff821682036107aa57565b6020818303126107aa578051906001600160401b0382116107aa5701610220818303126107aa576040519161022083016001600160401b038111848210176145155760405281516001600160401b0381116107aa5781614629918401614544565b835260208201516001600160401b0381116107aa578161464a918401614544565b602084015260408201516001600160401b0381116107aa578161466e918401614544565b60408401526060820151916001600160401b0383116107aa5761469961020092614779948301614544565b60608501526146aa6080820161458a565b60808501526146bb60a0820161459e565b60a08501526146cc60c082016145ab565b60c08501526146dd60e082016145ab565b60e08501526146ef610100820161459e565b61010085015261470261012082016145b9565b61012085015261471561014082016145ab565b61014085015261472861016082016145ab565b61016085015261473b61018082016145b9565b61018085015261474e6101a0820161459e565b6101a08501526147616101c0820161459e565b6101c08501526101e08101516101e08501520161459e565b61020082015290565b1561478957565b60405162461bcd60e51b8152602060048201526013602482015272151c9a585b081b9bdd081e595d08195b991959606a1b6044820152606490fd5b919082018092116142a457565b156147d857565b60405162461bcd60e51b815260206004820152601860248201527711dc9858d9481c195c9a5bd9081b9bdd08195b185c1cd95960421b6044820152606490fd5b1561481f57565b60405162461bcd60e51b815260206004820152601d60248201527f53637265656e696e67206e6f74207965742064697374726962757465640000006044820152606490fd5b1561486b57565b606460405162461bcd60e51b815260206004820152602060248201527f4d696c6573746f6e6573206e6f742066756c6c792064697374726962757465646044820152fd5b156148b657565b60405162461bcd60e51b8152602060048201526011602482015270105b1c9958591e481c9958db185a5b5959607a1b6044820152606490fd5b919082039182116142a457565b1561490357565b60405162461bcd60e51b81526020600482015260126024820152714e6f7468696e6720746f207265636c61696d60701b6044820152606490fd5b3d15614967573d9061494e82614529565b9161495c60405193846144f2565b82523d5f602084013e565b606090565b1561497357565b60405162461bcd60e51b815260206004820152600f60248201526e151c985b9cd9995c8819985a5b1959608a1b6044820152606490fd5b156149b157565b60405162461bcd60e51b815260206004820152600a60248201526927b7363c9037bbb732b960b11b6044820152606490fd5b156149ea57565b60405162461bcd60e51b815260206004820152600c60248201526b5a65726f206164647265737360a01b6044820152606490fd5b15614a2557565b60405162461bcd60e51b815260206004820152600e60248201526d139bdd08185d5d1a1bdc9a5e995960921b6044820152606490fd5b15614a6257565b60405162461bcd60e51b8152602060048201526016602482015275139bc81c195c9b5a5d081a1bdb19195c88199bdd5b9960521b6044820152606490fd5b15614aa757565b60405162461bcd60e51b81526020600482015260166024820152750a0cae4dad2e840d0ded8c8cae440dad2e6dac2e8c6d60531b6044820152606490fd5b15614aec57565b60405162461bcd60e51b81526020600482015260186024820152775a65726f2064657374696e6174696f6e206164647265737360401b6044820152606490fd5b15614b3357565b60405162461bcd60e51b815260206004820152601160248201527014da59db985d1d5c9948195e1c1a5c9959607a1b6044820152606490fd5b15614b7357565b60405162461bcd60e51b815260206004820152601660248201527514185d1a595b9d081b9bdd081c9959da5cdd195c995960521b6044820152606490fd5b90949392606092608083019660018060a01b03168352602083015260408201520152565b15614bdc57565b60405162461bcd60e51b8152602060048201526011602482015270105d5d1a08185b1c9958591e481d5cd959607a1b6044820152606490fd5b929192614c2182614529565b91614c2f60405193846144f2565b8294818452818301116107aa578281602093845f960137010152565b6001600160a01b039182168152911660208201526040810191909152608060608201819052810183905260a09290918190848401375f828201840152601f01601f1916010190565b15614c9a57565b60405162461bcd60e51b8152602060048201526019602482015278135a5b195cdd1bdb99481b585b9859d95c881b9bdd081cd95d603a1b6044820152606490fd5b15614ce257565b60405162461bcd60e51b815260206004820152602260248201527f446973747269627574696f6e20626c6f636b6564206166746572207265636c61604482015261696d60f01b6064820152608490fd5b15614d3957565b60405162461bcd60e51b815260206004820152601d60248201527f4d696c6573746f6e6520616c72656164792064697374726962757465640000006044820152606490fd5b6020818303126107aa578051906001600160401b0382116107aa57019080601f830112156107aa578151916001600160401b038311614515578260051b916020830193614dce60405195866144f2565b8452602080850193830101918183116107aa5760208101935b838510614df657505050505090565b84516001600160401b0381116107aa5782016060818503601f1901126107aa5760405191606083016001600160401b03811184821017614515576040526020820151926001600160401b0384116107aa57606083614e5b886020809881980101614544565b8352614e69604082016145b9565b8584015201516040820152815201940193614de7565b15614e8657565b60405162461bcd60e51b8152602060048201526017602482015276092dcecc2d8d2c840dad2d8cae6e8dedcca40d2dcc8caf604b1b6044820152606490fd5b9081526001600160a01b03909116602082015260400190565b818102929181159184041417156142a457565b15614ef857565b60405162461bcd60e51b8152602060048201526019602482015278125b9cdd59999a58da595b9d08115512081a5b881d985d5b1d603a1b6044820152606490fd5b6040909392919360608101946005825260208201520152565b6040909392919360608101946006825260208201520152565b15614f7257565b60405162461bcd60e51b8152602060048201526011602482015270139bc81a5b98d95b9d1a5d99481c1bdbdb607a1b6044820152606490fd5b15614fb257565b60405162461bcd60e51b815260206004820152601b60248201527a14d8dc99595b9a5b99c8185b1c9958591e48199a5b985b1a5e9959602a1b6044820152606490fd5b15614ffc57565b60405162461bcd60e51b8152602060048201526012602482015271105b1c9958591e481c9959da5cdd195c995960721b6044820152606490fd5b1561503d57565b60405162461bcd60e51b815260206004820152601060248201526f506f6f6c20617420636170616369747960801b6044820152606490fd5b1561507c57565b60405162461bcd60e51b815260206004820152602760248201527f4e756c6c696669657220616c7265616479207573656420666f722072656769736044820152663a3930ba34b7b760c91b6064820152608490fd5b908160209103126107aa575160048110156107aa5790565b600411156150f357565b634e487b7160e01b5f52602160045260245ffd5b1561510e57565b60405162461bcd60e51b815260206004820152602660248201527f416e6f6e796d6f7573206170706c69636174696f6e206d75737420626520616360448201526518d95c1d195960d21b6064820152608490fd5b1561516957565b60405162461bcd60e51b8152602060048201526019602482015278139bda5c88185d1d195cdd185d1a5bdb881c995c5d5a5c9959603a1b6044820152606490fd5b80548210156151bf575f5260205f2001905f90565b634e487b7160e01b5f52603260045260245ffd5b8054600160401b811015614515576151f0916001820181556151aa565b81546001600160a01b0393841660039290921b91821b9390911b1916919091179055565b60609190911b6001600160601b0319168152601481019190915260340190565b1561523b57565b60405162461bcd60e51b815260206004820152601d60248201527f53637265656e696e6720616c72656164792064697374726962757465640000006044820152606490fd5b1561528757565b60405162461bcd60e51b815260206004820152600f60248201526e4e6f207061727469636970616e747360881b6044820152606490fd5b81156152c8570490565b634e487b7160e01b5f52601260045260245ffd5b156152e357565b60405162461bcd60e51b8152602060048201526019602482015278576f756c642065786365656420706f6f6c2062616c616e636560381b6044820152606490fd5b1561532b57565b60405162461bcd60e51b815260206004820152601660248201527514995b585a5b99195c88185b1c9958591e481c185a5960521b6044820152606490fd5b1561537057565b60405162461bcd60e51b8152602060048201526024808201527f4d696c6573746f6e6520646973747269627574696f6e206578636565647320736044820152636861726560e01b6064820152608490fd5b600a546001600160a01b031690816153d7575050565b60405163353224d760e11b81526001600160a01b03909116600482015290602090829060249082905afa908115613d60575f91615459575b501561541757565b60405162461bcd60e51b815260206004820152601a60248201527914dc1bdb9cdbdc881b9bc81b1bdb99d95c881d995c9a599a595960321b6044820152606490fd5b90506020813d60201161548b575b81615474602093836144f2565b810103126107aa576154859061459e565b5f61540f565b3d9150615467565b6005546001600160a01b0316801561556457905f6024926040519384809263010b152760e61b82528560048301525afa918215613d60575f92615548575b50815115615531575f5b825181101561552957815f52600e60205260405f20815f5260205260ff60405f2054166155215761550c8183615900565b61551a576001905b016154db565b5050505f90565b600190615514565b505050600190565b90505f52600d60205260ff600460405f2001541690565b61555d9192503d805f833e6110a181836144f2565b905f6154d1565b505f52600d60205260ff600460405f2001541690565b604290615585615a2d565b906040519161190160f01b8352600283015260228201522090565b9190602490835f52600d602052600360405f200154936155c1851515615280565b6005545f906001600160a01b03166155da811515614c93565b6040519485809263010b152760e61b82528560048301525afa928315613d60575f93615648575b5061560e83518310614e7f565b5f52600d60205260405f20549180518210156151bf576156459261ffff6020806127c7946127109660051b01015101511690614ede565b90565b61565d9193503d805f833e6110a181836144f2565b915f615601565b9092918015615762576002546040516358ac71cd60e11b81526001600160a01b03909116929091602083600481875afa928315613d60575f9361572c575b50826156ad916152be565b90811561570b5750906156bf91614ede565b92813b156107aa5760405163aa67c91960e01b81526001600160a01b039091166004820152905f908290602490829087905af18015613d60576156ff5750565b5f615709916144f2565b565b9394505050505f516020615f3c5f395f51905f5260206040515f8152a25f90565b9092506020813d60201161575a575b81615748602093836144f2565b810103126107aa5751916156ad6156a2565b3d915061573b565b505f925050565b919392908115615820576002546040516358ac71cd60e11b81526001600160a01b03909116939092602084600481885afa938415613d60575f946157ea575b50836157b3916152be565b9182156157c6575050906156bf91614ede565b91509394505f516020615f3c5f395f51905f52925060209150604051908152a25f90565b9093506020813d602011615818575b81615806602093836144f2565b810103126107aa5751926157b36157a8565b3d91506157f9565b505f93505050565b4660010361583557600190565b4662aa36a7036158455761271190565b617a694614615852575f90565b5f1990565b5f516020615efc5f395f51905f5254604051639cd07acb60e01b81525f60048201819052600560248301529091602091839160449183916001600160a01b03165af1908115613d60575f916158aa575090565b90506020813d6020116158d1575b816158c5602093836144f2565b810103126107aa575190565b3d91506158b8565b9081156158eb575b6156459082615df2565b90506156456158f8615857565b9190506158e1565b805f52600d602052600360405f200154915f5b83811061592257505050505f90565b825f52600d60205261593a81600360405f20016151aa565b905483159160031b1c6001600160a01b031681156159a4575b8161596f575b5061596657600101615913565b50505050600190565b9050835f52600f60205260405f209060018060a01b03165f5260205260405f20825f5260205260ff60405f205416155f615959565b6005546040516313981ba960e31b815291925060209082906001600160a01b031681806159d5878b60048401614ec5565b03915afa908115613d60575f916159fc575b5060018401908185116142a457101590615953565b90506020813d8211615a25575b81615a16602093836144f2565b810103126107aa57515f6159e7565b3d9150615a09565b307f00000000000000000000000000000000000000000000000000000000000000006001600160a01b03161480615b20575b15615a88577f000000000000000000000000000000000000000000000000000000000000000090565b60405160208101907f8b73c3c69bb8fe3d512ecc4cf759cc79239f7b179b0ffacaa9a75d522b39400f82527f000000000000000000000000000000000000000000000000000000000000000060408201527f000000000000000000000000000000000000000000000000000000000000000060608201524660808201523060a082015260a08152615b1a60c0826144f2565b51902090565b507f00000000000000000000000000000000000000000000000000000000000000004614615a5f565b8151919060418303615b7957615b729250602082015190606060408401519301515f1a90615e63565b9192909190565b50505f9160029190565b615b8c816150e9565b80615b95575050565b615b9e816150e9565b60018103615bb55763f645eedf60e01b5f5260045ffd5b615bbe816150e9565b60028103615bd9575063fce698f760e01b5f5260045260245ffd5b600390615be5816150e9565b14615bed5750565b6335e2f38360e21b5f5260045260245ffd5b60ff8114615c455760ff811690601f8211615c365760405191615c236040846144f2565b6020808452838101919036833783525290565b632cd44ac360e21b5f5260045ffd5b506040515f5f548060011c9160018216918215615d18575b602084108314615d04578385528492908115615ce55750600114615c88575b615645925003826144f2565b505f80805290917f290decd9548b62a8d60345a988386fc84ba6bc95484008f6362f93160ef3e5635b818310615cc957505090602061564592820101615c7c565b6020919350806001915483858801015201910190918392615cb1565b6020925061564594915060ff191682840152151560051b820101615c7c565b634e487b7160e01b5f52602260045260245ffd5b92607f1692615c5d565b60ff8114615d465760ff811690601f8211615c365760405191615c236040846144f2565b506040515f6001548060011c9160018216918215615de8575b602084108314615d04578385528492908115615ce55750600114615d8957615645925003826144f2565b5060015f90815290917fb10e2d527612073b26eecdfd717e6a320cf44b4afac2b0732d9fcbe2b7fa0cf65b818310615dcc57505090602061564592820101615c7c565b6020919350806001915483858801015201910190918392615db4565b92607f1692615d5f565b7f9e7b61f58c47dc699ac88507c4f5bb9f121c03808c5676a8078fe583e4649700546001600160a01b031691823b156107aa57604051635ca4b5b160e11b815260048101929092526001600160a01b03166024820152905f908290604490829084905af18015613d60576156ff5750565b91906fa2a8918ca85bafe22016d0b997e4df60600160ff1b038411615ed0579160209360809260ff5f9560405194855216868401526040830152606082015282805260015afa15613d60575f516001600160a01b03811615615ec657905f905f90565b505f906001905f90565b5050505f916003919056fe62b24bd9c0bcb655745cd379ea0b82caec0357933e5585ef39dace55098e9b999e7b61f58c47dc699ac88507c4f5bb9f121c03808c5676a8078fe583e464970189ec8e040354cb50b6e9f9dd254b334c6d245de168ab322fb054d8017e7bc799a35b3d01e5c7c8c27cb608a23ba2677ad44665c36325777cf55d1009dc609e2f4f72d13e1ace7a401481df4f2e8ad54560a47647e19ac2b6ea2423cb99cbe777a164736f6c634300081b000a",
  "linkReferences": {},
  "deployedLinkReferences": {}
}