{
  "_format": "hh-sol-artifact-1",
  "contractName": "SponsorIncentiveVaultTestHarness",
  "sourceName": "contracts/test/SponsorIncentiveVaultTestHarness.sol",
  "abi": [
    {
      "inputs": [
        {
          "internalType": "address payable",
          "name": "_cETH",
          "type": "address"
        },
        {
          "internalType": "address",
          "name": "_trialManager",
          "type": "address"
        },
        {
          "internalType": "address",
          "name": "_eligibilityEngine",
          "type": "address"
        }
      ],
      "stateMutability": "nonpayable",
      "type": "constructor"
    },
    {
      "inputs": [],
      "name": "AlreadyCompleted",
      "type": "error"
    },
    {
      "inputs": [],
      "name": "AlreadyPaidForThisMilestone",
      "type": "error"
    },
    {
      "inputs": [],
      "name": "AmountTooLarge",
      "type": "error"
    },
    {
      "inputs": [],
      "name": "BatchMustBeSequential",
      "type": "error"
    },
    {
      "inputs": [],
      "name": "BlockedAfterReclaim",
      "type": "error"
    },
    {
      "inputs": [],
      "name": "ConfidentialFundingDisabled",
      "type": "error"
    },
    {
      "inputs": [],
      "name": "EncryptedPoolSizeOverflow",
      "type": "error"
    },
    {
      "inputs": [],
      "name": "ForcedBatchRevert",
      "type": "error"
    },
    {
      "inputs": [],
      "name": "ForcedCreditRevert",
      "type": "error"
    },
    {
      "inputs": [],
      "name": "FundingLockedAfterRegistrationBegan",
      "type": "error"
    },
    {
      "inputs": [],
      "name": "InsufficientETHInVault",
      "type": "error"
    },
    {
      "inputs": [],
      "name": "InvalidMilestoneIndex",
      "type": "error"
    },
    {
      "inputs": [],
      "name": "InvalidShortString",
      "type": "error"
    },
    {
      "inputs": [],
      "name": "InvalidStartIndex",
      "type": "error"
    },
    {
      "inputs": [],
      "name": "MilestoneAlreadyDistributed",
      "type": "error"
    },
    {
      "inputs": [],
      "name": "MilestoneManagerNotSet",
      "type": "error"
    },
    {
      "inputs": [],
      "name": "MilestoneNotCompletedByParticipant",
      "type": "error"
    },
    {
      "inputs": [],
      "name": "MilestoneNotDistributed",
      "type": "error"
    },
    {
      "inputs": [],
      "name": "MustSendETH",
      "type": "error"
    },
    {
      "inputs": [],
      "name": "NoEligibleParticipants",
      "type": "error"
    },
    {
      "inputs": [],
      "name": "NoIncentivePool",
      "type": "error"
    },
    {
      "inputs": [],
      "name": "NoMilestonesConfigured",
      "type": "error"
    },
    {
      "inputs": [],
      "name": "NoParticipants",
      "type": "error"
    },
    {
      "inputs": [],
      "name": "NotAuthorized",
      "type": "error"
    },
    {
      "inputs": [],
      "name": "NotProposedOwner",
      "type": "error"
    },
    {
      "inputs": [],
      "name": "NothingToReclaim",
      "type": "error"
    },
    {
      "inputs": [],
      "name": "OnlyOwner",
      "type": "error"
    },
    {
      "inputs": [],
      "name": "OnlySponsor",
      "type": "error"
    },
    {
      "inputs": [],
      "name": "OnlySponsorCanFund",
      "type": "error"
    },
    {
      "inputs": [],
      "name": "PaginationInProgress",
      "type": "error"
    },
    {
      "inputs": [],
      "name": "ParticipantNotRegistered",
      "type": "error"
    },
    {
      "inputs": [],
      "name": "PoolNotFunded",
      "type": "error"
    },
    {
      "inputs": [],
      "name": "ReentrancyGuardReentrantCall",
      "type": "error"
    },
    {
      "inputs": [],
      "name": "ScreeningAlreadyDistributed",
      "type": "error"
    },
    {
      "inputs": [
        {
          "internalType": "string",
          "name": "str",
          "type": "string"
        }
      ],
      "name": "StringTooLong",
      "type": "error"
    },
    {
      "inputs": [],
      "name": "TestHelpersDisabled",
      "type": "error"
    },
    {
      "inputs": [],
      "name": "TrialAlreadyEnded",
      "type": "error"
    },
    {
      "inputs": [],
      "name": "TrialDoesNotExist",
      "type": "error"
    },
    {
      "inputs": [],
      "name": "TrialNotActive",
      "type": "error"
    },
    {
      "inputs": [],
      "name": "TrialNotYetEnded",
      "type": "error"
    },
    {
      "inputs": [],
      "name": "UseDistributeForScreening",
      "type": "error"
    },
    {
      "inputs": [],
      "name": "UseDistributePartialPaginatedForLargePools",
      "type": "error"
    },
    {
      "inputs": [],
      "name": "UsePaginatedVersion",
      "type": "error"
    },
    {
      "inputs": [],
      "name": "ZamaProtocolUnsupported",
      "type": "error"
    },
    {
      "inputs": [],
      "name": "ZeroAddress",
      "type": "error"
    },
    {
      "anonymous": false,
      "inputs": [],
      "name": "EIP712DomainChanged",
      "type": "event"
    },
    {
      "anonymous": false,
      "inputs": [
        {
          "indexed": true,
          "internalType": "uint256",
          "name": "trialId",
          "type": "uint256"
        },
        {
          "indexed": true,
          "internalType": "address",
          "name": "sponsor",
          "type": "address"
        }
      ],
      "name": "IncentiveFunded",
      "type": "event"
    },
    {
      "anonymous": false,
      "inputs": [
        {
          "indexed": true,
          "internalType": "uint256",
          "name": "trialId",
          "type": "uint256"
        },
        {
          "indexed": false,
          "internalType": "uint256",
          "name": "milestoneIndex",
          "type": "uint256"
        }
      ],
      "name": "MilestoneDistributedPublicSignaled",
      "type": "event"
    },
    {
      "anonymous": false,
      "inputs": [
        {
          "indexed": true,
          "internalType": "uint256",
          "name": "trialId",
          "type": "uint256"
        },
        {
          "indexed": false,
          "internalType": "uint256",
          "name": "milestoneIndex",
          "type": "uint256"
        }
      ],
      "name": "MilestoneRewardsDistributed",
      "type": "event"
    },
    {
      "anonymous": false,
      "inputs": [
        {
          "indexed": true,
          "internalType": "address",
          "name": "newOwner",
          "type": "address"
        }
      ],
      "name": "OwnershipAccepted",
      "type": "event"
    },
    {
      "anonymous": false,
      "inputs": [
        {
          "indexed": true,
          "internalType": "address",
          "name": "proposedOwner",
          "type": "address"
        }
      ],
      "name": "OwnershipProposed",
      "type": "event"
    },
    {
      "anonymous": false,
      "inputs": [
        {
          "indexed": true,
          "internalType": "uint256",
          "name": "trialId",
          "type": "uint256"
        },
        {
          "indexed": true,
          "internalType": "uint256",
          "name": "milestoneIndex",
          "type": "uint256"
        },
        {
          "indexed": true,
          "internalType": "address",
          "name": "participant",
          "type": "address"
        },
        {
          "indexed": false,
          "internalType": "bytes",
          "name": "reason",
          "type": "bytes"
        }
      ],
      "name": "ParticipantCreditFailed",
      "type": "event"
    },
    {
      "anonymous": false,
      "inputs": [
        {
          "indexed": true,
          "internalType": "uint256",
          "name": "trialId",
          "type": "uint256"
        },
        {
          "indexed": false,
          "internalType": "uint256",
          "name": "milestoneIndex",
          "type": "uint256"
        }
      ],
      "name": "RewardDustSkipped",
      "type": "event"
    },
    {
      "anonymous": false,
      "inputs": [
        {
          "indexed": true,
          "internalType": "uint256",
          "name": "trialId",
          "type": "uint256"
        }
      ],
      "name": "RewardsDistributed",
      "type": "event"
    },
    {
      "anonymous": false,
      "inputs": [
        {
          "indexed": true,
          "internalType": "address",
          "name": "recipient",
          "type": "address"
        }
      ],
      "name": "StrandedCethRecovered",
      "type": "event"
    },
    {
      "anonymous": false,
      "inputs": [
        {
          "indexed": true,
          "internalType": "uint256",
          "name": "trialId",
          "type": "uint256"
        }
      ],
      "name": "TrialPoolSizeMadePublic",
      "type": "event"
    },
    {
      "inputs": [],
      "name": "CHALLENGE_WINDOW",
      "outputs": [
        {
          "internalType": "uint256",
          "name": "",
          "type": "uint256"
        }
      ],
      "stateMutability": "view",
      "type": "function"
    },
    {
      "inputs": [],
      "name": "DISTRIBUTE_BATCH_SIZE",
      "outputs": [
        {
          "internalType": "uint256",
          "name": "",
          "type": "uint256"
        }
      ],
      "stateMutability": "view",
      "type": "function"
    },
    {
      "inputs": [],
      "name": "MAX_PARTICIPANTS",
      "outputs": [
        {
          "internalType": "uint256",
          "name": "",
          "type": "uint256"
        }
      ],
      "stateMutability": "view",
      "type": "function"
    },
    {
      "inputs": [],
      "name": "PARTICIPANT_CLAIM_WINDOW",
      "outputs": [
        {
          "internalType": "uint256",
          "name": "",
          "type": "uint256"
        }
      ],
      "stateMutability": "view",
      "type": "function"
    },
    {
      "inputs": [],
      "name": "READER_CHANGE_DELAY",
      "outputs": [
        {
          "internalType": "uint256",
          "name": "",
          "type": "uint256"
        }
      ],
      "stateMutability": "view",
      "type": "function"
    },
    {
      "inputs": [],
      "name": "RECLAIM_GRACE_PERIOD",
      "outputs": [
        {
          "internalType": "uint256",
          "name": "",
          "type": "uint256"
        }
      ],
      "stateMutability": "view",
      "type": "function"
    },
    {
      "inputs": [
        {
          "internalType": "uint256",
          "name": "",
          "type": "uint256"
        }
      ],
      "name": "abandonedReclaimOpenedAt",
      "outputs": [
        {
          "internalType": "uint256",
          "name": "",
          "type": "uint256"
        }
      ],
      "stateMutability": "view",
      "type": "function"
    },
    {
      "inputs": [],
      "name": "acceptOwnership",
      "outputs": [],
      "stateMutability": "nonpayable",
      "type": "function"
    },
    {
      "inputs": [],
      "name": "applyAutomationContract",
      "outputs": [],
      "stateMutability": "nonpayable",
      "type": "function"
    },
    {
      "inputs": [],
      "name": "applyDataAccessLog",
      "outputs": [],
      "stateMutability": "nonpayable",
      "type": "function"
    },
    {
      "inputs": [],
      "name": "applyMilestoneManager",
      "outputs": [],
      "stateMutability": "nonpayable",
      "type": "function"
    },
    {
      "inputs": [],
      "name": "applySponsorRegistry",
      "outputs": [],
      "stateMutability": "nonpayable",
      "type": "function"
    },
    {
      "inputs": [],
      "name": "automationContract",
      "outputs": [
        {
          "internalType": "address",
          "name": "",
          "type": "address"
        }
      ],
      "stateMutability": "view",
      "type": "function"
    },
    {
      "inputs": [],
      "name": "automationContractChangeEta",
      "outputs": [
        {
          "internalType": "uint256",
          "name": "",
          "type": "uint256"
        }
      ],
      "stateMutability": "view",
      "type": "function"
    },
    {
      "inputs": [],
      "name": "cETH",
      "outputs": [
        {
          "internalType": "contract ConfidentialETH",
          "name": "",
          "type": "address"
        }
      ],
      "stateMutability": "view",
      "type": "function"
    },
    {
      "inputs": [
        {
          "internalType": "bytes32",
          "name": "",
          "type": "bytes32"
        }
      ],
      "name": "claimAuthUsed",
      "outputs": [
        {
          "internalType": "bool",
          "name": "",
          "type": "bool"
        }
      ],
      "stateMutability": "view",
      "type": "function"
    },
    {
      "inputs": [
        {
          "internalType": "uint256",
          "name": "_trialId",
          "type": "uint256"
        },
        {
          "internalType": "uint256",
          "name": "_nullifier",
          "type": "uint256"
        },
        {
          "internalType": "address",
          "name": "_destination",
          "type": "address"
        },
        {
          "internalType": "externalEuint64",
          "name": "encryptedUnits",
          "type": "bytes32"
        },
        {
          "internalType": "bytes",
          "name": "inputProof",
          "type": "bytes"
        },
        {
          "internalType": "uint256",
          "name": "_withdrawToNonce",
          "type": "uint256"
        },
        {
          "internalType": "uint256",
          "name": "_withdrawToDeadline",
          "type": "uint256"
        },
        {
          "internalType": "bytes",
          "name": "_withdrawToSignature",
          "type": "bytes"
        }
      ],
      "name": "claimParticipantRewards",
      "outputs": [],
      "stateMutability": "nonpayable",
      "type": "function"
    },
    {
      "inputs": [
        {
          "internalType": "uint256",
          "name": "_trialId",
          "type": "uint256"
        },
        {
          "internalType": "uint256",
          "name": "_nullifier",
          "type": "uint256"
        },
        {
          "internalType": "address",
          "name": "_permitHolder",
          "type": "address"
        },
        {
          "internalType": "address",
          "name": "_destination",
          "type": "address"
        },
        {
          "internalType": "uint256",
          "name": "_units",
          "type": "uint256"
        },
        {
          "internalType": "bytes32",
          "name": "_encryptedAmountCommitment",
          "type": "bytes32"
        },
        {
          "internalType": "externalEuint64",
          "name": "encryptedUnits",
          "type": "bytes32"
        },
        {
          "internalType": "bytes",
          "name": "inputProof",
          "type": "bytes"
        },
        {
          "internalType": "uint256",
          "name": "_nonce",
          "type": "uint256"
        },
        {
          "internalType": "uint256",
          "name": "_deadline",
          "type": "uint256"
        },
        {
          "internalType": "bytes",
          "name": "_signature",
          "type": "bytes"
        },
        {
          "internalType": "uint256",
          "name": "_withdrawToNonce",
          "type": "uint256"
        },
        {
          "internalType": "uint256",
          "name": "_withdrawToDeadline",
          "type": "uint256"
        },
        {
          "internalType": "bytes",
          "name": "_withdrawToSignature",
          "type": "bytes"
        }
      ],
      "name": "claimParticipantRewardsFor",
      "outputs": [],
      "stateMutability": "nonpayable",
      "type": "function"
    },
    {
      "inputs": [
        {
          "internalType": "uint256",
          "name": "_trialId",
          "type": "uint256"
        }
      ],
      "name": "claimReclaimed",
      "outputs": [],
      "stateMutability": "nonpayable",
      "type": "function"
    },
    {
      "inputs": [],
      "name": "confidentialFundingAccountingReady",
      "outputs": [
        {
          "internalType": "bool",
          "name": "",
          "type": "bool"
        }
      ],
      "stateMutability": "view",
      "type": "function"
    },
    {
      "inputs": [],
      "name": "confidentialFundingEnabled",
      "outputs": [
        {
          "internalType": "bool",
          "name": "",
          "type": "bool"
        }
      ],
      "stateMutability": "view",
      "type": "function"
    },
    {
      "inputs": [],
      "name": "confidentialProtocolId",
      "outputs": [
        {
          "internalType": "uint256",
          "name": "",
          "type": "uint256"
        }
      ],
      "stateMutability": "view",
      "type": "function"
    },
    {
      "inputs": [
        {
          "internalType": "uint256",
          "name": "_trialId",
          "type": "uint256"
        },
        {
          "internalType": "uint256",
          "name": "_milestoneIndex",
          "type": "uint256"
        },
        {
          "internalType": "bytes",
          "name": "cleartexts",
          "type": "bytes"
        },
        {
          "internalType": "bytes",
          "name": "decryptionProof",
          "type": "bytes"
        }
      ],
      "name": "confirmReceipt",
      "outputs": [],
      "stateMutability": "nonpayable",
      "type": "function"
    },
    {
      "inputs": [
        {
          "internalType": "uint256",
          "name": "",
          "type": "uint256"
        },
        {
          "internalType": "address",
          "name": "",
          "type": "address"
        },
        {
          "internalType": "uint256",
          "name": "",
          "type": "uint256"
        }
      ],
      "name": "confirmedPayout",
      "outputs": [
        {
          "internalType": "bool",
          "name": "",
          "type": "bool"
        }
      ],
      "stateMutability": "view",
      "type": "function"
    },
    {
      "inputs": [
        {
          "internalType": "uint256",
          "name": "trialId",
          "type": "uint256"
        },
        {
          "internalType": "uint256",
          "name": "milestoneIndex",
          "type": "uint256"
        },
        {
          "internalType": "address",
          "name": "participant",
          "type": "address"
        },
        {
          "internalType": "uint256",
          "name": "amountWei",
          "type": "uint256"
        }
      ],
      "name": "creditParticipantRewardForBatch",
      "outputs": [
        {
          "internalType": "uint256",
          "name": "creditedWei",
          "type": "uint256"
        }
      ],
      "stateMutability": "nonpayable",
      "type": "function"
    },
    {
      "inputs": [],
      "name": "dataAccessLog",
      "outputs": [
        {
          "internalType": "contract IVaultDataAccessLog",
          "name": "",
          "type": "address"
        }
      ],
      "stateMutability": "view",
      "type": "function"
    },
    {
      "inputs": [],
      "name": "dataAccessLogChangeEta",
      "outputs": [
        {
          "internalType": "uint256",
          "name": "",
          "type": "uint256"
        }
      ],
      "stateMutability": "view",
      "type": "function"
    },
    {
      "inputs": [
        {
          "internalType": "uint256",
          "name": "_trialId",
          "type": "uint256"
        }
      ],
      "name": "distribute",
      "outputs": [],
      "stateMutability": "nonpayable",
      "type": "function"
    },
    {
      "inputs": [
        {
          "internalType": "uint256",
          "name": "_trialId",
          "type": "uint256"
        },
        {
          "internalType": "address",
          "name": "_participant",
          "type": "address"
        },
        {
          "internalType": "uint256",
          "name": "_milestoneIndex",
          "type": "uint256"
        }
      ],
      "name": "distributeMilestoneToParticipant",
      "outputs": [],
      "stateMutability": "nonpayable",
      "type": "function"
    },
    {
      "inputs": [
        {
          "internalType": "uint256",
          "name": "_trialId",
          "type": "uint256"
        },
        {
          "internalType": "uint256",
          "name": "_milestoneIndex",
          "type": "uint256"
        }
      ],
      "name": "distributePartial",
      "outputs": [],
      "stateMutability": "nonpayable",
      "type": "function"
    },
    {
      "inputs": [
        {
          "internalType": "uint256",
          "name": "_trialId",
          "type": "uint256"
        },
        {
          "internalType": "uint256",
          "name": "_milestoneIndex",
          "type": "uint256"
        },
        {
          "internalType": "uint256",
          "name": "_startIndex",
          "type": "uint256"
        },
        {
          "internalType": "uint256",
          "name": "_batchSize",
          "type": "uint256"
        }
      ],
      "name": "distributePartialPaginated",
      "outputs": [],
      "stateMutability": "nonpayable",
      "type": "function"
    },
    {
      "inputs": [],
      "name": "eip712Domain",
      "outputs": [
        {
          "internalType": "bytes1",
          "name": "fields",
          "type": "bytes1"
        },
        {
          "internalType": "string",
          "name": "name",
          "type": "string"
        },
        {
          "internalType": "string",
          "name": "version",
          "type": "string"
        },
        {
          "internalType": "uint256",
          "name": "chainId",
          "type": "uint256"
        },
        {
          "internalType": "address",
          "name": "verifyingContract",
          "type": "address"
        },
        {
          "internalType": "bytes32",
          "name": "salt",
          "type": "bytes32"
        },
        {
          "internalType": "uint256[]",
          "name": "extensions",
          "type": "uint256[]"
        }
      ],
      "stateMutability": "view",
      "type": "function"
    },
    {
      "inputs": [],
      "name": "eligibilityEngine",
      "outputs": [
        {
          "internalType": "contract IVaultEligibilityEngine",
          "name": "",
          "type": "address"
        }
      ],
      "stateMutability": "view",
      "type": "function"
    },
    {
      "inputs": [
        {
          "internalType": "uint256",
          "name": "trialId",
          "type": "uint256"
        },
        {
          "internalType": "uint256",
          "name": "milestoneIndex",
          "type": "uint256"
        },
        {
          "internalType": "address",
          "name": "participant",
          "type": "address"
        },
        {
          "internalType": "bytes",
          "name": "reason",
          "type": "bytes"
        }
      ],
      "name": "emitParticipantCreditFailed",
      "outputs": [],
      "stateMutability": "nonpayable",
      "type": "function"
    },
    {
      "inputs": [
        {
          "internalType": "uint256",
          "name": "_trialId",
          "type": "uint256"
        },
        {
          "internalType": "string[]",
          "name": "_names",
          "type": "string[]"
        },
        {
          "internalType": "uint16[]",
          "name": "_weights",
          "type": "uint16[]"
        },
        {
          "internalType": "uint256[]",
          "name": "_deadlines",
          "type": "uint256[]"
        }
      ],
      "name": "encodeConfidentialFundAndMilestonesData",
      "outputs": [
        {
          "internalType": "bytes",
          "name": "",
          "type": "bytes"
        }
      ],
      "stateMutability": "pure",
      "type": "function"
    },
    {
      "inputs": [
        {
          "internalType": "uint256",
          "name": "",
          "type": "uint256"
        },
        {
          "internalType": "address",
          "name": "",
          "type": "address"
        },
        {
          "internalType": "uint256",
          "name": "",
          "type": "uint256"
        }
      ],
      "name": "entitlementStaged",
      "outputs": [
        {
          "internalType": "bool",
          "name": "",
          "type": "bool"
        }
      ],
      "stateMutability": "view",
      "type": "function"
    },
    {
      "inputs": [
        {
          "internalType": "uint256",
          "name": "",
          "type": "uint256"
        }
      ],
      "name": "forceBatchRevertForTrial",
      "outputs": [
        {
          "internalType": "bool",
          "name": "",
          "type": "bool"
        }
      ],
      "stateMutability": "view",
      "type": "function"
    },
    {
      "inputs": [
        {
          "internalType": "address",
          "name": "",
          "type": "address"
        }
      ],
      "name": "forceCreditRevertForParticipant",
      "outputs": [
        {
          "internalType": "bool",
          "name": "",
          "type": "bool"
        }
      ],
      "stateMutability": "view",
      "type": "function"
    },
    {
      "inputs": [
        {
          "internalType": "uint256",
          "name": "_trialId",
          "type": "uint256"
        }
      ],
      "name": "fundTrial",
      "outputs": [],
      "stateMutability": "payable",
      "type": "function"
    },
    {
      "inputs": [
        {
          "internalType": "uint256",
          "name": "_trialId",
          "type": "uint256"
        },
        {
          "internalType": "string[]",
          "name": "_names",
          "type": "string[]"
        },
        {
          "internalType": "uint16[]",
          "name": "_weights",
          "type": "uint16[]"
        },
        {
          "internalType": "uint256[]",
          "name": "_deadlines",
          "type": "uint256[]"
        }
      ],
      "name": "fundTrialAndSetMilestones",
      "outputs": [],
      "stateMutability": "payable",
      "type": "function"
    },
    {
      "inputs": [
        {
          "internalType": "uint256",
          "name": "_trialId",
          "type": "uint256"
        }
      ],
      "name": "getConfirmedDistributedWei",
      "outputs": [
        {
          "internalType": "uint256",
          "name": "",
          "type": "uint256"
        }
      ],
      "stateMutability": "view",
      "type": "function"
    },
    {
      "inputs": [
        {
          "internalType": "uint256",
          "name": "_trialId",
          "type": "uint256"
        }
      ],
      "name": "getEncryptedPoolSize",
      "outputs": [
        {
          "internalType": "euint64",
          "name": "",
          "type": "bytes32"
        }
      ],
      "stateMutability": "view",
      "type": "function"
    },
    {
      "inputs": [
        {
          "internalType": "uint256",
          "name": "_trialId",
          "type": "uint256"
        }
      ],
      "name": "getParticipantCount",
      "outputs": [
        {
          "internalType": "uint256",
          "name": "",
          "type": "uint256"
        }
      ],
      "stateMutability": "view",
      "type": "function"
    },
    {
      "inputs": [
        {
          "internalType": "uint256",
          "name": "_trialId",
          "type": "uint256"
        },
        {
          "internalType": "address",
          "name": "_participant",
          "type": "address"
        },
        {
          "internalType": "uint256",
          "name": "_milestoneIndex",
          "type": "uint256"
        }
      ],
      "name": "getStagedEntitlement",
      "outputs": [
        {
          "internalType": "ebool",
          "name": "",
          "type": "bytes32"
        }
      ],
      "stateMutability": "view",
      "type": "function"
    },
    {
      "inputs": [
        {
          "internalType": "uint256",
          "name": "_trialId",
          "type": "uint256"
        },
        {
          "internalType": "address",
          "name": "_participant",
          "type": "address"
        },
        {
          "internalType": "uint256",
          "name": "_milestoneIndex",
          "type": "uint256"
        }
      ],
      "name": "getStagedShareWei",
      "outputs": [
        {
          "internalType": "uint256",
          "name": "",
          "type": "uint256"
        }
      ],
      "stateMutability": "view",
      "type": "function"
    },
    {
      "inputs": [
        {
          "internalType": "uint256",
          "name": "_trialId",
          "type": "uint256"
        }
      ],
      "name": "getTotalDeposited",
      "outputs": [
        {
          "internalType": "uint256",
          "name": "",
          "type": "uint256"
        }
      ],
      "stateMutability": "view",
      "type": "function"
    },
    {
      "inputs": [
        {
          "internalType": "uint256",
          "name": "_trialId",
          "type": "uint256"
        }
      ],
      "name": "isDistributed",
      "outputs": [
        {
          "internalType": "bool",
          "name": "",
          "type": "bool"
        }
      ],
      "stateMutability": "view",
      "type": "function"
    },
    {
      "inputs": [
        {
          "internalType": "uint256",
          "name": "_trialId",
          "type": "uint256"
        },
        {
          "internalType": "address",
          "name": "_participant",
          "type": "address"
        }
      ],
      "name": "isParticipantRegistered",
      "outputs": [
        {
          "internalType": "bool",
          "name": "",
          "type": "bool"
        }
      ],
      "stateMutability": "view",
      "type": "function"
    },
    {
      "inputs": [
        {
          "internalType": "uint256",
          "name": "_trialId",
          "type": "uint256"
        }
      ],
      "name": "isPoolFunded",
      "outputs": [
        {
          "internalType": "bool",
          "name": "",
          "type": "bool"
        }
      ],
      "stateMutability": "view",
      "type": "function"
    },
    {
      "inputs": [
        {
          "internalType": "uint256",
          "name": "",
          "type": "uint256"
        },
        {
          "internalType": "uint256",
          "name": "",
          "type": "uint256"
        }
      ],
      "name": "lastPaidParticipantIndex",
      "outputs": [
        {
          "internalType": "uint256",
          "name": "",
          "type": "uint256"
        }
      ],
      "stateMutability": "view",
      "type": "function"
    },
    {
      "inputs": [
        {
          "internalType": "uint256",
          "name": "",
          "type": "uint256"
        },
        {
          "internalType": "uint256",
          "name": "",
          "type": "uint256"
        }
      ],
      "name": "lastProcessedIndex",
      "outputs": [
        {
          "internalType": "uint256",
          "name": "",
          "type": "uint256"
        }
      ],
      "stateMutability": "view",
      "type": "function"
    },
    {
      "inputs": [
        {
          "internalType": "uint256",
          "name": "_trialId",
          "type": "uint256"
        }
      ],
      "name": "makeEncryptedPoolSizePublic",
      "outputs": [],
      "stateMutability": "nonpayable",
      "type": "function"
    },
    {
      "inputs": [
        {
          "internalType": "uint256",
          "name": "",
          "type": "uint256"
        },
        {
          "internalType": "uint256",
          "name": "",
          "type": "uint256"
        }
      ],
      "name": "milestoneDistributed",
      "outputs": [
        {
          "internalType": "bool",
          "name": "",
          "type": "bool"
        }
      ],
      "stateMutability": "view",
      "type": "function"
    },
    {
      "inputs": [
        {
          "internalType": "uint256",
          "name": "",
          "type": "uint256"
        },
        {
          "internalType": "uint256",
          "name": "",
          "type": "uint256"
        }
      ],
      "name": "milestoneDistributedWei",
      "outputs": [
        {
          "internalType": "uint256",
          "name": "",
          "type": "uint256"
        }
      ],
      "stateMutability": "view",
      "type": "function"
    },
    {
      "inputs": [],
      "name": "milestoneManager",
      "outputs": [
        {
          "internalType": "contract IVaultMilestoneManager",
          "name": "",
          "type": "address"
        }
      ],
      "stateMutability": "view",
      "type": "function"
    },
    {
      "inputs": [],
      "name": "milestoneManagerChangeEta",
      "outputs": [
        {
          "internalType": "uint256",
          "name": "",
          "type": "uint256"
        }
      ],
      "stateMutability": "view",
      "type": "function"
    },
    {
      "inputs": [
        {
          "internalType": "uint256",
          "name": "",
          "type": "uint256"
        },
        {
          "internalType": "uint256",
          "name": "",
          "type": "uint256"
        }
      ],
      "name": "milestoneRemainderPaid",
      "outputs": [
        {
          "internalType": "bool",
          "name": "",
          "type": "bool"
        }
      ],
      "stateMutability": "view",
      "type": "function"
    },
    {
      "inputs": [
        {
          "internalType": "address",
          "name": "",
          "type": "address"
        },
        {
          "internalType": "address",
          "name": "from",
          "type": "address"
        },
        {
          "internalType": "euint64",
          "name": "amount",
          "type": "bytes32"
        },
        {
          "internalType": "bytes",
          "name": "data",
          "type": "bytes"
        }
      ],
      "name": "onConfidentialTransferReceived",
      "outputs": [
        {
          "internalType": "ebool",
          "name": "",
          "type": "bytes32"
        }
      ],
      "stateMutability": "nonpayable",
      "type": "function"
    },
    {
      "inputs": [],
      "name": "owner",
      "outputs": [
        {
          "internalType": "address",
          "name": "",
          "type": "address"
        }
      ],
      "stateMutability": "view",
      "type": "function"
    },
    {
      "inputs": [
        {
          "internalType": "uint256",
          "name": "",
          "type": "uint256"
        },
        {
          "internalType": "uint256",
          "name": "",
          "type": "uint256"
        }
      ],
      "name": "paginationStarted",
      "outputs": [
        {
          "internalType": "bool",
          "name": "",
          "type": "bool"
        }
      ],
      "stateMutability": "view",
      "type": "function"
    },
    {
      "inputs": [
        {
          "internalType": "uint256",
          "name": "",
          "type": "uint256"
        },
        {
          "internalType": "address",
          "name": "",
          "type": "address"
        },
        {
          "internalType": "uint256",
          "name": "",
          "type": "uint256"
        }
      ],
      "name": "participantMilestonePaid",
      "outputs": [
        {
          "internalType": "bool",
          "name": "",
          "type": "bool"
        }
      ],
      "stateMutability": "view",
      "type": "function"
    },
    {
      "inputs": [],
      "name": "pendingAutomationContract",
      "outputs": [
        {
          "internalType": "address",
          "name": "",
          "type": "address"
        }
      ],
      "stateMutability": "view",
      "type": "function"
    },
    {
      "inputs": [],
      "name": "pendingDataAccessLog",
      "outputs": [
        {
          "internalType": "address",
          "name": "",
          "type": "address"
        }
      ],
      "stateMutability": "view",
      "type": "function"
    },
    {
      "inputs": [],
      "name": "pendingMilestoneManager",
      "outputs": [
        {
          "internalType": "address",
          "name": "",
          "type": "address"
        }
      ],
      "stateMutability": "view",
      "type": "function"
    },
    {
      "inputs": [],
      "name": "pendingOwner",
      "outputs": [
        {
          "internalType": "address",
          "name": "",
          "type": "address"
        }
      ],
      "stateMutability": "view",
      "type": "function"
    },
    {
      "inputs": [
        {
          "internalType": "uint256",
          "name": "",
          "type": "uint256"
        }
      ],
      "name": "pendingReclaimRecipient",
      "outputs": [
        {
          "internalType": "address",
          "name": "",
          "type": "address"
        }
      ],
      "stateMutability": "view",
      "type": "function"
    },
    {
      "inputs": [
        {
          "internalType": "uint256",
          "name": "",
          "type": "uint256"
        }
      ],
      "name": "pendingReclaimWei",
      "outputs": [
        {
          "internalType": "uint256",
          "name": "",
          "type": "uint256"
        }
      ],
      "stateMutability": "view",
      "type": "function"
    },
    {
      "inputs": [],
      "name": "pendingSponsorRegistry",
      "outputs": [
        {
          "internalType": "address",
          "name": "",
          "type": "address"
        }
      ],
      "stateMutability": "view",
      "type": "function"
    },
    {
      "inputs": [
        {
          "internalType": "uint256",
          "name": "_trialId",
          "type": "uint256"
        },
        {
          "internalType": "uint256",
          "name": "_milestoneIndex",
          "type": "uint256"
        }
      ],
      "name": "prepareEntitlementProof",
      "outputs": [
        {
          "internalType": "bytes32",
          "name": "",
          "type": "bytes32"
        }
      ],
      "stateMutability": "nonpayable",
      "type": "function"
    },
    {
      "inputs": [
        {
          "internalType": "address",
          "name": "_newOwner",
          "type": "address"
        }
      ],
      "name": "proposeOwnership",
      "outputs": [],
      "stateMutability": "nonpayable",
      "type": "function"
    },
    {
      "inputs": [
        {
          "internalType": "uint256",
          "name": "_trialId",
          "type": "uint256"
        },
        {
          "internalType": "uint256",
          "name": "_milestoneIndex",
          "type": "uint256"
        }
      ],
      "name": "pruneUnconfirmedSlots",
      "outputs": [],
      "stateMutability": "nonpayable",
      "type": "function"
    },
    {
      "inputs": [
        {
          "internalType": "uint256",
          "name": "_trialId",
          "type": "uint256"
        }
      ],
      "name": "reclaimAbandonedToOwner",
      "outputs": [],
      "stateMutability": "nonpayable",
      "type": "function"
    },
    {
      "inputs": [
        {
          "internalType": "uint256",
          "name": "",
          "type": "uint256"
        }
      ],
      "name": "reclaimFinalized",
      "outputs": [
        {
          "internalType": "bool",
          "name": "",
          "type": "bool"
        }
      ],
      "stateMutability": "view",
      "type": "function"
    },
    {
      "inputs": [
        {
          "internalType": "uint256",
          "name": "_trialId",
          "type": "uint256"
        }
      ],
      "name": "reclaimUndistributed",
      "outputs": [],
      "stateMutability": "nonpayable",
      "type": "function"
    },
    {
      "inputs": [
        {
          "internalType": "address",
          "name": "_recipient",
          "type": "address"
        }
      ],
      "name": "recoverStrandedCeth",
      "outputs": [],
      "stateMutability": "nonpayable",
      "type": "function"
    },
    {
      "inputs": [
        {
          "internalType": "uint256",
          "name": "_trialId",
          "type": "uint256"
        },
        {
          "internalType": "uint256",
          "name": "_nullifier",
          "type": "uint256"
        }
      ],
      "name": "registerAnonymousParticipant",
      "outputs": [],
      "stateMutability": "nonpayable",
      "type": "function"
    },
    {
      "inputs": [
        {
          "internalType": "uint256",
          "name": "_trialId",
          "type": "uint256"
        },
        {
          "internalType": "uint256",
          "name": "_nullifier",
          "type": "uint256"
        },
        {
          "internalType": "address",
          "name": "_permitHolder",
          "type": "address"
        },
        {
          "internalType": "uint256",
          "name": "_nonce",
          "type": "uint256"
        },
        {
          "internalType": "uint256",
          "name": "_deadline",
          "type": "uint256"
        },
        {
          "internalType": "bytes",
          "name": "_signature",
          "type": "bytes"
        }
      ],
      "name": "registerAnonymousParticipantFor",
      "outputs": [],
      "stateMutability": "nonpayable",
      "type": "function"
    },
    {
      "inputs": [
        {
          "internalType": "uint256",
          "name": "",
          "type": "uint256"
        },
        {
          "internalType": "address",
          "name": "",
          "type": "address"
        }
      ],
      "name": "registerParticipant",
      "outputs": [],
      "stateMutability": "pure",
      "type": "function"
    },
    {
      "inputs": [
        {
          "internalType": "uint256",
          "name": "_trialId",
          "type": "uint256"
        }
      ],
      "name": "requestEncryptedPoolAccess",
      "outputs": [],
      "stateMutability": "nonpayable",
      "type": "function"
    },
    {
      "inputs": [
        {
          "internalType": "uint256",
          "name": "_trialId",
          "type": "uint256"
        },
        {
          "internalType": "uint256",
          "name": "_milestoneIndex",
          "type": "uint256"
        }
      ],
      "name": "resetPaginationState",
      "outputs": [],
      "stateMutability": "nonpayable",
      "type": "function"
    },
    {
      "inputs": [
        {
          "internalType": "address",
          "name": "_automation",
          "type": "address"
        }
      ],
      "name": "scheduleAutomationContract",
      "outputs": [],
      "stateMutability": "nonpayable",
      "type": "function"
    },
    {
      "inputs": [
        {
          "internalType": "address",
          "name": "_dataAccessLog",
          "type": "address"
        }
      ],
      "name": "scheduleDataAccessLog",
      "outputs": [],
      "stateMutability": "nonpayable",
      "type": "function"
    },
    {
      "inputs": [
        {
          "internalType": "address",
          "name": "_milestoneManager",
          "type": "address"
        }
      ],
      "name": "scheduleMilestoneManager",
      "outputs": [],
      "stateMutability": "nonpayable",
      "type": "function"
    },
    {
      "inputs": [
        {
          "internalType": "address",
          "name": "_registry",
          "type": "address"
        }
      ],
      "name": "scheduleSponsorRegistry",
      "outputs": [],
      "stateMutability": "nonpayable",
      "type": "function"
    },
    {
      "inputs": [
        {
          "internalType": "address",
          "name": "_automation",
          "type": "address"
        }
      ],
      "name": "setAutomationContract",
      "outputs": [],
      "stateMutability": "nonpayable",
      "type": "function"
    },
    {
      "inputs": [
        {
          "internalType": "address",
          "name": "_dataAccessLog",
          "type": "address"
        }
      ],
      "name": "setDataAccessLog",
      "outputs": [],
      "stateMutability": "nonpayable",
      "type": "function"
    },
    {
      "inputs": [
        {
          "internalType": "uint256",
          "name": "trialId",
          "type": "uint256"
        },
        {
          "internalType": "bool",
          "name": "force",
          "type": "bool"
        }
      ],
      "name": "setForceBatchRevertForTrial",
      "outputs": [],
      "stateMutability": "nonpayable",
      "type": "function"
    },
    {
      "inputs": [
        {
          "internalType": "address",
          "name": "participant",
          "type": "address"
        },
        {
          "internalType": "bool",
          "name": "force",
          "type": "bool"
        }
      ],
      "name": "setForceCreditRevertForParticipant",
      "outputs": [],
      "stateMutability": "nonpayable",
      "type": "function"
    },
    {
      "inputs": [
        {
          "internalType": "address",
          "name": "_milestoneManager",
          "type": "address"
        }
      ],
      "name": "setMilestoneManager",
      "outputs": [],
      "stateMutability": "nonpayable",
      "type": "function"
    },
    {
      "inputs": [
        {
          "internalType": "address",
          "name": "_registry",
          "type": "address"
        }
      ],
      "name": "setSponsorRegistry",
      "outputs": [],
      "stateMutability": "nonpayable",
      "type": "function"
    },
    {
      "inputs": [
        {
          "internalType": "bool",
          "name": "enabled",
          "type": "bool"
        }
      ],
      "name": "setTestHelpersEnabled",
      "outputs": [],
      "stateMutability": "nonpayable",
      "type": "function"
    },
    {
      "inputs": [
        {
          "internalType": "uint256",
          "name": "_trialId",
          "type": "uint256"
        },
        {
          "internalType": "uint256",
          "name": "_milestoneIndex",
          "type": "uint256"
        }
      ],
      "name": "signalMilestoneDistributed",
      "outputs": [],
      "stateMutability": "nonpayable",
      "type": "function"
    },
    {
      "inputs": [],
      "name": "sponsorRegistry",
      "outputs": [
        {
          "internalType": "contract IVaultSponsorRegistry",
          "name": "",
          "type": "address"
        }
      ],
      "stateMutability": "view",
      "type": "function"
    },
    {
      "inputs": [],
      "name": "sponsorRegistryChangeEta",
      "outputs": [
        {
          "internalType": "uint256",
          "name": "",
          "type": "uint256"
        }
      ],
      "stateMutability": "view",
      "type": "function"
    },
    {
      "inputs": [],
      "name": "testHelpersEnabled",
      "outputs": [
        {
          "internalType": "bool",
          "name": "",
          "type": "bool"
        }
      ],
      "stateMutability": "view",
      "type": "function"
    },
    {
      "inputs": [],
      "name": "trialManager",
      "outputs": [
        {
          "internalType": "contract IVaultTrialManager",
          "name": "",
          "type": "address"
        }
      ],
      "stateMutability": "view",
      "type": "function"
    },
    {
      "stateMutability": "payable",
      "type": "receive"
    }
  ],
  "bytecode": "0x61016080604052346103d45760608161619a80380380916100208285610407565b8339810103126103d45780516001600160a01b03811691908290036103d45761005760406100506020840161042a565b920161042a565b91604051610066604082610407565b601e815260208101907f4d65645661756c742053706f6e736f72496e63656e746976655661756c7400008252604051916100a1604084610407565b600183526020830191603160f81b83526100b961070c565b50466001036102e8576100ca61070c565b506040516100d7816103d8565b73ca2e8f1f656cd25c01f05d0b243ab1ecd4a8ffb6815273d82385dada1ae3e969447f20a3164f6213100e7560208201527377627828a55156b04ac0dc0eb30467f1a552bb0360408201525b80517f9e7b61f58c47dc699ac88507c4f5bb9f121c03808c5676a8078fe583e464970080546001600160a01b03199081166001600160a01b039384161790915560208301517f9e7b61f58c47dc699ac88507c4f5bb9f121c03808c5676a8078fe583e4649701805483169184169190911790556040909201517f9e7b61f58c47dc699ac88507c4f5bb9f121c03808c5676a8078fe583e4649702805490931691161790556101d08161043e565b610120526101dd846105d4565b61014052519020918260e05251902080610100524660a0526040519060208201927f8b73c3c69bb8fe3d512ecc4cf759cc79239f7b179b0ffacaa9a75d522b39400f8452604083015260608201524660808201523060a082015260a0815261024660c082610407565b5190206080523060c052600880546001600160a01b03199081163317909155600280548216929092179091556003805482166001600160a01b039384161790556004805490911692909116919091179055604051615a6f908161072b823960805181614bef015260a05181614cac015260c05181614bb9015260e05181614c3e01526101005181614c640152610120518161242f015261014051816124590152f35b4662aa36a703610357576102fa61070c565b50604051610307816103d8565b73f0ffdc93b7e186bc2f8cb3daa75d86d1930a433d81527392c920834ec8941d2c77d188936e1f7a6f49c127602082015273be0e383937d564d7ff0bc3b46c51f0bf8d5c311a6040820152610123565b46617a69036103c55761036861070c565b50604051610375816103d8565b7350157cffd6bbfa2dece204a89ec419c23ef5755d815273e3a9105a3a932253a70f126eb1e3b589c643dd24602082015273901f8942346f7ab3a01f6d7613119bca447bb0306040820152610123565b6373cac13b60e01b5f5260045ffd5b5f80fd5b606081019081106001600160401b038211176103f357604052565b634e487b7160e01b5f52604160045260245ffd5b601f909101601f19168101906001600160401b038211908210176103f357604052565b51906001600160a01b03821682036103d457565b908151602081105f146104b8575090601f815111610478576020815191015160208210610469571790565b5f198260200360031b1b161790565b604460209160405192839163305a27a960e01b83528160048401528051918291826024860152018484015e5f828201840152601f01601f19168101030190fd5b6001600160401b0381116103f3575f54600181811c911680156105ca575b60208210146105b657601f8111610584575b50602092601f821160011461052557928192935f9261051a575b50508160011b915f199060031b1c1916175f5560ff90565b015190505f80610502565b601f198216935f8052805f20915f5b86811061056c5750836001959610610554575b505050811b015f5560ff90565b01515f1960f88460031b161c191690555f8080610547565b91926020600181928685015181550194019201610534565b5f8052601f60205f20910160051c810190601f830160051c015b8181106105ab57506104e8565b5f815560010161059e565b634e487b7160e01b5f52602260045260245ffd5b90607f16906104d6565b908151602081105f146105ff575090601f815111610478576020815191015160208210610469571790565b6001600160401b0381116103f357600154600181811c91168015610702575b60208210146105b657601f81116106cf575b50602092601f821160011461066e57928192935f92610663575b50508160011b915f199060031b1c19161760015560ff90565b015190505f8061064a565b601f1982169360015f52805f20915f5b8681106106b7575083600195961061069f575b505050811b0160015560ff90565b01515f1960f88460031b161c191690555f8080610691565b9192602060018192868501518155019401920161067e565b60015f52601f60205f20910160051c810190601f830160051c015b8181106106f75750610630565b5f81556001016106ea565b90607f169061061e565b60405190610719826103d8565b5f604083828152826020820152015256fe60806040526004361015610075575b3615610018575f80fd5b60405162461bcd60e51b815260206004820152602f60248201527f5573652066756e64547269616c28747269616c49642920746f2066756e64206160448201526e081cdc1958da599a58c81d1c9a585b608a1b6064820152608490fd5b5f5f3560e01c8062b6cbdf1461433d57806302d20dff146142ec57806304d45662146141795780630689d5ed1461415057806307982309146141275780630aed46611461403f5780630b7d662f14614016578063118a654014613600578063137758b914613fe757806315e2b57914613de2578063163745af14613da55780632251880914613d2f57806322ddb7c614613c9d57806323738e3414613c805780632753663d14613c0b578063289e2e9014613b5a5780632c083c9f14613b3c5780632c20f883146139f15780632d61629f146139b25780632ea7ca0b146139235780632f447c1f146138f9578063301fc2931461384257806330afdb6114613815578063350289ff1461375d57806335099f2b1461372057806339436aa3146136ec5780633a67e675146136ba5780633b1b84ff146136055780633c08dc28146136005780633ef3e1ee146135735780634081b87f146135295780634184a57f146133e557806346083bfd1461339257806346394173146132d4578063477e74b614612e1857806348801b4f14612deb57806349ed3cee14612c975780634d83181e14612c5a5780634f11c69014612c3157806355f8cfdd14612c08578063594d9bcf14612bdf57806359c56d2814612bc35780635ad8349114612ba05780635e6cd8bd14612ac65780635f3eb64e14612a9257806362909f0a146129ff5780636aeb14a5146129555780636f62c3a614612923578063710bf322146128af578063724cd798146127d5578063750b4b0714612793578063754ad0de146126f057806379ba50971461267a5780637ef4775b1461264e5780638194a34f146125bb57806382fdc7bb1461251157806384b0196e1461241557806386ae5fec146123e957806388012327146123a75780638927b030146123845780638c337a8d146122da5780638da5cb5b146122b15780638ffaa42b146121d757806391c05b0b14611ef857806398edadc314611e3f578063997f540914611cb55780639a5c845514611c835780639b827a8714611b2e5780639d3f061814611a54578063a1b4d01114611a2b578063a1ddb208146119ee578063a768f285146119bf578063b65e2bbc14611982578063b807420c1461132e578063bc93ac40146111fe578063bde501bd146111ca578063be26085e146111b2578063c322122714611180578063c3d7daa814611143578063cb84e537146110f6578063d62aad2914610717578063d8332aa714611037578063d84df05b1461100a578063d898ef8b14610f62578063dbf011c314610f39578063e263de6d14610ede578063e30c397814610eb5578063e3b39cfd14610778578063e544504614610749578063e622cffc1461071c578063e8b60d0c14610717578063ef226212146106ca578063f3baf070146106ae578063f520f24f14610616578063f9d01f7b146104d45763facd0ada1461049f575061000e565b346104d15760203660031901126104d157602090600435815260218252604060018060a01b0391205416604051908152f35b80fd5b50346104d15760203660031901126104d1576008546001600160a01b031633819003610607576002600b54146105f8576002600b55600354600554600a5484936001600160a01b039182169373__$8b2ef85bbc74f64c478a5e9485e3a6d0ab$__9383169216833b156105f45785936101c4926040519687958694632b1bb7a360e21b86526004860152602485015260448401526010606484015260196084840152601360a4840152601460c4840152602260e4840152602061010484015260216101248401526004356101448401526101648301526276a70061018483015262093a806101a48301525af480156105e9576105d4575b506001600b5580f35b816105de91614543565b6104d157805f6105cb565b6040513d84823e3d90fd5b8580fd5b633ee5aeb560e01b8252600482fd5b635fc483c560e01b8252600482fd5b50346104d15760203660031901126104d157610630614399565b506008546001600160a01b0316330361069f5760405162461bcd60e51b815260206004820152602e60248201527f557365207363686564756c65446174614163636573734c6f67202b206170706c60448201526d79446174614163636573734c6f6760901b6064820152608490fd5b635fc483c560e01b8152600490fd5b50346104d157806003193601126104d157602060405160c88152f35b50346104d15760403660031901126104d1576106e46143af565b5060405162461bcd60e51b815260206004820152600a60248201526911195c1c9958d85d195960b21b6044820152606490fd5b614526565b50346104d157604060209161073036614445565b908252601e845282822090825283522054604051908152f35b50346104d15760203660031901126104d15760ff60406020926004358152600d84522054166040519015158152f35b50346104d15760803660031901126104d157600435602435604435606435906002600b5414610ea657906024916002600b556107b385615403565b600354604051631a7f3c3360e01b81526004810187905293879185919082906001600160a01b03165afa928315610e9b578693610e77575b50608083018051909390610807906001600160a01b03166152d5565b858752601960205260ff604088205416610e685784159081610e22575b506005546001600160a01b03168015159390889085610dbd575b50508315610da95786885260116020526040882086895260205260ff604089205416610d9a575b86885260106020526004604089200154948515610d8b5785841015610d7c5751889392919061089c906001600160a01b0316615315565b82610d4457878452601a6020526040842087855260205260408420600160ff19825416179055878452601c602052604084208785526020525f1960408520555b856108e78285614b3e565b1115610d345750845b8415610d1457600554888552601060205260408086208151637838526b60e11b81529283918291610932918d918f91906001600160a01b031660048601614ae6565b038173__$20089efc5df3e31f24c7f58c3630512626$__5af48015610d095785918691610ce4575b5061097190915b61096b8484614b0a565b90614b31565b96600160ff19600c541617600c5573__$20089efc5df3e31f24c7f58c3630512626$__9160018060a01b0360055416908b885260106020526040882060018060a01b036002541660018060a01b03600454169160405194637e3edb1d60e01b865260048601526024850152601360448501526017606485015260156084850152601660a485015260c484015260e48301528b6101048301528a61012483015286610144830152826101648301526101848201526040816101a481865af4908115610ca35787908892610cb2575b505060ff19600c5416600c55823b15610cae576040519063e76c64d160e01b8252601c60048301528b60248301528a604483015260648201528681608481865af4908115610ca3578791610c8e575b50508281149788610c5c575b5060018060a01b03600554168a875260106020526040872092803b15610c58578b95889561014494604051988997889662efcfeb60e41b885260048801526024870152601b6044870152601160648701526013608487015260a48601528d60c486015260e48501526101048401526101248301525af4908115610c4d578391610c34575b50506006546001600160a01b03169081610b92575b5050505f14610b5d575060205f5160206159635f395f51905f5291604051908152a25b6001600b5580f35b9050610b6a575b50610b55565b610b7b610b75614b64565b82615427565b5f5160206159c35f395f51905f528280a25f610b64565b6040516020810191701410549512505317d41051d25390551151607a1b8352876031830152605182015242607182015260718152610bd1609182614543565b51902090803b15610c30576040516306cc173360e41b81529183918391829084908290610c02908d60048401614b4b565b03925af180156105e957610c17575b80610b32565b81610c2191614543565b610c2c57845f610c11565b8480fd5b8280fd5b81610c3e91614543565b610c4957815f610b1d565b5080fd5b6040513d85823e3d90fd5b8780fd5b610c7e908b8852601c602052604088208b895260205260408820548b8d6154ef565b50610c888a61537e565b5f610a99565b81610c9891614543565b6105f457855f610a8d565b6040513d89823e3d90fd5b8680fd5b9050610cd6915060403d604011610cdd575b610cce8183614543565b810190614ad0565b905f610a3e565b503d610cc4565b6109719250610d02915060403d604011610cdd57610cce8183614543565b909161095a565b6040513d87823e3d90fd5b87845260106020526040842054610971610d2e8383614b98565b91610961565b610d3e9083614b3e565b946108f0565b909192879052601b6020526040882086895260205260408820548303610d6d57908792916108dc565b63ba00382760e01b8852600488fd5b6392c4425960e01b8952600489fd5b6308b6a47360e41b8952600489fd5b6312a4939960e11b8852600488fd5b81610865576361a9d49760e11b8852600488fd5b60249295506040519283809263010b152760e61b82528b60048301525afa908115610e17578891610df5575b5051151592875f61083e565b610e1191503d808a833e610e098183614543565b8101906149a4565b5f610de9565b6040513d8a823e3d90fd5b6101e001514210610e5957858752601060205260ff600560408920015416610e4a575f610824565b630612284560e31b8752600487fd5b634aeab5cb60e01b8752600487fd5b6386864ec960e01b8752600487fd5b610e949193503d8088833e610e8c8183614543565b81019061462d565b915f6107eb565b6040513d88823e3d90fd5b633ee5aeb560e01b8552600485fd5b50346104d157806003193601126104d1576009546040516001600160a01b039091168152602090f35b50346104d15760403660031901126104d157610f36610efb614399565b610f03614436565b90610f1260ff60235416614e1a565b60018060a01b031683526024602052604083209060ff801983541691151516179055565b80f35b50346104d157806003193601126104d157600a546040516001600160a01b039091168152602090f35b50346104d15760203660031901126104d157600354604051631a7f3c3360e01b815260048035908201819052918390829060249082906001600160a01b03165afa908115610c4d578391610ff0575b50608001516001600160a01b03163303610fe15781526010602052610fdd3360036040842001546154c8565b5080f35b6326344e6160e11b8252600482fd5b61100491503d8085833e610e8c8183614543565b5f610fb1565b50346104d157604060209161101e36614445565b908252601b845282822090825283522054604051908152f35b50346104d15760203660031901126104d157611051614399565b6008546001600160a01b0316330361060757819073__$d081b0b463b43508caf3870f031b91cf91$__90813b156110f257604051633a1e468b60e01b8152600e6004820152600f60248201525f5160206159835f395f51905f5260448201526001600160a01b0390911660648201526154606084820152908290829060a49082905af480156105e9576110e15750f35b816110eb91614543565b6104d15780f35b5050fd5b50346104d15760403660031901126104d157600860406111146143af565b926004358152601060205220019060018060a01b03165f52602052602060ff60405f2054166040519015158152f35b50346104d157806003193601126104d157805f516020615a035f395f51905f5260209252600e8252604060018060a01b0391205416604051908152f35b50346104d15760ff604060209261119636614445565b9082526011855282822090825284522054166040519015158152f35b5060203660031901126104d157610f36600435614e43565b50346104d157806003193601126104d1576040815f516020615a035f395f51905f5260209352600f83522054604051908152f35b50346104d15760203660031901126104d157600354604051631a7f3c3360e01b815260048035908201819052918390829060249082906001600160a01b03165afa908115610c4d578391611314575b50608001516001600160a01b031633148015611300575b156112f15780825260106020526003604083200154156112e3578082526010602052600360408320015480156112d5575b61129e8161564a565b818352601060205260036040842001557fbcd6e6c64403989d95d0d448676b13035a796bae3971fe10b105d9819b4a53628280a280f35b506112de6155f7565b611295565b6239146960e21b8252600482fd5b63ea8e4eb560e01b8252600482fd5b506008546001600160a01b03163314611264565b61132891503d8085833e610e8c8183614543565b5f61124d565b50346104d15761133d36614445565b6002600b5414611973576002600b55600354604051631a7f3c3360e01b815260048101849052908490829060249082906001600160a01b03165afa90811561196857849161194e575b5060808101805161139f906001600160a01b03166152d5565b838552601960205260ff60408620541661193f57838552601a6020526040852083865260205260ff604086205416611930576005546001600160a01b0316156119215783855260116020526040852083865260205260ff60408620541661191257821591826118f2575b50838552601060205260046040862001549081156118e357601482116118d4575161143c906001600160a01b0316615315565b600554848652601060205260408087208151637838526b60e11b815273__$20089efc5df3e31f24c7f58c3630512626$__949390929183918291611490918a918c916001600160a01b031660048601614ae6565b0381865af4908115610ca357879088926118b0575b506114b49061096b8484614b0a565b9087885b84811061177857501561176957600160ff19600c541617600c5560018060a01b03600554169287895260106020526040892060018060a01b036002541660018060a01b03600454169160405196637e3edb1d60e01b885260048801526024870152601360448701526017606487015260156084870152601660a487015260c486015260e48501528761010485015286610124850152886101448501526101648401526101848301526040826101a481865af48015610ca3576115909288908992611747575b505060ff19600c5416600c5585876154ef565b50602060018060a01b03600554168587526010825260a4604088209160405194859384926311f189c360e01b845260048401526024830152601360448301528860648301528760848301525af4908115610d0957859161170d575b50156116e7575b6116c8575b6116008261537e565b60065483906001600160a01b031680611636575b505060205f5160206159635f395f51905f5291604051908152a26001600b5580f35b6040516020810190732820a92a24a0a62fa224a9aa2924a12aaa24a7a760611b825284603482015242605482015260548152611673607482614543565b51902090803b15610c30576040516306cc173360e41b815291839183918290849082906116a4908b60048401614b4b565b03925af180156105e9571561161457816116bd91614543565b610c3057825f611614565b818352601060205260408320600501805460ff191660011790556115f7565b82845260116020526040842082855260205260408420600160ff198254161790556115f2565b90506020813d60201161173f575b8161172860209383614543565b81010312610c2c5761173990614603565b5f6115eb565b3d915061171b565b9050611762915060403d604011610cdd57610cce8183614543565b905f61157d565b630353878960e61b8852600488fd5b888a526010602052600460408b2001805482101561189c578a5260018060a01b038160208c200154168060208b60018060a01b03600554166117cf8d604051968794859463fb6e1b7d60e01b865260048601614aa5565b03818b5af4918215611891578c92611852575b508161181d575b506117f7575b6001016114b8565b905f19811461180957600101906117ef565b634e487b7160e01b8a52601160045260248afd5b9050898b52601360205260408b209060018060a01b03165f5260205260405f20888b5260205260ff60408b205416155f6117e9565b9091506020813d8211611889575b8161186d60209383614543565b810103126118855761187e90614603565b905f6117e2565b8b80fd5b3d9150611860565b6040513d8e823e3d90fd5b634e487b7160e01b8b52603260045260248bfd5b6114b492506118ce915060403d604011610cdd57610cce8183614543565b916114a5565b630be7ba4b60e11b8652600486fd5b6308b6a47360e41b8652600486fd5b6101e001514210611903575f611409565b634aeab5cb60e01b8552600485fd5b6312a4939960e11b8552600485fd5b63af016c4160e01b8552600485fd5b63d1a7cdfb60e01b8552600485fd5b6386864ec960e01b8552600485fd5b61196291503d8086833e610e8c8183614543565b5f611386565b6040513d86823e3d90fd5b633ee5aeb560e01b8352600483fd5b50346104d1576040602091611996366143c5565b918352601685528383209060018060a01b03165f528452825f2090825283522054604051908152f35b50346104d15760203660031901126104d15760ff60406020926004358152601984522054166040519015158152f35b50346104d157806003193601126104d157805f516020615a435f395f51905f5260209252600e8252604060018060a01b0391205416604051908152f35b50346104d157806003193601126104d1576002546040516001600160a01b039091168152602090f35b50346104d157806003193601126104d1576008546001600160a01b0316330361069f5760405163011c7d0760e41b8152600e6004820152600f60248201525f5160206159835f395f51905f52604482015260208160648173__$d081b0b463b43508caf3870f031b91cf91$__5af49081156105e9578291611af4575b50600680546001600160a01b0319166001600160a01b039290921691909117905580f35b90506020813d602011611b26575b81611b0f60209383614543565b81010312610c4957611b20906145ef565b5f611ad0565b3d9150611b02565b50346104d15760c03660031901126104d15780611b49614383565b60a4356001600160401b0381116110f257611b689036906004016143ef565b600354600454600654939492936001600160a01b039081169373__$721858195384d384a1814e6d56e9b9f856$__939282169290911690611ba7614bb6565b96843b15611c7f578896611c6692604051998a988997889763276c886960e01b89526004890152602488015260448701526010606487015260186084870152601760a4870152600d60c48701527f19dfaff0b0d2be8694bc0be1363e937e5197470eb2875dda9084835bc0f8a7b660e487015261010486015260043561012486015260243561014486015260018060a01b03166101648501526064356101848501526084356101a48501526102006101c485015261020484019161457a565b60c86101e483015203915af480156105e9576110e15750f35b8880fd5b50346104d15760ff6040602092611c9936614445565b908252601a855282822090825284522054166040519015158152f35b50346104d15760203660031901126104d157611ccf614399565b6008546001600160a01b03163303610607576002600b54146105f8576002600b556001600160a01b03168015611e305760025460405163344ff10160e01b815230600482015290602090829060249082906001600160a01b03165afa908115610c4d578391611dfe575b508015611def5780611d4b84926154a6565b50600254611d62906001600160a01b0316826154c8565b506002546001600160a01b031690813b15610c3057829160648392604051948593849263433a9d3760e01b845230600485015289602485015260448401525af180156105e957611dda575b50807fc75760498df3a1545ab1d2266a14ed0628376e863681f8c1c487703397d54d7391a26001600b5580f35b81611de491614543565b610c4957815f611dad565b63fddb35b360e01b8352600483fd5b90506020813d602011611e28575b81611e1960209383614543565b81010312610c3057515f611d39565b3d9150611e0c565b63d92e233d60e01b8252600482fd5b50346104d15760203660031901126104d1576002600b5414611ee9576002600b55600354600a5460085483926001600160a01b0391821692908216911673__$8b2ef85bbc74f64c478a5e9485e3a6d0ab$__803b15610c2c57849260c491604051958694859363428e81bf60e01b8552600485015260248401526020604484015260216064840152600435608484015260a48301525af480156105e9576105d457506001600b5580f35b633ee5aeb560e01b8152600490fd5b50346104d15760203660031901126104d1576004356002600b54146105f8576002600b55611f2581615403565b600354604051631a7f3c3360e01b815260048101839052908390829060249082906001600160a01b03165afa908115610c4d5783916121bd575b50608081018051909190611f7b906001600160a01b03166152d5565b828452601960205260ff6040852054166121ae576101e00180511561219f5751421061219057818352601060205260408320541561218157818352601060205260ff6005604085200154166121725751611fdd906001600160a01b0316615315565b600c805460ff1916600117905560055460025460045484926001600160a01b0391821692908216911673__$20089efc5df3e31f24c7f58c3630512626$__803b15610c2c5784926101849160405195869485936309fc33ff60e41b8552600485015260106024850152601160448501526013606485015260176084850152601560a4850152601660c4850152601d60e48501526101048401526101248301528761014483015260146101648301525af480156105e95761215d575b505060ff19600c5416600c556120ad8161537e565b6005546001600160a01b03168015159083908261210d575b50506120f0575b6120d7610b75614b64565b5f5160206159c35f395f51905f528280a26001600b5580f35b805f5160206159635f395f51905f526020604051858152a26120cc565b602492506040519283809263010b152760e61b82528660048301525afa908115610c4d578391612143575b50511515825f6120c5565b61215791503d8085833e610e098183614543565b5f612138565b8161216791614543565b610c4957815f612098565b630612284560e31b8352600483fd5b634779f51360e11b8352600483fd5b634aeab5cb60e01b8352600483fd5b63abb34bc760e01b8452600484fd5b6386864ec960e01b8452600484fd5b6121d191503d8085833e610e8c8183614543565b5f611f5f565b50346104d157806003193601126104d1576008546001600160a01b0316330361069f5760405163011c7d0760e41b8152600e6004820152600f60248201525f516020615a235f395f51905f52604482015260208160648173__$d081b0b463b43508caf3870f031b91cf91$__5af49081156105e9578291612277575b50600a80546001600160a01b0319166001600160a01b039290921691909117905580f35b90506020813d6020116122a9575b8161229260209383614543565b81010312610c49576122a3906145ef565b5f612253565b3d9150612285565b50346104d157806003193601126104d1576008546040516001600160a01b039091168152602090f35b50346104d15760203660031901126104d1576122f4614399565b6008546001600160a01b0316330361060757819073__$d081b0b463b43508caf3870f031b91cf91$__90813b156110f257604051633a1e468b60e01b8152600e6004820152600f60248201525f516020615a235f395f51905f5260448201526001600160a01b0390911660648201526154606084820152908290829060a49082905af480156105e9576110e15750f35b50346104d157806003193601126104d157602061239f6153d4565b604051908152f35b50346104d15760ff60406020926123bd366143c5565b918352601386528383209060018060a01b03165f528552825f2090825284522054166040519015158152f35b50346104d15760203660031901126104d157600460406020928235815260108452200154604051908152f35b50346104d157806003193601126104d1576124b5906124537f000000000000000000000000000000000000000000000000000000000000000061576f565b9061247d7f0000000000000000000000000000000000000000000000000000000000000000615892565b9060206124c3604051936124918386614543565b8385525f368137604051968796600f60f81b885260e08589015260e0880190614502565b908682036040880152614502565b904660608601523060808601528260a086015284820360c08601528080855193848152019401925b8281106124fa57505050500390f35b8351855286955093810193928101926001016124eb565b50346104d15760203660031901126104d15761252b614399565b6008546001600160a01b0316330361060757819073__$d081b0b463b43508caf3870f031b91cf91$__90813b156110f257604051633a1e468b60e01b8152600e6004820152600f60248201525f516020615a435f395f51905f5260448201526001600160a01b0390911660648201526154606084820152908290829060a49082905af480156105e9576110e15750f35b50346104d15761264a6126166126366126046126286125d93661448b565b9460409a949a98919698519a8b99600260208c015260408b015260a060608b015260c08a0191614824565b878103601f19016080890152916148a8565b848103601f190160a0860152916148e8565b03601f198101835282614543565b604051918291602083526020830190614502565b0390f35b50346104d15760203660031901126104d157604060209160043581526010835220541515604051908152f35b50346104d157806003193601126104d1576009546001600160a01b03811690338290036126e157600880546001600160a01b03199081168417909155166009557fb27970c1714b28277b78cc17ac2fe9556e7f048cd48358cffe3dc7d547608fdc8280a280f35b630f22ca5f60e01b8352600483fd5b50346104d1578061270036614445565b6003546004546006546001600160a01b0390811694918116921673__$721858195384d384a1814e6d56e9b9f856$__803b15610cae578694610124936040519788968795636501f36d60e11b87526004870152602486015260448501526010606485015260186084850152601760a485015260c484015260e483015260c86101048301525af480156105e9576110e15750f35b50346104d15760ff60406020926127a9366143c5565b918352601486528383209060018060a01b03165f528552825f2090825284522054166040519015158152f35b50346104d157806003193601126104d1576008546001600160a01b0316330361069f5760405163011c7d0760e41b8152600e6004820152600f60248201525f516020615a035f395f51905f52604482015260208160648173__$d081b0b463b43508caf3870f031b91cf91$__5af49081156105e9578291612875575b50600580546001600160a01b0319166001600160a01b039290921691909117905580f35b90506020813d6020116128a7575b8161289060209383614543565b81010312610c49576128a1906145ef565b5f612851565b3d9150612883565b50346104d15760203660031901126104d1576128c9614399565b6008546001600160a01b03163303610607576001600160a01b03168015611e3057600980546001600160a01b031916821790557f6ab4d119f23076e8ad491bc65ce85f017fb0591dce08755ba8591059cc51737a8280a280f35b50346104d15760203660031901126104d15760ff60056040602093600435815260108552200154166040519015158152f35b50346104d15760203660031901126104d15761296f614399565b6008546001600160a01b0316330361060757819073__$d081b0b463b43508caf3870f031b91cf91$__90813b156110f257604051633a1e468b60e01b8152600e6004820152600f60248201525f516020615a035f395f51905f5260448201526001600160a01b0390911660648201526154606084820152908290829060a49082905af480156105e9576110e15750f35b50346104d15760203660031901126104d157612a19614399565b506008546001600160a01b0316330361069f5760405162461bcd60e51b815260206004820152603860248201527f557365207363686564756c654175746f6d6174696f6e436f6e7472616374202b60448201527708185c1c1b1e505d5d1bdb585d1a5bdb90dbdb9d1c9858dd60421b6064820152608490fd5b50346104d157806003193601126104d1576040815f516020615a435f395f51905f5260209352600f83522054604051908152f35b50346104d157806003193601126104d1576008546001600160a01b0316330361069f5760405163011c7d0760e41b8152600e6004820152600f60248201525f516020615a435f395f51905f52604482015260208160648173__$d081b0b463b43508caf3870f031b91cf91$__5af49081156105e9578291612b66575b50600780546001600160a01b0319166001600160a01b039290921691909117905580f35b90506020813d602011612b98575b81612b8160209383614543565b81010312610c4957612b92906145ef565b5f612b42565b3d9150612b74565b50346104d157806003193601126104d157602060ff602354166040519015158152f35b50346104d157806003193601126104d157602060405160148152f35b50346104d15760203660031901126104d157604060209160043581528280522054604051908152f35b50346104d157806003193601126104d1576003546040516001600160a01b039091168152602090f35b50346104d157806003193601126104d1576004546040516001600160a01b039091168152602090f35b50346104d1576040602091612c6e366143c5565b918352601585528383209060018060a01b03165f528452825f2090825283522054604051908152f35b50346104d157612ca636614445565b600354604051631a7f3c3360e01b815260048101849052908490829060249082906001600160a01b03165afa8015611968576080918591612dd1575b500180516001600160a01b031633148015612dbd575b15612dae5782845260116020526040842082855260205260ff60408520541615612d9f577fe544deda3b295a666b2656afe9e885946699c0def8e1b1cc3f6b75f36023f5a891612d75602092612d4e60016155a4565b908115612d8e575b612d5f8261564a565b516001600160a01b0316908015612d7f57615711565b604051908152a280f35b50612d89876155a4565b615711565b9050612d99876155a4565b90612d56565b63135aa5d960e01b8452600484fd5b63ea8e4eb560e01b8452600484fd5b506008546001600160a01b03163314612cf8565b612de591503d8087833e610e8c8183614543565b5f612ce2565b50346104d1576040602091612dff36614445565b908252601c845282822090825283522054604051908152f35b50346104d157612e27366143c5565b906002600b54146132c5576002600b5581156132b6576005546001600160a01b0316156132a757600354604051631a7f3c3360e01b815260048101859052908590829060249082906001600160a01b03165afa8015610d0957608091869161328d575b50018051612ea0906001600160a01b03166152d5565b838552601960205260ff60408620541661193f5751612ec7906001600160a01b0316615315565b828452601a6020526040842082855260205260ff60408520541661327e5782845260106020526008604085200160018060a01b0382165f5260205260ff60405f2054161561326f5760055460405163010b152760e61b8152600481018590526001600160a01b03909116908581602481855afa908115610e9b578691613255575b5051831015613246578160208573__$20089efc5df3e31f24c7f58c3630512626$__93612f8a87604051958694859463fb6e1b7d60e01b865260048601614aa5565b0381855af4908115610e9b57869161320c575b50156131fd5783855260136020526040852060018060a01b0383165f5260205260405f2083865260205260ff6040862054166131ee57600554848652601060205260408087208151637838526b60e11b815293919284929183918291613013918a918c916001600160a01b031660048601614ae6565b03915af4908115610d0957859086926131ca575b5061304590858752601060205261096b600460408920015484614b0a565b81858752601d6020526040872085885260205260ff60408820541615806131c1575b61318f575b505080471061318057906130838592828587614cd2565b5061308d8461537e565b6006546001600160a01b031690816130c3575b50505060205f5160206159635f395f51905f5291604051908152a26001600b5580f35b60405160208101917f494e444956494455414c5f4d494c4553544f4e455f444953545249425554494f8352602760f91b604083015260018060601b03199060601b16604182015284605582015242607582015260758152613125609582614543565b51902090803b15610c30576040516306cc173360e41b81529183918391829084908290613156908b60048401614b4b565b03925af180156105e95761316b575b806130a0565b8161317591614543565b610c3057825f613165565b6358140e1f60e01b8552600485fd5b6131999250614b3e565b838552601d6020526040852083865260205260408520600160ff198254161790555f8061306c565b50811515613067565b61304592506131e8915060403d604011610cdd57610cce8183614543565b91613027565b634941611560e11b8552600485fd5b6353793a0160e01b8552600485fd5b90506020813d60201161323e575b8161322760209383614543565b810103126105f45761323890614603565b5f612f9d565b3d915061321a565b63fdf4d87360e01b8552600485fd5b61326991503d8088833e610e098183614543565b5f612f48565b630745908560e41b8452600484fd5b638bf74df360e01b8452600484fd5b6132a191503d8088833e610e8c8183614543565b5f612e8a565b63af016c4160e01b8452600484fd5b63d9aa9ce160e01b8452600484fd5b633ee5aeb560e01b8452600484fd5b50346104d1576132e336614445565b604051630abd0b9160e31b815260106004820152601360248201526014604482015260166064820152608481019290925260a48201529060208260c48173__$5ddaef8cb40fe9e9ff7ecdc8cf0dec9c1b$__5af4908115613386579061334f575b602090604051908152f35b506020813d60201161337e575b8161336960209383614543565b8101031261337a5760209051613344565b5f80fd5b3d915061335c565b604051903d90823e3d90fd5b50346104d15760803660031901126104d1576133ac614399565b506133b56143af565b90606435906001600160401b0382116104d157602061239f846133db36600487016143ef565b916044359061490c565b506133ef3661448b565b90929360248860018060a09b9a99969b1b036003541660405192838092631a7f3c3360e01b82528b60048301525afa908115610e1757889161350f575b50608001516001600160a01b03163303613500576005546001600160a01b03169182156134f1578798839897983b15610c58576134c3889687936134b161349f9a8d956040519c8d9b8c9a8b9963ac79720560e01b8b5260048b01523360248b015260a060448b015260a48a0191614824565b878103600319016064890152916148a8565b848103600319016084860152916148e8565b03925af180156105e9576134dc575b50610f3682614e43565b816134e691614543565b610c4957815f6134d2565b63af016c4160e01b8852600488fd5b63068c4f9960e31b8752600487fd5b61352391503d808a833e610e8c8183614543565b5f61342c565b50346104d15760403660031901126104d157610f36613546614436565b61355460ff60235416614e1a565b60043583526025602052604083209060ff801983541691151516179055565b50346104d15760203660031901126104d15761358d614399565b506008546001600160a01b0316330361069f5760405162461bcd60e51b815260206004820152603260248201527f557365207363686564756c6553706f6e736f725265676973747279202b206170604482015271706c7953706f6e736f72526567697374727960701b6064820152608490fd5b61441c565b50346104d15760203660031901126104d157600354604051631a7f3c3360e01b815260048035908201819052918390829060249082906001600160a01b03165afa908115610c4d57918391604093602095916136a0575b50608001516001600160a01b03163314801561368c575b61367c906147e7565b8152601083522054604051908152f35b506008546001600160a01b03163314613673565b6136b491503d8085833e610e8c8183614543565b5f61365c565b50346104d15760ff60406020926136d036614445565b908252601d855282822090825284522054166040519015158152f35b50346104d157806003193601126104d1576040815f5160206159835f395f51905f5260209352600f83522054604051908152f35b50346104d157806003193601126104d157805f516020615a235f395f51905f5260209252600e8252604060018060a01b0391205416604051908152f35b50346104d15760203660031901126104d157600354604051631a7f3c3360e01b815260048035908201819052918390829060249082906001600160a01b03165afa908115610c4d579260039260409260209583916137fb575b50608001516001600160a01b0316331480156137e7575b6137d6906147e7565b815260108452200154604051908152f35b506008546001600160a01b031633146137cd565b61380f91503d8085833e610e8c8183614543565b5f6137b6565b50346104d15760203660031901126104d15760026040602092600435815260108452200154604051908152f35b50346104d1578061385236614445565b60035460085460075492936001600160a01b03938416939092918116911673__$5ddaef8cb40fe9e9ff7ecdc8cf0dec9c1b$__803b15610cae57869461016493604051978896879563348ecebb60e21b8752600487015260106024870152601460448701526013606487015260156084870152601860a4870152601760c487015260e48601526101048501526101248401526101448301525af480156105e9576110e15750f35b50346104d15760203660031901126104d15760406020916004358152602283522054604051908152f35b50346104d15760203660031901126104d15761393d614399565b506008546001600160a01b0316330361069f5760405162461bcd60e51b815260206004820152603460248201527f557365207363686564756c654d696c6573746f6e654d616e61676572202b20616044820152733838363ca6b4b632b9ba37b732a6b0b730b3b2b960611b6064820152608490fd5b50346104d15760203660031901126104d15760209060ff906040906001600160a01b036139dd614399565b168152602484522054166040519015158152f35b50346104d1576101003660031901126104d157613a0c614383565b906084356001600160401b038111610c4957613a2c9036906004016143ef565b909260e4356001600160401b038111613b3857613a4d9036906004016143ef565b9190946002600b5414610ea6576002600b819055546004549596879673__$871a201da4cfe7de37a3b41fab70ef5db9$__936001600160a01b039182169390911691843b15611c7f578896613afc613b21936040519a8b998a988998633ee7a27f60e11b8a5260048a01526024890152601060448901526004356064890152602435608489015260018060a01b031660a488015260643560c488015261016060e488015261016487019161457a565b60a43561010486015260c435610124860152848103600319016101448601529161457a565b03915af480156105e9576105d457506001600b5580f35b8380fd5b50346104d157806003193601126104d15760206040516276a7008152f35b50346104d157613b6936614445565b6008549091906001600160a01b03163303613bfc5780835260116020526040832082845260205260ff604084205416613bed57808352601a602052604083208284526020526040832060ff198154169055808352601b602052604083208284526020528260408120558252601c602052604082209082526020525f19604082205580f35b63195332a560e01b8352600483fd5b635fc483c560e01b8352600483fd5b50346104d15760803660031901126104d157613c25614383565b9060ff600c541615613c71576001600160a01b03821681526024602052604081205460ff16613c6257602061239f60643584602435600435614cd2565b6354585bf960e01b8152600490fd5b63ea8e4eb560e01b8152600490fd5b50346104d157806003193601126104d15760206040516154608152f35b50346104d15760803660031901126104d157613cb7614383565b6064356001600160401b038111610c3057613cd69036906004016143ef565b60ff600c541615612dae577f67ce8fe26689ae619844cc7e0e68306c21d50ac0b50bd0ca97e875de6fc63991604051936020855260018060a01b03169380613d296024359560043595602084019161457a565b0390a480f35b50346104d15760203660031901126104d157600435801515809103610c4957617a694603613d685760ff80196023541691161760235580f35b60405162461bcd60e51b815260206004820152601560248201527415195cdd081a195b1c195c9cc8191a5cd8589b1959605a1b6044820152606490fd5b50346104d157806003193601126104d157805f5160206159835f395f51905f5260209252600e8252604060018060a01b0391205416604051908152f35b50346104d1576101c03660031901126104d157613dfd614383565b6064356001600160a01b038116929190839003610c495760e4356001600160401b038111610c3057613e339036906004016143ef565b909390610144356001600160401b038111610c2c57613e569036906004016143ef565b956101a4356001600160401b038111610cae57613e779036906004016143ef565b97906002600b5414613fd85787986002600b5573__$871a201da4cfe7de37a3b41fab70ef5db9$__9460018060a01b03600254169360018060a01b036004541695613ec0614bb6565b98883b15613fd4578c9a6040519c8d9b8c9a8b9a6310d0af5f60e01b8c5260048c015260248b015260448a016010905260648a01600d905260848a017fa93a11627adf2c83e8818c9bff24ab5296709dfe56c0c544f3746b0868ec7161905260a48a015260043560c48a015260243560e48a0152600160a01b600190031661010489015261012488015260843561014488015260a43561016488015260c4356101848801526101a487016102809052610284870190613f7e9261457a565b90610104356101c4870152610124356101e487015260031986830301610204870152613fa99261457a565b90610164356102248501526101843561024485015260031984830301610264850152613b219261457a565b8c80fd5b633ee5aeb560e01b8852600488fd5b50346104d15760203660031901126104d15760ff60406020926004358152602584522054166040519015158152f35b50346104d157806003193601126104d1576005546040516001600160a01b039091168152602090f35b50346104d15760203660031901126104d1576002600b5414611ee9576002600b55600354600554600a5460085484936001600160a01b039283169373__$8b2ef85bbc74f64c478a5e9485e3a6d0ab$__939081169281169116833b156105f45785936101a492604051968795869463dcaaca4960e01b86526004860152602485015260448401526010606484015260196084840152601160a4840152601360c4840152601460e4840152602061010484015260216101248401526004356101448401526101648301526276a7006101848301525af480156105e9576105d457506001600b5580f35b50346104d157806003193601126104d1576006546040516001600160a01b039091168152602090f35b50346104d157806003193601126104d1576007546040516001600160a01b039091168152602090f35b503461337a57608036600319011261337a576044356001600160401b03811161337a576141aa9036906004016143ef565b6064356001600160401b03811161337a576141c99036906004016143ef565b6002600b93929354146142dd576002600b8190555460045473__$5ddaef8cb40fe9e9ff7ecdc8cf0dec9c1b$__926001600160a01b039182169290911690833b1561337a575f956142a891614295604051998a9889978897633c90109b60e21b895260048901526024880152601060448801526013606488015260146084880152601260a4880152601560c4880152601660e4880152601e61010488015260176101248801526004356101448801526024356101648801526101c06101848801526101c487019161457a565b848103600319016101a48601529161457a565b03915af480156142d2576142bf57506001600b5580f35b6142cb91505f90614543565b5f5f6105cb565b6040513d5f823e3d90fd5b633ee5aeb560e01b5f5260045ffd5b3461337a575f36600319011261337a575f516020615a235f395f51905f525f52600f60209081527ffb8fa4ba3f1e2f749e2f8d4cf3bc3a1eba5a3b579877f617536dc63c9f9ecf3454604051908152f35b3461337a5761434b366143c5565b915f52601260205260405f209060018060a01b03165f5260205260405f20905f52602052602060ff60405f2054166040519015158152f35b604435906001600160a01b038216820361337a57565b600435906001600160a01b038216820361337a57565b602435906001600160a01b038216820361337a57565b606090600319011261337a57600435906024356001600160a01b038116810361337a579060443590565b9181601f8401121561337a578235916001600160401b03831161337a576020838186019501011161337a57565b3461337a575f36600319011261337a5760206040515f8152f35b60243590811515820361337a57565b604090600319011261337a576004359060243590565b9181601f8401121561337a578235916001600160401b03831161337a576020808501948460051b01011161337a57565b90608060031983011261337a57600435916024356001600160401b03811161337a57816144ba9160040161445b565b909290916044356001600160401b03811161337a57816144dc9160040161445b565b90929091606435906001600160401b03821161337a576144fe9160040161445b565b9091565b805180835260209291819084018484015e5f828201840152601f01601f1916010190565b3461337a575f36600319011261337a57602060405162093a808152f35b601f909101601f19168101906001600160401b0382119082101761456657604052565b634e487b7160e01b5f52604160045260245ffd5b908060209392818452848401375f828201840152601f01601f1916010190565b81601f8201121561337a578051906001600160401b03821161456657604051926145ce601f8401601f191660200185614543565b8284526020838301011161337a57815f9260208093018386015e8301015290565b51906001600160a01b038216820361337a57565b5190811515820361337a57565b519060ff8216820361337a57565b519061ffff8216820361337a57565b60208183031261337a578051906001600160401b03821161337a57016102208183031261337a576040519161022083016001600160401b038111848210176145665760405281516001600160401b03811161337a578161468e91840161459a565b835260208201516001600160401b03811161337a57816146af91840161459a565b602084015260408201516001600160401b03811161337a57816146d391840161459a565b60408401526060820151916001600160401b03831161337a576146fe610200926147de94830161459a565b606085015261470f608082016145ef565b608085015261472060a08201614603565b60a085015261473160c08201614610565b60c085015261474260e08201614610565b60e08501526147546101008201614603565b610100850152614767610120820161461e565b61012085015261477a6101408201614610565b61014085015261478d6101608201614610565b6101608501526147a0610180820161461e565b6101808501526147b36101a08201614603565b6101a08501526147c66101c08201614603565b6101c08501526101e08101516101e085015201614603565b61020082015290565b156147ee57565b60405162461bcd60e51b815260206004820152600e60248201526d139bdd08185d5d1a1bdc9a5e995960921b6044820152606490fd5b90602083828152019060208160051b85010193835f915b83831061484b5750505050505090565b909192939495601f198282030186528635601e198436030181121561337a578301602081019190356001600160401b03811161337a57803603831361337a5761489a602092839260019561457a565b98019601949301919061483b565b916020908281520191905f905b8082106148c25750505090565b90919283359061ffff821680920361337a576020816001938293520194019201906148b5565b81835290916001600160fb1b03831161337a5760209260051b809284830137010190565b50506002546001600160a01b03169150503381900361493457637e81b53b60e11b5f5260045ffd5b6040519063e9ff0b5b60e01b8252600482015260208160248173__$a9c0e8932c349ca967c51f540a78b86c11$__5af49081156142d2575f91614975575090565b90506020813d60201161499c575b8161499060209383614543565b8101031261337a575190565b3d9150614983565b60208183031261337a578051906001600160401b03821161337a57019080601f8301121561337a578151916001600160401b038311614566578260051b9160208301936149f46040519586614543565b84526020808501938301019181831161337a5760208101935b838510614a1c57505050505090565b84516001600160401b03811161337a5782016060818503601f19011261337a5760405191606083016001600160401b03811184821017614566576040526020820151926001600160401b03841161337a57606083614a8188602080988198010161459a565b8352614a8f6040820161461e565b8584015201516040820152815201940193614a0d565b6001600160a01b03918216815260208101929092529091166040820152606081019190915260800190565b919082604091031261337a576020825192015190565b90949392606092608083019660018060a01b03168352602083015260408201520152565b81810292918115918404141715614b1d57565b634e487b7160e01b5f52601160045260245ffd5b91908203918211614b1d57565b91908201809211614b1d57565b6040909392919360608101946005825260208201520152565b60405190614b73604083614543565b601682527529a1a922a2a724a723afa224a9aa2924a12aaa24a7a760511b6020830152565b8115614ba2570490565b634e487b7160e01b5f52601260045260245ffd5b307f00000000000000000000000000000000000000000000000000000000000000006001600160a01b03161480614ca9575b15614c11577f000000000000000000000000000000000000000000000000000000000000000090565b60405160208101907f8b73c3c69bb8fe3d512ecc4cf759cc79239f7b179b0ffacaa9a75d522b39400f82527f000000000000000000000000000000000000000000000000000000000000000060408201527f000000000000000000000000000000000000000000000000000000000000000060608201524660808201523060a082015260a08152614ca360c082614543565b51902090565b507f00000000000000000000000000000000000000000000000000000000000000004614614be8565b9291908215614e12576002546040516358ac71cd60e11b81526001600160a01b039091169490602081600481895afa80156142d2575f90614dde575b614d19915085614b98565b15614daa5760018060a01b036004541660405195630941d4c960e11b875260176004880152601360248801526015604488015260166064880152608487015260a486015260c485015260e484015260018060a01b03166101048301526101248201526020816101448173__$20089efc5df3e31f24c7f58c3630512626$__5af49081156142d2575f91614975575090565b93507fa35b3d01e5c7c8c27cb608a23ba2677ad44665c36325777cf55d1009dc609e2f925060209150604051908152a25f90565b506020813d602011614e0a575b81614df860209383614543565b8101031261337a57614d199051614d0e565b3d9150614deb565b505050505f90565b158015614e37575b614e2857565b637a7f12ed60e11b5f5260045ffd5b50617a69461415614e22565b600354604051631a7f3c3360e01b815260048101839052905f90829060249082906001600160a01b03165afa9081156142d2575f916152bb575b506080810180519091906001600160a01b031633036152ac5760a08101511561529d576101e0015142101561528e57341561527f576002546040516358ac71cd60e11b815290602090829060049082906001600160a01b03165afa9081156142d2575f9161524d575b506001600160401b038082029190820403614b1d57341161523e57815f52601060205260ff600560405f20015460081c1661522f57815f52601060205260405f20614f32348254614b3e565b9055815f52601060205260405f20549060018060a01b0360025416916040516358ac71cd60e11b8152602081600481875afa80156142d2575f906151fb575b6001600160401b0392614f849250614b98565b116151ec576020600492604051938480926358ac71cd60e11b82525afa9182156142d2575f926151b7575b505f916020906001600160401b0390614fc89034614b98565b5f5160206159a35f395f51905f5254604051639cd07acb60e01b81529190921660048201526005602482015293849160449183916001600160a01b03165af19182156142d2575f92615183575b505f838152601060205260409020600301541561516a57825f526010602052600360405f2001549180831561515a575b15615148575b602090606460018060a01b035f5160206159a35f395f51905f525416945f604051968794859363022f65e760e31b8552600485015260248401528160448401525af180156142d2575f90615114575b6150eb9250835f526010602052600360405f2001555b825f5260106020526150c8600360405f2001546154a6565b505f8381526010602052604090206003015490516001600160a01b0316906154c8565b5033907fc9ed46c3457a9cf96f25ce7f957f07e28bc05fcdc5fee1edff097f3c13e616d95f80a3565b506020823d602011615140575b8161512e60209383614543565b8101031261337a576150eb915161509a565b3d9150615121565b5060206151536155f7565b905061504b565b92506151646155f7565b92615045565b6150eb91835f526010602052600360405f2001556150b0565b9091506020813d6020116151af575b8161519f60209383614543565b8101031261337a5751905f615015565b3d9150615192565b91506020823d6020116151e4575b816151d260209383614543565b8101031261337a579051906020614faf565b3d91506151c5565b63580eccbf60e11b5f5260045ffd5b506020813d602011615227575b8161521560209383614543565b8101031261337a57614f849051614f71565b3d9150615208565b63ce709acf60e01b5f5260045ffd5b630625040160e01b5f5260045ffd5b90506020813d602011615277575b8161526860209383614543565b8101031261337a57515f614ee6565b3d915061525b565b63d73ab2e160e01b5f5260045ffd5b63c9a2b56f60e01b5f5260045ffd5b6311f14d8f60e21b5f5260045ffd5b63068c4f9960e31b5f5260045ffd5b6152cf91503d805f833e610e8c8183614543565b5f614e7d565b6007546001600160a01b03163314908115615302575b50156152f357565b63ea8e4eb560e01b5f5260045ffd5b6001600160a01b0316331490505f6152eb565b600a5473__$8b2ef85bbc74f64c478a5e9485e3a6d0ab$__91823b1561337a57604051631ab7532b60e01b81526001600160a01b03928316600482015291166024820152905f90829060449082905af480156142d2576153725750565b5f61537c91614543565b565b73__$5ddaef8cb40fe9e9ff7ecdc8cf0dec9c1b$__90813b1561337a575f906064604051809481936394800e2160e01b835260106004840152602483015262093a8060448301525af480156142d2576153725750565b466001036153e157600190565b4662aa36a7036153f15761271190565b617a6946146153fe575f90565b5f1990565b5f52602560205260ff60405f20541661541857565b63e8c66cf160e01b5f5260045ffd5b6006546001600160a01b0316918261543e57505050565b604051615468602080838180820196805191829101885e8101428382015203018084520182614543565b519020823b1561337a57615495925f92836040518096819582946306cc173360e41b845260048401614b4b565b03925af180156142d2576153725750565b80156154ba575b6154b73082615711565b90565b506154c36155f7565b6154ad565b9081156154da575b6154b79082615711565b90506154b76154e76155f7565b9190506154d0565b929190835f52601060205260405f209360018060a01b036002541660018060a01b03600454169060405196634720128760e01b8852600488015260136024880152601760448801526015606488015260166084880152601d60a488015260c487015260e48601526101048501526101248401526101448301526101648201525f6101848201526020816101a48173__$20089efc5df3e31f24c7f58c3630512626$__5af49081156142d2575f91614975575090565b5f5160206159a35f395f51905f5254604051639cd07acb60e01b815260048101929092525f6024830181905260209183916044918391906001600160a01b03165af19081156142d2575f91614975575090565b5f5160206159a35f395f51905f5254604051639cd07acb60e01b81525f60048201819052600560248301529091602091839160449183916001600160a01b03165af19081156142d2575f91614975575090565b60408051916156598284614543565b600183526020830190601f1983013683378351156156fd5781525f5160206159e35f395f51905f52546001600160a01b031690813b1561337a578251637d6e912360e11b815260206004820152935160248501819052849160448301915f5b8181106156e45750505091815f81819503925af19081156156db57506153725750565b513d5f823e3d90fd5b82518452879450602093840193909201916001016156b8565b634e487b7160e01b5f52603260045260245ffd5b5f5160206159e35f395f51905f52546001600160a01b031691823b1561337a57604051635ca4b5b160e11b815260048101929092526001600160a01b03166024820152905f908290604490829084905af180156142d2576153725750565b60ff81146157b55760ff811690601f82116157a65760405191615793604084614543565b6020808452838101919036833783525290565b632cd44ac360e21b5f5260045ffd5b506040515f5f548060011c9160018216918215615888575b60208410831461587457838552849290811561585557506001146157f8575b6154b792500382614543565b505f80805290917f290decd9548b62a8d60345a988386fc84ba6bc95484008f6362f93160ef3e5635b8183106158395750509060206154b7928201016157ec565b6020919350806001915483858801015201910190918392615821565b602092506154b794915060ff191682840152151560051b8201016157ec565b634e487b7160e01b5f52602260045260245ffd5b92607f16926157cd565b60ff81146158b65760ff811690601f82116157a65760405191615793604084614543565b506040515f6001548060011c9160018216918215615958575b60208410831461587457838552849290811561585557506001146158f9576154b792500382614543565b5060015f90815290917fb10e2d527612073b26eecdfd717e6a320cf44b4afac2b0732d9fcbe2b7fa0cf65b81831061593c5750509060206154b7928201016157ec565b6020919350806001915483858801015201910190918392615924565b92607f16926158cf56fe62b24bd9c0bcb655745cd379ea0b82caec0357933e5585ef39dace55098e9b99f318a5a9d37dd62758b7763d8488a5b323b37ee156f2af6873d0aab7be5db2d09e7b61f58c47dc699ac88507c4f5bb9f121c03808c5676a8078fe583e46497016d1c76d614228b523baa4dcd9539e2c713b54ff4ab3ff2d1627e7f6cd32be4429e7b61f58c47dc699ac88507c4f5bb9f121c03808c5676a8078fe583e46497005cae790c66ea15fc28112470fc929fa75d47f0a4893b3483ab038813675400c7242ea5c9f5d46174013791ddd3495e756d36e7e81099e04eb59e75afef8cb41e48f2fada0ab3065addd657f9c2a132922bfd2bbb351eafa9742dccd2a3222a42a164736f6c634300081b000a",
  "linkReferences": {
    "contracts/lib/VaultChallengeLib.sol": {
      "VaultChallengeLib": [
        {
          "length": 20,
          "start": 14925
        },
        {
          "length": 20,
          "start": 16285
        },
        {
          "length": 20,
          "start": 18702
        },
        {
          "length": 20,
          "start": 23211
        }
      ]
    },
    "contracts/lib/VaultClaimLib.sol": {
      "VaultClaimLib": [
        {
          "length": 20,
          "start": 16790
        },
        {
          "length": 20,
          "start": 17847
        }
      ]
    },
    "contracts/lib/VaultConfidentialLib.sol": {
      "VaultConfidentialLib": [
        {
          "length": 20,
          "start": 20602
        }
      ]
    },
    "contracts/lib/VaultDistributionLib.sol": {
      "VaultDistributionLib": [
        {
          "length": 20,
          "start": 4193
        },
        {
          "length": 20,
          "start": 4268
        },
        {
          "length": 20,
          "start": 7045
        },
        {
          "length": 20,
          "start": 10035
        },
        {
          "length": 20,
          "start": 13954
        },
        {
          "length": 20,
          "start": 21679
        },
        {
          "length": 20,
          "start": 23721
        }
      ]
    },
    "contracts/lib/VaultReclaimLib.sol": {
      "VaultReclaimLib": [
        {
          "length": 20,
          "start": 3149
        },
        {
          "length": 20,
          "start": 9641
        },
        {
          "length": 20,
          "start": 18343
        },
        {
          "length": 20,
          "start": 23109
        }
      ]
    },
    "contracts/lib/VaultRegistrationLib.sol": {
      "VaultRegistrationLib": [
        {
          "length": 20,
          "start": 8878
        },
        {
          "length": 20,
          "start": 11847
        }
      ]
    },
    "contracts/lib/VaultTimelockLib.sol": {
      "VaultTimelockLib": [
        {
          "length": 20,
          "start": 6034
        },
        {
          "length": 20,
          "start": 8664
        },
        {
          "length": 20,
          "start": 10587
        },
        {
          "length": 20,
          "start": 10805
        },
        {
          "length": 20,
          "start": 11372
        },
        {
          "length": 20,
          "start": 12121
        },
        {
          "length": 20,
          "start": 12464
        },
        {
          "length": 20,
          "start": 12874
        }
      ]
    }
  },
  "deployedLinkReferences": {
    "contracts/lib/VaultChallengeLib.sol": {
      "VaultChallengeLib": [
        {
          "length": 20,
          "start": 13090
        },
        {
          "length": 20,
          "start": 14450
        },
        {
          "length": 20,
          "start": 16867
        },
        {
          "length": 20,
          "start": 21376
        }
      ]
    },
    "contracts/lib/VaultClaimLib.sol": {
      "VaultClaimLib": [
        {
          "length": 20,
          "start": 14955
        },
        {
          "length": 20,
          "start": 16012
        }
      ]
    },
    "contracts/lib/VaultConfidentialLib.sol": {
      "VaultConfidentialLib": [
        {
          "length": 20,
          "start": 18767
        }
      ]
    },
    "contracts/lib/VaultDistributionLib.sol": {
      "VaultDistributionLib": [
        {
          "length": 20,
          "start": 2358
        },
        {
          "length": 20,
          "start": 2433
        },
        {
          "length": 20,
          "start": 5210
        },
        {
          "length": 20,
          "start": 8200
        },
        {
          "length": 20,
          "start": 12119
        },
        {
          "length": 20,
          "start": 19844
        },
        {
          "length": 20,
          "start": 21886
        }
      ]
    },
    "contracts/lib/VaultReclaimLib.sol": {
      "VaultReclaimLib": [
        {
          "length": 20,
          "start": 1314
        },
        {
          "length": 20,
          "start": 7806
        },
        {
          "length": 20,
          "start": 16508
        },
        {
          "length": 20,
          "start": 21274
        }
      ]
    },
    "contracts/lib/VaultRegistrationLib.sol": {
      "VaultRegistrationLib": [
        {
          "length": 20,
          "start": 7043
        },
        {
          "length": 20,
          "start": 10012
        }
      ]
    },
    "contracts/lib/VaultTimelockLib.sol": {
      "VaultTimelockLib": [
        {
          "length": 20,
          "start": 4199
        },
        {
          "length": 20,
          "start": 6829
        },
        {
          "length": 20,
          "start": 8752
        },
        {
          "length": 20,
          "start": 8970
        },
        {
          "length": 20,
          "start": 9537
        },
        {
          "length": 20,
          "start": 10286
        },
        {
          "length": 20,
          "start": 10629
        },
        {
          "length": 20,
          "start": 11039
        }
      ]
    }
  }
}