{
  "_format": "hh-sol-artifact-1",
  "contractName": "StakingManager",
  "sourceName": "contracts/StakingManager.sol",
  "abi": [
    {
      "inputs": [
        {
          "internalType": "address payable",
          "name": "_cETH",
          "type": "address"
        }
      ],
      "stateMutability": "nonpayable",
      "type": "constructor"
    },
    {
      "inputs": [
        {
          "internalType": "int32",
          "name": "value",
          "type": "int32"
        }
      ],
      "name": "SecurityZoneOutOfBounds",
      "type": "error"
    },
    {
      "anonymous": false,
      "inputs": [
        {
          "indexed": true,
          "internalType": "address",
          "name": "user",
          "type": "address"
        },
        {
          "indexed": false,
          "internalType": "uint256",
          "name": "amount",
          "type": "uint256"
        }
      ],
      "name": "Staked",
      "type": "event"
    },
    {
      "anonymous": false,
      "inputs": [
        {
          "indexed": true,
          "internalType": "address",
          "name": "user",
          "type": "address"
        },
        {
          "indexed": false,
          "internalType": "uint256",
          "name": "amount",
          "type": "uint256"
        }
      ],
      "name": "Unstaked",
      "type": "event"
    },
    {
      "inputs": [],
      "name": "AAVE_POOL",
      "outputs": [
        {
          "internalType": "address",
          "name": "",
          "type": "address"
        }
      ],
      "stateMutability": "view",
      "type": "function"
    },
    {
      "inputs": [],
      "name": "AWETH",
      "outputs": [
        {
          "internalType": "address",
          "name": "",
          "type": "address"
        }
      ],
      "stateMutability": "view",
      "type": "function"
    },
    {
      "inputs": [],
      "name": "WETH_GATEWAY",
      "outputs": [
        {
          "internalType": "address",
          "name": "",
          "type": "address"
        }
      ],
      "stateMutability": "view",
      "type": "function"
    },
    {
      "inputs": [],
      "name": "cETH",
      "outputs": [
        {
          "internalType": "contract ConfidentialETH",
          "name": "",
          "type": "address"
        }
      ],
      "stateMutability": "view",
      "type": "function"
    },
    {
      "inputs": [
        {
          "internalType": "address",
          "name": "user",
          "type": "address"
        }
      ],
      "name": "getEncryptedTotalStaked",
      "outputs": [
        {
          "internalType": "euint64",
          "name": "",
          "type": "bytes32"
        }
      ],
      "stateMutability": "view",
      "type": "function"
    },
    {
      "inputs": [],
      "name": "stake",
      "outputs": [],
      "stateMutability": "payable",
      "type": "function"
    },
    {
      "inputs": [
        {
          "internalType": "uint64",
          "name": "units",
          "type": "uint64"
        }
      ],
      "name": "stakeFromConfidential",
      "outputs": [],
      "stateMutability": "nonpayable",
      "type": "function"
    },
    {
      "inputs": [
        {
          "internalType": "uint256",
          "name": "amount",
          "type": "uint256"
        }
      ],
      "name": "unstake",
      "outputs": [],
      "stateMutability": "nonpayable",
      "type": "function"
    },
    {
      "stateMutability": "payable",
      "type": "receive"
    }
  ],
  "bytecode": "0x608034607257601f610db138819003918201601f19168301916001600160401b03831184841017607657808492602094604052833981010312607257516001600160a01b03811690819003607257600180546001600160a01b0319169190911781555f55604051610d26908161008b8239f35b5f80fd5b634e487b7160e01b5f52604160045260245ffdfe608080604052600436101561001c575b50361561001a575f80fd5b005b5f905f3560e01c9081630199e7f3146108c55750806308a01675146108975780632e17de781461049e5780632fe6ff551461046f5780633a4b66f114610330578063a1b4d01114610307578063ab58ea4c146100a65763ae5a98ba0361000f57346100a357806003193601126100a35760206040515f516020610cfa5f395f51905f528152f35b80fd5b50346100a35760203660031901126100a3576004356001600160401b03811690819003610288578015906100da821561094d565b6001546040516358ac71cd60e11b8152926001600160a01b039091169190602084600481865afa9384156102fc5785946102c4575b50838202938285041417156102b057908391813b156102ac57829160648392604051948593849263568a14a160e01b845233600485015230602485015260448401525af1801561028c57610297575b50505f516020610cfa5f395f51905f523b15610288578160405163474cf53d60e01b8152736ae43d3271ff6888e7fc43fd7321a503ff73895160048201523360248201528160448201528181606481865f516020610cfa5f395f51905f525af1801561028c57610273575b506101e49050633b9aca0082046001600160401b0316610beb565b33835260026020526040832054156102615761020c9033845260026020526040842054610a4f565b338352600260205260408320555b33825260026020526102303360408420546109a3565b33825260026020526102456040832054610a13565b6040519081525f516020610cda5f395f51905f5260203392a280f35b3383526002602052604083205561021a565b8161027d916108fe565b61028857815f6101c9565b5080fd5b6040513d84823e3d90fd5b816102a1916108fe565b61028857815f61015e565b8280fd5b634e487b7160e01b84526011600452602484fd5b9093506020813d6020116102f4575b816102e0602093836108fe565b810103126102f05751925f61010f565b5f80fd5b3d91506102d3565b6040513d87823e3d90fd5b50346100a357806003193601126100a3576001546040516001600160a01b039091168152602090f35b50806003193601126100a35761034734151561094d565b5f516020610cfa5f395f51905f523b156100a3578060405163474cf53d60e01b8152736ae43d3271ff6888e7fc43fd7321a503ff73895160048201523360248201528160448201528181606481345f516020610cfa5f395f51905f525af1801561028c5761045a575b506103cb9050633b9aca0034046001600160401b0316610beb565b3382526002602052604082205415610448576103f39033835260026020526040832054610a4f565b338252600260205260408220555b33815260026020526104173360408320546109a3565b338152600260205261042c6040822054610a13565b6040513481525f516020610cda5f395f51905f5260203392a280f35b33825260026020526040822055610401565b81610464916108fe565b6100a357805f6103b0565b50346100a357806003193601126100a3576020604051735b071b590a59395fe4025a0ccc1fcc931eac23238152f35b50346102f05760203660031901126102f05760043560025f54146108525760025f558015610818576040516323b872dd60e01b8152336004820152306024820152604481018290526020816064815f735b071b590a59395fe4025a0ccc1fcc931eac23235af1908115610784575f916107f9575b50156107bc5760405163095ea7b360e01b81525f516020610cfa5f395f51905f526004820152602481018290526020816044815f735b071b590a59395fe4025a0ccc1fcc931eac23235af180156107845761078f575b505f516020610cfa5f395f51905f523b156102f057604051630402806960e51b8152736ae43d3271ff6888e7fc43fd7321a503ff7389516004820152602481018290523360448201525f81606481835f516020610cfa5f395f51905f525af180156107845761076f575b506105eb633b9aca0082046001600160401b0316610beb565b33835260026020526040832054610631575b506040519081527f0f5bb82176feb1b5e747e28471aa92156a04d9f3ab9f45f28e2d704232b93f7560203392a26001815580f35b338352600260205260408320546106b79180821561075f575b15610751575b6040519161065f6060846108fe565b60028352604036602085013761067483610c98565b5261067e82610cb9565b52602080916040519061069183836108fe565b8682525f368137604051631888debd60e01b815294859283926007600560048601610ba7565b03818773ea30c4b8b44078bbf8a6ef5b9f1ec1626c7848d95af18015610746578490610718575b6002925033855282825260408520553384528181526107013360408620546109a3565b338452526107126040832054610a13565b5f6105fd565b508082813d831161073f575b61072e81836108fe565b810103126102f057600291516106de565b503d610724565b6040513d86823e3d90fd5b5061075a610c5e565b610650565b9150610769610c5e565b9161064a565b61077c9192505f906108fe565b5f905f6105d2565b6040513d5f823e3d90fd5b6107b09060203d6020116107b5575b6107a881836108fe565b810190610935565b610568565b503d61079e565b60405162461bcd60e51b81526020600482015260156024820152741855d15512081d1c985b9cd9995c8819985a5b1959605a1b6044820152606490fd5b610812915060203d6020116107b5576107a881836108fe565b5f610512565b60405162461bcd60e51b81526020600482015260126024820152710416d6f756e74206d757374206265203e20360741b6044820152606490fd5b60405162461bcd60e51b815260206004820152601f60248201527f5265656e7472616e637947756172643a207265656e7472616e742063616c6c006044820152606490fd5b346102f0575f3660031901126102f0576020604051736ae43d3271ff6888e7fc43fd7321a503ff7389518152f35b346102f05760203660031901126102f0576004356001600160a01b03811691908290036102f0576020915f526002825260405f20548152f35b601f909101601f19168101906001600160401b0382119082101761092157604052565b634e487b7160e01b5f52604160045260245ffd5b908160209103126102f0575180151581036102f05790565b1561095457565b60405162461bcd60e51b815260206004820152600e60248201526d04d757374207374616b65203e20360941b6044820152606490fd5b9081526001600160a01b03909116602082015260400190565b73ea30c4b8b44078bbf8a6ef5b9f1ec1626c7848d93b156102f057604051631974142760e21b8152915f91839182916109e091906004840161098a565b03818373ea30c4b8b44078bbf8a6ef5b9f1ec1626c7848d95af1801561078457610a075750565b5f610a11916108fe565b565b73ea30c4b8b44078bbf8a6ef5b9f1ec1626c7848d93b156102f0575f6109e09160405180938192631974142760e21b835230906004840161098a565b908115610b2c575b8015610b1e575b60405191610a6d6060846108fe565b600283526040366020850137610a8283610c98565b52610a8c82610cb9565b52610ac86020809260405190610aa283836108fe565b5f82525f368137604051631888debd60e01b815293849283926008600560048601610ba7565b03815f73ea30c4b8b44078bbf8a6ef5b9f1ec1626c7848d95af1918215610784575f92610af457505090565b90809250813d8311610b17575b610b0b81836108fe565b810103126102f0575190565b503d610b01565b50610b27610c5e565b610a5e565b9050610b36610c5e565b90610a57565b90602080835192838152019201905f5b818110610b595750505090565b8251845260209384019390920191600101610b4c565b91610b969060ff610ba49593168452601a6020850152608060408501526080840190610b3c565b916060818403910152610b3c565b90565b9293919060ff1683526020811015610bd757610ba493610b96916020850152608060408501526080840190610b3c565b634e487b7160e01b5f52602160045260245ffd5b610ac860208092604051610bff83826108fe565b5f81525f36813760405191610c156080846108fe565b6003835260603685850137610c2983610c98565b526005610c3583610cb9565b525f610c4083610cc9565b52604051631888debd60e01b81529384928392600560048501610b6f565b6020610ac881604051610c7182826108fe565b5f81525f36813760405190610c876080836108fe565b60038252606036848401375f610c29835b805115610ca55760200190565b634e487b7160e01b5f52603260045260245ffd5b805160011015610ca55760400190565b805160021015610ca5576060019056fe9e71bc8eea02a63969f509818f2dafb9254532904319f9dbda79b67bd34a5f3d000000000000000000000000387d311e47e80b498169e6fb51d3193167d89f7da164736f6c634300081b000a",
  "linkReferences": {},
  "deployedLinkReferences": {}
}