{
  "_format": "hh-sol-artifact-1",
  "contractName": "StakingManager",
  "sourceName": "contracts/StakingManager.sol",
  "abi": [
    {
      "inputs": [
        {
          "internalType": "address payable",
          "name": "_cETH",
          "type": "address"
        },
        {
          "internalType": "address",
          "name": "_aavePool",
          "type": "address"
        },
        {
          "internalType": "address",
          "name": "_wethGateway",
          "type": "address"
        },
        {
          "internalType": "address",
          "name": "_aWeth",
          "type": "address"
        }
      ],
      "stateMutability": "nonpayable",
      "type": "constructor"
    },
    {
      "inputs": [],
      "name": "InvalidKMSSignatures",
      "type": "error"
    },
    {
      "inputs": [
        {
          "internalType": "bytes32",
          "name": "handle",
          "type": "bytes32"
        },
        {
          "internalType": "address",
          "name": "sender",
          "type": "address"
        }
      ],
      "name": "SenderNotAllowedToUseHandle",
      "type": "error"
    },
    {
      "inputs": [],
      "name": "ZamaProtocolUnsupported",
      "type": "error"
    },
    {
      "anonymous": false,
      "inputs": [
        {
          "indexed": true,
          "internalType": "address",
          "name": "user",
          "type": "address"
        },
        {
          "indexed": false,
          "internalType": "bytes32",
          "name": "transferableHandle",
          "type": "bytes32"
        }
      ],
      "name": "ConfidentialStakeRequested",
      "type": "event"
    },
    {
      "anonymous": false,
      "inputs": [
        {
          "indexed": true,
          "internalType": "address",
          "name": "newOwner",
          "type": "address"
        }
      ],
      "name": "OwnershipAccepted",
      "type": "event"
    },
    {
      "anonymous": false,
      "inputs": [
        {
          "indexed": true,
          "internalType": "address",
          "name": "proposedOwner",
          "type": "address"
        }
      ],
      "name": "OwnershipProposed",
      "type": "event"
    },
    {
      "anonymous": false,
      "inputs": [
        {
          "indexed": true,
          "internalType": "address",
          "name": "user",
          "type": "address"
        },
        {
          "indexed": false,
          "internalType": "bytes32",
          "name": "transferableHandle",
          "type": "bytes32"
        }
      ],
      "name": "PrivateUnstakeRequested",
      "type": "event"
    },
    {
      "anonymous": false,
      "inputs": [
        {
          "indexed": true,
          "internalType": "address",
          "name": "user",
          "type": "address"
        }
      ],
      "name": "PrivateUnstaked",
      "type": "event"
    },
    {
      "anonymous": false,
      "inputs": [
        {
          "indexed": false,
          "internalType": "bytes32[]",
          "name": "handlesList",
          "type": "bytes32[]"
        },
        {
          "indexed": false,
          "internalType": "bytes",
          "name": "abiEncodedCleartexts",
          "type": "bytes"
        }
      ],
      "name": "PublicDecryptionVerified",
      "type": "event"
    },
    {
      "anonymous": false,
      "inputs": [
        {
          "indexed": true,
          "internalType": "address",
          "name": "user",
          "type": "address"
        },
        {
          "indexed": false,
          "internalType": "bytes32",
          "name": "transferableHandle",
          "type": "bytes32"
        }
      ],
      "name": "PublicUnstakeRequested",
      "type": "event"
    },
    {
      "anonymous": false,
      "inputs": [
        {
          "indexed": true,
          "internalType": "address",
          "name": "user",
          "type": "address"
        }
      ],
      "name": "PublicUnstaked",
      "type": "event"
    },
    {
      "anonymous": false,
      "inputs": [
        {
          "indexed": true,
          "internalType": "address",
          "name": "user",
          "type": "address"
        }
      ],
      "name": "Staked",
      "type": "event"
    },
    {
      "anonymous": false,
      "inputs": [
        {
          "indexed": true,
          "internalType": "address",
          "name": "user",
          "type": "address"
        }
      ],
      "name": "UnstakeCancelled",
      "type": "event"
    },
    {
      "anonymous": false,
      "inputs": [
        {
          "indexed": true,
          "internalType": "address",
          "name": "user",
          "type": "address"
        }
      ],
      "name": "Unstaked",
      "type": "event"
    },
    {
      "inputs": [],
      "name": "CANCEL_TIMEOUT_FUNDS",
      "outputs": [
        {
          "internalType": "uint256",
          "name": "",
          "type": "uint256"
        }
      ],
      "stateMutability": "view",
      "type": "function"
    },
    {
      "inputs": [],
      "name": "aWeth",
      "outputs": [
        {
          "internalType": "address",
          "name": "",
          "type": "address"
        }
      ],
      "stateMutability": "view",
      "type": "function"
    },
    {
      "inputs": [],
      "name": "aavePool",
      "outputs": [
        {
          "internalType": "address",
          "name": "",
          "type": "address"
        }
      ],
      "stateMutability": "view",
      "type": "function"
    },
    {
      "inputs": [],
      "name": "acceptOwnership",
      "outputs": [],
      "stateMutability": "nonpayable",
      "type": "function"
    },
    {
      "inputs": [],
      "name": "cETH",
      "outputs": [
        {
          "internalType": "contract ConfidentialETH",
          "name": "",
          "type": "address"
        }
      ],
      "stateMutability": "view",
      "type": "function"
    },
    {
      "inputs": [],
      "name": "cancelPendingConfidentialStake",
      "outputs": [],
      "stateMutability": "nonpayable",
      "type": "function"
    },
    {
      "inputs": [],
      "name": "cancelPendingUnstake",
      "outputs": [],
      "stateMutability": "nonpayable",
      "type": "function"
    },
    {
      "inputs": [
        {
          "internalType": "bytes",
          "name": "",
          "type": "bytes"
        },
        {
          "internalType": "bytes",
          "name": "",
          "type": "bytes"
        }
      ],
      "name": "completeConfidentialStake",
      "outputs": [],
      "stateMutability": "pure",
      "type": "function"
    },
    {
      "inputs": [
        {
          "internalType": "bytes",
          "name": "transferableCleartexts",
          "type": "bytes"
        },
        {
          "internalType": "bytes",
          "name": "transferableProof",
          "type": "bytes"
        }
      ],
      "name": "completePrivateUnstake",
      "outputs": [],
      "stateMutability": "nonpayable",
      "type": "function"
    },
    {
      "inputs": [
        {
          "internalType": "bytes",
          "name": "transferableCleartexts",
          "type": "bytes"
        },
        {
          "internalType": "bytes",
          "name": "transferableProof",
          "type": "bytes"
        }
      ],
      "name": "completePublicUnstake",
      "outputs": [],
      "stateMutability": "nonpayable",
      "type": "function"
    },
    {
      "inputs": [
        {
          "internalType": "bytes",
          "name": "transferableCleartexts",
          "type": "bytes"
        },
        {
          "internalType": "bytes",
          "name": "transferableProof",
          "type": "bytes"
        }
      ],
      "name": "completeUnstake",
      "outputs": [],
      "stateMutability": "nonpayable",
      "type": "function"
    },
    {
      "inputs": [],
      "name": "confidentialProtocolId",
      "outputs": [
        {
          "internalType": "uint256",
          "name": "",
          "type": "uint256"
        }
      ],
      "stateMutability": "view",
      "type": "function"
    },
    {
      "inputs": [
        {
          "internalType": "address",
          "name": "user",
          "type": "address"
        }
      ],
      "name": "getEncryptedPrivateStaked",
      "outputs": [
        {
          "internalType": "euint64",
          "name": "",
          "type": "bytes32"
        }
      ],
      "stateMutability": "view",
      "type": "function"
    },
    {
      "inputs": [
        {
          "internalType": "address",
          "name": "user",
          "type": "address"
        }
      ],
      "name": "getEncryptedPublicStaked",
      "outputs": [
        {
          "internalType": "euint64",
          "name": "",
          "type": "bytes32"
        }
      ],
      "stateMutability": "view",
      "type": "function"
    },
    {
      "inputs": [
        {
          "internalType": "address",
          "name": "user",
          "type": "address"
        }
      ],
      "name": "getEncryptedTotalStaked",
      "outputs": [
        {
          "internalType": "euint64",
          "name": "",
          "type": "bytes32"
        }
      ],
      "stateMutability": "nonpayable",
      "type": "function"
    },
    {
      "inputs": [
        {
          "internalType": "address",
          "name": "",
          "type": "address"
        },
        {
          "internalType": "address",
          "name": "from",
          "type": "address"
        },
        {
          "internalType": "euint64",
          "name": "amount",
          "type": "bytes32"
        },
        {
          "internalType": "bytes",
          "name": "data",
          "type": "bytes"
        }
      ],
      "name": "onConfidentialTransferReceived",
      "outputs": [
        {
          "internalType": "ebool",
          "name": "",
          "type": "bytes32"
        }
      ],
      "stateMutability": "nonpayable",
      "type": "function"
    },
    {
      "inputs": [],
      "name": "owner",
      "outputs": [
        {
          "internalType": "address",
          "name": "",
          "type": "address"
        }
      ],
      "stateMutability": "view",
      "type": "function"
    },
    {
      "inputs": [],
      "name": "pendingOwner",
      "outputs": [
        {
          "internalType": "address",
          "name": "",
          "type": "address"
        }
      ],
      "stateMutability": "view",
      "type": "function"
    },
    {
      "inputs": [
        {
          "internalType": "address",
          "name": "user",
          "type": "address"
        }
      ],
      "name": "pendingUnstakeHandle",
      "outputs": [
        {
          "internalType": "bytes32",
          "name": "",
          "type": "bytes32"
        }
      ],
      "stateMutability": "view",
      "type": "function"
    },
    {
      "inputs": [
        {
          "internalType": "address",
          "name": "_newOwner",
          "type": "address"
        }
      ],
      "name": "proposeOwnership",
      "outputs": [],
      "stateMutability": "nonpayable",
      "type": "function"
    },
    {
      "inputs": [
        {
          "internalType": "externalEuint64",
          "name": "",
          "type": "bytes32"
        },
        {
          "internalType": "bytes",
          "name": "",
          "type": "bytes"
        }
      ],
      "name": "requestConfidentialStake",
      "outputs": [],
      "stateMutability": "pure",
      "type": "function"
    },
    {
      "inputs": [
        {
          "internalType": "externalEuint64",
          "name": "encryptedGweiUnits",
          "type": "bytes32"
        },
        {
          "internalType": "bytes",
          "name": "inputProof",
          "type": "bytes"
        }
      ],
      "name": "requestPrivateUnstake",
      "outputs": [],
      "stateMutability": "nonpayable",
      "type": "function"
    },
    {
      "inputs": [
        {
          "internalType": "uint256",
          "name": "amount",
          "type": "uint256"
        }
      ],
      "name": "requestPublicUnstake",
      "outputs": [],
      "stateMutability": "nonpayable",
      "type": "function"
    },
    {
      "inputs": [
        {
          "internalType": "uint256",
          "name": "amount",
          "type": "uint256"
        }
      ],
      "name": "requestUnstake",
      "outputs": [],
      "stateMutability": "nonpayable",
      "type": "function"
    },
    {
      "inputs": [],
      "name": "stake",
      "outputs": [],
      "stateMutability": "payable",
      "type": "function"
    },
    {
      "inputs": [
        {
          "internalType": "externalEuint64",
          "name": "encryptedUnits",
          "type": "bytes32"
        },
        {
          "internalType": "bytes",
          "name": "inputProof",
          "type": "bytes"
        }
      ],
      "name": "stakeAndLock",
      "outputs": [],
      "stateMutability": "nonpayable",
      "type": "function"
    },
    {
      "inputs": [],
      "name": "stakeAndLockCallbackData",
      "outputs": [
        {
          "internalType": "bytes",
          "name": "",
          "type": "bytes"
        }
      ],
      "stateMutability": "pure",
      "type": "function"
    },
    {
      "inputs": [
        {
          "internalType": "externalEuint64",
          "name": "",
          "type": "bytes32"
        },
        {
          "internalType": "bytes",
          "name": "",
          "type": "bytes"
        }
      ],
      "name": "stakeFromConfidential",
      "outputs": [],
      "stateMutability": "pure",
      "type": "function"
    },
    {
      "inputs": [],
      "name": "wethGateway",
      "outputs": [
        {
          "internalType": "address",
          "name": "",
          "type": "address"
        }
      ],
      "stateMutability": "view",
      "type": "function"
    },
    {
      "stateMutability": "payable",
      "type": "receive"
    }
  ],
  "bytecode": "0x60e06040523461036357604051601f612b5838819003918201601f19168301916001600160401b03831184841017610367578084926080946040528339810103126103635780516001600160a01b0381169190829003610363576100656020820161039a565b61007d60606100766040850161039a565b930161039a565b926100866103ae565b504660010361027f576100976103ae565b506100a061037b565b73ca2e8f1f656cd25c01f05d0b243ab1ecd4a8ffb6815273d82385dada1ae3e969447f20a3164f6213100e7560208201527377627828a55156b04ac0dc0eb30467f1a552bb0360408201525b80517f9e7b61f58c47dc699ac88507c4f5bb9f121c03808c5676a8078fe583e464970080546001600160a01b03199081166001600160a01b039384161790915560208301517f9e7b61f58c47dc699ac88507c4f5bb9f121c03808c5676a8078fe583e4649701805483169184169190911790556040909201517f9e7b61f58c47dc699ac88507c4f5bb9f121c03808c5676a8078fe583e4649702805490931690821617909155821615158061026d575b8061025b575b156102225760018060a01b0319600154161760015560805260a05260c05260015f553360018060a01b0319600954161760095560405161278f90816103c982396080518181816104ff01528181610bdd0152611d3b015260a05181818161047301528181610b9f0152611cd7015260c0518181816109500152611c800152f35b60405162461bcd60e51b81526020600482015260116024820152705a65726f2041617665206164647265737360781b6044820152606490fd5b506001600160a01b03841615156101a2565b506001600160a01b038316151561019c565b4662aa36a7036102ea576102916103ae565b5061029a61037b565b73f0ffdc93b7e186bc2f8cb3daa75d86d1930a433d81527392c920834ec8941d2c77d188936e1f7a6f49c127602082015273be0e383937d564d7ff0bc3b46c51f0bf8d5c311a60408201526100ec565b46617a6903610354576102fb6103ae565b5061030461037b565b7350157cffd6bbfa2dece204a89ec419c23ef5755d815273e3a9105a3a932253a70f126eb1e3b589c643dd24602082015273901f8942346f7ab3a01f6d7613119bca447bb03060408201526100ec565b6373cac13b60e01b5f5260045ffd5b5f80fd5b634e487b7160e01b5f52604160045260245ffd5b60405190606082016001600160401b0381118382101761036757604052565b51906001600160a01b038216820361036357565b6103b661037b565b905f82525f60208301525f604083015256fe60806040526004361015610057575b3615610018575f80fd5b60405162461bcd60e51b8152602060048201526017602482015276111a5c9958dd08115512081b9bdd081858d8d95c1d1959604a1b6044820152606490fd5b5f5f3560e01c80630199e7f314610e71578063063190e614610e395780630c7de42114610e285780631346df8114610e125780631d55840114610def5780632309572114610dd157806330cd279214610dba5780633a4b66f114610b595780633e4d417714610b3c57806346083bfd14610ade57806351cd0b7f1461097f5780635cd9ce3e1461093a57806362f26910146108f15780636733632c146108b8578063710bf322146107de57806372f4121b146107c157806379ba50971461072057806385870c3e146105c75780638927b030146105a45780638da5cb5b1461057b578063959dbc8b14610547578063990404b81461052e578063a03e4bc3146104e9578063a1b4d011146104c0578063c3ded694146104a2578063c5e10eef1461045d578063cc5f44e214610244578063e265ba50146101cc5763e30c3978146101a1575061000e565b346101c957806003193601126101c957600a546040516001600160a01b039091168152602090f35b80fd5b50346101c9576101db36610f27565b505060405162461bcd60e51b815260206004820152603860248201527f5573652072657175657374436f6e666964656e7469616c5374616b65202b20636044820152776f6d706c657465436f6e666964656e7469616c5374616b6560401b606482015260849150fd5b50346101c957806003193601126101c9576102636002825414156110c3565b600281553381526006602052606061027d604083206116e9565b61028c6040820151151561171b565b0151610e108101809111610449576102a5904211611a04565b33815260076020526102be60ff60408320541615611620565b33815260066020526102d260408220611759565b3381526003602052806040812054806103bb575b50600154604051638e7945b760e01b81523360048201526001600160a01b0390911690602081602481855afa9081156103b0578391610381575b5061032e575b506001905580f35b803b1561037e5781809160246040518094819363ce7a60ab60e01b83523360048401525af18015610373571561032657816103689161119a565b6101c957805f610326565b6040513d84823e3d90fd5b50fd5b6103a3915060203d6020116103a9575b61039b818361119a565b810190611792565b5f610320565b503d610391565b6040513d85823e3d90fd5b6103c3612614565b338352600360205260408320556001546103e6906001600160a01b031682611b6b565b506001546001600160a01b0316803b156104455760405163433a9d3760e01b8152918391839182908490829061042190333060048501611770565b03925af1801561037357156102e6578161043a9161119a565b6101c957805f6102e6565b5050fd5b634e487b7160e01b82526011600452602482fd5b50346101c957806003193601126101c9576040517f00000000000000000000000000000000000000000000000000000000000000006001600160a01b03168152602090f35b50346101c9576104bd6104b436610ed7565b9291909161110f565b80f35b50346101c957806003193601126101c9576001546040516001600160a01b039091168152602090f35b50346101c957806003193601126101c9576040517f00000000000000000000000000000000000000000000000000000000000000006001600160a01b03168152602090f35b50346101c957806003193601126101c9576104bd611a46565b50346101c95761057461055936610ed7565b9261056b6002879493945414156110c3565b600286556117aa565b6001815580f35b50346101c957806003193601126101c9576009546040516001600160a01b039091168152602090f35b50346101c957806003193601126101c95760206105bf61232a565b604051908152f35b50346101c9576106176106116105dc36610f27565b6105ed6002879594955414156110c3565b60028655338652600760205261060a60ff6040882054161561165e565b36916116a4565b90611fc1565b61062081611b95565b503382526003602052604082205480156106e25761065b6106566106478461069894612162565b84610650612614565b916121e6565b612284565b9161066583611b95565b50604051906106738261116b565b81528260208201528260408201524260608201523384526004602052604084206113f5565b338252600760205260408220600160ff198254161790556040519081527f459d41d31aa98a1da97be20030f9de805206cdd59259227181d9fc6bd52ed9db60203392a26001815580f35b60405162461bcd60e51b8152602060048201526016602482015275139bc81c1c9a5d985d19481cdd185ad948199bdd5b9960521b6044820152606490fd5b50346101c957806003193601126101c957600a546001600160a01b038116903382900361078757600980546001600160a01b0319908116841790915516600a557fb27970c1714b28277b78cc17ac2fe9556e7f048cd48358cffe3dc7d547608fdc8280a280f35b60405162461bcd60e51b81526020600482015260126024820152712737ba10383937b837b9b2b21037bbb732b960711b6044820152606490fd5b50346101c957806003193601126101c9576020604051610e108152f35b50346101c95760203660031901126101c9576107f8610e94565b6009546001600160a01b03163303610886576001600160a01b0316801561085257600a80546001600160a01b031916821790557f6ab4d119f23076e8ad491bc65ce85f017fb0591dce08755ba8591059cc51737a8280a280f35b60405162461bcd60e51b815260206004820152600c60248201526b5a65726f206164647265737360a01b6044820152606490fd5b60405162461bcd60e51b815260206004820152600a60248201526927b7363c9037bbb732b960b11b6044820152606490fd5b50346101c95760203660031901126101c9576020906040906001600160a01b036108e0610e94565b168152600283522054604051908152f35b50346101c957806003193601126101c957604051600160f81b6020820152600181526109369061092260218261119a565b604051918291602083526020830190610f56565b0390f35b50346101c957806003193601126101c9576040517f00000000000000000000000000000000000000000000000000000000000000006001600160a01b03168152602090f35b50346101c95761098e36610f27565b919061099e6002855414156110c3565b6002845533845260066020526002604085200154610aa1576020918391338652600784526109d360ff60408820541615611620565b60018054604051600160f81b878201529182526001600160a01b0316928791610a5f90610a0160218261119a565b60c4604051998a98899788966334c4574360e01b8852336004890152306024890152604488015260a060648801528160a4880152838701378481018201869052601f01601f1916840184810382016003190160848601520190610f56565b03925af1801561037357610a76575b506001815580f35b602090813d8311610a9a575b610a8c818361119a565b810103126101c9575f610a6e565b503d610a82565b60405162461bcd60e51b81526020600482015260156024820152745374616b6520616c72656164792070656e64696e6760581b6044820152606490fd5b50346101c95760803660031901126101c957610af8610e94565b50602435906001600160a01b03821682036101c957606435906001600160401b0382116101c95760206105bf84610b323660048701610eaa565b916044359061141a565b50346101c95760203660031901126101c9576104bd600435611220565b505f366003190112610cf357610b7360025f5414156110c3565b60025f553415610d8457633b9aca003406610d3557633b9aca0034046001600160401b038111610cf7577f00000000000000000000000000000000000000000000000000000000000000006001600160a01b0316803b15610cf35760405163474cf53d60e01b81527f00000000000000000000000000000000000000000000000000000000000000006001600160a01b031660048201523360248201525f6044820181905290918290606490829034905af18015610ce857610cd1575b50610c43906001600160401b03166125c5565b3382526002602052604082205415610cbf57610c6b9033835260026020526040832054611ef5565b338252600260205260408220555b3381526002602052610c8f336040832054611b6b565b503381526002602052610ca56040822054611b95565b50335f5160206127235f395f51905f528280a26001815580f35b33825260026020526040822055610c79565b610cde9192505f9061119a565b5f90610c43610c30565b6040513d5f823e3d90fd5b5f80fd5b60405162461bcd60e51b815260206004820152601660248201527514dd185ad9481bdd995c999b1bdddcc81d5a5b9d0d8d60521b6044820152606490fd5b60405162461bcd60e51b815260206004820152602160248201527f5374616b6520616d6f756e74206d75737420626520612077686f6c65204777656044820152606960f81b6064820152608490fd5b60405162461bcd60e51b815260206004820152600e60248201526d04d757374207374616b65203e20360941b6044820152606490fd5b34610cf357610dc836610ed7565b50505050611133565b34610cf3576020366003190112610cf357610ded600435611220565b005b34610cf3576020366003190112610cf35760206105bf610e0d610e94565b6111bd565b34610cf357610e2036610f27565b505050611133565b34610cf357610ded6104b436610ed7565b34610cf3576020366003190112610cf3576001600160a01b03610e5a610e94565b165f526003602052602060405f2054604051908152f35b34610cf3576020366003190112610cf35760206105bf610e8f610e94565b610f7a565b600435906001600160a01b0382168203610cf357565b9181601f84011215610cf3578235916001600160401b038311610cf35760208381860195010111610cf357565b6040600319820112610cf3576004356001600160401b038111610cf35781610f0191600401610eaa565b90929091602435906001600160401b038211610cf357610f2391600401610eaa565b9091565b906040600319830112610cf35760043591602435906001600160401b038211610cf357610f2391600401610eaa565b805180835260209291819084018484015e5f828201840152601f01601f1916010190565b6001600160a01b03163381900361108d57805f52600260205260405f20541515815f52600360205260405f20541515908080611086575b6110055715610fe057505f52600260205260405f20545b610fd23382611b6b565b50610fdc81611b95565b5090565b15610ff6575f52600360205260405f2054610fc8565b5f52600360205260405f205490565b60405162461bcd60e51b815260206004820152604d60248201527f4d69786564207374616b6520756e6974733a2075736520676574456e6372797060448201527f7465645075626c69635374616b656420616e6420676574456e6372797074656460648201526c141c9a5d985d1954dd185ad959609a1b608482015260a490fd5b5081610fb1565b60405162461bcd60e51b815260206004820152600e60248201526d139bdd08185d5d1a1bdc9a5e995960921b6044820152606490fd5b156110ca57565b60405162461bcd60e51b815260206004820152601f60248201527f5265656e7472616e637947756172643a207265656e7472616e742063616c6c006044820152606490fd5b9061112d93929161112460025f5414156110c3565b60025f55611bb4565b60015f55565b60405162461bcd60e51b815260206004820152601060248201526f557365207374616b65416e644c6f636b60801b6044820152606490fd5b608081019081106001600160401b0382111761118657604052565b634e487b7160e01b5f52604160045260245ffd5b601f909101601f19168101906001600160401b0382119082101761118657604052565b6001600160a01b03165f818152600560205260409081902090516111e08161116b565b81548152600182015460208201526060600360028401549384604085015201549101528061121b57505f526004602052600260405f20015490565b905090565b61122e60025f5414156110c3565b60025f5580156113bb57335f52600860205261125160ff60405f2054161561165e565b633b9aca00810661137a57335f52600260205260405f2054801561133d576112a29061065690611299611292633b9aca0086046001600160401b03166125c5565b8092612162565b90610650612614565b906112ac82611b95565b50604051906112ba8261116b565b8152600360208201838152604083018481526060840191428352335f52600560205260405f209451855551600185015551600284015551910155335f52600860205260405f20600160ff198254161790556040519081527faa675e35bc1c202d048689a75fc83de0fa4f047532287d1283809f69069ce4a860203392a260015f55565b60405162461bcd60e51b8152602060048201526015602482015274139bc81c1d589b1a58c81cdd185ad948199bdd5b99605a1b6044820152606490fd5b60405162461bcd60e51b8152602060048201526019602482015278416d6f756e74206d7573742062652077686f6c65204777656960381b6044820152606490fd5b60405162461bcd60e51b81526020600482015260126024820152710416d6f756e74206d757374206265203e20360741b6044820152606490fd5b9060606003918051845560208101516001850155604081015160028501550151910155565b600154909391925f92916001600160a01b03163303611612576001600160a01b0385165f8181526007602052604090205490959060ff1680156115fa575b6115eb575f868152600360205260409020546114aa9190156115d857865f52600360205261148a8660405f2054611ef5565b875f52600360205260405f20555b865f52600360205260405f2054611b6b565b50845f5260036020526114c060405f2054611b95565b506001821491826115a4575b5050611505575b5f5160206127235f395f51905f52915080a26114ef6001612662565b600154610fdc906001600160a01b0316826126b0565b6001546001600160a01b031691823b15610cf3575f8093602460405180968193637441b8bb60e01b83528960048401525af1928315610ce8575f5160206127235f395f51905f529361158d575b50604051611588916115638261116b565b80825280602083015260408201524260608201528483526006602052604083206113f5565b6114d3565b61159a9192505f9061119a565b5f90611588611552565b909150156115c457356001600160f81b031916600160f81b145f806114cc565b634e487b7160e01b5f52603260045260245ffd5b865f5260036020528560405f2055611498565b5050505050506114ef5f612662565b50855f526006602052600260405f2001541515611458565b50505050506114ef5f612662565b1561162757565b60405162461bcd60e51b815260206004820152600f60248201526e556e7374616b652070656e64696e6760881b6044820152606490fd5b1561166557565b60405162461bcd60e51b8152602060048201526017602482015276556e7374616b6520616c72656164792070656e64696e6760481b6044820152606490fd5b9192916001600160401b03821161118657604051916116cd601f8201601f19166020018461119a565b829481845281830111610cf3578281602093845f960137010152565b906040516116f68161116b565b6060600382948054845260018101546020850152600281015460408501520154910152565b1561172257565b60405162461bcd60e51b815260206004820152600f60248201526e4e6f7468696e672070656e64696e6760881b6044820152606490fd5b60035f918281558260018201558260028201550155565b6001600160a01b03918216815291166020820152604081019190915260600190565b90816020910312610cf357518015158103610cf35790565b91926117e891935f94335f5260046020526117c760405f206116e9565b946117d76040870151151561171b565b602060018060401b03960151612366565b166117f2816125c5565b90335f52600460205261180760405f20611759565b335f52600760205260405f2060ff19815416905515611a0057335f5260036020526118368160405f20546124e1565b335f81815260036020526040902082905561185091611b6b565b50335f52600360205261186660405f2054611b95565b5060015461187d906001600160a01b031682611b6b565b506001546001600160a01b0316803b15610cf35760405163433a9d3760e01b8152915f9183918290849082906118b890333060048501611770565b03925af18015610ce8576119ed575b5033815260066020526002604082200154611904575b7f723296e6659d8d1d3adf1e14a47f8c1e9abb09a0bdf669247571ba3e73e7967f339180a2565b338152600360205260408120541580156119e8575b156118dd57338152600660205261193260408220611759565b600154604051638e7945b760e01b81523360048201526001600160a01b0390911690602081602481855afa9081156103b05783916119c9575b50611977575b506118dd565b803b156119c55781809160246040518094819363ce7a60ab60e01b83523360048401525af18015610373579082916119b0575b50611971565b816119ba9161119a565b6101c957805f6119aa565b5080fd5b6119e2915060203d6020116103a95761039b818361119a565b5f61196b565b611919565b6119f991505f9061119a565b5f5f6118c7565b5050565b15611a0b57565b60405162461bcd60e51b8152602060048201526013602482015272151a5b595bdd5d081b9bdd08195b185c1cd959606a1b6044820152606490fd5b335f526004602052611a5a60405f206116e9565b6040810151611b145750335f52600560205260405f20611aac60405191611a808361116b565b80548352600181015460208401526060600360028301549283604087015201549301928352151561171b565b51610e108101809111611b0057611ac4904211611a04565b335f526005602052611ad860405f20611759565b335f52600860205260405f2060ff198154169055335f5160206127035f395f51905f525f80a2565b634e487b7160e01b5f52601160045260245ffd5b60600151610e108101809111611b0057611b2f904211611a04565b335f526004602052611b4360405f20611759565b335f52600760205260405f2060ff198154169055335f5160206127035f395f51905f525f80a2565b908115611b80575b611b7d9082612565565b90565b9050611b7d611b8d612614565b919050611b73565b8015611ba6575b611b7d3082612565565b50611baf612614565b611b9c565b9192611c1891935f94335f52600560205260405f2094611c0760405196611bda8861116b565b8054885260018101549760208101988952606060036002840154938460408501520154910152151561171b565b94516001600160401b039590612366565b16633b9aca0081028115828204633b9aca0014811715611b0057335f526005602052611c4660405f20611759565b335f52600860205260405f2060ff198154169055611ef0576040516323b872dd60e01b8152336004820152306024820152604481018290527f00000000000000000000000000000000000000000000000000000000000000006001600160a01b031691906020816064815f875af1908115610ce8575f91611ed1575b5015611e945760405163095ea7b360e01b81527f00000000000000000000000000000000000000000000000000000000000000006001600160a01b0316600482018190526024820183905291906020816044815f885af18015610ce857611e77575b50813b15610cf357604051630402806960e51b81527f00000000000000000000000000000000000000000000000000000000000000006001600160a01b0316600482015260248101919091523360448201525f8160648183865af18015610ce857611e5b575b5083916044602092604051948593849263095ea7b360e01b845260048401528160248401525af180156103b05791611dcb91611ddd93611e3e575b506125c5565b338352600260205260408320546124e1565b338252600260205260408220553381526002602052611e00336040832054611b6b565b503381526002602052611e166040822054611b95565b507f79cdf940bc94110667cedeee100584fb615580eb56790c48cf17b21ebef0f183339180a2565b611e569060203d6020116103a95761039b818361119a565b611dc5565b6044945091611e6d5f6020939461119a565b5f94509190611d8a565b611e8f9060203d6020116103a95761039b818361119a565b611d24565b60405162461bcd60e51b81526020600482015260156024820152741855d15512081d1c985b9cd9995c8819985a5b1959605a1b6044820152606490fd5b611eea915060203d6020116103a95761039b818361119a565b5f611cc2565b505050565b908115611f98575b8015611f86575b602090606460018060a01b035f5160206127435f395f51905f525416935f604051958694859363022f65e760e31b8552600485015260248401528160448401525af1908115610ce8575f91611f57575090565b90506020813d602011611f7e575b81611f726020938361119a565b81010312610cf3575190565b3d9150611f65565b506020611f91612614565b9050611f04565b9050611fa2612614565b90611efd565b9081526001600160a01b03909116602082015260400190565b8151909190156120c7575f5160206127435f395f51905f525460405163045fc19560e11b815260048101939093523360248401526080604484015260209183916001600160a01b03169082905f90829061201f906084830190610f56565b6005606483015203925af1908115610ce8575f91612095575b505f5160206127635f395f51905f52546001600160a01b0316803b15610cf3575f6040518092630f8e573b60e21b8252818381612079338960048401611fa8565b03925af18015610ce85761208b575090565b5f611b7d9161119a565b90506020813d6020116120bf575b816120b06020938361119a565b81010312610cf357515f612038565b3d91506120a3565b508015612159575f5160206127635f395f51905f52546040516382027b6d60e01b81529060209082906001600160a01b03168180612109338860048401611fa8565b03915afa908115610ce8575f9161213a575b50156121245790565b630276b5d960e01b5f526004523360245260445ffd5b612153915060203d6020116103a95761039b818361119a565b5f61211b565b50611b7d612614565b9081156121d6575b80156121c4575b602090606460018060a01b035f5160206127435f395f51905f525416935f6040519586948593631391547f60e01b8552600485015260248401528160448401525af1908115610ce8575f91611f57575090565b5060206121cf612614565b9050612171565b90506121e0612614565b9061216a565b91908215612273575b8015612265575b811561224f575b6064602092935f60018060a01b035f5160206127435f395f51905f5254166040519687958694637702dcff60e01b86526004860152602485015260448401525af1908115610ce8575f91611f57575090565b60209150606461225d612614565b9250506121fd565b5061226e612614565b6121f6565b915061227e5f612662565b916121ef565b801561231c575b604080519061229a818361119a565b60018252601f198101366020840137826122b383612359565b525f5160206127635f395f51905f52546001600160a01b0316803b15610cf3578151637d6e912360e11b815260206004820152925f9184918290849082906122ff9060248301906126cf565b03925af1908115612313575061208b575090565b513d5f823e3d90fd5b50612325612614565b61228b565b4660010361233757600190565b4662aa36a7036123475761271190565b617a694614612354575f90565b5f1990565b8051156115c45760200190565b929190936123a960409384519561237d868861119a565b60018752601f19860136602089013761239587612359565b526123a13685896116a4565b9236916116a4565b602061241660018060a01b037f9e7b61f58c47dc699ac88507c4f5bb9f121c03808c5676a8078fe583e464970254166124045f896124288a51978896879586946378542ead60e01b86526060600487015260648601906126cf565b8481036003190160248601528b610f56565b83810360031901604485015290610f56565b03925af19081156124d7575f916124b8575b50156124a9576020938361248a7fc6366bab028b8d033cb362cfd1f2f3457ef4e92fc738b6788b90d5a7846367a09361247d8997519484869586528501906126cf565b9083820389850152610f56565b0390a181010312610cf357356001600160401b0381168103610cf35790565b63cf6c44e960e01b5f5260045ffd5b6124d1915060203d6020116103a95761039b818361119a565b5f61243a565b84513d5f823e3d90fd5b908115612555575b8015612543575b602090606460018060a01b035f5160206127435f395f51905f525416935f60405195869485936303056db360e31b8552600485015260248401528160448401525af1908115610ce8575f91611f57575090565b50602061254e612614565b90506124f0565b905061255f612614565b906124e9565b5f5160206127635f395f51905f52546001600160a01b031691823b15610cf3576125a8925f9283604051809681958294635ca4b5b160e11b845260048401611fa8565b03925af18015610ce8576125b95750565b5f6125c39161119a565b565b5f5160206127435f395f51905f5254604051639cd07acb60e01b815260048101929092526001600160a01b0316816044815f602094600560248401525af1908115610ce8575f91611f57575090565b5f5160206127435f395f51905f5254604051639cd07acb60e01b81525f6004820152906001600160a01b0316816044815f602094600560248401525af1908115610ce8575f91611f57575090565b5f5160206127435f395f51905f5254604051639cd07acb60e01b815260048101929092526001600160a01b0316816044815f6020948160248401525af1908115610ce8575f91611f57575090565b9081156126c157611b7d9082612565565b9050611b7d611b8d5f612662565b90602080835192838152019201905f5b8181106126ec5750505090565b82518452602093840193909201916001016126df56fe22cc830dad867e19cb47be932a438444a58da9fdc49c3f00d13fb9f0432b4e1677338642d9284a44296d29a273e04b8ab6b15c7d2439094cd460b7e4f0b330749e7b61f58c47dc699ac88507c4f5bb9f121c03808c5676a8078fe583e46497019e7b61f58c47dc699ac88507c4f5bb9f121c03808c5676a8078fe583e4649700a164736f6c634300081b000a",
  "linkReferences": {},
  "deployedLinkReferences": {}
}