{
  "_format": "hh-sol-artifact-1",
  "contractName": "TrialMilestoneManager",
  "sourceName": "contracts/TrialMilestoneManager.sol",
  "abi": [
    {
      "inputs": [
        {
          "internalType": "address",
          "name": "_trialManager",
          "type": "address"
        }
      ],
      "stateMutability": "nonpayable",
      "type": "constructor"
    },
    {
      "anonymous": false,
      "inputs": [
        {
          "indexed": true,
          "internalType": "uint256",
          "name": "trialId",
          "type": "uint256"
        },
        {
          "indexed": true,
          "internalType": "address",
          "name": "patient",
          "type": "address"
        },
        {
          "indexed": false,
          "internalType": "uint256",
          "name": "milestoneIndex",
          "type": "uint256"
        }
      ],
      "name": "MilestoneCompleted",
      "type": "event"
    },
    {
      "anonymous": false,
      "inputs": [
        {
          "indexed": true,
          "internalType": "uint256",
          "name": "trialId",
          "type": "uint256"
        },
        {
          "indexed": false,
          "internalType": "uint256",
          "name": "milestoneCount",
          "type": "uint256"
        }
      ],
      "name": "MilestonesSet",
      "type": "event"
    },
    {
      "anonymous": false,
      "inputs": [
        {
          "indexed": true,
          "internalType": "address",
          "name": "newOwner",
          "type": "address"
        }
      ],
      "name": "OwnershipAccepted",
      "type": "event"
    },
    {
      "anonymous": false,
      "inputs": [
        {
          "indexed": true,
          "internalType": "address",
          "name": "proposedOwner",
          "type": "address"
        }
      ],
      "name": "OwnershipProposed",
      "type": "event"
    },
    {
      "anonymous": false,
      "inputs": [
        {
          "indexed": true,
          "internalType": "address",
          "name": "oldManager",
          "type": "address"
        },
        {
          "indexed": true,
          "internalType": "address",
          "name": "newManager",
          "type": "address"
        }
      ],
      "name": "TrialManagerUpdated",
      "type": "event"
    },
    {
      "inputs": [],
      "name": "acceptOwnership",
      "outputs": [],
      "stateMutability": "nonpayable",
      "type": "function"
    },
    {
      "inputs": [
        {
          "internalType": "uint256",
          "name": "_trialId",
          "type": "uint256"
        },
        {
          "internalType": "address",
          "name": "_patient",
          "type": "address"
        },
        {
          "internalType": "uint256",
          "name": "_milestoneIndex",
          "type": "uint256"
        }
      ],
      "name": "completeMilestone",
      "outputs": [],
      "stateMutability": "nonpayable",
      "type": "function"
    },
    {
      "inputs": [],
      "name": "dataAccessLog",
      "outputs": [
        {
          "internalType": "contract DataAccessLog",
          "name": "",
          "type": "address"
        }
      ],
      "stateMutability": "view",
      "type": "function"
    },
    {
      "inputs": [
        {
          "internalType": "uint256",
          "name": "_trialId",
          "type": "uint256"
        }
      ],
      "name": "getMilestones",
      "outputs": [
        {
          "components": [
            {
              "internalType": "string",
              "name": "name",
              "type": "string"
            },
            {
              "internalType": "uint16",
              "name": "weightBps",
              "type": "uint16"
            },
            {
              "internalType": "uint256",
              "name": "deadline",
              "type": "uint256"
            }
          ],
          "internalType": "struct TrialMilestoneManager.Milestone[]",
          "name": "",
          "type": "tuple[]"
        }
      ],
      "stateMutability": "view",
      "type": "function"
    },
    {
      "inputs": [
        {
          "internalType": "uint256",
          "name": "_trialId",
          "type": "uint256"
        },
        {
          "internalType": "address",
          "name": "_patient",
          "type": "address"
        }
      ],
      "name": "getParticipantProgress",
      "outputs": [
        {
          "internalType": "uint256",
          "name": "",
          "type": "uint256"
        }
      ],
      "stateMutability": "view",
      "type": "function"
    },
    {
      "inputs": [],
      "name": "owner",
      "outputs": [
        {
          "internalType": "address",
          "name": "",
          "type": "address"
        }
      ],
      "stateMutability": "view",
      "type": "function"
    },
    {
      "inputs": [
        {
          "internalType": "uint256",
          "name": "",
          "type": "uint256"
        },
        {
          "internalType": "address",
          "name": "",
          "type": "address"
        }
      ],
      "name": "participantProgress",
      "outputs": [
        {
          "internalType": "uint256",
          "name": "",
          "type": "uint256"
        }
      ],
      "stateMutability": "view",
      "type": "function"
    },
    {
      "inputs": [],
      "name": "pendingOwner",
      "outputs": [
        {
          "internalType": "address",
          "name": "",
          "type": "address"
        }
      ],
      "stateMutability": "view",
      "type": "function"
    },
    {
      "inputs": [
        {
          "internalType": "address",
          "name": "_newOwner",
          "type": "address"
        }
      ],
      "name": "proposeOwnership",
      "outputs": [],
      "stateMutability": "nonpayable",
      "type": "function"
    },
    {
      "inputs": [
        {
          "internalType": "address",
          "name": "_log",
          "type": "address"
        }
      ],
      "name": "setDataAccessLog",
      "outputs": [],
      "stateMutability": "nonpayable",
      "type": "function"
    },
    {
      "inputs": [
        {
          "internalType": "uint256",
          "name": "_trialId",
          "type": "uint256"
        },
        {
          "internalType": "string[]",
          "name": "_names",
          "type": "string[]"
        },
        {
          "internalType": "uint16[]",
          "name": "_weights",
          "type": "uint16[]"
        },
        {
          "internalType": "uint256[]",
          "name": "_deadlines",
          "type": "uint256[]"
        }
      ],
      "name": "setMilestones",
      "outputs": [],
      "stateMutability": "nonpayable",
      "type": "function"
    },
    {
      "inputs": [
        {
          "internalType": "address",
          "name": "_newTrialManager",
          "type": "address"
        }
      ],
      "name": "setTrialManager",
      "outputs": [],
      "stateMutability": "nonpayable",
      "type": "function"
    },
    {
      "inputs": [
        {
          "internalType": "address",
          "name": "_vault",
          "type": "address"
        }
      ],
      "name": "setVault",
      "outputs": [],
      "stateMutability": "nonpayable",
      "type": "function"
    },
    {
      "inputs": [],
      "name": "trialManager",
      "outputs": [
        {
          "internalType": "contract TrialManager",
          "name": "",
          "type": "address"
        }
      ],
      "stateMutability": "view",
      "type": "function"
    },
    {
      "inputs": [],
      "name": "vault",
      "outputs": [
        {
          "internalType": "contract ISponsorIncentiveVault",
          "name": "",
          "type": "address"
        }
      ],
      "stateMutability": "view",
      "type": "function"
    }
  ],
  "bytecode": "0x608034607d57601f61173738819003918201601f19168301916001600160401b03831184841017608157808492602094604052833981010312607d57516001600160a01b03811690819003607d57600380546001600160a01b031990811633179091555f80549091169190911790556040516116a190816100968239f35b5f80fd5b634e487b7160e01b5f52604160045260245ffdfe6080806040526004361015610012575f80fd5b5f905f3560e01c908163079823091461120c5750806310e2a0ef14610a7057806342c549c01461089757806355f8cfdd146108705780636817031b14610818578063710bf3221461079e57806379ba5097146106ff5780637c7b01b11461028d5780638da5cb5b146102645780639cc0dd481461021f5780639ecd577d1461021f578063d60229ce14610169578063e30c397814610140578063f520f24f146100ee5763fbfa77cf146100c3575f80fd5b346100eb57806003193601126100eb576001546040516001600160a01b039091168152602090f35b80fd5b50346100eb5760203660031901126100eb5761010861125f565b61011d60018060a01b03600354163314611620565b600280546001600160a01b0319166001600160a01b039290921691909117905580f35b50346100eb57806003193601126100eb576004546040516001600160a01b039091168152602090f35b50346100eb5760203660031901126100eb5761018361125f565b61019860018060a01b03600354163314611620565b6001600160a01b031680156101e85781546001600160a01b03198116821783556001600160a01b03167f6138d219bf8146ffd8bb38b913ea1b87df130bed0d4c41f5cd93678e09a5d3938380a380f35b60405162461bcd60e51b815260206004820152600f60248201526e496e76616c6964206164647265737360881b6044820152606490fd5b50346100eb5760403660031901126100eb57604061023b611275565b9160043581526006602052209060018060a01b03165f52602052602060405f2054604051908152f35b50346100eb57806003193601126100eb576003546040516001600160a01b039091168152602090f35b50346104c45760603660031901126104c4576004356102aa611275565b906044359160018060a01b035f5416604051631a7f3c3360e01b81528360048201525f81602481855afa80156104b9576102fa915f916106dd575b50608001516001600160a01b03163314611518565b825f52600560205260ff600160405f20015416156106a057825f52600560205260405f205484101561066b57602060249160405192838092635419390d60e11b82528760048301525afa80156104b9575f90610630575b61035b9150611553565b815f52600560205260026103728460405f206115cf565b50015442116105ef576001546001600160a01b0316801515908161056f575b501561052b57815f52600660205260405f2060018060a01b0382165f5260205260405f205483036104dc57600183018084116104c8575f8381526006602090815260408083206001600160a01b0386811685529252909120919091556002541680610431575b506040519283526001600160a01b0316917f785f24b6a98eafa7fd61a09cf31775b7bbc039cc966c9c6fad18743e13a9e1ea90602090a380f35b604051602081019060018060601b03198460601b168252856034820152426054820152605481526104636074826112a6565b519020813b156104c4575f916064839260405194859384926306cc173360e41b845260048085015289602485015260448401525af180156104b957156103f7576104b09194505f906112a6565b5f9260206103f7565b6040513d5f823e3d90fd5b5f80fd5b634e487b7160e01b5f52601160045260245ffd5b60405162461bcd60e51b815260206004820152602160248201527f4d75737420636f6d706c657465206d696c6573746f6e657320696e206f7264656044820152603960f91b6064820152608490fd5b60405162461bcd60e51b815260206004820152601c60248201527b139bdd0818481c9959da5cdd195c9959081c185c9d1a58da5c185b9d60221b6044820152606490fd5b60405163cb84e53760e01b8152600481018590526001600160a01b03841660248201529150602090829060449082905afa9081156104b9575f916105b5575b505f610391565b90506020813d6020116105e7575b816105d0602093836112a6565b810103126104c4576105e19061132a565b5f6105ae565b3d91506105c3565b60405162461bcd60e51b8152602060048201526019602482015278135a5b195cdd1bdb9948191958591b1a5b99481c185cdcd959603a1b6044820152606490fd5b506020813d602011610663575b8161064a602093836112a6565b810103126104c45761065e61035b9161132a565b610351565b3d915061063d565b60405162461bcd60e51b815260206004820152600d60248201526c092dcecc2d8d2c840d2dcc8caf609b1b6044820152606490fd5b60405162461bcd60e51b8152602060048201526015602482015274151c9a585b081b9bdd081a5b9a5d1a585b1a5e9959605a1b6044820152606490fd5b6106f991503d805f833e6106f181836112a6565b810190611354565b5f6102e5565b346104c4575f3660031901126104c4576004546001600160a01b038116903382900361076457600380546001600160a01b03199081168417909155166004557fb27970c1714b28277b78cc17ac2fe9556e7f048cd48358cffe3dc7d547608fdc5f80a2005b60405162461bcd60e51b81526020600482015260126024820152712737ba10383937b837b9b2b21037bbb732b960711b6044820152606490fd5b346104c45760203660031901126104c4576107b761125f565b6107cc60018060a01b03600354163314611620565b6001600160a01b03166107e0811515611659565b600480546001600160a01b031916821790557f6ab4d119f23076e8ad491bc65ce85f017fb0591dce08755ba8591059cc51737a5f80a2005b346104c45760203660031901126104c45761083161125f565b61084660018060a01b03600354163314611620565b6001600160a01b031661085a811515611659565b600180546001600160a01b031916919091179055005b346104c4575f3660031901126104c4575f546040516001600160a01b039091168152602090f35b346104c45760203660031901126104c4576004355f9081526005602052604090208054906001600160401b038211610a5c57604051916108dd60208260051b01846112a6565b808352602083019081925f5260205f205f925b82841061099357848660405191829160208301906020845251809152604083019060408160051b85010192915f905b82821061092e57505050500390f35b9193600191939550602060808192603f198a82030186528260408a518051606085528051938491826060880152018686015e5f85848601015261ffff86820151168685015201516040830152601f80199101160101960192019201859493919261091f565b60405161099f8161128b565b6040515f84546109ae816115e8565b8084529060018116908115610a395750600114610a02575b5092600392826109dc60209460019703826112a6565b815261ffff858701541683820152600286015460408201528152019201930192906108f0565b5f868152602081209092505b818310610a23575050810160200160036109c6565b6001816020925483868801015201920191610a0e565b60ff191660208086019190915291151560051b84019091019150600390506109c6565b634e487b7160e01b5f52604160045260245ffd5b346104c45760803660031901126104c4576004356024356001600160401b0381116104c457610aa390369060040161122f565b91906044356001600160401b0381116104c457610ac490369060040161122f565b9390916064356001600160401b0381116104c457610ae690369060040161122f565b93909260018060a01b035f5416604051631a7f3c3360e01b81528760048201525f81602481855afa80156104b957610b33915f916111f25750608001516001600160a01b03163314611518565b6001546001600160a01b0316156111b657604051631a7f3c3360e01b8152600481018890525f81602481855afa80156104b9576101e0915f9161119c575b5001511561116057865f52600560205260ff600160405f20015416611125578115158061111a575b156110dc57878214806110d3575b1561109c57604051635419390d60e11b815260048101889052602081602481855afa9081156104b9575f91611058575b50602491610be55f92611553565b60405192838092631a7f3c3360e01b82528b60048301525afa9081156104b9575f9161103e575b505f9691965b868110610f0e57505036839003601e1901905f805b88821015610e6a5761ffff610c45610c40848d8961159c565b6115c0565b1681018091116104c85790825f52600560205260405f208160051b870135858112156104c45787018035906001600160401b0382116104c457602081019282360384136104c4578a91610ca98f8e610ca3610c408a8f94819561159c565b9561159c565b359360405195610cb88761128b565b610cc1826112c9565b92610ccf60405194856112a6565b82845260208336920101116104c457815f926020928386013783010152845261ffff6020850192168252604084019283528054600160401b811015610a5c57610d1d916001820181556115cf565b939093610e5757518051906001600160401b038211610a5c57610d4085546115e8565b601f8111610e12575b50602090601f8311600114610da7579180600294926001989796945f92610d9c575b50505f19600383901b1c191690871b1784555b61ffff86850191511661ffff19825416179055519101550190610c27565b015190505f80610d6b565b90601f19831691865f52815f20925f5b818110610dfa57509260019897969491928993836002989610610de2575b505050811b018455610d7e565b01515f1960f88460031b161c191690555f8080610dd5565b92936020600181928786015181550195019301610db7565b855f5260205f20601f840160051c81019160208510610e4d575b601f0160051c01905b818110610e425750610d49565b5f8155600101610e35565b9091508190610e2c565b634e487b7160e01b5f525f60045260245ffd5b88612710849203610ebb5760207f2e9056f01b5d8ca8b767cc6ea4fe48ef23db5f57dbee3f3be6b52cbc4b75786991835f5260058252600160405f2001600160ff19825416179055604051908152a2005b60405162461bcd60e51b815260206004820152602560248201527f546f74616c20776569676874206d757374206265203130303030206270732028604482015264313030252960d81b6064820152608490fd5b96919642610f1d82898961159c565b351115610ffc57610f2f81888861159c565b356101e083015110610fb85780610f4c575b600101969196610c12565b610f5781888861159c565b355f1982018281116104c857610f6e90898961159c565b3510610f415760405162461bcd60e51b815260206004820152601c60248201527b111958591b1a5b995cc81b5d5cdd081899481cd95c5d595b9d1a585b60221b6044820152606490fd5b606460405162461bcd60e51b815260206004820152602060248201527f446561646c696e652063616e6e6f742065786365656420747269616c20656e646044820152fd5b60405162461bcd60e51b815260206004820152601a602482015279446561646c696e65206d75737420626520696e2066757475726560301b6044820152606490fd5b61105291503d805f833e6106f181836112a6565b88610c0c565b90506020813d602011611094575b81611073602093836112a6565b810103126104c457602491610be561108b5f9361132a565b92505091610bd7565b3d9150611066565b60405162461bcd60e51b815260206004820152600f60248201526e098cadccee8d040dad2e6dac2e8c6d608b1b6044820152606490fd5b50858214610ba7565b60405162461bcd60e51b81526020600482015260166024820152750c4b4d081b5a5b195cdd1bdb995cc8185b1b1bddd95960521b6044820152606490fd5b506004821115610b99565b60405162461bcd60e51b8152602060048201526013602482015272105b1c9958591e481a5b9a5d1a585b1a5e9959606a1b6044820152606490fd5b60405162461bcd60e51b8152602060048201526014602482015273151c9a585b08191bd95cc81b9bdd08195e1a5cdd60621b6044820152606490fd5b6111b091503d805f833e6106f181836112a6565b8a610b71565b60405162461bcd60e51b815260206004820152601460248201527315985d5b1d081b9bdd0818dbdb999a59dd5c995960621b6044820152606490fd5b61120691503d805f833e6106f181836112a6565b8a6102e5565b346104c4575f3660031901126104c4576002546001600160a01b03168152602090f35b9181601f840112156104c4578235916001600160401b0383116104c4576020808501948460051b0101116104c457565b600435906001600160a01b03821682036104c457565b602435906001600160a01b03821682036104c457565b606081019081106001600160401b03821117610a5c57604052565b601f909101601f19168101906001600160401b03821190821017610a5c57604052565b6001600160401b038111610a5c57601f01601f191660200190565b81601f820112156104c4578051906112fb826112c9565b9261130960405194856112a6565b828452602083830101116104c457815f9260208093018386015e8301015290565b519081151582036104c457565b519060ff821682036104c457565b519061ffff821682036104c457565b6020818303126104c4578051906001600160401b0382116104c45701610220818303126104c4576040519161022083016001600160401b03811184821017610a5c5760405281516001600160401b0381116104c457816113b59184016112e4565b835260208201516001600160401b0381116104c457816113d69184016112e4565b602084015260408201516001600160401b0381116104c457816113fa9184016112e4565b60408401526060820151906001600160401b0382116104c45761141e9183016112e4565b606083015260808101516001600160a01b03811681036104c45761150f9161020091608085015261145160a0820161132a565b60a085015261146260c08201611337565b60c085015261147360e08201611337565b60e0850152611485610100820161132a565b6101008501526114986101208201611345565b6101208501526114ab6101408201611337565b6101408501526114be6101608201611337565b6101608501526114d16101808201611345565b6101808501526114e46101a0820161132a565b6101a08501526114f76101c0820161132a565b6101c08501526101e08101516101e08501520161132a565b61020082015290565b1561151f57565b60405162461bcd60e51b815260206004820152600c60248201526b27b7363c9039b837b739b7b960a11b6044820152606490fd5b1561155a57565b60405162461bcd60e51b815260206004820152601a60248201527914dc1bdb9cdbdc881b9bc81b1bdb99d95c881d995c9a599a595960321b6044820152606490fd5b91908110156115ac5760051b0190565b634e487b7160e01b5f52603260045260245ffd5b3561ffff811681036104c45790565b80548210156115ac575f52600360205f20910201905f90565b90600182811c92168015611616575b602083101461160257565b634e487b7160e01b5f52602260045260245ffd5b91607f16916115f7565b1561162757565b60405162461bcd60e51b815260206004820152600a60248201526927b7363c9037bbb732b960b11b6044820152606490fd5b1561166057565b60405162461bcd60e51b815260206004820152600c60248201526b5a65726f206164647265737360a01b6044820152606490fdfea164736f6c634300081b000a",
  "linkReferences": {},
  "deployedLinkReferences": {}
}