{
  "_format": "hh-sol-artifact-1",
  "contractName": "TrialManager",
  "sourceName": "contracts/TrialManager.sol",
  "abi": [
    {
      "inputs": [],
      "stateMutability": "nonpayable",
      "type": "constructor"
    },
    {
      "anonymous": false,
      "inputs": [
        {
          "indexed": true,
          "internalType": "address",
          "name": "sponsor",
          "type": "address"
        },
        {
          "indexed": false,
          "internalType": "string",
          "name": "name",
          "type": "string"
        }
      ],
      "name": "SponsorNameUpdated",
      "type": "event"
    },
    {
      "anonymous": false,
      "inputs": [
        {
          "indexed": true,
          "internalType": "address",
          "name": "newRegistry",
          "type": "address"
        }
      ],
      "name": "SponsorRegistryUpdated",
      "type": "event"
    },
    {
      "anonymous": false,
      "inputs": [
        {
          "indexed": true,
          "internalType": "uint256",
          "name": "trialId",
          "type": "uint256"
        },
        {
          "indexed": true,
          "internalType": "address",
          "name": "sponsor",
          "type": "address"
        },
        {
          "indexed": false,
          "internalType": "string",
          "name": "name",
          "type": "string"
        },
        {
          "indexed": false,
          "internalType": "uint256",
          "name": "endTime",
          "type": "uint256"
        }
      ],
      "name": "TrialCreated",
      "type": "event"
    },
    {
      "anonymous": false,
      "inputs": [
        {
          "indexed": true,
          "internalType": "uint256",
          "name": "trialId",
          "type": "uint256"
        }
      ],
      "name": "TrialDeactivated",
      "type": "event"
    },
    {
      "inputs": [],
      "name": "automationContract",
      "outputs": [
        {
          "internalType": "address",
          "name": "",
          "type": "address"
        }
      ],
      "stateMutability": "view",
      "type": "function"
    },
    {
      "inputs": [
        {
          "internalType": "string",
          "name": "_name",
          "type": "string"
        },
        {
          "internalType": "string",
          "name": "_phase",
          "type": "string"
        },
        {
          "internalType": "string",
          "name": "_location",
          "type": "string"
        },
        {
          "internalType": "string",
          "name": "_compensation",
          "type": "string"
        },
        {
          "internalType": "uint8",
          "name": "_minAge",
          "type": "uint8"
        },
        {
          "internalType": "uint8",
          "name": "_maxAge",
          "type": "uint8"
        },
        {
          "internalType": "bool",
          "name": "_requiresDiabetes",
          "type": "bool"
        },
        {
          "internalType": "uint16",
          "name": "_minHb",
          "type": "uint16"
        },
        {
          "internalType": "uint8",
          "name": "_genderReq",
          "type": "uint8"
        },
        {
          "internalType": "uint8",
          "name": "_minHeight",
          "type": "uint8"
        },
        {
          "internalType": "uint16",
          "name": "_maxWeight",
          "type": "uint16"
        },
        {
          "internalType": "bool",
          "name": "_requiresNonSmoker",
          "type": "bool"
        },
        {
          "internalType": "bool",
          "name": "_requiresNormalBP",
          "type": "bool"
        },
        {
          "internalType": "uint256",
          "name": "_duration",
          "type": "uint256"
        }
      ],
      "name": "createTrial",
      "outputs": [
        {
          "internalType": "uint256",
          "name": "",
          "type": "uint256"
        }
      ],
      "stateMutability": "nonpayable",
      "type": "function"
    },
    {
      "inputs": [
        {
          "internalType": "uint256",
          "name": "_trialId",
          "type": "uint256"
        }
      ],
      "name": "deactivateTrial",
      "outputs": [],
      "stateMutability": "nonpayable",
      "type": "function"
    },
    {
      "inputs": [
        {
          "internalType": "uint256",
          "name": "_trialId",
          "type": "uint256"
        }
      ],
      "name": "getTrial",
      "outputs": [
        {
          "components": [
            {
              "internalType": "string",
              "name": "name",
              "type": "string"
            },
            {
              "internalType": "string",
              "name": "phase",
              "type": "string"
            },
            {
              "internalType": "string",
              "name": "location",
              "type": "string"
            },
            {
              "internalType": "string",
              "name": "compensation",
              "type": "string"
            },
            {
              "internalType": "address",
              "name": "sponsor",
              "type": "address"
            },
            {
              "internalType": "bool",
              "name": "active",
              "type": "bool"
            },
            {
              "internalType": "uint8",
              "name": "minAge",
              "type": "uint8"
            },
            {
              "internalType": "uint8",
              "name": "maxAge",
              "type": "uint8"
            },
            {
              "internalType": "bool",
              "name": "requiresDiabetes",
              "type": "bool"
            },
            {
              "internalType": "uint16",
              "name": "minHb",
              "type": "uint16"
            },
            {
              "internalType": "uint8",
              "name": "genderRequirement",
              "type": "uint8"
            },
            {
              "internalType": "uint8",
              "name": "minHeight",
              "type": "uint8"
            },
            {
              "internalType": "uint16",
              "name": "maxWeight",
              "type": "uint16"
            },
            {
              "internalType": "bool",
              "name": "requiresNonSmoker",
              "type": "bool"
            },
            {
              "internalType": "bool",
              "name": "requiresNormalBP",
              "type": "bool"
            },
            {
              "internalType": "uint256",
              "name": "endTime",
              "type": "uint256"
            }
          ],
          "internalType": "struct TrialManager.Trial",
          "name": "",
          "type": "tuple"
        }
      ],
      "stateMutability": "view",
      "type": "function"
    },
    {
      "inputs": [],
      "name": "owner",
      "outputs": [
        {
          "internalType": "address",
          "name": "",
          "type": "address"
        }
      ],
      "stateMutability": "view",
      "type": "function"
    },
    {
      "inputs": [
        {
          "internalType": "address",
          "name": "_automation",
          "type": "address"
        }
      ],
      "name": "setAutomationContract",
      "outputs": [],
      "stateMutability": "nonpayable",
      "type": "function"
    },
    {
      "inputs": [
        {
          "internalType": "string",
          "name": "_name",
          "type": "string"
        }
      ],
      "name": "setSponsorName",
      "outputs": [],
      "stateMutability": "nonpayable",
      "type": "function"
    },
    {
      "inputs": [
        {
          "internalType": "address",
          "name": "_registry",
          "type": "address"
        }
      ],
      "name": "setSponsorRegistry",
      "outputs": [],
      "stateMutability": "nonpayable",
      "type": "function"
    },
    {
      "inputs": [
        {
          "internalType": "address",
          "name": "",
          "type": "address"
        }
      ],
      "name": "sponsorNames",
      "outputs": [
        {
          "internalType": "string",
          "name": "",
          "type": "string"
        }
      ],
      "stateMutability": "view",
      "type": "function"
    },
    {
      "inputs": [],
      "name": "sponsorRegistry",
      "outputs": [
        {
          "internalType": "address",
          "name": "",
          "type": "address"
        }
      ],
      "stateMutability": "view",
      "type": "function"
    },
    {
      "inputs": [],
      "name": "trialCounter",
      "outputs": [
        {
          "internalType": "uint256",
          "name": "",
          "type": "uint256"
        }
      ],
      "stateMutability": "view",
      "type": "function"
    },
    {
      "inputs": [
        {
          "internalType": "uint256",
          "name": "",
          "type": "uint256"
        }
      ],
      "name": "trials",
      "outputs": [
        {
          "internalType": "string",
          "name": "name",
          "type": "string"
        },
        {
          "internalType": "string",
          "name": "phase",
          "type": "string"
        },
        {
          "internalType": "string",
          "name": "location",
          "type": "string"
        },
        {
          "internalType": "string",
          "name": "compensation",
          "type": "string"
        },
        {
          "internalType": "address",
          "name": "sponsor",
          "type": "address"
        },
        {
          "internalType": "bool",
          "name": "active",
          "type": "bool"
        },
        {
          "internalType": "uint8",
          "name": "minAge",
          "type": "uint8"
        },
        {
          "internalType": "uint8",
          "name": "maxAge",
          "type": "uint8"
        },
        {
          "internalType": "bool",
          "name": "requiresDiabetes",
          "type": "bool"
        },
        {
          "internalType": "uint16",
          "name": "minHb",
          "type": "uint16"
        },
        {
          "internalType": "uint8",
          "name": "genderRequirement",
          "type": "uint8"
        },
        {
          "internalType": "uint8",
          "name": "minHeight",
          "type": "uint8"
        },
        {
          "internalType": "uint16",
          "name": "maxWeight",
          "type": "uint16"
        },
        {
          "internalType": "bool",
          "name": "requiresNonSmoker",
          "type": "bool"
        },
        {
          "internalType": "bool",
          "name": "requiresNormalBP",
          "type": "bool"
        },
        {
          "internalType": "uint256",
          "name": "endTime",
          "type": "uint256"
        }
      ],
      "stateMutability": "view",
      "type": "function"
    }
  ],
  "bytecode": "0x60808060405234602c576001600255600580546001600160a01b031916331790556113b690816100318239f35b5f80fdfe610140806040526004361015610013575f80fd5b5f3560e01c9081630689d5ed146110f3575080631a7f3c3314610e5a5780633cdb7bf7146105da5780633ef3e1ee1461056757806362909f0a146105165780638da5cb5b146104ee578063c1126249146104d1578063c839b35e14610348578063cb133cd2146102f4578063cf36002d146101b2578063dbf011c31461018a5763dd1f5416146100a1575f80fd5b3461018657602036600319011261018657600435805f525f60205260018060a01b03600460405f2001541633148015610172575b1561011b575f818152602081905260408120600401805460ff60a01b191690557f265bfcb9efd040d32949da8f32fed7724df27b042f3aabb08c52b981e10f0ccd9080a2005b60405162461bcd60e51b815260206004820152602960248201527f4f6e6c792073706f6e736f72206f72206175746f6d6174696f6e2063616e206460448201526865616374697661746560b81b6064820152608490fd5b506003546001600160a01b031633146100d5565b5f80fd5b34610186575f366003190112610186576004546040516001600160a01b039091168152602090f35b34610186576020366003190112610186576004355f525f60205261022c60405f206101dc816111de565b906101e9600182016111de565b6102566101f8600284016111de565b610248610207600386016111de565b9161023a6005600488015497015495604051998a996102008b526102008b0190611116565b9089820360208b0152611116565b908782036040890152611116565b908582036060870152611116565b9160018060a01b038116608085015260ff8160a01c16151560a085015260ff8160a81c1660c085015260ff8160b01c1660e085015260ff8160b81c16151561010085015261ffff8160c01c1661012085015260ff8160d01c1661014085015260ff8160d81c1661016085015261ffff8160e01c1661018085015260ff8160f01c1615156101a085015260f81c15156101c08401526101e08301520390f35b34610186576020366003190112610186576004356001600160a01b03811690819003610186575f52600160205261034461033060405f206111de565b604051918291602083526020830190611116565b0390f35b34610186576020366003190112610186576004356001600160401b0381116101865761037890369060040161113a565b801561049557335f908152600160205260409020916001600160401b038211610481576103af826103a98554611167565b856112cf565b5f92601f831160011461040c57906103fc916103e384805f51602061138a5f395f51905f5296975f91610401575b5061131e565b90555b6040519182916020835233956020840191611330565b0390a2005b9050840135886103dd565b601f198316815f5260205f20905f5b81811061046957509084955f51602061138a5f395f51905f52956103fc95949310610450575b5050600185811b0190556103e6565b8301355f19600388901b60f8161c191690558580610441565b8487013583556020968701966001909301920161041b565b634e487b7160e01b5f52604160045260245ffd5b60405162461bcd60e51b81526020600482015260146024820152734e616d652063616e6e6f7420626520656d70747960601b6044820152606490fd5b34610186575f366003190112610186576020600254604051908152f35b34610186575f366003190112610186576005546040516001600160a01b039091168152602090f35b34610186576020366003190112610186576004356001600160a01b038116908190036101865761055160018060a01b03600554163314611350565b600380546001600160a01b031916919091179055005b34610186576020366003190112610186576004356001600160a01b03811690819003610186576105a260018060a01b03600554163314611350565b600480546001600160a01b031916821790557fcf510e9fe5c9585bfe354aa0373c8fb628bc210ad55e63bbb8088827b9b1dd295f80a2005b34610186576101c0366003190112610186576004356001600160401b0381116101865761060b90369060040161113a565b60c052610120526024356001600160401b0381116101865761063190369060040161113a565b610100919091526044356001600160401b0381116101865761065790369060040161113a565b9091906064356001600160401b0381116101865761067990369060040161113a565b9190926084359360ff851685036101865760a4359360ff851685036101865760c4359081151582036101865760e43561ffff8116810361018657610104359260ff8416840361018657610124359560ff8716870361018657610144359861ffff8a168a0361018657610164359b8c15158d03610186576101843560a081905280151590036101865760ff821660ff8d161015610e215760c05115610dec576101a43515610db3576004546001600160a01b031680610ccc575b5060025460e08190525f1914610cb857600160e051016002556101a43542014211610cb85761ffff9b6107be60ff9b998e986107b08e9c958d98966107a28a9860405160805261078360805161119f565b6107933660c05161012051611299565b60805152369061010051611299565b602060805101523691611299565b604060805101523691611299565b6060608051015233608080510152600160a060805101521660c060805101521660e060805101521515610100608051015216610120608051015216610140608051015216610160608051015216610180608051015215156101a0608051015260a05115156101c060805101526101a43542016101e0608051015260e0515f525f60205260405f206080515180519060018060401b03821161048157610867826103a98554611167565b602090601f8311600114610c515761088992915f9183610aff575b505061131e565b81555b608051602001518051906001600160401b038211610481576108be826108b56001860154611167565b600186016112cf565b602090601f8311600114610be4576108df92915f9183610aff57505061131e565b60018201555b608051604001518051906001600160401b038211610481576109178261090e6002860154611167565b600286016112cf565b602090601f8311600114610b775761093892915f9183610aff57505061131e565b60028201555b608051606001518051906001600160401b03821161048157610970826109676003860154611167565b600386016112cf565b602090601f8311600114610b0a5761099192915f9183610aff57505061131e565b60038201555b608080519081015160a08281015160c08085015160e080870151610100880151610120808a01516101408b01516101608c01516101808d01516101a08e01516101c08f015160ff60f01b91151560f01b919091169b1515909c1b60ff60a01b166001600160a01b039d909d169c909c1760a89890981b60ff60a81b169790971760b09590951b60ff60b01b169490941760ff60b81b93151560b81b939093169290921791861b61ffff60c01b169190911760d09290921b60ff60d01b169190911760d89390931b60ff60d81b169290921795901b61ffff60e01b16949094179190911791151560f81b6001600160f81b0319169190911760048501556101e09092015160059093019290925560408051818152915192519192610abd9291840191611330565b6101a435420160208301527f9ca2d4b65e8a9369dc7f8c5935d639fef1b5e4d7f07d4d3ecf9fc679648d0e0133928060e051930390a3602060405160e0518152f35b015190508480610882565b9190600384015f52805f20905f935b601f1984168510610b5c576001945083601f19811610610b44575b505050811b016003820155610997565b01515f1960f88460031b161c19169055838080610b34565b81810151835560209485019460019093019290910190610b19565b9190600284015f52805f20905f935b601f1984168510610bc9576001945083601f19811610610bb1575b505050811b01600282015561093e565b01515f1960f88460031b161c19169055838080610ba1565b81810151835560209485019460019093019290910190610b86565b9190600184015f52805f20905f935b601f1984168510610c36576001945083601f19811610610c1e575b505050811b0160018201556108e5565b01515f1960f88460031b161c19169055838080610c0e565b81810151835560209485019460019093019290910190610bf3565b9190835f52805f20905f935b601f1984168510610c9d576001945083601f19811610610c85575b505050811b01815561088c565b01515f1960f88460031b161c19169055838080610c78565b81810151835560209485019460019093019290910190610c5d565b634e487b7160e01b5f52601160045260245ffd5b5f8091604051602081019063353224d760e11b825233602482015260248152610cf66044826111bb565b51915afa3d15610dac573d610d0a8161127e565b90610d1860405192836111bb565b81523d5f602083013e5b81610d8a575b5015610d34578d610732565b60405162461bcd60e51b815260206004820152602860248201527f4f6e6c792076657269666965642073706f6e736f72732063616e2063726561746044820152676520747269616c7360c01b6064820152608490fd5b905060208180518101031261018657602001518015158103610186578e610d28565b6060610d22565b60405162461bcd60e51b8152602060048201526011602482015270111d5c985d1a5bdb881c995c5d5a5c9959607a1b6044820152606490fd5b60405162461bcd60e51b815260206004820152600d60248201526c13985b59481c995c5d5a5c9959609a1b6044820152606490fd5b60405162461bcd60e51b8152602060048201526011602482015270496e76616c6964206167652072616e676560781b6044820152606490fd5b34610186576020366003190112610186575f6101e0604051610e7b8161119f565b6060815260606020820152606060408201526060808201528260808201528260a08201528260c08201528260e08201528261010082015282610120820152826101408201528261016082015282610180820152826101a0820152826101c082015201526004355f525f60205260405f20600560405191610efa8361119f565b610f03816111de565b8352610f11600182016111de565b6020840152610f22600282016111de565b6040840152610f33600382016111de565b6060840152600481015460018060a01b038116608085015260ff8160a01c16151560a085015260ff8160a81c1660c085015260ff8160b01c1660e085015260ff8160b81c16151561010085015261ffff8160c01c1661012085015260ff8160d01c1661014085015260ff8160d81c1661016085015261ffff8160e01c1661018085015260ff8160f01c1615156101a085015260f81c15156101c084015201546101e08201526040518091602082526101e061104761103161101b61100585516102006020890152610220880190611116565b6020860151878203601f19016040890152611116565b6040850151868203601f19016060880152611116565b6060840151858203601f19016080870152611116565b9160018060a01b0360808201511660a085015260a0810151151560c085015260ff60c08201511660e085015260ff60e082015116610100850152610100810151151561012085015261ffff6101208201511661014085015260ff6101408201511661016085015260ff6101608201511661018085015261ffff610180820151166101a08501526101a081015115156101c08501526101c081015115158285015201516102008301520390f35b34610186575f366003190112610186576003546001600160a01b03168152602090f35b805180835260209291819084018484015e5f828201840152601f01601f1916010190565b9181601f84011215610186578235916001600160401b038311610186576020838186019501011161018657565b90600182811c92168015611195575b602083101461118157565b634e487b7160e01b5f52602260045260245ffd5b91607f1691611176565b61020081019081106001600160401b0382111761048157604052565b601f909101601f19168101906001600160401b0382119082101761048157604052565b9060405191825f8254926111f184611167565b808452936001811690811561125c5750600114611218575b50611216925003836111bb565b565b90505f9291925260205f20905f915b818310611240575050906020611216928201015f611209565b6020919350806001915483858901015201910190918492611227565b90506020925061121694915060ff191682840152151560051b8201015f611209565b6001600160401b03811161048157601f01601f191660200190565b9291926112a58261127e565b916112b360405193846111bb565b829481845281830111610186578281602093845f960137010152565b601f82116112dc57505050565b5f5260205f20906020601f840160051c83019310611314575b601f0160051c01905b818110611309575050565b5f81556001016112fe565b90915081906112f5565b8160011b915f199060031b1c19161790565b908060209392818452848401375f828201840152601f01601f1916010190565b1561135757565b60405162461bcd60e51b815260206004820152600a60248201526927b7363c9037bbb732b960b11b6044820152606490fdfe7dc7380605ea4d9ed8aa475df8774c4549fc8a2db87b58580ec96de0e6d2cce9a164736f6c634300081b000a",
  "linkReferences": {},
  "deployedLinkReferences": {}
}