{
  "_format": "hh-sol-artifact-1",
  "contractName": "VaultReclaimLib",
  "sourceName": "contracts/lib/VaultReclaimLib.sol",
  "abi": [
    {
      "inputs": [],
      "name": "AlreadyReclaimed",
      "type": "error"
    },
    {
      "inputs": [],
      "name": "ChallengeStillActive",
      "type": "error"
    },
    {
      "inputs": [],
      "name": "MilestonesNotFullyDistributed",
      "type": "error"
    },
    {
      "inputs": [],
      "name": "NotReclaimRecipient",
      "type": "error"
    },
    {
      "inputs": [],
      "name": "NothingToClaim",
      "type": "error"
    },
    {
      "inputs": [],
      "name": "NothingToReclaim",
      "type": "error"
    },
    {
      "inputs": [],
      "name": "ParticipantClaimWindowOpen",
      "type": "error"
    },
    {
      "inputs": [],
      "name": "SponsorNoLongerVerified",
      "type": "error"
    },
    {
      "inputs": [],
      "name": "SponsorStillVerified",
      "type": "error"
    },
    {
      "inputs": [],
      "name": "TrialNotYetEnded",
      "type": "error"
    },
    {
      "anonymous": false,
      "inputs": [
        {
          "indexed": true,
          "internalType": "uint256",
          "name": "trialId",
          "type": "uint256"
        },
        {
          "indexed": false,
          "internalType": "uint256",
          "name": "openedAt",
          "type": "uint256"
        }
      ],
      "name": "AbandonedReclaimWindowOpened",
      "type": "event"
    },
    {
      "anonymous": false,
      "inputs": [
        {
          "indexed": true,
          "internalType": "uint256",
          "name": "trialId",
          "type": "uint256"
        },
        {
          "indexed": true,
          "internalType": "address",
          "name": "recipient",
          "type": "address"
        },
        {
          "indexed": false,
          "internalType": "uint256",
          "name": "amount",
          "type": "uint256"
        }
      ],
      "name": "ReclaimClaimed",
      "type": "event"
    },
    {
      "anonymous": false,
      "inputs": [
        {
          "indexed": true,
          "internalType": "uint256",
          "name": "trialId",
          "type": "uint256"
        },
        {
          "indexed": true,
          "internalType": "address",
          "name": "owner",
          "type": "address"
        }
      ],
      "name": "ReclaimReroutedToOwner",
      "type": "event"
    },
    {
      "anonymous": false,
      "inputs": [
        {
          "indexed": true,
          "internalType": "uint256",
          "name": "trialId",
          "type": "uint256"
        },
        {
          "indexed": true,
          "internalType": "address",
          "name": "recipient",
          "type": "address"
        },
        {
          "indexed": false,
          "internalType": "uint256",
          "name": "amount",
          "type": "uint256"
        }
      ],
      "name": "ReclaimScheduled",
      "type": "event"
    },
    {
      "inputs": [
        {
          "internalType": "contract IVaultSponsorRegistry",
          "name": "sponsorRegistry",
          "type": "IVaultSponsorRegistry"
        },
        {
          "internalType": "address",
          "name": "sponsor",
          "type": "address"
        }
      ],
      "name": "requireSponsorStillVerified",
      "outputs": [],
      "stateMutability": "view",
      "type": "function"
    }
  ],
  "bytecode": "0x60808060405234601b5761168390816100208239308160070152f35b5f80fdfe6080604052307f0000000000000000000000000000000000000000000000000000000000000000146004361015610034575f80fd5b5f3560e01c806307478302146102f45780630f05639e146103cd5780631ab7532b146103a8578063402948e114610376578063428e81bf1461033757806365fce74d1461030957806390ec3686146102f4578063aba0bf82146102bc578063ac6ede8c14610253578063d9d10f3b146102195763dcaaca49146100b5575f80fd5b610215576101a0366003190112610215576100ce610723565b6100d66104db565b906100df610739565b906064359160843590602461014435935f6100f8610507565b604051631a7f3c3360e01b81526004810188905293909284919082906001600160a01b03165afa91821561020a575f926101e6575b506001600160a01b0316331480156101d0575b1561019a576101989581610165608061017e94019460018060a01b0386511690610812565b85610184359260e4359060c43590888b60a4359261074f565b516001600160a01b0316926101243591610104359161159a565b005b60405162461bcd60e51b815260206004820152600e60248201526d139bdd08185d5d1a1bdc9a5e995960921b6044820152606490fd5b5060808101516001600160a01b03163314610140565b6102039192503d805f833e6101fb8183610457565b810190610bad565b905f61012d565b6040513d5f823e3d90fd5b5f80fd5b506102155760c036600319011261021557602061024b6102376104f1565b60843560643560443560243560043561159a565b604051908152f35b50610215576101c036600319011261021557610198610270610723565b6102786104db565b610280610739565b90610289610507565b906101a43593610184359361014435926101243592610104359260e4359260c4359260a4359260843592606435926113e3565b60a03660031901126102155760206102ea6102d5610723565b608435906064359060443590602435906112c8565b6040519015158152f35b610198610300366106e5565b939290926111d6565b60a03660031901126102155760206102ea610322610723565b60843590606435906044359060243590610fdb565b506102155760c036600319011261021557610198610353610723565b61035b6104db565b906103646104f1565b91608435916064359160443591610d60565b60c03660031901126102155760206102ea61038f610723565b60a4359060843590606435906044359060243590610a03565b6040366003190112610215576101986103bf610723565b6103c76104db565b90610812565b610120366003190112610215576103e2610723565b60e435906001600160401b03821161021557610405610198923690600401610548565b610104359160c4359060a435906084359060643590604435906024359061074f565b61022081019081106001600160401b0382111761044357604052565b634e487b7160e01b5f52604160045260245ffd5b601f909101601f19168101906001600160401b0382119082101761044357604052565b6001600160401b03811161044357601f01601f191660200190565b81601f82011215610215578035906104ac8261047a565b926104ba6040519485610457565b8284526020838301011161021557815f926020809301838601378301015290565b602435906001600160a01b038216820361021557565b60a435906001600160a01b038216820361021557565b61016435906001600160a01b038216820361021557565b3590811515820361021557565b359060ff8216820361021557565b359061ffff8216820361021557565b91909161022081840312610215576040519061056382610427565b909283919081356001600160401b0381116102155781610584918401610495565b835260208201356001600160401b03811161021557816105a5918401610495565b602084015260408201356001600160401b03811161021557816105c9918401610495565b60408401526060820135906001600160401b038211610215576105ed918301610495565b60608301526080810135906001600160a01b0382168203610215576102006106e0918193608086015261062260a0820161051e565b60a086015261063360c0820161052b565b60c086015261064460e0820161052b565b60e0860152610656610100820161051e565b6101008601526106696101208201610539565b61012086015261067c610140820161052b565b61014086015261068f610160820161052b565b6101608601526106a26101808201610539565b6101808601526106b56101a0820161051e565b6101a08601526106c86101c0820161051e565b6101c08601526101e08101356101e08601520161051e565b910152565b9060a060031983011261021557600435916024359160443591606435906001600160401b0382116102155761071c91600401610548565b9060843590565b600435906001600160a01b038216820361021557565b604435906001600160a01b038216820361021557565b968661075e939992998a6111d6565b5f84815260208790526040902060048101546005909101549015969060ff1680156107fe575b156107b95761079295610a03565b9081156107b1575b50156107a257565b630e4e865d60e01b5f5260045ffd5b90505f61079a565b60405162461bcd60e51b815260206004820152601d60248201527f53637265656e696e67206e6f74207965742064697374726962757465640000006044820152606490fd5b5086610784565b5190811515820361021557565b6001600160a01b03169081610825575050565b60405163353224d760e11b81526001600160a01b03909116600482015290602090829060249082905afa90811561020a575f91610874575b501561086557565b6386736ff560e01b5f5260045ffd5b90506020813d6020116108a6575b8161088f60209383610457565b81010312610215576108a090610805565b5f61085d565b3d9150610882565b81601f82011215610215578051906108c58261047a565b926108d36040519485610457565b8284526020838301011161021557815f9260208093018386015e8301015290565b519061ffff8216820361021557565b602081830312610215578051906001600160401b03821161021557019080601f83011215610215578151916001600160401b038311610443578260051b91604051936109526020850186610457565b8452602080850193830101918183116102155760208101935b83851061097a57505050505090565b84516001600160401b0381116102155782016060818503601f1901126102155760405191606083016001600160401b03811184821017610443576040526020820151926001600160401b038411610215576060836109df8860208098819801016108ae565b83526109ed604082016108f4565b858401520151604082015281520194019361096b565b929390949194825f5260205260405f209360018060a01b038416908115610b8e5760405163010b152760e61b815260048101859052915f83602481845afa92831561020a575f93610b6a575b50825115610b5857919673__$20089efc5df3e31f24c7f58c3630512626$__92905f5b8951811015610b4957865f528160205260405f20815f5260205260ff60405f205416610b41576040516311f189c360e01b815283600482015289602482015284604482015287606482015281608482015260208160a481895af490811561020a575f91610b08575b50610afa57610aec8188888c8c6112c8565b610afa576001905b01610a72565b505050505050505050505f90565b90506020813d8211610b39575b81610b2260209383610457565b8101031261021557610b3390610805565b5f610ada565b3d9150610b15565b600190610af4565b50505050505050505050600190565b50505050505060ff9150600501541690565b610b879193503d805f833e610b7f8183610457565b810190610903565b915f610a4f565b505050505060ff9150600501541690565b519060ff8216820361021557565b602081830312610215578051906001600160401b0382116102155701610220818303126102155760405191610be183610427565b81516001600160401b0381116102155781610bfd9184016108ae565b835260208201516001600160401b0381116102155781610c1e9184016108ae565b602084015260408201516001600160401b0381116102155781610c429184016108ae565b60408401526060820151906001600160401b03821161021557610c669183016108ae565b606083015260808101516001600160a01b038116810361021557610d5791610200916080850152610c9960a08201610805565b60a0850152610caa60c08201610b9f565b60c0850152610cbb60e08201610b9f565b60e0850152610ccd6101008201610805565b610100850152610ce061012082016108f4565b610120850152610cf36101408201610b9f565b610140850152610d066101608201610b9f565b610160850152610d1961018082016108f4565b610180850152610d2c6101a08201610805565b6101a0850152610d3f6101c08201610805565b6101c08501526101e08101516101e085015201610805565b61020082015290565b9491929092845f528060205260405f2054938415610fa3575f86815260208490526040808220549051631a7f3c3360e01b8152600481018990526001600160a01b039182169990929183916024918391165afa90811561020a575f91610f89575b50608001516001600160a01b03168714610ead575b50853303610e9e57845f52806020525f60408120555f808080878a5af13d15610e99573d610e038161047a565b90610e116040519283610457565b81525f60203d92013e5b15610e505750505060207fc75da738a6dee5de16ae633215cf36deea00ed479f7d23896273d30c76e929ec91604051908152a3565b5f858152602091825260408082209590955591905291822080546001600160a01b0319166001600160a01b03909216918217905592505f5160206116575f395f51905f529080a3565b610e1b565b6329e2cf7f60e11b5f5260045ffd5b6001600160a01b0381168015159081610f19575b50610ed65786610ed091610812565b5f610dd6565b50505f8481526020919091526040812080546001600160a01b0319166001600160a01b0390931692831790559093505f5160206116575f395f51905f52915080a3565b602491506020906040519283809263353224d760e11b82528c60048301525afa90811561020a575f91610f4f575b50155f610ec1565b90506020813d602011610f81575b81610f6a60209383610457565b8101031261021557610f7b90610805565b5f610f47565b3d9150610f5d565b610f9d91503d805f833e6101fb8183610457565b5f610dc1565b6312d37ee560e31b5f5260045ffd5b8054821015610fc7575f5260205f2001905f90565b634e487b7160e01b5f52603260045260245ffd5b60049091018054909490939092916001600160a01b0316801561110a575f6024916040519283809263010b152760e61b82528860048301525afa90811561020a575f916110f0575b5051806110ea57506001945b5f5b86811061104357505050505050505f90565b5f5b8681106110555750600101611031565b61105f8184610fb2565b90545f8881526020888152604080832060039590951b9390931c6001600160a01b03168083529381528282208683529052205460ff1690816110b6575b506110a957600101611045565b5050505050505050600190565b9050865f528460205260405f209060018060a01b03165f5260205260405f20825f5260205260ff60405f205416155f61109c565b9461102f565b61110491503d805f833e610b7f8183610457565b5f611023565b50909192935f5b858110611122575050505050505f90565b61112c8183610fb2565b90545f8781526020878152604080832060039590951b9390931c6001600160a01b03168083529381528282208280529052205460ff169081611181575b5061117657600101611111565b505050505050600190565b9050855f528360205260405f209060018060a01b03165f5260205260405f205f805260205260ff60405f205416155f611169565b919082018092116111c257565b634e487b7160e01b5f52601160045260245ffd5b939091926101e00190815142106112b957835f5284602052600460405f200154159182156112a4575b50501561126457815f5260205260ff60405f205416611255575f5260205260405f2060ff6007820154169081611246575b5061123757565b63c024250560e01b5f5260045ffd5b6006915001544211155f611230565b6357ef322b60e01b5f5260045ffd5b60405162461bcd60e51b815260206004820152601860248201527711dc9858d9481c195c9a5bd9081b9bdd08195b185c1cd95960421b6044820152606490fd5b6112af9250516111b5565b4210155f806111ff565b634aeab5cb60e01b5f5260045ffd5b600490910180549473__$20089efc5df3e31f24c7f58c3630512626$__949093915f5b8781106112fe5750505050505050505f90565b6113088183610fb2565b905460405163fb6e1b7d60e01b81526001600160a01b0388811660048301526024820187905260039390931b9190911c90911660448201819052606482018890526020826084818c5af491821561020a575f926113a8575b5081611374575b506110a9576001016112eb565b9050835f528460205260405f209060018060a01b03165f5260205260405f20865f5260205260ff60405f205416155f611367565b9091506020813d82116113db575b816113c360209383610457565b81010312610215576113d490610805565b905f611360565b3d91506113b6565b9195909296939798999a9b9c945f8c602460405180968193631a7f3c3360e01b8352600483015260018060a01b03165afa96871561020a578c935f9861157e575b506001600160a01b031693846114ee575b61144b9450835f528860205260405f2090610fdb565b61146a575b505061146797611462918785856111d6565b61159a565b50565b875f528060205260405f2054156114ac579061149091885f5260205260405f20546111b5565b421061149d575f80611450565b63104e728f60e21b5f5260045ffd5b97505050505050508092505f526020524260405f20557f2da66c0e99f5da70ffbabb54f6ce2e0b650ecf180d45a7261ebb11cf610915f46020604051428152a2565b925092602060018060a01b0360808901511660246040518094819363353224d760e11b835260048301525afa90811561020a575f91611544575b5061153557828b92611435565b634c12289560e11b5f5260045ffd5b90506020813d602011611576575b8161155f60209383610457565b810103126102155761157090610805565b5f611528565b3d9150611552565b6115939198503d805f833e6101fb8183610457565b965f611424565b5f85815260209190915260409020805460029091015481039695949392919087116111c2574780881161164e575b50861561163f575f84815260209182526040808220805460ff191660011790559282528281208890559281529181902080546001600160a01b0319166001600160a01b03959095169485179055518581527fd4104224858c5717c00ad4575d8eaac64ffbb97ffeeb09cdd3b2388c7d1fa54c9190a3565b63fddb35b360e01b5f5260045ffd5b96505f6115c856fe88e99c6ab1414f1244a37ab1828ce65a275ac8d886ea154b39f0fc77d1a23a64a164736f6c634300081b000a",
  "linkReferences": {
    "contracts/lib/VaultDistributionLib.sol": {
      "VaultDistributionLib": [
        {
          "length": 20,
          "start": 2683
        },
        {
          "length": 20,
          "start": 4850
        }
      ]
    }
  },
  "deployedLinkReferences": {
    "contracts/lib/VaultDistributionLib.sol": {
      "VaultDistributionLib": [
        {
          "length": 20,
          "start": 2651
        },
        {
          "length": 20,
          "start": 4818
        }
      ]
    }
  }
}