{
  "_format": "hh-sol-artifact-1",
  "contractName": "VaultDistributionLib",
  "sourceName": "contracts/lib/VaultDistributionLib.sol",
  "abi": [
    {
      "inputs": [
        {
          "internalType": "contract IVaultMilestoneManager",
          "name": "milestoneManager",
          "type": "IVaultMilestoneManager"
        },
        {
          "internalType": "uint256",
          "name": "_trialId",
          "type": "uint256"
        },
        {
          "internalType": "address",
          "name": "_participant",
          "type": "address"
        },
        {
          "internalType": "uint256",
          "name": "_milestoneIndex",
          "type": "uint256"
        }
      ],
      "name": "isParticipantEligible",
      "outputs": [
        {
          "internalType": "bool",
          "name": "",
          "type": "bool"
        }
      ],
      "stateMutability": "view",
      "type": "function"
    }
  ],
  "bytecode": "0x60808060405234601b57611f3890816100208239308160070152f35b5f80fdfe6080604052307f0000000000000000000000000000000000000000000000000000000000000000146004361015610034575f80fd5b5f3560e01c8063070270e314610d965780630efcfeb014610cc757806311f189c314610c995780631283a99214610c4b57806319913e5014610bfc5780632b52b20614610a4857806334a8967314610a1057806347201287146109bb5780637e3edb1d146107765780639fc33ff01461033f578063e76c64d114610318578063f070a4d6146101a0578063fb5d569614610151578063fb6e1b7d146101195763fd520c7b146100e1575f80fd5b61011557608036600319011261011557602061010d6100fe610f2d565b60643590602435600435611c73565b604051908152f35b5f80fd5b6080366003190112610115576020610147610132610e91565b61013a610f2d565b6064359160243590611bd3565b6040519015158152f35b506101155761012036600319011261011557602061010d610170610ea7565b610178610eea565b90610181610f00565b9061018a610f43565b9260c435916064356044356024356004356118db565b6080366003190112610115576101b4610e91565b602435906064356004830154916101cc8315156116ff565b6001600160a01b03169283156102d7575f6024946040519586809263010b152760e61b825260443560048301525afa9384156102cc575f946102a8575b5083518210156102695754908351811015610255576102416102499261ffff6020806040986127109660051b01015101511690611103565b0491826110e5565b82519182526020820152f35b634e487b7160e01b5f52603260045260245ffd5b60405162461bcd60e51b8152602060048201526017602482015276092dcecc2d8d2c840dad2d8cae6e8dedcca40d2dcc8caf604b1b6044820152606490fd5b6102c59194503d805f833e6102bd81836110ae565b81019061173d565b9284610209565b6040513d5f823e3d90fd5b60405162461bcd60e51b8152602060048201526019602482015278135a5b195cdd1bdb99481b585b9859d95c881b9bdd081cd95d603a1b6044820152606490fd5b506101155760803660031901126101155761033d60643560443560243560043561187d565b005b506101155761018036600319011261011557610359610e91565b60643590610365610ed3565b5061036e610f16565b5061014435805f5260243560205260405f20916004830180546103928115156116ff565b61016435811161071a5784549160018060a01b03841691821592831594856106cb575b85156106b957508254936103ca8515156116ff565b6102d7575f6024916040519283809263010b152760e61b82528b60048301525afa9081156102cc575f9161069f575b50805115610269578754815115610255576104266127109161ffff60208061042e96015101511690611103565b0493846110e5565b6104388282611103565b840393841161065d575f905f19935f5b8481106104c0575060058a8a818b8f8c61046a8d8d8760e43560a43589611503565b50610480575b828601805460ff19166001179055005b61048b928492610f7c565b15610499575b818180610470565b5f5260443560205260405f205f805260205260405f20600160ff1982541617905582610491565b6104ca8183610f67565b60018060a01b0391549060031b1c169060018b5f528d60205260405f2060018060a01b0384165f5260205260405f205f805260205260ff60405f20541615610518575b506001915001610448565b604051632753663d60e01b81528c60048201525f60248201528360448201528560648201526020816084815f305af19081610671575b5061060b57503d15610603573d91610565836116e4565b9261057360405194856110ae565b83523d5f602085013e5b303b15610115575f9060a48d6020604051968794859363116edbe360e11b855260048501528660248501526044840152608060648401528051918291826084860152018484015e8181018301859052601f01601f1916810103018183305af19182156102cc576001926105f3575b505b5f61050d565b5f6105fd916110ae565b5f6105eb565b60609161057d565b90918b5f528d60205260405f209060018060a01b03165f5260205260405f205f805260205260ff60405f205416610646575b506001906105ed565b90955090925f19811461065d57019184600161063d565b634e487b7160e01b5f52601160045260245ffd5b6020813d8211610697575b81610689602093836110ae565b81010312610115575161054e565b3d915061067c565b6106b391503d805f833e6102bd81836110ae565b5f6103f9565b9350506106c681846110e5565b61042e565b945060405163010b152760e61b81528760048201525f81602481855afa9081156102cc575f91610700575b50511515946103b5565b61071491503d805f833e6102bd81836110ae565b5f6106f6565b60405162461bcd60e51b815260206004820152602e60248201527f55736520646973747269627574655061727469616c506167696e61746564206660448201526d6f72206c6172676520706f6f6c7360901b6064820152608490fd5b50610115576101a036600319011261011557610790610e91565b60443561079b610ebd565b506107a4610f00565b506101043561012435610164359061018435935f945f199661014435600460243501905b8681106107df576040898b82519182526020820152f35b6107e98183610f67565b905460039190911b1c6001600160a01b03169061080887838b87611bd3565b80610989575b61081d575b60019150016107c8565b604051632753663d60e01b81528960048201528760248201528260448201528560648201526020816084815f305af1908161095b575b5061090d573d15610905573d91610869836116e4565b9261087760405194856110ae565b83523d5f602085013e5b303b15610115575f9060a48b6020604051968794859363116edbe360e11b855260048501528d60248501526044840152608060648401528051918291826084860152018484015e8181018301859052601f01601f1916810103018183305af19182156102cc576001926108f5575b50610813565b5f6108ff916110ae565b5f6108ef565b606091610881565b90885f528560205260405f209060018060a01b03165f5260205260405f20865f5260205260ff60405f205416610946575b600190610813565b9850965f19811461065d57600101968861093e565b6020813d8211610981575b81610973602093836110ae565b810103126101155751610853565b3d9150610966565b505f898152602087815260408083206001600160a01b038616845282528083208a845290915290205460ff161561080e565b50610115576101a0366003190112610115576109d5610ebd565b506109de610f00565b506101843580151581036101155761010d6020916101643561014435610124356101043560a4356064356004356115b9565b50610115576080366003190112610115576024356001600160a01b03811681036101155761033d9060643590604435906004356113ce565b50610115576040366003190112610115576004356024356001600160401b03811690819003610115575f516020611f0c5f395f51905f5254604051639cd07acb60e01b8152600481019290925260056024830152602090829060449082905f906001600160a01b03165af19081156102cc575f91610bca575b50610acb82611da0565b50610ad4611e65565b90808315610bb9575b15610bab575b8115610b95575b6064602092935f60018060a01b035f516020611f0c5f395f51905f5254166040519687958694637702dcff60e01b86526004860152602485015260448401525af180156102cc575f90610b62575b60209150808115610b4f575b61010d903090611de8565b5061010d610b5b611e65565b9050610b44565b506020813d602011610b8d575b81610b7c602093836110ae565b810103126101155760209051610b38565b3d9150610b6f565b602091506064610ba3611e65565b925050610aea565b50610bb4611e65565b610ae3565b9250610bc45f611eb8565b92610add565b90506020813d602011610bf4575b81610be5602093836110ae565b8101031261011557515f610ac1565b3d9150610bd8565b506101155761014036600319011261011557602061010d610c1b610ea7565b610c23610ebd565b90610c2c610f43565b50610124359160e4359160a43590606435604435602435600435611239565b506101155761014036600319011261011557602061010d610c6a610ea7565b610c72610eea565b610c7a610ed3565b90610124359260e4359160c43591606435604435602435600435611116565b60a0366003190112610115576020610147610cb2610e91565b60843590606435906044359060243590611014565b506101155761014036600319011261011557610ce1610e91565b6024359060a43560c43560e4356101243593841515850361011557828492835f5260443560205260405f20825f526020528060405f205561010435149485928396610d7e575b505050610d56575b505081610d4e575b50610d3e57005b600501805460ff19166001179055005b90505f610d37565b5f5260643560205260405f20905f5260205260405f20600160ff198254161790555f80610d2f565b610d8d93508860843591611014565b1582825f610d27565b506101155760c036600319011261011557600435602435604435606435926084356001820190610dc7818354610f5a565b8255835f528460205260405f20865f52602052610de960405f20918254610f5a565b905554905410610e50575f5260205260405f20905f5260205260a43560405f205411610e1157005b60405162461bcd60e51b815260206004820152601760248201527645786365656473206d696c6573746f6e6520736861726560481b6044820152606490fd5b60405162461bcd60e51b8152602060048201526019602482015278576f756c642065786365656420706f6f6c2062616c616e636560381b6044820152606490fd5b600435906001600160a01b038216820361011557565b608435906001600160a01b038216820361011557565b60c435906001600160a01b038216820361011557565b61010435906001600160a01b038216820361011557565b60a435906001600160a01b038216820361011557565b60e435906001600160a01b038216820361011557565b61012435906001600160a01b038216820361011557565b604435906001600160a01b038216820361011557565b61010435906001600160401b038216820361011557565b9190820180921161065d57565b8054821015610255575f5260205f2001905f90565b929190600401908154935f5b858110610f99575050505050505f90565b610fa38185610f67565b905460039190911b1c6001600160a01b0316610fc15f828886611bd3565b9081610fe0575b50610fd557600101610f88565b505050505050600190565b9050855f528360205260405f209060018060a01b03165f5260205260405f205f805260205260ff60405f205416155f610fc8565b939190600401908154945f5b86811061103257505050505050505f90565b61103c8185610f67565b905460039190911b1c6001600160a01b031661105a86828986611bd3565b908161107a575b5061106e57600101611020565b50505050505050600190565b9050865f528360205260405f209060018060a01b03165f5260205260405f20855f5260205260ff60405f205416155f611061565b601f909101601f19168101906001600160401b038211908210176110d157604052565b634e487b7160e01b5f52604160045260245ffd5b81156110ef570490565b634e487b7160e01b5f52601260045260245ffd5b8181029291811591840414171561065d57565b979594939789156111df576040516358ac71cd60e11b81529960208b6004816001600160a01b038e165afa9a8b156102cc575f9b6111a9575b508a61115a916110e5565b998a1561119a5761116b908b611103565b988815611180575061117d9950611239565b90565b61117d9a6001600160401b031699509697509495946118db565b50505050505050505050505f90565b909a506020813d6020116111d7575b816111c5602093836110ae565b8101031261011557519961115a61114f565b3d91506111b8565b505050505050505050505f90565b156111f457565b60405162461bcd60e51b815260206004820152601d60248201527f4d697373696e67207061727469636970616e74206e756c6c69666965720000006044820152606490fd5b979390959697929192855f5260205260405f2060018060a01b0388165f5260205260405f205461126a8115156111ed565b5f868152602088815260408083206001600160a01b038c16845282528083208c845290915290205460ff166113c1576040516327e6d22f60e21b815260048101919091526024810186905290602090829060449082905f906001600160a01b03165af180156102cc575f9061138d575b6112f091506112eb89898886611c73565b611ceb565b5f858152602092835260408082206001600160a01b038a16835284528082208a83529093529190912081905561133190869061132b81611da0565b50611dc0565b50825f5260205260405f2060018060a01b0385165f5260205260405f20855f5260205260405f20555f5260205260405f209060018060a01b03165f5260205260405f20905f5260205260405f20600160ff198254161790555f90565b506020813d6020116113b9575b816113a7602093836110ae565b81010312610115576112f090516112da565b3d915061139a565b5050505050505050505f90565b90915f92815f528260205260ff60405f20541680156114fb575b6114c2576040516358ac71cd60e11b81526001600160a01b039190911690602081600481855afa9081156102cc575f916114c9575b5085106114c25784471061148157803b15610115575f90600460405180978193630d0e30db60e41b83525af19384156102cc5760409461146c575b50825260205220805460ff19166001179055565b6114799193505f906110ae565b5f915f611458565b60405162461bcd60e51b8152602060048201526019602482015278125b9cdd59999a58da595b9d08115512081a5b881d985d5b1d603a1b6044820152606490fd5b5050505050565b90506020813d6020116114f3575b816114e4602093836110ae565b8101031261011557515f61141d565b3d91506114d7565b5084156113e8565b92939092915f19821480156115b1575b6115a757845f528060205260405f205f805260205260ff60405f2054166115a75761156092600491865f5260205260405f205f805260205260405f20600160ff1982541617905501610f67565b60018060a01b0391549060031b1c16915f5260205260405f209060018060a01b03165f5260205260405f205f80526020526115a060405f20918254610f5a565b9055600190565b5050505050505f90565b508515611513565b929491909395965f19831480156116dc575b6116d0571561169c57845f528060205260405f20865f5260205260ff60405f20541661165e5761161e926004915b865f5260205260405f20875f5260205260405f20600160ff1982541617905501610f67565b60018060a01b0391549060031b1c16915f5260205260405f209060018060a01b03165f5260205260405f20905f526020526115a060405f20918254610f5a565b60405162461bcd60e51b815260206004820152601660248201527514995b585a5b99195c88185b1c9958591e481c185a5960521b6044820152606490fd5b845f528060205260405f20865f5260205260ff60405f2054166116c55761161e926004916115f9565b505050505050505f90565b50505050505050505f90565b5087156115cb565b6001600160401b0381116110d157601f01601f191660200190565b1561170657565b60405162461bcd60e51b815260206004820152600f60248201526e4e6f207061727469636970616e747360881b6044820152606490fd5b602081830312610115578051906001600160401b03821161011557019080601f83011215610115578151916001600160401b0383116110d1578260051b6040519361178b60208301866110ae565b8452602080850191830101918383116101155760208101915b8383106117b357505050505090565b82516001600160401b0381116101155782016060818703601f1901126101155760405191606083016001600160401b038111848210176110d15760405260208201516001600160401b0381116101155760209083010187601f8201121561011557805161181f816116e4565b9161182d60405193846110ae565b818352896020838301011161011557815f9260208093018386015e83010152835260408201519261ffff8416840361011557606060209493859485840152015160408201528152019201916117a4565b905f1984146118ae57805f528160205260405f20835f5260205260405f20545f1981149081156118d1575b506118b4575b50505050565b5f5260205260405f20905f5260205260405f20555f8080806118ae565b905084115f6118a8565b979293909697949194865f5260205260405f2060018060a01b0389165f5260205260405f20549061190d8215156111ed565b5f878152602089815260408083206001600160a01b038d168452825280832083805290915290205460ff166113c15760018060a01b03169060405163b6e4033f60e01b8152816004820152876024820152602081604481865afa9081156102cc575f91611b98575b506004811015611b84576002036113c1575f91604460209260405194859384926327e6d22f60e21b845260048401528b60248401525af19081156102cc575f91611b4f575b50906004936119f5602093885f5282855260405f2060018060a01b038c165f52855260405f205f8052855260405f20548015611b1957611ceb565b5f88815282855260408082206001600160a01b038d1680845290875281832083805287528183209390935589825292855282812091815290845281812081805284522054611a4890899061132b81611da0565b506040516358ac71cd60e11b815293849182906001600160a01b03165afa9081156102cc575f91611ae3575b611a8792506001600160401b0316611103565b90825f5260205260405f2060018060a01b0385165f5260205260405f205f805260205260405f20555f5260205260405f209060018060a01b03165f5260205260405f205f805260205260405f20600160ff198254161790555f90565b90506020823d602011611b11575b81611afe602093836110ae565b8101031261011557611a87915190611a74565b3d9150611af1565b50611b235f611eb8565b5f8a815284875260408082206001600160a01b038f168352885280822082805288529020819055611ceb565b9190506020823d602011611b7c575b81611b6b602093836110ae565b8101031261011557905160046119ba565b3d9150611b5e565b634e487b7160e01b5f52602160045260245ffd5b90506020813d602011611bcb575b81611bb3602093836110ae565b8101031261011557516004811015610115575f611975565b3d9150611ba6565b9092918215938415611be7575b5050505090565b6040516313981ba960e31b815260048101919091526001600160a01b03918216602482015292935060209183916044918391165afa9081156102cc575f91611c41575b506001820180921161065d5710155f808080611be0565b90506020813d602011611c6b575b81611c5c602093836110ae565b8101031261011557515f611c2a565b3d9150611c4f565b5f828152602082815260408083206001600160a01b03871684528252808320878452909152902054939192908415611cac575050505090565b9091929350611cba5f611eb8565b935f5260205260405f209060018060a01b03165f5260205260405f20905f526020528060405f20555f808080611be0565b908115611d8f575b8015611d7c575b602090606460018060a01b035f516020611f0c5f395f51905f525416935f60405195869485936363a2db2960e01b8552600485015260248401528160448401525af19081156102cc575f91611d4d575090565b90506020813d602011611d74575b81611d68602093836110ae565b81010312610115575190565b3d9150611d5b565b506020611d885f611eb8565b9050611cfa565b9050611d9a5f611eb8565b90611cf3565b8015611db1575b61117d3082611de8565b50611dbb5f611eb8565b611da7565b908115611dd2575b61117d9082611de8565b905061117d611de05f611eb8565b919050611dc8565b7f9e7b61f58c47dc699ac88507c4f5bb9f121c03808c5676a8078fe583e4649700546001600160a01b031691823b1561011557604051635ca4b5b160e11b815260048101929092526001600160a01b03166024820152905f908290604490829084905af180156102cc57611e595750565b5f611e63916110ae565b565b5f516020611f0c5f395f51905f5254604051639cd07acb60e01b81525f60048201819052600560248301529091602091839160449183916001600160a01b03165af19081156102cc575f91611d4d575090565b5f516020611f0c5f395f51905f5254604051639cd07acb60e01b815260048101929092525f6024830181905260209183916044918391906001600160a01b03165af19081156102cc575f91611d4d57509056fe9e7b61f58c47dc699ac88507c4f5bb9f121c03808c5676a8078fe583e4649701a164736f6c634300081b000a",
  "linkReferences": {},
  "deployedLinkReferences": {}
}