{
  "_format": "hh-sol-artifact-1",
  "contractName": "VaultClaimLib",
  "sourceName": "contracts/lib/VaultClaimLib.sol",
  "abi": [
    {
      "inputs": [],
      "name": "AuthAlreadyUsed",
      "type": "error"
    },
    {
      "inputs": [],
      "name": "ECDSAInvalidSignature",
      "type": "error"
    },
    {
      "inputs": [
        {
          "internalType": "uint256",
          "name": "length",
          "type": "uint256"
        }
      ],
      "name": "ECDSAInvalidSignatureLength",
      "type": "error"
    },
    {
      "inputs": [
        {
          "internalType": "bytes32",
          "name": "s",
          "type": "bytes32"
        }
      ],
      "name": "ECDSAInvalidSignatureS",
      "type": "error"
    },
    {
      "inputs": [],
      "name": "InvalidClaimSignature",
      "type": "error"
    },
    {
      "inputs": [],
      "name": "NoPermitHolderFound",
      "type": "error"
    },
    {
      "inputs": [],
      "name": "OnlyPermitHolder",
      "type": "error"
    },
    {
      "inputs": [],
      "name": "PatientNotRegistered",
      "type": "error"
    },
    {
      "inputs": [],
      "name": "PermitHolderMismatch",
      "type": "error"
    },
    {
      "inputs": [],
      "name": "SignatureExpired",
      "type": "error"
    },
    {
      "inputs": [],
      "name": "ZeroDestinationAddress",
      "type": "error"
    },
    {
      "anonymous": false,
      "inputs": [
        {
          "indexed": true,
          "internalType": "uint256",
          "name": "trialId",
          "type": "uint256"
        },
        {
          "indexed": true,
          "internalType": "address",
          "name": "permitHolder",
          "type": "address"
        },
        {
          "indexed": false,
          "internalType": "bytes32",
          "name": "sufficientHandle",
          "type": "bytes32"
        }
      ],
      "name": "ClaimInitiated",
      "type": "event"
    },
    {
      "inputs": [
        {
          "internalType": "externalEuint64",
          "name": "encryptedUnits",
          "type": "bytes32"
        },
        {
          "internalType": "bytes",
          "name": "inputProof",
          "type": "bytes"
        }
      ],
      "name": "computeEncryptedAmountCommitment",
      "outputs": [
        {
          "internalType": "bytes32",
          "name": "",
          "type": "bytes32"
        }
      ],
      "stateMutability": "pure",
      "type": "function"
    }
  ],
  "bytecode": "0x60808060405234601b57610a3690816100208239308160070152f35b5f80fdfe6080604052307f0000000000000000000000000000000000000000000000000000000000000000146004361015610034575f80fd5b5f3560e01c806310d0af5f146102e057806352d1686c1461029f5780637dcf44fe1461010c5763e9acd75214610068575f80fd5b61010857610120366003190112610108576100816106a1565b6044356001600160a01b038116810361010857606435916001600160a01b03831683036101085760a4356001600160401b038111610108576100c79036906004016106cd565b61010435949193906001600160401b038611610108576100ee6101069636906004016106cd565b95909460e4359460c435946084359260243590610795565b005b5f80fd5b5061010857610160366003190112610108576101266106a1565b61012e6106b7565b60a435916001600160a01b03831691906064358385036101085760e4356001600160401b038111610108576101679036906004016106cd565b61014435939091906001600160401b0385116101085760209661019060449636906004016106cd565b60405163cd5d36dd60e01b8152608435600482015260248101889052909991989097889182906001600160a01b03165afa958615610294575f96610263575b506001600160a01b03861690811561025457156102455780330361023657845f52604435602052600860405f2001905f5260205260ff60405f2054161561022757610106976101243595610104359560c43593610795565b637d9ee48b60e11b5f5260045ffd5b63c51f70ef60e01b5f5260045ffd5b63b6cf0c2560e01b5f5260045ffd5b631303e3f760e01b5f5260045ffd5b61028691965060203d60201161028d575b61027e81836106fa565b81019061071d565b945f6101cf565b503d610274565b6040513d5f823e3d90fd5b6040366003190112610108576024356001600160401b038111610108576102d86102cf60209236906004016106cd565b9060043561075c565b604051908152f35b5061010857610280366003190112610108576102fa6106a1565b6103026106b7565b61010435906001600160a01b038216820361010857610124356001600160a01b0381168103610108576101a4356001600160401b0381116101085761034b9036906004016106cd565b909390610204356001600160401b0381116101085761036e9036906004016106cd565b90966102643596916001600160401b0388116101085761039460209836906004016106cd565b63cd5d36dd60e01b608090815260e43560845260c43560a4529099919860449082906001600160a01b03165afa948515610294575f9561066e575b6001600160a01b03861615610254576001600160a01b038681169082160361065f576001600160a01b03871615610245576101e43542116106505760c4355f52604435602052600860405f200160018060a01b0387165f5260205260ff60405f205416156102275761044585856101843561075c565b610164350361060e57604051602081019060018060a01b038316825260c435604082015260e43560608201526101c43560808201526080815261048960a0826106fa565b519020998a5f5260643560205260ff60405f2054166105ff57604080516084356020820190815260c4359282019290925260e43560608201526001600160a01b0384811660808301528a1660a08201526101443560c08201526101643560e08201526101c4356101008201526101e435610120808301919091528152610511610140826106fa565b519020604051602081019161190160f01b835260a43560228301526042820152604281526105406062826106fa565b5190206001600160401b0384116105eb5760405190610569601f8601601f1916602001836106fa565b8482523685840111610108575f6020866105979761058e9683870137840101526108e3565b9093919361091d565b6001600160a01b039081169116036105dc57610106975f5260643560205260405f20600160ff1982541617905561024435946102243594610184359260c43590610795565b638964e19b60e01b5f5260045ffd5b634e487b7160e01b5f52604160045260245ffd5b63ae6a662560e01b5f5260045ffd5b60405162461bcd60e51b815260206004820152601a602482015279082dadeeadce840c6dedadad2e8dacadce840dad2e6dac2e8c6d60331b6044820152606490fd5b630819bdcd60e01b5f5260045ffd5b633e6b52d160e01b5f5260045ffd5b945060203d60201161069a575b8061068a6106949260806106fa565b608001608061071d565b946103cf565b503d61067b565b600435906001600160a01b038216820361010857565b602435906001600160a01b038216820361010857565b9181601f84011215610108578235916001600160401b038311610108576020838186019501011161010857565b601f909101601f19168101906001600160401b038211908210176105eb57604052565b9081602091031261010857516001600160a01b03811681036101085790565b908060209392818452848401375f828201840152601f01601f1916010190565b9161078f9061078160405193849260208401968752604080850152606084019161073c565b03601f1981018352826106fa565b51902090565b999690989197949593929960018060a01b031696873b15610108576040516354ed2a4b60e11b81526001600160a01b03998a16600482018190529b90991660248a0152604489019390935260e060648901525f9795879587958695926107ff9160e488019161073c565b92608486015260a48501526003198483030160c485015261081f9261073c565b03815a5f948591f18015610294576108cd575b5060206024916040519283809263455a25e560e11b82528860048301525afa9182156108c157809261087b575b505060205f516020610a0a5f395f51905f5291604051908152a3565b9091506020823d6020116108b9575b81610897602093836106fa565b810103126108b657505160205f516020610a0a5f395f51905f5261085f565b80fd5b3d915061088a565b604051903d90823e3d90fd5b6108da9192505f906106fa565b5f906020610832565b81519190604183036109135761090c9250602082015190606060408401519301515f1a90610991565b9192909190565b50505f9160029190565b600481101561097d578061092f575050565b600181036109465763f645eedf60e01b5f5260045ffd5b60028103610961575063fce698f760e01b5f5260045260245ffd5b60031461096b5750565b6335e2f38360e21b5f5260045260245ffd5b634e487b7160e01b5f52602160045260245ffd5b91906fa2a8918ca85bafe22016d0b997e4df60600160ff1b0384116109fe579160209360809260ff5f9560405194855216868401526040830152606082015282805260015afa15610294575f516001600160a01b038116156109f457905f905f90565b505f906001905f90565b5050505f916003919056fe4f72d13e1ace7a401481df4f2e8ad54560a47647e19ac2b6ea2423cb99cbe777a164736f6c634300081b000a",
  "linkReferences": {},
  "deployedLinkReferences": {}
}