{
  "_format": "hh-sol-artifact-1",
  "contractName": "AnonymousPatientRegistry",
  "sourceName": "contracts/AnonymousPatientRegistry.sol",
  "abi": [
    {
      "inputs": [],
      "stateMutability": "nonpayable",
      "type": "constructor"
    },
    {
      "inputs": [
        {
          "internalType": "bytes32",
          "name": "handle",
          "type": "bytes32"
        },
        {
          "internalType": "address",
          "name": "sender",
          "type": "address"
        }
      ],
      "name": "SenderNotAllowedToUseHandle",
      "type": "error"
    },
    {
      "inputs": [],
      "name": "ZamaProtocolUnsupported",
      "type": "error"
    },
    {
      "anonymous": false,
      "inputs": [
        {
          "indexed": true,
          "internalType": "uint8",
          "name": "kind",
          "type": "uint8"
        },
        {
          "indexed": false,
          "internalType": "uint40",
          "name": "newEpoch",
          "type": "uint40"
        },
        {
          "indexed": true,
          "internalType": "address",
          "name": "newConsumer",
          "type": "address"
        }
      ],
      "name": "AclEpochRotated",
      "type": "event"
    },
    {
      "anonymous": false,
      "inputs": [
        {
          "indexed": true,
          "internalType": "bytes32",
          "name": "handle",
          "type": "bytes32"
        },
        {
          "indexed": true,
          "internalType": "address",
          "name": "consumer",
          "type": "address"
        },
        {
          "indexed": false,
          "internalType": "uint40",
          "name": "epoch",
          "type": "uint40"
        },
        {
          "indexed": false,
          "internalType": "uint8",
          "name": "kind",
          "type": "uint8"
        }
      ],
      "name": "AclGranted",
      "type": "event"
    },
    {
      "anonymous": false,
      "inputs": [
        {
          "indexed": true,
          "internalType": "address",
          "name": "newOwner",
          "type": "address"
        }
      ],
      "name": "OwnershipAccepted",
      "type": "event"
    },
    {
      "anonymous": false,
      "inputs": [
        {
          "indexed": true,
          "internalType": "address",
          "name": "proposedOwner",
          "type": "address"
        }
      ],
      "name": "OwnershipProposed",
      "type": "event"
    },
    {
      "anonymous": false,
      "inputs": [
        {
          "indexed": false,
          "internalType": "bytes32",
          "name": "blindedCommitment",
          "type": "bytes32"
        },
        {
          "indexed": false,
          "internalType": "uint256",
          "name": "timestamp",
          "type": "uint256"
        }
      ],
      "name": "PatientRegistered",
      "type": "event"
    },
    {
      "anonymous": false,
      "inputs": [
        {
          "indexed": true,
          "internalType": "address",
          "name": "accessor",
          "type": "address"
        },
        {
          "indexed": false,
          "internalType": "uint256",
          "name": "timestamp",
          "type": "uint256"
        }
      ],
      "name": "ProfileAccessed",
      "type": "event"
    },
    {
      "inputs": [],
      "name": "TEST_HELPERS_CHANGE_DELAY",
      "outputs": [
        {
          "internalType": "uint256",
          "name": "",
          "type": "uint256"
        }
      ],
      "stateMutability": "view",
      "type": "function"
    },
    {
      "inputs": [],
      "name": "acceptOwnership",
      "outputs": [],
      "stateMutability": "nonpayable",
      "type": "function"
    },
    {
      "inputs": [
        {
          "internalType": "uint8",
          "name": "kind",
          "type": "uint8"
        }
      ],
      "name": "aclEpochForKind",
      "outputs": [
        {
          "internalType": "uint40",
          "name": "",
          "type": "uint40"
        }
      ],
      "stateMutability": "view",
      "type": "function"
    },
    {
      "inputs": [],
      "name": "applyTestHelpersEnabled",
      "outputs": [],
      "stateMutability": "nonpayable",
      "type": "function"
    },
    {
      "inputs": [],
      "name": "authorizedEngine",
      "outputs": [
        {
          "internalType": "address",
          "name": "",
          "type": "address"
        }
      ],
      "stateMutability": "view",
      "type": "function"
    },
    {
      "inputs": [],
      "name": "authorizedRegistry",
      "outputs": [
        {
          "internalType": "address",
          "name": "",
          "type": "address"
        }
      ],
      "stateMutability": "view",
      "type": "function"
    },
    {
      "inputs": [
        {
          "internalType": "uint256",
          "name": "_commitment",
          "type": "uint256"
        }
      ],
      "name": "checkRegistration",
      "outputs": [
        {
          "internalType": "bool",
          "name": "",
          "type": "bool"
        }
      ],
      "stateMutability": "view",
      "type": "function"
    },
    {
      "inputs": [],
      "name": "confidentialProtocolId",
      "outputs": [
        {
          "internalType": "uint256",
          "name": "",
          "type": "uint256"
        }
      ],
      "stateMutability": "view",
      "type": "function"
    },
    {
      "inputs": [],
      "name": "dataAccessLog",
      "outputs": [
        {
          "internalType": "contract DataAccessLog",
          "name": "",
          "type": "address"
        }
      ],
      "stateMutability": "view",
      "type": "function"
    },
    {
      "inputs": [
        {
          "internalType": "uint256",
          "name": "_commitment",
          "type": "uint256"
        }
      ],
      "name": "getCachedPatientFields",
      "outputs": [
        {
          "components": [
            {
              "internalType": "euint8",
              "name": "age",
              "type": "bytes32"
            },
            {
              "internalType": "ebool",
              "name": "gender",
              "type": "bytes32"
            },
            {
              "internalType": "euint16",
              "name": "weight",
              "type": "bytes32"
            },
            {
              "internalType": "euint8",
              "name": "height",
              "type": "bytes32"
            },
            {
              "internalType": "ebool",
              "name": "hasDiabetes",
              "type": "bytes32"
            },
            {
              "internalType": "euint16",
              "name": "hbLevel",
              "type": "bytes32"
            },
            {
              "internalType": "ebool",
              "name": "isSmoker",
              "type": "bytes32"
            },
            {
              "internalType": "ebool",
              "name": "hasHypertension",
              "type": "bytes32"
            },
            {
              "internalType": "bytes32",
              "name": "profileCommitment",
              "type": "bytes32"
            },
            {
              "internalType": "bool",
              "name": "exists",
              "type": "bool"
            }
          ],
          "internalType": "struct AnonymousPatientRegistry.EncryptedPatient",
          "name": "",
          "type": "tuple"
        }
      ],
      "stateMutability": "nonpayable",
      "type": "function"
    },
    {
      "inputs": [
        {
          "internalType": "uint256",
          "name": "_commitment",
          "type": "uint256"
        }
      ],
      "name": "getPatient",
      "outputs": [
        {
          "components": [
            {
              "internalType": "euint8",
              "name": "age",
              "type": "bytes32"
            },
            {
              "internalType": "ebool",
              "name": "gender",
              "type": "bytes32"
            },
            {
              "internalType": "euint16",
              "name": "weight",
              "type": "bytes32"
            },
            {
              "internalType": "euint8",
              "name": "height",
              "type": "bytes32"
            },
            {
              "internalType": "ebool",
              "name": "hasDiabetes",
              "type": "bytes32"
            },
            {
              "internalType": "euint16",
              "name": "hbLevel",
              "type": "bytes32"
            },
            {
              "internalType": "ebool",
              "name": "isSmoker",
              "type": "bytes32"
            },
            {
              "internalType": "ebool",
              "name": "hasHypertension",
              "type": "bytes32"
            },
            {
              "internalType": "bytes32",
              "name": "profileCommitment",
              "type": "bytes32"
            },
            {
              "internalType": "bool",
              "name": "exists",
              "type": "bool"
            }
          ],
          "internalType": "struct AnonymousPatientRegistry.EncryptedPatient",
          "name": "",
          "type": "tuple"
        }
      ],
      "stateMutability": "nonpayable",
      "type": "function"
    },
    {
      "inputs": [],
      "name": "getPatientCount",
      "outputs": [
        {
          "internalType": "uint256",
          "name": "",
          "type": "uint256"
        }
      ],
      "stateMutability": "view",
      "type": "function"
    },
    {
      "inputs": [
        {
          "internalType": "uint256",
          "name": "_commitment",
          "type": "uint256"
        }
      ],
      "name": "getPatientProfile",
      "outputs": [
        {
          "components": [
            {
              "internalType": "euint8",
              "name": "age",
              "type": "bytes32"
            },
            {
              "internalType": "ebool",
              "name": "gender",
              "type": "bytes32"
            },
            {
              "internalType": "euint16",
              "name": "weight",
              "type": "bytes32"
            },
            {
              "internalType": "euint8",
              "name": "height",
              "type": "bytes32"
            },
            {
              "internalType": "ebool",
              "name": "hasDiabetes",
              "type": "bytes32"
            },
            {
              "internalType": "euint16",
              "name": "hbLevel",
              "type": "bytes32"
            },
            {
              "internalType": "ebool",
              "name": "isSmoker",
              "type": "bytes32"
            },
            {
              "internalType": "ebool",
              "name": "hasHypertension",
              "type": "bytes32"
            },
            {
              "internalType": "bytes32",
              "name": "profileCommitment",
              "type": "bytes32"
            },
            {
              "internalType": "bool",
              "name": "exists",
              "type": "bool"
            }
          ],
          "internalType": "struct AnonymousPatientRegistry.EncryptedPatient",
          "name": "",
          "type": "tuple"
        }
      ],
      "stateMutability": "view",
      "type": "function"
    },
    {
      "inputs": [
        {
          "internalType": "uint256",
          "name": "_commitment",
          "type": "uint256"
        }
      ],
      "name": "getProfileCommitment",
      "outputs": [
        {
          "internalType": "bytes32",
          "name": "",
          "type": "bytes32"
        }
      ],
      "stateMutability": "view",
      "type": "function"
    },
    {
      "inputs": [
        {
          "internalType": "uint256",
          "name": "_commitment",
          "type": "uint256"
        }
      ],
      "name": "isPatientHandlesCached",
      "outputs": [
        {
          "internalType": "bool",
          "name": "",
          "type": "bool"
        }
      ],
      "stateMutability": "view",
      "type": "function"
    },
    {
      "inputs": [],
      "name": "owner",
      "outputs": [
        {
          "internalType": "address",
          "name": "",
          "type": "address"
        }
      ],
      "stateMutability": "view",
      "type": "function"
    },
    {
      "inputs": [],
      "name": "pendingOwner",
      "outputs": [
        {
          "internalType": "address",
          "name": "",
          "type": "address"
        }
      ],
      "stateMutability": "view",
      "type": "function"
    },
    {
      "inputs": [],
      "name": "pendingTestHelpersValue",
      "outputs": [
        {
          "internalType": "bool",
          "name": "",
          "type": "bool"
        }
      ],
      "stateMutability": "view",
      "type": "function"
    },
    {
      "inputs": [
        {
          "internalType": "uint256",
          "name": "",
          "type": "uint256"
        }
      ],
      "name": "profileSaltCommitments",
      "outputs": [
        {
          "internalType": "bytes32",
          "name": "",
          "type": "bytes32"
        }
      ],
      "stateMutability": "view",
      "type": "function"
    },
    {
      "inputs": [
        {
          "internalType": "address",
          "name": "_newOwner",
          "type": "address"
        }
      ],
      "name": "proposeOwnership",
      "outputs": [],
      "stateMutability": "nonpayable",
      "type": "function"
    },
    {
      "inputs": [
        {
          "internalType": "uint256",
          "name": "_commitment",
          "type": "uint256"
        },
        {
          "internalType": "address",
          "name": "_permitRecipient",
          "type": "address"
        },
        {
          "internalType": "bytes32",
          "name": "_profileCommitment",
          "type": "bytes32"
        },
        {
          "internalType": "bytes32",
          "name": "_profileSaltCommitment",
          "type": "bytes32"
        },
        {
          "internalType": "externalEuint8",
          "name": "_age",
          "type": "bytes32"
        },
        {
          "internalType": "externalEbool",
          "name": "_gender",
          "type": "bytes32"
        },
        {
          "internalType": "externalEuint16",
          "name": "_weight",
          "type": "bytes32"
        },
        {
          "internalType": "externalEuint8",
          "name": "_height",
          "type": "bytes32"
        },
        {
          "internalType": "externalEbool",
          "name": "_hasDiabetes",
          "type": "bytes32"
        },
        {
          "internalType": "externalEuint16",
          "name": "_hbLevel",
          "type": "bytes32"
        },
        {
          "internalType": "externalEbool",
          "name": "_isSmoker",
          "type": "bytes32"
        },
        {
          "internalType": "externalEbool",
          "name": "_hasHypertension",
          "type": "bytes32"
        },
        {
          "internalType": "bytes",
          "name": "inputProof",
          "type": "bytes"
        }
      ],
      "name": "registerPatient",
      "outputs": [],
      "stateMutability": "nonpayable",
      "type": "function"
    },
    {
      "inputs": [
        {
          "internalType": "uint8",
          "name": "kind",
          "type": "uint8"
        },
        {
          "internalType": "address",
          "name": "newConsumer",
          "type": "address"
        }
      ],
      "name": "rotateTrustedContract",
      "outputs": [],
      "stateMutability": "nonpayable",
      "type": "function"
    },
    {
      "inputs": [
        {
          "internalType": "bool",
          "name": "enabled",
          "type": "bool"
        }
      ],
      "name": "scheduleTestHelpersEnabled",
      "outputs": [],
      "stateMutability": "nonpayable",
      "type": "function"
    },
    {
      "inputs": [
        {
          "internalType": "address",
          "name": "_engine",
          "type": "address"
        }
      ],
      "name": "setAuthorizedEngine",
      "outputs": [],
      "stateMutability": "nonpayable",
      "type": "function"
    },
    {
      "inputs": [
        {
          "internalType": "address",
          "name": "_registry",
          "type": "address"
        }
      ],
      "name": "setAuthorizedRegistry",
      "outputs": [],
      "stateMutability": "nonpayable",
      "type": "function"
    },
    {
      "inputs": [
        {
          "internalType": "address",
          "name": "_log",
          "type": "address"
        }
      ],
      "name": "setDataAccessLog",
      "outputs": [],
      "stateMutability": "nonpayable",
      "type": "function"
    },
    {
      "inputs": [],
      "name": "testHelpersChangeEta",
      "outputs": [
        {
          "internalType": "uint256",
          "name": "",
          "type": "uint256"
        }
      ],
      "stateMutability": "view",
      "type": "function"
    },
    {
      "inputs": [],
      "name": "testHelpersEnabled",
      "outputs": [
        {
          "internalType": "bool",
          "name": "",
          "type": "bool"
        }
      ],
      "stateMutability": "view",
      "type": "function"
    }
  ],
  "bytecode": "0x60806040523461021957610011610250565b504660010361013557610022610250565b5061002b61021d565b73ca2e8f1f656cd25c01f05d0b243ab1ecd4a8ffb6815273d82385dada1ae3e969447f20a3164f6213100e7560208201527377627828a55156b04ac0dc0eb30467f1a552bb0360408201525b80517f9e7b61f58c47dc699ac88507c4f5bb9f121c03808c5676a8078fe583e464970080546001600160a01b03199081166001600160a01b039384161790915560208301517f9e7b61f58c47dc699ac88507c4f5bb9f121c03808c5676a8078fe583e4649701805483169184169190911790556040928301517f9e7b61f58c47dc699ac88507c4f5bb9f121c03808c5676a8078fe583e4649702805483169190931617909155600780549091163317905551611fee908161026b8239f35b4662aa36a7036101a057610147610250565b5061015061021d565b73f0ffdc93b7e186bc2f8cb3daa75d86d1930a433d81527392c920834ec8941d2c77d188936e1f7a6f49c127602082015273be0e383937d564d7ff0bc3b46c51f0bf8d5c311a6040820152610077565b46617a690361020a576101b1610250565b506101ba61021d565b7350157cffd6bbfa2dece204a89ec419c23ef5755d815273e3a9105a3a932253a70f126eb1e3b589c643dd24602082015273901f8942346f7ab3a01f6d7613119bca447bb0306040820152610077565b6373cac13b60e01b5f5260045ffd5b5f80fd5b60405190606082016001600160401b0381118382101761023c57604052565b634e487b7160e01b5f52604160045260245ffd5b61025861021d565b905f82525f60208301525f604083015256fe6080806040526004361015610012575f80fd5b5f905f3560e01c90816307982309146114fd57508063090741a0146114465780631e68fd8e1461135e578063211a6edc146112e25780632d7306e0146112ba5780632ff2b14d146112705780634b5f8736146111bb5780635ad834911461119957806361ae7ec61461116a578063695c98bb14610f8a578063710bf32214610f0e57806379ba509714610e6d5780637d3a679614610c5b57806382dba82914610be65780638927b03014610bc35780638da5cb5b14610b9a57806397a67ed914610b6b578063984498cd14610b45578063bc3a2f5914610b1b578063be82747914610afd578063c190665b14610adf578063c3e0acad14610ac2578063dae14b0914610a29578063e30c397814610a00578063e4e997f01461024a578063ea813beb14610221578063f093e2d8146101ae5763f520f24f14610152575f80fd5b346101ab5760203660031901126101ab5761016b611520565b61018060018060a01b036007541633146115c8565b6001600160a01b0316610194811515611601565b600680546001600160a01b03191691909117905580f35b80fd5b50346101ab5760203660031901126101ab5760043580151580910361021d576101e260018060a01b036007541633146115c8565b61ff00600b549160081b169061ff00191617600b55615460420180421161020957600c5580f35b634e487b7160e01b82526011600452602482fd5b5080fd5b50346101ab57806003193601126101ab576005546040516001600160a01b039091168152602090f35b50346101ab576101a03660031901126101ab57600435610268611536565b60643590604435610184356001600160401b0381116109fc57366023820112156109fc576004810135916001600160401b0383116109f857602482019160248436920101116109f8576004546001600160a01b031633036109b8576005546001600160a01b031615610968576001600160a01b0384161561092b5780156108ec57858752600160205260ff6040882054166108a757841561086b577f30644e72e131a029b85045b68181585d2833e84879b9709143e1f593f000000160405160208101908882524660408201526040815261034460608261166c565b5190200680610866575060015b604051602081019182526020815261036a60408261166c565b519020851461082257869386936103823682866117cc565b61038e906084356118d1565b9361039a3683836117cc565b6103a69060a435611a27565b6103b13684846117cc565b6103bd9060c435611b10565b6103c83685856117cc565b6103d49060e4356118d1565b906103e03686866117cc565b6103ed9061010435611a27565b926103f93687876117cc565b6104069061012435611b10565b946104123688836117cc565b61041f9061014435611a27565b96369061042b926117cc565b6104389061016435611a27565b966104428a611bf9565b5061044c82611c18565b5061045683611c32565b5061046084611bf9565b5061046a85611c18565b5061047486611c32565b5061047e87611c18565b5061048888611c18565b50610493818b611822565b5061049e818361184c565b506104a9818461186b565b506104b48185611822565b506104bf818661184c565b506104ca818761186b565b506104d5818861184c565b506104e0818961184c565b506104eb818b611d56565b506104f68183611d56565b506105018184611d56565b5061050c8185611d56565b506105178186611d56565b506105228187611d56565b5061052d8188611d56565b506105389088611d56565b5060055460019b60099b6040926001600160a01b03168061073d575b5082519b6105618d61163c565b8c5260208c01938452828c0194855260608c0195865260808c0196875260a08c0197885260c08c0198895260e08c01998a526101008c019a8b526101208c019d8e528152806020522098518955516001890155516002880155516003870155516004860155516005850155516006840155516007830155516008820155019051151560ff80198354169116179055818352600160205260408320600160ff19825416179055818352600260205260408320600160ff19825416179055818352600360205260408320556009545f1981146107295760010160095560065482906001600160a01b0316806106a2575b507f363c0fc55a07ca661df7cf8b061765f53131e8ffac245643017951befd1e76b2604083815160208101918252428382015282815261069060608261166c565b5190208151908152426020820152a180f35b6040516020810190848252426040820152604081526106c260608261166c565b519020813b156107255782906040519283916306cc173360e41b835283600484015283602484015260448301528183606482800301925af1801561071a571561064f578161070f9161166c565b61021d57815f61064f565b6040513d84823e3d90fd5b8280fd5b634e487b7160e01b83526011600452602483fd5b610747908d611822565b5061075b8e8060a01b03600554168561184c565b5061076f8e8060a01b03600554168661186b565b506107838e8060a01b036005541687611822565b506107978e8060a01b03600554168861184c565b506107ab8e8060a01b03600554168961186b565b506107bf8e8060a01b03600554168a61184c565b506107d38e8060a01b03600554168b61184c565b506107dd8c611c4b565b6107e684611c4b565b6107ef85611c4b565b6107f886611c4b565b61080187611c4b565b61080a88611c4b565b61081389611c4b565b61081c8a611c4b565b5f610554565b60405162461bcd60e51b815260206004820152601c60248201527b119bdc989a5919195b8819195d195c9b5a5b9a5cdd1a58c81cd85b1d60221b6044820152606490fd5b610351565b60405162461bcd60e51b815260206004820152601460248201527316995c9bc81cd85b1d0818dbdb5b5a5d1b595b9d60621b6044820152606490fd5b60405162461bcd60e51b815260206004820152601d60248201527f436f6d6d69746d656e7420616c726561647920726567697374657265640000006044820152606490fd5b60405162461bcd60e51b815260206004820152601760248201527616995c9bc81c1c9bd99a5b194818dbdb5b5a5d1b595b9d604a1b6044820152606490fd5b60405162461bcd60e51b815260206004820152601560248201527416995c9bc81c195c9b5a5d081c9958da5c1a595b9d605a1b6044820152606490fd5b60405162461bcd60e51b815260206004820152602260248201527f456e67696e65206e6f7420736574206265666f7265207265676973747261746960448201526137b760f11b6064820152608490fd5b60405162461bcd60e51b81526020600482015260186024820152774f6e6c7920617574686f72697a656420726567697374727960401b6044820152606490fd5b8680fd5b8580fd5b50346101ab57806003193601126101ab576008546040516001600160a01b039091168152602090f35b50346101ab57806003193601126101ab57610a4f60018060a01b036007541633146115c8565b600c548015159081610ab7575b5015610a8057600b5460ff808260081c161515169060ff191617600b5580600c5580f35b60405162461bcd60e51b815260206004820152600f60248201526e54696d656c6f636b2061637469766560881b6044820152606490fd5b90504210155f610a5c565b50346101ab57806003193601126101ab5760206040516154608152f35b50346101ab57806003193601126101ab576020600954604051908152f35b50346101ab57806003193601126101ab576020600c54604051908152f35b50346101ab5760203660031901126101ab5760406020916004358152600383522054604051908152f35b50346101ab57806003193601126101ab57602060ff600b5460081c166040519015158152f35b50346101ab5760203660031901126101ab5760ff60406020926004358152600184522054166040519015158152f35b50346101ab57806003193601126101ab576007546040516001600160a01b039091168152602090f35b50346101ab57806003193601126101ab576020610bde611889565b604051908152f35b50346101ab5760203660031901126101ab576008604060209260043560018060a01b036005541633148015610c47575b610c1f906116d9565b808252818552610c3760ff6009858520015416611716565b8152808452200154604051908152f35b506004546001600160a01b03163314610c16565b50346101ab5760203660031901126101ab5760043590610c7961168f565b506005546001600160a01b031690610c92338314611770565b82815280602052604081209160405192610cab8461163c565b8054845283600182015460208201908152600283015460408301908152600384015494606084019586526004850154906080850191825260058601549160a0860192835260068701549460c08701958652610d2c60ff600960078b01549a60e08b019b8c5260088101546101008c01520154161515806101208a0152611716565b82610dff575b50506006546001600160a01b03169650869550610d7d945050505050575b610d79836040514281525f516020611f825f395f51905f5260203392a26040519182918261155c565b0390f35b81936040516020810191825242604082015260408152610d9e60608261166c565b519020813b15610725578291610dca916040519485809481936306cc173360e41b8352600483016117b5565b03925af18015610df457610ddf575b80610d50565b610dea83809261166c565b61021d5781610dd9565b6040513d85823e3d90fd5b610e5e98610e4a610e2296610e36610e2294610e22610e3698610e229d51611822565b50516005546001600160a01b03169061184c565b50516005546001600160a01b03169061186b565b50516005546001600160a01b031690611822565b505f8083818080808080610d32565b50346101ab57806003193601126101ab576008546001600160a01b0381169033829003610ed457600780546001600160a01b03199081168417909155166008557fb27970c1714b28277b78cc17ac2fe9556e7f048cd48358cffe3dc7d547608fdc8280a280f35b60405162461bcd60e51b81526020600482015260126024820152712737ba10383937b837b9b2b21037bbb732b960711b6044820152606490fd5b50346101ab5760203660031901126101ab57610f28611520565b610f3d60018060a01b036007541633146115c8565b6001600160a01b0316610f51811515611601565b600880546001600160a01b031916821790557f6ab4d119f23076e8ad491bc65ce85f017fb0591dce08755ba8591059cc51737a8280a280f35b3461112457602036600319011261112457600435610fa661168f565b50610fbc60018060a01b03600554163314611770565b805f525f60205260405f2061104160ff600960405193610fdb8561163c565b8054855260018101546020860152600281015460408601526003810154606086015260048101546080860152600581015460a0860152600681015460c0860152600781015460e08601526008810154610100860152015416151580610120840152611716565b815f52600260205260ff60405f20541615611128576006546001600160a01b03169182611092575b610d79826040514281525f516020611f825f395f51905f5260203392a26040519182918261155c565b604051602081019182524260408201526a10d050d2115117d491505160aa1b6060820152604b81526110c5606b8261166c565b51902091803b15611124576040516306cc173360e41b8152925f9184918290849082906110f590600483016117b5565b03925af191821561111957610d799215611069575f6111139161166c565b5f611069565b6040513d5f823e3d90fd5b5f80fd5b60405162461bcd60e51b815260206004820152601a60248201527914185d1a595b9d081a185b991b195cc81b9bdd0818d858da195960321b6044820152606490fd5b34611124576020366003190112611124576004355f526002602052602060ff60405f2054166040519015158152f35b34611124575f36600319011261112457602060ff600b54166040519015158152f35b34611124576020366003190112611124576111d4611520565b6111e960018060a01b036007541633146115c8565b6001600160a01b03166111fd811515611601565b60095461121a57600580546001600160a01b031916919091179055005b60405162461bcd60e51b815260206004820152602860248201527f43616e6e6f74206368616e676520656e67696e6520616674657220726567697360448201526774726174696f6e7360c01b6064820152608490fd5b346111245760203660031901126111245764ffffffffff61129761129261154c565b611811565b541680156112b2575b60209064ffffffffff60405191168152f35b5060016112a0565b34611124575f366003190112611124576004546040516001600160a01b039091168152602090f35b34611124576020366003190112611124576112fb61168f565b506004546001600160a01b03163314801561134a575b61131a906116d9565b6004355f525f602052610d7960405f2061133e60ff600960405193610fdb8561163c565b6040519182918261155c565b506005546001600160a01b03163314611311565b346111245760403660031901126111245761137761154c565b61137f611536565b61139460018060a01b036007541633146115c8565b6001600160a01b0316906113a9821515611601565b64ffffffffff6113b882611811565b5416801561143e575b64ffffffffff60019116019064ffffffffff821161142a57602060ff8264ffffffffff61140e7f6da0feb3b0bd083f868beb07983147e8f9319e42d0b452d6e0bf7fa04e7066da95611811565b9516948564ffffffffff198254161790556040519485521692a3005b634e487b7160e01b5f52601160045260245ffd5b5060016113c1565b346111245760203660031901126111245761145f611520565b61147460018060a01b036007541633146115c8565b6001600160a01b0316611488811515611601565b6009546114a557600480546001600160a01b031916919091179055005b60405162461bcd60e51b815260206004820152602a60248201527f43616e6e6f74206368616e676520726567697374727920616674657220726567604482015269697374726174696f6e7360b01b6064820152608490fd5b34611124575f366003190112611124576006546001600160a01b03168152602090f35b600435906001600160a01b038216820361112457565b602435906001600160a01b038216820361112457565b6004359060ff8216820361112457565b91909161012080610140830194805184526020810151602085015260408101516040850152606081015160608501526080810151608085015260a081015160a085015260c081015160c085015260e081015160e085015261010081015161010085015201511515910152565b156115cf57565b60405162461bcd60e51b815260206004820152600a60248201526927b7363c9037bbb732b960b11b6044820152606490fd5b1561160857565b60405162461bcd60e51b815260206004820152600c60248201526b5a65726f206164647265737360a01b6044820152606490fd5b61014081019081106001600160401b0382111761165857604052565b634e487b7160e01b5f52604160045260245ffd5b601f909101601f19168101906001600160401b0382119082101761165857604052565b6040519061169c8261163c565b5f610120838281528260208201528260408201528260608201528260808201528260a08201528260c08201528260e0820152826101008201520152565b156116e057565b60405162461bcd60e51b815260206004820152600e60248201526d139bdd08185d5d1a1bdc9a5e995960921b6044820152606490fd5b1561171d57565b60405162461bcd60e51b815260206004820152602560248201527f50617469656e74206e6f7420666f756e6420666f72207468697320636f6d6d696044820152641d1b595b9d60da1b6064820152608490fd5b1561177757565b60405162461bcd60e51b81526020600482015260166024820152754f6e6c7920617574686f72697a656420656e67696e6560501b6044820152606490fd5b919060406060840193600281525f60208201520152565b9192916001600160401b03821161165857604051916117f5601f8201601f19166020018461166c565b829481845281830111611124578281602093845f960137010152565b60ff165f52600a60205260405f2090565b908115611837575b6118349082611c6c565b90565b9050611834611844611e48565b91905061182a565b90811561185d576118349082611c6c565b90506118346118445f611ec5565b90811561187c576118349082611c6c565b9050611834611844611f13565b4660010361189657600190565b4662aa36a7036118a65761271190565b617a6946146118b3575f90565b5f1990565b9081526001600160a01b03909116602082015260400190565b8151909190156119ef575f516020611f625f395f51905f525460405163045fc19560e11b81526004810193909352336024840152608060448401528151608484018190526001600160a01b0390911691819060200160a485015e5f83820160a40152602091835f60a482809560026064830152601f801991011681010301925af1908115611119575f916119bd575b505f516020611fa25f395f51905f52546001600160a01b0316803b15611124575f6040518092630f8e573b60e21b82528183816119a13389600484016118b8565b03925af18015611119576119b3575090565b5f6118349161166c565b90506020813d6020116119e7575b816119d86020938361166c565b8101031261112457515f611960565b3d91506119cb565b508015611a1e57611a003382611ccc565b15611a085790565b630276b5d960e01b5f526004523360245260445ffd5b50611834611e48565b815190919015611af5575f516020611f625f395f51905f525460405163045fc19560e11b81526004810193909352336024840152608060448401528151608484018190526001600160a01b0390911691819060200160a485015e5f83820160a40152602091835f60a4828095836064830152601f801991011681010301925af1908115611119575f916119bd57505f516020611fa25f395f51905f52546001600160a01b0316803b15611124575f6040518092630f8e573b60e21b82528183816119a13389600484016118b8565b508015611b0657611a003382611ccc565b506118345f611ec5565b815190919015611bdf575f516020611f625f395f51905f525460405163045fc19560e11b81526004810193909352336024840152608060448401528151608484018190526001600160a01b0390911691819060200160a485015e5f83820160a40152602091835f60a482809560036064830152601f801991011681010301925af1908115611119575f916119bd57505f516020611fa25f395f51905f52546001600160a01b0316803b15611124575f6040518092630f8e573b60e21b82528183816119a13389600484016118b8565b508015611bf057611a003382611ccc565b50611834611f13565b8015611c0a575b6118343082611c6c565b50611c13611e48565b611c00565b8015611c28576118343082611c6c565b50611c135f611ec5565b8015611c42576118343082611c6c565b50611c13611f13565b6005546001600160a01b031680611c60575050565b611c6991611dce565b50565b5f516020611fa25f395f51905f52546001600160a01b031691823b1561112457611caf925f9283604051809681958294635ca4b5b160e11b8452600484016118b8565b03925af1801561111957611cc05750565b5f611cca9161166c565b565b5f516020611fa25f395f51905f52546040516382027b6d60e01b81529260209284926001600160a01b03169183918291611d0991600484016118b8565b03915afa908115611119575f91611d1e575090565b90506020813d602011611d4e575b81611d396020938361166c565b81010312611124575180151581036111245790565b3d9150611d2c565b5f8052600a6020527f13da86008ba1c6922daee3e07db95305ef49ebced9f5467a0b8613fcc6b343e35491929164ffffffffff16908115611dc5575b6040805164ffffffffff841681525f602082015292946001600160a01b0316925f516020611fc25f395f51905f529190a3565b60019150611d92565b60015f52600a6020527fbbc70db1b6c7afd11e79c0fb0051300458f1a3acb8ee9789d9b6b26c61ad9bc75491929164ffffffffff16908115611e3f575b6040805164ffffffffff841681526001602082015292946001600160a01b0316925f516020611fc25f395f51905f529190a3565b60019150611e0b565b5f516020611f625f395f51905f5254604051639cd07acb60e01b81525f6004820152906001600160a01b0316816044815f602094600260248401525af1908115611119575f91611e96575090565b90506020813d602011611ebd575b81611eb16020938361166c565b81010312611124575190565b3d9150611ea4565b5f516020611f625f395f51905f5254604051639cd07acb60e01b815260048101929092526001600160a01b0316816044815f6020948160248401525af1908115611119575f91611e96575090565b5f516020611f625f395f51905f5254604051639cd07acb60e01b81525f6004820152906001600160a01b0316816044815f602094600360248401525af1908115611119575f91611e9657509056fe9e7b61f58c47dc699ac88507c4f5bb9f121c03808c5676a8078fe583e46497011d7ae4ee06de52300c1bdd3ec36854713ab923185365b8328a2776694a1f325d9e7b61f58c47dc699ac88507c4f5bb9f121c03808c5676a8078fe583e464970058d1f3ed03db8b22ff8b8be3e7515f47bcd2b187270364bb5d5f1d0c1a0b9782a164736f6c634300081b000a",
  "linkReferences": {},
  "deployedLinkReferences": {}
}