{
  "_format": "hh-sol-artifact-1",
  "contractName": "DataAccessLog",
  "sourceName": "contracts/DataAccessLog.sol",
  "abi": [
    {
      "inputs": [],
      "stateMutability": "nonpayable",
      "type": "constructor"
    },
    {
      "anonymous": false,
      "inputs": [
        {
          "indexed": true,
          "internalType": "enum DataAccessLog.ActionType",
          "name": "action",
          "type": "uint8"
        },
        {
          "indexed": true,
          "internalType": "uint256",
          "name": "trialId",
          "type": "uint256"
        },
        {
          "indexed": true,
          "internalType": "bytes32",
          "name": "patientHash",
          "type": "bytes32"
        }
      ],
      "name": "ActionLogged",
      "type": "event"
    },
    {
      "anonymous": false,
      "inputs": [
        {
          "indexed": true,
          "internalType": "enum DataAccessLog.ActionType",
          "name": "action",
          "type": "uint8"
        },
        {
          "indexed": true,
          "internalType": "uint256",
          "name": "trialId",
          "type": "uint256"
        },
        {
          "indexed": true,
          "internalType": "bytes32",
          "name": "patientHash",
          "type": "bytes32"
        },
        {
          "indexed": false,
          "internalType": "uint256",
          "name": "timestamp",
          "type": "uint256"
        },
        {
          "indexed": false,
          "internalType": "address",
          "name": "performer",
          "type": "address"
        },
        {
          "indexed": false,
          "internalType": "uint256",
          "name": "logHeadPosition",
          "type": "uint256"
        }
      ],
      "name": "DetailedActionLogged",
      "type": "event"
    },
    {
      "anonymous": false,
      "inputs": [
        {
          "indexed": true,
          "internalType": "uint256",
          "name": "logHead",
          "type": "uint256"
        }
      ],
      "name": "LogBufferWrapped",
      "type": "event"
    },
    {
      "anonymous": false,
      "inputs": [
        {
          "indexed": true,
          "internalType": "address",
          "name": "newOwner",
          "type": "address"
        }
      ],
      "name": "OwnershipAccepted",
      "type": "event"
    },
    {
      "anonymous": false,
      "inputs": [
        {
          "indexed": true,
          "internalType": "address",
          "name": "proposedOwner",
          "type": "address"
        }
      ],
      "name": "OwnershipProposed",
      "type": "event"
    },
    {
      "inputs": [],
      "name": "LOGGER_CHANGE_DELAY",
      "outputs": [
        {
          "internalType": "uint256",
          "name": "",
          "type": "uint256"
        }
      ],
      "stateMutability": "view",
      "type": "function"
    },
    {
      "inputs": [],
      "name": "MAX_LOG_ENTRIES",
      "outputs": [
        {
          "internalType": "uint256",
          "name": "",
          "type": "uint256"
        }
      ],
      "stateMutability": "view",
      "type": "function"
    },
    {
      "inputs": [],
      "name": "acceptOwnership",
      "outputs": [],
      "stateMutability": "nonpayable",
      "type": "function"
    },
    {
      "inputs": [
        {
          "internalType": "address",
          "name": "_logger",
          "type": "address"
        }
      ],
      "name": "applyAuthorizedLogger",
      "outputs": [],
      "stateMutability": "nonpayable",
      "type": "function"
    },
    {
      "inputs": [
        {
          "internalType": "uint256",
          "name": "_index",
          "type": "uint256"
        }
      ],
      "name": "getLog",
      "outputs": [
        {
          "components": [
            {
              "internalType": "enum DataAccessLog.ActionType",
              "name": "action",
              "type": "uint8"
            },
            {
              "internalType": "uint256",
              "name": "trialId",
              "type": "uint256"
            },
            {
              "internalType": "bytes32",
              "name": "patientHash",
              "type": "bytes32"
            },
            {
              "internalType": "uint256",
              "name": "timestamp",
              "type": "uint256"
            },
            {
              "internalType": "address",
              "name": "performer",
              "type": "address"
            }
          ],
          "internalType": "struct DataAccessLog.LogEntry",
          "name": "",
          "type": "tuple"
        }
      ],
      "stateMutability": "view",
      "type": "function"
    },
    {
      "inputs": [],
      "name": "getLogCount",
      "outputs": [
        {
          "internalType": "uint256",
          "name": "",
          "type": "uint256"
        }
      ],
      "stateMutability": "view",
      "type": "function"
    },
    {
      "inputs": [
        {
          "internalType": "address",
          "name": "",
          "type": "address"
        }
      ],
      "name": "isAuthorizedLogger",
      "outputs": [
        {
          "internalType": "bool",
          "name": "",
          "type": "bool"
        }
      ],
      "stateMutability": "view",
      "type": "function"
    },
    {
      "inputs": [
        {
          "internalType": "enum DataAccessLog.ActionType",
          "name": "_action",
          "type": "uint8"
        },
        {
          "internalType": "uint256",
          "name": "_trialId",
          "type": "uint256"
        },
        {
          "internalType": "bytes32",
          "name": "_patientHash",
          "type": "bytes32"
        }
      ],
      "name": "logAction",
      "outputs": [],
      "stateMutability": "nonpayable",
      "type": "function"
    },
    {
      "inputs": [
        {
          "internalType": "address",
          "name": "",
          "type": "address"
        }
      ],
      "name": "loggerChangeEta",
      "outputs": [
        {
          "internalType": "uint256",
          "name": "",
          "type": "uint256"
        }
      ],
      "stateMutability": "view",
      "type": "function"
    },
    {
      "inputs": [
        {
          "internalType": "uint256",
          "name": "",
          "type": "uint256"
        }
      ],
      "name": "logs",
      "outputs": [
        {
          "internalType": "enum DataAccessLog.ActionType",
          "name": "action",
          "type": "uint8"
        },
        {
          "internalType": "uint256",
          "name": "trialId",
          "type": "uint256"
        },
        {
          "internalType": "bytes32",
          "name": "patientHash",
          "type": "bytes32"
        },
        {
          "internalType": "uint256",
          "name": "timestamp",
          "type": "uint256"
        },
        {
          "internalType": "address",
          "name": "performer",
          "type": "address"
        }
      ],
      "stateMutability": "view",
      "type": "function"
    },
    {
      "inputs": [],
      "name": "owner",
      "outputs": [
        {
          "internalType": "address",
          "name": "",
          "type": "address"
        }
      ],
      "stateMutability": "view",
      "type": "function"
    },
    {
      "inputs": [
        {
          "internalType": "address",
          "name": "",
          "type": "address"
        }
      ],
      "name": "pendingLoggerChanges",
      "outputs": [
        {
          "internalType": "bool",
          "name": "",
          "type": "bool"
        }
      ],
      "stateMutability": "view",
      "type": "function"
    },
    {
      "inputs": [],
      "name": "pendingOwner",
      "outputs": [
        {
          "internalType": "address",
          "name": "",
          "type": "address"
        }
      ],
      "stateMutability": "view",
      "type": "function"
    },
    {
      "inputs": [
        {
          "internalType": "address",
          "name": "_newOwner",
          "type": "address"
        }
      ],
      "name": "proposeOwnership",
      "outputs": [],
      "stateMutability": "nonpayable",
      "type": "function"
    },
    {
      "inputs": [
        {
          "internalType": "address",
          "name": "_logger",
          "type": "address"
        },
        {
          "internalType": "bool",
          "name": "_status",
          "type": "bool"
        }
      ],
      "name": "scheduleAuthorizedLogger",
      "outputs": [],
      "stateMutability": "nonpayable",
      "type": "function"
    }
  ],
  "bytecode": "0x60808060405234604257600580546001600160a01b031916339081179091555f908152600260205260409020805460ff191660011790556109ea90816100478239f35b5f80fdfe60806040526004361015610011575f80fd5b5f3560e01c80633206b2c614610712578063465ec99a146106da578063618033db146106bd5780636cc17330146104d15780636ffaa6d1146104b5578063710bf3221461043b578063788099bb146103fe57806379ba50971461035f57806387e6f164146102805780638da5cb5b14610258578063e1437f0f1461021b578063e2d7531414610178578063e30c397814610150578063e79899bd146100df5763f91b003d146100be575f80fd5b346100db575f3660031901126100db5760206040516202a3008152f35b5f80fd5b346100db5760203660031901126100db576004356001548110156100db5761010860a09161083d565b5060ff8154169060018101549060028101546003820154916004600180881b03910154169261013a604051809661081a565b6020850152604084015260608301526080820152f35b346100db575f3660031901126100db576006546040516001600160a01b039091168152602090f35b346100db5760403660031901126100db57610191610827565b6024359081151582036100db576101e9906101b760018060a01b03600554163314610929565b6001600160a01b0316916101cc831515610962565b825f52600360205260405f209060ff801983541691151516179055565b6202a300420190814211610207575f52600460205260405f20555f80f35b634e487b7160e01b5f52601160045260245ffd5b346100db5760203660031901126100db576001600160a01b0361023c610827565b165f526002602052602060ff60405f2054166040519015158152f35b346100db575f3660031901126100db576005546040516001600160a01b039091168152602090f35b346100db5760203660031901126100db57610299610827565b6102ae60018060a01b03600554163314610929565b6001600160a01b03165f81815260046020526040902054151580610349575b1561031257805f52600360205261030260ff60405f205416825f52600260205260405f209060ff801983541691151516179055565b5f90815260046020526040812055005b60405162461bcd60e51b815260206004820152600f60248201526e54696d656c6f636b2061637469766560881b6044820152606490fd5b50805f52600460205260405f20544210156102cd565b346100db575f3660031901126100db576006546001600160a01b03811690338290036103c457600580546001600160a01b03199081168417909155166006557fb27970c1714b28277b78cc17ac2fe9556e7f048cd48358cffe3dc7d547608fdc5f80a2005b60405162461bcd60e51b81526020600482015260126024820152712737ba10383937b837b9b2b21037bbb732b960711b6044820152606490fd5b346100db5760203660031901126100db576001600160a01b0361041f610827565b165f526003602052602060ff60405f2054166040519015158152f35b346100db5760203660031901126100db57610454610827565b61046960018060a01b03600554163314610929565b6001600160a01b031661047d811515610962565b600680546001600160a01b031916821790557f6ab4d119f23076e8ad491bc65ce85f017fb0591dce08755ba8591059cc51737a5f80a2005b346100db575f3660031901126100db5760206040516127108152f35b346100db5760603660031901126100db57600435600781101590816100db576024359060443592335f52600260205260ff60405f205416156106805761051561086d565b61051f838261088c565b836020820152846040820152426060820152336080820152612710600154105f146105df5760015490600160401b8210156105cb5761056782600161056d940160015561083d565b90610898565b6105b7576040518383835f5160206109be5f395f51905f525f80a46001545f1981019190821161020757806105b25f51602061099e5f395f51905f5293334284610908565b0390a4005b634e487b7160e01b5f52602160045260245ffd5b634e487b7160e01b5f52604160045260245ffd5b5f54612710810692508215610641575b506105fd906105678361083d565b5f545f198114610207575f51602061099e5f395f51905f529160016105b292015f556040519182918787875f5160206109be5f395f51905f525f80a4334284610908565b61271090049060018201809211610207576105fd917f51d2a2ac310765a9fe16ef6a51ebf3e5214365650c5b893cc8bf900bfabb0b535f80a2906105ef565b60405162461bcd60e51b81526020600482015260156024820152742737ba1030baba3437b934bd32b2103637b3b3b2b960591b6044820152606490fd5b346100db575f3660031901126100db576020600154604051908152f35b346100db5760203660031901126100db576001600160a01b036106fb610827565b165f526004602052602060405f2054604051908152f35b346100db5760203660031901126100db576004355f608061073161086d565b82815282602082015282604082015282606082015201526001548110156107df5761075d60a09161083d565b5061076661086d565b9061077560ff8254168361088c565b60018101549060208301918252600281015460408401908152600382015491606085019283526004600180881b039101541692608085019384526107bd60405180965161081a565b516020850152516040840152516060830152515f196001841b01166080820152f35b60405162461bcd60e51b8152602060048201526013602482015272496e646578206f7574206f6620626f756e647360681b6044820152606490fd5b9060078210156105b75752565b600435906001600160a01b03821682036100db57565b6001548110156108595760015f52600560205f20910201905f90565b634e487b7160e01b5f52603260045260245ffd5b6040519060a082016001600160401b038111838210176105cb57604052565b60078210156105b75752565b906108f55781519060078210156105b75760049160ff801983541691161781556020830151600182015560408301516002820155606083015160038201550190608060018060a01b039101511660018060a01b0319825416179055565b634e487b7160e01b5f525f60045260245ffd5b9081526001600160a01b039091166020820152604081019190915260600190565b1561093057565b60405162461bcd60e51b815260206004820152600a60248201526927b7363c9037bbb732b960b11b6044820152606490fd5b1561096957565b60405162461bcd60e51b815260206004820152600c60248201526b5a65726f206164647265737360a01b6044820152606490fdfe1cc2c52bbdc458d65d9611e9f1cde2d0154760df4669f3fb583923608a64c461a977f1ceb6cc9b2201a49c0caabbf8a7fe6848331b5545eefc71944536904517a164736f6c634300081b000a",
  "linkReferences": {},
  "deployedLinkReferences": {}
}