{
  "_format": "hh-sol-artifact-1",
  "contractName": "DataAccessLog",
  "sourceName": "contracts/DataAccessLog.sol",
  "abi": [
    {
      "inputs": [],
      "stateMutability": "nonpayable",
      "type": "constructor"
    },
    {
      "anonymous": false,
      "inputs": [
        {
          "indexed": true,
          "internalType": "enum DataAccessLog.ActionType",
          "name": "action",
          "type": "uint8"
        },
        {
          "indexed": true,
          "internalType": "uint256",
          "name": "trialId",
          "type": "uint256"
        },
        {
          "indexed": true,
          "internalType": "bytes32",
          "name": "patientHash",
          "type": "bytes32"
        }
      ],
      "name": "ActionLogged",
      "type": "event"
    },
    {
      "inputs": [
        {
          "internalType": "uint256",
          "name": "_index",
          "type": "uint256"
        }
      ],
      "name": "getLog",
      "outputs": [
        {
          "components": [
            {
              "internalType": "enum DataAccessLog.ActionType",
              "name": "action",
              "type": "uint8"
            },
            {
              "internalType": "uint256",
              "name": "trialId",
              "type": "uint256"
            },
            {
              "internalType": "bytes32",
              "name": "patientHash",
              "type": "bytes32"
            },
            {
              "internalType": "uint256",
              "name": "timestamp",
              "type": "uint256"
            },
            {
              "internalType": "address",
              "name": "performer",
              "type": "address"
            }
          ],
          "internalType": "struct DataAccessLog.LogEntry",
          "name": "",
          "type": "tuple"
        }
      ],
      "stateMutability": "view",
      "type": "function"
    },
    {
      "inputs": [],
      "name": "getLogCount",
      "outputs": [
        {
          "internalType": "uint256",
          "name": "",
          "type": "uint256"
        }
      ],
      "stateMutability": "view",
      "type": "function"
    },
    {
      "inputs": [
        {
          "internalType": "address",
          "name": "",
          "type": "address"
        }
      ],
      "name": "isAuthorizedLogger",
      "outputs": [
        {
          "internalType": "bool",
          "name": "",
          "type": "bool"
        }
      ],
      "stateMutability": "view",
      "type": "function"
    },
    {
      "inputs": [
        {
          "internalType": "enum DataAccessLog.ActionType",
          "name": "_action",
          "type": "uint8"
        },
        {
          "internalType": "uint256",
          "name": "_trialId",
          "type": "uint256"
        },
        {
          "internalType": "bytes32",
          "name": "_patientHash",
          "type": "bytes32"
        }
      ],
      "name": "logAction",
      "outputs": [],
      "stateMutability": "nonpayable",
      "type": "function"
    },
    {
      "inputs": [
        {
          "internalType": "uint256",
          "name": "",
          "type": "uint256"
        }
      ],
      "name": "logs",
      "outputs": [
        {
          "internalType": "enum DataAccessLog.ActionType",
          "name": "action",
          "type": "uint8"
        },
        {
          "internalType": "uint256",
          "name": "trialId",
          "type": "uint256"
        },
        {
          "internalType": "bytes32",
          "name": "patientHash",
          "type": "bytes32"
        },
        {
          "internalType": "uint256",
          "name": "timestamp",
          "type": "uint256"
        },
        {
          "internalType": "address",
          "name": "performer",
          "type": "address"
        }
      ],
      "stateMutability": "view",
      "type": "function"
    },
    {
      "inputs": [],
      "name": "owner",
      "outputs": [
        {
          "internalType": "address",
          "name": "",
          "type": "address"
        }
      ],
      "stateMutability": "view",
      "type": "function"
    },
    {
      "inputs": [
        {
          "internalType": "address",
          "name": "_logger",
          "type": "address"
        },
        {
          "internalType": "bool",
          "name": "_status",
          "type": "bool"
        }
      ],
      "name": "setAuthorizedLogger",
      "outputs": [],
      "stateMutability": "nonpayable",
      "type": "function"
    }
  ],
  "bytecode": "0x60808060405234603d573360018060a01b03196002541617600255335f52600160205260405f20600160ff198254161790556104c490816100428239f35b5f80fdfe60806040526004361015610011575f80fd5b5f3560e01c80633206b2c61461035b578063618033db1461033f5780636cc17330146101ce5780638da5cb5b146101a6578063a4260ce314610117578063e1437f0f146100da5763e79899bd14610066575f80fd5b346100d65760203660031901126100d6576004355f548110156100d65761008e60a091610440565b5060ff8154169060018101549060028101546003820154916004600180881b0391015416926100c0604051809661041d565b6020850152604084015260608301526080820152f35b5f80fd5b346100d65760203660031901126100d6576001600160a01b036100fb61042a565b165f526001602052602060ff60405f2054166040519015158152f35b346100d65760403660031901126100d65761013061042a565b602435908115158092036100d6576002546001600160a01b031633036101745760018060a01b03165f52600160205260405f209060ff801983541691161790555f80f35b60405162461bcd60e51b815260206004820152600a60248201526927b7363c9037bbb732b960b11b6044820152606490fd5b346100d6575f3660031901126100d6576002546040516001600160a01b039091168152602090f35b346100d65760603660031901126100d65760043560078110156100d65760243560443591335f52600160205260ff60405f205416156103025761020f61048c565b61021982826104ab565b6020810183815260408201918583526060810142815260808201933285525f54600160401b8110156102ee5780600161025492015f55610440565b9390936102db57519360078510156102c75760049460ff80198654169116178455516001840155516002830155516003820155019060018060a01b0390511660018060a01b03198254161790557fa977f1ceb6cc9b2201a49c0caabbf8a7fe6848331b5545eefc719445369045175f80a4005b634e487b7160e01b5f52602160045260245ffd5b634e487b7160e01b5f525f60045260245ffd5b634e487b7160e01b5f52604160045260245ffd5b60405162461bcd60e51b81526020600482015260156024820152742737ba1030baba3437b934bd32b2103637b3b3b2b960591b6044820152606490fd5b346100d6575f3660031901126100d65760205f54604051908152f35b346100d65760203660031901126100d6575f608061037761048c565b828152826020820152826040820152826060820152015260a061039b600435610440565b506103a461048c565b906103b360ff825416836104ab565b60018101549060208301918252600281015460408401908152600382015491606085019283526004600180881b039101541692608085019384526103fb60405180965161041d565b516020850152516040840152516060830152515f196001841b01166080820152f35b9060078210156102c75752565b600435906001600160a01b03821682036100d657565b5f54811015610478575f8080526005919091027f290decd9548b62a8d60345a988386fc84ba6bc95484008f6362f93160ef3e5630191565b634e487b7160e01b5f52603260045260245ffd5b6040519060a082016001600160401b038111838210176102ee57604052565b60078210156102c7575256fea164736f6c634300081b000a",
  "linkReferences": {},
  "deployedLinkReferences": {}
}