{
  "_format": "hh-sol-artifact-1",
  "contractName": "EligibilityEngine",
  "sourceName": "contracts/EligibilityEngine.sol",
  "abi": [
    {
      "inputs": [
        {
          "internalType": "address",
          "name": "_registry",
          "type": "address"
        },
        {
          "internalType": "address",
          "name": "_trialManager",
          "type": "address"
        },
        {
          "internalType": "address",
          "name": "_consentManager",
          "type": "address"
        }
      ],
      "stateMutability": "nonpayable",
      "type": "constructor"
    },
    {
      "inputs": [
        {
          "internalType": "int32",
          "name": "value",
          "type": "int32"
        }
      ],
      "name": "SecurityZoneOutOfBounds",
      "type": "error"
    },
    {
      "anonymous": false,
      "inputs": [
        {
          "indexed": true,
          "internalType": "address",
          "name": "patient",
          "type": "address"
        },
        {
          "indexed": true,
          "internalType": "uint256",
          "name": "trialId",
          "type": "uint256"
        },
        {
          "indexed": false,
          "internalType": "enum EligibilityEngine.ApplicationStatus",
          "name": "status",
          "type": "uint8"
        },
        {
          "indexed": false,
          "internalType": "bytes",
          "name": "message",
          "type": "bytes"
        }
      ],
      "name": "ApplicationStatusUpdated",
      "type": "event"
    },
    {
      "anonymous": false,
      "inputs": [
        {
          "indexed": true,
          "internalType": "address",
          "name": "patient",
          "type": "address"
        },
        {
          "indexed": true,
          "internalType": "uint256",
          "name": "trialId",
          "type": "uint256"
        }
      ],
      "name": "AppliedToTrial",
      "type": "event"
    },
    {
      "anonymous": false,
      "inputs": [
        {
          "indexed": true,
          "internalType": "address",
          "name": "patient",
          "type": "address"
        },
        {
          "indexed": true,
          "internalType": "uint256",
          "name": "trialId",
          "type": "uint256"
        }
      ],
      "name": "EligibilityComputed",
      "type": "event"
    },
    {
      "anonymous": false,
      "inputs": [
        {
          "indexed": true,
          "internalType": "address",
          "name": "patient",
          "type": "address"
        },
        {
          "indexed": true,
          "internalType": "uint256",
          "name": "trialId",
          "type": "uint256"
        }
      ],
      "name": "EligibilityScoreComputed",
      "type": "event"
    },
    {
      "inputs": [
        {
          "internalType": "uint256",
          "name": "",
          "type": "uint256"
        },
        {
          "internalType": "address",
          "name": "",
          "type": "address"
        }
      ],
      "name": "applications",
      "outputs": [
        {
          "internalType": "enum EligibilityEngine.ApplicationStatus",
          "name": "status",
          "type": "uint8"
        },
        {
          "internalType": "bytes",
          "name": "encryptedMessage",
          "type": "bytes"
        }
      ],
      "stateMutability": "view",
      "type": "function"
    },
    {
      "inputs": [
        {
          "internalType": "uint256",
          "name": "_trialId",
          "type": "uint256"
        }
      ],
      "name": "applyToTrial",
      "outputs": [],
      "stateMutability": "nonpayable",
      "type": "function"
    },
    {
      "inputs": [],
      "name": "automationContract",
      "outputs": [
        {
          "internalType": "address",
          "name": "",
          "type": "address"
        }
      ],
      "stateMutability": "view",
      "type": "function"
    },
    {
      "inputs": [
        {
          "internalType": "address",
          "name": "_patient",
          "type": "address"
        },
        {
          "internalType": "uint256",
          "name": "_trialId",
          "type": "uint256"
        }
      ],
      "name": "checkEligibility",
      "outputs": [
        {
          "internalType": "ebool",
          "name": "",
          "type": "bytes32"
        }
      ],
      "stateMutability": "nonpayable",
      "type": "function"
    },
    {
      "inputs": [],
      "name": "consentManager",
      "outputs": [
        {
          "internalType": "contract ConsentManager",
          "name": "",
          "type": "address"
        }
      ],
      "stateMutability": "view",
      "type": "function"
    },
    {
      "inputs": [],
      "name": "dataAccessLog",
      "outputs": [
        {
          "internalType": "contract DataAccessLog",
          "name": "",
          "type": "address"
        }
      ],
      "stateMutability": "view",
      "type": "function"
    },
    {
      "inputs": [
        {
          "internalType": "address",
          "name": "",
          "type": "address"
        },
        {
          "internalType": "uint256",
          "name": "",
          "type": "uint256"
        }
      ],
      "name": "encryptedResults",
      "outputs": [
        {
          "internalType": "ebool",
          "name": "",
          "type": "bytes32"
        }
      ],
      "stateMutability": "view",
      "type": "function"
    },
    {
      "inputs": [
        {
          "internalType": "address",
          "name": "",
          "type": "address"
        },
        {
          "internalType": "uint256",
          "name": "",
          "type": "uint256"
        }
      ],
      "name": "encryptedScores",
      "outputs": [
        {
          "internalType": "euint8",
          "name": "",
          "type": "bytes32"
        }
      ],
      "stateMutability": "view",
      "type": "function"
    },
    {
      "inputs": [
        {
          "internalType": "address",
          "name": "_patient",
          "type": "address"
        },
        {
          "internalType": "uint256",
          "name": "_trialId",
          "type": "uint256"
        }
      ],
      "name": "getEncryptedResult",
      "outputs": [
        {
          "internalType": "ebool",
          "name": "",
          "type": "bytes32"
        }
      ],
      "stateMutability": "view",
      "type": "function"
    },
    {
      "inputs": [
        {
          "internalType": "address",
          "name": "_patient",
          "type": "address"
        },
        {
          "internalType": "uint256",
          "name": "_trialId",
          "type": "uint256"
        }
      ],
      "name": "getEncryptedScore",
      "outputs": [
        {
          "internalType": "euint8",
          "name": "",
          "type": "bytes32"
        }
      ],
      "stateMutability": "view",
      "type": "function"
    },
    {
      "inputs": [],
      "name": "owner",
      "outputs": [
        {
          "internalType": "address",
          "name": "",
          "type": "address"
        }
      ],
      "stateMutability": "view",
      "type": "function"
    },
    {
      "inputs": [],
      "name": "patientRegistry",
      "outputs": [
        {
          "internalType": "contract PatientRegistry",
          "name": "",
          "type": "address"
        }
      ],
      "stateMutability": "view",
      "type": "function"
    },
    {
      "inputs": [
        {
          "internalType": "address",
          "name": "_automation",
          "type": "address"
        }
      ],
      "name": "setAutomationContract",
      "outputs": [],
      "stateMutability": "nonpayable",
      "type": "function"
    },
    {
      "inputs": [
        {
          "internalType": "address",
          "name": "_log",
          "type": "address"
        }
      ],
      "name": "setDataAccessLog",
      "outputs": [],
      "stateMutability": "nonpayable",
      "type": "function"
    },
    {
      "inputs": [
        {
          "internalType": "uint256",
          "name": "",
          "type": "uint256"
        },
        {
          "internalType": "uint256",
          "name": "",
          "type": "uint256"
        }
      ],
      "name": "trialAppliedPatients",
      "outputs": [
        {
          "internalType": "address",
          "name": "",
          "type": "address"
        }
      ],
      "stateMutability": "view",
      "type": "function"
    },
    {
      "inputs": [],
      "name": "trialManager",
      "outputs": [
        {
          "internalType": "contract TrialManager",
          "name": "",
          "type": "address"
        }
      ],
      "stateMutability": "view",
      "type": "function"
    },
    {
      "inputs": [
        {
          "internalType": "uint256",
          "name": "_trialId",
          "type": "uint256"
        },
        {
          "internalType": "address",
          "name": "_patient",
          "type": "address"
        },
        {
          "internalType": "enum EligibilityEngine.ApplicationStatus",
          "name": "_status",
          "type": "uint8"
        },
        {
          "internalType": "bytes",
          "name": "_message",
          "type": "bytes"
        }
      ],
      "name": "updateApplicationStatus",
      "outputs": [],
      "stateMutability": "nonpayable",
      "type": "function"
    }
  ],
  "bytecode": "0x60803460ad57601f61268d38819003918201601f19168301916001600160401b0383118484101760b15780849260609460405283398101031260ad5760428160c5565b906057604060516020840160c5565b920160c5565b600580546001600160a01b031990811633179091555f805482166001600160a01b03958616179055600180548216938516939093179092556002805490921692169190911790556040516125b490816100d98239f35b5f80fd5b634e487b7160e01b5f52604160045260245ffd5b51906001600160a01b038216820360ad5756fe60a0806040526004361015610012575f80fd5b5f905f3560e01c9081630689d5ed14611abd575080630798230914611a955780632e8ff56314611a2a57806349df1feb14610a865780635250c6e214610a5f5780635502ed3b1461088257806355f8cfdd1461085957806362909f0a1461080757806366852374146106f45780638da5cb5b146106cb578063ab03380214610299578063c3603e5714610246578063e1ff109714610203578063e75bb266146101da578063f520f24f14610188578063f956b8b3146101455763fda0fbb8146100d9575f80fd5b34610142576040366003190112610142576020906040906001600160a01b03610100611ae0565b16803314801561012e575b61011490611bb1565b815260078352818120602435825283522054604051908152f35b506004546001600160a01b0316331461010b565b80fd5b5034610142576040366003190112610142576020906040906001600160a01b0361016d611ae0565b16815260078352818120602435825283522054604051908152f35b5034610142576020366003190112610142576101a2611ae0565b6101b760018060a01b03600554163314611e36565b600380546001600160a01b0319166001600160a01b039290921691909117905580f35b50346101425780600319360112610142576002546040516001600160a01b039091168152602090f35b5034610142576040366003190112610142576020906040906001600160a01b0361022b611ae0565b16815260068352818120602435825283522054604051908152f35b5034610142576040366003190112610142576024359060043581526009602052604081209081548310156101425760206102808484611b88565b905460405160039290921b1c6001600160a01b03168152f35b5034610142576080366003190112610142576004356102b6611af6565b60443560048110156106c757606435916001600160401b0383116106c357366023840112156106c3576004830135926001600160401b03841161052557366024858301011161052557600154604051631a7f3c3360e01b815260048101879052908790829060249082906001600160a01b03165afa9081156106b8578791610696575b50608001516001600160a01b031633036106515784865260086020526040862060018060a01b0383165f5260205260ff60405f205416600481101561063d571561060157839085875260086020526040872060018060a01b0384165f5260205260405f2060ff1981541660ff861617905585875260086020526040872060018060a01b0384165f52602052600160405f20016103d58154611b0c565b601f81116105af575b5087601f84116001146105485788908461053a575b508360011b905f198560031b1c19161790555b6003546001600160a01b031680610485575b50926104519260609260247fb8d37bb75e47252fab0d1ead541c50f4b09cf8a0cde18749fa1cca6d7adb33c89660405196878096611b67565b60406020860152826040860152018484013781860183018890526001600160a01b031694601f01601f19168101030190a380f35b915086604051602081019060018060601b03198660601b16825260ff60f81b8760f81b166034820152426035820152603581526104c3605582611b44565b51902092803b15610536576104f293829189836040518098819582946306cc173360e41b845260048401611e1d565b03925af192831561052957869361050a575b50610418565b819293509061051891611b44565b610525578390865f610504565b8580fd5b50604051903d90823e3d90fd5b5080fd5b60249150830101355f6103f3565b8189526020892090601f1985168a5b81811061059157508511610575575b5050600183811b019055610406565b8301602401355f19600386901b60f8161c191690555f80610566565b82860160240135845589965060019093019260209283019201610557565b9080929350885260208820601f870160051c810191602088106105f7575b90601f88959493920160051c01905b8181106105e957506103de565b8981558794506001016105dc565b90915081906105cd565b60405162461bcd60e51b8152602060048201526014602482015273139bc8185c1c1b1a58d85d1a5bdb88199bdd5b9960621b6044820152606490fd5b634e487b7160e01b87526021600452602487fd5b60405162461bcd60e51b815260206004820152601e60248201527f4f6e6c792073706f6e736f722063616e207570646174652073746174757300006044820152606490fd5b6106b291503d8089833e6106aa8183611b44565b810190611c6c565b5f610339565b6040513d89823e3d90fd5b8480fd5b8380fd5b50346101425780600319360112610142576005546040516001600160a01b039091168152602090f35b50346101425760403660031901126101425761070e611af6565b60043582526008602052604082209060018060a01b03165f5260205260405f20600160ff8254169101604051928082549261074884611b0c565b9081875260208701946001811690815f146107ea57506001146107af575b61078760608787878b61077b818a0382611b44565b60405195868095611b67565b604060208501525180928160408601528585015e828201840152601f01601f19168101030190f35b8352602083208392505b8183106107d057505084016020018461077b610766565b6001816020929493945483858b01015201910191906107b9565b60ff191686525050151560051b850160200190508461077b610766565b503461014257602036600319011261014257610821611ae0565b61083660018060a01b03600554163314611e36565b600480546001600160a01b0319166001600160a01b039290921691909117905580f35b50346101425780600319360112610142576001546040516001600160a01b039091168152602090f35b50346101425760203660031901126101425760043580825260086020526040822060018060a01b0333165f5260205260ff60405f2054166004811015610a4b57610a1457808252600860209081526040808420335f908152908352819020805460ff1916600117905582845260099091528220805490600160401b821015610a00579061091491600182018155611b88565b81546001600160a01b03600392831b81811b199092163390921b919091179092555483911680610969575b5050337f3b24d68835e06bc68422306adf8de6b9c3f3d25de0cef1c8f15cf59739c9fd0c8380a380f35b60405160208101903360601b8252661054141312515160ca1b603482015242603b820152603b815261099c605b82611b44565b51902090803b156109fc576040516306cc173360e41b815291839183918290849082906109cd908a60048401611e1d565b03925af180156109f1571561093f57816109e691611b44565b61053657815f61093f565b6040513d84823e3d90fd5b8280fd5b634e487b7160e01b84526041600452602484fd5b60405162461bcd60e51b815260206004820152600f60248201526e105b1c9958591e48185c1c1b1a5959608a1b6044820152606490fd5b634e487b7160e01b83526021600452602483fd5b5034610142578060031936011261014257546040516001600160a01b039091168152602090f35b50346114b35760403660031901126114b357610aa0611ae0565b6001600160a01b038116913383148015611a16575b156119e257600254604051630cc6669f60e31b815260048101859052602480359082015290602090829060449082906001600160a01b03165afa9081156114a8575f916119a8575b5015611965575f80546040516305a9b47160e51b815260048101869052916101209183916024918391906001600160a01b03165af19081156114a8575f916118a3575b506101008101511561186257600154604051631a7f3c3360e01b81526024803560048301529094915f91869182906001600160a01b03165afa9384156114a8575f94611846575b5060a08401511561180b57815193610ba560ff60c08301511661234c565b9285156117fb575b83156117e4575b90610c2d9160609460405190610bca8783611b44565b60028252601f1987019889366020850137610be48361255a565b52610bee82612567565b526020608081905260405190610c049082611b44565b5f80825236813760405180958192631888debd60e01b835260805194601560026004860161231c565b03815f5f5160206125885f395f51905f525af19283156114a8575f936117ae575b50610cda8151610c6460ff60e08601511661234c565b811561179e575b8015611790575b60405191610c808984611b44565b600283528a36608051850137610c958361255a565b52610c9f82612567565b5260805160405190610cb19082611b44565b5f80825236813760405180938192631888debd60e01b835260805194601460026004860161231c565b03815f5f5160206125885f395f51905f525af19081156114a8575f9161175a575b50610dbf93610d0a9190611e6f565b6101008301519097901561174a57610d306080830151610d2a60016123fd565b90611f58565b975b60a0830151610d4961ffff6101208701511661246e565b811561173a575b801561172c575b60405191610d658a84611b44565b600283528436608051850137610d7a8361255a565b52610d8482612567565b5260805160405190610d969082611b44565b5f80825236813760405180978192631888debd60e01b835260805194601260036004860161231c565b03815f5f5160206125885f395f51905f525af180156114a85789955f916116f5575b5061014085015160ff16600181036116cc5750610e07608051850151610d2a60016123fd565b915b6101608601805160ff16156116bb57610e3390610e2d60ff8c89015192511661234c565b90611ff2565b935b6101808701805161ffff16156116aa57610ed39850610e5d61ffff604089015192511661246e565b811561169a575b801561168c575b60405191610e798d84611b44565b600283528336608051850137610e8e8361255a565b52610e9882612567565b5260805160405190610eaa9082611b44565b5f808252368137604051809a8192631888debd60e01b835260805194601360036004860161231c565b03815f5f5160206125885f395f51905f525af180156114a8578c985f91611655575b50955b6101a088015115611642576101c0610f1760c0830151610d2a5f6123fd565b985b01511561161c57610f7f610f7f610f7f610f7f610f7f610f7f610f4660e0610f99980151610d2a5f6123fd565b9e5b610f70610f76610f566123bf565b610f708d610f6261251f565b610f6a6123bf565b91612089565b9061216a565b91610f6261251f565b610f70610f8a61251f565b610f926123bf565b908c612089565b60805160405190610faa9082611b44565b5f80825236813760809261101a60405192610fc58685611b44565b60038452601f198601938436608051830137600c610fe28261255a565b526002610fee82612567565b525f610ff982612577565b5260405180938192631888debd60e01b8352608051946002600485016122e4565b03815f5f5160206125885f395f51905f525af180156114a8578e915f916115e3575b506110b79285908282156115d3575b156115c3575b61105e6040519485611b44565b60028452366080518501376110728361255a565b5261107c82612567565b526080516040519061108e9082611b44565b5f80825236813760405180938192631888debd60e01b835260805194600f60026004860161231c565b03815f5f5160206125885f395f51905f525af19081156114a8575f9161158f575b50608051604051611118916110ed9082611b44565b5f8082523681376040516111018782611b44565b6003815284366080518301376002610fe28261255a565b03815f5f5160206125885f395f51905f525af19081156114a8575f91611559575b506111cc91610f7061115083611158945087611ff2565b610f6261251f565b608051604051906111699082611b44565b5f80825236813760405161117d8782611b44565b60038152843660805183013760046111948261255a565b5260026111a082612567565b525f6111ab82612577565b5260405180948192631888debd60e01b8352608051946002600485016122e4565b03815f5f5160206125885f395f51905f525af19182156114a8575f92611521575b50610f7061115083611200945086611ff2565b906080515061124260405161121760805182611b44565b5f80825236813760405161122b8782611b44565b6003815283366080518301376006610fe28261255a565b03815f5f5160206125885f395f51905f525af19081156114a8575f916114eb575b506112b992610f706111508361127a945087611ff2565b93608051506040519161128f60805184611b44565b5f8084523681376112a36040519283611b44565b60038252366080518301376008610fe28261255a565b03815f5f5160206125885f395f51905f525af19081156114a8575f916114b7575b506112e491611ff2565b6112ec61251f565b6112f46123bf565b906112fe92612089565b6113079161216a565b9a61131191611e6f565b9061131b91611e6f565b9061132591611e6f565b9061132f91611e6f565b9061133991611e6f565b9061134391611e6f565b9061134d91611e6f565b936113578561221a565b611361828661227b565b61136a8161221a565b611374828261227b565b855f526080516006905260405f206024355f52608051528460405f2055855f526080516007905260405f206024355f526080515260405f2055600160a01b6001900360035416918261141f575b50505060405192602435817f26fc4ce3e31d2ac9b7b0e8176c0f0eec4025d028898c19644eb12750d75bbf208480a37fc5d660bf01d7f2156960a5ea5eda456222a444054c009346ceee0dab95194e0e6024359280a3815260805190f35b6040519060805182019260018060601b0319911b1682524260348201526034815261144b605482611b44565b519020813b156114b3575f916064839260405194859384926306cc173360e41b845260026004850152602435602485015260448401525af180156114a857611495575b80806113c1565b6114a191505f90611b44565b5f5f61148e565b6040513d5f823e3d90fd5b5f80fd5b90506080513d608051116114e4575b6114d08183611b44565b8160805191810103126114b357515f6112da565b503d6114c6565b90506080513d6080511161151a575b6115048183611b44565b8160805191810103126114b357516112b9611263565b503d6114fa565b91506080513d60805111611552575b61153a8184611b44565b8260805191810103126114b357905190610f706111ed565b503d611530565b90506080513d60805111611588575b6115728183611b44565b8160805191810103126114b357516111cc611139565b503d611568565b90506080513d608051116115bc575b6115a88183611b44565b8160805191810103126114b357515f6110d8565b503d61159e565b91506115cd6123bf565b91611051565b91506115dd6123bf565b9161104b565b9150506080513d60805111611615575b6115fd8183611b44565b8160805191810103126114b357518d906110b761103c565b503d6115f3565b50610f99610f7f610f7f610f7f610f7f610f7f610f7f61163c60016123fd565b9e610f48565b6101c061164f60016123fd565b98610f19565b9850506080513d60805111611685575b61166f818a611b44565b8860805191810103126114b3578b97515f610ef5565b503d611665565b506116956124e1565b610e6b565b90506116a46124e1565b90610e64565b506116b560016123fd565b95610ef8565b506116c660016123fd565b93610e35565b6002036116eb576116e5608051850151610d2a5f6123fd565b91610e09565b6116e560016123fd565b9550506080513d60805111611725575b61170f8187611b44565b8560805191810103126114b3578894515f610de1565b503d611705565b506117356124e1565b610d57565b90506117446124e1565b90610d50565b61175460016123fd565b97610d32565b90506080513d60805111611789575b6117738183611b44565b8160805191810103126114b35751610dbf610cfb565b503d611769565b506117996123bf565b610c72565b90506117a86123bf565b90610c6b565b9092506080513d608051116117dd575b6117c88183611b44565b8160805191810103126114b35751915f610c4e565b503d6117be565b9250610c2d906117f26123bf565b93909150610bb4565b94506118056123bf565b94610bad565b60405162461bcd60e51b8152602060048201526013602482015272547269616c206973206e6f742061637469766560681b6044820152606490fd5b61185b9194503d805f833e6106aa8183611b44565b925f610b87565b60405162461bcd60e51b815260206004820152601960248201527814185d1a595b9d081c1c9bd99a5b19481b9bdd08199bdd5b99603a1b6044820152606490fd5b9050610120813d821161195d575b816118bf6101209383611b44565b810103126114b3576040519061012082016001600160401b038111838210176119495761193d9161010091604052805184526020810151602085015260408101516040850152606081015160608501526080810151608085015260a081015160a085015260c081015160c085015260e081015160e085015201611bed565b6101008201525f610b40565b634e487b7160e01b5f52604160045260245ffd5b3d91506118b1565b60405162461bcd60e51b815260206004820152601b60248201527a14185d1a595b9d0818dbdb9cd95b9d081b9bdd0819dc985b9d1959602a1b6044820152606490fd5b90506020813d6020116119da575b816119c360209383611b44565b810103126114b3576119d490611bed565b5f610afd565b3d91506119b6565b60405162461bcd60e51b815260206004820152600c60248201526b155b985d5d1a1bdc9a5e995960a21b6044820152606490fd5b506004546001600160a01b03163314610ab5565b346114b35760403660031901126114b3576001600160a01b03611a4b611ae0565b168033148015611a81575b611a5f90611bb1565b5f52600660205260405f206024355f52602052602060405f2054604051908152f35b506004546001600160a01b03163314611a56565b346114b3575f3660031901126114b3576003546040516001600160a01b039091168152602090f35b346114b3575f3660031901126114b3576004546001600160a01b03168152602090f35b600435906001600160a01b03821682036114b357565b602435906001600160a01b03821682036114b357565b90600182811c92168015611b3a575b6020831014611b2657565b634e487b7160e01b5f52602260045260245ffd5b91607f1691611b1b565b601f909101601f19168101906001600160401b0382119082101761194957604052565b906004821015611b745752565b634e487b7160e01b5f52602160045260245ffd5b8054821015611b9d575f5260205f2001905f90565b634e487b7160e01b5f52603260045260245ffd5b15611bb857565b60405162461bcd60e51b815260206004820152600d60248201526c1058d8d95cdcc819195b9a5959609a1b6044820152606490fd5b519081151582036114b357565b81601f820112156114b3578051906001600160401b0382116119495760405192611c2e601f8401601f191660200185611b44565b828452602083830101116114b357815f9260208093018386015e8301015290565b519060ff821682036114b357565b519061ffff821682036114b357565b6020818303126114b3578051906001600160401b0382116114b35701610200818303126114b3576040519161020083016001600160401b038111848210176119495760405281516001600160401b0381116114b35781611ccd918401611bfa565b835260208201516001600160401b0381116114b35781611cee918401611bfa565b602084015260408201516001600160401b0381116114b35781611d12918401611bfa565b60408401526060820151906001600160401b0382116114b357611d36918301611bfa565b60608301526080810151906001600160a01b03821682036114b3576101e0916080840152611d6660a08201611bed565b60a0840152611d7760c08201611c4f565b60c0840152611d8860e08201611c4f565b60e0840152611d9a6101008201611bed565b610100840152611dad6101208201611c5d565b610120840152611dc06101408201611c4f565b610140840152611dd36101608201611c4f565b610160840152611de66101808201611c5d565b610180840152611df96101a08201611bed565b6101a0840152611e0c6101c08201611bed565b6101c084015201516101e082015290565b6040909392919360608101946003825260208201520152565b15611e3d57565b60405162461bcd60e51b815260206004820152600a60248201526927b7363c9037bbb732b960b11b6044820152606490fd5b908115611f46575b8015611f36575b60405191611e8d606084611b44565b600283526040366020850137611ea28361255a565b52611eac82612567565b52611ee76020809260405190611ec28383611b44565b5f82525f368137604051631888debd60e01b81529384928392600a5f6004860161231c565b03815f5f5160206125885f395f51905f525af19182156114a8575f92611f0c57505090565b90809250813d8311611f2f575b611f238183611b44565b810103126114b3575190565b503d611f19565b50611f4160016123fd565b611e7e565b9050611f5260016123fd565b90611e77565b908115611fe0575b8015611fd0575b60405191611f76606084611b44565b600283526040366020850137611f8b8361255a565b52611f9582612567565b52611ee76020809260405190611fab8383611b44565b5f82525f368137604051631888debd60e01b8152938492839260185f6004860161231c565b50611fdb60016123fd565b611f67565b9050611fec60016123fd565b90611f60565b908115612079575b801561206b575b60405191612010606084611b44565b6002835260403660208501376120258361255a565b5261202f82612567565b52611ee760208092604051906120458383611b44565b5f82525f368137604051631888debd60e01b81529384928392601260026004860161231c565b506120746123bf565b612001565b90506120836123bf565b90611ffa565b91908215612159575b801561214b575b811561213b575b604051926120af608085611b44565b6003845260603660208601376120c48461255a565b526120ce83612567565b526120d882612577565b5260209081612129604051926120ee8385611b44565b5f84525f368137611ee76040519485938493631888debd60e01b855260026004860152600460248601526080604486015260848501906122b1565b838103600319016064850152906122b1565b90506121456123bf565b906120a0565b506121546123bf565b612099565b91506121645f6123fd565b91612092565b9081156121f1575b80156121e3575b60405191612188606084611b44565b60028352604036602085013761219d8361255a565b526121a782612567565b52611ee760208092604051906121bd8383611b44565b5f82525f368137604051631888debd60e01b81529384928392600860026004860161231c565b506121ec6123bf565b612179565b90506121fb6123bf565b90612172565b9081526001600160a01b03909116602082015260400190565b5f5160206125885f395f51905f523b156114b3575f61224f9160405180938192631974142760e21b8352309060048401612201565b0381835f5160206125885f395f51905f525af180156114a85761226f5750565b5f61227991611b44565b565b5f5160206125885f395f51905f523b156114b357604051631974142760e21b8152915f918391829161224f919060048401612201565b90602080835192838152019201905f5b8181106122ce5750505090565b82518452602093840193909201916001016122c1565b9161230b9060ff6123199593168452601a60208501526080604085015260808401906122b1565b9160608184039101526122b1565b90565b9293919060ff1683526020811015611b74576123199361230b9160208501526080604085015260808401906122b1565b611ee7602080926040516123608382611b44565b5f81525f36813760405191612376608084611b44565b600383526060368585013761238a8361255a565b52600261239683612567565b525f6123a183612577565b52604051631888debd60e01b815293849283926002600485016122e4565b6020611ee7816040516123d28282611b44565b5f81525f368137604051906123e8608083611b44565b60038252606036848401375f61238a8361255a565b611ee7602080926040516124118382611b44565b5f81525f36813760405191612427608084611b44565b600383526060368585013761243b8361255a565b525f61244683612567565b525f61245183612577565b52604051631888debd60e01b815293849283925f600485016122e4565b611ee7602080926040516124828382611b44565b5f81525f36813760405191612498608084611b44565b60038352606036858501376124ac8361255a565b5260036124b883612567565b525f6124c383612577565b52604051631888debd60e01b815293849283926003600485016122e4565b6020611ee7816040516124f48282611b44565b5f81525f3681376040519061250a608083611b44565b60038252606036848401375f6124ac8361255a565b6020611ee7816040516125328282611b44565b5f81525f36813760405190612548608083611b44565b6003825260603684840137600161238a835b805115611b9d5760200190565b805160011015611b9d5760400190565b805160021015611b9d576060019056fe000000000000000000000000ea30c4b8b44078bbf8a6ef5b9f1ec1626c7848d9a164736f6c634300081b000a",
  "linkReferences": {},
  "deployedLinkReferences": {}
}