{
  "_format": "hh-sol-artifact-1",
  "contractName": "EligibilityEngine",
  "sourceName": "contracts/EligibilityEngine.sol",
  "abi": [
    {
      "inputs": [
        {
          "internalType": "address",
          "name": "_registry",
          "type": "address"
        },
        {
          "internalType": "address",
          "name": "_trialManager",
          "type": "address"
        },
        {
          "internalType": "address",
          "name": "_consentManager",
          "type": "address"
        }
      ],
      "stateMutability": "nonpayable",
      "type": "constructor"
    },
    {
      "inputs": [],
      "name": "ZamaProtocolUnsupported",
      "type": "error"
    },
    {
      "anonymous": false,
      "inputs": [
        {
          "indexed": true,
          "internalType": "uint8",
          "name": "kind",
          "type": "uint8"
        },
        {
          "indexed": false,
          "internalType": "uint40",
          "name": "newEpoch",
          "type": "uint40"
        },
        {
          "indexed": true,
          "internalType": "address",
          "name": "newConsumer",
          "type": "address"
        }
      ],
      "name": "AclEpochRotated",
      "type": "event"
    },
    {
      "anonymous": false,
      "inputs": [
        {
          "indexed": true,
          "internalType": "bytes32",
          "name": "handle",
          "type": "bytes32"
        },
        {
          "indexed": true,
          "internalType": "address",
          "name": "consumer",
          "type": "address"
        },
        {
          "indexed": false,
          "internalType": "uint40",
          "name": "epoch",
          "type": "uint40"
        },
        {
          "indexed": false,
          "internalType": "uint8",
          "name": "kind",
          "type": "uint8"
        }
      ],
      "name": "AclGranted",
      "type": "event"
    },
    {
      "anonymous": false,
      "inputs": [
        {
          "indexed": true,
          "internalType": "uint256",
          "name": "nullifier",
          "type": "uint256"
        },
        {
          "indexed": true,
          "internalType": "uint256",
          "name": "trialId",
          "type": "uint256"
        },
        {
          "indexed": false,
          "internalType": "enum EligibilityEngine.ApplicationStatus",
          "name": "status",
          "type": "uint8"
        }
      ],
      "name": "AnonymousApplicationStatusUpdated",
      "type": "event"
    },
    {
      "anonymous": false,
      "inputs": [
        {
          "indexed": true,
          "internalType": "uint256",
          "name": "nullifier",
          "type": "uint256"
        },
        {
          "indexed": true,
          "internalType": "uint256",
          "name": "trialId",
          "type": "uint256"
        }
      ],
      "name": "AnonymousEligibilityStageCancelled",
      "type": "event"
    },
    {
      "anonymous": false,
      "inputs": [
        {
          "indexed": true,
          "internalType": "uint256",
          "name": "nullifier",
          "type": "uint256"
        },
        {
          "indexed": true,
          "internalType": "uint256",
          "name": "trialId",
          "type": "uint256"
        },
        {
          "indexed": false,
          "internalType": "bytes32",
          "name": "finalCt",
          "type": "bytes32"
        }
      ],
      "name": "AnonymousEligibilityStaged",
      "type": "event"
    },
    {
      "anonymous": false,
      "inputs": [
        {
          "indexed": true,
          "internalType": "uint256",
          "name": "nullifier",
          "type": "uint256"
        },
        {
          "indexed": true,
          "internalType": "uint256",
          "name": "trialId",
          "type": "uint256"
        }
      ],
      "name": "AnonymousEncryptedPropensityCommitted",
      "type": "event"
    },
    {
      "anonymous": false,
      "inputs": [
        {
          "indexed": true,
          "internalType": "address",
          "name": "patient",
          "type": "address"
        },
        {
          "indexed": true,
          "internalType": "uint256",
          "name": "trialId",
          "type": "uint256"
        },
        {
          "indexed": false,
          "internalType": "enum EligibilityEngine.ApplicationStatus",
          "name": "status",
          "type": "uint8"
        },
        {
          "indexed": false,
          "internalType": "bytes",
          "name": "message",
          "type": "bytes"
        }
      ],
      "name": "ApplicationStatusUpdated",
      "type": "event"
    },
    {
      "anonymous": false,
      "inputs": [
        {
          "indexed": true,
          "internalType": "address",
          "name": "patient",
          "type": "address"
        },
        {
          "indexed": true,
          "internalType": "uint256",
          "name": "trialId",
          "type": "uint256"
        }
      ],
      "name": "AppliedToTrial",
      "type": "event"
    },
    {
      "anonymous": false,
      "inputs": [
        {
          "indexed": true,
          "internalType": "bytes32",
          "name": "role",
          "type": "bytes32"
        },
        {
          "indexed": false,
          "internalType": "address",
          "name": "oldAddr",
          "type": "address"
        },
        {
          "indexed": false,
          "internalType": "address",
          "name": "newAddr",
          "type": "address"
        }
      ],
      "name": "AuthorizedReaderChanged",
      "type": "event"
    },
    {
      "anonymous": false,
      "inputs": [
        {
          "indexed": true,
          "internalType": "uint256",
          "name": "commitment",
          "type": "uint256"
        },
        {
          "indexed": false,
          "internalType": "uint256",
          "name": "trialCount",
          "type": "uint256"
        }
      ],
      "name": "BatchEligibilityComputed",
      "type": "event"
    },
    {
      "anonymous": false,
      "inputs": [
        {
          "indexed": true,
          "internalType": "uint256",
          "name": "commitment",
          "type": "uint256"
        },
        {
          "indexed": true,
          "internalType": "uint256",
          "name": "trialId",
          "type": "uint256"
        },
        {
          "indexed": true,
          "internalType": "uint256",
          "name": "nullifier",
          "type": "uint256"
        }
      ],
      "name": "BatchEligibilityTrialChecked",
      "type": "event"
    },
    {
      "anonymous": false,
      "inputs": [
        {
          "indexed": true,
          "internalType": "uint256",
          "name": "nullifier",
          "type": "uint256"
        },
        {
          "indexed": true,
          "internalType": "uint256",
          "name": "trialId",
          "type": "uint256"
        }
      ],
      "name": "DocumentSponsorAuthorizeSkipped",
      "type": "event"
    },
    {
      "anonymous": false,
      "inputs": [
        {
          "indexed": true,
          "internalType": "address",
          "name": "patient",
          "type": "address"
        },
        {
          "indexed": true,
          "internalType": "uint256",
          "name": "trialId",
          "type": "uint256"
        }
      ],
      "name": "EligibilityComputed",
      "type": "event"
    },
    {
      "anonymous": false,
      "inputs": [
        {
          "indexed": true,
          "internalType": "uint256",
          "name": "nullifier",
          "type": "uint256"
        },
        {
          "indexed": true,
          "internalType": "uint256",
          "name": "trialId",
          "type": "uint256"
        },
        {
          "indexed": false,
          "internalType": "bytes32",
          "name": "resultHash",
          "type": "bytes32"
        },
        {
          "indexed": false,
          "internalType": "bytes32",
          "name": "fheStageHash",
          "type": "bytes32"
        },
        {
          "indexed": false,
          "internalType": "bytes32",
          "name": "criteriaSchemaHash",
          "type": "bytes32"
        },
        {
          "indexed": false,
          "internalType": "bool",
          "name": "eligible",
          "type": "bool"
        }
      ],
      "name": "EligibilityProofVerified",
      "type": "event"
    },
    {
      "anonymous": false,
      "inputs": [
        {
          "indexed": true,
          "internalType": "address",
          "name": "patient",
          "type": "address"
        },
        {
          "indexed": true,
          "internalType": "uint256",
          "name": "trialId",
          "type": "uint256"
        }
      ],
      "name": "EligibilityScoreComputed",
      "type": "event"
    },
    {
      "anonymous": false,
      "inputs": [
        {
          "indexed": true,
          "internalType": "address",
          "name": "newOwner",
          "type": "address"
        }
      ],
      "name": "OwnershipAccepted",
      "type": "event"
    },
    {
      "anonymous": false,
      "inputs": [
        {
          "indexed": true,
          "internalType": "address",
          "name": "proposedOwner",
          "type": "address"
        }
      ],
      "name": "OwnershipProposed",
      "type": "event"
    },
    {
      "anonymous": false,
      "inputs": [
        {
          "indexed": true,
          "internalType": "uint256",
          "name": "trialId",
          "type": "uint256"
        },
        {
          "indexed": true,
          "internalType": "uint256",
          "name": "nullifier",
          "type": "uint256"
        }
      ],
      "name": "ScoreLeaderboardAggregateFailed",
      "type": "event"
    },
    {
      "anonymous": false,
      "inputs": [
        {
          "indexed": true,
          "internalType": "uint256",
          "name": "trialId",
          "type": "uint256"
        },
        {
          "indexed": true,
          "internalType": "uint256",
          "name": "nullifier",
          "type": "uint256"
        }
      ],
      "name": "ScoreLeaderboardApplicantFailed",
      "type": "event"
    },
    {
      "anonymous": false,
      "inputs": [
        {
          "indexed": true,
          "internalType": "uint256",
          "name": "nullifier",
          "type": "uint256"
        },
        {
          "indexed": true,
          "internalType": "uint256",
          "name": "trialId",
          "type": "uint256"
        }
      ],
      "name": "SilentApply",
      "type": "event"
    },
    {
      "inputs": [],
      "name": "CRITERIA_SCHEMA_HASH",
      "outputs": [
        {
          "internalType": "bytes32",
          "name": "",
          "type": "bytes32"
        }
      ],
      "stateMutability": "view",
      "type": "function"
    },
    {
      "inputs": [],
      "name": "DOC_SCHEMA_HASH",
      "outputs": [
        {
          "internalType": "bytes32",
          "name": "",
          "type": "bytes32"
        }
      ],
      "stateMutability": "view",
      "type": "function"
    },
    {
      "inputs": [],
      "name": "ELIGIBILITY_ENCRYPTED_PUBLIC_INPUT_COUNT",
      "outputs": [
        {
          "internalType": "uint256",
          "name": "",
          "type": "uint256"
        }
      ],
      "stateMutability": "view",
      "type": "function"
    },
    {
      "inputs": [],
      "name": "ELIGIBILITY_PUBLIC_INPUT_COUNT",
      "outputs": [
        {
          "internalType": "uint256",
          "name": "",
          "type": "uint256"
        }
      ],
      "stateMutability": "view",
      "type": "function"
    },
    {
      "inputs": [],
      "name": "READER_CHANGE_DELAY",
      "outputs": [
        {
          "internalType": "uint256",
          "name": "",
          "type": "uint256"
        }
      ],
      "stateMutability": "view",
      "type": "function"
    },
    {
      "inputs": [],
      "name": "STAGING_TTL",
      "outputs": [
        {
          "internalType": "uint256",
          "name": "",
          "type": "uint256"
        }
      ],
      "stateMutability": "view",
      "type": "function"
    },
    {
      "inputs": [],
      "name": "acceptOwnership",
      "outputs": [],
      "stateMutability": "nonpayable",
      "type": "function"
    },
    {
      "inputs": [
        {
          "internalType": "uint8",
          "name": "kind",
          "type": "uint8"
        }
      ],
      "name": "aclEpochForKind",
      "outputs": [
        {
          "internalType": "uint40",
          "name": "",
          "type": "uint40"
        }
      ],
      "stateMutability": "view",
      "type": "function"
    },
    {
      "inputs": [
        {
          "internalType": "uint256",
          "name": "",
          "type": "uint256"
        },
        {
          "internalType": "uint256",
          "name": "",
          "type": "uint256"
        }
      ],
      "name": "anonymousApplicationAccepted",
      "outputs": [
        {
          "internalType": "bool",
          "name": "",
          "type": "bool"
        }
      ],
      "stateMutability": "view",
      "type": "function"
    },
    {
      "inputs": [
        {
          "internalType": "uint256",
          "name": "",
          "type": "uint256"
        },
        {
          "internalType": "uint256",
          "name": "",
          "type": "uint256"
        }
      ],
      "name": "anonymousApplications",
      "outputs": [
        {
          "internalType": "enum EligibilityEngine.ApplicationStatus",
          "name": "",
          "type": "uint8"
        }
      ],
      "stateMutability": "view",
      "type": "function"
    },
    {
      "inputs": [
        {
          "internalType": "bytes32",
          "name": "_role",
          "type": "bytes32"
        }
      ],
      "name": "applyAuthorizedReader",
      "outputs": [],
      "stateMutability": "nonpayable",
      "type": "function"
    },
    {
      "inputs": [],
      "name": "applyDataAccessLog",
      "outputs": [],
      "stateMutability": "nonpayable",
      "type": "function"
    },
    {
      "inputs": [
        {
          "internalType": "uint256",
          "name": "",
          "type": "uint256"
        },
        {
          "internalType": "uint256",
          "name": "",
          "type": "uint256"
        }
      ],
      "name": "attestationCriteriaSchemaHashes",
      "outputs": [
        {
          "internalType": "bytes32",
          "name": "",
          "type": "bytes32"
        }
      ],
      "stateMutability": "view",
      "type": "function"
    },
    {
      "inputs": [
        {
          "internalType": "uint256",
          "name": "",
          "type": "uint256"
        },
        {
          "internalType": "uint256",
          "name": "",
          "type": "uint256"
        }
      ],
      "name": "attestationFheStageHashes",
      "outputs": [
        {
          "internalType": "bytes32",
          "name": "",
          "type": "bytes32"
        }
      ],
      "stateMutability": "view",
      "type": "function"
    },
    {
      "inputs": [
        {
          "internalType": "uint256",
          "name": "",
          "type": "uint256"
        },
        {
          "internalType": "uint256",
          "name": "",
          "type": "uint256"
        }
      ],
      "name": "attestationProfileCommitments",
      "outputs": [
        {
          "internalType": "bytes32",
          "name": "",
          "type": "bytes32"
        }
      ],
      "stateMutability": "view",
      "type": "function"
    },
    {
      "inputs": [
        {
          "internalType": "uint256",
          "name": "_nullifier",
          "type": "uint256"
        },
        {
          "internalType": "uint256",
          "name": "_trialId",
          "type": "uint256"
        }
      ],
      "name": "attestationReceipt",
      "outputs": [
        {
          "components": [
            {
              "internalType": "bool",
              "name": "verified",
              "type": "bool"
            },
            {
              "internalType": "bytes32",
              "name": "resultHash",
              "type": "bytes32"
            },
            {
              "internalType": "bytes32",
              "name": "profileCommitment",
              "type": "bytes32"
            },
            {
              "internalType": "bytes32",
              "name": "criteriaSchemaHash",
              "type": "bytes32"
            },
            {
              "internalType": "bytes32",
              "name": "fheStageHash",
              "type": "bytes32"
            }
          ],
          "internalType": "struct EligibilityEngine.AttestationReceipt",
          "name": "",
          "type": "tuple"
        }
      ],
      "stateMutability": "view",
      "type": "function"
    },
    {
      "inputs": [],
      "name": "authorizedRegistry",
      "outputs": [
        {
          "internalType": "address",
          "name": "",
          "type": "address"
        }
      ],
      "stateMutability": "view",
      "type": "function"
    },
    {
      "inputs": [],
      "name": "automationContract",
      "outputs": [
        {
          "internalType": "address",
          "name": "",
          "type": "address"
        }
      ],
      "stateMutability": "view",
      "type": "function"
    },
    {
      "inputs": [
        {
          "internalType": "uint256",
          "name": "",
          "type": "uint256"
        },
        {
          "internalType": "uint256",
          "name": "",
          "type": "uint256"
        }
      ],
      "name": "batchEligibilityChecked",
      "outputs": [
        {
          "internalType": "bool",
          "name": "",
          "type": "bool"
        }
      ],
      "stateMutability": "view",
      "type": "function"
    },
    {
      "inputs": [
        {
          "internalType": "bytes32",
          "name": "_role",
          "type": "bytes32"
        }
      ],
      "name": "cancelAuthorizedReaderSchedule",
      "outputs": [],
      "stateMutability": "nonpayable",
      "type": "function"
    },
    {
      "inputs": [
        {
          "internalType": "uint256",
          "name": "_nullifier",
          "type": "uint256"
        },
        {
          "internalType": "uint256",
          "name": "_trialId",
          "type": "uint256"
        },
        {
          "internalType": "address",
          "name": "_permitRecipient",
          "type": "address"
        }
      ],
      "name": "cancelStagedAnonymousEligibility",
      "outputs": [],
      "stateMutability": "nonpayable",
      "type": "function"
    },
    {
      "inputs": [
        {
          "internalType": "uint256",
          "name": "_commitment",
          "type": "uint256"
        },
        {
          "internalType": "uint256[]",
          "name": "_trialIds",
          "type": "uint256[]"
        },
        {
          "internalType": "uint256[]",
          "name": "_nullifiers",
          "type": "uint256[]"
        },
        {
          "internalType": "address",
          "name": "_permitRecipient",
          "type": "address"
        }
      ],
      "name": "checkEligibilityBatch",
      "outputs": [
        {
          "internalType": "bytes32[]",
          "name": "finalCts",
          "type": "bytes32[]"
        }
      ],
      "stateMutability": "nonpayable",
      "type": "function"
    },
    {
      "inputs": [],
      "name": "confidentialProtocolId",
      "outputs": [
        {
          "internalType": "uint256",
          "name": "",
          "type": "uint256"
        }
      ],
      "stateMutability": "view",
      "type": "function"
    },
    {
      "inputs": [],
      "name": "consentGate",
      "outputs": [
        {
          "internalType": "contract EncryptedConsentGate",
          "name": "",
          "type": "address"
        }
      ],
      "stateMutability": "view",
      "type": "function"
    },
    {
      "inputs": [],
      "name": "consentManager",
      "outputs": [
        {
          "internalType": "contract ConsentManager",
          "name": "",
          "type": "address"
        }
      ],
      "stateMutability": "view",
      "type": "function"
    },
    {
      "inputs": [],
      "name": "dataAccessLog",
      "outputs": [
        {
          "internalType": "contract DataAccessLog",
          "name": "",
          "type": "address"
        }
      ],
      "stateMutability": "view",
      "type": "function"
    },
    {
      "inputs": [],
      "name": "dataAccessLogChangeEta",
      "outputs": [
        {
          "internalType": "uint256",
          "name": "",
          "type": "uint256"
        }
      ],
      "stateMutability": "view",
      "type": "function"
    },
    {
      "inputs": [],
      "name": "eligibilityVerifier",
      "outputs": [
        {
          "internalType": "contract IHonkVerifier",
          "name": "",
          "type": "address"
        }
      ],
      "stateMutability": "view",
      "type": "function"
    },
    {
      "inputs": [],
      "name": "eligibilityVerifierEncrypted",
      "outputs": [
        {
          "internalType": "contract IHonkVerifier",
          "name": "",
          "type": "address"
        }
      ],
      "stateMutability": "view",
      "type": "function"
    },
    {
      "inputs": [
        {
          "internalType": "uint256",
          "name": "_trialId",
          "type": "uint256"
        }
      ],
      "name": "encryptedCriteriaBindingHash",
      "outputs": [
        {
          "internalType": "bytes32",
          "name": "",
          "type": "bytes32"
        }
      ],
      "stateMutability": "view",
      "type": "function"
    },
    {
      "inputs": [
        {
          "internalType": "uint256",
          "name": "_commitment",
          "type": "uint256"
        },
        {
          "internalType": "uint256",
          "name": "_nullifier",
          "type": "uint256"
        },
        {
          "internalType": "uint256",
          "name": "_trialId",
          "type": "uint256"
        },
        {
          "internalType": "address",
          "name": "_permitRecipient",
          "type": "address"
        },
        {
          "internalType": "address",
          "name": "_consentWallet",
          "type": "address"
        },
        {
          "internalType": "ebool",
          "name": "_consent",
          "type": "bytes32"
        },
        {
          "internalType": "bytes",
          "name": "_proof",
          "type": "bytes"
        },
        {
          "internalType": "bytes32[]",
          "name": "_publicInputs",
          "type": "bytes32[]"
        }
      ],
      "name": "finalizeAnonymousEligibilityWithConsent",
      "outputs": [
        {
          "internalType": "ebool",
          "name": "finalResult",
          "type": "bytes32"
        }
      ],
      "stateMutability": "nonpayable",
      "type": "function"
    },
    {
      "inputs": [
        {
          "internalType": "uint256",
          "name": "_commitment",
          "type": "uint256"
        },
        {
          "internalType": "uint256",
          "name": "_nullifier",
          "type": "uint256"
        },
        {
          "internalType": "uint256",
          "name": "_trialId",
          "type": "uint256"
        },
        {
          "internalType": "address",
          "name": "_permitRecipient",
          "type": "address"
        },
        {
          "internalType": "address",
          "name": "_consentWallet",
          "type": "address"
        },
        {
          "internalType": "bytes",
          "name": "_proof",
          "type": "bytes"
        },
        {
          "internalType": "bytes32[]",
          "name": "_publicInputs",
          "type": "bytes32[]"
        }
      ],
      "name": "finalizeAnonymousEligibilityWithProof",
      "outputs": [
        {
          "internalType": "ebool",
          "name": "finalResult",
          "type": "bytes32"
        }
      ],
      "stateMutability": "nonpayable",
      "type": "function"
    },
    {
      "inputs": [
        {
          "internalType": "uint256",
          "name": "_nullifier",
          "type": "uint256"
        },
        {
          "internalType": "uint256",
          "name": "_trialId",
          "type": "uint256"
        }
      ],
      "name": "getAnonymousApplicationStatus",
      "outputs": [
        {
          "internalType": "enum EligibilityEngine.ApplicationStatus",
          "name": "",
          "type": "uint8"
        }
      ],
      "stateMutability": "view",
      "type": "function"
    },
    {
      "inputs": [
        {
          "internalType": "uint256",
          "name": "_nullifier",
          "type": "uint256"
        },
        {
          "internalType": "uint256",
          "name": "_trialId",
          "type": "uint256"
        }
      ],
      "name": "getAnonymousResult",
      "outputs": [
        {
          "internalType": "ebool",
          "name": "",
          "type": "bytes32"
        }
      ],
      "stateMutability": "view",
      "type": "function"
    },
    {
      "inputs": [
        {
          "internalType": "uint256",
          "name": "_nullifier",
          "type": "uint256"
        },
        {
          "internalType": "uint256",
          "name": "_trialId",
          "type": "uint256"
        }
      ],
      "name": "getAnonymousResultForVault",
      "outputs": [
        {
          "internalType": "ebool",
          "name": "",
          "type": "bytes32"
        }
      ],
      "stateMutability": "view",
      "type": "function"
    },
    {
      "inputs": [
        {
          "internalType": "uint256",
          "name": "_nullifier",
          "type": "uint256"
        },
        {
          "internalType": "uint256",
          "name": "_trialId",
          "type": "uint256"
        }
      ],
      "name": "getAnonymousScore",
      "outputs": [
        {
          "internalType": "euint8",
          "name": "",
          "type": "bytes32"
        }
      ],
      "stateMutability": "view",
      "type": "function"
    },
    {
      "inputs": [
        {
          "internalType": "uint256",
          "name": "_nullifier",
          "type": "uint256"
        },
        {
          "internalType": "uint256",
          "name": "_trialId",
          "type": "uint256"
        }
      ],
      "name": "getConsentWalletForNullifier",
      "outputs": [
        {
          "internalType": "address",
          "name": "",
          "type": "address"
        }
      ],
      "stateMutability": "view",
      "type": "function"
    },
    {
      "inputs": [
        {
          "internalType": "uint256",
          "name": "_nullifier",
          "type": "uint256"
        },
        {
          "internalType": "uint256",
          "name": "_trialId",
          "type": "uint256"
        }
      ],
      "name": "getDecryptPermitHolder",
      "outputs": [
        {
          "internalType": "address",
          "name": "",
          "type": "address"
        }
      ],
      "stateMutability": "view",
      "type": "function"
    },
    {
      "inputs": [
        {
          "internalType": "address",
          "name": "_patient",
          "type": "address"
        },
        {
          "internalType": "uint256",
          "name": "_trialId",
          "type": "uint256"
        }
      ],
      "name": "getEncryptedResult",
      "outputs": [
        {
          "internalType": "ebool",
          "name": "",
          "type": "bytes32"
        }
      ],
      "stateMutability": "view",
      "type": "function"
    },
    {
      "inputs": [
        {
          "internalType": "address",
          "name": "_patient",
          "type": "address"
        },
        {
          "internalType": "uint256",
          "name": "_trialId",
          "type": "uint256"
        }
      ],
      "name": "getEncryptedScore",
      "outputs": [
        {
          "internalType": "euint8",
          "name": "",
          "type": "bytes32"
        }
      ],
      "stateMutability": "view",
      "type": "function"
    },
    {
      "inputs": [
        {
          "internalType": "uint256",
          "name": "_nullifier",
          "type": "uint256"
        },
        {
          "internalType": "uint256",
          "name": "_trialId",
          "type": "uint256"
        }
      ],
      "name": "isAnonymousApplicationAccepted",
      "outputs": [
        {
          "internalType": "bool",
          "name": "",
          "type": "bool"
        }
      ],
      "stateMutability": "view",
      "type": "function"
    },
    {
      "inputs": [],
      "name": "legacyPatientRegistry",
      "outputs": [
        {
          "internalType": "address",
          "name": "",
          "type": "address"
        }
      ],
      "stateMutability": "view",
      "type": "function"
    },
    {
      "inputs": [
        {
          "internalType": "uint256",
          "name": "",
          "type": "uint256"
        },
        {
          "internalType": "uint256",
          "name": "",
          "type": "uint256"
        }
      ],
      "name": "noirResultHashes",
      "outputs": [
        {
          "internalType": "bytes32",
          "name": "",
          "type": "bytes32"
        }
      ],
      "stateMutability": "view",
      "type": "function"
    },
    {
      "inputs": [
        {
          "internalType": "uint256",
          "name": "",
          "type": "uint256"
        },
        {
          "internalType": "uint256",
          "name": "",
          "type": "uint256"
        }
      ],
      "name": "noirVerifiedResults",
      "outputs": [
        {
          "internalType": "bool",
          "name": "",
          "type": "bool"
        }
      ],
      "stateMutability": "view",
      "type": "function"
    },
    {
      "inputs": [
        {
          "internalType": "uint256",
          "name": "_trialId",
          "type": "uint256"
        },
        {
          "internalType": "uint256",
          "name": "_nullifier",
          "type": "uint256"
        }
      ],
      "name": "onDocumentRecorded",
      "outputs": [],
      "stateMutability": "nonpayable",
      "type": "function"
    },
    {
      "inputs": [],
      "name": "owner",
      "outputs": [
        {
          "internalType": "address",
          "name": "",
          "type": "address"
        }
      ],
      "stateMutability": "view",
      "type": "function"
    },
    {
      "inputs": [],
      "name": "patientDocumentStore",
      "outputs": [
        {
          "internalType": "contract PatientDocumentStore",
          "name": "",
          "type": "address"
        }
      ],
      "stateMutability": "view",
      "type": "function"
    },
    {
      "inputs": [],
      "name": "patientRegistry",
      "outputs": [
        {
          "internalType": "contract IAnonymousPatientRegistry",
          "name": "",
          "type": "address"
        }
      ],
      "stateMutability": "view",
      "type": "function"
    },
    {
      "inputs": [],
      "name": "pendingDataAccessLog",
      "outputs": [
        {
          "internalType": "address",
          "name": "",
          "type": "address"
        }
      ],
      "stateMutability": "view",
      "type": "function"
    },
    {
      "inputs": [],
      "name": "pendingOwner",
      "outputs": [
        {
          "internalType": "address",
          "name": "",
          "type": "address"
        }
      ],
      "stateMutability": "view",
      "type": "function"
    },
    {
      "inputs": [
        {
          "internalType": "bytes32",
          "name": "",
          "type": "bytes32"
        }
      ],
      "name": "pendingReaderChanges",
      "outputs": [
        {
          "internalType": "address",
          "name": "",
          "type": "address"
        }
      ],
      "stateMutability": "view",
      "type": "function"
    },
    {
      "inputs": [
        {
          "internalType": "address",
          "name": "_newOwner",
          "type": "address"
        }
      ],
      "name": "proposeOwnership",
      "outputs": [],
      "stateMutability": "nonpayable",
      "type": "function"
    },
    {
      "inputs": [
        {
          "internalType": "bytes32",
          "name": "",
          "type": "bytes32"
        }
      ],
      "name": "readerChangeEta",
      "outputs": [
        {
          "internalType": "uint256",
          "name": "",
          "type": "uint256"
        }
      ],
      "stateMutability": "view",
      "type": "function"
    },
    {
      "inputs": [
        {
          "internalType": "uint256",
          "name": "_commitment",
          "type": "uint256"
        },
        {
          "internalType": "uint256",
          "name": "_trialId",
          "type": "uint256"
        }
      ],
      "name": "resetBatchEligibilityCheck",
      "outputs": [],
      "stateMutability": "nonpayable",
      "type": "function"
    },
    {
      "inputs": [
        {
          "internalType": "uint8",
          "name": "kind",
          "type": "uint8"
        },
        {
          "internalType": "address",
          "name": "newConsumer",
          "type": "address"
        }
      ],
      "name": "rotateTrustedContract",
      "outputs": [],
      "stateMutability": "nonpayable",
      "type": "function"
    },
    {
      "inputs": [
        {
          "internalType": "bytes32",
          "name": "_role",
          "type": "bytes32"
        },
        {
          "internalType": "address",
          "name": "_newAddr",
          "type": "address"
        }
      ],
      "name": "scheduleAuthorizedReader",
      "outputs": [],
      "stateMutability": "nonpayable",
      "type": "function"
    },
    {
      "inputs": [
        {
          "internalType": "address",
          "name": "_log",
          "type": "address"
        }
      ],
      "name": "scheduleDataAccessLog",
      "outputs": [],
      "stateMutability": "nonpayable",
      "type": "function"
    },
    {
      "inputs": [],
      "name": "scoreLeaderboard",
      "outputs": [
        {
          "internalType": "address",
          "name": "",
          "type": "address"
        }
      ],
      "stateMutability": "view",
      "type": "function"
    },
    {
      "inputs": [
        {
          "internalType": "address",
          "name": "_registry",
          "type": "address"
        }
      ],
      "name": "setAuthorizedRegistry",
      "outputs": [],
      "stateMutability": "nonpayable",
      "type": "function"
    },
    {
      "inputs": [
        {
          "internalType": "address",
          "name": "_automation",
          "type": "address"
        }
      ],
      "name": "setAutomationContract",
      "outputs": [],
      "stateMutability": "nonpayable",
      "type": "function"
    },
    {
      "inputs": [
        {
          "internalType": "address",
          "name": "_gate",
          "type": "address"
        }
      ],
      "name": "setConsentGate",
      "outputs": [],
      "stateMutability": "nonpayable",
      "type": "function"
    },
    {
      "inputs": [
        {
          "internalType": "address",
          "name": "_log",
          "type": "address"
        }
      ],
      "name": "setDataAccessLog",
      "outputs": [],
      "stateMutability": "nonpayable",
      "type": "function"
    },
    {
      "inputs": [
        {
          "internalType": "address",
          "name": "_verifier",
          "type": "address"
        }
      ],
      "name": "setEligibilityVerifier",
      "outputs": [],
      "stateMutability": "nonpayable",
      "type": "function"
    },
    {
      "inputs": [
        {
          "internalType": "address",
          "name": "_legacy",
          "type": "address"
        }
      ],
      "name": "setLegacyPatientRegistry",
      "outputs": [],
      "stateMutability": "nonpayable",
      "type": "function"
    },
    {
      "inputs": [
        {
          "internalType": "address",
          "name": "_leaderboard",
          "type": "address"
        }
      ],
      "name": "setScoreLeaderboard",
      "outputs": [],
      "stateMutability": "nonpayable",
      "type": "function"
    },
    {
      "inputs": [
        {
          "internalType": "address",
          "name": "_vault",
          "type": "address"
        }
      ],
      "name": "setSponsorIncentiveVault",
      "outputs": [],
      "stateMutability": "nonpayable",
      "type": "function"
    },
    {
      "inputs": [
        {
          "internalType": "uint256",
          "name": "",
          "type": "uint256"
        },
        {
          "internalType": "uint256",
          "name": "",
          "type": "uint256"
        }
      ],
      "name": "silentApplyOutcome",
      "outputs": [
        {
          "internalType": "enum EligibilityEngine.SilentApplyOutcome",
          "name": "",
          "type": "uint8"
        }
      ],
      "stateMutability": "view",
      "type": "function"
    },
    {
      "inputs": [],
      "name": "sponsorIncentiveVault",
      "outputs": [
        {
          "internalType": "address",
          "name": "",
          "type": "address"
        }
      ],
      "stateMutability": "view",
      "type": "function"
    },
    {
      "inputs": [
        {
          "internalType": "uint256",
          "name": "_commitment",
          "type": "uint256"
        },
        {
          "internalType": "uint256",
          "name": "_trialId",
          "type": "uint256"
        },
        {
          "internalType": "uint256",
          "name": "_nullifier",
          "type": "uint256"
        },
        {
          "internalType": "address",
          "name": "_permitRecipient",
          "type": "address"
        }
      ],
      "name": "stageAnonymousEligibility",
      "outputs": [
        {
          "internalType": "bytes32",
          "name": "finalCt",
          "type": "bytes32"
        }
      ],
      "stateMutability": "nonpayable",
      "type": "function"
    },
    {
      "inputs": [],
      "name": "trialManager",
      "outputs": [
        {
          "internalType": "contract TrialManager",
          "name": "",
          "type": "address"
        }
      ],
      "stateMutability": "view",
      "type": "function"
    },
    {
      "inputs": [
        {
          "internalType": "uint256",
          "name": "_trialId",
          "type": "uint256"
        },
        {
          "internalType": "uint256",
          "name": "_nullifier",
          "type": "uint256"
        },
        {
          "internalType": "enum EligibilityEngine.ApplicationStatus",
          "name": "_status",
          "type": "uint8"
        }
      ],
      "name": "updateAnonymousApplicationStatus",
      "outputs": [],
      "stateMutability": "nonpayable",
      "type": "function"
    },
    {
      "inputs": [
        {
          "internalType": "uint256",
          "name": "_trialId",
          "type": "uint256"
        },
        {
          "internalType": "address",
          "name": "_patient",
          "type": "address"
        },
        {
          "internalType": "enum EligibilityEngine.ApplicationStatus",
          "name": "_status",
          "type": "uint8"
        },
        {
          "internalType": "bytes",
          "name": "_message",
          "type": "bytes"
        }
      ],
      "name": "updateApplicationStatus",
      "outputs": [],
      "stateMutability": "nonpayable",
      "type": "function"
    }
  ],
  "bytecode": "0x60806040523461032157604051601f61585638819003918201601f19168301916001600160401b03831184841017610325578084926060946040528339810103126103215761004d81610358565b90610066604061005f60208401610358565b9201610358565b9161006f61036c565b504660010361023d5761008061036c565b50610089610339565b73ca2e8f1f656cd25c01f05d0b243ab1ecd4a8ffb6815273d82385dada1ae3e969447f20a3164f6213100e7560208201527377627828a55156b04ac0dc0eb30467f1a552bb0360408201525b80517f9e7b61f58c47dc699ac88507c4f5bb9f121c03808c5676a8078fe583e464970080546001600160a01b03199081166001600160a01b039384161790915560208301517f9e7b61f58c47dc699ac88507c4f5bb9f121c03808c5676a8078fe583e4649701805483169184169190911790556040909201517f9e7b61f58c47dc699ac88507c4f5bb9f121c03808c5676a8078fe583e4649702805490931690821617909155168015158061022b575b80610219575b156101e557600a80546001600160a01b031990811633179091555f80548216929092179091556002805482166001600160a01b0393841617905560038054909116929091169190911790556040516154cf90816103878239f35b60405162461bcd60e51b815260206004820152600c60248201526b5a65726f206164647265737360a01b6044820152606490fd5b506001600160a01b038316151561018b565b506001600160a01b0382161515610185565b4662aa36a7036102a85761024f61036c565b50610258610339565b73f0ffdc93b7e186bc2f8cb3daa75d86d1930a433d81527392c920834ec8941d2c77d188936e1f7a6f49c127602082015273be0e383937d564d7ff0bc3b46c51f0bf8d5c311a60408201526100d5565b46617a6903610312576102b961036c565b506102c2610339565b7350157cffd6bbfa2dece204a89ec419c23ef5755d815273e3a9105a3a932253a70f126eb1e3b589c643dd24602082015273901f8942346f7ab3a01f6d7613119bca447bb03060408201526100d5565b6373cac13b60e01b5f5260045ffd5b5f80fd5b634e487b7160e01b5f52604160045260245ffd5b60405190606082016001600160401b0381118382101761032557604052565b51906001600160a01b038216820361032157565b610374610339565b905f82525f60208301525f604083015256fe6101206040526004361015610012575f80fd5b5f5f3560e01c806303a042fc14612df657806305e2053714612e5f5780630689d5ed14612e375780630798230914612e0f578063090741a014612df65780630d35e56f14612d695780630fcba9b214612c6b578063112476ae14612c43578063163745af14612c1b578063188721ad14612be75780631928a51814612ab05780631ac3ee2a14612a215780631b785e25146129f25780631e68fd8e1461290a5780631f9d9d23146128db57806323738e34146128bf57806328cec8ac14612444578063291dc1ce146124295780632a5f95c11461231d5780632d0391ba146122f05780632d7306e0146122c75780632e75b09e146122ab5780632e8ff563146122415780632ff2b14d146121f357806334e8bbc1146121c957806339436aa3146121ab578063467cd4f014610c95578063475bf997146121825780635250c6e21461215b57806355f8cfdd1461213257806358af3a73146121055780635d73f544146120dc5780636276c7b31461062d57806362909f0a1461062d57806366d0b65c1461062d5780636808d27214612086578063710bf3221461200a5780637390364614611fec57806373ca56ee14611fc257806379ba509714611f215780637f8c99d714611eef578063837e0fa514611e9e5780638927b03014611e835780638c7784b314611bb85780638da5cb5b14611b8f578063917cebb914611b5d578063972a6ddf146117665780639d3f0618146116f25780639f9b48bc1461167e578063a14ea2b814611655578063a232409d1461123e578063ab03380214610dad578063b19e562814610ccc578063b6e4033f14610c95578063bd2f086c14610c62578063c0b21fd014610c10578063c6bb653114610be7578063c6c0b5cc14610b63578063cd5d36dd14610a47578063d8332aa7146109ce578063dfed353214610889578063e1cfaf2814610860578063e30c397814610837578063e59ac6ba146106cf578063e5ae6f591461064c578063e6414e371461062d578063e75bb26614610604578063e9d0e3ef146105a3578063ed3b658b14610454578063f1bc7aef1461042b578063f520f24f1461039f5763fda0fbb814610333575f80fd5b3461039c57604036600319011261039c576020906040906001600160a01b0361035a612e87565b168033148015610388575b61036e90613502565b8152601a8352818120602435825283522054604051908152f35b506009546001600160a01b03163314610365565b80fd5b503461039c57602036600319011261039c576103b9612e87565b506103cf60018060a01b03600a54163314612f6f565b60405162461bcd60e51b815260206004820152602e60248201527f557365207363686564756c65446174614163636573734c6f67202b206170706c60448201526d79446174614163636573734c6f6760901b6064820152608490fd5b503461039c578060031936011261039c576008546040516001600160a01b039091168152602090f35b503461039c5761010036600319011261039c57604435610472612eb3565b61047a612ec9565b60a435929060c4356001600160401b03811161059f5761049e903690600401612ef5565b93909260e4356001600160401b03811161059b576104c0903690600401612f22565b9790966104d860018060a01b03600c5416331461336f565b6001600160a01b038516906104ee82151561372d565b6104f781614e75565b5060035461050e906001600160a01b031682614eb1565b506003546001600160a01b031691823b1561059757906064849283604051958694859363543d34b960e01b8552600485015289602485015260448401525af1801561058c57610577575b602061056f8a8a8a8a8a8a8a602435600435613772565b604051908152f35b6105828280926130dd565b61039c5780610558565b6040513d84823e3d90fd5b8380fd5b8780fd5b8580fd5b503461039c576105b236612edf565b9060018060a01b03600a5416331480156105f0575b6105d090613332565b82526025602052604082209082526020526040812060ff19815416905580f35b50600c546001600160a01b031633146105c7565b503461039c578060031936011261039c576003546040516001600160a01b039091168152602090f35b503461039c57602036600319011261039c57610647612e87565b612fa8565b503461039c5760209061065e36612edf565b9060018060a01b0360055416331480156106bb575b80156106a7575b61068390613332565b825260238352604082209082528252604060018060a01b0391205416604051908152f35b50600a546001600160a01b0316331461067a565b50600c546001600160a01b03163314610673565b503461039c57602036600319011261039c576004359060018060a01b036002541691604051631a7f3c3360e01b81528160048201528281602481875afa90811561082c579061020091849161080a575b500151156107b7576040519263e5feffe360e01b84526004840152602483015260208260448173__$a2104887d4f8d9eac857bd1531af13406a$__5af49081156107ab5790610774575b602090604051908152f35b506020813d6020116107a3575b8161078e602093836130dd565b8101031261079f5760209051610769565b5f80fd5b3d9150610781565b604051903d90823e3d90fd5b60405162461bcd60e51b815260206004820152602560248201527f547269616c20646f6573206e6f742075736520656e6372797074656420637269604482015264746572696160d81b6064820152608490fd5b61082691503d8086833e61081e81836130dd565b81019061317f565b5f61071f565b6040513d85823e3d90fd5b503461039c578060031936011261039c57600b546040516001600160a01b039091168152602090f35b503461039c578060031936011261039c576006546040516001600160a01b039091168152602090f35b503461039c5761089836612edf565b90808352602260205260408320828452602052602460018060a01b036040852054168460018060a01b036002541660405193848092631a7f3c3360e01b82528860048301525afa9182156109c3579185939160409593602097926109a7575b503314908115610990575b50801561097c575b8015610968575b8015610954575b8015610940575b61092890613332565b8252601d845282822090825283522054604051908152f35b50600a546001600160a01b0316331461091f565b506005546001600160a01b03163314610918565b50600c546001600160a01b03163314610911565b506006546001600160a01b0316331461090a565b608001516001600160a01b0316331490505f610902565b6109bc9192503d8087833e61081e81836130dd565b905f6108f7565b6040513d87823e3d90fd5b503461039c57602036600319011261039c576109e8612e87565b6109fd60018060a01b03600a54163314612f6f565b6001600160a01b0316610a1181151561301f565b60018060a01b031960105416176010556154604201804211610a335760115580f35b634e487b7160e01b82526011600452602482fd5b503461039c57602090610a5936612edf565b81835260228452604080842082855285528320546001600160a01b031692918315610b39575b5050506001600160a01b03163381148015610b25575b8015610b11575b8015610afd575b8015610ae9575b8015610ad5575b8015610ac1575b61056f90613332565b50600a546001600160a01b03163314610ab8565b506008546001600160a01b03163314610ab1565b506005546001600160a01b03163314610aaa565b506006546001600160a01b03163314610aa3565b506007546001600160a01b03163314610a9c565b50600c546001600160a01b03163314610a95565b82526024845260408083209183529084529020600201546001600160a01b031690505f8080610a7f565b503461039c57610b7236612edf565b81835260216020526040832081845260205260ff6040842054169182610ba0575b6020836040519015158152f35b9091508252602080526040822090825260205260ff604082205416906003821015610bd357506001602091145f80610b93565b634e487b7160e01b81526021600452602490fd5b503461039c578060031936011261039c576007546040516001600160a01b039091168152602090f35b503461039c57602036600319011261039c57610c2a612e87565b610c3f60018060a01b03600a54163314612f6f565b600180546001600160a01b0319166001600160a01b039290921691909117905580f35b503461039c57602036600319011261039c576020906004358152600d8252604060018060a01b0391205416604051908152f35b503461039c5760ff6040602092610cab36612edf565b908252601f85528282209082528452205416610cca6040518092612f62565bf35b503461039c57606036600319011261039c576024356004356044356001600160a01b0381169081900361059757610d4790610d1260018060a01b03600c5416331461336f565b610d1d8115156133b6565b8285526024602090815260408087208688529091528520600201546001600160a01b03161461368b565b808352602460205260408320828452602052610d68604084205415156136d3565b808352602460205260408320828452602052610d8660408420613710565b7f531be854624155ace8feaa7624c89efee81e78b0d2fb401c027853d1db61a53d8380a380f35b503461039c57608036600319011261039c57600435610dca612e9d565b6044356004811015610597576064356001600160401b03811161123a57610df5903690600401612ef5565b9260018060a01b0360025416604051631a7f3c3360e01b81528660048201528781602481855afa90811561122f578891611215575b50608001516001600160a01b031633036111d057602060249160405192838092635419390d60e11b82528a60048301525afa80156111c5578790611186575b610e739150613580565b848652601b6020526040862060018060a01b0382165f5260205260ff60405f2054166004811015611172571561113657848652601b6020526040862060018060a01b0382165f52602052610eca8360405f206135c9565b848652601b602090815260408088206001600160a01b0384165f908152925290206001016001600160401b038511611122578054600181811c91168015611118575b602082101461110457601f81116110bf575b508487601f821160011461105d578891611052575b508560011b905f198760031b1c19161790555b60045486906001600160a01b031680610fb2575b505091610fac610f92927fb8d37bb75e47252fab0d1ead541c50f4b09cf8a0cde18749fa1cca6d7adb33c89460405194858095612f62565b6040602085015260018060a01b031695604084019161366b565b0390a380f35b604051606084901b6001600160601b0319166020820190815260f887901b6001600160f81b031916603483015242603580840191909152825290610ff76055826130dd565b51902090803b1561104e5761102691839189836040518096819582946306cc173360e41b8452600484016135e1565b03925af1801561058c5715610f5a5781611042919593956130dd565b61059f5791855f610f5a565b8280fd5b90508301355f610f33565b82895260208920915086601f1981168a5b8181106110a457501061108b575b5050600185811b019055610f46565b8401355f19600388901b60f8161c191690555f8061107c565b8784013585556001909401936020938401938a93500161106e565b81885260208820601f870160051c810191602088106110fa575b601f0160051c01905b8181106110ef5750610f1e565b8881556001016110e2565b90915081906110d9565b634e487b7160e01b88526022600452602488fd5b90607f1690610f0c565b634e487b7160e01b87526041600452602487fd5b60405162461bcd60e51b8152602060048201526014602482015273139bc8185c1c1b1a58d85d1a5bdb88199bdd5b9960621b6044820152606490fd5b634e487b7160e01b87526021600452602487fd5b506020813d6020116111bd575b816111a0602093836130dd565b810103126111b9576111b4610e7391613155565b610e69565b8680fd5b3d9150611193565b6040513d89823e3d90fd5b60405162461bcd60e51b815260206004820152601e60248201527f4f6e6c792073706f6e736f722063616e207570646174652073746174757300006044820152606490fd5b61122991503d808a833e61081e81836130dd565b5f610e2a565b6040513d8a823e3d90fd5b8480fd5b503461039c57602036600319011261039c5760043561126860018060a01b03600a54163314612f6f565b808252600e602052604082205415158061163f575b61128690613613565b808252600d6020818152604080852054848652600e835281862086905584865292909152832080546001600160a01b03191690556001600160a01b0316907f68ad06d9309d9e917865c172f0e7f61d2495ec1a1f46c631bf649cb26c5b204f810361132c576009546040519091905f5160206154235f395f51905f529080611318866001600160a01b03871683613651565b0390a26001600160a01b0319161760095580f35b7f0c1e29592c3c8d8a0f36c76ce18fb1c002b5aa5514de292e507d7e1ce9571067810361139457600c546040519091905f5160206154235f395f51905f529080611380866001600160a01b03871683613651565b0390a26001600160a01b03191617600c5580f35b7f7b8d60480804e3c6f1b53df360c1c9450cf91afb71969b968f48c8c63b9296b781036113fc576005546040519091905f5160206154235f395f51905f5290806113e8866001600160a01b03871683613651565b0390a26001600160a01b0319161760055580f35b7f0ad430a6acc85b4b0d24662fc5888d01d16cb74f56f983fcab25c5e9792d72ee8103611464576006546040519091905f5160206154235f395f51905f529080611450866001600160a01b03871683613651565b0390a26001600160a01b0319161760065580f35b7ffbebd9d2929c6ea6dcd04ada2e2581739aef31bbdfb6b769ebdc4e3a0cd46f0681036114cc576007546040519091905f5160206154235f395f51905f5290806114b8866001600160a01b03871683613651565b0390a26001600160a01b0319161760075580f35b7fc43c448fbed8840d5766c9b704144545dc4ea3685fa6d4ad240577715a251b638103611534576012546040519091905f5160206154235f395f51905f529080611520866001600160a01b03871683613651565b0390a26001600160a01b0319161760125580f35b7f6698ee2044e92863455e07f79e46096eec399147084a7e3553122fdc7a9e9b45810361159c576013546040519091905f5160206154235f395f51905f529080611588866001600160a01b03871683613651565b0390a26001600160a01b0319161760135580f35b7f01f6633db3181eff58b0837688e7a6d7b740bd00531b60aa1fa5a0510e77e2928103611604576008546040519091905f5160206154235f395f51905f5290806115f0866001600160a01b03871683613651565b0390a26001600160a01b0319161760085580f35b60405162461bcd60e51b8152602060048201526013602482015272556e6b6e6f776e2072656164657220726f6c6560681b6044820152606490fd5b50808252600e602052604082205442101561127d565b503461039c578060031936011261039c576012546040516001600160a01b039091168152602090f35b503461039c5761168d36612edf565b6007549092906001600160a01b031633036116c0576020926040928252601d845282822090825283522054604051908152f35b60405162461bcd60e51b815260206004820152600a60248201526913db9b1e481d985d5b1d60b21b6044820152606490fd5b503461039c578060031936011261039c5761171860018060a01b03600a54163314612f6f565b61172e601154801515908161175b575b50613613565b60108054600480546001600160a01b03199081166001600160a01b03841617909155601184905516905580f35b90504210155f611728565b503461039c57606036600319011261039c57600435602435604435600481101561059757600254604051631a7f3c3360e01b8152600481018590526001600160a01b03909116908581602481855afa8015611ac1576080918791611b43575b50019060018060a01b0382511633148015611b2f575b15611acc5781516001600160a01b03163314611a4b575b506002821490816119f6575b50828552601f6020526040852084865260205260ff60408620541660048110156119e2571561199d57828552601f6020526040852084865260205261184682604087206135c9565b80611989575b61190d575b60045484906001600160a01b031680611889575b505060205f5160206153a35f395f51905f52916118856040518092612f62565ba380f35b604051602081019085825260ff60f81b8560f81b166040820152426041820152604181526118b86061826130dd565b51902090803b1561104e576040516306cc173360e41b815291839183918290849082906118e9908c600484016135e1565b03925af1801561058c57156118655781611902916130dd565b61059757835f611865565b60085484906001600160a01b0316803b1561198557818091604460405180958193633c447ed160e11b83528a60048401528960248401525af19182611970575b505061196b5782825f5160206153835f395f51905f528680a3611851565b611851565b8161197a916130dd565b61123a57845f61194d565b5080fd5b506008546001600160a01b0316151561184c565b60405162461bcd60e51b815260206004820152601e60248201527f4e6f20616e6f6e796d6f7573206170706c69636174696f6e20666f756e6400006044820152606490fd5b634e487b7160e01b86526021600452602486fd5b516001600160a01b03163303611a0c575f6117fe565b60405162461bcd60e51b815260206004820152601760248201527613db9b1e481cdc1bdb9cdbdc8818d85b881858d8d95c1d604a1b6044820152606490fd5b602060249160405192838092635419390d60e11b82528960048301525afa8015611ac1578690611a86575b611a809150613580565b5f6117f2565b506020813d602011611ab9575b81611aa0602093836130dd565b8101031261059f57611ab4611a8091613155565b611a76565b3d9150611a93565b6040513d88823e3d90fd5b60405162461bcd60e51b815260206004820152603560248201527f4f6e6c792073706f6e736f72206f7220617574686f72697a65642072656769736044820152747472792063616e207570646174652073746174757360581b6064820152608490fd5b50600c546001600160a01b031633146117db565b611b5791503d8089833e61081e81836130dd565b5f6117c5565b503461039c5760ff6040602092611b7336612edf565b9082526021855282822090825284522054166040519015158152f35b503461039c578060031936011261039c57600a546040516001600160a01b039091168152602090f35b503461039c57608036600319011261039c5760043590602435604435611bdc612eb3565b93611bf260018060a01b03600c5416331461336f565b611bfd81151561353e565b6001600160a01b038516611c128115156133b6565b8285526024602052604085208486526020526040852054611e4d57845460405163695c98bb60e01b8152600481018490529061014090829060249082908a906001600160a01b03165af1908115611ac157906024918791611e1e575b50611c7f6101208201511515613481565b600254604051631a7f3c3360e01b81526004810188905292889184919082906001600160a01b03165afa9182156111c5578792611e02575b5073__$a2104887d4f8d9eac857bd1531af13406a$__803b1561059b57876040518092637c92caf360e01b8252602060048301528180611cfa60248201896148ca565b03915af4801561122f57611ded575b50916004611d1f87611dbb969460209b966149da565b93909860405193611d2f8561305a565b8a85528b850186815260408087019283524260608801908152608088019586528b855260248f528185208d86528f52932095518655516001860155516002850180546001600160a01b0319166001600160a01b039290921691909117905551600384015551910155611da086614e75565b50611daa81614e98565b50611db58287614eb1565b50614ed9565b507f5e916b26f53cabc8f0fa4b1a7f4acbdb6a0365f5a8f26344613fadba82fc566784604051858152a3604051908152f35b611df88880926130dd565b6111b9575f611d09565b611e179192503d8089833e61081e81836130dd565b905f611cb7565b611e4091506101403d8111611e46575b611e3881836130dd565b8101906133fd565b5f611c6e565b503d611e2e565b60405162461bcd60e51b815260206004820152600e60248201526d105b1c9958591e481cdd1859d95960921b6044820152606490fd5b503461039c578060031936011261039c57602061056f614ef7565b503461039c57611ead36612edf565b908252602080526040822090825260205260ff604082205416604051906003811015611edb57602092508152f35b634e487b7160e01b83526021600452602483fd5b503461039c5760ff6040602092611f0536612edf565b9082526014855282822090825284522054166040519015158152f35b503461039c578060031936011261039c57600b546001600160a01b0381169033829003611f8857600a80546001600160a01b0319908116841790915516600b557fb27970c1714b28277b78cc17ac2fe9556e7f048cd48358cffe3dc7d547608fdc8280a280f35b60405162461bcd60e51b81526020600482015260126024820152712737ba10383937b837b9b2b21037bbb732b960711b6044820152606490fd5b503461039c57602036600319011261039c5760406020916004358152600e83522054604051908152f35b503461039c578060031936011261039c57602060405162093a808152f35b503461039c57602036600319011261039c57612024612e87565b61203960018060a01b03600a54163314612f6f565b6001600160a01b031661204d81151561301f565b600b80546001600160a01b031916821790557f6ab4d119f23076e8ad491bc65ce85f017fb0591dce08755ba8591059cc51737a8280a280f35b503461039c57602036600319011261039c576004356120b060018060a01b03600a54163314612f6f565b808252600e60209081526040808420849055918352600d9052812080546001600160a01b031916905580f35b503461039c578060031936011261039c576001546040516001600160a01b039091168152602090f35b503461039c57604060209161211936612edf565b9082526018845282822090825283522054604051908152f35b503461039c578060031936011261039c576002546040516001600160a01b039091168152602090f35b503461039c578060031936011261039c57546040516001600160a01b039091168152602090f35b503461039c578060031936011261039c576013546040516001600160a01b039091168152602090f35b503461039c578060031936011261039c576020601154604051908152f35b503461039c578060031936011261039c575060205f5160206153435f395f51905f52604051908152f35b503461039c57602036600319011261039c5761221e64ffffffffff91612217612f52565b905061481b565b54168015612239575b60209064ffffffffff60405191168152f35b506001612227565b503461039c57604036600319011261039c576020906040906001600160a01b03612269612e87565b168033148015612297575b61227d90613502565b815260198352818120602435825283522054604051908152f35b506009546001600160a01b03163314612274565b503461039c578060031936011261039c57602060405160198152f35b503461039c578060031936011261039c57600c546040516001600160a01b039091168152602090f35b503461039c57604060209161230436612edf565b9082526015845282822090825283522054604051908152f35b503461079f5761232c36612edf565b6008546001600160a01b0316338190036123ee57815f52601f60205260405f20835f5260205260ff60405f20541660048110156123da5760021461236e578380f35b803b1561079f575f8091604460405180948193633c447ed160e11b83528860048401528760248401525af190816123c5575b506123be575f5160206153835f395f51905f528380a35b5f80808380f35b50506123b7565b6123d29194505f906130dd565b5f925f6123a0565b634e487b7160e01b5f52602160045260245ffd5b60405162461bcd60e51b81526020600482015260136024820152724f6e6c7920646f63756d656e742073746f726560681b6044820152606490fd5b3461079f575f36600319011261079f576020604051600f8152f35b3461079f57608036600319011261079f576004356024356001600160401b03811161079f57612477903690600401612f22565b90916044356001600160401b03811161079f57612498903690600401612f22565b9290936124a3612eb3565b946124b960018060a01b03600c5416331461336f565b6124cd6001600160a01b03871615156133b6565b821515806128b4575b1561287a57848303612843575f805460405163695c98bb60e01b81526004810187905292916101409184916024918391906001600160a01b03165af19182156127d4575f92612822575b506125346101208398979801511515613481565b61253d846134db565b9561254b60405197886130dd565b848752612557856134db565b602088019890601f1901368a375f5b8681106125dd578989897fb14d696ab9fe22a509a96c7205e6a01bb66b5f26c1c78824e03cc7ffa2e4c08760208b604051908152a2604051918291602083019060208452518091526040830191905f5b8181106125c4575050500390f35b82518452859450602093840193909201916001016125b6565b6125eb8188889c9b9c6134f2565b35906125f88184876134f2565b35895f52602560205260405f20835f5260205260ff60405f2054166127df57895f52602560205260405f20835f5260205260405f20600160ff1982541617905560245f60018060a01b036002541660405192838092631a7f3c3360e01b82528860048301525afa9081156127d4575f916127ba575b5060a08101511561277f576101e08101518015159081612775575b5015612742578361269991896149da565b6126a4829592614e75565b506126ae81614e98565b506126b98786614eb1565b506126c48782614ed9565b506006546001600160a01b031680612731575b50508c5183101561271d5760019360208e8560051b0101528a7ff9ba2d452d1f7528ccacb49f0b991fc24be20ba18d19d4a3a371b4641b1672395f80a401989798612566565b634e487b7160e01b5f52603260045260245ffd5b61273a91614ed9565b508d806126d7565b60405162461bcd60e51b815260206004820152600b60248201526a151c9a585b08195b99195960aa1b6044820152606490fd5b905042108e612688565b60405162461bcd60e51b8152602060048201526013602482015272547269616c206973206e6f742061637469766560681b6044820152606490fd5b6127ce91503d805f833e61081e81836130dd565b8d61266d565b6040513d5f823e3d90fd5b60405162461bcd60e51b815260206004820152601b60248201527a151c9a585b08185b1c9958591e4818985d18da0b58da1958dad959602a1b6044820152606490fd5b61283c9192506101403d8111611e4657611e3881836130dd565b9087612520565b60405162461bcd60e51b815260206004820152600f60248201526e098cadccee8d040dad2e6dac2e8c6d608b1b6044820152606490fd5b60405162461bcd60e51b8152602060048201526012602482015271496e76616c69642062617463682073697a6560701b6044820152606490fd5b5060108311156124d6565b3461079f575f36600319011261079f5760206040516154608152f35b3461079f576128e936612edf565b905f52601660205260405f20905f52602052602060405f2054604051908152f35b3461079f57604036600319011261079f57612923612f52565b61292b612e9d565b61294060018060a01b03600a54163314612f6f565b6001600160a01b03169061295582151561301f565b64ffffffffff6129648261481b565b541680156129ea575b64ffffffffff60019116019064ffffffffff82116129d657602060ff8264ffffffffff6129ba7f6da0feb3b0bd083f868beb07983147e8f9319e42d0b452d6e0bf7fa04e7066da9561481b565b9516948564ffffffffff198254161790556040519485521692a3005b634e487b7160e01b5f52601160045260245ffd5b50600161296d565b3461079f57612a0036612edf565b905f52601760205260405f20905f52602052602060405f2054604051908152f35b3461079f5760e036600319011261079f57612a3a612eb3565b612a42612ec9565b60a4356001600160401b03811161079f57612a61903690600401612ef5565b909260c43592916001600160401b03841161079f57602094612a8a61056f953690600401612f22565b949093612aa260018060a01b03600c5416331461336f565b604435602435600435613772565b3461079f57612abe36612edf565b90805f52602260205260405f20825f52602052602460018060a01b0360405f2054165f60018060a01b036002541660405193848092631a7f3c3360e01b82528860048301525afa9182156127d4575f92612bcb575b503314908115612bb4575b508015612ba0575b8015612b8c575b8015612b78575b8015612b64575b612b4490613332565b5f52601e60205260405f20905f52602052602060405f2054604051908152f35b50600a546001600160a01b03163314612b3b565b506005546001600160a01b03163314612b34565b50600c546001600160a01b03163314612b2d565b506006546001600160a01b03163314612b26565b608001516001600160a01b03163314905083612b1e565b612be09192503d805f833e61081e81836130dd565b9084612b13565b3461079f57612bf536612edf565b905f52602560205260405f20905f52602052602060ff60405f2054166040519015158152f35b3461079f575f36600319011261079f576010546040516001600160a01b039091168152602090f35b3461079f575f36600319011261079f576005546040516001600160a01b039091168152602090f35b3461079f5760a0612c7b36612edf565b5f6080604051612c8a8161305a565b8281528260208201528260408201528260608201520152815f52601460205260405f20815f5260205260ff60405f20541691805f52601560205260405f20825f5260205260405f205491815f52601660205260405f20815f5260205260405f205490825f52601860205260405f20815f5260205260405f2054925f52601760205260405f20905f5260205260405f205492608060405195612d2a8761305a565b15159586815260208101928352604081019384526060810194855201938452604051948552516020850152516040840152516060830152516080820152f35b3461079f57604036600319011261079f57600435612d85612e9d565b612d9a60018060a01b03600a54163314612f6f565b612dae6001600160a01b038216151561301f565b5f828152600d6020526040902080546001600160a01b0319166001600160a01b03909216919091179055426154608101919082106129d6575f52600e60205260405f20555f80f35b3461079f57602036600319011261079f57610647612e87565b3461079f575f36600319011261079f576004546040516001600160a01b039091168152602090f35b3461079f575f36600319011261079f576009546040516001600160a01b039091168152602090f35b3461079f575f36600319011261079f5760205f5160206153e35f395f51905f52604051908152f35b600435906001600160a01b038216820361079f57565b602435906001600160a01b038216820361079f57565b606435906001600160a01b038216820361079f57565b608435906001600160a01b038216820361079f57565b604090600319011261079f576004359060243590565b9181601f8401121561079f578235916001600160401b03831161079f576020838186019501011161079f57565b9181601f8401121561079f578235916001600160401b03831161079f576020808501948460051b01011161079f57565b6004359060ff8216820361079f57565b9060048210156123da5752565b15612f7657565b60405162461bcd60e51b815260206004820152600a60248201526927b7363c9037bbb732b960b11b6044820152606490fd5b612fbd60018060a01b03600a54163314612f6f565b60405162461bcd60e51b815260206004820152603460248201527f557365207363686564756c65417574686f72697a6564526561646572202b20616044820152733838363ca0baba3437b934bd32b22932b0b232b960611b6064820152608490fd5b1561302657565b60405162461bcd60e51b815260206004820152600c60248201526b5a65726f206164647265737360a01b6044820152606490fd5b60a081019081106001600160401b0382111761307557604052565b634e487b7160e01b5f52604160045260245ffd5b61022081019081106001600160401b0382111761307557604052565b61014081019081106001600160401b0382111761307557604052565b61012081019081106001600160401b0382111761307557604052565b601f909101601f19168101906001600160401b0382119082101761307557604052565b81601f8201121561079f578051906001600160401b0382116130755760405192613134601f8401601f1916602001856130dd565b8284526020838301011161079f57815f9260208093018386015e8301015290565b5190811515820361079f57565b519060ff8216820361079f57565b519061ffff8216820361079f57565b60208183031261079f578051906001600160401b03821161079f57016102208183031261079f57604051916131b383613089565b81516001600160401b03811161079f57816131cf918401613100565b835260208201516001600160401b03811161079f57816131f0918401613100565b602084015260408201516001600160401b03811161079f5781613214918401613100565b60408401526060820151906001600160401b03821161079f57613238918301613100565b606083015260808101516001600160a01b038116810361079f576133299161020091608085015261326b60a08201613155565b60a085015261327c60c08201613162565b60c085015261328d60e08201613162565b60e085015261329f6101008201613155565b6101008501526132b26101208201613170565b6101208501526132c56101408201613162565b6101408501526132d86101608201613162565b6101608501526132eb6101808201613170565b6101808501526132fe6101a08201613155565b6101a08501526133116101c08201613155565b6101c08501526101e08101516101e085015201613155565b61020082015290565b1561333957565b60405162461bcd60e51b815260206004820152600e60248201526d139bdd08185d5d1a1bdc9a5e995960921b6044820152606490fd5b1561337657565b60405162461bcd60e51b81526020600482015260186024820152774f6e6c7920617574686f72697a656420726567697374727960401b6044820152606490fd5b156133bd57565b60405162461bcd60e51b8152602060048201526018602482015277125b9d985b1a59081c195c9b5a5d081c9958da5c1a595b9d60421b6044820152606490fd5b908161014091031261079f576134786101206040519261341c846130a5565b805184526020810151602085015260408101516040850152606081015160608501526080810151608085015260a081015160a085015260c081015160c085015260e081015160e085015261010081015161010085015201613155565b61012082015290565b1561348857565b60405162461bcd60e51b815260206004820152602560248201527f50617469656e74206e6f7420666f756e6420666f72207468697320636f6d6d696044820152641d1b595b9d60da1b6064820152608490fd5b6001600160401b0381116130755760051b60200190565b919081101561271d5760051b0190565b1561350957565b60405162461bcd60e51b815260206004820152600d60248201526c1058d8d95cdcc819195b9a5959609a1b6044820152606490fd5b1561354557565b60405162461bcd60e51b815260206004820152601360248201527210dbdb5b5a5d1b595b9d081c995c5d5a5c9959606a1b6044820152606490fd5b1561358757565b60405162461bcd60e51b815260206004820152601a60248201527914dc1bdb9cdbdc881b9bc81b1bdb99d95c881d995c9a599a595960321b6044820152606490fd5b9060048110156123da5760ff80198354169116179055565b6040909392919360608101946003825260208201520152565b6040909392919360608101946002825260208201520152565b1561361a57565b60405162461bcd60e51b815260206004820152600f60248201526e54696d656c6f636b2061637469766560881b6044820152606490fd5b6001600160a01b0391821681529116602082015260400190565b908060209392818452848401375f828201840152601f01601f1916010190565b1561369257565b60405162461bcd60e51b81526020600482015260196024820152780a0cae4dad2e840e4cac6d2e0d2cadce840dad2e6dac2e8c6d603b1b6044820152606490fd5b156136da57565b60405162461bcd60e51b815260206004820152600e60248201526d139bdd1a1a5b99c81cdd1859d95960921b6044820152606490fd5b60045f918281558260018201558260028201558260038201550155565b1561373457565b60405162461bcd60e51b8152602060048201526016602482015275125b9d985b1a590818dbdb9cd95b9d081dd85b1b195d60521b6044820152606490fd5b919693909592945f9560018060a01b03169261378f8415156133b6565b6001600160a01b03831615936137f2906137a9861561372d565b895f52602460205260405f208b5f526020526137ca60405f205415156136d3565b895f52602460205260405f208b5f5260205260018060a01b03600260405f200154161461368b565b875f52602460205260405f20895f52602052600360405f20015462093a8081018091116129d65742116147e457875f52601f60205260405f20895f5260205260ff60405f20541660048110156123da5761384c9015614f26565b875f526020805260405f20895f5260205260ff60405f20541660038110156123da576138789015614f26565b61388381151561353e565b875f52602460205260405f20895f5260205280600460405f200154036147a957875f52602460205260405f20895f5260205260405f20549460018060a01b036002541690604051631a7f3c3360e01b81528b60048201525f81602481865afa80156127d457610200915f9161478f575b50015115159260018060a01b035f5416604051956382dba82960e01b8752826004880152602087602481855afa9687156127d4575f9761475b575b50601254601354600854604051976001600160a01b039182169793821692909116906139598961305a565b88526020880194855260408801918252606088019081526080880196875273__$a2104887d4f8d9eac857bd1531af13406a$__965f5160206153435f395f51905f52915f5160206153e35f395f51905f5293893b1561079f5760405163d57c6e1760e01b81529a516001600160a01b0390811660048d01529751881660248c015251871660448b015251861660648a015251909416608488015260a487019390935260c4860192909252601960e4860152600f610104860152610200610124860152613a2a9161020486019161366b565b838103600319016101448501528d8152916001600160fb1b038e1161079f578360208f8f8f9684968f92985f99879560051b8095888601376101648601526101848501526101a48401528d6101c4840152896101e4840152010301915af480156127d457614746575b506141d157508760041015613e5557608084013591821561415a578686526024602052604086208887526020526040862060405190613ad18261305a565b805480835260018201546020840190815260028301546001600160a01b0316604085019081526003840154606086015260049093015460808501529290613b199015156136d3565b51915190516001600160a01b031691613b338315156133b6565b8989526024602052604089208b8a52602052613b5160408a20613710565b613b5a81614e75565b50613b6482614e98565b50898952601d602052604089208b8a526020528060408a2055898952601e602052604089208b8a526020528160408a2055613b9f8382614eb1565b50613baa8383614ed9565b50613bb58382615178565b613bbf8383615178565b6005546001600160a01b031680614133575b506007546001600160a01b0316908161410c575b50506006546001600160a01b031680614008575b50508787526022602090815260408089208b8a5290915280882080546001600160a01b0319166001600160a01b0390931692909217909155519088885f5160206154635f395f51905f528980a3613fd057508585526023602090815260408087208988529091528520546001600160a01b0316613f8c57858552602360205260408520878652602052604085209060018060a01b031660018060a01b0319825416179055848452601d60205260408420868552602052604084205496858552601f6020526040852087865260205260408520600160ff19825416179055858552602080526040852087865260205260408520600160ff1982541617905585855260216020526040852087865260205260408520600160ff1982541617905585855260146020526040852087865260205260408520600160ff1982541617905580600310159384613f7857606081013587875260156020526040872089885260205280604088205582600210159182613f64576040810135938989526016602052604089208b8a526020528460408a205560061015613f645760c00135958888526018602052604088208a89526020528660408920558888526017602052604088208a895260205285604089205560018060a01b036004541680613ea1575b508715613e69575050613e55575f5160206153635f395f51905f5260806020955f5160206153a35f395f51905f5297958a958a95925b8815613e4d5750905b60405192835288830152604082015260016060820152a36040519085855f5160206154435f395f51905f528380a35060018152a390565b905090613e16565b634e487b7160e01b85526032600452602485fd5b915094929593915061271d575f5160206153635f395f51905f526080889388935f5160206153a35f395f51905f529860209892613e0d565b928815613f5a57505f92845b60405160208101918c83526040820152426060820152734154544553544154494f4e5f46494e414c495a4560601b608082015260748152613eef6094826130dd565b51902090803b15613f5657613f1e918a918d836040518096819582946306cc173360e41b8452600484016135fa565b03925af18015613f4b57908991613f36575b50613dd7565b81613f40916130dd565b61059b57875f613f30565b6040513d8b823e3d90fd5b8980fd5b925f915082613ead565b634e487b7160e01b88526032600452602488fd5b634e487b7160e01b86526032600452602486fd5b60405162461bcd60e51b815260206004820152601c60248201527b10dbdb9cd95b9d081dd85b1b195d08185b1c9958591e48189bdd5b9960221b6044820152606490fd5b62461bcd60e51b815260206004820152601360248201527216995c9bc818dbdb9cd95b9d081dd85b1b195d606a1b6044820152606490fd5b6140129082614ed9565b506006546001600160a01b03169061402b9082906152cf565b803b1561059b5787808a60448d836040519687948593630a8d86fb60e41b8552600485015260248401525af191826140f7575b50506140f25787895f5160206154a35f395f51905f528980a35b6006546001600160a01b0316803b1561059b5787808a60448d836040519687948593631ee89e3560e11b8552600485015260248401525af191826140dd575b50506140d85787895f5160206154035f395f51905f528980a35b5f80613bf9565b6140d1565b816140e7916130dd565b61059b57875f6140b7565b614078565b81614101916130dd565b61059b57875f61405e565b61411961412c9282614eb1565b506007546001600160a01b03169061525c565b5f80613be5565b61413d9082614eb1565b50600554614154906001600160a01b0316826151e9565b5f613bd1565b5050505050925080835260246020526040832082845260205261417f60408420613710565b808352602080526040832082845260205260408320600260ff198254161790558083526021602052604083208284526020526040832060ff1981541690555f5160206154435f395f51905f528380a390565b9397929186865260246020526040862088875260205260408620604051906141f88261305a565b805480835260018201546020840190815260028301546001600160a01b03166040850190815260038401546060860152600490930154608085015292906142409015156136d3565b51915190516001600160a01b03169161425a8315156133b6565b8989526024602052604089208b8a5260205261427860408a20613710565b61428181614e75565b5061428b82614e98565b50898952601d602052604089208b8a526020528060408a2055898952601e602052604089208b8a526020528160408a20556142c68382614eb1565b506142d18383614ed9565b506142dc8382615178565b6142e68383615178565b6005546001600160a01b03168061471f575b506007546001600160a01b0316908161470b575b50506006546001600160a01b031680614607575b50508787526022602090815260408089208b8a5290915280882080546001600160a01b0319166001600160a01b0390931692909217909155519088885f5160206154635f395f51905f528980a3613fd057508585526023602090815260408087208988529091528520546001600160a01b0316613f8c57858552602360205260408520878652602052604085209060018060a01b031660018060a01b0319825416179055848452601d60205260408420868552602052604084205496858552601f6020526040852087865260205260408520600160ff19825416179055858552602080526040852087865260205260408520600160ff1982541617905585855260216020526040852087865260205260408520600160ff1982541617905585855260146020526040852087865260205260408520600160ff1982541617905582600210159283613f7857604082013594878752601560205260408720898852602052856040882055878752601660205260408720898852602052604087205560041015613e5557608001359185855260186020526040852087865260205282604086205585855260176020526040852087865260205281604086205560018060a01b036004541680614564575b5061455057845f5160206153635f395f51905f526080855f5160206153a35f395f51905f5297958a9560209850604051928352888301526040820152856060820152a36040519085855f5160206154435f395f51905f528380a35060018152a390565b634e487b7160e01b84526032600452602484fd5b90505f906040516020810190888252866040820152426060820152734154544553544154494f4e5f46494e414c495a4560601b6080820152607481526145ab6094826130dd565b51902090803b156111b9576145da9187918a836040518096819582946306cc173360e41b8452600484016135fa565b03925af18015611ac1579086916145f2575b506144ed565b816145fc916130dd565b61123a57845f6145ec565b6146119082614ed9565b506006546001600160a01b03169061462a9082906152cf565b803b1561059b5787808a60448d836040519687948593630a8d86fb60e41b8552600485015260248401525af191826146f6575b50506146f15787895f5160206154a35f395f51905f528980a35b6006546001600160a01b0316803b1561059b5787808a60448d836040519687948593631ee89e3560e11b8552600485015260248401525af191826146dc575b50506146d75787895f5160206154035f395f51905f528980a35b5f80614320565b6146d0565b816146e6916130dd565b61059b57875f6146b6565b614677565b81614700916130dd565b61059b57875f61465d565b6141196147189282614eb1565b5f8061430c565b6147299082614eb1565b50600554614740906001600160a01b0316826151e9565b5f6142f8565b6147539197505f906130dd565b5f955f613a93565b9096506020813d602011614787575b81614777602093836130dd565b8101031261079f5751955f61392e565b3d915061476a565b6147a391503d805f833e61081e81836130dd565b5f6138f3565b60405162461bcd60e51b8152602060048201526013602482015272086dedadad2e8dacadce840dad2e6dac2e8c6d606b1b6044820152606490fd5b60405162461bcd60e51b815260206004820152600f60248201526e14dd1859da5b99c8195e1c1a5c9959608a1b6044820152606490fd5b60ff165f52600f60205260405f2090565b919082604091031261079f576020825192015190565b6101208091805184526020810151602085015260408101516040850152606081015160608501526080810151608085015260a081015160a085015260c081015160c085015260e081015160e085015261010081015161010085015201511515910152565b805180835260209291819084018484015e5f828201840152601f01601f1916010190565b90610200806149236149116148ff6148ed875161022088526102208801906148a6565b602088015187820360208901526148a6565b604087015186820360408801526148a6565b606086015185820360608701526148a6565b9360018060a01b03608082015116608085015260a0810151151560a085015260ff60c08201511660c085015260ff60e08201511660e0850152610100810151151561010085015261ffff6101208201511661012085015260ff6101408201511661014085015260ff6101608201511661016085015261ffff610180820151166101808501526101a081015115156101a08501526101c081015115156101c08501526101e08101516101e08501520151151591015290565b9190916102008301918251614c4a575082916149f68392614f66565b60e052604051614a0581613089565b60608152602081016060905260408101606090526060810160609052608081015f905260a081015f905260c081015f905260e081015f905261010081015f905261012081015f905261014081015f905261016081015f905261018081015f90526101a081015f90526101c081015f90526101e081015f9052610200015f9052815160208301516101005260408301516060840151600160a01b6001900360808601511660a0860151151560c087015160ff169060e088015160ff16926101008901511515946101208a015161ffff16966101408b015160ff16986101608c015160ff169a6101808d015161ffff169c6101a0015115159d6101c0015115159e6101e0015160805251151560c05260405160a05260a051614b2490613089565b60a051526101005160a0516020015260a0516040015260a0516060015260a0516080015260a05160a0015260a05160c0015260a05160e0015260a051610100015260a051610120015260a051610140015260a051610160015260a051610180015260a0516101a0015260a0516101c0015260805160a0516101e0015260c05160a0516102000152604051906317c3f9e160e11b82526004820160e05190614bca91614842565b6101448201610160905281610164810160a05190614be7916148ca565b038273__$881c67f95f960d39365d324323ccfd73af$__91815a93604094f49182156127d4575f905f93614c1a57509190565b9050614c3f91925060403d604011614c43575b614c3781836130dd565b81019061482c565b9091565b503d614c2d565b939250905061012060018060a01b036002541693602460405180968193631871407b60e21b835260048301525afa9283156127d4575f93614ddb575b50614c9090614f66565b915f610100604051614ca1816130c1565b8281528260208201528260408201528260608201528260808201528260a08201528260c08201528260e0820152015280519060208101516040820151606083015160808401519060a08501519260c08601519461010060e08801519701519760405190614d0d826130c1565b8152602081019182526040808201938452606082019485526080820195865260a0820196875260c0820197885260e082019889526101008201998a525163a403936360e01b81529a614d639060048d0190614842565b516101448b0152516101648a015251610184890152516101a4880152516101c4870152516101e48601525161020485015251610224840152516102448301525f6102648301526040826102848173__$881c67f95f960d39365d324323ccfd73af$__5af49182156127d4575f905f93614c1a57509190565b909250610120813d8211614e6d575b81614df861012093836130dd565b8101031261079f57614c909061010060405191614e14836130c1565b805183526020810151602084015260408101516040840152606081015160608401526080810151608084015260a081015160a084015260c081015160c084015260e081015160e084015201516101008201529290614c86565b3d9150614dea565b8015614e89575b614e863082615026565b90565b50614e935f6150a3565b614e7c565b8015614ea857614e863082615026565b50614e93615125565b908115614ec3575b614e869082615026565b9050614e86614ed15f6150a3565b919050614eb9565b908115614eea57614e869082615026565b9050614e86614ed1615125565b46600103614f0457600190565b4662aa36a703614f145761271190565b617a694614614f21575f90565b5f1990565b15614f2d57565b60405162461bcd60e51b8152602060048201526011602482015270105b1c9958591e48199a5b985b1a5e9959607a1b6044820152606490fd5b5f610120604051614f76816130a5565b8281528260208201528260408201528260608201528260808201528260a08201528260c08201528260e082015282610100820152015280519060208101519060408101516060820151608083015160a08401519060c08501519260e08601519461012061010088015197015115159760405199614ff28b6130a5565b8a5260208a015260408901526060880152608087015260a086015260c085015260e084015261010083015261012082015290565b7f9e7b61f58c47dc699ac88507c4f5bb9f121c03808c5676a8078fe583e4649700546001600160a01b031691823b1561079f57604051635ca4b5b160e11b815260048101929092526001600160a01b03166024820152905f908290604490829084905af180156127d4576150975750565b5f6150a1916130dd565b565b5f5160206153c35f395f51905f5254604051639cd07acb60e01b815260048101929092525f6024830181905260209183916044918391906001600160a01b03165af19081156127d4575f916150f6575090565b90506020813d60201161511d575b81615111602093836130dd565b8101031261079f575190565b3d9150615104565b5f5160206153c35f395f51905f5254604051639cd07acb60e01b81525f60048201819052600260248301529091602091839160449183916001600160a01b03165af19081156127d4575f916150f6575090565b5f8052600f6020527ff4803e074bd026baaf6ed2e288c9515f68c72fb7216eebdd7cae1718a53ec3755464ffffffffff169182156151e0575b60405f5160206154835f395f51905f529164ffffffffff8251951685525f602086015260018060a01b031693a3565b600192506151b1565b60025f52600f6020527fa74ba3945261e09fde15ba3db55005b205e61eeb4ad811ac0faa2b315bffeead5464ffffffffff16918215615253575b60405f5160206154835f395f51905f529164ffffffffff8251951685526002602086015260018060a01b031693a3565b60019250615223565b60015f52600f6020527f169f97de0d9a84d840042b17d3c6b9638b3d6fd9024c9eb0c7a306a17b49f88f5464ffffffffff169182156152c6575b60405f5160206154835f395f51905f529164ffffffffff8251951685526001602086015260018060a01b031693a3565b60019250615296565b60035f52600f6020527f45f76dafbbad695564362934e24d72eedc57f9fc1a65f39bca62176cc82968285464ffffffffff16918215615339575b60405f5160206154835f395f51905f529164ffffffffff8251951685526003602086015260018060a01b031693a3565b6001925061530956fe0dd738ba66f27b7bbb29c5cc6def1e88d79b57acf1c5619ee961015ba8e50303c3153be9a718758990b6ccd60d5fadfbd0462460c343a8473064e01bf346e9e1e52e0b95af09047c9ad3883d7abefe1cec25a73b36e9fc1502acd666edc88a1b59604682590590d3834bb055beebf179de53952cb5e3bfeef55f68cc91139e9e9e7b61f58c47dc699ac88507c4f5bb9f121c03808c5676a8078fe583e46497011ae7635df2a72fd90186c4aeb9e7e770321b4ccd05823c7c71b29687379b68ed1a94bda2270274d408cdcd8caf26c71282f97b78c77933407f7d9960965e786377a1a2a04a06af1b1942ca5121ea6754946741dd90ac7a61eefe10b925fd8b44ccc537d6bc6219d97040bd9f3507ab8e2e97132de6a417806fa727e48caf7260d14530a3efae4c2f49131f1d8ab2764b33921c328e74cacb80fb2c95cc72ee8358d1f3ed03db8b22ff8b8be3e7515f47bcd2b187270364bb5d5f1d0c1a0b9782f316d7c8fbaed21bbba081082c31ad45e10c53e396b47b339214094cb1a9304da164736f6c634300081b000a",
  "linkReferences": {
    "contracts/lib/EligibilityComputeLib.sol": {
      "EligibilityComputeLib": [
        {
          "length": 20,
          "start": 20338
        },
        {
          "length": 20,
          "start": 20793
        }
      ]
    },
    "contracts/lib/EligibilityProofLib.sol": {
      "EligibilityProofLib": [
        {
          "length": 20,
          "start": 2766
        },
        {
          "length": 20,
          "start": 8257
        },
        {
          "length": 20,
          "start": 15616
        }
      ]
    }
  },
  "deployedLinkReferences": {
    "contracts/lib/EligibilityComputeLib.sol": {
      "EligibilityComputeLib": [
        {
          "length": 20,
          "start": 19435
        },
        {
          "length": 20,
          "start": 19890
        }
      ]
    },
    "contracts/lib/EligibilityProofLib.sol": {
      "EligibilityProofLib": [
        {
          "length": 20,
          "start": 1863
        },
        {
          "length": 20,
          "start": 7354
        },
        {
          "length": 20,
          "start": 14713
        }
      ]
    }
  }
}