{
  "_format": "hh-sol-artifact-1",
  "contractName": "EligibilityEngine",
  "sourceName": "contracts/EligibilityEngine.sol",
  "abi": [
    {
      "inputs": [
        {
          "internalType": "address",
          "name": "_registry",
          "type": "address"
        },
        {
          "internalType": "address",
          "name": "_trialManager",
          "type": "address"
        },
        {
          "internalType": "address",
          "name": "_consentManager",
          "type": "address"
        }
      ],
      "stateMutability": "nonpayable",
      "type": "constructor"
    },
    {
      "inputs": [],
      "name": "ZamaProtocolUnsupported",
      "type": "error"
    },
    {
      "anonymous": false,
      "inputs": [
        {
          "indexed": true,
          "internalType": "uint256",
          "name": "nullifier",
          "type": "uint256"
        },
        {
          "indexed": true,
          "internalType": "uint256",
          "name": "trialId",
          "type": "uint256"
        },
        {
          "indexed": false,
          "internalType": "enum EligibilityEngine.ApplicationStatus",
          "name": "status",
          "type": "uint8"
        }
      ],
      "name": "AnonymousApplicationStatusUpdated",
      "type": "event"
    },
    {
      "anonymous": false,
      "inputs": [
        {
          "indexed": true,
          "internalType": "uint256",
          "name": "nullifier",
          "type": "uint256"
        },
        {
          "indexed": true,
          "internalType": "uint256",
          "name": "trialId",
          "type": "uint256"
        }
      ],
      "name": "AnonymousEligibilityStageCancelled",
      "type": "event"
    },
    {
      "anonymous": false,
      "inputs": [
        {
          "indexed": true,
          "internalType": "uint256",
          "name": "nullifier",
          "type": "uint256"
        },
        {
          "indexed": true,
          "internalType": "uint256",
          "name": "trialId",
          "type": "uint256"
        },
        {
          "indexed": false,
          "internalType": "bytes32",
          "name": "finalCt",
          "type": "bytes32"
        }
      ],
      "name": "AnonymousEligibilityStaged",
      "type": "event"
    },
    {
      "anonymous": false,
      "inputs": [
        {
          "indexed": true,
          "internalType": "uint256",
          "name": "nullifier",
          "type": "uint256"
        },
        {
          "indexed": true,
          "internalType": "uint256",
          "name": "trialId",
          "type": "uint256"
        }
      ],
      "name": "AnonymousEncryptedPropensityCommitted",
      "type": "event"
    },
    {
      "anonymous": false,
      "inputs": [
        {
          "indexed": true,
          "internalType": "address",
          "name": "patient",
          "type": "address"
        },
        {
          "indexed": true,
          "internalType": "uint256",
          "name": "trialId",
          "type": "uint256"
        },
        {
          "indexed": false,
          "internalType": "enum EligibilityEngine.ApplicationStatus",
          "name": "status",
          "type": "uint8"
        },
        {
          "indexed": false,
          "internalType": "bytes",
          "name": "message",
          "type": "bytes"
        }
      ],
      "name": "ApplicationStatusUpdated",
      "type": "event"
    },
    {
      "anonymous": false,
      "inputs": [
        {
          "indexed": true,
          "internalType": "address",
          "name": "patient",
          "type": "address"
        },
        {
          "indexed": true,
          "internalType": "uint256",
          "name": "trialId",
          "type": "uint256"
        }
      ],
      "name": "AppliedToTrial",
      "type": "event"
    },
    {
      "anonymous": false,
      "inputs": [
        {
          "indexed": true,
          "internalType": "bytes32",
          "name": "role",
          "type": "bytes32"
        },
        {
          "indexed": false,
          "internalType": "address",
          "name": "oldAddr",
          "type": "address"
        },
        {
          "indexed": false,
          "internalType": "address",
          "name": "newAddr",
          "type": "address"
        }
      ],
      "name": "AuthorizedReaderChanged",
      "type": "event"
    },
    {
      "anonymous": false,
      "inputs": [
        {
          "indexed": true,
          "internalType": "uint256",
          "name": "commitment",
          "type": "uint256"
        },
        {
          "indexed": false,
          "internalType": "uint256",
          "name": "trialCount",
          "type": "uint256"
        }
      ],
      "name": "BatchEligibilityComputed",
      "type": "event"
    },
    {
      "anonymous": false,
      "inputs": [
        {
          "indexed": true,
          "internalType": "uint256",
          "name": "commitment",
          "type": "uint256"
        },
        {
          "indexed": true,
          "internalType": "uint256",
          "name": "trialId",
          "type": "uint256"
        },
        {
          "indexed": true,
          "internalType": "uint256",
          "name": "nullifier",
          "type": "uint256"
        }
      ],
      "name": "BatchEligibilityTrialChecked",
      "type": "event"
    },
    {
      "anonymous": false,
      "inputs": [
        {
          "indexed": true,
          "internalType": "address",
          "name": "patient",
          "type": "address"
        },
        {
          "indexed": true,
          "internalType": "uint256",
          "name": "trialId",
          "type": "uint256"
        }
      ],
      "name": "EligibilityComputed",
      "type": "event"
    },
    {
      "anonymous": false,
      "inputs": [
        {
          "indexed": true,
          "internalType": "uint256",
          "name": "nullifier",
          "type": "uint256"
        },
        {
          "indexed": true,
          "internalType": "uint256",
          "name": "trialId",
          "type": "uint256"
        },
        {
          "indexed": false,
          "internalType": "bytes32",
          "name": "resultHash",
          "type": "bytes32"
        },
        {
          "indexed": false,
          "internalType": "bytes32",
          "name": "fheStageHash",
          "type": "bytes32"
        },
        {
          "indexed": false,
          "internalType": "bytes32",
          "name": "criteriaSchemaHash",
          "type": "bytes32"
        },
        {
          "indexed": false,
          "internalType": "bool",
          "name": "eligible",
          "type": "bool"
        }
      ],
      "name": "EligibilityProofVerified",
      "type": "event"
    },
    {
      "anonymous": false,
      "inputs": [
        {
          "indexed": true,
          "internalType": "address",
          "name": "patient",
          "type": "address"
        },
        {
          "indexed": true,
          "internalType": "uint256",
          "name": "trialId",
          "type": "uint256"
        }
      ],
      "name": "EligibilityScoreComputed",
      "type": "event"
    },
    {
      "anonymous": false,
      "inputs": [
        {
          "indexed": true,
          "internalType": "address",
          "name": "newOwner",
          "type": "address"
        }
      ],
      "name": "OwnershipAccepted",
      "type": "event"
    },
    {
      "anonymous": false,
      "inputs": [
        {
          "indexed": true,
          "internalType": "address",
          "name": "proposedOwner",
          "type": "address"
        }
      ],
      "name": "OwnershipProposed",
      "type": "event"
    },
    {
      "inputs": [],
      "name": "CRITERIA_SCHEMA_HASH",
      "outputs": [
        {
          "internalType": "bytes32",
          "name": "",
          "type": "bytes32"
        }
      ],
      "stateMutability": "view",
      "type": "function"
    },
    {
      "inputs": [],
      "name": "ELIGIBILITY_PUBLIC_INPUT_COUNT",
      "outputs": [
        {
          "internalType": "uint256",
          "name": "",
          "type": "uint256"
        }
      ],
      "stateMutability": "view",
      "type": "function"
    },
    {
      "inputs": [],
      "name": "STAGING_TTL",
      "outputs": [
        {
          "internalType": "uint256",
          "name": "",
          "type": "uint256"
        }
      ],
      "stateMutability": "view",
      "type": "function"
    },
    {
      "inputs": [],
      "name": "acceptOwnership",
      "outputs": [],
      "stateMutability": "nonpayable",
      "type": "function"
    },
    {
      "inputs": [
        {
          "internalType": "uint256",
          "name": "",
          "type": "uint256"
        },
        {
          "internalType": "uint256",
          "name": "",
          "type": "uint256"
        }
      ],
      "name": "anonymousApplications",
      "outputs": [
        {
          "internalType": "enum EligibilityEngine.ApplicationStatus",
          "name": "",
          "type": "uint8"
        }
      ],
      "stateMutability": "view",
      "type": "function"
    },
    {
      "inputs": [
        {
          "internalType": "uint256",
          "name": "",
          "type": "uint256"
        },
        {
          "internalType": "bool",
          "name": "",
          "type": "bool"
        },
        {
          "internalType": "bytes",
          "name": "",
          "type": "bytes"
        }
      ],
      "name": "applyToTrial",
      "outputs": [],
      "stateMutability": "pure",
      "type": "function"
    },
    {
      "inputs": [
        {
          "internalType": "uint256",
          "name": "",
          "type": "uint256"
        },
        {
          "internalType": "uint256",
          "name": "",
          "type": "uint256"
        }
      ],
      "name": "attestationCriteriaSchemaHashes",
      "outputs": [
        {
          "internalType": "bytes32",
          "name": "",
          "type": "bytes32"
        }
      ],
      "stateMutability": "view",
      "type": "function"
    },
    {
      "inputs": [
        {
          "internalType": "uint256",
          "name": "",
          "type": "uint256"
        },
        {
          "internalType": "uint256",
          "name": "",
          "type": "uint256"
        }
      ],
      "name": "attestationFheStageHashes",
      "outputs": [
        {
          "internalType": "bytes32",
          "name": "",
          "type": "bytes32"
        }
      ],
      "stateMutability": "view",
      "type": "function"
    },
    {
      "inputs": [
        {
          "internalType": "uint256",
          "name": "",
          "type": "uint256"
        },
        {
          "internalType": "uint256",
          "name": "",
          "type": "uint256"
        }
      ],
      "name": "attestationProfileCommitments",
      "outputs": [
        {
          "internalType": "bytes32",
          "name": "",
          "type": "bytes32"
        }
      ],
      "stateMutability": "view",
      "type": "function"
    },
    {
      "inputs": [
        {
          "internalType": "uint256",
          "name": "_nullifier",
          "type": "uint256"
        },
        {
          "internalType": "uint256",
          "name": "_trialId",
          "type": "uint256"
        }
      ],
      "name": "attestationReceipt",
      "outputs": [
        {
          "components": [
            {
              "internalType": "bool",
              "name": "verified",
              "type": "bool"
            },
            {
              "internalType": "bytes32",
              "name": "resultHash",
              "type": "bytes32"
            },
            {
              "internalType": "bytes32",
              "name": "profileCommitment",
              "type": "bytes32"
            },
            {
              "internalType": "bytes32",
              "name": "criteriaSchemaHash",
              "type": "bytes32"
            },
            {
              "internalType": "bytes32",
              "name": "fheStageHash",
              "type": "bytes32"
            }
          ],
          "internalType": "struct EligibilityEngine.AttestationReceipt",
          "name": "",
          "type": "tuple"
        }
      ],
      "stateMutability": "view",
      "type": "function"
    },
    {
      "inputs": [],
      "name": "authorizedRegistry",
      "outputs": [
        {
          "internalType": "address",
          "name": "",
          "type": "address"
        }
      ],
      "stateMutability": "view",
      "type": "function"
    },
    {
      "inputs": [],
      "name": "automationContract",
      "outputs": [
        {
          "internalType": "address",
          "name": "",
          "type": "address"
        }
      ],
      "stateMutability": "view",
      "type": "function"
    },
    {
      "inputs": [
        {
          "internalType": "uint256",
          "name": "",
          "type": "uint256"
        },
        {
          "internalType": "uint256",
          "name": "",
          "type": "uint256"
        }
      ],
      "name": "batchEligibilityChecked",
      "outputs": [
        {
          "internalType": "bool",
          "name": "",
          "type": "bool"
        }
      ],
      "stateMutability": "view",
      "type": "function"
    },
    {
      "inputs": [
        {
          "internalType": "uint256",
          "name": "_nullifier",
          "type": "uint256"
        },
        {
          "internalType": "uint256",
          "name": "_trialId",
          "type": "uint256"
        },
        {
          "internalType": "address",
          "name": "_permitRecipient",
          "type": "address"
        }
      ],
      "name": "cancelStagedAnonymousEligibility",
      "outputs": [],
      "stateMutability": "nonpayable",
      "type": "function"
    },
    {
      "inputs": [
        {
          "internalType": "uint256",
          "name": "",
          "type": "uint256"
        },
        {
          "internalType": "uint256",
          "name": "",
          "type": "uint256"
        },
        {
          "internalType": "uint256",
          "name": "",
          "type": "uint256"
        },
        {
          "internalType": "address",
          "name": "",
          "type": "address"
        },
        {
          "internalType": "address",
          "name": "",
          "type": "address"
        }
      ],
      "name": "checkAnonymousEligibilityWithConsent",
      "outputs": [
        {
          "internalType": "ebool",
          "name": "",
          "type": "bytes32"
        }
      ],
      "stateMutability": "pure",
      "type": "function"
    },
    {
      "inputs": [
        {
          "internalType": "address",
          "name": "",
          "type": "address"
        },
        {
          "internalType": "uint256",
          "name": "",
          "type": "uint256"
        }
      ],
      "name": "checkEligibility",
      "outputs": [
        {
          "internalType": "ebool",
          "name": "",
          "type": "bytes32"
        }
      ],
      "stateMutability": "pure",
      "type": "function"
    },
    {
      "inputs": [
        {
          "internalType": "uint256",
          "name": "_commitment",
          "type": "uint256"
        },
        {
          "internalType": "uint256[]",
          "name": "_trialIds",
          "type": "uint256[]"
        },
        {
          "internalType": "uint256[]",
          "name": "_nullifiers",
          "type": "uint256[]"
        },
        {
          "internalType": "address",
          "name": "_permitRecipient",
          "type": "address"
        }
      ],
      "name": "checkEligibilityBatch",
      "outputs": [
        {
          "internalType": "bytes32[]",
          "name": "finalCts",
          "type": "bytes32[]"
        }
      ],
      "stateMutability": "nonpayable",
      "type": "function"
    },
    {
      "inputs": [],
      "name": "confidentialProtocolId",
      "outputs": [
        {
          "internalType": "uint256",
          "name": "",
          "type": "uint256"
        }
      ],
      "stateMutability": "view",
      "type": "function"
    },
    {
      "inputs": [],
      "name": "consentGate",
      "outputs": [
        {
          "internalType": "contract EncryptedConsentGate",
          "name": "",
          "type": "address"
        }
      ],
      "stateMutability": "view",
      "type": "function"
    },
    {
      "inputs": [],
      "name": "consentManager",
      "outputs": [
        {
          "internalType": "contract ConsentManager",
          "name": "",
          "type": "address"
        }
      ],
      "stateMutability": "view",
      "type": "function"
    },
    {
      "inputs": [],
      "name": "dataAccessLog",
      "outputs": [
        {
          "internalType": "contract DataAccessLog",
          "name": "",
          "type": "address"
        }
      ],
      "stateMutability": "view",
      "type": "function"
    },
    {
      "inputs": [],
      "name": "eligibilityVerifier",
      "outputs": [
        {
          "internalType": "contract IHonkVerifier",
          "name": "",
          "type": "address"
        }
      ],
      "stateMutability": "view",
      "type": "function"
    },
    {
      "inputs": [
        {
          "internalType": "uint256",
          "name": "_trialId",
          "type": "uint256"
        }
      ],
      "name": "encryptedCriteriaBindingHash",
      "outputs": [
        {
          "internalType": "bytes32",
          "name": "",
          "type": "bytes32"
        }
      ],
      "stateMutability": "view",
      "type": "function"
    },
    {
      "inputs": [
        {
          "internalType": "uint256",
          "name": "_commitment",
          "type": "uint256"
        },
        {
          "internalType": "uint256",
          "name": "_nullifier",
          "type": "uint256"
        },
        {
          "internalType": "uint256",
          "name": "_trialId",
          "type": "uint256"
        },
        {
          "internalType": "address",
          "name": "_permitRecipient",
          "type": "address"
        },
        {
          "internalType": "address",
          "name": "_consentWallet",
          "type": "address"
        },
        {
          "internalType": "bytes",
          "name": "_proof",
          "type": "bytes"
        },
        {
          "internalType": "bytes32[]",
          "name": "_publicInputs",
          "type": "bytes32[]"
        },
        {
          "internalType": "bool",
          "name": "_eligible",
          "type": "bool"
        }
      ],
      "name": "finalizeAnonymousEligibilityWithProof",
      "outputs": [
        {
          "internalType": "ebool",
          "name": "finalResult",
          "type": "bytes32"
        }
      ],
      "stateMutability": "nonpayable",
      "type": "function"
    },
    {
      "inputs": [
        {
          "internalType": "uint256",
          "name": "_nullifier",
          "type": "uint256"
        },
        {
          "internalType": "uint256",
          "name": "_trialId",
          "type": "uint256"
        }
      ],
      "name": "getAnonymousApplicationStatus",
      "outputs": [
        {
          "internalType": "enum EligibilityEngine.ApplicationStatus",
          "name": "",
          "type": "uint8"
        }
      ],
      "stateMutability": "view",
      "type": "function"
    },
    {
      "inputs": [
        {
          "internalType": "uint256",
          "name": "_nullifier",
          "type": "uint256"
        },
        {
          "internalType": "uint256",
          "name": "_trialId",
          "type": "uint256"
        }
      ],
      "name": "getAnonymousResult",
      "outputs": [
        {
          "internalType": "ebool",
          "name": "",
          "type": "bytes32"
        }
      ],
      "stateMutability": "view",
      "type": "function"
    },
    {
      "inputs": [
        {
          "internalType": "uint256",
          "name": "_nullifier",
          "type": "uint256"
        },
        {
          "internalType": "uint256",
          "name": "_trialId",
          "type": "uint256"
        }
      ],
      "name": "getAnonymousScore",
      "outputs": [
        {
          "internalType": "euint8",
          "name": "",
          "type": "bytes32"
        }
      ],
      "stateMutability": "view",
      "type": "function"
    },
    {
      "inputs": [
        {
          "internalType": "uint256",
          "name": "_nullifier",
          "type": "uint256"
        },
        {
          "internalType": "uint256",
          "name": "_trialId",
          "type": "uint256"
        }
      ],
      "name": "getConsentWalletForNullifier",
      "outputs": [
        {
          "internalType": "address",
          "name": "",
          "type": "address"
        }
      ],
      "stateMutability": "view",
      "type": "function"
    },
    {
      "inputs": [
        {
          "internalType": "uint256",
          "name": "_nullifier",
          "type": "uint256"
        },
        {
          "internalType": "uint256",
          "name": "_trialId",
          "type": "uint256"
        }
      ],
      "name": "getDecryptPermitHolder",
      "outputs": [
        {
          "internalType": "address",
          "name": "",
          "type": "address"
        }
      ],
      "stateMutability": "view",
      "type": "function"
    },
    {
      "inputs": [
        {
          "internalType": "address",
          "name": "_patient",
          "type": "address"
        },
        {
          "internalType": "uint256",
          "name": "_trialId",
          "type": "uint256"
        }
      ],
      "name": "getEncryptedResult",
      "outputs": [
        {
          "internalType": "ebool",
          "name": "",
          "type": "bytes32"
        }
      ],
      "stateMutability": "view",
      "type": "function"
    },
    {
      "inputs": [
        {
          "internalType": "address",
          "name": "_patient",
          "type": "address"
        },
        {
          "internalType": "uint256",
          "name": "_trialId",
          "type": "uint256"
        }
      ],
      "name": "getEncryptedScore",
      "outputs": [
        {
          "internalType": "euint8",
          "name": "",
          "type": "bytes32"
        }
      ],
      "stateMutability": "view",
      "type": "function"
    },
    {
      "inputs": [],
      "name": "legacyPatientRegistry",
      "outputs": [
        {
          "internalType": "address",
          "name": "",
          "type": "address"
        }
      ],
      "stateMutability": "view",
      "type": "function"
    },
    {
      "inputs": [
        {
          "internalType": "uint256",
          "name": "",
          "type": "uint256"
        },
        {
          "internalType": "uint256",
          "name": "",
          "type": "uint256"
        }
      ],
      "name": "noirResultHashes",
      "outputs": [
        {
          "internalType": "bytes32",
          "name": "",
          "type": "bytes32"
        }
      ],
      "stateMutability": "view",
      "type": "function"
    },
    {
      "inputs": [
        {
          "internalType": "uint256",
          "name": "",
          "type": "uint256"
        },
        {
          "internalType": "uint256",
          "name": "",
          "type": "uint256"
        }
      ],
      "name": "noirVerifiedResults",
      "outputs": [
        {
          "internalType": "bool",
          "name": "",
          "type": "bool"
        }
      ],
      "stateMutability": "view",
      "type": "function"
    },
    {
      "inputs": [],
      "name": "owner",
      "outputs": [
        {
          "internalType": "address",
          "name": "",
          "type": "address"
        }
      ],
      "stateMutability": "view",
      "type": "function"
    },
    {
      "inputs": [],
      "name": "patientRegistry",
      "outputs": [
        {
          "internalType": "contract IAnonymousPatientRegistry",
          "name": "",
          "type": "address"
        }
      ],
      "stateMutability": "view",
      "type": "function"
    },
    {
      "inputs": [],
      "name": "pendingOwner",
      "outputs": [
        {
          "internalType": "address",
          "name": "",
          "type": "address"
        }
      ],
      "stateMutability": "view",
      "type": "function"
    },
    {
      "inputs": [
        {
          "internalType": "address",
          "name": "_newOwner",
          "type": "address"
        }
      ],
      "name": "proposeOwnership",
      "outputs": [],
      "stateMutability": "nonpayable",
      "type": "function"
    },
    {
      "inputs": [
        {
          "internalType": "uint256",
          "name": "_commitment",
          "type": "uint256"
        },
        {
          "internalType": "uint256",
          "name": "_trialId",
          "type": "uint256"
        }
      ],
      "name": "resetBatchEligibilityCheck",
      "outputs": [],
      "stateMutability": "nonpayable",
      "type": "function"
    },
    {
      "inputs": [],
      "name": "scoreLeaderboard",
      "outputs": [
        {
          "internalType": "address",
          "name": "",
          "type": "address"
        }
      ],
      "stateMutability": "view",
      "type": "function"
    },
    {
      "inputs": [
        {
          "internalType": "address",
          "name": "_registry",
          "type": "address"
        }
      ],
      "name": "setAuthorizedRegistry",
      "outputs": [],
      "stateMutability": "nonpayable",
      "type": "function"
    },
    {
      "inputs": [
        {
          "internalType": "address",
          "name": "_automation",
          "type": "address"
        }
      ],
      "name": "setAutomationContract",
      "outputs": [],
      "stateMutability": "nonpayable",
      "type": "function"
    },
    {
      "inputs": [
        {
          "internalType": "address",
          "name": "_gate",
          "type": "address"
        }
      ],
      "name": "setConsentGate",
      "outputs": [],
      "stateMutability": "nonpayable",
      "type": "function"
    },
    {
      "inputs": [
        {
          "internalType": "address",
          "name": "_log",
          "type": "address"
        }
      ],
      "name": "setDataAccessLog",
      "outputs": [],
      "stateMutability": "nonpayable",
      "type": "function"
    },
    {
      "inputs": [
        {
          "internalType": "address",
          "name": "_verifier",
          "type": "address"
        }
      ],
      "name": "setEligibilityVerifier",
      "outputs": [],
      "stateMutability": "nonpayable",
      "type": "function"
    },
    {
      "inputs": [
        {
          "internalType": "address",
          "name": "_legacy",
          "type": "address"
        }
      ],
      "name": "setLegacyPatientRegistry",
      "outputs": [],
      "stateMutability": "nonpayable",
      "type": "function"
    },
    {
      "inputs": [
        {
          "internalType": "address",
          "name": "_leaderboard",
          "type": "address"
        }
      ],
      "name": "setScoreLeaderboard",
      "outputs": [],
      "stateMutability": "nonpayable",
      "type": "function"
    },
    {
      "inputs": [
        {
          "internalType": "address",
          "name": "_vault",
          "type": "address"
        }
      ],
      "name": "setSponsorIncentiveVault",
      "outputs": [],
      "stateMutability": "nonpayable",
      "type": "function"
    },
    {
      "inputs": [],
      "name": "sponsorIncentiveVault",
      "outputs": [
        {
          "internalType": "address",
          "name": "",
          "type": "address"
        }
      ],
      "stateMutability": "view",
      "type": "function"
    },
    {
      "inputs": [
        {
          "internalType": "uint256",
          "name": "_commitment",
          "type": "uint256"
        },
        {
          "internalType": "uint256",
          "name": "_trialId",
          "type": "uint256"
        },
        {
          "internalType": "uint256",
          "name": "_nullifier",
          "type": "uint256"
        },
        {
          "internalType": "address",
          "name": "_permitRecipient",
          "type": "address"
        }
      ],
      "name": "stageAnonymousEligibility",
      "outputs": [
        {
          "internalType": "bytes32",
          "name": "finalCt",
          "type": "bytes32"
        }
      ],
      "stateMutability": "nonpayable",
      "type": "function"
    },
    {
      "inputs": [],
      "name": "trialManager",
      "outputs": [
        {
          "internalType": "contract TrialManager",
          "name": "",
          "type": "address"
        }
      ],
      "stateMutability": "view",
      "type": "function"
    },
    {
      "inputs": [
        {
          "internalType": "uint256",
          "name": "_trialId",
          "type": "uint256"
        },
        {
          "internalType": "uint256",
          "name": "_nullifier",
          "type": "uint256"
        },
        {
          "internalType": "enum EligibilityEngine.ApplicationStatus",
          "name": "_status",
          "type": "uint8"
        }
      ],
      "name": "updateAnonymousApplicationStatus",
      "outputs": [],
      "stateMutability": "nonpayable",
      "type": "function"
    },
    {
      "inputs": [
        {
          "internalType": "uint256",
          "name": "_trialId",
          "type": "uint256"
        },
        {
          "internalType": "address",
          "name": "_patient",
          "type": "address"
        },
        {
          "internalType": "enum EligibilityEngine.ApplicationStatus",
          "name": "_status",
          "type": "uint8"
        },
        {
          "internalType": "bytes",
          "name": "_message",
          "type": "bytes"
        }
      ],
      "name": "updateApplicationStatus",
      "outputs": [],
      "stateMutability": "nonpayable",
      "type": "function"
    },
    {
      "inputs": [
        {
          "internalType": "bytes",
          "name": "_proof",
          "type": "bytes"
        },
        {
          "internalType": "bytes32[]",
          "name": "_publicInputs",
          "type": "bytes32[]"
        },
        {
          "internalType": "uint256",
          "name": "_trialId",
          "type": "uint256"
        },
        {
          "internalType": "uint256",
          "name": "_nullifier",
          "type": "uint256"
        },
        {
          "internalType": "uint256",
          "name": "_commitment",
          "type": "uint256"
        },
        {
          "internalType": "bool",
          "name": "_eligible",
          "type": "bool"
        }
      ],
      "name": "verifyEligibilityProof",
      "outputs": [],
      "stateMutability": "nonpayable",
      "type": "function"
    }
  ],
  "bytecode": "0x60806040523461032157604051601f6156c438819003918201601f19168301916001600160401b03831184841017610325578084926060946040528339810103126103215761004d81610358565b90610066604061005f60208401610358565b9201610358565b9161006f61036c565b504660010361023d5761008061036c565b50610089610339565b73ca2e8f1f656cd25c01f05d0b243ab1ecd4a8ffb6815273d82385dada1ae3e969447f20a3164f6213100e7560208201527377627828a55156b04ac0dc0eb30467f1a552bb0360408201525b80517f9e7b61f58c47dc699ac88507c4f5bb9f121c03808c5676a8078fe583e464970080546001600160a01b03199081166001600160a01b039384161790915560208301517f9e7b61f58c47dc699ac88507c4f5bb9f121c03808c5676a8078fe583e4649701805483169184169190911790556040909201517f9e7b61f58c47dc699ac88507c4f5bb9f121c03808c5676a8078fe583e4649702805490931690821617909155168015158061022b575b80610219575b156101e557600980546001600160a01b031990811633179091555f80548216929092179091556002805482166001600160a01b03938416179055600380549091169290911691909117905560405161533d90816103878239f35b60405162461bcd60e51b815260206004820152600c60248201526b5a65726f206164647265737360a01b6044820152606490fd5b506001600160a01b038316151561018b565b506001600160a01b0382161515610185565b4662aa36a7036102a85761024f61036c565b50610258610339565b73f0ffdc93b7e186bc2f8cb3daa75d86d1930a433d81527392c920834ec8941d2c77d188936e1f7a6f49c127602082015273be0e383937d564d7ff0bc3b46c51f0bf8d5c311a60408201526100d5565b46617a6903610312576102b961036c565b506102c2610339565b7350157cffd6bbfa2dece204a89ec419c23ef5755d815273e3a9105a3a932253a70f126eb1e3b589c643dd24602082015273901f8942346f7ab3a01f6d7613119bca447bb03060408201526100d5565b6373cac13b60e01b5f5260045ffd5b5f80fd5b634e487b7160e01b5f52604160045260245ffd5b60405190606082016001600160401b0381118382101761032557604052565b51906001600160a01b038216820361032157565b610374610339565b905f82525f60208301525f604083015256fe60806040526004361015610011575f80fd5b5f5f3560e01c8063013d9336146129f657806303a042fc1461294e5780630689d5ed1461292557806307982309146128fc57806307c8b529146121f3578063090741a01461214b5780630fcba9b214612050578063112476ae14612027578063188721ad14611ff55780631928a51814611ebb5780631b785e2514611e8e5780631f9d9d2314611e6157806328cec8ac14611a445780632d0391ba14611a175780632d7306e0146119ee5780632e75b09e146119d25780632e8ff5631461196857806334e8bbc11461193e578063467cd4f0146109bd57806349df1feb146118925780635250c6e21461186b57806355f8cfdd1461184257806358af3a73146118155780635d73f544146117ec5780636276c7b31461174457806362909f0a1461169c57806366d0b65c146115f4578063710bf32214611578578063739036461461155a57806379ba5097146114b95780637f8c99d7146114875780638927b0301461146c5780638c7784b31461120e5780638da5cb5b146111e5578063972a6ddf14610f1e578063a14ea2b814610ef5578063ab03380214610ad9578063b19e5628146109f4578063b6e4033f146109bd578063b85fe8a21461091a578063c0b21fd0146108c8578063c6bb65311461089f578063cd5d36dd146107dc578063d350a18f14610721578063dfed3532146105dc578063e1cfaf28146105b3578063e30c39781461058a578063e59ac6ba14610499578063e5ae6f5914610416578063e6414e37146103bc578063e75bb26614610393578063e9d0e3ef14610332578063f520f24f146102d85763fda0fbb81461026c575f80fd5b346102d55760403660031901126102d5576020906040906001600160a01b03610293612e3b565b1680331480156102c1575b6102a79061352c565b815260138352818120602435825283522054604051908152f35b506008546001600160a01b0316331461029e565b80fd5b50346102d55760203660031901126102d5576102f2612e3b565b61030760018060a01b03600954163314612fac565b6001600160a01b031661031b811515612fe5565b600480546001600160a01b03191691909117905580f35b50346102d55761034136612e7d565b9060018060a01b03600954163314801561037f575b61035f90612ea0565b8252601c602052604082209082526020526040812060ff19815416905580f35b50600b546001600160a01b03163314610356565b50346102d557806003193601126102d5576003546040516001600160a01b039091168152602090f35b50346102d55760203660031901126102d5576103d6612e3b565b6103eb60018060a01b03600954163314612fac565b6001600160a01b03166103ff811515612fe5565b600c80546001600160a01b03191691909117905580f35b50346102d55760209061042836612e7d565b9060018060a01b036005541633148015610485575b8015610471575b61044d90612ea0565b8252601a8352604082209082528252604060018060a01b0391205416604051908152f35b506009546001600160a01b03163314610444565b50600b546001600160a01b0316331461043d565b50346102d55760203660031901126102d557600254604051631a7f3c3360e01b815260048035908201819052918390829060249082906001600160a01b03165afa90811561057f578361020093949261055c575b505001511561050957610501602091614508565b604051908152f35b60405162461bcd60e51b815260206004820152602560248201527f547269616c20646f6573206e6f742075736520656e6372797074656420637269604482015264746572696160d81b6064820152608490fd5b61057892503d8091833e6105708183612f37565b8101906131e4565b5f806104ed565b6040513d85823e3d90fd5b50346102d557806003193601126102d557600a546040516001600160a01b039091168152602090f35b50346102d557806003193601126102d5576006546040516001600160a01b039091168152602090f35b50346102d5576105eb36612e7d565b90808352601960205260408320828452602052602460018060a01b036040852054168460018060a01b036002541660405193848092631a7f3c3360e01b82528860048301525afa918215610716579185939160409593602097926106fa575b5033149081156106e3575b5080156106cf575b80156106bb575b80156106a7575b8015610693575b61067b90612ea0565b82526016845282822090825283522054604051908152f35b506009546001600160a01b03163314610672565b506005546001600160a01b0316331461066b565b50600b546001600160a01b03163314610664565b506006546001600160a01b0316331461065d565b608001516001600160a01b0316331490505f610655565b61070f9192503d8087833e6105708183612f37565b905f61064a565b6040513d87823e3d90fd5b50346102d55760603660031901126102d55761073b612e2c565b506044356001600160401b0381116107d85761075b903690600401612dcf565b505060405162461bcd60e51b815260206004820152604760248201527f446570726563617465643a2075736520616e6f6e796d6f757320666c6f77207660448201527f6961204d65645661756c7452656769737472792e7374616765416e6f6e796d6f60648201526675734170706c7960c81b608482015260a490fd5b5080fd5b50346102d5576020906107ee36612e7d565b9082526019835260408083209183529083529020546001600160a01b0316338114801561088b575b8015610877575b8015610863575b801561084f575b801561083b575b61050190612ea0565b506009546001600160a01b03163314610832565b506005546001600160a01b0316331461082b565b506006546001600160a01b03163314610824565b506007546001600160a01b0316331461081d565b50600b546001600160a01b03163314610816565b50346102d557806003193601126102d5576007546040516001600160a01b039091168152602090f35b50346102d55760203660031901126102d5576108e2612e3b565b6108f760018060a01b03600954163314612fac565b600180546001600160a01b0319166001600160a01b039290921691909117905580f35b50346102d55760a03660031901126102d557610934612e51565b5061093d612e67565b5060405162461bcd60e51b815260206004820152604b60248201527f446570726563617465643a207573652066696e616c697a65416e6f6e796d6f7560448201527f73456c69676962696c6974795769746850726f6f662077697468204e6f69722060648201526a30ba3a32b9ba30ba34b7b760a91b608482015260a490fd5b50346102d55760ff60406020926109d336612e7d565b9082526018855282822090825284522054166109f26040518092612e93565bf35b50346102d55760603660031901126102d5576024356004356044356001600160a01b03811690819003610ad557610a6f90610a3a60018060a01b03600b5416331461303a565b610a45811515613081565b828552601b602090815260408087208688529091528520600201546001600160a01b031614613105565b808352601b60205260408320828452602052610a90604084205415156130c8565b808352601b60205260408320828452602052610aae60408420613588565b7f531be854624155ace8feaa7624c89efee81e78b0d2fb401c027853d1db61a53d8380a380f35b8380fd5b50346102d55760803660031901126102d5576004356024356001600160a01b03811690818103610ad557604435906004821015610ef1576064356001600160401b038111610d3257610b2f903690600401612dcf565b909160248760018060a01b036002541660405192838092631a7f3c3360e01b82528b60048301525afa908115610ee6578891610ecc575b50608001516001600160a01b03163303610e8757858752601460205260408720855f5260205260ff60405f2054166004811015610e735715610e3757858752601460205260408720855f52602052610bc18460405f2061314d565b8587526014602090815260408089205f888152925290206001016001600160401b038311610e23578054600181811c91168015610e19575b6020821014610e05579081601f8a949311610db5575b508383601f8211600114610d50578491610d45575b508460011b905f198660031b1c19161790555b6004546001600160a01b03169081610c9a575b50505091610c94610c83927fb8d37bb75e47252fab0d1ead541c50f4b09cf8a0cde18749fa1cca6d7adb33c89460405194858095612e93565b604060208501526040840191613568565b0390a380f35b604051602081019160018060601b03199060601b16825260ff60f81b8760f81b16603482015242603582015260358152610cd5605582612f37565b51902090803b15610d4157610d0491839189836040518096819582946306cc173360e41b845260048401612f73565b03925af18015610d3657610d19575b80610c4a565b81610d2691959395612f37565b610d325791855f610d13565b8580fd5b6040513d84823e3d90fd5b8280fd5b90508501355f610c24565b82855260208520915085601f198116865b818110610d97575010610d7e575b5050600184811b019055610c37565b8601355f19600387901b60f8161c191690555f80610d6f565b8984013585558d975060019094019360209384019389935001610d61565b908092935260208920601f850160051c81019160208610610dfb575b90601f8b959493920160051c01905b818110610ded5750610c0f565b8a81558a9450600101610de0565b9091508190610dd1565b634e487b7160e01b89526022600452602489fd5b90607f1690610bf9565b634e487b7160e01b88526041600452602488fd5b60405162461bcd60e51b8152602060048201526014602482015273139bc8185c1c1b1a58d85d1a5bdb88199bdd5b9960621b6044820152606490fd5b634e487b7160e01b88526021600452602488fd5b60405162461bcd60e51b815260206004820152601e60248201527f4f6e6c792073706f6e736f722063616e207570646174652073746174757300006044820152606490fd5b610ee091503d808a833e6105708183612f37565b5f610b66565b6040513d8a823e3d90fd5b8480fd5b50346102d557806003193601126102d557600c546040516001600160a01b039091168152602090f35b50346102d55760603660031901126102d5576004356024356044356004811015610ad557600254604051631a7f3c3360e01b815260048101859052908590829060249082906001600160a01b03165afa80156107165760809186916111cb575b500180516001600160a01b0316331480156111b7575b1561115457600282146110ff575b5081845260186020526040842083855260205260ff60408520541660048110156110eb57156110a657818452601860205260408420838552602052610fea816040862061314d565b60045484906001600160a01b031680611022575b505060205f5160206152b15f395f51905f529161101e6040518092612e93565ba380f35b604051602081019085825260ff60f81b8560f81b16604082015242604182015260418152611051606182612f37565b51902090803b15610d41576040516306cc173360e41b81529183918391829084908290611082908c60048401612f73565b03925af18015610d365715610ffe578161109b91612f37565b610ad557835f610ffe565b60405162461bcd60e51b815260206004820152601e60248201527f4e6f20616e6f6e796d6f7573206170706c69636174696f6e20666f756e6400006044820152606490fd5b634e487b7160e01b85526021600452602485fd5b516001600160a01b03163303611115575f610fa2565b60405162461bcd60e51b815260206004820152601760248201527613db9b1e481cdc1bdb9cdbdc8818d85b881858d8d95c1d604a1b6044820152606490fd5b60405162461bcd60e51b815260206004820152603560248201527f4f6e6c792073706f6e736f72206f7220617574686f72697a65642072656769736044820152747472792063616e207570646174652073746174757360581b6064820152608490fd5b50600b546001600160a01b03163314610f94565b6111df91503d8088833e6105708183612f37565b5f610f7e565b50346102d557806003193601126102d5576009546040516001600160a01b039091168152602090f35b50346102d55760803660031901126102d5576044359060243561122f612e51565b9261124560018060a01b03600b5416331461303a565b6001600160a01b03841661125a811515613081565b818452601b602052604084208385526020526040842054611436578354604051633e9d33cb60e11b8152600480359082015290610140908290602490829089906001600160a01b03165af190811561071657906024918691611407575b506112c8610120820151151561343f565b600254604051631a7f3c3360e01b81526004810187905292879184919082906001600160a01b03165afa9182156113fc579261131f86602099946003946113ae978b926113e0575b5061131a82614421565b613f77565b9290976040519261132f84612eed565b8984528a8401858152604080860192835242606087019081528a8552601b8e528185208c86528e52932094518555516001850155516002840180546001600160a01b0319166001600160a01b03929092169190911790555191015561139386614370565b5061139d81614393565b506113a882876143ac565b506143d4565b507f5e916b26f53cabc8f0fa4b1a7f4acbdb6a0365f5a8f26344613fadba82fc566784604051858152a3604051908152f35b6113f59192503d808d833e6105708183612f37565b905f611310565b6040513d88823e3d90fd5b61142991506101403d811161142f575b6114218183612f37565b8101906133a8565b5f6112b7565b503d611417565b60405162461bcd60e51b815260206004820152600e60248201526d105b1c9958591e481cdd1859d95960921b6044820152606490fd5b50346102d557806003193601126102d55760206105016143f2565b50346102d55760ff604060209261149d36612e7d565b908252600d855282822090825284522054166040519015158152f35b50346102d557806003193601126102d557600a546001600160a01b038116903382900361152057600980546001600160a01b0319908116841790915516600a557fb27970c1714b28277b78cc17ac2fe9556e7f048cd48358cffe3dc7d547608fdc8280a280f35b60405162461bcd60e51b81526020600482015260126024820152712737ba10383937b837b9b2b21037bbb732b960711b6044820152606490fd5b50346102d557806003193601126102d557602060405162093a808152f35b50346102d55760203660031901126102d557611592612e3b565b6115a760018060a01b03600954163314612fac565b6001600160a01b03166115bb811515612fe5565b600a80546001600160a01b031916821790557f6ab4d119f23076e8ad491bc65ce85f017fb0591dce08755ba8591059cc51737a8280a280f35b50346102d55760203660031901126102d55761160e612e3b565b61162360018060a01b03600954163314612fac565b6001600160a01b03811690611639821515612fe5565b60075460405190917ffbebd9d2929c6ea6dcd04ada2e2581739aef31bbdfb6b769ebdc4e3a0cd46f06915f5160206152f15f395f51905f52918190611688906001600160a01b03871683613020565b0390a26001600160a01b0319161760075580f35b50346102d55760203660031901126102d5576116b6612e3b565b6116cb60018060a01b03600954163314612fac565b6001600160a01b038116906116e1821515612fe5565b60085460405190917f68ad06d9309d9e917865c172f0e7f61d2495ec1a1f46c631bf649cb26c5b204f915f5160206152f15f395f51905f52918190611730906001600160a01b03871683613020565b0390a26001600160a01b0319161760085580f35b50346102d55760203660031901126102d55761175e612e3b565b61177360018060a01b03600954163314612fac565b6001600160a01b03811690611789821515612fe5565b60065460405190917f0ad430a6acc85b4b0d24662fc5888d01d16cb74f56f983fcab25c5e9792d72ee915f5160206152f15f395f51905f529181906117d8906001600160a01b03871683613020565b0390a26001600160a01b0319161760065580f35b50346102d557806003193601126102d5576001546040516001600160a01b039091168152602090f35b50346102d557604060209161182936612e7d565b9082526011845282822090825283522054604051908152f35b50346102d557806003193601126102d5576002546040516001600160a01b039091168152602090f35b50346102d557806003193601126102d557546040516001600160a01b039091168152602090f35b50346102d55760403660031901126102d5576118ac612e3b565b5060405162461bcd60e51b815260206004820152606060248201527f4c656761637920656c69676962696c69747920636865636b206465707265636160448201527f7465642e2055736520616e6f6e796d6f757320666c6f7720766961204d65645660648201527f61756c7452656769737472792e7374616765416e6f6e796d6f75734170706c79608482015260a490fd5b50346102d557806003193601126102d5575060205f5160206152715f395f51905f52604051908152f35b50346102d55760403660031901126102d5576020906040906001600160a01b03611990612e3b565b1680331480156119be575b6119a49061352c565b815260128352818120602435825283522054604051908152f35b506008546001600160a01b0316331461199b565b50346102d557806003193601126102d557602060405160118152f35b50346102d557806003193601126102d557600b546040516001600160a01b039091168152602090f35b50346102d5576040602091611a2b36612e7d565b908252600e845282822090825283522054604051908152f35b50346102d55760803660031901126102d5576004356024356001600160401b038111610d4157611a78903690600401612dfc565b916044356001600160401b038111610ef157611a98903690600401612dfc565b939092611aa3612e51565b93611ab960018060a01b03600b5416331461303a565b611acd6001600160a01b0386161515613081565b82151580611e56575b15611e1c57858303611de5578654604051633e9d33cb60e11b815260048101869052919061014090839060249082908c906001600160a01b03165af1918215610ee6578892611dc4575b50611b34610120839897980151151561343f565b611b3d84613499565b96611b4b6040519889612f37565b848852611b5785613499565b602089019790601f1901368937895b868110611bdf5750505050505060207fb14d696ab9fe22a509a96c7205e6a01bb66b5f26c1c78824e03cc7ffa2e4c08791604051908152a2604051928392602084019060208552518091526040840192915b818110611bc6575050500390f35b8251845285945060209384019390920191600101611bb8565b8a611bee8289899d9c9d612edd565b3560ff6040611bfe85878a612edd565b35938c8152601c602052818120848252602052205416611d8157898d52601c6020528c8160408220915260205260408d20600160ff1982541617905560248d8060018060a01b036002541660405193848092631a7f3c3360e01b82528760048301525afa8015611d7457611ca59282859392611d59575b5050611c8660a082015115156134b0565b611c9f6101e08201518015159081611d4f575b506134f2565b89613f77565b611cae82614370565b50611cb881614393565b50611cc387836143ac565b50611cce87826143d4565b506006546001600160a01b031680611d3e575b50508b51841015611d2a57600584901b8c016020015260019291908a7ff9ba2d452d1f7528ccacb49f0b991fc24be20ba18d19d4a3a371b4641b1672398f80a401989798611b66565b634e487b7160e01b8e52603260045260248efd5b611d47916143d4565b505f80611ce1565b905042105f611c99565b611d6d92503d8091833e6105708183612f37565b8f80611c75565b50604051903d90823e3d90fd5b60405162461bcd60e51b815260206004820152601b60248201527a151c9a585b08185b1c9958591e4818985d18da0b58da1958dad959602a1b6044820152606490fd5b611dde9192506101403d811161142f576114218183612f37565b905f611b20565b60405162461bcd60e51b815260206004820152600f60248201526e098cadccee8d040dad2e6dac2e8c6d608b1b6044820152606490fd5b60405162461bcd60e51b8152602060048201526012602482015271496e76616c69642062617463682073697a6560701b6044820152606490fd5b506010831115611ad6565b50346102d5576040602091611e7536612e7d565b908252600f845282822090825283522054604051908152f35b50346102d5576040602091611ea236612e7d565b9082526010845282822090825283522054604051908152f35b50346102d557611eca36612e7d565b90808352601960205260408320828452602052602460018060a01b036040852054168460018060a01b036002541660405193848092631a7f3c3360e01b82528860048301525afa91821561071657918593916040959360209792611fd9575b503314908115611fc2575b508015611fae575b8015611f9a575b8015611f86575b8015611f72575b611f5a90612ea0565b82526017845282822090825283522054604051908152f35b506009546001600160a01b03163314611f51565b506005546001600160a01b03163314611f4a565b50600b546001600160a01b03163314611f43565b506006546001600160a01b03163314611f3c565b608001516001600160a01b0316331490505f611f34565b611fee9192503d8087833e6105708183612f37565b905f611f29565b50346102d55760ff604060209261200b36612e7d565b908252601c855282822090825284522054166040519015158152f35b50346102d557806003193601126102d5576005546040516001600160a01b039091168152602090f35b50346102d55760a09061206236612e7d565b919081608060405161207381612f1c565b8281528260208201528260408201528260608201520152808252600d6020526040822083835260205260ff60408320541692818352600e6020526040832081845260205260408084205493838152600f6020528181208382526020528181205492848252601160205282822081835260205282822054948252601060205282822090825260205220549260806040519561210c87612f1c565b15159586815260208101928352604081019384526060810194855201938452604051948552516020850152516040840152516060830152516080820152f35b50346102d55760203660031901126102d557612165612e3b565b61217a60018060a01b03600954163314612fac565b6001600160a01b03811690612190821515612fe5565b600b5460405190917f0c1e29592c3c8d8a0f36c76ce18fb1c002b5aa5514de292e507d7e1ce9571067915f5160206152f15f395f51905f529181906121df906001600160a01b03871683613020565b0390a26001600160a01b03191617600b5580f35b50346102d5576101003660031901126102d557602435604435612214612e51565b9161221d612e67565b9260a4356001600160401b038111610d325761223d903690600401612dcf565b909160c4356001600160401b0381116126c25761225e903690600401612dfc565b96909360e43592831590811585036128f85761228560018060a01b03600b5416331461303a565b6001600160a01b03169061229a821515613081565b6001600160a01b038416156128ba57612877576122fc90878b52601b60205260408b20898c526020526122d260408c205415156130c8565b878b52601b60209081526040808d208b8e529091528b20600201546001600160a01b031614613105565b858952601b60205260408920878a52602052600360408a20015462093a80810180911161286357421161282c57858952601860205260408920878a5260205260ff60408a2054166004811015612818576127df57849361237c9184888a8c60408f848152601b6020528181208482526020522054998a966004359661359f565b848852601b602052604088208689526020526040882088604051916123a083612eed565b805480845260018201546020850190815260028301546001600160a01b031660408601908152600390930154606086015293612464916123e19015156130c8565b51935191516001600160a01b03169384906123fd821515613081565b8a8552601b602052604085208c865260205261241b60408620613588565b61242481614370565b5061242e84614393565b508a85526016602052604085208c86526020528060408620558a85526017602052604085208c86526020528360408620556143ac565b5061246f83826143d4565b506006546001600160a01b03168061271e575b5050869052601960209081526040808b20898c52909152892080546001600160a01b0319166001600160a01b0390921691909117905585857fd14530a3efae4c2f49131f1d8ab2764b33921c328e74cacb80fb2c95cc72ee838a80a3848852601a60209081526040808a20888b529091528820546001600160a01b03166126da57848852601a60209081526040808a20888b528252808a2080546001600160a01b0319166001600160a01b039094169390931790925585895260168152818920878a52815281892054868a5260188252828a20888b52909152908820805460ff1916600117905595612578838383878a8a613ec3565b6004546001600160a01b031680612617575b50806003101561260357600610156125ef579584845f5160206152915f395f51905f525f5160206152b15f395f51905f529560209a956125db8c97604051938493606060c083013592013585612f8c565b0390a35060405160018152a3604051908152f35b634e487b7160e01b87526032600452602487fd5b634e487b7160e01b88526032600452602488fd5b81600310156126c6578890604051602081019088825260608801356040820152426060820152734154544553544154494f4e5f46494e414c495a4560601b608082015260748152612669609482612f37565b51902090803b15610d41576126989183918a836040518096819582946306cc173360e41b845260048401612f5a565b03925af18015610d36576126ad575b5061258a565b816126b791612f37565b6126c257875f6126a7565b8780fd5b634e487b7160e01b89526032600452602489fd5b60405162461bcd60e51b815260206004820152601c60248201527b10dbdb9cd95b9d081dd85b1b195d08185b1c9958591e48189bdd5b9960221b6044820152606490fd5b61272890826143d4565b506006546001600160a01b0316803b15610d41578290818a60448d836040519586948593630a8d86fb60e41b8552600485015260248401525af16127ca575b50506006546001600160a01b0316803b15610d41578860648b858094604051968795869463b3b2a3e560e01b86526004860152602485015260448401525af16127b1575b80612482565b816127bb91612f37565b6127c657885f6127ab565b8880fd5b816127d491612f37565b6107d857815f612767565b60405162461bcd60e51b8152602060048201526011602482015270105b1c9958591e48199a5b985b1a5e9959607a1b6044820152606490fd5b634e487b7160e01b8a52602160045260248afd5b60405162461bcd60e51b815260206004820152600f60248201526e14dd1859da5b99c8195e1c1a5c9959608a1b6044820152606490fd5b634e487b7160e01b8a52601160045260248afd5b60405162461bcd60e51b815260206004820152601b60248201527a139bdd08195b1a59da589b1948199bdc881d1a1a5cc81d1c9a585b602a1b6044820152606490fd5b60405162461bcd60e51b8152602060048201526016602482015275125b9d985b1a590818dbdb9cd95b9d081dd85b1b195d60521b6044820152606490fd5b8a80fd5b50346102d557806003193601126102d5576004546040516001600160a01b039091168152602090f35b50346102d557806003193601126102d5576008546040516001600160a01b039091168152602090f35b50346102d55760203660031901126102d557612968612e3b565b61297d60018060a01b03600954163314612fac565b6001600160a01b03811690612993821515612fe5565b60055460405190917f7b8d60480804e3c6f1b53df360c1c9450cf91afb71969b968f48c8c63b9296b7915f5160206152f15f395f51905f529181906129e2906001600160a01b03871683613020565b0390a26001600160a01b0319161760055580f35b5034612c185760c0366003190112612c18576004356001600160401b038111612c1857612a27903690600401612dcf565b906024356001600160401b038111612c1857612a47903690600401612dfc565b9160443593606435936084359260a43592831580158503612c1857600b546001600160a01b031633148015612da3575b612a8090612ea0565b612d52578415612d0d57865f52601860205260405f20885f5260205260ff60405f2054166004811015612cf95715612ca057865f52600d60205260405f20885f5260205260ff60405f205416612c6a57865f52601660205260405f20885f5260205260405f2054948515612c305784888a868a8a96612afe9861359f565b612b0c838383878a8a613ec3565b6004546001600160a01b031680612b6e575b5080600310156125ef5760061015612b5a5790610c945f5160206152915f395f51905f529392604051938493606060c083013592013585612f8c565b634e487b7160e01b86526032600452602486fd5b8160031015612c1c576040516020810190878252606087013560408201524260608201526f1055151154d510551253d397d4d1505360821b608082015260708152612bba609082612f37565b51902090803b15612c1857612be9915f9189836040518096819582946306cc173360e41b845260048401612f5a565b03925af18015612c0d5715612b1e57612c059197505f90612f37565b5f955f612b1e565b6040513d5f823e3d90fd5b5f80fd5b634e487b7160e01b5f52603260045260245ffd5b60405162461bcd60e51b8152602060048201526012602482015271139bc816985b5848119211481c995cdd5b1d60721b6044820152606490fd5b60405162461bcd60e51b815260206004820152600e60248201526d105b1c9958591e481cd9585b195960921b6044820152606490fd5b60405162461bcd60e51b815260206004820152602b60248201527f4e6f20464845206170706c69636174696f6e20666f756e6420666f722074686960448201526a3990373ab63634b334b2b960a91b6064820152608490fd5b634e487b7160e01b5f52602160045260245ffd5b60405162461bcd60e51b815260206004820152601f60248201527f436f6d6d69746d656e7420726571756972656420666f72207365616c696e67006044820152606490fd5b60405162461bcd60e51b815260206004820152602360248201527f496e656c696769626c6520726573756c74732063616e6e6f74206265207365616044820152621b195960ea1b6064820152608490fd5b50875f52601960205260405f20895f52602052612a8060018060a01b0360405f20541633149050612a77565b9181601f84011215612c18578235916001600160401b038311612c185760208381860195010111612c1857565b9181601f84011215612c18578235916001600160401b038311612c18576020808501948460051b010111612c1857565b602435908115158203612c1857565b600435906001600160a01b0382168203612c1857565b606435906001600160a01b0382168203612c1857565b608435906001600160a01b0382168203612c1857565b6040906003190112612c18576004359060243590565b906004821015612cf95752565b15612ea757565b60405162461bcd60e51b815260206004820152600e60248201526d139bdd08185d5d1a1bdc9a5e995960921b6044820152606490fd5b9190811015612c1c5760051b0190565b608081019081106001600160401b03821117612f0857604052565b634e487b7160e01b5f52604160045260245ffd5b60a081019081106001600160401b03821117612f0857604052565b601f909101601f19168101906001600160401b03821190821017612f0857604052565b6040909392919360608101946002825260208201520152565b6040909392919360608101946003825260208201520152565b926060929594919560808501968552602085015260408401521515910152565b15612fb357565b60405162461bcd60e51b815260206004820152600a60248201526927b7363c9037bbb732b960b11b6044820152606490fd5b15612fec57565b60405162461bcd60e51b815260206004820152600c60248201526b5a65726f206164647265737360a01b6044820152606490fd5b6001600160a01b0391821681529116602082015260400190565b1561304157565b60405162461bcd60e51b81526020600482015260186024820152774f6e6c7920617574686f72697a656420726567697374727960401b6044820152606490fd5b1561308857565b60405162461bcd60e51b8152602060048201526018602482015277125b9d985b1a59081c195c9b5a5d081c9958da5c1a595b9d60421b6044820152606490fd5b156130cf57565b60405162461bcd60e51b815260206004820152600e60248201526d139bdd1a1a5b99c81cdd1859d95960921b6044820152606490fd5b1561310c57565b60405162461bcd60e51b81526020600482015260196024820152780a0cae4dad2e840e4cac6d2e0d2cadce840dad2e6dac2e8c6d603b1b6044820152606490fd5b906004811015612cf95760ff80198354169116179055565b81601f82011215612c18578051906001600160401b038211612f085760405192613199601f8401601f191660200185612f37565b82845260208383010111612c1857815f9260208093018386015e8301015290565b51908115158203612c1857565b519060ff82168203612c1857565b519061ffff82168203612c1857565b602081830312612c18578051906001600160401b038211612c18570161022081830312612c18576040519161022083016001600160401b03811184821017612f085760405281516001600160401b038111612c185781613245918401613165565b835260208201516001600160401b038111612c185781613266918401613165565b602084015260408201516001600160401b038111612c18578161328a918401613165565b60408401526060820151906001600160401b038211612c18576132ae918301613165565b606083015260808101516001600160a01b0381168103612c185761339f916102009160808501526132e160a082016131ba565b60a08501526132f260c082016131c7565b60c085015261330360e082016131c7565b60e085015261331561010082016131ba565b61010085015261332861012082016131d5565b61012085015261333b61014082016131c7565b61014085015261334e61016082016131c7565b61016085015261336161018082016131d5565b6101808501526133746101a082016131ba565b6101a08501526133876101c082016131ba565b6101c08501526101e08101516101e0850152016131ba565b61020082015290565b9081610140910312612c18576040519061014082016001600160401b03811183821017612f08576134369161012091604052805184526020810151602085015260408101516040850152606081015160608501526080810151608085015260a081015160a085015260c081015160c085015260e081015160e0850152610100810151610100850152016131ba565b61012082015290565b1561344657565b60405162461bcd60e51b815260206004820152602560248201527f50617469656e74206e6f7420666f756e6420666f72207468697320636f6d6d696044820152641d1b595b9d60da1b6064820152608490fd5b6001600160401b038111612f085760051b60200190565b156134b757565b60405162461bcd60e51b8152602060048201526013602482015272547269616c206973206e6f742061637469766560681b6044820152606490fd5b156134f957565b60405162461bcd60e51b815260206004820152600b60248201526a151c9a585b08195b99195960aa1b6044820152606490fd5b1561353357565b60405162461bcd60e51b815260206004820152600d60248201526c1058d8d95cdcc819195b9a5959609a1b6044820152606490fd5b908060209392818452848401375f828201840152601f01601f1916010190565b60035f918281558260018201558260028201550155565b93929597909796919660018060a01b03600c5416958615613e8b5760118803613e4a578715612c1c5784893503613e0a578760011015612c1c57602089013503613dd0578660041015612c1c5715613dc85760ff60015b16608088013503613d8f578560051015612c1c575f5160206153115f395f51905f52900660a087013503613d55578460061015612c1c575f5160206152715f395f51905f5260c087013503613d155780613c4c575b50600254604051631a7f3c3360e01b81526004810183905291905f90839060249082906001600160a01b03165afa918215612c0d575f92613c30575b5061369182614421565b610200820151613b5757508360101015612c1c57610200850135613b1c578360071015612c1c5760ff60c08201511660e086013503613adb578360081015612c1c5760ff60e08201511661010086013503613a9a578360091015612c1c5761010081015115613a925760ff60015b1661012086013503613a4f5783600a1015612c1c5761ffff6101208201511661014086013503613a0f5783600b1015612c1c5760ff61014082015116610160860135036139ce5783600c1015612c1c5760ff610160820151166101808601350361398a5783600d1015612c1c5761ffff610180820151166101a0860135036139465783600e1015612c1c576101a08101511561393e5760ff60015b166101c0860135036138fa5783600f1015612c1c576101c00151156138f25760ff60015b166101e0850135036138af576137ee905b60405195633a94343960e21b8752604060048801526044870191613568565b848103600319016024860152828152926001600160fb1b038311612c18576020858094928296829460051b809285830137010301915afa908115612c0d575f91613875575b501561383b57565b60405162461bcd60e51b815260206004820152601260248201527124b73b30b634b2102737b4b910383937b7b360711b6044820152606490fd5b90506020813d6020116138a7575b8161389060209383612f37565b81010312612c18576138a1906131ba565b5f613833565b3d9150613883565b60405162461bcd60e51b815260206004820152601b60248201527a04372697465726961206d69736d617463683a206e6f726d616c425602c1b6044820152606490fd5b60ff5f6137be565b60405162461bcd60e51b815260206004820152601c60248201527b21b934ba32b934b09036b4b9b6b0ba31b41d103737b729b6b7b5b2b960211b6044820152606490fd5b60ff5f61379a565b60405162461bcd60e51b815260206004820152601c60248201527b10dc9a5d195c9a58481b5a5cdb585d18da0e881b585e15d95a59da1d60221b6044820152606490fd5b60405162461bcd60e51b815260206004820152601c60248201527b10dc9a5d195c9a58481b5a5cdb585d18da0e881b5a5b92195a59da1d60221b6044820152606490fd5b60405162461bcd60e51b815260206004820152601960248201527821b934ba32b934b09036b4b9b6b0ba31b41d1033b2b73232b960391b6044820152606490fd5b60405162461bcd60e51b815260206004820152601860248201527721b934ba32b934b09036b4b9b6b0ba31b41d1036b4b7243160411b6044820152606490fd5b60405162461bcd60e51b815260206004820152601b60248201527a4372697465726961206d69736d617463683a20646961626574657360281b6044820152606490fd5b60ff5f6136ff565b60405162461bcd60e51b81526020600482015260196024820152784372697465726961206d69736d617463683a206d617841676560381b6044820152606490fd5b60405162461bcd60e51b81526020600482015260196024820152784372697465726961206d69736d617463683a206d696e41676560381b6044820152606490fd5b60405162461bcd60e51b8152602060048201526013602482015272506c61696e74657874206d6f646520666c616760681b6044820152606490fd5b90508360101015612c1c57600161020086013503613bf557613b7890614508565b8360071015612c1c575f5160206153115f395f51905f52900660e085013503613ba4576137ee906137cf565b60405162461bcd60e51b815260206004820152602360248201527f456e637279707465642063726974657269612062696e64696e67206d69736d616044820152620e8c6d60eb1b6064820152608490fd5b60405162461bcd60e51b8152602060048201526013602482015272456e63727970746564206d6f646520666c616760681b6044820152606490fd5b613c459192503d805f833e6105708183612f37565b905f613687565b5f546040516382dba82960e01b81526004810192909252602090829060249082906001600160a01b03165afa908115612c0d575f91613ce3575b508460021015612c1c57604086013503613ca0575f61364b565b60405162461bcd60e51b815260206004820152601b60248201527a0a0e4deccd2d8ca40c6dedadad2e8dacadce840dad2e6dac2e8c6d602b1b6044820152606490fd5b90506020813d602011613d0d575b81613cfe60209383612f37565b81010312612c1857515f613c86565b3d9150613cf1565b60405162461bcd60e51b8152602060048201526018602482015277086e4d2e8cae4d2c240e6c6d0cadac240dad2e6dac2e8c6d60431b6044820152606490fd5b60405162461bcd60e51b815260206004820152601260248201527108c908a40e6e8c2ceca40dad2e6dac2e8c6d60731b6044820152606490fd5b60405162461bcd60e51b815260206004820152601160248201527008ad8d2ced2c4d8ca40dad2e6dac2e8c6d607b1b6044820152606490fd5b60ff5f6135f6565b60405162461bcd60e51b815260206004820152601260248201527109cead8d8d2ccd2cae440dad2e6dac2e8c6d60731b6044820152606490fd5b60405162461bcd60e51b815260206004820152601860248201527714d8dbdc19481b5a5cdb585d18da0e881d1c9a585b17da5960421b6044820152606490fd5b60405162461bcd60e51b81526020600482015260196024820152784578706563746564203137207075626c696320696e7075747360381b6044820152606490fd5b60405162461bcd60e51b815260206004820152601060248201526f15995c9a599a595c881b9bdd081cd95d60821b6044820152606490fd5b939492909192845f52600d60205260405f20835f5260205260405f20600160ff198254161790558160031015612c1c57845f52600e60205260405f20835f52602052606084013560405f20558160021015612c1c57845f52600f60205260405f20835f52602052604084013560405f2055845f52601060205260405f20835f5260205260405f205560061015612c1c5760c0925f52601160205260405f20905f52602052013560405f205515613f7557565b565b9061020081015161410e576140bb9250613fc6613fa58351613f9f60ff60c086015116614e32565b90614675565b613fc08451613fba60ff60e087015116614e32565b906146a4565b906146d3565b610100820151909290156140ff57613fec6080820151613fe66001614d39565b906147f0565b61400c60a083015161400661ffff61012087015116614e85565b906148a7565b614023602084015160ff6101408701511690614d03565b6101608501805191929160ff16156140ee5761404b90613f9f60ff6060880151925116614e32565b925b6101808601805161ffff16156140dd5761407a9061407461ffff6040890151925116614e85565b906148d0565b945b6101a0870151156140ca576101c061409b60c0830151613fe65f614d39565b975b0151156140bf5760e06140b5910151613fe65f614d39565b966148f9565b9091565b506140b56001614d39565b6101c06140d76001614d39565b9761409d565b506140e86001614d39565b9461407c565b506140f96001614d39565b9261404d565b6141096001614d39565b613fec565b50600254604051631871407b60e21b8152600481019390935261012090839060249082906001600160a01b03165afa918215612c0d575f9261433f575b50815161415790614393565b506020820191825161416890614393565b506040810192835161417990614370565b506060820192835161418a9061465c565b5060808301805161419a90614393565b5060a084019081516141ab90614393565b5060c085019283516141bc9061465c565b5060e086019485516141cd90614370565b5061010087019687516141df90614370565b50825190516141ed91614675565b90825190516141fb916146a4565b614204916146d3565b975161420f90614788565b608082015161421e6001614d39565b614227916147f0565b61423091614821565b9660a08201519051614241916148a7565b91602082015190519061425382614393565b5061425c614d8c565b61426690836150e5565b9161426f614ddf565b614278916150e5565b6142826001614d39565b61428c90836147f0565b916142965f614d39565b61429f916147f0565b6142a96001614d39565b906142b39261510e565b906142bd9261510e565b92606082015190516142ce91614675565b93604082015190516142df916148d0565b94516142ea90614788565b60c08201516142f85f614d39565b614301916147f0565b61430a91614821565b955161431590614788565b9060e001516143235f614d39565b61432c916147f0565b61433591614821565b956140bb976148f9565b6143629192506101203d8111614369575b61435a8183612f37565b810190614484565b905f61414b565b503d614350565b8015614384575b61438130826145e1565b90565b5061438e5f614d39565b614377565b80156143a35761438130826145e1565b5061438e614ed8565b9081156143be575b61438190826145e1565b90506143816143cc5f614d39565b9190506143b4565b9081156143e55761438190826145e1565b90506143816143cc614ed8565b466001036143ff57600190565b4662aa36a70361440f5761271190565b617a69461461441c575f90565b5f1990565b6101e09061443460a082015115156134b0565b0180511561444857613f75905142106134f2565b60405162461bcd60e51b8152602060048201526014602482015273151c9a585b08191bd95cc81b9bdd08195e1a5cdd60621b6044820152606490fd5b9081610120910312612c1857604051906101208201906001600160401b03821183831017612f085761010091604052805183526020810151602084015260408101516040840152606081015160608401526080810151608084015260a081015160a084015260c081015160c084015260e081015160e0840152015161010082015290565b600254604051631871407b60e21b8152600481019290925261012090829060249082906001600160a01b03165afa908115612c0d575f916145c2575b508051906020810151906040810151906060810151608082015160a08301519060c08401519261010060e0860151950151956040519760208901998a5260408901526060880152608087015260a086015260c085015260e084015261010083015261012082015261012081526145bc61014082612f37565b51902090565b6145db91506101203d81116143695761435a8183612f37565b5f614544565b7f9e7b61f58c47dc699ac88507c4f5bb9f121c03808c5676a8078fe583e4649700546001600160a01b031691823b15612c1857604051635ca4b5b160e11b815260048101929092526001600160a01b03166024820152905f908290604490829084905af18015612c0d576146525750565b5f613f7591612f37565b801561466c5761438130826145e1565b5061438e614f2b565b90614381918015614696575b81614fd1579050614690614ed8565b90614fd1565b5061469f614ed8565b614681565b906143819180156146c5575b8161502d5790506146bf614ed8565b9061502d565b506146ce614ed8565b6146b0565b908115614777575b8015614764575b602090606460018060a01b035f5160206152d15f395f51905f525416935f604051958694859363d99882d560e01b8552600485015260248401528160448401525af1908115612c0d575f91614735575090565b90506020813d60201161475c575b8161475060209383612f37565b81010312612c18575190565b3d9150614743565b5060206147705f614d39565b90506146e2565b90506147825f614d39565b906146db565b80156147db575b5f5160206152d15f395f51905f5254604051630f51ccfb60e41b81526004810192909252602090829060249082905f906001600160a01b03165af1908115612c0d575f91614735575090565b505f60206147e882614d39565b91505061478f565b90614381918015614812575b8161508957905061480c5f614d39565b90615089565b5061481c5f614d39565b6147fc565b908115614896575b8015614883575b602090606460018060a01b035f5160206152d15f395f51905f525416935f60405195869485936363a2db2960e01b8552600485015260248401528160448401525af1908115612c0d575f91614735575090565b50602061488f5f614d39565b9050614830565b90506148a15f614d39565b90614829565b906143819180156148c2575b81614fd1579050614690614f2b565b506148cb614f2b565b6148b3565b906143819180156148eb575b8161502d5790506146bf614f2b565b506148f4614f2b565b6148dc565b9694959392919061498f61497561497561495b6149416149416149416149418f61493b614924614ed8565b9161492d614d8c565b614935614ed8565b91615158565b9061519a565b61493b61494c614d8c565b614954614ed8565b908b615158565b61493b614966614d8c565b61496e614ed8565b908d615158565b61493b614980614d8c565b614988614ed8565b908a615158565b5f5160206152d15f395f51905f5254604051639cd07acb60e01b8152600c60048201526002602482015290602090829060449082905f906001600160a01b03165af1908115612c0d575f91614cd1575b508082918315614cc1575b15614caf575b602090606460018060a01b035f5160206152d15f395f51905f525416935f6040519586948593630afe14ad60e31b8552600485015260248401528160448401525af1908115612c0d575f91614c7b575b50614a625f9161493b614a5a614a54614ddf565b86614675565b61492d614d8c565b5f5160206152d15f395f51905f5254604051639cd07acb60e01b8152600480820152600260248201529260209184916044918391906001600160a01b03165af1918215612c0d575f92614c45575b5061493b614a5a83614ac3945085614675565b5f5160206152d15f395f51905f5254604051639cd07acb60e01b8152600660048201526002602482015290602090829060449082905f906001600160a01b03165af1908115612c0d575f91614c13575b505f9161493b614a5a83614b28945086614675565b9160205f5160206152d15f395f51905f5254604460405180958193639cd07acb60e01b8352600860048401526002602484015260018060a01b03165af1918215612c0d575f92614bcd575b5094614bc5614bca9a95614bc5614bc596614bbf614ba5614bc59d9c9861493b614a5a8a614bc59f614bc59c50614675565b614bb6614bb0614f7e565b826146a4565b90614935614f7e565b9e6146d3565b6146d3565b91565b99949796929590915060208a3d602011614c0b575b81614bef60209383612f37565b81010312612c1857985193989596919594919390614bc5614b73565b3d9150614be2565b90506020813d602011614c3d575b81614c2e60209383612f37565b81010312612c1857515f614b13565b3d9150614c21565b91506020823d602011614c73575b81614c6060209383612f37565b81010312612c185790519061493b614ab0565b3d9150614c53565b90506020813d602011614ca7575b81614c9660209383612f37565b81010312612c185751614a62614a40565b3d9150614c89565b506020614cba614ed8565b90506149f0565b9150614ccb614ed8565b916149ea565b90506020813d602011614cfb575b81614cec60209383612f37565b81010312612c1857515f6149df565b3d9150614cdf565b9060ff1660018114614d2e57600214614d2157506143816001614d39565b61438190613fe65f614d39565b5061438190613fe660015b5f5160206152d15f395f51905f5254604051639cd07acb60e01b815260048101929092525f6024830181905260209183916044918391906001600160a01b03165af1908115612c0d575f91614735575090565b5f5160206152d15f395f51905f5254604051639cd07acb60e01b8152600160048201526002602482015290602090829060449082905f906001600160a01b03165af1908115612c0d575f91614735575090565b5f5160206152d15f395f51905f5254604051639cd07acb60e01b8152600260048201819052602482015290602090829060449082905f906001600160a01b03165af1908115612c0d575f91614735575090565b5f5160206152d15f395f51905f5254604051639cd07acb60e01b8152600481019290925260026024830152602090829060449082905f906001600160a01b03165af1908115612c0d575f91614735575090565b5f5160206152d15f395f51905f5254604051639cd07acb60e01b8152600481019290925260036024830152602090829060449082905f906001600160a01b03165af1908115612c0d575f91614735575090565b5f5160206152d15f395f51905f5254604051639cd07acb60e01b81525f60048201819052600260248301529091602091839160449183916001600160a01b03165af1908115612c0d575f91614735575090565b5f5160206152d15f395f51905f5254604051639cd07acb60e01b81525f60048201819052600360248301529091602091839160449183916001600160a01b03165af1908115612c0d575f91614735575090565b5f5160206152d15f395f51905f5254604051639cd07acb60e01b8152606460048201526002602482015290602090829060449082905f906001600160a01b03165af1908115612c0d575f91614735575090565b5f5160206152d15f395f51905f5254604051631391547f60e01b8152600481019290925260248201929092525f604482018190529091602091839160649183916001600160a01b03165af1908115612c0d575f91614735575090565b5f5160206152d15f395f51905f5254604051631d44e90160e21b8152600481019290925260248201929092525f604482018190529091602091839160649183916001600160a01b03165af1908115612c0d575f91614735575090565b5f5160206152d15f395f51905f525460405163f77f3f1d60e01b8152600481019290925260248201929092525f604482018190529091602091839160649183916001600160a01b03165af1908115612c0d575f91614735575090565b90614381918015615100575b8161508957905061480c614ed8565b50615109614ed8565b6150f1565b9061438192918015615149575b8115615138575b8261521e5791506151325f614d39565b9161521e565b90506151435f614d39565b90615122565b506151535f614d39565b61511b565b906143819291801561518b575b811561517b575b8261521e579150615132614ed8565b9050615185614ed8565b9061516c565b506151955f614d39565b615165565b90811561520e575b80156151fc575b602090606460018060a01b035f5160206152d15f395f51905f525416935f604051958694859363022f65e760e31b8552600485015260248401528160448401525af1908115612c0d575f91614735575090565b506020615207614ed8565b90506151a9565b9050615218614ed8565b906151a2565b9060646020925f60018060a01b035f5160206152d15f395f51905f5254166040519687958694637702dcff60e01b86526004860152602485015260448401525af1908115612c0d575f9161473557509056fe0dd738ba66f27b7bbb29c5cc6def1e88d79b57acf1c5619ee961015ba8e50303c3153be9a718758990b6ccd60d5fadfbd0462460c343a8473064e01bf346e9e159604682590590d3834bb055beebf179de53952cb5e3bfeef55f68cc91139e9e9e7b61f58c47dc699ac88507c4f5bb9f121c03808c5676a8078fe583e464970177a1a2a04a06af1b1942ca5121ea6754946741dd90ac7a61eefe10b925fd8b4430644e72e131a029b85045b68181585d2833e84879b9709143e1f593f0000001a164736f6c634300081b000a",
  "linkReferences": {},
  "deployedLinkReferences": {}
}