{
  "_format": "hh-sol-artifact-1",
  "contractName": "MedVaultAutomation",
  "sourceName": "contracts/MedVaultAutomation.sol",
  "abi": [
    {
      "inputs": [
        {
          "internalType": "address",
          "name": "_trialManager",
          "type": "address"
        },
        {
          "internalType": "address payable",
          "name": "_vault",
          "type": "address"
        },
        {
          "internalType": "address",
          "name": "_chainlinkForwarder",
          "type": "address"
        }
      ],
      "stateMutability": "nonpayable",
      "type": "constructor"
    },
    {
      "anonymous": false,
      "inputs": [
        {
          "indexed": true,
          "internalType": "uint256",
          "name": "trialId",
          "type": "uint256"
        },
        {
          "indexed": false,
          "internalType": "bytes",
          "name": "reason",
          "type": "bytes"
        }
      ],
      "name": "DistributionBatchFailed",
      "type": "event"
    },
    {
      "anonymous": false,
      "inputs": [
        {
          "indexed": true,
          "internalType": "address",
          "name": "newOwner",
          "type": "address"
        }
      ],
      "name": "OwnershipAccepted",
      "type": "event"
    },
    {
      "anonymous": false,
      "inputs": [
        {
          "indexed": true,
          "internalType": "address",
          "name": "proposedOwner",
          "type": "address"
        }
      ],
      "name": "OwnershipProposed",
      "type": "event"
    },
    {
      "anonymous": false,
      "inputs": [
        {
          "indexed": true,
          "internalType": "uint256",
          "name": "trialId",
          "type": "uint256"
        },
        {
          "indexed": false,
          "internalType": "bool",
          "name": "distributed",
          "type": "bool"
        },
        {
          "indexed": false,
          "internalType": "bool",
          "name": "deactivated",
          "type": "bool"
        }
      ],
      "name": "TrialFinalized",
      "type": "event"
    },
    {
      "anonymous": false,
      "inputs": [
        {
          "indexed": true,
          "internalType": "uint256",
          "name": "trialId",
          "type": "uint256"
        },
        {
          "indexed": false,
          "internalType": "uint256",
          "name": "consecutiveFailures",
          "type": "uint256"
        }
      ],
      "name": "TrialQuarantined",
      "type": "event"
    },
    {
      "inputs": [],
      "name": "ACTIVE_SCAN_BATCH_SIZE",
      "outputs": [
        {
          "internalType": "uint256",
          "name": "",
          "type": "uint256"
        }
      ],
      "stateMutability": "view",
      "type": "function"
    },
    {
      "inputs": [],
      "name": "MAX_BATCH_FAILURES",
      "outputs": [
        {
          "internalType": "uint256",
          "name": "",
          "type": "uint256"
        }
      ],
      "stateMutability": "view",
      "type": "function"
    },
    {
      "inputs": [],
      "name": "MAX_PRUNE_PER_UPKEEP",
      "outputs": [
        {
          "internalType": "uint256",
          "name": "",
          "type": "uint256"
        }
      ],
      "stateMutability": "view",
      "type": "function"
    },
    {
      "inputs": [],
      "name": "PAGINATED_DISTRIBUTION_THRESHOLD",
      "outputs": [
        {
          "internalType": "uint256",
          "name": "",
          "type": "uint256"
        }
      ],
      "stateMutability": "view",
      "type": "function"
    },
    {
      "inputs": [],
      "name": "PAGINATION_BATCH_SIZE",
      "outputs": [
        {
          "internalType": "uint256",
          "name": "",
          "type": "uint256"
        }
      ],
      "stateMutability": "view",
      "type": "function"
    },
    {
      "inputs": [],
      "name": "READER_CHANGE_DELAY",
      "outputs": [
        {
          "internalType": "uint256",
          "name": "",
          "type": "uint256"
        }
      ],
      "stateMutability": "view",
      "type": "function"
    },
    {
      "inputs": [],
      "name": "acceptOwnership",
      "outputs": [],
      "stateMutability": "nonpayable",
      "type": "function"
    },
    {
      "inputs": [],
      "name": "activeScanCursor",
      "outputs": [
        {
          "internalType": "uint256",
          "name": "",
          "type": "uint256"
        }
      ],
      "stateMutability": "view",
      "type": "function"
    },
    {
      "inputs": [
        {
          "internalType": "uint256",
          "name": "",
          "type": "uint256"
        }
      ],
      "name": "activeTrialIds",
      "outputs": [
        {
          "internalType": "uint256",
          "name": "",
          "type": "uint256"
        }
      ],
      "stateMutability": "view",
      "type": "function"
    },
    {
      "inputs": [],
      "name": "applyChainlinkForwarder",
      "outputs": [],
      "stateMutability": "nonpayable",
      "type": "function"
    },
    {
      "inputs": [],
      "name": "applyVault",
      "outputs": [],
      "stateMutability": "nonpayable",
      "type": "function"
    },
    {
      "inputs": [],
      "name": "chainlinkForwarder",
      "outputs": [
        {
          "internalType": "address",
          "name": "",
          "type": "address"
        }
      ],
      "stateMutability": "view",
      "type": "function"
    },
    {
      "inputs": [
        {
          "internalType": "bytes",
          "name": "",
          "type": "bytes"
        }
      ],
      "name": "checkUpkeep",
      "outputs": [
        {
          "internalType": "bool",
          "name": "upkeepNeeded",
          "type": "bool"
        },
        {
          "internalType": "bytes",
          "name": "performData",
          "type": "bytes"
        }
      ],
      "stateMutability": "view",
      "type": "function"
    },
    {
      "inputs": [
        {
          "internalType": "uint256",
          "name": "",
          "type": "uint256"
        }
      ],
      "name": "consecutiveBatchFailures",
      "outputs": [
        {
          "internalType": "uint256",
          "name": "",
          "type": "uint256"
        }
      ],
      "stateMutability": "view",
      "type": "function"
    },
    {
      "inputs": [
        {
          "internalType": "uint256",
          "name": "",
          "type": "uint256"
        }
      ],
      "name": "distributionInProgress",
      "outputs": [
        {
          "internalType": "bool",
          "name": "",
          "type": "bool"
        }
      ],
      "stateMutability": "view",
      "type": "function"
    },
    {
      "inputs": [
        {
          "internalType": "uint256",
          "name": "",
          "type": "uint256"
        }
      ],
      "name": "expiredTrialIds",
      "outputs": [
        {
          "internalType": "uint256",
          "name": "",
          "type": "uint256"
        }
      ],
      "stateMutability": "view",
      "type": "function"
    },
    {
      "inputs": [
        {
          "internalType": "uint256",
          "name": "",
          "type": "uint256"
        }
      ],
      "name": "expiredTrialIndex",
      "outputs": [
        {
          "internalType": "uint256",
          "name": "",
          "type": "uint256"
        }
      ],
      "stateMutability": "view",
      "type": "function"
    },
    {
      "inputs": [
        {
          "internalType": "uint256",
          "name": "",
          "type": "uint256"
        }
      ],
      "name": "finalized",
      "outputs": [
        {
          "internalType": "bool",
          "name": "",
          "type": "bool"
        }
      ],
      "stateMutability": "view",
      "type": "function"
    },
    {
      "inputs": [],
      "name": "forwarderChangeEta",
      "outputs": [
        {
          "internalType": "uint256",
          "name": "",
          "type": "uint256"
        }
      ],
      "stateMutability": "view",
      "type": "function"
    },
    {
      "inputs": [
        {
          "internalType": "uint256",
          "name": "_trialId",
          "type": "uint256"
        }
      ],
      "name": "isQuarantined",
      "outputs": [
        {
          "internalType": "bool",
          "name": "",
          "type": "bool"
        }
      ],
      "stateMutability": "view",
      "type": "function"
    },
    {
      "inputs": [
        {
          "internalType": "uint256",
          "name": "_trialId",
          "type": "uint256"
        }
      ],
      "name": "onTrialCreated",
      "outputs": [],
      "stateMutability": "nonpayable",
      "type": "function"
    },
    {
      "inputs": [
        {
          "internalType": "uint256",
          "name": "_trialId",
          "type": "uint256"
        }
      ],
      "name": "onTrialDeactivated",
      "outputs": [],
      "stateMutability": "nonpayable",
      "type": "function"
    },
    {
      "inputs": [],
      "name": "owner",
      "outputs": [
        {
          "internalType": "address",
          "name": "",
          "type": "address"
        }
      ],
      "stateMutability": "view",
      "type": "function"
    },
    {
      "inputs": [],
      "name": "pendingChainlinkForwarder",
      "outputs": [
        {
          "internalType": "address",
          "name": "",
          "type": "address"
        }
      ],
      "stateMutability": "view",
      "type": "function"
    },
    {
      "inputs": [],
      "name": "pendingOwner",
      "outputs": [
        {
          "internalType": "address",
          "name": "",
          "type": "address"
        }
      ],
      "stateMutability": "view",
      "type": "function"
    },
    {
      "inputs": [],
      "name": "pendingVault",
      "outputs": [
        {
          "internalType": "address payable",
          "name": "",
          "type": "address"
        }
      ],
      "stateMutability": "view",
      "type": "function"
    },
    {
      "inputs": [
        {
          "internalType": "bytes",
          "name": "performData",
          "type": "bytes"
        }
      ],
      "name": "performUpkeep",
      "outputs": [],
      "stateMutability": "nonpayable",
      "type": "function"
    },
    {
      "inputs": [
        {
          "internalType": "address",
          "name": "_newOwner",
          "type": "address"
        }
      ],
      "name": "proposeOwnership",
      "outputs": [],
      "stateMutability": "nonpayable",
      "type": "function"
    },
    {
      "inputs": [
        {
          "internalType": "uint256",
          "name": "",
          "type": "uint256"
        }
      ],
      "name": "quarantinedTrialIds",
      "outputs": [
        {
          "internalType": "uint256",
          "name": "",
          "type": "uint256"
        }
      ],
      "stateMutability": "view",
      "type": "function"
    },
    {
      "inputs": [
        {
          "internalType": "address",
          "name": "_forwarder",
          "type": "address"
        }
      ],
      "name": "scheduleChainlinkForwarder",
      "outputs": [],
      "stateMutability": "nonpayable",
      "type": "function"
    },
    {
      "inputs": [
        {
          "internalType": "address payable",
          "name": "_vault",
          "type": "address"
        }
      ],
      "name": "scheduleVault",
      "outputs": [],
      "stateMutability": "nonpayable",
      "type": "function"
    },
    {
      "inputs": [
        {
          "internalType": "address",
          "name": "_forwarder",
          "type": "address"
        }
      ],
      "name": "setChainlinkForwarder",
      "outputs": [],
      "stateMutability": "nonpayable",
      "type": "function"
    },
    {
      "inputs": [
        {
          "internalType": "address payable",
          "name": "_vault",
          "type": "address"
        }
      ],
      "name": "setVault",
      "outputs": [],
      "stateMutability": "nonpayable",
      "type": "function"
    },
    {
      "inputs": [],
      "name": "trialManager",
      "outputs": [
        {
          "internalType": "contract TrialManager",
          "name": "",
          "type": "address"
        }
      ],
      "stateMutability": "view",
      "type": "function"
    },
    {
      "inputs": [],
      "name": "vault",
      "outputs": [
        {
          "internalType": "contract SponsorIncentiveVault",
          "name": "",
          "type": "address"
        }
      ],
      "stateMutability": "view",
      "type": "function"
    },
    {
      "inputs": [],
      "name": "vaultChangeEta",
      "outputs": [
        {
          "internalType": "uint256",
          "name": "",
          "type": "uint256"
        }
      ],
      "stateMutability": "view",
      "type": "function"
    }
  ],
  "bytecode": "0x60803461010957601f61209b38819003918201601f19168301916001600160401b0383118484101761010d578084926060946040528339810103126101095761004781610121565b602082015190916001600160a01b03821691829003610109576001600160a01b039061007590604001610121565b169182156100d357600280546001600160a01b031990811633179091555f805482166001600160a01b0393909316929092179091556001805482169290921790915560058054909116919091179055604051611f6590816101368239f35b60405162461bcd60e51b815260206004820152600e60248201526d2d32b937903337b93bb0b93232b960911b6044820152606490fd5b5f80fd5b634e487b7160e01b5f52604160045260245ffd5b51906001600160a01b03821682036101095756fe6080806040526004361015610012575f80fd5b5f905f3560e01c90816281f0c0146114d75750806323738e34146114bb578063286a1fef1461144d57806331169d24146102585780633ee15893146114245780634585e33b146109a357806347f3bde4146109855780634ddaced21461095657806352113ba71461092d57806355f8cfdd1461090657806359451bcc146108ea5780635b47c66d146108545780636817031b146107d65780636e04ff0d1461079a5780636e9de84e14610771578063710bf322146106f157806373e59d43146106c257806375a773fa1461069857806378ed50d61461066f57806379ba5097146105ce5780637c5be2a41461054d5780638b58c9fe146102585780638da5cb5b14610524578063933aaaea146104ea578063991914ed146104ce578063bcefa5d6146104a4578063c05c9de01461047b578063c7af55c914610413578063d02c21b114610374578063d4e748bd146102d1578063d93f24451461025d578063dacef85014610258578063e30c39781461022f578063f232ce92146101f2578063fbfa77cf146101c95763fff1ef1f146101a9575f80fd5b346101c657806003193601126101c6576020600754604051908152f35b80fd5b50346101c657806003193601126101c6576001546040516001600160a01b039091168152602090f35b50346101c65760203660031901126101c65761022c60043561021e60018060a01b038454163314611bbc565b61022781611cf3565b611c37565b80f35b50346101c657806003193601126101c6576003546040516001600160a01b039091168152602090f35b611536565b50346101c657806003193601126101c65761028360018060a01b03600254163314611879565b61029960075480151590816102c6575b50611b7e565b60068054600180546001600160a01b03199081166001600160a01b03841617909155600784905516905580f35b90504210155f610293565b50346101c65760203660031901126101c6576004356102fa60018060a01b038354163314611bbc565b808252600b602052604082205415610310575080f35b600a54600160401b811015610360578161033582600161034d9401600a55600a611521565b90919082549060031b91821b915f19901b1916179055565b600a54908252600b602052604082205580f35b634e487b7160e01b83526041600452602483fd5b50346101c65760203660031901126101c6576004356001600160a01b038116036101c6576103ad60018060a01b03600254163314611879565b60405162461bcd60e51b815260206004820152603860248201527f557365207363686564756c65436861696e6c696e6b466f72776172646572202b6044820152771030b838363ca1b430b4b73634b735a337b93bb0b93232b960411b6064820152608490fd5b50346101c657806003193601126101c65761043960018060a01b03600254163314611879565b61044e60095480151590816102c65750611b7e565b60088054600580546001600160a01b03199081166001600160a01b03841617909155600984905516905580f35b50346101c657806003193601126101c6576008546040516001600160a01b039091168152602090f35b50346101c65760203660031901126101c65760406020916004358152600d83522054604051908152f35b50346101c657806003193601126101c657602060405160148152f35b50346101c65760203660031901126101c65760043590600a548210156101c657602061051583611509565b90549060031b1c604051908152f35b50346101c657806003193601126101c6576002546040516001600160a01b039091168152602090f35b50346101c65760203660031901126101c6576004356001600160a01b038116908190036105ca5761058960018060a01b03600254163314611879565b610594811515611b43565b60018060a01b0319600854161760085561546042018042116105b65760095580f35b634e487b7160e01b82526011600452602482fd5b5080fd5b50346101c657806003193601126101c6576003546001600160a01b038116903382900361063557600280546001600160a01b03199081168417909155166003557fb27970c1714b28277b78cc17ac2fe9556e7f048cd48358cffe3dc7d547608fdc8280a280f35b60405162461bcd60e51b81526020600482015260126024820152712737ba10383937b837b9b2b21037bbb732b960711b6044820152606490fd5b50346101c657806003193601126101c6576005546040516001600160a01b039091168152602090f35b50346101c65760203660031901126101c65760406020916004358152601083522054604051908152f35b50346101c65760203660031901126101c65760ff60406020926004358152601284522054166040519015158152f35b50346101c65760203660031901126101c6576004356001600160a01b038116908190036105ca5761072d60018060a01b03600254163314611879565b610738811515611b43565b600380546001600160a01b031916821790557f6ab4d119f23076e8ad491bc65ce85f017fb0591dce08755ba8591059cc51737a8280a280f35b50346101c65760203660031901126101c6576020610790600435611b32565b6040519015158152f35b50346101c6576107a936611551565b50506107b36118de565b906107d2604051928392151583526040602084015260408301906115a0565b0390f35b50346101c65760203660031901126101c6576004356001600160a01b038116036101c65761080f60018060a01b03600254163314611879565b60405162461bcd60e51b815260206004820152601e60248201527f557365207363686564756c655661756c74202b206170706c795661756c7400006044820152606490fd5b50346101c65760203660031901126101c6576004356001600160a01b038116908190036105ca5761089060018060a01b03600254163314611879565b80156108b85760018060a01b0319600654161760065561546042018042116105b65760075580f35b60405162461bcd60e51b815260206004820152600a60248201526916995c9bc81d985d5b1d60b21b6044820152606490fd5b50346101c657806003193601126101c657602060405160058152f35b50346101c657806003193601126101c657546040516001600160a01b039091168152602090f35b50346101c657806003193601126101c6576006546040516001600160a01b039091168152602090f35b50346101c65760203660031901126101c65760ff60406020926004358152600484522054166040519015158152f35b50346101c657806003193601126101c6576020601154604051908152f35b5034610dec576109b236611551565b9160018060a01b036005541633148015611410575b156113d15760026013541461138c57829060026013555f925f935b600a54851080611382575b15610ae6576109fb85611509565b90549060031b1c60245f60018060a01b0381541660405192838092631a7f3c3360e01b82528660048301525afa908115610adb575f91610ab9575b5060a081015115159081610aaa575b81610a9a575b5080610a83575b15610a715790610a64610a6992611d8b565b6118d0565b925b926109e2565b509293610a7d906118d0565b93610a6b565b50805f52600460205260ff60405f20541615610a52565b6101e09150015142101587610a4b565b6101e081015115159150610a45565b610ad591503d805f833e610acd81836115c4565b810190611686565b87610a36565b6040513d5f823e3d90fd5b508281600a5480611347575b5060409181010312610dec5780359060ff8216809203610dec576020013590600114610b22575b50600160135580f35b610b2b81611b32565b61130e57805f52600b60205260405f2054158015906112f9575b156112ba575f8054604051631a7f3c3360e01b8152600481018490529190829060249082906001600160a01b03165afa908115610adb575f916112a0575b5060a081015115611268576101e00151801515908161125d575b501561122457805f52600460205260ff60405f2054166111eb576001546040516321ab97fb60e21b8152600481018390525f916001600160a01b0316602082602481845afa8015610adb5784925f916111b6575b508015801580611144575b156110bf575060141015610fc757505060015460405163d84df05b60e01b8152600481018490525f6024820152906001600160a01b0316602082604481845afa908115610adb5784925f92610f90575b5081159081610f11575b505f918291610ef5575b60018060a01b03600154169082604051602081019263e3b39cfd60e01b84528760248301528260448301526064820152600a608482015260848152610ca660a4826115c4565b51925af1610cb261184a565b90610df057610cdd5f516020611f395f395f51905f52916040519182916020835260208301906115a0565b0390a2610ce982611bfc565b5f81610d61575b5f516020611f195f395f51905f52916040918180610d5a575b610d23575b8251911515825215156020820152a281610b19565b8486526004602052828620600160ff19825416179055848652601260205282862060ff198154169055610d5585611c37565b610d0e565b5080610d09565b5f546001600160a01b0316803b15610dec575f8091602460405180948193636e8faa0b60e11b83528960048401525af19081610dc2575b50916040915f516020611f195f395f51905f5293610dba575b91509150610cf0565b506001610db1565b5f516020611f195f395f51905f529391955091610de15f6040946115c4565b5f9591935091610d98565b5f80fd5b5090505f5260106020525f604081205560018060a01b03600154166040519063c322122760e01b82528260048301525f6024830152602082604481845afa918215610adb575f92610eb9575b508115610e4a575b50610ce9565b60249150602090604051928380926337b161d360e11b82528660048301525afa908115610adb575f91610e7f575b5083610e44565b90506020813d602011610eb1575b81610e9a602093836115c4565b81010312610dec57610eab9061165c565b83610e78565b3d9150610e8d565b9091506020813d602011610eed575b81610ed5602093836115c4565b81010312610dec57610ee69061165c565b9084610e3c565b3d9150610ec8565b838252601260205260408220805460ff19166001179055610c60565b604493506020915060405193848092639a5c845560e01b82528860048301525f60248301525afa8015610adb5784925f91610f4f575b50155f610c56565b9250506020823d602011610f88575b81610f6b602093836115c4565b81010312610dec575f8091610f80869461165c565b915091610f47565b3d9150610f5e565b925090506020823d602011610fbf575b81610fad602093836115c4565b81010312610dec578391519086610c4c565b3d9150610fa0565b5f80916040518260208201916391c05b0b60e01b835286602482015260248152610ff26044826115c4565b51925af1610ffe61184a565b9061103a576110295f516020611f395f395f51905f52916040519182916020835260208301906115a0565b0390a261103582611bfc565b610ce9565b5090505f5260106020525f60408120556024602060018060a01b0360015416604051928380926337b161d360e11b82528660048301525afa908115610adb575f916110855750610ce9565b90506020813d6020116110b7575b816110a0602093836115c4565b81010312610dec576110b19061165c565b83610e44565b3d9150611093565b9250506020602491604051928380926337b161d360e11b82528860048301525afa908115610adb575f9161110a575b50156110fd5750506001610ce9565b15610ce957506001610ce9565b90506020813d60201161113c575b81611125602093836115c4565b81010312610dec576111369061165c565b856110ee565b3d9150611118565b506040516337b161d360e11b8152600481018790529350602084602481865afa8015610adb5786945f9161117a575b5015610bfc565b9450506020843d6020116111ae575b81611196602093836115c4565b81010312610dec576111a8869461165c565b88611173565b3d9150611189565b9250506020823d6020116111e3575b816111d2602093836115c4565b81010312610dec5783915186610bf1565b3d91506111c5565b60405162461bcd60e51b8152602060048201526011602482015270105b1c9958591e48199a5b985b1a5e9959607a1b6044820152606490fd5b60405162461bcd60e51b8152602060048201526011602482015270151c9a585b081b9bdd08195e1c1a5c9959607a1b6044820152606490fd5b905042101583610b9d565b60405162461bcd60e51b815260206004820152601060248201526f547269616c206e6f742061637469766560801b6044820152606490fd5b6112b491503d805f833e610acd81836115c4565b83610b83565b60405162461bcd60e51b8152602060048201526017602482015276151c9a585b081b9bdd081a5b881858dd1a5d99481cd95d604a1b6044820152606490fd5b50805f52600d60205260405f20541515610b45565b60405162461bcd60e51b8152602060048201526011602482015270151c9a585b081c5d585c985b9d1a5b9959607a1b6044820152606490fd5b905060115491600a830180931161136e5761136584926040946118b2565b60115591610af2565b634e487b7160e01b5f52601160045260245ffd5b50600a81106109ed565b60405162461bcd60e51b815260206004820152601f60248201527f5265656e7472616e637947756172643a207265656e7472616e742063616c6c006044820152606490fd5b60405162461bcd60e51b815260206004820152601760248201527627b7363c903337b93bb0b93232b91037b91037bbb732b960491b6044820152606490fd5b506002546001600160a01b031633146109c7565b34610dec576020366003190112610dec57600435600c54811015610dec576105156020916114f1565b34610dec576020366003190112610dec57600435600e54811015610dec57600e548110156114a757600e5f527fbb7b4a454dc3493923482f07822329ed19e8244eff582cc204f8554c3620c3fd0154604051908152602090f35b634e487b7160e01b5f52603260045260245ffd5b34610dec575f366003190112610dec5760206040516154608152f35b34610dec575f366003190112610dec576020906009548152f35b600c548110156114a757600c5f5260205f2001905f90565b600a548110156114a757600a5f5260205f2001905f90565b80548210156114a7575f5260205f2001905f90565b34610dec575f366003190112610dec576020604051600a8152f35b906020600319830112610dec576004356001600160401b038111610dec5782602382011215610dec576004810135926001600160401b038411610dec5760248483010111610dec576024019190565b805180835260209291819084018484015e5f828201840152601f01601f1916010190565b601f909101601f19168101906001600160401b038211908210176115e757604052565b634e487b7160e01b5f52604160045260245ffd5b6001600160401b0381116115e757601f01601f191660200190565b81601f82011215610dec5780519061162d826115fb565b9261163b60405194856115c4565b82845260208383010111610dec57815f9260208093018386015e8301015290565b51908115158203610dec57565b519060ff82168203610dec57565b519061ffff82168203610dec57565b602081830312610dec578051906001600160401b038211610dec570161022081830312610dec576040519161022083016001600160401b038111848210176115e75760405281516001600160401b038111610dec57816116e7918401611616565b835260208201516001600160401b038111610dec5781611708918401611616565b602084015260408201516001600160401b038111610dec578161172c918401611616565b60408401526060820151906001600160401b038211610dec57611750918301611616565b606083015260808101516001600160a01b0381168103610dec576118419161020091608085015261178360a0820161165c565b60a085015261179460c08201611669565b60c08501526117a560e08201611669565b60e08501526117b7610100820161165c565b6101008501526117ca6101208201611677565b6101208501526117dd6101408201611669565b6101408501526117f06101608201611669565b6101608501526118036101808201611677565b6101808501526118166101a0820161165c565b6101a08501526118296101c0820161165c565b6101c08501526101e08101516101e08501520161165c565b61020082015290565b3d15611874573d9061185b826115fb565b9161186960405193846115c4565b82523d5f602084013e565b606090565b1561188057565b60405162461bcd60e51b815260206004820152600a60248201526927b7363c9037bbb732b960b11b6044820152606490fd5b81156118bc570690565b634e487b7160e01b5f52601260045260245ffd5b5f19811461136e5760010190565b600c545f5b818110611a55575050600a548061190c575b505f906040516119066020826115c4565b5f815290565b905f61191a836011546118b2565b600a821080611a4c575b15611a425761193281611509565b90549060031b1c805f52600460205260ff60405f2054161580611a32575b61197a575b506001810180911161136e5761196e84611974926118b2565b916118d0565b9061191a565b5f8054604051631a7f3c3360e01b8152600481018490529190829060249082906001600160a01b03165afa908115610adb575f91611a18575b5060a081015115159081611a09575b816119f9575b501561195557604080516001602082015280820192909252815293506119f3915060609050836115c4565b60019190565b6101e0915001514210155f6119c8565b6101e0810151151591506119c2565b611a2c91503d805f833e610acd81836115c4565b5f6119b3565b50611a3c81611b32565b15611950565b505090505f6118f5565b50838210611924565b611a5e816114f1565b90549060031b1c805f52600460205260ff60405f2054161580611b22575b611a8a575b506001016118e3565b5f8054604051631a7f3c3360e01b8152600481018490529190829060249082906001600160a01b03165afa8015610adb576101e0915f91611b08575b5001518015159081611afd575b5015611a815760408051600160208201528082019290925281529291506119f390506060836115c4565b90504210155f611ad3565b611b1c91503d805f833e610acd81836115c4565b5f611ac6565b50611b2c81611b32565b15611a7c565b5f52600f60205260405f2054151590565b15611b4a57565b60405162461bcd60e51b815260206004820152600c60248201526b5a65726f206164647265737360a01b6044820152606490fd5b15611b8557565b60405162461bcd60e51b815260206004820152600f60248201526e54696d656c6f636b2061637469766560881b6044820152606490fd5b15611bc357565b60405162461bcd60e51b815260206004820152601160248201527027b7363c902a3934b0b626b0b730b3b2b960791b6044820152606490fd5b805f52601060205260405f20611c1281546118d0565b9055805f526010602052600560405f20541015611c2c5750565b611c3590611e87565b565b805f52600d60205260405f205480611c4d575050565b600c545f19810190811161136e57611c64816114f1565b90549060031b1c905f1983019083821161136e578103611cd2575b505050600c548015611cbe575f1901611cac611c9c82600c611521565b8154905f199060031b1b19169055565b600c555f52600d6020525f6040812055565b634e487b7160e01b5f52603160045260245ffd5b81610335611cdf926114f1565b5f52600d60205260405f20555f8080611c7f565b805f52600b60205260405f205480611d09575050565b600a545f19810190811161136e57611d2081611509565b90549060031b1c905f1983019083821161136e578103611d6a575b505050600a548015611cbe575f1901611d58611c9c82600a611521565b600a555f52600b6020525f6040812055565b81610335611d7792611509565b5f52600b60205260405f20555f8080611d3b565b805f52600d60205260405f205415801590611e71575b611e37575f8054604051631a7f3c3360e01b8152600481018490529190829060249082906001600160a01b03165afa908115610adb575f91611e57575b5060a081015115908115611e49575b8115611e3a575b50611e3757600c5490600160401b8210156115e757611e2281610335846001611c359601600c55600c611521565b600c54815f52600d60205260405f2055611cf3565b50565b6101e09150015142105f611df4565b6101e0810151159150611ded565b611e6b91503d805f833e610acd81836115c4565b5f611dde565b50805f52600460205260ff60405f205416611da1565b805f52600f60205260405f2054611e3757600e54600160401b8110156115e75781610335826001611ebd9401600e55600e611521565b600e54815f52600f60205260405f2055611ed681611cf3565b611edf81611c37565b805f5260106020527f4d0baecefba24135670a15fbcfec6f3b2c32537f6286a600a2a031d6185fdf70602060405f2054604051908152a256fe4089bb887c83f7f9f5eb4a2ae07012fcf8267ea21ac02ff4a2e69b731dbce92dee001f479891445f9c9863eaf06fd8f5b807183d17bc5815711f60a4773b3304a164736f6c634300081b000a",
  "linkReferences": {},
  "deployedLinkReferences": {}
}