{
  "_format": "hh-sol-artifact-1",
  "contractName": "MedVaultRegistry",
  "sourceName": "contracts/MedVaultRegistry.sol",
  "abi": [
    {
      "inputs": [
        {
          "internalType": "address",
          "name": "_semaphore",
          "type": "address"
        },
        {
          "internalType": "address",
          "name": "_patientRegistry",
          "type": "address"
        },
        {
          "internalType": "address",
          "name": "_eligibilityEngine",
          "type": "address"
        }
      ],
      "stateMutability": "nonpayable",
      "type": "constructor"
    },
    {
      "inputs": [],
      "name": "ECDSAInvalidSignature",
      "type": "error"
    },
    {
      "inputs": [
        {
          "internalType": "uint256",
          "name": "length",
          "type": "uint256"
        }
      ],
      "name": "ECDSAInvalidSignatureLength",
      "type": "error"
    },
    {
      "inputs": [
        {
          "internalType": "bytes32",
          "name": "s",
          "type": "bytes32"
        }
      ],
      "name": "ECDSAInvalidSignatureS",
      "type": "error"
    },
    {
      "inputs": [],
      "name": "ZamaProtocolUnsupported",
      "type": "error"
    },
    {
      "anonymous": false,
      "inputs": [
        {
          "indexed": true,
          "internalType": "uint256",
          "name": "trialId",
          "type": "uint256"
        },
        {
          "indexed": true,
          "internalType": "uint256",
          "name": "nullifierHash",
          "type": "uint256"
        },
        {
          "indexed": true,
          "internalType": "bytes32",
          "name": "blindedRef",
          "type": "bytes32"
        }
      ],
      "name": "AnonymousApplication",
      "type": "event"
    },
    {
      "anonymous": false,
      "inputs": [
        {
          "indexed": true,
          "internalType": "uint256",
          "name": "trialId",
          "type": "uint256"
        },
        {
          "indexed": true,
          "internalType": "uint256",
          "name": "nullifierHash",
          "type": "uint256"
        },
        {
          "indexed": true,
          "internalType": "bytes32",
          "name": "blindedRef",
          "type": "bytes32"
        },
        {
          "indexed": false,
          "internalType": "bytes32",
          "name": "finalCt",
          "type": "bytes32"
        }
      ],
      "name": "AnonymousApplyStaged",
      "type": "event"
    },
    {
      "anonymous": false,
      "inputs": [
        {
          "indexed": true,
          "internalType": "address",
          "name": "newOwner",
          "type": "address"
        }
      ],
      "name": "OwnershipAccepted",
      "type": "event"
    },
    {
      "anonymous": false,
      "inputs": [
        {
          "indexed": true,
          "internalType": "address",
          "name": "proposedOwner",
          "type": "address"
        }
      ],
      "name": "OwnershipProposed",
      "type": "event"
    },
    {
      "anonymous": false,
      "inputs": [
        {
          "indexed": true,
          "internalType": "uint256",
          "name": "commitment",
          "type": "uint256"
        }
      ],
      "name": "PatientRegistered",
      "type": "event"
    },
    {
      "anonymous": false,
      "inputs": [
        {
          "indexed": true,
          "internalType": "address",
          "name": "relayer",
          "type": "address"
        },
        {
          "indexed": true,
          "internalType": "uint256",
          "name": "commitment",
          "type": "uint256"
        }
      ],
      "name": "PatientRegisteredViaRelayer",
      "type": "event"
    },
    {
      "anonymous": false,
      "inputs": [
        {
          "indexed": true,
          "internalType": "address",
          "name": "relayer",
          "type": "address"
        }
      ],
      "name": "TrustedRelayerUpdated",
      "type": "event"
    },
    {
      "inputs": [],
      "name": "ANONYMOUS_APPLY_TYPEHASH",
      "outputs": [
        {
          "internalType": "bytes32",
          "name": "",
          "type": "bytes32"
        }
      ],
      "stateMutability": "view",
      "type": "function"
    },
    {
      "inputs": [],
      "name": "CANCEL_ANONYMOUS_APPLY_TYPEHASH",
      "outputs": [
        {
          "internalType": "bytes32",
          "name": "",
          "type": "bytes32"
        }
      ],
      "stateMutability": "view",
      "type": "function"
    },
    {
      "inputs": [],
      "name": "CONSENT_WALLET_BINDING_TYPEHASH",
      "outputs": [
        {
          "internalType": "bytes32",
          "name": "",
          "type": "bytes32"
        }
      ],
      "stateMutability": "view",
      "type": "function"
    },
    {
      "inputs": [],
      "name": "MERKLE_TREE_DURATION",
      "outputs": [
        {
          "internalType": "uint256",
          "name": "",
          "type": "uint256"
        }
      ],
      "stateMutability": "view",
      "type": "function"
    },
    {
      "inputs": [],
      "name": "REGISTER_VIA_RELAYER_TYPEHASH",
      "outputs": [
        {
          "internalType": "bytes32",
          "name": "",
          "type": "bytes32"
        }
      ],
      "stateMutability": "view",
      "type": "function"
    },
    {
      "inputs": [],
      "name": "acceptOwnership",
      "outputs": [],
      "stateMutability": "nonpayable",
      "type": "function"
    },
    {
      "inputs": [
        {
          "internalType": "uint256",
          "name": "",
          "type": "uint256"
        }
      ],
      "name": "anonymousApplyDeadlines",
      "outputs": [
        {
          "internalType": "uint256",
          "name": "",
          "type": "uint256"
        }
      ],
      "stateMutability": "view",
      "type": "function"
    },
    {
      "inputs": [
        {
          "internalType": "uint256",
          "name": "",
          "type": "uint256"
        },
        {
          "internalType": "uint256",
          "name": "",
          "type": "uint256"
        },
        {
          "internalType": "uint256",
          "name": "",
          "type": "uint256"
        }
      ],
      "name": "applyToTrialWithConsent",
      "outputs": [],
      "stateMutability": "pure",
      "type": "function"
    },
    {
      "inputs": [
        {
          "internalType": "uint256",
          "name": "trialId",
          "type": "uint256"
        },
        {
          "components": [
            {
              "internalType": "uint256",
              "name": "merkleTreeDepth",
              "type": "uint256"
            },
            {
              "internalType": "uint256",
              "name": "merkleTreeRoot",
              "type": "uint256"
            },
            {
              "internalType": "uint256",
              "name": "nullifier",
              "type": "uint256"
            },
            {
              "internalType": "uint256",
              "name": "message",
              "type": "uint256"
            },
            {
              "internalType": "uint256",
              "name": "scope",
              "type": "uint256"
            },
            {
              "internalType": "uint256[8]",
              "name": "points",
              "type": "uint256[8]"
            }
          ],
          "internalType": "struct ISemaphore.SemaphoreProof",
          "name": "proof",
          "type": "tuple"
        },
        {
          "internalType": "uint256",
          "name": "commitment",
          "type": "uint256"
        },
        {
          "internalType": "address",
          "name": "permitRecipient",
          "type": "address"
        },
        {
          "internalType": "uint256",
          "name": "deadline",
          "type": "uint256"
        },
        {
          "internalType": "bytes",
          "name": "permitSignature",
          "type": "bytes"
        },
        {
          "internalType": "bytes",
          "name": "cancelSignature",
          "type": "bytes"
        }
      ],
      "name": "cancelAnonymousApplyStage",
      "outputs": [],
      "stateMutability": "nonpayable",
      "type": "function"
    },
    {
      "inputs": [
        {
          "internalType": "externalEuint8",
          "name": "_age",
          "type": "bytes32"
        },
        {
          "internalType": "externalEbool",
          "name": "_gender",
          "type": "bytes32"
        },
        {
          "internalType": "externalEuint16",
          "name": "_weight",
          "type": "bytes32"
        },
        {
          "internalType": "externalEuint8",
          "name": "_height",
          "type": "bytes32"
        },
        {
          "internalType": "externalEbool",
          "name": "_hasDiabetes",
          "type": "bytes32"
        },
        {
          "internalType": "externalEuint16",
          "name": "_hbLevel",
          "type": "bytes32"
        },
        {
          "internalType": "externalEbool",
          "name": "_isSmoker",
          "type": "bytes32"
        },
        {
          "internalType": "externalEbool",
          "name": "_hasHypertension",
          "type": "bytes32"
        },
        {
          "internalType": "bytes",
          "name": "inputProof",
          "type": "bytes"
        }
      ],
      "name": "computeHealthDataHash",
      "outputs": [
        {
          "internalType": "bytes32",
          "name": "",
          "type": "bytes32"
        }
      ],
      "stateMutability": "pure",
      "type": "function"
    },
    {
      "inputs": [],
      "name": "confidentialProtocolId",
      "outputs": [
        {
          "internalType": "uint256",
          "name": "",
          "type": "uint256"
        }
      ],
      "stateMutability": "view",
      "type": "function"
    },
    {
      "inputs": [],
      "name": "eligibilityEngine",
      "outputs": [
        {
          "internalType": "contract IEligibilityEngine",
          "name": "",
          "type": "address"
        }
      ],
      "stateMutability": "view",
      "type": "function"
    },
    {
      "inputs": [
        {
          "internalType": "uint256",
          "name": "trialId",
          "type": "uint256"
        },
        {
          "components": [
            {
              "internalType": "uint256",
              "name": "merkleTreeDepth",
              "type": "uint256"
            },
            {
              "internalType": "uint256",
              "name": "merkleTreeRoot",
              "type": "uint256"
            },
            {
              "internalType": "uint256",
              "name": "nullifier",
              "type": "uint256"
            },
            {
              "internalType": "uint256",
              "name": "message",
              "type": "uint256"
            },
            {
              "internalType": "uint256",
              "name": "scope",
              "type": "uint256"
            },
            {
              "internalType": "uint256[8]",
              "name": "points",
              "type": "uint256[8]"
            }
          ],
          "internalType": "struct ISemaphore.SemaphoreProof",
          "name": "proof",
          "type": "tuple"
        },
        {
          "internalType": "uint256",
          "name": "commitment",
          "type": "uint256"
        },
        {
          "internalType": "address",
          "name": "permitRecipient",
          "type": "address"
        },
        {
          "internalType": "address",
          "name": "consentWallet",
          "type": "address"
        },
        {
          "internalType": "uint256",
          "name": "deadline",
          "type": "uint256"
        },
        {
          "internalType": "bytes",
          "name": "permitSignature",
          "type": "bytes"
        },
        {
          "internalType": "bytes",
          "name": "consentWalletSignature",
          "type": "bytes"
        },
        {
          "internalType": "bytes",
          "name": "noirProof",
          "type": "bytes"
        },
        {
          "internalType": "bytes32[]",
          "name": "publicInputs",
          "type": "bytes32[]"
        },
        {
          "internalType": "bool",
          "name": "eligible",
          "type": "bool"
        }
      ],
      "name": "finalizeAnonymousApplyWithProof",
      "outputs": [],
      "stateMutability": "nonpayable",
      "type": "function"
    },
    {
      "inputs": [
        {
          "internalType": "address",
          "name": "wallet",
          "type": "address"
        }
      ],
      "name": "getCommitmentForWallet",
      "outputs": [
        {
          "internalType": "uint256",
          "name": "",
          "type": "uint256"
        }
      ],
      "stateMutability": "view",
      "type": "function"
    },
    {
      "inputs": [],
      "name": "getPatientCount",
      "outputs": [
        {
          "internalType": "uint256",
          "name": "",
          "type": "uint256"
        }
      ],
      "stateMutability": "view",
      "type": "function"
    },
    {
      "inputs": [
        {
          "internalType": "uint256",
          "name": "trialId",
          "type": "uint256"
        },
        {
          "internalType": "uint256",
          "name": "nullifierHash",
          "type": "uint256"
        }
      ],
      "name": "hasAppliedToTrial",
      "outputs": [
        {
          "internalType": "bool",
          "name": "",
          "type": "bool"
        }
      ],
      "stateMutability": "view",
      "type": "function"
    },
    {
      "inputs": [],
      "name": "isRegistered",
      "outputs": [
        {
          "internalType": "bool",
          "name": "",
          "type": "bool"
        }
      ],
      "stateMutability": "view",
      "type": "function"
    },
    {
      "inputs": [
        {
          "internalType": "uint256",
          "name": "identityCommitment",
          "type": "uint256"
        }
      ],
      "name": "isRegisteredMember",
      "outputs": [
        {
          "internalType": "bool",
          "name": "",
          "type": "bool"
        }
      ],
      "stateMutability": "view",
      "type": "function"
    },
    {
      "inputs": [],
      "name": "owner",
      "outputs": [
        {
          "internalType": "address",
          "name": "",
          "type": "address"
        }
      ],
      "stateMutability": "view",
      "type": "function"
    },
    {
      "inputs": [],
      "name": "patientGroupId",
      "outputs": [
        {
          "internalType": "uint256",
          "name": "",
          "type": "uint256"
        }
      ],
      "stateMutability": "view",
      "type": "function"
    },
    {
      "inputs": [],
      "name": "patientRegistry",
      "outputs": [
        {
          "internalType": "contract IAnonymousPatientRegistry",
          "name": "",
          "type": "address"
        }
      ],
      "stateMutability": "view",
      "type": "function"
    },
    {
      "inputs": [],
      "name": "pendingOwner",
      "outputs": [
        {
          "internalType": "address",
          "name": "",
          "type": "address"
        }
      ],
      "stateMutability": "view",
      "type": "function"
    },
    {
      "inputs": [
        {
          "internalType": "address",
          "name": "_newOwner",
          "type": "address"
        }
      ],
      "name": "proposeOwnership",
      "outputs": [],
      "stateMutability": "nonpayable",
      "type": "function"
    },
    {
      "inputs": [
        {
          "internalType": "address",
          "name": "",
          "type": "address"
        }
      ],
      "name": "registerNonces",
      "outputs": [
        {
          "internalType": "uint256",
          "name": "",
          "type": "uint256"
        }
      ],
      "stateMutability": "view",
      "type": "function"
    },
    {
      "inputs": [
        {
          "internalType": "uint256",
          "name": "identityCommitment",
          "type": "uint256"
        },
        {
          "internalType": "address",
          "name": "_viewPermitRecipient",
          "type": "address"
        },
        {
          "internalType": "bytes32",
          "name": "_profileCommitment",
          "type": "bytes32"
        },
        {
          "internalType": "externalEuint8",
          "name": "_age",
          "type": "bytes32"
        },
        {
          "internalType": "externalEbool",
          "name": "_gender",
          "type": "bytes32"
        },
        {
          "internalType": "externalEuint16",
          "name": "_weight",
          "type": "bytes32"
        },
        {
          "internalType": "externalEuint8",
          "name": "_height",
          "type": "bytes32"
        },
        {
          "internalType": "externalEbool",
          "name": "_hasDiabetes",
          "type": "bytes32"
        },
        {
          "internalType": "externalEuint16",
          "name": "_hbLevel",
          "type": "bytes32"
        },
        {
          "internalType": "externalEbool",
          "name": "_isSmoker",
          "type": "bytes32"
        },
        {
          "internalType": "externalEbool",
          "name": "_hasHypertension",
          "type": "bytes32"
        },
        {
          "internalType": "bytes",
          "name": "inputProof",
          "type": "bytes"
        }
      ],
      "name": "registerPatient",
      "outputs": [],
      "stateMutability": "nonpayable",
      "type": "function"
    },
    {
      "inputs": [
        {
          "internalType": "address",
          "name": "patientWallet",
          "type": "address"
        },
        {
          "internalType": "uint256",
          "name": "identityCommitment",
          "type": "uint256"
        },
        {
          "internalType": "address",
          "name": "_viewPermitRecipient",
          "type": "address"
        },
        {
          "internalType": "bytes32",
          "name": "_profileCommitment",
          "type": "bytes32"
        },
        {
          "internalType": "externalEuint8",
          "name": "_age",
          "type": "bytes32"
        },
        {
          "internalType": "externalEbool",
          "name": "_gender",
          "type": "bytes32"
        },
        {
          "internalType": "externalEuint16",
          "name": "_weight",
          "type": "bytes32"
        },
        {
          "internalType": "externalEuint8",
          "name": "_height",
          "type": "bytes32"
        },
        {
          "internalType": "externalEbool",
          "name": "_hasDiabetes",
          "type": "bytes32"
        },
        {
          "internalType": "externalEuint16",
          "name": "_hbLevel",
          "type": "bytes32"
        },
        {
          "internalType": "externalEbool",
          "name": "_isSmoker",
          "type": "bytes32"
        },
        {
          "internalType": "externalEbool",
          "name": "_hasHypertension",
          "type": "bytes32"
        },
        {
          "internalType": "bytes",
          "name": "inputProof",
          "type": "bytes"
        },
        {
          "internalType": "uint256",
          "name": "nonce",
          "type": "uint256"
        },
        {
          "internalType": "uint256",
          "name": "deadline",
          "type": "uint256"
        },
        {
          "internalType": "bytes",
          "name": "signature",
          "type": "bytes"
        }
      ],
      "name": "registerPatientViaRelayer",
      "outputs": [],
      "stateMutability": "nonpayable",
      "type": "function"
    },
    {
      "inputs": [],
      "name": "semaphore",
      "outputs": [
        {
          "internalType": "contract ISemaphore",
          "name": "",
          "type": "address"
        }
      ],
      "stateMutability": "view",
      "type": "function"
    },
    {
      "inputs": [
        {
          "internalType": "address",
          "name": "_relayer",
          "type": "address"
        }
      ],
      "name": "setTrustedRelayer",
      "outputs": [],
      "stateMutability": "nonpayable",
      "type": "function"
    },
    {
      "inputs": [
        {
          "internalType": "uint256",
          "name": "trialId",
          "type": "uint256"
        },
        {
          "components": [
            {
              "internalType": "uint256",
              "name": "merkleTreeDepth",
              "type": "uint256"
            },
            {
              "internalType": "uint256",
              "name": "merkleTreeRoot",
              "type": "uint256"
            },
            {
              "internalType": "uint256",
              "name": "nullifier",
              "type": "uint256"
            },
            {
              "internalType": "uint256",
              "name": "message",
              "type": "uint256"
            },
            {
              "internalType": "uint256",
              "name": "scope",
              "type": "uint256"
            },
            {
              "internalType": "uint256[8]",
              "name": "points",
              "type": "uint256[8]"
            }
          ],
          "internalType": "struct ISemaphore.SemaphoreProof",
          "name": "proof",
          "type": "tuple"
        },
        {
          "internalType": "uint256",
          "name": "commitment",
          "type": "uint256"
        },
        {
          "internalType": "address",
          "name": "permitRecipient",
          "type": "address"
        },
        {
          "internalType": "uint256",
          "name": "deadline",
          "type": "uint256"
        },
        {
          "internalType": "bytes",
          "name": "permitSignature",
          "type": "bytes"
        }
      ],
      "name": "stageAnonymousApply",
      "outputs": [],
      "stateMutability": "nonpayable",
      "type": "function"
    },
    {
      "inputs": [
        {
          "internalType": "uint256",
          "name": "",
          "type": "uint256"
        },
        {
          "internalType": "uint256",
          "name": "",
          "type": "uint256"
        }
      ],
      "name": "trialApplications",
      "outputs": [
        {
          "internalType": "bool",
          "name": "",
          "type": "bool"
        }
      ],
      "stateMutability": "view",
      "type": "function"
    },
    {
      "inputs": [],
      "name": "trustedRelayer",
      "outputs": [
        {
          "internalType": "address",
          "name": "",
          "type": "address"
        }
      ],
      "stateMutability": "view",
      "type": "function"
    },
    {
      "inputs": [
        {
          "internalType": "uint256",
          "name": "newDuration",
          "type": "uint256"
        }
      ],
      "name": "updateMerkleTreeDuration",
      "outputs": [],
      "stateMutability": "nonpayable",
      "type": "function"
    }
  ],
  "bytecode": "0x6080806040523461021a576060816125a5803803809161001f8285610352565b83398101031261021a5761003281610375565b9061004b604061004460208401610375565b9201610375565b91610054610389565b50466001036102315760205f91610069610389565b5060405161007681610323565b73ca2e8f1f656cd25c01f05d0b243ab1ecd4a8ffb6815273d82385dada1ae3e969447f20a3164f6213100e75838201527377627828a55156b04ac0dc0eb30467f1a552bb0360408201525b80517f9e7b61f58c47dc699ac88507c4f5bb9f121c03808c5676a8078fe583e464970080546001600160a01b03199081166001600160a01b0393841617909155848301517f9e7b61f58c47dc699ac88507c4f5bb9f121c03808c5676a8078fe583e4649701805483169184169190911790556040928301517f9e7b61f58c47dc699ac88507c4f5bb9f121c03808c5676a8078fe583e4649702805483169184169190911790558554169216918217845551632c88036360e01b815230600482015262278d00602482015292839160449183915af1908115610226575f916101f0575b50600155600280546001600160a01b03199081166001600160a01b03938416179091556003805482169390921692909217905560048054909116331790556040516121fd90816103a88239f35b90506020813d60201161021e575b8161020b60209383610352565b8101031261021a57515f6101a3565b5f80fd5b3d91506101fe565b6040513d5f823e3d90fd5b4662aa36a7036102a35760205f91610247610389565b5060405161025481610323565b73f0ffdc93b7e186bc2f8cb3daa75d86d1930a433d81527392c920834ec8941d2c77d188936e1f7a6f49c1278382015273be0e383937d564d7ff0bc3b46c51f0bf8d5c311a60408201526100c1565b46617a69036103145760205f916102b8610389565b506040516102c581610323565b7350157cffd6bbfa2dece204a89ec419c23ef5755d815273e3a9105a3a932253a70f126eb1e3b589c643dd248382015273901f8942346f7ab3a01f6d7613119bca447bb03060408201526100c1565b6373cac13b60e01b5f5260045ffd5b606081019081106001600160401b0382111761033e57604052565b634e487b7160e01b5f52604160045260245ffd5b601f909101601f19168101906001600160401b0382119082101761033e57604052565b51906001600160a01b038216820361021a57565b6040519061039682610323565b5f604083828152826020820152015256fe6080806040526004361015610012575f80fd5b5f905f3560e01c9081630cfb977514611944575080631260cd67146119105780631cb35a87146118e957806322366844146118bd57806322bfba6514611893578063277da38f1461187657806334d3f6ff146118595780633f2e2a651461165b5780634f11c690146116325780635250c6e214611609578063592f316e146115845780635a483dcc1461155c5780636d9ab8c214611384578063710bf322146112d957806379ba5097146112385780637a95787d146111ad5780637b5d2534146111865780638596c2261461115d57806386fcf2991461112457806388902dac14610ff75780638927b03014610fdc5780638d23773c14610faa5780638da5cb5b14610f815780639054b6cf14610ed657806390d7336c14610e4b5780639392f33a14610a2e578063af61b901146108b5578063c190665b14610828578063c815e66a14610800578063e30c3978146107d7578063e96f7f28146107795763f47c53101461017e575f80fd5b346105025761020036600319011261050257610198611996565b6044356001600160a01b038116810361077557610184356001600160401b038111610771576101cb9036906004016119ac565b91906101e4356001600160401b038111610539576101ed9036906004016119ac565b6006546001600160a01b03163303610735576001600160a01b038616156106fa576001600160a01b0386168752600760205260408720546101a435036106c5576101c435421161068c5760016101a435016101a43511610678576001600160a01b03861687526007602052604087206101a4356001019055610321906103499061029387866101643561014435610124356101043560e43560c43560a435608435611fc8565b60405160208101915f5160206121915f395f51905f52835260018060a01b038b166040830152602435606083015260018060a01b038916608083015260643560a083015260c08201526101a43560e08201526101c435610100820152610100815261030061012082611a6e565b5190209361032f61030f611ea5565b95604051958691602083019889611aa5565b03601f198101865285611a6e565b92519093206001600160a01b038881169490939091611f42565b1603610633576001600160a01b038216156105f657606435156105b75760243515610577576001600160a01b0384168552600a602052604085205460ff1661053d576001600160a01b039384168552600a60205260408520805460ff191660019081179091558554905486959190911690813b15610539578591604483926040519485938492631783efc360e01b8452600484015260243560248401525af190811561052e578591610514575b50506002546001600160a01b0316803b156105105761049e93858094604051968795869485936336cd5c6160e11b8552602435600486015260018060a01b031660248501526064356044850152608435606485015260a435608485015260c43560a485015260e43560c48501526101043560e4850152610124356101048501526101443561012485015261016435610144850152610180610164850152610184840191611b11565b03925af18015610505576104ed575b50602435337fcf404d2b75bd196a0a27292fe103bed33287f3aeb9e180ee5f733a54d81f43138380a36024355f5160206121715f395f51905f528280a280f35b816104f791611a6e565b61050257805f6104ad565b80fd5b6040513d84823e3d90fd5b8480fd5b8161051e91611a6e565b61052957835f6103f6565b505050fd5b6040513d87823e3d90fd5b8580fd5b60405162461bcd60e51b8152602060048201526012602482015271105b1c9958591e481c9959da5cdd195c995960721b6044820152606490fd5b60405162461bcd60e51b815260206004820152601860248201527716995c9bc81a59195b9d1a5d1e4818dbdb5b5a5d1b595b9d60421b6044820152606490fd5b60405162461bcd60e51b815260206004820152601760248201527616995c9bc81c1c9bd99a5b194818dbdb5b5a5d1b595b9d604a1b6044820152606490fd5b60405162461bcd60e51b815260206004820152601560248201527416995c9bc81c195c9b5a5d081c9958da5c1a595b9d605a1b6044820152606490fd5b60405162461bcd60e51b815260206004820152601e60248201527f496e76616c696420726567697374726174696f6e207369676e617475726500006044820152606490fd5b634e487b7160e01b87526011600452602487fd5b60405162461bcd60e51b815260206004820152601160248201527014da59db985d1d5c9948195e1c1a5c9959607a1b6044820152606490fd5b60405162461bcd60e51b815260206004820152600d60248201526c496e76616c6964206e6f6e636560981b6044820152606490fd5b60405162461bcd60e51b815260206004820152601360248201527216995c9bc81c185d1a595b9d081dd85b1b195d606a1b6044820152606490fd5b60405162461bcd60e51b815260206004820152601460248201527327b7363c903a393ab9ba32b2103932b630bcb2b960611b6044820152606490fd5b8380fd5b8280fd5b5034610502576101203660031901126105025761010435906001600160401b0382116105025760206107cf6107b136600486016119ac565b9060e43560c43560a435608435606435604435602435600435611fc8565b604051908152f35b50346105025780600319360112610502576005546040516001600160a01b039091168152602090f35b503461050257806003193601126105025760206040515f5160206121515f395f51905f528152f35b503461050257806003193601126105025760018060a01b038154166020600154602460405180948193631fb8d68360e21b835260048301525afa90811561050557829161087b575b602082604051908152f35b90506020813d6020116108ad575b8161089660209383611a6e565b810103126108a95760209150515f610870565b5080fd5b3d9150610889565b503461050257610240366003190112610502576004356101a03660231901126108a9576101c435906108e561197f565b9061020435610224356001600160401b0381116105395761090d6109179136906004016119ac565b9083868887611b31565b818552600b6020526020604086209360643594858852825261094060ff604089205416156119d9565b6003546001600160a01b03169560849061095b881515611a25565b886040519889948593638c7784b360e01b8552600485015288602485015289604485015260018060a01b031660648401525af193841561052e5785946109fa575b50828552600860205260408520557fe469eba31f321d8bebe627bfc87b4538c257f6925eb03365632c70c2275abe81602060405181810190858252846040820152604081526109ec606082611a6e565b51902094604051908152a480f35b9093506020813d602011610a26575b81610a1660209383611a6e565b810103126105105751925f61099c565b3d9150610a09565b5034610502576102e0366003190112610502576004356101a03660231901126108a9576101c435610a5d61197f565b90610204356001600160a01b03811690819003610510576102243592610244356001600160401b038111610e4757610a999036906004016119ac565b909190610264356001600160401b038111610e4357610abc9036906004016119ac565b949091610284356001600160401b038111610e3f57610adf9036906004016119ac565b6102a43597909391906001600160401b038911610e3b573660238a011215610e3b576004890135956001600160401b038711610e37578660051b983660248b8d010111610e33576102c43595861515809703610e2f57610b44918f8f908f8d91611b31565b6064359b8415610df457804211610da55784928f928f938f610be394610bc196604051926020840194505f5160206121515f395f51905f5285526040840152606083015287608083015260a082015260a08152610ba260c082611a6e565b519020610bcf610bb0611ea5565b604051966020880193889285611aa5565b03601f198101875286611a6e565b93519093206001600160a01b039390611f42565b1603610d61578b93610c73928c8652600b602052604086208c8752602052610c1260ff604088205416156119d9565b6003546001600160a01b031697610c2a891515611a25565b6040516307c8b52960e01b8152600481019c909c5260248c018d905260448c018e90526001600160a01b031660648c015260848b015261010060a48b01526101048a0191611b11565b8781036003190160c4890152838152926001600160fb1b03106108a957868581969460209893839660248b96018684013760e4840152010301925af18015610d5657610d27575b50818352600b6020526040832081845260205260408320600160ff19825416179055604051602081019082825283604082015260408152610cfc606082611a6e565b519020917f2781aa971870e4ce67772689e03c8f88a41c87389876c835e6beb2ddb4f292688480a480f35b6020813d602011610d4e575b81610d4060209383611a6e565b810103126107715751610cba565b3d9150610d33565b6040513d86823e3d90fd5b606460405162461bcd60e51b815260206004820152602060248201527f496e76616c696420636f6e73656e742077616c6c6574207369676e61747572656044820152fd5b60405162461bcd60e51b815260206004820152602160248201527f436f6e73656e742062696e64696e67207369676e6174757265206578706972656044820152601960fa1b6064820152608490fd5b60405162461bcd60e51b815260206004820152601360248201527216995c9bc818dbdb9cd95b9d081dd85b1b195d606a1b6044820152606490fd5b8f80fd5b8e80fd5b8d80fd5b8c80fd5b8a80fd5b8880fd5b8680fd5b50346105025760203660031901126105025760018060a01b038154166020600154604460405180948193632414275160e21b8352600483015260043560248301525afa9081156105055760209291610ea9575b506040519015158152f35b610ec99150823d8411610ecf575b610ec18183611a6e565b810190611af9565b5f610e9e565b503d610eb7565b503461050257602036600319011261050257610ef0611996565b610f0560018060a01b03600454163314611ac0565b6001600160a01b03168015610f4d57600680546001600160a01b031916821790557ff84ecdd905017e535159272e1fb54366cb19530c316b4c309d385f51ea3304a98280a280f35b60405162461bcd60e51b815260206004820152600c60248201526b2d32b937903932b630bcb2b960a11b6044820152606490fd5b50346105025780600319360112610502576004546040516001600160a01b039091168152602090f35b50346105025760ff6040602092610fc036611969565b908252600b855282822090825284522054166040519015158152f35b503461050257806003193601126105025760206107cf611f99565b50346105025760203660031901126105025760043561102160018060a01b03600454163314611ac0565b610e1081106110df576301e13380811161109057815460015483926001600160a01b0390921691823b156105295760448492836040519586948593633f3c2dbb60e21b8552600485015260248401525af180156105055761107f5750f35b8161108991611a6e565b6105025780f35b60405162461bcd60e51b815260206004820152602160248201527f4475726174696f6e2061626f7665206d6178696d756d202833363520646179736044820152602960f81b6064820152608490fd5b60405162461bcd60e51b815260206004820152601f60248201527f4475726174696f6e2062656c6f77206d696e696d756d20283120686f757229006044820152606490fd5b5034610502576020366003190112610502576020906040906001600160a01b0361114c611996565b168152600783522054604051908152f35b50346105025780600319360112610502576006546040516001600160a01b039091168152602090f35b5034610502578060031936011261050257546040516001600160a01b039091168152602090f35b50346105025760603660031901126105025760405162461bcd60e51b815260206004820152604560248201527f446570726563617465643a20757365207374616765416e6f6e796d6f7573417060448201527f706c79202b2066696e616c697a65416e6f6e796d6f75734170706c7957697468606482015264283937b7b360d91b608482015260a490fd5b50346105025780600319360112610502576005546001600160a01b038116903382900361129f57600480546001600160a01b03199081168417909155166005557fb27970c1714b28277b78cc17ac2fe9556e7f048cd48358cffe3dc7d547608fdc8280a280f35b60405162461bcd60e51b81526020600482015260126024820152712737ba10383937b837b9b2b21037bbb732b960711b6044820152606490fd5b5034610502576020366003190112610502576112f3611996565b61130860018060a01b03600454163314611ac0565b6001600160a01b0316801561135057600580546001600160a01b031916821790557f6ab4d119f23076e8ad491bc65ce85f017fb0591dce08755ba8591059cc51737a8280a280f35b60405162461bcd60e51b815260206004820152600c60248201526b5a65726f206164647265737360a01b6044820152606490fd5b503461050257610180366003190112610502576004356024356001600160a01b038116908190036107755760443590610164356001600160401b038111610510576113d39036906004016119ac565b829192156105f65783156105b757841561057757338652600a60205260ff60408720541661053d578593338552600a60205260408520600160ff19825416179055338552600960205285604086205560018060a01b03855416600154813b15610e47578691604483926040519485938492631783efc360e01b845260048401528c60248401525af190811561155157869161153c575b50506002546001600160a01b031690813b1561053957858094611503604051978896879586946336cd5c6160e11b86528d6004870152602486015260448501526064356064850152608435608485015260a43560a485015260c43560c485015260e43560e4850152610104356101048501526101243561012485015261014435610144850152610180610164850152610184840191611b11565b03925af1801561050557611527575b50805f5160206121715f395f51905f5291a280f35b8161153191611a6e565b6108a957815f611512565b8161154691611a6e565b61051057845f611469565b6040513d88823e3d90fd5b503461050257806003193601126105025760206040515f5160206121915f395f51905f528152f35b5034610502576020366003190112610502576001600160a01b036115a6611996565b168033036115c4578160409160209352600983522054604051908152f35b60405162461bcd60e51b815260206004820152601d60248201527f43616e206f6e6c79207175657279206f776e20636f6d6d69746d656e740000006044820152606490fd5b50346105025780600319360112610502576002546040516001600160a01b039091168152602090f35b50346105025780600319360112610502576003546040516001600160a01b039091168152602090f35b50346117d5576102603660031901126117d5576004356101a03660231901126117d55761168661197f565b906102043590610224356001600160401b0381116117d5576116ac9036906004016119ac565b92610244356001600160401b0381116117d5576116d06116df9136906004016119ac565b95909383886101c43588611b31565b825f52600b60205260405f209360643594855f5260205261170760ff60405f205416156119d9565b6003546001600160a01b03169261171f841515611a25565b82421161181957610bc191611778916040519860208a01905f5160206121b15f395f51905f5282528860408c01528960608c015260018060a01b0316998a9687608083015260a082015260a08152610ba260c082611a6e565b16036117d957803b156117d5575f92836064926040519687958694631633cac560e31b86526004860152602485015260448401525af180156117ca576117bc575080f35b6117c891505f90611a6e565b005b6040513d5f823e3d90fd5b5f80fd5b60405162461bcd60e51b8152602060048201526018602482015277496e76616c69642063616e63656c207369676e617475726560401b6044820152606490fd5b60405162461bcd60e51b815260206004820152601860248201527710d85b98d95b081cda59db985d1d5c9948195e1c1a5c995960421b6044820152606490fd5b346117d5575f3660031901126117d557602060405162278d008152f35b346117d5575f3660031901126117d5576020600154604051908152f35b346117d55760203660031901126117d5576004355f526008602052602060405f2054604051908152f35b346117d5575f3660031901126117d557335f52600a602052602060ff60405f2054166040519015158152f35b346117d5575f3660031901126117d55760206040515f5160206121b15f395f51905f528152f35b346117d55761191e36611969565b905f52600b60205260405f20905f52602052602060ff60405f2054166040519015158152f35b346117d5575f3660031901126117d557805f5160206121d15f395f51905f5260209252f35b60409060031901126117d5576004359060243590565b6101e435906001600160a01b03821682036117d557565b600435906001600160a01b03821682036117d557565b9181601f840112156117d5578235916001600160401b0383116117d557602083818601950101116117d557565b156119e057565b60405162461bcd60e51b815260206004820152601d60248201527f416c7265616479206170706c69656420746f207468697320747269616c0000006044820152606490fd5b15611a2c57565b60405162461bcd60e51b815260206004820152601a602482015279115b1a59da589a5b1a5d1e48195b99da5b99481b9bdd081cd95d60321b6044820152606490fd5b601f909101601f19168101906001600160401b03821190821017611a9157604052565b634e487b7160e01b5f52604160045260245ffd5b909160429261190160f01b8352600283015260228201520190565b15611ac757565b60405162461bcd60e51b815260206004820152600a60248201526927b7363c9037bbb732b960b11b6044820152606490fd5b908160209103126117d5575180151581036117d55790565b908060209392818452848401375f828201840152601f01601f1916010190565b6001600160a01b038316959394929392918615611e6557854211611e255760018060a01b035f54169460015490604051632414275160e21b81528260048201528360248201526020816044818b5afa9081156117ca575f91611e06575b5015611db657604051916308ade83160e31b835260048301526024356024830152604435604483015260643596876064840152608435928360848201526020816101c48160a435958660a483015261010060c4808401375afa9081156117ca575f91611d97575b5015611d58578403611d1957604051602081019184835260018060601b03199060601b16604082015260348152611c2d605482611a6e565b51902003611cd757610bc195611c7f956040519260208401945f5160206121d15f395f51905f5286526040850152606084015260808301528760a083015260c082015260c08152610ba260e082611a6e565b1603611c8757565b60405162461bcd60e51b815260206004820152602260248201527f496e76616c6964207065726d697420726563697069656e74207369676e617475604482015261726560f01b6064820152608490fd5b60405162461bcd60e51b815260206004820152601a602482015279086dedadad2e8dacadce85ee6d2cedcc2d840dad2e6dac2e8c6d60331b6044820152606490fd5b60405162461bcd60e51b815260206004820152601760248201527614d8dbdc19481b5a5cdb585d18da0e881d1c9a585b1259604a1b6044820152606490fd5b60405162461bcd60e51b815260206004820152601760248201527624b73b30b634b21029b2b6b0b83437b93290383937b7b360491b6044820152606490fd5b611db0915060203d602011610ecf57610ec18183611a6e565b5f611bf5565b60405162461bcd60e51b815260206004820152602260248201527f436f6d6d69746d656e74206e6f74207265676973746572656420696e2067726f604482015261075760f41b6064820152608490fd5b611e1f915060203d602011610ecf57610ec18183611a6e565b5f611b8e565b60405162461bcd60e51b815260206004820152601860248201527714195c9b5a5d081cda59db985d1d5c9948195e1c1a5c995960421b6044820152606490fd5b60405162461bcd60e51b8152602060048201526018602482015277125b9d985b1a59081c195c9b5a5d081c9958da5c1a595b9d60421b6044820152606490fd5b6040601060208251611eb78482611a6e565b828152016f4d65645661756c74526567697374727960801b815220600160208351611ee28582611a6e565b82815201603160f81b81522082519160208301937f8b73c3c69bb8fe3d512ecc4cf759cc79239f7b179b0ffacaa9a75d522b39400f855283015260608201524660808201523060a082015260a08152611f3c60c082611a6e565b51902090565b6001600160401b038311611a915760405190611f68601f8501601f191660200183611a6e565b83825236848401116117d5575f602085611f9696611f8d96838701378401015261202a565b90929192612064565b90565b46600103611fa657600190565b4662aa36a703611fb65761271190565b617a694614611fc3575f90565b5f1990565b989294611f3c9792989461201c969792976040519a8b9960208b019d8e5260408b015260608a0152608089015260a088015260c087015260e086015261010085015261012080850152610140840191611b11565b03601f198101835282611a6e565b815191906041830361205a576120539250602082015190606060408401519301515f1a906120d8565b9192909190565b50505f9160029190565b60048110156120c45780612076575050565b6001810361208d5763f645eedf60e01b5f5260045ffd5b600281036120a8575063fce698f760e01b5f5260045260245ffd5b6003146120b25750565b6335e2f38360e21b5f5260045260245ffd5b634e487b7160e01b5f52602160045260245ffd5b91906fa2a8918ca85bafe22016d0b997e4df60600160ff1b038411612145579160209360809260ff5f9560405194855216868401526040830152606082015282805260015afa156117ca575f516001600160a01b0381161561213b57905f905f90565b505f906001905f90565b5050505f916003919056feebb738af1775421b1410935e225a9450c696b730fcb7bf0e68174cd23f2de0234c5da917c89b368a7c58084e36d80fc37bc7af94d1c6e5fdab59d8c19b9858d91f8d0b95731f745d7f9f8df6adab91da27d8809a4248ac155ab711a0082400314b4eaf641862218da542a4fcf09799be4d534672fae9dee079b43819fdd0eebbc6b765112138f485c7e1d0ffea3eadc0bcca9cabedbe978809dd7081809f953ca164736f6c634300081b000a",
  "linkReferences": {},
  "deployedLinkReferences": {}
}