{
  "_format": "hh-sol-artifact-1",
  "contractName": "SponsorIncentiveVault",
  "sourceName": "contracts/SponsorIncentiveVault.sol",
  "abi": [
    {
      "inputs": [
        {
          "internalType": "address payable",
          "name": "_cETH",
          "type": "address"
        },
        {
          "internalType": "address",
          "name": "_trialManager",
          "type": "address"
        },
        {
          "internalType": "address",
          "name": "_eligibilityEngine",
          "type": "address"
        }
      ],
      "stateMutability": "nonpayable",
      "type": "constructor"
    },
    {
      "anonymous": false,
      "inputs": [
        {
          "indexed": true,
          "internalType": "uint256",
          "name": "trialId",
          "type": "uint256"
        },
        {
          "indexed": true,
          "internalType": "address",
          "name": "sponsor",
          "type": "address"
        },
        {
          "indexed": false,
          "internalType": "uint256",
          "name": "amount",
          "type": "uint256"
        }
      ],
      "name": "IncentiveFunded",
      "type": "event"
    },
    {
      "anonymous": false,
      "inputs": [
        {
          "indexed": true,
          "internalType": "uint256",
          "name": "trialId",
          "type": "uint256"
        },
        {
          "indexed": false,
          "internalType": "uint256",
          "name": "milestoneIndex",
          "type": "uint256"
        },
        {
          "indexed": false,
          "internalType": "uint256",
          "name": "shareWei",
          "type": "uint256"
        }
      ],
      "name": "MilestoneRewardsDistributed",
      "type": "event"
    },
    {
      "anonymous": false,
      "inputs": [
        {
          "indexed": true,
          "internalType": "uint256",
          "name": "trialId",
          "type": "uint256"
        },
        {
          "indexed": true,
          "internalType": "address",
          "name": "participant",
          "type": "address"
        }
      ],
      "name": "ParticipantRegistered",
      "type": "event"
    },
    {
      "anonymous": false,
      "inputs": [
        {
          "indexed": true,
          "internalType": "address",
          "name": "patient",
          "type": "address"
        },
        {
          "indexed": false,
          "internalType": "uint256",
          "name": "amount",
          "type": "uint256"
        }
      ],
      "name": "RewardClaimed",
      "type": "event"
    },
    {
      "anonymous": false,
      "inputs": [
        {
          "indexed": true,
          "internalType": "uint256",
          "name": "trialId",
          "type": "uint256"
        },
        {
          "indexed": false,
          "internalType": "uint256",
          "name": "participantCount",
          "type": "uint256"
        },
        {
          "indexed": false,
          "internalType": "uint256",
          "name": "shareWei",
          "type": "uint256"
        }
      ],
      "name": "RewardsDistributed",
      "type": "event"
    },
    {
      "inputs": [],
      "name": "automationContract",
      "outputs": [
        {
          "internalType": "address",
          "name": "",
          "type": "address"
        }
      ],
      "stateMutability": "view",
      "type": "function"
    },
    {
      "inputs": [],
      "name": "cETH",
      "outputs": [
        {
          "internalType": "contract ConfidentialETH",
          "name": "",
          "type": "address"
        }
      ],
      "stateMutability": "view",
      "type": "function"
    },
    {
      "inputs": [],
      "name": "dataAccessLog",
      "outputs": [
        {
          "internalType": "contract DataAccessLog",
          "name": "",
          "type": "address"
        }
      ],
      "stateMutability": "view",
      "type": "function"
    },
    {
      "inputs": [
        {
          "internalType": "uint256",
          "name": "_trialId",
          "type": "uint256"
        }
      ],
      "name": "distribute",
      "outputs": [],
      "stateMutability": "nonpayable",
      "type": "function"
    },
    {
      "inputs": [
        {
          "internalType": "uint256",
          "name": "_trialId",
          "type": "uint256"
        },
        {
          "internalType": "address",
          "name": "_participant",
          "type": "address"
        },
        {
          "internalType": "uint256",
          "name": "_milestoneIndex",
          "type": "uint256"
        }
      ],
      "name": "distributeMilestoneToParticipant",
      "outputs": [],
      "stateMutability": "nonpayable",
      "type": "function"
    },
    {
      "inputs": [
        {
          "internalType": "uint256",
          "name": "_trialId",
          "type": "uint256"
        },
        {
          "internalType": "uint256",
          "name": "_milestoneIndex",
          "type": "uint256"
        }
      ],
      "name": "distributePartial",
      "outputs": [],
      "stateMutability": "nonpayable",
      "type": "function"
    },
    {
      "inputs": [],
      "name": "eligibilityEngine",
      "outputs": [
        {
          "internalType": "contract EligibilityEngine",
          "name": "",
          "type": "address"
        }
      ],
      "stateMutability": "view",
      "type": "function"
    },
    {
      "inputs": [
        {
          "internalType": "uint256",
          "name": "_trialId",
          "type": "uint256"
        }
      ],
      "name": "fundTrial",
      "outputs": [],
      "stateMutability": "payable",
      "type": "function"
    },
    {
      "inputs": [
        {
          "internalType": "uint256",
          "name": "_trialId",
          "type": "uint256"
        }
      ],
      "name": "getParticipantCount",
      "outputs": [
        {
          "internalType": "uint256",
          "name": "",
          "type": "uint256"
        }
      ],
      "stateMutability": "view",
      "type": "function"
    },
    {
      "inputs": [
        {
          "internalType": "uint256",
          "name": "_trialId",
          "type": "uint256"
        }
      ],
      "name": "getTotalDeposited",
      "outputs": [
        {
          "internalType": "uint256",
          "name": "",
          "type": "uint256"
        }
      ],
      "stateMutability": "view",
      "type": "function"
    },
    {
      "inputs": [
        {
          "internalType": "uint256",
          "name": "_trialId",
          "type": "uint256"
        }
      ],
      "name": "isDistributed",
      "outputs": [
        {
          "internalType": "bool",
          "name": "",
          "type": "bool"
        }
      ],
      "stateMutability": "view",
      "type": "function"
    },
    {
      "inputs": [
        {
          "internalType": "uint256",
          "name": "_trialId",
          "type": "uint256"
        }
      ],
      "name": "isPoolFunded",
      "outputs": [
        {
          "internalType": "bool",
          "name": "",
          "type": "bool"
        }
      ],
      "stateMutability": "view",
      "type": "function"
    },
    {
      "inputs": [
        {
          "internalType": "uint256",
          "name": "",
          "type": "uint256"
        },
        {
          "internalType": "uint256",
          "name": "",
          "type": "uint256"
        }
      ],
      "name": "milestoneDistributed",
      "outputs": [
        {
          "internalType": "bool",
          "name": "",
          "type": "bool"
        }
      ],
      "stateMutability": "view",
      "type": "function"
    },
    {
      "inputs": [],
      "name": "milestoneManager",
      "outputs": [
        {
          "internalType": "contract TrialMilestoneManager",
          "name": "",
          "type": "address"
        }
      ],
      "stateMutability": "view",
      "type": "function"
    },
    {
      "inputs": [],
      "name": "owner",
      "outputs": [
        {
          "internalType": "address",
          "name": "",
          "type": "address"
        }
      ],
      "stateMutability": "view",
      "type": "function"
    },
    {
      "inputs": [
        {
          "internalType": "uint256",
          "name": "",
          "type": "uint256"
        },
        {
          "internalType": "address",
          "name": "",
          "type": "address"
        },
        {
          "internalType": "uint256",
          "name": "",
          "type": "uint256"
        }
      ],
      "name": "participantMilestonePaid",
      "outputs": [
        {
          "internalType": "bool",
          "name": "",
          "type": "bool"
        }
      ],
      "stateMutability": "view",
      "type": "function"
    },
    {
      "inputs": [
        {
          "internalType": "uint256",
          "name": "_trialId",
          "type": "uint256"
        },
        {
          "internalType": "address",
          "name": "_participant",
          "type": "address"
        }
      ],
      "name": "registerParticipant",
      "outputs": [],
      "stateMutability": "nonpayable",
      "type": "function"
    },
    {
      "inputs": [
        {
          "internalType": "address",
          "name": "_automation",
          "type": "address"
        }
      ],
      "name": "setAutomationContract",
      "outputs": [],
      "stateMutability": "nonpayable",
      "type": "function"
    },
    {
      "inputs": [
        {
          "internalType": "address",
          "name": "_dataAccessLog",
          "type": "address"
        }
      ],
      "name": "setDataAccessLog",
      "outputs": [],
      "stateMutability": "nonpayable",
      "type": "function"
    },
    {
      "inputs": [
        {
          "internalType": "address",
          "name": "_milestoneManager",
          "type": "address"
        }
      ],
      "name": "setMilestoneManager",
      "outputs": [],
      "stateMutability": "nonpayable",
      "type": "function"
    },
    {
      "inputs": [],
      "name": "trialManager",
      "outputs": [
        {
          "internalType": "contract TrialManager",
          "name": "",
          "type": "address"
        }
      ],
      "stateMutability": "view",
      "type": "function"
    },
    {
      "stateMutability": "payable",
      "type": "receive"
    }
  ],
  "bytecode": "0x60803460b257601f611f6938819003918201601f19168301916001600160401b0383118484101760b65780849260609460405283398101031260b25780516001600160a01b038116919082900360b25760636040605d6020840160ca565b920160ca565b600680546001600160a01b031990811633179091555f805482169094179093556001805484166001600160a01b03938416179055600280549093169116179055604051611e8b90816100de8239f35b5f80fd5b634e487b7160e01b5f52604160045260245ffd5b51906001600160a01b038216820360b25756fe6080604052600436101561001a575b3615610018575f80fd5b005b5f5f3560e01c8062b6cbdf1461182c5780630689d5ed1461180457806307982309146117dc5780630b7d662f146117b45780632ea7ca0b146117645780633b1b84ff1461173a578063477e74b6146112845780634f11c6901461125b57806355f8cfdd1461123257806362909f0a146111e05780636f62c3a6146111ae5780637ef4775b1461118257806386ae5fec146111555780638da5cb5b1461112c57806391c05b0b14610bcf578063a1b4d01114610ba8578063b807420c14610730578063be26085e14610595578063c322122714610563578063ef2262121461015f5763f520f24f1461010b575061000e565b3461015c57602036600319011261015c57610124611872565b61013960018060a01b036006541633146118c8565b600480546001600160a01b0319166001600160a01b039290921691909117905580f35b80fd5b503461015c57604036600319011261015c576024356001600160a01b038116906004359082810361055f57600154604051631a7f3c3360e01b815260048101849052908590829060249082906001600160a01b03165afa908115610554578591610532575b5083331490811561051b575b50156104db578184526007602052604084206101ee81541515611e09565b60ff600282015416610498576003810190845f528160205260ff60405f20541661045e576002546040516319a148dd60e21b815290879082906001600160a01b03168180610240898b60048401611d40565b03915afa9081156104535787916103e8575b5060048110156103d45760020361039c57600101805490600160401b821015610388578161028891600189969594018155611e49565b81549060031b9087821b9160018060a01b03901b1916179055845f5260205260405f20600160ff1982541617905560018060a01b036004541690816102f1575b5050807f78337b3a0cfc36faafab5a292dc7571f6bd68ba681c22e15c97b1e3469b51a0291a380f35b604051602081019160018060601b03199060601b1682524260348201526034815261031d605482611949565b519020813b156103795782916064839260405194859384926306cc173360e41b84526006600485015289602485015260448401525af1801561037d57610364575b806102c8565b8161036e91611949565b61037957825f61035e565b8280fd5b6040513d84823e3d90fd5b634e487b7160e01b87526041600452602487fd5b60405162461bcd60e51b815260206004820152601060248201526f135d5cdd081899481858d8d95c1d195960821b6044820152606490fd5b634e487b7160e01b87526021600452602487fd5b90503d8088833e6103f98183611949565b810160408282031261044f578151916004831015610447576020810151906001600160401b03821161044b57019080601f8301121561044757815161044092602001611980565b505f610252565b8880fd5b8980fd5b8780fd5b6040513d89823e3d90fd5b60405162461bcd60e51b8152602060048201526012602482015271105b1c9958591e481c9959da5cdd195c995960721b6044820152606490fd5b60405162461bcd60e51b815260206004820152601b60248201527a14d8dc99595b9a5b99c8185b1c9958591e48199a5b985b1a5e9959602a1b6044820152606490fd5b60405162461bcd60e51b81526020600482015260186024820152772ab730baba3437b934bd32b2103a37903932b3b4b9ba32b960411b6044820152606490fd5b608001516001600160a01b0316331490505f6101d0565b61054e91503d8087833e6105468183611949565b810190611a0c565b5f6101c4565b6040513d87823e3d90fd5b8380fd5b503461015c5760ff6040602092610579366118b2565b9082526008855282822090825284522054166040519015158152f35b50602036600319011261015c57600154604051631a7f3c3360e01b815260048035908201819052918390829060249082906001600160a01b03165afa90811561072557839161070b575b5060808101516001600160a01b031633036106ce5760a00151156106965734156106615780825260076020526040822080549034820180921161064d5755604051903482527f67ec3e65bfa1c9be3e784341a3b9746d0e6a0cace395c7ff8df13b58106c272960203393a380f35b634e487b7160e01b84526011600452602484fd5b60405162461bcd60e51b815260206004820152600d60248201526c09aeae6e840e6cadcc8408aa89609b1b6044820152606490fd5b60405162461bcd60e51b815260206004820152601060248201526f547269616c206e6f742061637469766560801b6044820152606490fd5b60405162461bcd60e51b815260206004820152601560248201527413db9b1e481cdc1bdb9cdbdc8818d85b88199d5b99605a1b6044820152606490fd5b61071f91503d8085833e6105468183611949565b5f6105df565b6040513d85823e3d90fd5b503461015c5761073f366118b2565b6005546001600160a01b031633148015610b39575b61075d90611bbd565b6003546001600160a01b0316610774811515611901565b82845260086020526040842082855260205260ff604085205416610af457836024916040519283809263010b152760e61b82528760048301525afa908115610ae9576108199161081f918691610ac7575b506107d281518510611cfa565b848652600760205261271060016040882001549384926107f3841515611db2565b878952600760205261ffff602061080f8960408d205494611d59565b5101511690611d81565b04611d94565b9082158015865b83811061091b57505050838552506008602090815260408086208487529091528420805460ff1916600117905560045484906001600160a01b031680610889575b50505f516020611e5f5f395f51905f529160409182519182526020820152a280f35b6040516020810190732820a92a24a0a62fa224a9aa2924a12aaa24a7a760611b8252856034820152426054820152605481526108c6607482611949565b51902090803b15610379576040516306cc173360e41b815291839183918290849082906108f7908c60048401611df0565b03925af1801561037d5715610867578161091091611949565b61055f57835f610867565b8688526007602052876109348260016040842001611e49565b905460039190911b1c6001600160a01b03168484610a17575b806109e4575b610962575b5050600101610826565b8882526009602090815260408084206001600160a01b038481165f908152918452908290208b86529092528320805460ff1916600117905582541690813b1561037957879160248492604051948593849263aa67c91960e01b845260048401525af1801561037d571561095857816109d991611949565b61044f57875f610958565b5088825260096020526040822060018060a01b0382165f5260205260405f2088835260205260ff60408320541615610953565b506003546040516313981ba960e31b815291925060209082906001600160a01b03168180610a49878f60048401611d40565b03915afa908115610abc578a91610a87575b506001880190818911610a7357908a9291101561094d565b634e487b7160e01b8b52601160045260248bfd5b90506020813d8211610ab4575b81610aa160209383611949565b81010312610ab057515f610a5b565b5f80fd5b3d9150610a94565b6040513d8c823e3d90fd5b610ae391503d8088833e610adb8183611949565b810190611bfa565b5f6107c5565b6040513d86823e3d90fd5b60405162461bcd60e51b815260206004820152601d60248201527f4d696c6573746f6e6520616c72656164792064697374726962757465640000006044820152606490fd5b50600154604051631a7f3c3360e01b815260048101849052908490829060249082906001600160a01b03165afa8015610ae95761075d918591610b8e575b50608001516001600160a01b031633149050610754565b610ba291503d8087833e6105468183611949565b5f610b77565b503461015c578060031936011261015c57546040516001600160a01b039091168152602090f35b503461015c57602036600319011261015c5760043560018060a01b0360055416331480156110bd575b610c0190611bbd565b600154604051631a7f3c3360e01b815260048101839052908390829060249082906001600160a01b03165afa8015610725576101e09184916110a3575b5001514210611068578082526007602052610c5e60408320541515611e09565b808252600760205260ff6002604084200154166110235780825260076020526001604083200154610c90811515611db2565b8183526007602052604083205460035482906001600160a01b031680151590869082610fcf575b505015610f32575060035460405163010b152760e61b815260048101859052908590829060249082906001600160a01b03165afa908115610554578591610f18575b50805115610f0457612710610819610d1e9361ffff6020808896015101511690611d81565b835b828110610e1a57505b828452600760205260408420600201805460ff1916600117905560045484906001600160a01b031680610d8c575b50507f6ae8ee960d83517f7fa993ad7a0e16e33d9655a23ff41eefc62bdb289c7a8e5f9160409182519182526020820152a280f35b60405160208101907529a1a922a2a724a723afa224a9aa2924a12aaa24a7a760511b825242603682015260368152610dc5605682611949565b51902090803b15610379576040516306cc173360e41b81529183918391829084908290610df6908c60048401611df0565b03925af1801561037d5715610d575781610e0f91611949565b61055f57835f610d57565b838552600760205284610e338260016040842001611e49565b60018060a01b0391549060031b1c1685825260096020526040822060018060a01b0382165f5260205260405f2082805260205260ff60408320541615610e7e575b5050600101610d20565b8582526009602090815260408084206001600160a01b038481165f908152918452908290208580529092528320805460ff1916600117905582541690813b1561037957849160248492604051948593849263aa67c91960e01b845260048401525af1801561037d5715610e745781610ef591611949565b610f0057845f610e74565b8480fd5b634e487b7160e01b85526032600452602485fd5b610f2c91503d8087833e610adb8183611949565b5f610cf9565b610f3b91611d94565b835b828110610f4a5750610d29565b8460018060a01b038154168582526007602052610f6d8360016040852001611e49565b905460039190911b1c6001600160a01b0316813b1561037957849160248492604051948593849263aa67c91960e01b845260048401525af1801561037d57610fba575b5050600101610f3d565b81610fc491611949565b610f0057845f610fb0565b909150602492506040519283809263010b152760e61b82528860048301525afa80156105545783918691611009575b50511515855f610cb7565b61101d91503d8088833e610adb8183611949565b5f610ffe565b60405162461bcd60e51b815260206004820152601d60248201527f53637265656e696e6720616c72656164792064697374726962757465640000006044820152606490fd5b60405162461bcd60e51b8152602060048201526013602482015272151c9a585b081b9bdd081e595d08195b991959606a1b6044820152606490fd5b6110b791503d8086833e6105468183611949565b5f610c3e565b50600154604051631a7f3c3360e01b815260048101839052908390829060249082906001600160a01b03165afa801561072557610c01918491611112575b50608001516001600160a01b031633149050610bf8565b61112691503d8086833e6105468183611949565b5f6110fb565b503461015c578060031936011261015c576006546040516001600160a01b039091168152602090f35b503461015c57602036600319011261015c5760016040602092600435815260078452200154604051908152f35b503461015c57602036600319011261015c57604060209160043581526007835220541515604051908152f35b503461015c57602036600319011261015c5760ff60026040602093600435815260078552200154166040519015158152f35b503461015c57602036600319011261015c576111fa611872565b61120f60018060a01b036006541633146118c8565b600580546001600160a01b0319166001600160a01b039290921691909117905580f35b503461015c578060031936011261015c576001546040516001600160a01b039091168152602090f35b503461015c578060031936011261015c576002546040516001600160a01b039091168152602090f35b5034610ab05761129336611888565b6003549091906001600160a01b03166112ad811515611901565b6005546001600160a01b0316331480156116cb575b6112cb90611bbd565b835f526007602052600360405f200160018060a01b0383165f5260205260ff60405f205416156116895760405163010b152760e61b815260048101859052905f82602481845afa91821561156e575f9261166d575b5061132d82518510611cfa565b602060405180926313981ba960e31b8252818061134e888b60048401611d40565b03915afa90811561156e575f9161163b575b508315908115611612575b50156115be57835f52600960205260405f2060018060a01b0383165f5260205260405f20835f5260205260ff60405f205416611579576127106113c76113e992865f52600760205261ffff602061080f8860405f205494611d59565b04845f526007602052600160405f200154906113e4821515611db2565b611d94565b5f8481526009602090815260408083206001600160a01b0380871685529083528184208785529092528220805460ff19166001179055905491929116803b15610ab05760405163aa67c91960e01b81526001600160a01b0383166004820152905f908290602490829087905af1801561156e57611559575b5060045485916001600160a01b03909116908161149c575b5050505f516020611e5f5f395f51905f529160409182519182526020820152a280f35b60405160208101917f494e444956494455414c5f4d494c4553544f4e455f444953545249425554494f8352602760f91b604083015260018060601b03199060601b166041820152856055820152426075820152607581526114fe609582611949565b51902090803b15610379576040516306cc173360e41b8152918391839182908490829061152f908c60048401611df0565b03925af1801561037d57611544575b80611479565b8161154e91611949565b61055f57835f61153e565b6115669195505f90611949565b5f935f611461565b6040513d5f823e3d90fd5b60405162461bcd60e51b815260206004820152601f60248201527f416c7265616479207061696420666f722074686973206d696c6573746f6e65006044820152606490fd5b60405162461bcd60e51b815260206004820152602660248201527f4d696c6573746f6e65206e6f7420636f6d706c6574656420627920706172746960448201526518da5c185b9d60d21b6064820152608490fd5b6001850191508185116116275710155f61136b565b634e487b7160e01b5f52601160045260245ffd5b90506020813d602011611665575b8161165660209383611949565b81010312610ab057515f611360565b3d9150611649565b6116829192503d805f833e610adb8183611949565b905f611320565b60405162461bcd60e51b815260206004820152601a60248201527914185c9d1a58da5c185b9d081b9bdd081c9959da5cdd195c995960321b6044820152606490fd5b50600154604051631a7f3c3360e01b815260048101869052905f90829060249082906001600160a01b03165afa801561156e576112cb915f91611720575b50608001516001600160a01b0316331490506112c2565b61173491503d805f833e6105468183611949565b5f611709565b34610ab0576020366003190112610ab0576004355f526007602052602060405f2054604051908152f35b34610ab0576020366003190112610ab05761177d611872565b61179260018060a01b036006541633146118c8565b600380546001600160a01b0319166001600160a01b0392909216919091179055005b34610ab0575f366003190112610ab0576003546040516001600160a01b039091168152602090f35b34610ab0575f366003190112610ab0576004546040516001600160a01b039091168152602090f35b34610ab0575f366003190112610ab0576005546040516001600160a01b039091168152602090f35b34610ab05761183a36611888565b915f52600960205260405f209060018060a01b03165f5260205260405f20905f52602052602060ff60405f2054166040519015158152f35b600435906001600160a01b0382168203610ab057565b6060906003190112610ab057600435906024356001600160a01b0381168103610ab0579060443590565b6040906003190112610ab0576004359060243590565b156118cf57565b60405162461bcd60e51b815260206004820152600a60248201526927b7363c9037bbb732b960b11b6044820152606490fd5b1561190857565b60405162461bcd60e51b8152602060048201526019602482015278135a5b195cdd1bdb99481b585b9859d95c881b9bdd081cd95d603a1b6044820152606490fd5b601f909101601f19168101906001600160401b0382119082101761196c57604052565b634e487b7160e01b5f52604160045260245ffd5b9192916001600160401b03821161196c57604051916119a9601f8201601f191660200184611949565b829481845281830111610ab0578281602093845f96015e010152565b9080601f83011215610ab05781516119df92602001611980565b90565b51908115158203610ab057565b519060ff82168203610ab057565b519061ffff82168203610ab057565b602081830312610ab0578051906001600160401b038211610ab0570161020081830312610ab0576040519161020083016001600160401b0381118482101761196c5760405281516001600160401b038111610ab05781611a6d9184016119c5565b835260208201516001600160401b038111610ab05781611a8e9184016119c5565b602084015260408201516001600160401b038111610ab05781611ab29184016119c5565b60408401526060820151906001600160401b038211610ab057611ad69183016119c5565b60608301526080810151906001600160a01b0382168203610ab0576101e0916080840152611b0660a082016119e2565b60a0840152611b1760c082016119ef565b60c0840152611b2860e082016119ef565b60e0840152611b3a61010082016119e2565b610100840152611b4d61012082016119fd565b610120840152611b6061014082016119ef565b610140840152611b7361016082016119ef565b610160840152611b8661018082016119fd565b610180840152611b996101a082016119e2565b6101a0840152611bac6101c082016119e2565b6101c084015201516101e082015290565b15611bc457565b60405162461bcd60e51b815260206004820152600e60248201526d139bdd08185d5d1a1bdc9a5e995960921b6044820152606490fd5b602081830312610ab0578051906001600160401b038211610ab057019080601f83011215610ab0578151916001600160401b03831161196c578260051b9160405193611c496020850186611949565b845260208085019383010191818311610ab05760208101935b838510611c7157505050505090565b84516001600160401b038111610ab05782016060818503601f190112610ab05760405191606083016001600160401b0381118482101761196c576040526020820151926001600160401b038411610ab057606083611cd68860208098819801016119c5565b8352611ce4604082016119fd565b8584015201516040820152815201940193611c62565b15611d0157565b60405162461bcd60e51b8152602060048201526017602482015276092dcecc2d8d2c840dad2d8cae6e8dedcca40d2dcc8caf604b1b6044820152606490fd5b9081526001600160a01b03909116602082015260400190565b8051821015611d6d5760209160051b010190565b634e487b7160e01b5f52603260045260245ffd5b8181029291811591840414171561162757565b8115611d9e570490565b634e487b7160e01b5f52601260045260245ffd5b15611db957565b60405162461bcd60e51b815260206004820152600f60248201526e4e6f207061727469636970616e747360881b6044820152606490fd5b6040909392919360608101946005825260208201520152565b15611e1057565b60405162461bcd60e51b8152602060048201526011602482015270139bc81a5b98d95b9d1a5d99481c1bdbdb607a1b6044820152606490fd5b8054821015611d6d575f5260205f2001905f9056feab3d35e987d7948966df55f2917cc7abfc0e48b46f79c6b8603de3ee7c95aac7a164736f6c634300081b000a",
  "linkReferences": {},
  "deployedLinkReferences": {}
}