{
  "_format": "hh-sol-artifact-1",
  "contractName": "SponsorIncentiveVault",
  "sourceName": "contracts/SponsorIncentiveVault.sol",
  "abi": [
    {
      "inputs": [
        {
          "internalType": "address payable",
          "name": "_cETH",
          "type": "address"
        },
        {
          "internalType": "address",
          "name": "_trialManager",
          "type": "address"
        },
        {
          "internalType": "address",
          "name": "_eligibilityEngine",
          "type": "address"
        }
      ],
      "stateMutability": "nonpayable",
      "type": "constructor"
    },
    {
      "inputs": [],
      "name": "AlreadyCompleted",
      "type": "error"
    },
    {
      "inputs": [],
      "name": "AlreadyPaidForThisMilestone",
      "type": "error"
    },
    {
      "inputs": [],
      "name": "AmountTooLarge",
      "type": "error"
    },
    {
      "inputs": [],
      "name": "BatchMustBeSequential",
      "type": "error"
    },
    {
      "inputs": [],
      "name": "BlockedAfterReclaim",
      "type": "error"
    },
    {
      "inputs": [],
      "name": "ConfidentialFundingDisabled",
      "type": "error"
    },
    {
      "inputs": [],
      "name": "EncryptedPoolSizeOverflow",
      "type": "error"
    },
    {
      "inputs": [],
      "name": "FundingLockedAfterRegistrationBegan",
      "type": "error"
    },
    {
      "inputs": [],
      "name": "InsufficientETHInVault",
      "type": "error"
    },
    {
      "inputs": [],
      "name": "InvalidMilestoneIndex",
      "type": "error"
    },
    {
      "inputs": [],
      "name": "InvalidShortString",
      "type": "error"
    },
    {
      "inputs": [],
      "name": "InvalidStartIndex",
      "type": "error"
    },
    {
      "inputs": [],
      "name": "MilestoneAlreadyDistributed",
      "type": "error"
    },
    {
      "inputs": [],
      "name": "MilestoneManagerNotSet",
      "type": "error"
    },
    {
      "inputs": [],
      "name": "MilestoneNotCompletedByParticipant",
      "type": "error"
    },
    {
      "inputs": [],
      "name": "MilestoneNotDistributed",
      "type": "error"
    },
    {
      "inputs": [],
      "name": "MustSendETH",
      "type": "error"
    },
    {
      "inputs": [],
      "name": "NoEligibleParticipants",
      "type": "error"
    },
    {
      "inputs": [],
      "name": "NoIncentivePool",
      "type": "error"
    },
    {
      "inputs": [],
      "name": "NoMilestonesConfigured",
      "type": "error"
    },
    {
      "inputs": [],
      "name": "NoParticipants",
      "type": "error"
    },
    {
      "inputs": [],
      "name": "NotAuthorized",
      "type": "error"
    },
    {
      "inputs": [],
      "name": "NotProposedOwner",
      "type": "error"
    },
    {
      "inputs": [],
      "name": "NothingToReclaim",
      "type": "error"
    },
    {
      "inputs": [],
      "name": "OnlyOwner",
      "type": "error"
    },
    {
      "inputs": [],
      "name": "OnlySponsor",
      "type": "error"
    },
    {
      "inputs": [],
      "name": "OnlySponsorCanFund",
      "type": "error"
    },
    {
      "inputs": [],
      "name": "PaginationInProgress",
      "type": "error"
    },
    {
      "inputs": [],
      "name": "ParticipantNotRegistered",
      "type": "error"
    },
    {
      "inputs": [],
      "name": "PoolNotFunded",
      "type": "error"
    },
    {
      "inputs": [],
      "name": "ReentrancyGuardReentrantCall",
      "type": "error"
    },
    {
      "inputs": [],
      "name": "ScreeningAlreadyDistributed",
      "type": "error"
    },
    {
      "inputs": [
        {
          "internalType": "string",
          "name": "str",
          "type": "string"
        }
      ],
      "name": "StringTooLong",
      "type": "error"
    },
    {
      "inputs": [],
      "name": "TrialAlreadyEnded",
      "type": "error"
    },
    {
      "inputs": [],
      "name": "TrialDoesNotExist",
      "type": "error"
    },
    {
      "inputs": [],
      "name": "TrialNotActive",
      "type": "error"
    },
    {
      "inputs": [],
      "name": "TrialNotYetEnded",
      "type": "error"
    },
    {
      "inputs": [],
      "name": "UseDistributeForScreening",
      "type": "error"
    },
    {
      "inputs": [],
      "name": "UseDistributePartialPaginatedForLargePools",
      "type": "error"
    },
    {
      "inputs": [],
      "name": "UsePaginatedVersion",
      "type": "error"
    },
    {
      "inputs": [],
      "name": "ZamaProtocolUnsupported",
      "type": "error"
    },
    {
      "inputs": [],
      "name": "ZeroAddress",
      "type": "error"
    },
    {
      "anonymous": false,
      "inputs": [],
      "name": "EIP712DomainChanged",
      "type": "event"
    },
    {
      "anonymous": false,
      "inputs": [
        {
          "indexed": true,
          "internalType": "uint256",
          "name": "trialId",
          "type": "uint256"
        },
        {
          "indexed": true,
          "internalType": "address",
          "name": "sponsor",
          "type": "address"
        }
      ],
      "name": "IncentiveFunded",
      "type": "event"
    },
    {
      "anonymous": false,
      "inputs": [
        {
          "indexed": true,
          "internalType": "uint256",
          "name": "trialId",
          "type": "uint256"
        },
        {
          "indexed": false,
          "internalType": "uint256",
          "name": "milestoneIndex",
          "type": "uint256"
        }
      ],
      "name": "MilestoneDistributedPublicSignaled",
      "type": "event"
    },
    {
      "anonymous": false,
      "inputs": [
        {
          "indexed": true,
          "internalType": "uint256",
          "name": "trialId",
          "type": "uint256"
        },
        {
          "indexed": false,
          "internalType": "uint256",
          "name": "milestoneIndex",
          "type": "uint256"
        }
      ],
      "name": "MilestoneRewardsDistributed",
      "type": "event"
    },
    {
      "anonymous": false,
      "inputs": [
        {
          "indexed": true,
          "internalType": "address",
          "name": "newOwner",
          "type": "address"
        }
      ],
      "name": "OwnershipAccepted",
      "type": "event"
    },
    {
      "anonymous": false,
      "inputs": [
        {
          "indexed": true,
          "internalType": "address",
          "name": "proposedOwner",
          "type": "address"
        }
      ],
      "name": "OwnershipProposed",
      "type": "event"
    },
    {
      "anonymous": false,
      "inputs": [
        {
          "indexed": true,
          "internalType": "uint256",
          "name": "trialId",
          "type": "uint256"
        },
        {
          "indexed": true,
          "internalType": "uint256",
          "name": "milestoneIndex",
          "type": "uint256"
        },
        {
          "indexed": true,
          "internalType": "address",
          "name": "participant",
          "type": "address"
        },
        {
          "indexed": false,
          "internalType": "bytes",
          "name": "reason",
          "type": "bytes"
        }
      ],
      "name": "ParticipantCreditFailed",
      "type": "event"
    },
    {
      "anonymous": false,
      "inputs": [
        {
          "indexed": true,
          "internalType": "uint256",
          "name": "trialId",
          "type": "uint256"
        },
        {
          "indexed": false,
          "internalType": "uint256",
          "name": "milestoneIndex",
          "type": "uint256"
        }
      ],
      "name": "RewardDustSkipped",
      "type": "event"
    },
    {
      "anonymous": false,
      "inputs": [
        {
          "indexed": true,
          "internalType": "uint256",
          "name": "trialId",
          "type": "uint256"
        }
      ],
      "name": "RewardsDistributed",
      "type": "event"
    },
    {
      "anonymous": false,
      "inputs": [
        {
          "indexed": true,
          "internalType": "address",
          "name": "recipient",
          "type": "address"
        }
      ],
      "name": "StrandedCethRecovered",
      "type": "event"
    },
    {
      "anonymous": false,
      "inputs": [
        {
          "indexed": true,
          "internalType": "uint256",
          "name": "trialId",
          "type": "uint256"
        }
      ],
      "name": "TrialPoolSizeMadePublic",
      "type": "event"
    },
    {
      "inputs": [],
      "name": "CHALLENGE_WINDOW",
      "outputs": [
        {
          "internalType": "uint256",
          "name": "",
          "type": "uint256"
        }
      ],
      "stateMutability": "view",
      "type": "function"
    },
    {
      "inputs": [],
      "name": "DISTRIBUTE_BATCH_SIZE",
      "outputs": [
        {
          "internalType": "uint256",
          "name": "",
          "type": "uint256"
        }
      ],
      "stateMutability": "view",
      "type": "function"
    },
    {
      "inputs": [],
      "name": "MAX_PARTICIPANTS",
      "outputs": [
        {
          "internalType": "uint256",
          "name": "",
          "type": "uint256"
        }
      ],
      "stateMutability": "view",
      "type": "function"
    },
    {
      "inputs": [],
      "name": "PARTICIPANT_CLAIM_WINDOW",
      "outputs": [
        {
          "internalType": "uint256",
          "name": "",
          "type": "uint256"
        }
      ],
      "stateMutability": "view",
      "type": "function"
    },
    {
      "inputs": [],
      "name": "READER_CHANGE_DELAY",
      "outputs": [
        {
          "internalType": "uint256",
          "name": "",
          "type": "uint256"
        }
      ],
      "stateMutability": "view",
      "type": "function"
    },
    {
      "inputs": [],
      "name": "RECLAIM_GRACE_PERIOD",
      "outputs": [
        {
          "internalType": "uint256",
          "name": "",
          "type": "uint256"
        }
      ],
      "stateMutability": "view",
      "type": "function"
    },
    {
      "inputs": [
        {
          "internalType": "uint256",
          "name": "",
          "type": "uint256"
        }
      ],
      "name": "abandonedReclaimOpenedAt",
      "outputs": [
        {
          "internalType": "uint256",
          "name": "",
          "type": "uint256"
        }
      ],
      "stateMutability": "view",
      "type": "function"
    },
    {
      "inputs": [],
      "name": "acceptOwnership",
      "outputs": [],
      "stateMutability": "nonpayable",
      "type": "function"
    },
    {
      "inputs": [],
      "name": "applyAutomationContract",
      "outputs": [],
      "stateMutability": "nonpayable",
      "type": "function"
    },
    {
      "inputs": [],
      "name": "applyDataAccessLog",
      "outputs": [],
      "stateMutability": "nonpayable",
      "type": "function"
    },
    {
      "inputs": [],
      "name": "applyMilestoneManager",
      "outputs": [],
      "stateMutability": "nonpayable",
      "type": "function"
    },
    {
      "inputs": [],
      "name": "applySponsorRegistry",
      "outputs": [],
      "stateMutability": "nonpayable",
      "type": "function"
    },
    {
      "inputs": [],
      "name": "automationContract",
      "outputs": [
        {
          "internalType": "address",
          "name": "",
          "type": "address"
        }
      ],
      "stateMutability": "view",
      "type": "function"
    },
    {
      "inputs": [],
      "name": "automationContractChangeEta",
      "outputs": [
        {
          "internalType": "uint256",
          "name": "",
          "type": "uint256"
        }
      ],
      "stateMutability": "view",
      "type": "function"
    },
    {
      "inputs": [],
      "name": "cETH",
      "outputs": [
        {
          "internalType": "contract ConfidentialETH",
          "name": "",
          "type": "address"
        }
      ],
      "stateMutability": "view",
      "type": "function"
    },
    {
      "inputs": [
        {
          "internalType": "bytes32",
          "name": "",
          "type": "bytes32"
        }
      ],
      "name": "claimAuthUsed",
      "outputs": [
        {
          "internalType": "bool",
          "name": "",
          "type": "bool"
        }
      ],
      "stateMutability": "view",
      "type": "function"
    },
    {
      "inputs": [
        {
          "internalType": "uint256",
          "name": "_trialId",
          "type": "uint256"
        },
        {
          "internalType": "uint256",
          "name": "_nullifier",
          "type": "uint256"
        },
        {
          "internalType": "address",
          "name": "_destination",
          "type": "address"
        },
        {
          "internalType": "externalEuint64",
          "name": "encryptedUnits",
          "type": "bytes32"
        },
        {
          "internalType": "bytes",
          "name": "inputProof",
          "type": "bytes"
        },
        {
          "internalType": "uint256",
          "name": "_withdrawToNonce",
          "type": "uint256"
        },
        {
          "internalType": "uint256",
          "name": "_withdrawToDeadline",
          "type": "uint256"
        },
        {
          "internalType": "bytes",
          "name": "_withdrawToSignature",
          "type": "bytes"
        }
      ],
      "name": "claimParticipantRewards",
      "outputs": [],
      "stateMutability": "nonpayable",
      "type": "function"
    },
    {
      "inputs": [
        {
          "internalType": "uint256",
          "name": "_trialId",
          "type": "uint256"
        },
        {
          "internalType": "uint256",
          "name": "_nullifier",
          "type": "uint256"
        },
        {
          "internalType": "address",
          "name": "_permitHolder",
          "type": "address"
        },
        {
          "internalType": "address",
          "name": "_destination",
          "type": "address"
        },
        {
          "internalType": "uint256",
          "name": "_units",
          "type": "uint256"
        },
        {
          "internalType": "bytes32",
          "name": "_encryptedAmountCommitment",
          "type": "bytes32"
        },
        {
          "internalType": "externalEuint64",
          "name": "encryptedUnits",
          "type": "bytes32"
        },
        {
          "internalType": "bytes",
          "name": "inputProof",
          "type": "bytes"
        },
        {
          "internalType": "uint256",
          "name": "_nonce",
          "type": "uint256"
        },
        {
          "internalType": "uint256",
          "name": "_deadline",
          "type": "uint256"
        },
        {
          "internalType": "bytes",
          "name": "_signature",
          "type": "bytes"
        },
        {
          "internalType": "uint256",
          "name": "_withdrawToNonce",
          "type": "uint256"
        },
        {
          "internalType": "uint256",
          "name": "_withdrawToDeadline",
          "type": "uint256"
        },
        {
          "internalType": "bytes",
          "name": "_withdrawToSignature",
          "type": "bytes"
        }
      ],
      "name": "claimParticipantRewardsFor",
      "outputs": [],
      "stateMutability": "nonpayable",
      "type": "function"
    },
    {
      "inputs": [
        {
          "internalType": "uint256",
          "name": "_trialId",
          "type": "uint256"
        }
      ],
      "name": "claimReclaimed",
      "outputs": [],
      "stateMutability": "nonpayable",
      "type": "function"
    },
    {
      "inputs": [],
      "name": "confidentialFundingAccountingReady",
      "outputs": [
        {
          "internalType": "bool",
          "name": "",
          "type": "bool"
        }
      ],
      "stateMutability": "view",
      "type": "function"
    },
    {
      "inputs": [],
      "name": "confidentialFundingEnabled",
      "outputs": [
        {
          "internalType": "bool",
          "name": "",
          "type": "bool"
        }
      ],
      "stateMutability": "view",
      "type": "function"
    },
    {
      "inputs": [],
      "name": "confidentialProtocolId",
      "outputs": [
        {
          "internalType": "uint256",
          "name": "",
          "type": "uint256"
        }
      ],
      "stateMutability": "view",
      "type": "function"
    },
    {
      "inputs": [
        {
          "internalType": "uint256",
          "name": "_trialId",
          "type": "uint256"
        },
        {
          "internalType": "uint256",
          "name": "_milestoneIndex",
          "type": "uint256"
        },
        {
          "internalType": "bytes",
          "name": "cleartexts",
          "type": "bytes"
        },
        {
          "internalType": "bytes",
          "name": "decryptionProof",
          "type": "bytes"
        }
      ],
      "name": "confirmReceipt",
      "outputs": [],
      "stateMutability": "nonpayable",
      "type": "function"
    },
    {
      "inputs": [
        {
          "internalType": "uint256",
          "name": "",
          "type": "uint256"
        },
        {
          "internalType": "address",
          "name": "",
          "type": "address"
        },
        {
          "internalType": "uint256",
          "name": "",
          "type": "uint256"
        }
      ],
      "name": "confirmedPayout",
      "outputs": [
        {
          "internalType": "bool",
          "name": "",
          "type": "bool"
        }
      ],
      "stateMutability": "view",
      "type": "function"
    },
    {
      "inputs": [
        {
          "internalType": "uint256",
          "name": "trialId",
          "type": "uint256"
        },
        {
          "internalType": "uint256",
          "name": "milestoneIndex",
          "type": "uint256"
        },
        {
          "internalType": "address",
          "name": "participant",
          "type": "address"
        },
        {
          "internalType": "uint256",
          "name": "amountWei",
          "type": "uint256"
        }
      ],
      "name": "creditParticipantRewardForBatch",
      "outputs": [
        {
          "internalType": "uint256",
          "name": "creditedWei",
          "type": "uint256"
        }
      ],
      "stateMutability": "nonpayable",
      "type": "function"
    },
    {
      "inputs": [],
      "name": "dataAccessLog",
      "outputs": [
        {
          "internalType": "contract IVaultDataAccessLog",
          "name": "",
          "type": "address"
        }
      ],
      "stateMutability": "view",
      "type": "function"
    },
    {
      "inputs": [],
      "name": "dataAccessLogChangeEta",
      "outputs": [
        {
          "internalType": "uint256",
          "name": "",
          "type": "uint256"
        }
      ],
      "stateMutability": "view",
      "type": "function"
    },
    {
      "inputs": [
        {
          "internalType": "uint256",
          "name": "_trialId",
          "type": "uint256"
        }
      ],
      "name": "distribute",
      "outputs": [],
      "stateMutability": "nonpayable",
      "type": "function"
    },
    {
      "inputs": [
        {
          "internalType": "uint256",
          "name": "_trialId",
          "type": "uint256"
        },
        {
          "internalType": "address",
          "name": "_participant",
          "type": "address"
        },
        {
          "internalType": "uint256",
          "name": "_milestoneIndex",
          "type": "uint256"
        }
      ],
      "name": "distributeMilestoneToParticipant",
      "outputs": [],
      "stateMutability": "nonpayable",
      "type": "function"
    },
    {
      "inputs": [
        {
          "internalType": "uint256",
          "name": "_trialId",
          "type": "uint256"
        },
        {
          "internalType": "uint256",
          "name": "_milestoneIndex",
          "type": "uint256"
        }
      ],
      "name": "distributePartial",
      "outputs": [],
      "stateMutability": "nonpayable",
      "type": "function"
    },
    {
      "inputs": [
        {
          "internalType": "uint256",
          "name": "_trialId",
          "type": "uint256"
        },
        {
          "internalType": "uint256",
          "name": "_milestoneIndex",
          "type": "uint256"
        },
        {
          "internalType": "uint256",
          "name": "_startIndex",
          "type": "uint256"
        },
        {
          "internalType": "uint256",
          "name": "_batchSize",
          "type": "uint256"
        }
      ],
      "name": "distributePartialPaginated",
      "outputs": [],
      "stateMutability": "nonpayable",
      "type": "function"
    },
    {
      "inputs": [],
      "name": "eip712Domain",
      "outputs": [
        {
          "internalType": "bytes1",
          "name": "fields",
          "type": "bytes1"
        },
        {
          "internalType": "string",
          "name": "name",
          "type": "string"
        },
        {
          "internalType": "string",
          "name": "version",
          "type": "string"
        },
        {
          "internalType": "uint256",
          "name": "chainId",
          "type": "uint256"
        },
        {
          "internalType": "address",
          "name": "verifyingContract",
          "type": "address"
        },
        {
          "internalType": "bytes32",
          "name": "salt",
          "type": "bytes32"
        },
        {
          "internalType": "uint256[]",
          "name": "extensions",
          "type": "uint256[]"
        }
      ],
      "stateMutability": "view",
      "type": "function"
    },
    {
      "inputs": [],
      "name": "eligibilityEngine",
      "outputs": [
        {
          "internalType": "contract IVaultEligibilityEngine",
          "name": "",
          "type": "address"
        }
      ],
      "stateMutability": "view",
      "type": "function"
    },
    {
      "inputs": [
        {
          "internalType": "uint256",
          "name": "trialId",
          "type": "uint256"
        },
        {
          "internalType": "uint256",
          "name": "milestoneIndex",
          "type": "uint256"
        },
        {
          "internalType": "address",
          "name": "participant",
          "type": "address"
        },
        {
          "internalType": "bytes",
          "name": "reason",
          "type": "bytes"
        }
      ],
      "name": "emitParticipantCreditFailed",
      "outputs": [],
      "stateMutability": "nonpayable",
      "type": "function"
    },
    {
      "inputs": [
        {
          "internalType": "uint256",
          "name": "_trialId",
          "type": "uint256"
        },
        {
          "internalType": "string[]",
          "name": "_names",
          "type": "string[]"
        },
        {
          "internalType": "uint16[]",
          "name": "_weights",
          "type": "uint16[]"
        },
        {
          "internalType": "uint256[]",
          "name": "_deadlines",
          "type": "uint256[]"
        }
      ],
      "name": "encodeConfidentialFundAndMilestonesData",
      "outputs": [
        {
          "internalType": "bytes",
          "name": "",
          "type": "bytes"
        }
      ],
      "stateMutability": "pure",
      "type": "function"
    },
    {
      "inputs": [
        {
          "internalType": "uint256",
          "name": "",
          "type": "uint256"
        },
        {
          "internalType": "address",
          "name": "",
          "type": "address"
        },
        {
          "internalType": "uint256",
          "name": "",
          "type": "uint256"
        }
      ],
      "name": "entitlementStaged",
      "outputs": [
        {
          "internalType": "bool",
          "name": "",
          "type": "bool"
        }
      ],
      "stateMutability": "view",
      "type": "function"
    },
    {
      "inputs": [
        {
          "internalType": "uint256",
          "name": "_trialId",
          "type": "uint256"
        }
      ],
      "name": "fundTrial",
      "outputs": [],
      "stateMutability": "payable",
      "type": "function"
    },
    {
      "inputs": [
        {
          "internalType": "uint256",
          "name": "_trialId",
          "type": "uint256"
        },
        {
          "internalType": "string[]",
          "name": "_names",
          "type": "string[]"
        },
        {
          "internalType": "uint16[]",
          "name": "_weights",
          "type": "uint16[]"
        },
        {
          "internalType": "uint256[]",
          "name": "_deadlines",
          "type": "uint256[]"
        }
      ],
      "name": "fundTrialAndSetMilestones",
      "outputs": [],
      "stateMutability": "payable",
      "type": "function"
    },
    {
      "inputs": [
        {
          "internalType": "uint256",
          "name": "_trialId",
          "type": "uint256"
        }
      ],
      "name": "getConfirmedDistributedWei",
      "outputs": [
        {
          "internalType": "uint256",
          "name": "",
          "type": "uint256"
        }
      ],
      "stateMutability": "view",
      "type": "function"
    },
    {
      "inputs": [
        {
          "internalType": "uint256",
          "name": "_trialId",
          "type": "uint256"
        }
      ],
      "name": "getEncryptedPoolSize",
      "outputs": [
        {
          "internalType": "euint64",
          "name": "",
          "type": "bytes32"
        }
      ],
      "stateMutability": "view",
      "type": "function"
    },
    {
      "inputs": [
        {
          "internalType": "uint256",
          "name": "_trialId",
          "type": "uint256"
        }
      ],
      "name": "getParticipantCount",
      "outputs": [
        {
          "internalType": "uint256",
          "name": "",
          "type": "uint256"
        }
      ],
      "stateMutability": "view",
      "type": "function"
    },
    {
      "inputs": [
        {
          "internalType": "uint256",
          "name": "_trialId",
          "type": "uint256"
        },
        {
          "internalType": "address",
          "name": "_participant",
          "type": "address"
        },
        {
          "internalType": "uint256",
          "name": "_milestoneIndex",
          "type": "uint256"
        }
      ],
      "name": "getStagedEntitlement",
      "outputs": [
        {
          "internalType": "ebool",
          "name": "",
          "type": "bytes32"
        }
      ],
      "stateMutability": "view",
      "type": "function"
    },
    {
      "inputs": [
        {
          "internalType": "uint256",
          "name": "_trialId",
          "type": "uint256"
        },
        {
          "internalType": "address",
          "name": "_participant",
          "type": "address"
        },
        {
          "internalType": "uint256",
          "name": "_milestoneIndex",
          "type": "uint256"
        }
      ],
      "name": "getStagedShareWei",
      "outputs": [
        {
          "internalType": "uint256",
          "name": "",
          "type": "uint256"
        }
      ],
      "stateMutability": "view",
      "type": "function"
    },
    {
      "inputs": [
        {
          "internalType": "uint256",
          "name": "_trialId",
          "type": "uint256"
        }
      ],
      "name": "getTotalDeposited",
      "outputs": [
        {
          "internalType": "uint256",
          "name": "",
          "type": "uint256"
        }
      ],
      "stateMutability": "view",
      "type": "function"
    },
    {
      "inputs": [
        {
          "internalType": "uint256",
          "name": "_trialId",
          "type": "uint256"
        }
      ],
      "name": "isDistributed",
      "outputs": [
        {
          "internalType": "bool",
          "name": "",
          "type": "bool"
        }
      ],
      "stateMutability": "view",
      "type": "function"
    },
    {
      "inputs": [
        {
          "internalType": "uint256",
          "name": "_trialId",
          "type": "uint256"
        },
        {
          "internalType": "address",
          "name": "_participant",
          "type": "address"
        }
      ],
      "name": "isParticipantRegistered",
      "outputs": [
        {
          "internalType": "bool",
          "name": "",
          "type": "bool"
        }
      ],
      "stateMutability": "view",
      "type": "function"
    },
    {
      "inputs": [
        {
          "internalType": "uint256",
          "name": "_trialId",
          "type": "uint256"
        }
      ],
      "name": "isPoolFunded",
      "outputs": [
        {
          "internalType": "bool",
          "name": "",
          "type": "bool"
        }
      ],
      "stateMutability": "view",
      "type": "function"
    },
    {
      "inputs": [
        {
          "internalType": "uint256",
          "name": "",
          "type": "uint256"
        },
        {
          "internalType": "uint256",
          "name": "",
          "type": "uint256"
        }
      ],
      "name": "lastPaidParticipantIndex",
      "outputs": [
        {
          "internalType": "uint256",
          "name": "",
          "type": "uint256"
        }
      ],
      "stateMutability": "view",
      "type": "function"
    },
    {
      "inputs": [
        {
          "internalType": "uint256",
          "name": "",
          "type": "uint256"
        },
        {
          "internalType": "uint256",
          "name": "",
          "type": "uint256"
        }
      ],
      "name": "lastProcessedIndex",
      "outputs": [
        {
          "internalType": "uint256",
          "name": "",
          "type": "uint256"
        }
      ],
      "stateMutability": "view",
      "type": "function"
    },
    {
      "inputs": [
        {
          "internalType": "uint256",
          "name": "_trialId",
          "type": "uint256"
        }
      ],
      "name": "makeEncryptedPoolSizePublic",
      "outputs": [],
      "stateMutability": "nonpayable",
      "type": "function"
    },
    {
      "inputs": [
        {
          "internalType": "uint256",
          "name": "",
          "type": "uint256"
        },
        {
          "internalType": "uint256",
          "name": "",
          "type": "uint256"
        }
      ],
      "name": "milestoneDistributed",
      "outputs": [
        {
          "internalType": "bool",
          "name": "",
          "type": "bool"
        }
      ],
      "stateMutability": "view",
      "type": "function"
    },
    {
      "inputs": [
        {
          "internalType": "uint256",
          "name": "",
          "type": "uint256"
        },
        {
          "internalType": "uint256",
          "name": "",
          "type": "uint256"
        }
      ],
      "name": "milestoneDistributedWei",
      "outputs": [
        {
          "internalType": "uint256",
          "name": "",
          "type": "uint256"
        }
      ],
      "stateMutability": "view",
      "type": "function"
    },
    {
      "inputs": [],
      "name": "milestoneManager",
      "outputs": [
        {
          "internalType": "contract IVaultMilestoneManager",
          "name": "",
          "type": "address"
        }
      ],
      "stateMutability": "view",
      "type": "function"
    },
    {
      "inputs": [],
      "name": "milestoneManagerChangeEta",
      "outputs": [
        {
          "internalType": "uint256",
          "name": "",
          "type": "uint256"
        }
      ],
      "stateMutability": "view",
      "type": "function"
    },
    {
      "inputs": [
        {
          "internalType": "uint256",
          "name": "",
          "type": "uint256"
        },
        {
          "internalType": "uint256",
          "name": "",
          "type": "uint256"
        }
      ],
      "name": "milestoneRemainderPaid",
      "outputs": [
        {
          "internalType": "bool",
          "name": "",
          "type": "bool"
        }
      ],
      "stateMutability": "view",
      "type": "function"
    },
    {
      "inputs": [
        {
          "internalType": "address",
          "name": "",
          "type": "address"
        },
        {
          "internalType": "address",
          "name": "from",
          "type": "address"
        },
        {
          "internalType": "euint64",
          "name": "amount",
          "type": "bytes32"
        },
        {
          "internalType": "bytes",
          "name": "data",
          "type": "bytes"
        }
      ],
      "name": "onConfidentialTransferReceived",
      "outputs": [
        {
          "internalType": "ebool",
          "name": "",
          "type": "bytes32"
        }
      ],
      "stateMutability": "nonpayable",
      "type": "function"
    },
    {
      "inputs": [],
      "name": "owner",
      "outputs": [
        {
          "internalType": "address",
          "name": "",
          "type": "address"
        }
      ],
      "stateMutability": "view",
      "type": "function"
    },
    {
      "inputs": [
        {
          "internalType": "uint256",
          "name": "",
          "type": "uint256"
        },
        {
          "internalType": "uint256",
          "name": "",
          "type": "uint256"
        }
      ],
      "name": "paginationStarted",
      "outputs": [
        {
          "internalType": "bool",
          "name": "",
          "type": "bool"
        }
      ],
      "stateMutability": "view",
      "type": "function"
    },
    {
      "inputs": [
        {
          "internalType": "uint256",
          "name": "",
          "type": "uint256"
        },
        {
          "internalType": "address",
          "name": "",
          "type": "address"
        },
        {
          "internalType": "uint256",
          "name": "",
          "type": "uint256"
        }
      ],
      "name": "participantMilestonePaid",
      "outputs": [
        {
          "internalType": "bool",
          "name": "",
          "type": "bool"
        }
      ],
      "stateMutability": "view",
      "type": "function"
    },
    {
      "inputs": [],
      "name": "pendingAutomationContract",
      "outputs": [
        {
          "internalType": "address",
          "name": "",
          "type": "address"
        }
      ],
      "stateMutability": "view",
      "type": "function"
    },
    {
      "inputs": [],
      "name": "pendingDataAccessLog",
      "outputs": [
        {
          "internalType": "address",
          "name": "",
          "type": "address"
        }
      ],
      "stateMutability": "view",
      "type": "function"
    },
    {
      "inputs": [],
      "name": "pendingMilestoneManager",
      "outputs": [
        {
          "internalType": "address",
          "name": "",
          "type": "address"
        }
      ],
      "stateMutability": "view",
      "type": "function"
    },
    {
      "inputs": [],
      "name": "pendingOwner",
      "outputs": [
        {
          "internalType": "address",
          "name": "",
          "type": "address"
        }
      ],
      "stateMutability": "view",
      "type": "function"
    },
    {
      "inputs": [
        {
          "internalType": "uint256",
          "name": "",
          "type": "uint256"
        }
      ],
      "name": "pendingReclaimRecipient",
      "outputs": [
        {
          "internalType": "address",
          "name": "",
          "type": "address"
        }
      ],
      "stateMutability": "view",
      "type": "function"
    },
    {
      "inputs": [
        {
          "internalType": "uint256",
          "name": "",
          "type": "uint256"
        }
      ],
      "name": "pendingReclaimWei",
      "outputs": [
        {
          "internalType": "uint256",
          "name": "",
          "type": "uint256"
        }
      ],
      "stateMutability": "view",
      "type": "function"
    },
    {
      "inputs": [],
      "name": "pendingSponsorRegistry",
      "outputs": [
        {
          "internalType": "address",
          "name": "",
          "type": "address"
        }
      ],
      "stateMutability": "view",
      "type": "function"
    },
    {
      "inputs": [
        {
          "internalType": "uint256",
          "name": "_trialId",
          "type": "uint256"
        },
        {
          "internalType": "uint256",
          "name": "_milestoneIndex",
          "type": "uint256"
        }
      ],
      "name": "prepareEntitlementProof",
      "outputs": [
        {
          "internalType": "bytes32",
          "name": "",
          "type": "bytes32"
        }
      ],
      "stateMutability": "nonpayable",
      "type": "function"
    },
    {
      "inputs": [
        {
          "internalType": "address",
          "name": "_newOwner",
          "type": "address"
        }
      ],
      "name": "proposeOwnership",
      "outputs": [],
      "stateMutability": "nonpayable",
      "type": "function"
    },
    {
      "inputs": [
        {
          "internalType": "uint256",
          "name": "_trialId",
          "type": "uint256"
        },
        {
          "internalType": "uint256",
          "name": "_milestoneIndex",
          "type": "uint256"
        }
      ],
      "name": "pruneUnconfirmedSlots",
      "outputs": [],
      "stateMutability": "nonpayable",
      "type": "function"
    },
    {
      "inputs": [
        {
          "internalType": "uint256",
          "name": "_trialId",
          "type": "uint256"
        }
      ],
      "name": "reclaimAbandonedToOwner",
      "outputs": [],
      "stateMutability": "nonpayable",
      "type": "function"
    },
    {
      "inputs": [
        {
          "internalType": "uint256",
          "name": "",
          "type": "uint256"
        }
      ],
      "name": "reclaimFinalized",
      "outputs": [
        {
          "internalType": "bool",
          "name": "",
          "type": "bool"
        }
      ],
      "stateMutability": "view",
      "type": "function"
    },
    {
      "inputs": [
        {
          "internalType": "uint256",
          "name": "_trialId",
          "type": "uint256"
        }
      ],
      "name": "reclaimUndistributed",
      "outputs": [],
      "stateMutability": "nonpayable",
      "type": "function"
    },
    {
      "inputs": [
        {
          "internalType": "address",
          "name": "_recipient",
          "type": "address"
        }
      ],
      "name": "recoverStrandedCeth",
      "outputs": [],
      "stateMutability": "nonpayable",
      "type": "function"
    },
    {
      "inputs": [
        {
          "internalType": "uint256",
          "name": "_trialId",
          "type": "uint256"
        },
        {
          "internalType": "uint256",
          "name": "_nullifier",
          "type": "uint256"
        }
      ],
      "name": "registerAnonymousParticipant",
      "outputs": [],
      "stateMutability": "nonpayable",
      "type": "function"
    },
    {
      "inputs": [
        {
          "internalType": "uint256",
          "name": "_trialId",
          "type": "uint256"
        },
        {
          "internalType": "uint256",
          "name": "_nullifier",
          "type": "uint256"
        },
        {
          "internalType": "address",
          "name": "_permitHolder",
          "type": "address"
        },
        {
          "internalType": "uint256",
          "name": "_nonce",
          "type": "uint256"
        },
        {
          "internalType": "uint256",
          "name": "_deadline",
          "type": "uint256"
        },
        {
          "internalType": "bytes",
          "name": "_signature",
          "type": "bytes"
        }
      ],
      "name": "registerAnonymousParticipantFor",
      "outputs": [],
      "stateMutability": "nonpayable",
      "type": "function"
    },
    {
      "inputs": [
        {
          "internalType": "uint256",
          "name": "",
          "type": "uint256"
        },
        {
          "internalType": "address",
          "name": "",
          "type": "address"
        }
      ],
      "name": "registerParticipant",
      "outputs": [],
      "stateMutability": "pure",
      "type": "function"
    },
    {
      "inputs": [
        {
          "internalType": "uint256",
          "name": "_trialId",
          "type": "uint256"
        }
      ],
      "name": "requestEncryptedPoolAccess",
      "outputs": [],
      "stateMutability": "nonpayable",
      "type": "function"
    },
    {
      "inputs": [
        {
          "internalType": "uint256",
          "name": "_trialId",
          "type": "uint256"
        },
        {
          "internalType": "uint256",
          "name": "_milestoneIndex",
          "type": "uint256"
        }
      ],
      "name": "resetPaginationState",
      "outputs": [],
      "stateMutability": "nonpayable",
      "type": "function"
    },
    {
      "inputs": [
        {
          "internalType": "address",
          "name": "_automation",
          "type": "address"
        }
      ],
      "name": "scheduleAutomationContract",
      "outputs": [],
      "stateMutability": "nonpayable",
      "type": "function"
    },
    {
      "inputs": [
        {
          "internalType": "address",
          "name": "_dataAccessLog",
          "type": "address"
        }
      ],
      "name": "scheduleDataAccessLog",
      "outputs": [],
      "stateMutability": "nonpayable",
      "type": "function"
    },
    {
      "inputs": [
        {
          "internalType": "address",
          "name": "_milestoneManager",
          "type": "address"
        }
      ],
      "name": "scheduleMilestoneManager",
      "outputs": [],
      "stateMutability": "nonpayable",
      "type": "function"
    },
    {
      "inputs": [
        {
          "internalType": "address",
          "name": "_registry",
          "type": "address"
        }
      ],
      "name": "scheduleSponsorRegistry",
      "outputs": [],
      "stateMutability": "nonpayable",
      "type": "function"
    },
    {
      "inputs": [
        {
          "internalType": "address",
          "name": "_automation",
          "type": "address"
        }
      ],
      "name": "setAutomationContract",
      "outputs": [],
      "stateMutability": "nonpayable",
      "type": "function"
    },
    {
      "inputs": [
        {
          "internalType": "address",
          "name": "_dataAccessLog",
          "type": "address"
        }
      ],
      "name": "setDataAccessLog",
      "outputs": [],
      "stateMutability": "nonpayable",
      "type": "function"
    },
    {
      "inputs": [
        {
          "internalType": "address",
          "name": "_milestoneManager",
          "type": "address"
        }
      ],
      "name": "setMilestoneManager",
      "outputs": [],
      "stateMutability": "nonpayable",
      "type": "function"
    },
    {
      "inputs": [
        {
          "internalType": "address",
          "name": "_registry",
          "type": "address"
        }
      ],
      "name": "setSponsorRegistry",
      "outputs": [],
      "stateMutability": "nonpayable",
      "type": "function"
    },
    {
      "inputs": [
        {
          "internalType": "uint256",
          "name": "_trialId",
          "type": "uint256"
        },
        {
          "internalType": "uint256",
          "name": "_milestoneIndex",
          "type": "uint256"
        }
      ],
      "name": "signalMilestoneDistributed",
      "outputs": [],
      "stateMutability": "nonpayable",
      "type": "function"
    },
    {
      "inputs": [],
      "name": "sponsorRegistry",
      "outputs": [
        {
          "internalType": "contract IVaultSponsorRegistry",
          "name": "",
          "type": "address"
        }
      ],
      "stateMutability": "view",
      "type": "function"
    },
    {
      "inputs": [],
      "name": "sponsorRegistryChangeEta",
      "outputs": [
        {
          "internalType": "uint256",
          "name": "",
          "type": "uint256"
        }
      ],
      "stateMutability": "view",
      "type": "function"
    },
    {
      "inputs": [],
      "name": "trialManager",
      "outputs": [
        {
          "internalType": "contract IVaultTrialManager",
          "name": "",
          "type": "address"
        }
      ],
      "stateMutability": "view",
      "type": "function"
    },
    {
      "stateMutability": "payable",
      "type": "receive"
    }
  ],
  "bytecode": "0x61016080604052346103d457606081615f1580380380916100208285610407565b8339810103126103d45780516001600160a01b03811691908290036103d45761005760406100506020840161042a565b920161042a565b91604051610066604082610407565b601e815260208101907f4d65645661756c742053706f6e736f72496e63656e746976655661756c7400008252604051916100a1604084610407565b600183526020830191603160f81b83526100b961070c565b50466001036102e8576100ca61070c565b506040516100d7816103d8565b73ca2e8f1f656cd25c01f05d0b243ab1ecd4a8ffb6815273d82385dada1ae3e969447f20a3164f6213100e7560208201527377627828a55156b04ac0dc0eb30467f1a552bb0360408201525b80517f9e7b61f58c47dc699ac88507c4f5bb9f121c03808c5676a8078fe583e464970080546001600160a01b03199081166001600160a01b039384161790915560208301517f9e7b61f58c47dc699ac88507c4f5bb9f121c03808c5676a8078fe583e4649701805483169184169190911790556040909201517f9e7b61f58c47dc699ac88507c4f5bb9f121c03808c5676a8078fe583e4649702805490931691161790556101d08161043e565b610120526101dd846105d4565b61014052519020918260e05251902080610100524660a0526040519060208201927f8b73c3c69bb8fe3d512ecc4cf759cc79239f7b179b0ffacaa9a75d522b39400f8452604083015260608201524660808201523060a082015260a0815261024660c082610407565b5190206080523060c052600880546001600160a01b03199081163317909155600280548216929092179091556003805482166001600160a01b0393841617905560048054909116929091169190911790556040516157ea908161072b8239608051816149b7015260a05181614a74015260c05181614981015260e05181614a0601526101005181614a2c01526101205181612383015261014051816123ad0152f35b4662aa36a703610357576102fa61070c565b50604051610307816103d8565b73f0ffdc93b7e186bc2f8cb3daa75d86d1930a433d81527392c920834ec8941d2c77d188936e1f7a6f49c127602082015273be0e383937d564d7ff0bc3b46c51f0bf8d5c311a6040820152610123565b46617a69036103c55761036861070c565b50604051610375816103d8565b7350157cffd6bbfa2dece204a89ec419c23ef5755d815273e3a9105a3a932253a70f126eb1e3b589c643dd24602082015273901f8942346f7ab3a01f6d7613119bca447bb0306040820152610123565b6373cac13b60e01b5f5260045ffd5b5f80fd5b606081019081106001600160401b038211176103f357604052565b634e487b7160e01b5f52604160045260245ffd5b601f909101601f19168101906001600160401b038211908210176103f357604052565b51906001600160a01b03821682036103d457565b908151602081105f146104b8575090601f815111610478576020815191015160208210610469571790565b5f198260200360031b1b161790565b604460209160405192839163305a27a960e01b83528160048401528051918291826024860152018484015e5f828201840152601f01601f19168101030190fd5b6001600160401b0381116103f3575f54600181811c911680156105ca575b60208210146105b657601f8111610584575b50602092601f821160011461052557928192935f9261051a575b50508160011b915f199060031b1c1916175f5560ff90565b015190505f80610502565b601f198216935f8052805f20915f5b86811061056c5750836001959610610554575b505050811b015f5560ff90565b01515f1960f88460031b161c191690555f8080610547565b91926020600181928685015181550194019201610534565b5f8052601f60205f20910160051c810190601f830160051c015b8181106105ab57506104e8565b5f815560010161059e565b634e487b7160e01b5f52602260045260245ffd5b90607f16906104d6565b908151602081105f146105ff575090601f815111610478576020815191015160208210610469571790565b6001600160401b0381116103f357600154600181811c91168015610702575b60208210146105b657601f81116106cf575b50602092601f821160011461066e57928192935f92610663575b50508160011b915f199060031b1c19161760015560ff90565b015190505f8061064a565b601f1982169360015f52805f20915f5b8681106106b7575083600195961061069f575b505050811b0160015560ff90565b01515f1960f88460031b161c191690555f8080610691565b9192602060018192868501518155019401920161067e565b60015f52601f60205f20910160051c810190601f830160051c015b8181106106f75750610630565b5f81556001016106ea565b90607f169061061e565b60405190610719826103d8565b5f604083828152826020820152015256fe60806040526004361015610075575b3615610018575f80fd5b60405162461bcd60e51b815260206004820152602f60248201527f5573652066756e64547269616c28747269616c49642920746f2066756e64206160448201526e081cdc1958da599a58c81d1c9a585b608a1b6064820152608490fd5b5f5f3560e01c8062b6cbdf1461411457806302d20dff146140c357806304d4566214613f505780630689d5ed14613f275780630798230914613efe5780630aed466114613e165780630b7d662f14613ded578063118a6540146134e757806315e2b57914613be8578063163745af14613bab57806322ddb7c614613b1957806323738e3414613afc5780632753663d14613ab3578063289e2e9014613a025780632c083c9f146139e45780632c20f883146138995780632ea7ca0b1461380a5780632f447c1f146137e0578063301fc2931461372957806330afdb61146136fc578063350289ff1461364457806335099f2b1461360757806339436aa3146135d35780633a67e675146135a15780633b1b84ff146134ec5780633c08dc28146134e75780633ef3e1ee1461345a5780634184a57f1461331657806346083bfd146132c35780634639417314613205578063477e74b614612d4957806348801b4f14612d1c57806349ed3cee14612bc85780634d83181e14612b8b5780634f11c69014612b6257806355f8cfdd14612b39578063594d9bcf14612b1057806359c56d2814612af45780635e6cd8bd14612a1a5780635f3eb64e146129e657806362909f0a146129535780636aeb14a5146128a95780636f62c3a614612877578063710bf32214612803578063724cd79814612729578063750b4b07146126e7578063754ad0de1461264457806379ba5097146125ce5780637ef4775b146125a25780638194a34f1461250f57806382fdc7bb1461246557806384b0196e1461236957806386ae5fec1461233d57806388012327146122fb5780638927b030146122d85780638c337a8d1461222e5780638da5cb5b146122055780638ffaa42b1461212b57806391c05b0b14611e5557806398edadc314611d9c578063997f540914611c125780639a5c845514611be05780639b827a8714611a8b5780639d3f0618146119b1578063a1b4d01114611988578063a1ddb2081461194b578063a768f2851461191c578063b65e2bbc146118df578063b807420c1461128b578063bc93ac401461115b578063bde501bd14611127578063be26085e1461110c578063c3221227146110da578063c3d7daa81461109d578063cb84e53714611050578063d62aad29146106d5578063d8332aa714610f91578063d84df05b14610f64578063d898ef8b14610ebc578063dbf011c314610e93578063e30c397814610e6a578063e3b39cfd14610736578063e544504614610707578063e622cffc146106da578063e8b60d0c146106d5578063ef22621214610688578063f3baf0701461066c578063f520f24f146105d4578063f9d01f7b146104925763facd0ada1461045d575061000e565b3461048f57602036600319011261048f57602090600435815260218252604060018060a01b0391205416604051908152f35b80fd5b503461048f57602036600319011261048f576008546001600160a01b0316338190036105c5576002600b54146105b6576002600b55600354600554600a5484936001600160a01b039182169373__$8b2ef85bbc74f64c478a5e9485e3a6d0ab$__9383169216833b156105b25785936101c4926040519687958694632b1bb7a360e21b86526004860152602485015260448401526010606484015260196084840152601360a4840152601460c4840152602260e4840152602061010484015260216101248401526004356101448401526101648301526276a70061018483015262093a806101a48301525af480156105a757610592575b506001600b5580f35b8161059c9161430b565b61048f57805f610589565b6040513d84823e3d90fd5b8580fd5b633ee5aeb560e01b8252600482fd5b635fc483c560e01b8252600482fd5b503461048f57602036600319011261048f576105ee614170565b506008546001600160a01b0316330361065d5760405162461bcd60e51b815260206004820152602e60248201527f557365207363686564756c65446174614163636573734c6f67202b206170706c60448201526d79446174614163636573734c6f6760901b6064820152608490fd5b635fc483c560e01b8152600490fd5b503461048f578060031936011261048f57602060405160c88152f35b503461048f57604036600319011261048f576106a2614186565b5060405162461bcd60e51b815260206004820152600a60248201526911195c1c9958d85d195960b21b6044820152606490fd5b6142ee565b503461048f5760406020916106ee3661420d565b908252601e845282822090825283522054604051908152f35b503461048f57602036600319011261048f5760ff60406020926004358152600d84522054166040519015158152f35b503461048f57608036600319011261048f57600435602435604435606435906002600b5414610e5b576002600b55600354604051631a7f3c3360e01b8152600481018690529291908690849060249082906001600160a01b03165afa928315610e50578693610e2c575b506080830180519093906107bc906001600160a01b0316615074565b858752601960205260ff604088205416610e1d5784159081610dd7575b506005546001600160a01b03168015159390889085610d72575b50508315610d5e5786885260116020526040882086895260205260ff604089205416610d4f575b86885260106020526004604089200154948515610d405785841015610d3157518893929190610851906001600160a01b03166150b4565b82610cf957878452601a6020526040842087855260205260408420600160ff19825416179055878452601c602052604084208785526020525f1960408520555b8561089c8285614906565b1115610ce95750845b8415610cc957600554888552601060205260408086208151637838526b60e11b815292839182916108e7918d918f91906001600160a01b0316600486016148ae565b038173__$20089efc5df3e31f24c7f58c3630512626$__5af48015610cbe5785918691610c99575b5061092690915b61092084846148d2565b906148f9565b96600160ff19600c541617600c5573__$20089efc5df3e31f24c7f58c3630512626$__9160018060a01b0360055416908b885260106020526040882060018060a01b036002541660018060a01b03600454169160405194637e3edb1d60e01b865260048601526024850152601360448501526017606485015260156084850152601660a485015260c484015260e48301528b6101048301528a61012483015286610144830152826101648301526101848201526040816101a481865af4908115610c585787908892610c67575b505060ff19600c5416600c55823b15610c63576040519063e76c64d160e01b8252601c60048301528b60248301528a604483015260648201528681608481865af4908115610c58578791610c43575b50508281149788610c11575b5060018060a01b03600554168a875260106020526040872092803b15610c0d578b95889561014494604051988997889662efcfeb60e41b885260048801526024870152601b6044870152601160648701526013608487015260a48601528d60c486015260e48501526101048401526101248301525af4908115610c02578391610be9575b50506006546001600160a01b03169081610b47575b5050505f14610b12575060205f5160206156de5f395f51905f5291604051908152a25b6001600b5580f35b9050610b1f575b50610b0a565b610b30610b2a61492c565b826151a2565b5f51602061573e5f395f51905f528280a25f610b19565b6040516020810191701410549512505317d41051d25390551151607a1b8352876031830152605182015242607182015260718152610b8660918261430b565b51902090803b15610be5576040516306cc173360e41b81529183918391829084908290610bb7908d60048401614913565b03925af180156105a757610bcc575b80610ae7565b81610bd69161430b565b610be157845f610bc6565b8480fd5b8280fd5b81610bf39161430b565b610bfe57815f610ad2565b5080fd5b6040513d85823e3d90fd5b8780fd5b610c33908b8852601c602052604088208b895260205260408820548b8d61526a565b50610c3d8a61511d565b5f610a4e565b81610c4d9161430b565b6105b257855f610a42565b6040513d89823e3d90fd5b8680fd5b9050610c8b915060403d604011610c92575b610c83818361430b565b810190614898565b905f6109f3565b503d610c79565b6109269250610cb7915060403d604011610c9257610c83818361430b565b909161090f565b6040513d87823e3d90fd5b87845260106020526040842054610926610ce38383614960565b91610916565b610cf39083614906565b946108a5565b909192879052601b6020526040882086895260205260408820548303610d225790879291610891565b63ba00382760e01b8852600488fd5b6392c4425960e01b8952600489fd5b6308b6a47360e41b8952600489fd5b6312a4939960e11b8852600488fd5b8161081a576361a9d49760e11b8852600488fd5b60249295506040519283809263010b152760e61b82528b60048301525afa908115610dcc578891610daa575b5051151592875f6107f3565b610dc691503d808a833e610dbe818361430b565b81019061476c565b5f610d9e565b6040513d8a823e3d90fd5b6101e001514210610e0e57858752601060205260ff600560408920015416610dff575f6107d9565b630612284560e31b8752600487fd5b634aeab5cb60e01b8752600487fd5b6386864ec960e01b8752600487fd5b610e499193503d8088833e610e41818361430b565b8101906143f5565b915f6107a0565b6040513d88823e3d90fd5b633ee5aeb560e01b8552600485fd5b503461048f578060031936011261048f576009546040516001600160a01b039091168152602090f35b503461048f578060031936011261048f57600a546040516001600160a01b039091168152602090f35b503461048f57602036600319011261048f57600354604051631a7f3c3360e01b815260048035908201819052918390829060249082906001600160a01b03165afa908115610c02578391610f4a575b50608001516001600160a01b03163303610f3b5781526010602052610f37336003604084200154615243565b5080f35b6326344e6160e11b8252600482fd5b610f5e91503d8085833e610e41818361430b565b5f610f0b565b503461048f576040602091610f783661420d565b908252601b845282822090825283522054604051908152f35b503461048f57602036600319011261048f57610fab614170565b6008546001600160a01b031633036105c557819073__$d081b0b463b43508caf3870f031b91cf91$__90813b1561104c57604051633a1e468b60e01b8152600e6004820152600f60248201525f5160206156fe5f395f51905f5260448201526001600160a01b0390911660648201526154606084820152908290829060a49082905af480156105a75761103b5750f35b816110459161430b565b61048f5780f35b5050fd5b503461048f57604036600319011261048f576008604061106e614186565b926004358152601060205220019060018060a01b03165f52602052602060ff60405f2054166040519015158152f35b503461048f578060031936011261048f57805f51602061577e5f395f51905f5260209252600e8252604060018060a01b0391205416604051908152f35b503461048f5760ff60406020926110f03661420d565b9082526011855282822090825284522054166040519015158152f35b50602036600319011261048f57611124600435614be2565b80f35b503461048f578060031936011261048f576040815f51602061577e5f395f51905f5260209352600f83522054604051908152f35b503461048f57602036600319011261048f57600354604051631a7f3c3360e01b815260048035908201819052918390829060249082906001600160a01b03165afa908115610c02578391611271575b50608001516001600160a01b03163314801561125d575b1561124e57808252601060205260036040832001541561124057808252601060205260036040832001548015611232575b6111fb816153c5565b818352601060205260036040842001557fbcd6e6c64403989d95d0d448676b13035a796bae3971fe10b105d9819b4a53628280a280f35b5061123b615372565b6111f2565b6239146960e21b8252600482fd5b63ea8e4eb560e01b8252600482fd5b506008546001600160a01b031633146111c1565b61128591503d8085833e610e41818361430b565b5f6111aa565b503461048f5761129a3661420d565b6002600b54146118d0576002600b55600354604051631a7f3c3360e01b815260048101849052908490829060249082906001600160a01b03165afa9081156118c55784916118ab575b506080810180516112fc906001600160a01b0316615074565b838552601960205260ff60408620541661189c57838552601a6020526040852083865260205260ff60408620541661188d576005546001600160a01b03161561187e5783855260116020526040852083865260205260ff60408620541661186f578215918261184f575b508385526010602052600460408620015490811561184057601482116118315751611399906001600160a01b03166150b4565b600554848652601060205260408087208151637838526b60e11b815273__$20089efc5df3e31f24c7f58c3630512626$__9493909291839182916113ed918a918c916001600160a01b0316600486016148ae565b0381865af4908115610c58578790889261180d575b506114119061092084846148d2565b9087885b8481106116d55750156116c657600160ff19600c541617600c5560018060a01b03600554169287895260106020526040892060018060a01b036002541660018060a01b03600454169160405196637e3edb1d60e01b885260048801526024870152601360448701526017606487015260156084870152601660a487015260c486015260e48501528761010485015286610124850152886101448501526101648401526101848301526040826101a481865af48015610c58576114ed92889089926116a4575b505060ff19600c5416600c55858761526a565b50602060018060a01b03600554168587526010825260a4604088209160405194859384926311f189c360e01b845260048401526024830152601360448301528860648301528760848301525af4908115610cbe57859161166a575b5015611644575b611625575b61155d8261511d565b60065483906001600160a01b031680611593575b505060205f5160206156de5f395f51905f5291604051908152a26001600b5580f35b6040516020810190732820a92a24a0a62fa224a9aa2924a12aaa24a7a760611b8252846034820152426054820152605481526115d060748261430b565b51902090803b15610be5576040516306cc173360e41b81529183918391829084908290611601908b60048401614913565b03925af180156105a75715611571578161161a9161430b565b610be557825f611571565b818352601060205260408320600501805460ff19166001179055611554565b82845260116020526040842082855260205260408420600160ff1982541617905561154f565b90506020813d60201161169c575b816116856020938361430b565b81010312610be157611696906143cb565b5f611548565b3d9150611678565b90506116bf915060403d604011610c9257610c83818361430b565b905f6114da565b630353878960e61b8852600488fd5b888a526010602052600460408b200180548210156117f9578a5260018060a01b038160208c200154168060208b60018060a01b036005541661172c8d604051968794859463fb6e1b7d60e01b86526004860161486d565b03818b5af49182156117ee578c926117af575b508161177a575b50611754575b600101611415565b905f198114611766576001019061174c565b634e487b7160e01b8a52601160045260248afd5b9050898b52601360205260408b209060018060a01b03165f5260205260405f20888b5260205260ff60408b205416155f611746565b9091506020813d82116117e6575b816117ca6020938361430b565b810103126117e2576117db906143cb565b905f61173f565b8b80fd5b3d91506117bd565b6040513d8e823e3d90fd5b634e487b7160e01b8b52603260045260248bfd5b611411925061182b915060403d604011610c9257610c83818361430b565b91611402565b630be7ba4b60e11b8652600486fd5b6308b6a47360e41b8652600486fd5b6101e001514210611860575f611366565b634aeab5cb60e01b8552600485fd5b6312a4939960e11b8552600485fd5b63af016c4160e01b8552600485fd5b63d1a7cdfb60e01b8552600485fd5b6386864ec960e01b8552600485fd5b6118bf91503d8086833e610e41818361430b565b5f6112e3565b6040513d86823e3d90fd5b633ee5aeb560e01b8352600483fd5b503461048f5760406020916118f33661419c565b918352601685528383209060018060a01b03165f528452825f2090825283522054604051908152f35b503461048f57602036600319011261048f5760ff60406020926004358152601984522054166040519015158152f35b503461048f578060031936011261048f57805f5160206157be5f395f51905f5260209252600e8252604060018060a01b0391205416604051908152f35b503461048f578060031936011261048f576002546040516001600160a01b039091168152602090f35b503461048f578060031936011261048f576008546001600160a01b0316330361065d5760405163011c7d0760e41b8152600e6004820152600f60248201525f5160206156fe5f395f51905f52604482015260208160648173__$d081b0b463b43508caf3870f031b91cf91$__5af49081156105a7578291611a51575b50600680546001600160a01b0319166001600160a01b039290921691909117905580f35b90506020813d602011611a83575b81611a6c6020938361430b565b81010312610bfe57611a7d906143b7565b5f611a2d565b3d9150611a5f565b503461048f5760c036600319011261048f5780611aa661415a565b60a4356001600160401b03811161104c57611ac59036906004016141c6565b600354600454600654939492936001600160a01b039081169373__$721858195384d384a1814e6d56e9b9f856$__939282169290911690611b0461497e565b96843b15611bdc578896611bc392604051998a988997889763276c886960e01b89526004890152602488015260448701526010606487015260186084870152601760a4870152600d60c48701527f19dfaff0b0d2be8694bc0be1363e937e5197470eb2875dda9084835bc0f8a7b660e487015261010486015260043561012486015260243561014486015260018060a01b03166101648501526064356101848501526084356101a48501526102006101c4850152610204840191614342565b60c86101e483015203915af480156105a75761103b5750f35b8880fd5b503461048f5760ff6040602092611bf63661420d565b908252601a855282822090825284522054166040519015158152f35b503461048f57602036600319011261048f57611c2c614170565b6008546001600160a01b031633036105c5576002600b54146105b6576002600b556001600160a01b03168015611d8d5760025460405163344ff10160e01b815230600482015290602090829060249082906001600160a01b03165afa908115610c02578391611d5b575b508015611d4c5780611ca88492615221565b50600254611cbf906001600160a01b031682615243565b506002546001600160a01b031690813b15610be557829160648392604051948593849263433a9d3760e01b845230600485015289602485015260448401525af180156105a757611d37575b50807fc75760498df3a1545ab1d2266a14ed0628376e863681f8c1c487703397d54d7391a26001600b5580f35b81611d419161430b565b610bfe57815f611d0a565b63fddb35b360e01b8352600483fd5b90506020813d602011611d85575b81611d766020938361430b565b81010312610be557515f611c96565b3d9150611d69565b63d92e233d60e01b8252600482fd5b503461048f57602036600319011261048f576002600b5414611e46576002600b55600354600a5460085483926001600160a01b0391821692908216911673__$8b2ef85bbc74f64c478a5e9485e3a6d0ab$__803b15610be157849260c491604051958694859363428e81bf60e01b8552600485015260248401526020604484015260216064840152600435608484015260a48301525af480156105a75761059257506001600b5580f35b633ee5aeb560e01b8152600490fd5b503461048f57602036600319011261048f576004356002600b54146105b6576002600b55600354604051631a7f3c3360e01b815260048101839052908390829060249082906001600160a01b03165afa908115610c02578391612111575b50608081018051909190611ecf906001600160a01b0316615074565b828452601960205260ff604085205416612102576101e0018051156120f3575142106120e45781835260106020526040832054156120d557818352601060205260ff6005604085200154166120c65751611f31906001600160a01b03166150b4565b600c805460ff1916600117905560055460025460045484926001600160a01b0391821692908216911673__$20089efc5df3e31f24c7f58c3630512626$__803b15610be15784926101849160405195869485936309fc33ff60e41b8552600485015260106024850152601160448501526013606485015260176084850152601560a4850152601660c4850152601d60e48501526101048401526101248301528761014483015260146101648301525af480156105a7576120b1575b505060ff19600c5416600c556120018161511d565b6005546001600160a01b031680151590839082612061575b5050612044575b61202b610b2a61492c565b5f51602061573e5f395f51905f528280a26001600b5580f35b805f5160206156de5f395f51905f526020604051858152a2612020565b602492506040519283809263010b152760e61b82528660048301525afa908115610c02578391612097575b50511515825f612019565b6120ab91503d8085833e610dbe818361430b565b5f61208c565b816120bb9161430b565b610bfe57815f611fec565b630612284560e31b8352600483fd5b634779f51360e11b8352600483fd5b634aeab5cb60e01b8352600483fd5b63abb34bc760e01b8452600484fd5b6386864ec960e01b8452600484fd5b61212591503d8085833e610e41818361430b565b5f611eb3565b503461048f578060031936011261048f576008546001600160a01b0316330361065d5760405163011c7d0760e41b8152600e6004820152600f60248201525f51602061579e5f395f51905f52604482015260208160648173__$d081b0b463b43508caf3870f031b91cf91$__5af49081156105a75782916121cb575b50600a80546001600160a01b0319166001600160a01b039290921691909117905580f35b90506020813d6020116121fd575b816121e66020938361430b565b81010312610bfe576121f7906143b7565b5f6121a7565b3d91506121d9565b503461048f578060031936011261048f576008546040516001600160a01b039091168152602090f35b503461048f57602036600319011261048f57612248614170565b6008546001600160a01b031633036105c557819073__$d081b0b463b43508caf3870f031b91cf91$__90813b1561104c57604051633a1e468b60e01b8152600e6004820152600f60248201525f51602061579e5f395f51905f5260448201526001600160a01b0390911660648201526154606084820152908290829060a49082905af480156105a75761103b5750f35b503461048f578060031936011261048f5760206122f3615173565b604051908152f35b503461048f5760ff60406020926123113661419c565b918352601386528383209060018060a01b03165f528552825f2090825284522054166040519015158152f35b503461048f57602036600319011261048f57600460406020928235815260108452200154604051908152f35b503461048f578060031936011261048f57612409906123a77f00000000000000000000000000000000000000000000000000000000000000006154ea565b906123d17f000000000000000000000000000000000000000000000000000000000000000061560d565b906020612417604051936123e5838661430b565b8385525f368137604051968796600f60f81b885260e08589015260e08801906142ca565b9086820360408801526142ca565b904660608601523060808601528260a086015284820360c08601528080855193848152019401925b82811061244e57505050500390f35b83518552869550938101939281019260010161243f565b503461048f57602036600319011261048f5761247f614170565b6008546001600160a01b031633036105c557819073__$d081b0b463b43508caf3870f031b91cf91$__90813b1561104c57604051633a1e468b60e01b8152600e6004820152600f60248201525f5160206157be5f395f51905f5260448201526001600160a01b0390911660648201526154606084820152908290829060a49082905af480156105a75761103b5750f35b503461048f5761259e61256a61258a61255861257c61252d36614253565b9460409a949a98919698519a8b99600260208c015260408b015260a060608b015260c08a01916145ec565b878103601f1901608089015291614670565b848103601f190160a0860152916146b0565b03601f19810183528261430b565b6040519182916020835260208301906142ca565b0390f35b503461048f57602036600319011261048f57604060209160043581526010835220541515604051908152f35b503461048f578060031936011261048f576009546001600160a01b038116903382900361263557600880546001600160a01b03199081168417909155166009557fb27970c1714b28277b78cc17ac2fe9556e7f048cd48358cffe3dc7d547608fdc8280a280f35b630f22ca5f60e01b8352600483fd5b503461048f57806126543661420d565b6003546004546006546001600160a01b0390811694918116921673__$721858195384d384a1814e6d56e9b9f856$__803b15610c63578694610124936040519788968795636501f36d60e11b87526004870152602486015260448501526010606485015260186084850152601760a485015260c484015260e483015260c86101048301525af480156105a75761103b5750f35b503461048f5760ff60406020926126fd3661419c565b918352601486528383209060018060a01b03165f528552825f2090825284522054166040519015158152f35b503461048f578060031936011261048f576008546001600160a01b0316330361065d5760405163011c7d0760e41b8152600e6004820152600f60248201525f51602061577e5f395f51905f52604482015260208160648173__$d081b0b463b43508caf3870f031b91cf91$__5af49081156105a75782916127c9575b50600580546001600160a01b0319166001600160a01b039290921691909117905580f35b90506020813d6020116127fb575b816127e46020938361430b565b81010312610bfe576127f5906143b7565b5f6127a5565b3d91506127d7565b503461048f57602036600319011261048f5761281d614170565b6008546001600160a01b031633036105c5576001600160a01b03168015611d8d57600980546001600160a01b031916821790557f6ab4d119f23076e8ad491bc65ce85f017fb0591dce08755ba8591059cc51737a8280a280f35b503461048f57602036600319011261048f5760ff60056040602093600435815260108552200154166040519015158152f35b503461048f57602036600319011261048f576128c3614170565b6008546001600160a01b031633036105c557819073__$d081b0b463b43508caf3870f031b91cf91$__90813b1561104c57604051633a1e468b60e01b8152600e6004820152600f60248201525f51602061577e5f395f51905f5260448201526001600160a01b0390911660648201526154606084820152908290829060a49082905af480156105a75761103b5750f35b503461048f57602036600319011261048f5761296d614170565b506008546001600160a01b0316330361065d5760405162461bcd60e51b815260206004820152603860248201527f557365207363686564756c654175746f6d6174696f6e436f6e7472616374202b60448201527708185c1c1b1e505d5d1bdb585d1a5bdb90dbdb9d1c9858dd60421b6064820152608490fd5b503461048f578060031936011261048f576040815f5160206157be5f395f51905f5260209352600f83522054604051908152f35b503461048f578060031936011261048f576008546001600160a01b0316330361065d5760405163011c7d0760e41b8152600e6004820152600f60248201525f5160206157be5f395f51905f52604482015260208160648173__$d081b0b463b43508caf3870f031b91cf91$__5af49081156105a7578291612aba575b50600780546001600160a01b0319166001600160a01b039290921691909117905580f35b90506020813d602011612aec575b81612ad56020938361430b565b81010312610bfe57612ae6906143b7565b5f612a96565b3d9150612ac8565b503461048f578060031936011261048f57602060405160148152f35b503461048f57602036600319011261048f57604060209160043581528280522054604051908152f35b503461048f578060031936011261048f576003546040516001600160a01b039091168152602090f35b503461048f578060031936011261048f576004546040516001600160a01b039091168152602090f35b503461048f576040602091612b9f3661419c565b918352601585528383209060018060a01b03165f528452825f2090825283522054604051908152f35b503461048f57612bd73661420d565b600354604051631a7f3c3360e01b815260048101849052908490829060249082906001600160a01b03165afa80156118c5576080918591612d02575b500180516001600160a01b031633148015612cee575b15612cdf5782845260116020526040842082855260205260ff60408520541615612cd0577fe544deda3b295a666b2656afe9e885946699c0def8e1b1cc3f6b75f36023f5a891612ca6602092612c7f600161531f565b908115612cbf575b612c90826153c5565b516001600160a01b0316908015612cb05761548c565b604051908152a280f35b50612cba8761531f565b61548c565b9050612cca8761531f565b90612c87565b63135aa5d960e01b8452600484fd5b63ea8e4eb560e01b8452600484fd5b506008546001600160a01b03163314612c29565b612d1691503d8087833e610e41818361430b565b5f612c13565b503461048f576040602091612d303661420d565b908252601c845282822090825283522054604051908152f35b503461048f57612d583661419c565b906002600b54146131f6576002600b5581156131e7576005546001600160a01b0316156131d857600354604051631a7f3c3360e01b815260048101859052908590829060249082906001600160a01b03165afa8015610cbe5760809186916131be575b50018051612dd1906001600160a01b0316615074565b838552601960205260ff60408620541661189c5751612df8906001600160a01b03166150b4565b828452601a6020526040842082855260205260ff6040852054166131af5782845260106020526008604085200160018060a01b0382165f5260205260ff60405f205416156131a05760055460405163010b152760e61b8152600481018590526001600160a01b03909116908581602481855afa908115610e50578691613186575b5051831015613177578160208573__$20089efc5df3e31f24c7f58c3630512626$__93612ebb87604051958694859463fb6e1b7d60e01b86526004860161486d565b0381855af4908115610e5057869161313d575b501561312e5783855260136020526040852060018060a01b0383165f5260205260405f2083865260205260ff60408620541661311f57600554848652601060205260408087208151637838526b60e11b815293919284929183918291612f44918a918c916001600160a01b0316600486016148ae565b03915af4908115610cbe57859086926130fb575b50612f769085875260106020526109206004604089200154846148d2565b81858752601d6020526040872085885260205260ff60408820541615806130f2575b6130c0575b50508047106130b15790612fb48592828587614a9a565b50612fbe8461511d565b6006546001600160a01b03169081612ff4575b50505060205f5160206156de5f395f51905f5291604051908152a26001600b5580f35b60405160208101917f494e444956494455414c5f4d494c4553544f4e455f444953545249425554494f8352602760f91b604083015260018060601b03199060601b1660418201528460558201524260758201526075815261305660958261430b565b51902090803b15610be5576040516306cc173360e41b81529183918391829084908290613087908b60048401614913565b03925af180156105a75761309c575b80612fd1565b816130a69161430b565b610be557825f613096565b6358140e1f60e01b8552600485fd5b6130ca9250614906565b838552601d6020526040852083865260205260408520600160ff198254161790555f80612f9d565b50811515612f98565b612f769250613119915060403d604011610c9257610c83818361430b565b91612f58565b634941611560e11b8552600485fd5b6353793a0160e01b8552600485fd5b90506020813d60201161316f575b816131586020938361430b565b810103126105b257613169906143cb565b5f612ece565b3d915061314b565b63fdf4d87360e01b8552600485fd5b61319a91503d8088833e610dbe818361430b565b5f612e79565b630745908560e41b8452600484fd5b638bf74df360e01b8452600484fd5b6131d291503d8088833e610e41818361430b565b5f612dbb565b63af016c4160e01b8452600484fd5b63d9aa9ce160e01b8452600484fd5b633ee5aeb560e01b8452600484fd5b503461048f576132143661420d565b604051630abd0b9160e31b815260106004820152601360248201526014604482015260166064820152608481019290925260a48201529060208260c48173__$5ddaef8cb40fe9e9ff7ecdc8cf0dec9c1b$__5af49081156132b75790613280575b602090604051908152f35b506020813d6020116132af575b8161329a6020938361430b565b810103126132ab5760209051613275565b5f80fd5b3d915061328d565b604051903d90823e3d90fd5b503461048f57608036600319011261048f576132dd614170565b506132e6614186565b90606435906001600160401b03821161048f5760206122f38461330c36600487016141c6565b91604435906146d4565b5061332036614253565b90929360248860018060a09b9a99969b1b036003541660405192838092631a7f3c3360e01b82528b60048301525afa908115610dcc578891613440575b50608001516001600160a01b03163303613431576005546001600160a01b0316918215613422578798839897983b15610c0d576133f4889687936133e26133d09a8d956040519c8d9b8c9a8b9963ac79720560e01b8b5260048b01523360248b015260a060448b015260a48a01916145ec565b87810360031901606489015291614670565b848103600319016084860152916146b0565b03925af180156105a75761340d575b5061112482614be2565b816134179161430b565b610bfe57815f613403565b63af016c4160e01b8852600488fd5b63068c4f9960e31b8752600487fd5b61345491503d808a833e610e41818361430b565b5f61335d565b503461048f57602036600319011261048f57613474614170565b506008546001600160a01b0316330361065d5760405162461bcd60e51b815260206004820152603260248201527f557365207363686564756c6553706f6e736f725265676973747279202b206170604482015271706c7953706f6e736f72526567697374727960701b6064820152608490fd5b6141f3565b503461048f57602036600319011261048f57600354604051631a7f3c3360e01b815260048035908201819052918390829060249082906001600160a01b03165afa908115610c025791839160409360209591613587575b50608001516001600160a01b031633148015613573575b613563906145af565b8152601083522054604051908152f35b506008546001600160a01b0316331461355a565b61359b91503d8085833e610e41818361430b565b5f613543565b503461048f5760ff60406020926135b73661420d565b908252601d855282822090825284522054166040519015158152f35b503461048f578060031936011261048f576040815f5160206156fe5f395f51905f5260209352600f83522054604051908152f35b503461048f578060031936011261048f57805f51602061579e5f395f51905f5260209252600e8252604060018060a01b0391205416604051908152f35b503461048f57602036600319011261048f57600354604051631a7f3c3360e01b815260048035908201819052918390829060249082906001600160a01b03165afa908115610c02579260039260409260209583916136e2575b50608001516001600160a01b0316331480156136ce575b6136bd906145af565b815260108452200154604051908152f35b506008546001600160a01b031633146136b4565b6136f691503d8085833e610e41818361430b565b5f61369d565b503461048f57602036600319011261048f5760026040602092600435815260108452200154604051908152f35b503461048f57806137393661420d565b60035460085460075492936001600160a01b03938416939092918116911673__$5ddaef8cb40fe9e9ff7ecdc8cf0dec9c1b$__803b15610c6357869461016493604051978896879563348ecebb60e21b8752600487015260106024870152601460448701526013606487015260156084870152601860a4870152601760c487015260e48601526101048501526101248401526101448301525af480156105a75761103b5750f35b503461048f57602036600319011261048f5760406020916004358152602283522054604051908152f35b503461048f57602036600319011261048f57613824614170565b506008546001600160a01b0316330361065d5760405162461bcd60e51b815260206004820152603460248201527f557365207363686564756c654d696c6573746f6e654d616e61676572202b20616044820152733838363ca6b4b632b9ba37b732a6b0b730b3b2b960611b6064820152608490fd5b503461048f5761010036600319011261048f576138b461415a565b906084356001600160401b038111610bfe576138d49036906004016141c6565b909260e4356001600160401b0381116139e0576138f59036906004016141c6565b9190946002600b5414610e5b576002600b819055546004549596879673__$871a201da4cfe7de37a3b41fab70ef5db9$__936001600160a01b039182169390911691843b15611bdc5788966139a46139c9936040519a8b998a988998633ee7a27f60e11b8a5260048a01526024890152601060448901526004356064890152602435608489015260018060a01b031660a488015260643560c488015261016060e4880152610164870191614342565b60a43561010486015260c4356101248601528481036003190161014486015291614342565b03915af480156105a75761059257506001600b5580f35b8380fd5b503461048f578060031936011261048f5760206040516276a7008152f35b503461048f57613a113661420d565b6008549091906001600160a01b03163303613aa45780835260116020526040832082845260205260ff604084205416613a9557808352601a602052604083208284526020526040832060ff198154169055808352601b602052604083208284526020528260408120558252601c602052604082209082526020525f19604082205580f35b63195332a560e01b8352600483fd5b635fc483c560e01b8352600483fd5b503461048f57608036600319011261048f57613acd61415a565b9060ff600c541615613aed5760206122f360643584602435600435614a9a565b63ea8e4eb560e01b8152600490fd5b503461048f578060031936011261048f5760206040516154608152f35b503461048f57608036600319011261048f57613b3361415a565b6064356001600160401b038111610be557613b529036906004016141c6565b60ff600c541615612cdf577f67ce8fe26689ae619844cc7e0e68306c21d50ac0b50bd0ca97e875de6fc63991604051936020855260018060a01b03169380613ba560243595600435956020840191614342565b0390a480f35b503461048f578060031936011261048f57805f5160206156fe5f395f51905f5260209252600e8252604060018060a01b0391205416604051908152f35b503461048f576101c036600319011261048f57613c0361415a565b6064356001600160a01b038116929190839003610bfe5760e4356001600160401b038111610be557613c399036906004016141c6565b909390610144356001600160401b038111610be157613c5c9036906004016141c6565b956101a4356001600160401b038111610c6357613c7d9036906004016141c6565b97906002600b5414613dde5787986002600b5573__$871a201da4cfe7de37a3b41fab70ef5db9$__9460018060a01b03600254169360018060a01b036004541695613cc661497e565b98883b15613dda578c9a6040519c8d9b8c9a8b9a6310d0af5f60e01b8c5260048c015260248b015260448a016010905260648a01600d905260848a017fa93a11627adf2c83e8818c9bff24ab5296709dfe56c0c544f3746b0868ec7161905260a48a015260043560c48a015260243560e48a0152600160a01b600190031661010489015261012488015260843561014488015260a43561016488015260c4356101848801526101a487016102809052610284870190613d8492614342565b90610104356101c4870152610124356101e487015260031986830301610204870152613daf92614342565b906101643561022485015261018435610244850152600319848303016102648501526139c992614342565b8c80fd5b633ee5aeb560e01b8852600488fd5b503461048f578060031936011261048f576005546040516001600160a01b039091168152602090f35b503461048f57602036600319011261048f576002600b5414611e46576002600b55600354600554600a5460085484936001600160a01b039283169373__$8b2ef85bbc74f64c478a5e9485e3a6d0ab$__939081169281169116833b156105b25785936101a492604051968795869463dcaaca4960e01b86526004860152602485015260448401526010606484015260196084840152601160a4840152601360c4840152601460e4840152602061010484015260216101248401526004356101448401526101648301526276a7006101848301525af480156105a75761059257506001600b5580f35b503461048f578060031936011261048f576006546040516001600160a01b039091168152602090f35b503461048f578060031936011261048f576007546040516001600160a01b039091168152602090f35b50346132ab5760803660031901126132ab576044356001600160401b0381116132ab57613f819036906004016141c6565b6064356001600160401b0381116132ab57613fa09036906004016141c6565b6002600b93929354146140b4576002600b8190555460045473__$5ddaef8cb40fe9e9ff7ecdc8cf0dec9c1b$__926001600160a01b039182169290911690833b156132ab575f9561407f9161406c604051998a9889978897633c90109b60e21b895260048901526024880152601060448801526013606488015260146084880152601260a4880152601560c4880152601660e4880152601e61010488015260176101248801526004356101448801526024356101648801526101c06101848801526101c4870191614342565b848103600319016101a486015291614342565b03915af480156140a95761409657506001600b5580f35b6140a291505f9061430b565b5f5f610589565b6040513d5f823e3d90fd5b633ee5aeb560e01b5f5260045ffd5b346132ab575f3660031901126132ab575f51602061579e5f395f51905f525f52600f60209081527ffb8fa4ba3f1e2f749e2f8d4cf3bc3a1eba5a3b579877f617536dc63c9f9ecf3454604051908152f35b346132ab576141223661419c565b915f52601260205260405f209060018060a01b03165f5260205260405f20905f52602052602060ff60405f2054166040519015158152f35b604435906001600160a01b03821682036132ab57565b600435906001600160a01b03821682036132ab57565b602435906001600160a01b03821682036132ab57565b60609060031901126132ab57600435906024356001600160a01b03811681036132ab579060443590565b9181601f840112156132ab578235916001600160401b0383116132ab57602083818601950101116132ab57565b346132ab575f3660031901126132ab5760206040515f8152f35b60409060031901126132ab576004359060243590565b9181601f840112156132ab578235916001600160401b0383116132ab576020808501948460051b0101116132ab57565b9060806003198301126132ab57600435916024356001600160401b0381116132ab578161428291600401614223565b909290916044356001600160401b0381116132ab57816142a491600401614223565b90929091606435906001600160401b0382116132ab576142c691600401614223565b9091565b805180835260209291819084018484015e5f828201840152601f01601f1916010190565b346132ab575f3660031901126132ab57602060405162093a808152f35b601f909101601f19168101906001600160401b0382119082101761432e57604052565b634e487b7160e01b5f52604160045260245ffd5b908060209392818452848401375f828201840152601f01601f1916010190565b81601f820112156132ab578051906001600160401b03821161432e5760405192614396601f8401601f19166020018561430b565b828452602083830101116132ab57815f9260208093018386015e8301015290565b51906001600160a01b03821682036132ab57565b519081151582036132ab57565b519060ff821682036132ab57565b519061ffff821682036132ab57565b6020818303126132ab578051906001600160401b0382116132ab5701610220818303126132ab576040519161022083016001600160401b0381118482101761432e5760405281516001600160401b0381116132ab5781614456918401614362565b835260208201516001600160401b0381116132ab5781614477918401614362565b602084015260408201516001600160401b0381116132ab578161449b918401614362565b60408401526060820151916001600160401b0383116132ab576144c6610200926145a6948301614362565b60608501526144d7608082016143b7565b60808501526144e860a082016143cb565b60a08501526144f960c082016143d8565b60c085015261450a60e082016143d8565b60e085015261451c61010082016143cb565b61010085015261452f61012082016143e6565b61012085015261454261014082016143d8565b61014085015261455561016082016143d8565b61016085015261456861018082016143e6565b61018085015261457b6101a082016143cb565b6101a085015261458e6101c082016143cb565b6101c08501526101e08101516101e0850152016143cb565b61020082015290565b156145b657565b60405162461bcd60e51b815260206004820152600e60248201526d139bdd08185d5d1a1bdc9a5e995960921b6044820152606490fd5b90602083828152019060208160051b85010193835f915b8383106146135750505050505090565b909192939495601f198282030186528635601e19843603018112156132ab578301602081019190356001600160401b0381116132ab5780360383136132ab576146626020928392600195614342565b980196019493019190614603565b916020908281520191905f905b80821061468a5750505090565b90919283359061ffff82168092036132ab5760208160019382935201940192019061467d565b81835290916001600160fb1b0383116132ab5760209260051b809284830137010190565b50506002546001600160a01b0316915050338190036146fc57637e81b53b60e11b5f5260045ffd5b6040519063e9ff0b5b60e01b8252600482015260208160248173__$a9c0e8932c349ca967c51f540a78b86c11$__5af49081156140a9575f9161473d575090565b90506020813d602011614764575b816147586020938361430b565b810103126132ab575190565b3d915061474b565b6020818303126132ab578051906001600160401b0382116132ab57019080601f830112156132ab578151916001600160401b03831161432e578260051b9160208301936147bc604051958661430b565b8452602080850193830101918183116132ab5760208101935b8385106147e457505050505090565b84516001600160401b0381116132ab5782016060818503601f1901126132ab5760405191606083016001600160401b0381118482101761432e576040526020820151926001600160401b0384116132ab57606083614849886020809881980101614362565b8352614857604082016143e6565b85840152015160408201528152019401936147d5565b6001600160a01b03918216815260208101929092529091166040820152606081019190915260800190565b91908260409103126132ab576020825192015190565b90949392606092608083019660018060a01b03168352602083015260408201520152565b818102929181159184041417156148e557565b634e487b7160e01b5f52601160045260245ffd5b919082039182116148e557565b919082018092116148e557565b6040909392919360608101946005825260208201520152565b6040519061493b60408361430b565b601682527529a1a922a2a724a723afa224a9aa2924a12aaa24a7a760511b6020830152565b811561496a570490565b634e487b7160e01b5f52601260045260245ffd5b307f00000000000000000000000000000000000000000000000000000000000000006001600160a01b03161480614a71575b156149d9577f000000000000000000000000000000000000000000000000000000000000000090565b60405160208101907f8b73c3c69bb8fe3d512ecc4cf759cc79239f7b179b0ffacaa9a75d522b39400f82527f000000000000000000000000000000000000000000000000000000000000000060408201527f000000000000000000000000000000000000000000000000000000000000000060608201524660808201523060a082015260a08152614a6b60c08261430b565b51902090565b507f000000000000000000000000000000000000000000000000000000000000000046146149b0565b9291908215614bda576002546040516358ac71cd60e11b81526001600160a01b039091169490602081600481895afa80156140a9575f90614ba6575b614ae1915085614960565b15614b725760018060a01b036004541660405195630941d4c960e11b875260176004880152601360248801526015604488015260166064880152608487015260a486015260c485015260e484015260018060a01b03166101048301526101248201526020816101448173__$20089efc5df3e31f24c7f58c3630512626$__5af49081156140a9575f9161473d575090565b93507fa35b3d01e5c7c8c27cb608a23ba2677ad44665c36325777cf55d1009dc609e2f925060209150604051908152a25f90565b506020813d602011614bd2575b81614bc06020938361430b565b810103126132ab57614ae19051614ad6565b3d9150614bb3565b505050505f90565b600354604051631a7f3c3360e01b815260048101839052905f90829060249082906001600160a01b03165afa9081156140a9575f9161505a575b506080810180519091906001600160a01b0316330361504b5760a08101511561503c576101e0015142101561502d57341561501e576002546040516358ac71cd60e11b815290602090829060049082906001600160a01b03165afa9081156140a9575f91614fec575b506001600160401b0380820291908204036148e5573411614fdd57815f52601060205260ff600560405f20015460081c16614fce57815f52601060205260405f20614cd1348254614906565b9055815f52601060205260405f20549060018060a01b0360025416916040516358ac71cd60e11b8152602081600481875afa80156140a9575f90614f9a575b6001600160401b0392614d239250614960565b11614f8b576020600492604051938480926358ac71cd60e11b82525afa9182156140a9575f92614f56575b505f916020906001600160401b0390614d679034614960565b5f51602061571e5f395f51905f5254604051639cd07acb60e01b81529190921660048201526005602482015293849160449183916001600160a01b03165af19182156140a9575f92614f22575b505f8381526010602052604090206003015415614f0957825f526010602052600360405f20015491808315614ef9575b15614ee7575b602090606460018060a01b035f51602061571e5f395f51905f525416945f604051968794859363022f65e760e31b8552600485015260248401528160448401525af180156140a9575f90614eb3575b614e8a9250835f526010602052600360405f2001555b825f526010602052614e67600360405f200154615221565b505f8381526010602052604090206003015490516001600160a01b031690615243565b5033907fc9ed46c3457a9cf96f25ce7f957f07e28bc05fcdc5fee1edff097f3c13e616d95f80a3565b506020823d602011614edf575b81614ecd6020938361430b565b810103126132ab57614e8a9151614e39565b3d9150614ec0565b506020614ef2615372565b9050614dea565b9250614f03615372565b92614de4565b614e8a91835f526010602052600360405f200155614e4f565b9091506020813d602011614f4e575b81614f3e6020938361430b565b810103126132ab5751905f614db4565b3d9150614f31565b91506020823d602011614f83575b81614f716020938361430b565b810103126132ab579051906020614d4e565b3d9150614f64565b63580eccbf60e11b5f5260045ffd5b506020813d602011614fc6575b81614fb46020938361430b565b810103126132ab57614d239051614d10565b3d9150614fa7565b63ce709acf60e01b5f5260045ffd5b630625040160e01b5f5260045ffd5b90506020813d602011615016575b816150076020938361430b565b810103126132ab57515f614c85565b3d9150614ffa565b63d73ab2e160e01b5f5260045ffd5b63c9a2b56f60e01b5f5260045ffd5b6311f14d8f60e21b5f5260045ffd5b63068c4f9960e31b5f5260045ffd5b61506e91503d805f833e610e41818361430b565b5f614c1c565b6007546001600160a01b031633149081156150a1575b501561509257565b63ea8e4eb560e01b5f5260045ffd5b6001600160a01b0316331490505f61508a565b600a5473__$8b2ef85bbc74f64c478a5e9485e3a6d0ab$__91823b156132ab57604051631ab7532b60e01b81526001600160a01b03928316600482015291166024820152905f90829060449082905af480156140a9576151115750565b5f61511b9161430b565b565b73__$5ddaef8cb40fe9e9ff7ecdc8cf0dec9c1b$__90813b156132ab575f906064604051809481936394800e2160e01b835260106004840152602483015262093a8060448301525af480156140a9576151115750565b4660010361518057600190565b4662aa36a7036151905761271190565b617a69461461519d575f90565b5f1990565b6006546001600160a01b031691826151b957505050565b6040516151e3602080838180820196805191829101885e810142838201520301808452018261430b565b519020823b156132ab57615210925f92836040518096819582946306cc173360e41b845260048401614913565b03925af180156140a9576151115750565b8015615235575b615232308261548c565b90565b5061523e615372565b615228565b908115615255575b615232908261548c565b9050615232615262615372565b91905061524b565b929190835f52601060205260405f209360018060a01b036002541660018060a01b03600454169060405196634720128760e01b8852600488015260136024880152601760448801526015606488015260166084880152601d60a488015260c487015260e48601526101048501526101248401526101448301526101648201525f6101848201526020816101a48173__$20089efc5df3e31f24c7f58c3630512626$__5af49081156140a9575f9161473d575090565b5f51602061571e5f395f51905f5254604051639cd07acb60e01b815260048101929092525f6024830181905260209183916044918391906001600160a01b03165af19081156140a9575f9161473d575090565b5f51602061571e5f395f51905f5254604051639cd07acb60e01b81525f60048201819052600560248301529091602091839160449183916001600160a01b03165af19081156140a9575f9161473d575090565b60408051916153d4828461430b565b600183526020830190601f1983013683378351156154785781525f51602061575e5f395f51905f52546001600160a01b031690813b156132ab578251637d6e912360e11b815260206004820152935160248501819052849160448301915f5b81811061545f5750505091815f81819503925af190811561545657506151115750565b513d5f823e3d90fd5b8251845287945060209384019390920191600101615433565b634e487b7160e01b5f52603260045260245ffd5b5f51602061575e5f395f51905f52546001600160a01b031691823b156132ab57604051635ca4b5b160e11b815260048101929092526001600160a01b03166024820152905f908290604490829084905af180156140a9576151115750565b60ff81146155305760ff811690601f8211615521576040519161550e60408461430b565b6020808452838101919036833783525290565b632cd44ac360e21b5f5260045ffd5b506040515f5f548060011c9160018216918215615603575b6020841083146155ef5783855284929081156155d05750600114615573575b6152329250038261430b565b505f80805290917f290decd9548b62a8d60345a988386fc84ba6bc95484008f6362f93160ef3e5635b8183106155b457505090602061523292820101615567565b602091935080600191548385880101520191019091839261559c565b6020925061523294915060ff191682840152151560051b820101615567565b634e487b7160e01b5f52602260045260245ffd5b92607f1692615548565b60ff81146156315760ff811690601f8211615521576040519161550e60408461430b565b506040515f6001548060011c91600182169182156156d3575b6020841083146155ef5783855284929081156155d05750600114615674576152329250038261430b565b5060015f90815290917fb10e2d527612073b26eecdfd717e6a320cf44b4afac2b0732d9fcbe2b7fa0cf65b8183106156b757505090602061523292820101615567565b602091935080600191548385880101520191019091839261569f565b92607f169261564a56fe62b24bd9c0bcb655745cd379ea0b82caec0357933e5585ef39dace55098e9b99f318a5a9d37dd62758b7763d8488a5b323b37ee156f2af6873d0aab7be5db2d09e7b61f58c47dc699ac88507c4f5bb9f121c03808c5676a8078fe583e46497016d1c76d614228b523baa4dcd9539e2c713b54ff4ab3ff2d1627e7f6cd32be4429e7b61f58c47dc699ac88507c4f5bb9f121c03808c5676a8078fe583e46497005cae790c66ea15fc28112470fc929fa75d47f0a4893b3483ab038813675400c7242ea5c9f5d46174013791ddd3495e756d36e7e81099e04eb59e75afef8cb41e48f2fada0ab3065addd657f9c2a132922bfd2bbb351eafa9742dccd2a3222a42a164736f6c634300081b000a",
  "linkReferences": {
    "contracts/lib/VaultChallengeLib.sol": {
      "VaultChallengeLib": [
        {
          "length": 20,
          "start": 14718
        },
        {
          "length": 20,
          "start": 16004
        },
        {
          "length": 20,
          "start": 18149
        },
        {
          "length": 20,
          "start": 22602
        }
      ]
    },
    "contracts/lib/VaultClaimLib.sol": {
      "VaultClaimLib": [
        {
          "length": 20,
          "start": 16446
        },
        {
          "length": 20,
          "start": 17341
        }
      ]
    },
    "contracts/lib/VaultConfidentialLib.sol": {
      "VaultConfidentialLib": [
        {
          "length": 20,
          "start": 20034
        }
      ]
    },
    "contracts/lib/VaultDistributionLib.sol": {
      "VaultDistributionLib": [
        {
          "length": 20,
          "start": 4118
        },
        {
          "length": 20,
          "start": 4193
        },
        {
          "length": 20,
          "start": 6882
        },
        {
          "length": 20,
          "start": 9863
        },
        {
          "length": 20,
          "start": 13747
        },
        {
          "length": 20,
          "start": 21111
        },
        {
          "length": 20,
          "start": 23076
        }
      ]
    },
    "contracts/lib/VaultReclaimLib.sol": {
      "VaultReclaimLib": [
        {
          "length": 20,
          "start": 3083
        },
        {
          "length": 20,
          "start": 9478
        },
        {
          "length": 20,
          "start": 17790
        },
        {
          "length": 20,
          "start": 22500
        }
      ]
    },
    "contracts/lib/VaultRegistrationLib.sol": {
      "VaultRegistrationLib": [
        {
          "length": 20,
          "start": 8715
        },
        {
          "length": 20,
          "start": 11675
        }
      ]
    },
    "contracts/lib/VaultTimelockLib.sol": {
      "VaultTimelockLib": [
        {
          "length": 20,
          "start": 5868
        },
        {
          "length": 20,
          "start": 8501
        },
        {
          "length": 20,
          "start": 10415
        },
        {
          "length": 20,
          "start": 10633
        },
        {
          "length": 20,
          "start": 11200
        },
        {
          "length": 20,
          "start": 11949
        },
        {
          "length": 20,
          "start": 12292
        },
        {
          "length": 20,
          "start": 12702
        }
      ]
    }
  },
  "deployedLinkReferences": {
    "contracts/lib/VaultChallengeLib.sol": {
      "VaultChallengeLib": [
        {
          "length": 20,
          "start": 12883
        },
        {
          "length": 20,
          "start": 14169
        },
        {
          "length": 20,
          "start": 16314
        },
        {
          "length": 20,
          "start": 20767
        }
      ]
    },
    "contracts/lib/VaultClaimLib.sol": {
      "VaultClaimLib": [
        {
          "length": 20,
          "start": 14611
        },
        {
          "length": 20,
          "start": 15506
        }
      ]
    },
    "contracts/lib/VaultConfidentialLib.sol": {
      "VaultConfidentialLib": [
        {
          "length": 20,
          "start": 18199
        }
      ]
    },
    "contracts/lib/VaultDistributionLib.sol": {
      "VaultDistributionLib": [
        {
          "length": 20,
          "start": 2283
        },
        {
          "length": 20,
          "start": 2358
        },
        {
          "length": 20,
          "start": 5047
        },
        {
          "length": 20,
          "start": 8028
        },
        {
          "length": 20,
          "start": 11912
        },
        {
          "length": 20,
          "start": 19276
        },
        {
          "length": 20,
          "start": 21241
        }
      ]
    },
    "contracts/lib/VaultReclaimLib.sol": {
      "VaultReclaimLib": [
        {
          "length": 20,
          "start": 1248
        },
        {
          "length": 20,
          "start": 7643
        },
        {
          "length": 20,
          "start": 15955
        },
        {
          "length": 20,
          "start": 20665
        }
      ]
    },
    "contracts/lib/VaultRegistrationLib.sol": {
      "VaultRegistrationLib": [
        {
          "length": 20,
          "start": 6880
        },
        {
          "length": 20,
          "start": 9840
        }
      ]
    },
    "contracts/lib/VaultTimelockLib.sol": {
      "VaultTimelockLib": [
        {
          "length": 20,
          "start": 4033
        },
        {
          "length": 20,
          "start": 6666
        },
        {
          "length": 20,
          "start": 8580
        },
        {
          "length": 20,
          "start": 8798
        },
        {
          "length": 20,
          "start": 9365
        },
        {
          "length": 20,
          "start": 10114
        },
        {
          "length": 20,
          "start": 10457
        },
        {
          "length": 20,
          "start": 10867
        }
      ]
    }
  }
}