{
  "_format": "hh-sol-artifact-1",
  "contractName": "TrialMilestoneManager",
  "sourceName": "contracts/TrialMilestoneManager.sol",
  "abi": [
    {
      "inputs": [
        {
          "internalType": "address",
          "name": "_trialManager",
          "type": "address"
        }
      ],
      "stateMutability": "nonpayable",
      "type": "constructor"
    },
    {
      "anonymous": false,
      "inputs": [
        {
          "indexed": true,
          "internalType": "uint256",
          "name": "trialId",
          "type": "uint256"
        },
        {
          "indexed": true,
          "internalType": "address",
          "name": "patient",
          "type": "address"
        },
        {
          "indexed": false,
          "internalType": "uint256",
          "name": "milestoneIndex",
          "type": "uint256"
        }
      ],
      "name": "MilestoneCompleted",
      "type": "event"
    },
    {
      "anonymous": false,
      "inputs": [
        {
          "indexed": true,
          "internalType": "uint256",
          "name": "trialId",
          "type": "uint256"
        },
        {
          "indexed": false,
          "internalType": "uint256",
          "name": "milestoneCount",
          "type": "uint256"
        }
      ],
      "name": "MilestonesSet",
      "type": "event"
    },
    {
      "anonymous": false,
      "inputs": [
        {
          "indexed": true,
          "internalType": "address",
          "name": "oldManager",
          "type": "address"
        },
        {
          "indexed": true,
          "internalType": "address",
          "name": "newManager",
          "type": "address"
        }
      ],
      "name": "TrialManagerUpdated",
      "type": "event"
    },
    {
      "inputs": [
        {
          "internalType": "uint256",
          "name": "_trialId",
          "type": "uint256"
        },
        {
          "internalType": "address",
          "name": "_patient",
          "type": "address"
        },
        {
          "internalType": "uint256",
          "name": "_milestoneIndex",
          "type": "uint256"
        }
      ],
      "name": "completeMilestone",
      "outputs": [],
      "stateMutability": "nonpayable",
      "type": "function"
    },
    {
      "inputs": [
        {
          "internalType": "uint256",
          "name": "_trialId",
          "type": "uint256"
        }
      ],
      "name": "getMilestones",
      "outputs": [
        {
          "components": [
            {
              "internalType": "string",
              "name": "name",
              "type": "string"
            },
            {
              "internalType": "uint16",
              "name": "weightBps",
              "type": "uint16"
            },
            {
              "internalType": "uint256",
              "name": "deadline",
              "type": "uint256"
            }
          ],
          "internalType": "struct TrialMilestoneManager.Milestone[]",
          "name": "",
          "type": "tuple[]"
        }
      ],
      "stateMutability": "view",
      "type": "function"
    },
    {
      "inputs": [
        {
          "internalType": "uint256",
          "name": "_trialId",
          "type": "uint256"
        },
        {
          "internalType": "address",
          "name": "_patient",
          "type": "address"
        }
      ],
      "name": "getParticipantProgress",
      "outputs": [
        {
          "internalType": "uint256",
          "name": "",
          "type": "uint256"
        }
      ],
      "stateMutability": "view",
      "type": "function"
    },
    {
      "inputs": [],
      "name": "owner",
      "outputs": [
        {
          "internalType": "address",
          "name": "",
          "type": "address"
        }
      ],
      "stateMutability": "view",
      "type": "function"
    },
    {
      "inputs": [
        {
          "internalType": "uint256",
          "name": "",
          "type": "uint256"
        },
        {
          "internalType": "address",
          "name": "",
          "type": "address"
        }
      ],
      "name": "participantProgress",
      "outputs": [
        {
          "internalType": "uint256",
          "name": "",
          "type": "uint256"
        }
      ],
      "stateMutability": "view",
      "type": "function"
    },
    {
      "inputs": [
        {
          "internalType": "uint256",
          "name": "_trialId",
          "type": "uint256"
        },
        {
          "internalType": "string[]",
          "name": "_names",
          "type": "string[]"
        },
        {
          "internalType": "uint16[]",
          "name": "_weights",
          "type": "uint16[]"
        },
        {
          "internalType": "uint256[]",
          "name": "_deadlines",
          "type": "uint256[]"
        }
      ],
      "name": "setMilestones",
      "outputs": [],
      "stateMutability": "nonpayable",
      "type": "function"
    },
    {
      "inputs": [
        {
          "internalType": "address",
          "name": "_newTrialManager",
          "type": "address"
        }
      ],
      "name": "setTrialManager",
      "outputs": [],
      "stateMutability": "nonpayable",
      "type": "function"
    },
    {
      "inputs": [],
      "name": "trialManager",
      "outputs": [
        {
          "internalType": "contract TrialManager",
          "name": "",
          "type": "address"
        }
      ],
      "stateMutability": "view",
      "type": "function"
    }
  ],
  "bytecode": "0x608034607d57601f610e6d38819003918201601f19168301916001600160401b03831184841017608157808492602094604052833981010312607d57516001600160a01b03811690819003607d57600180546001600160a01b031990811633179091555f8054909116919091179055604051610dd790816100968239f35b5f80fd5b634e487b7160e01b5f52604160045260245ffdfe6080806040526004361015610012575f80fd5b5f3560e01c90816310e2a0ef146105a85750806342c549c0146103cf57806355f8cfdd146103a85780637c7b01b1146101cd5780638da5cb5b146101a55780639cc0dd48146101615780639ecd577d146101615763d60229ce14610074575f80fd5b3461015d57602036600319011261015d576004356001600160a01b0381169081900361015d576001546001600160a01b0316330361012b5780156100f4575f80546001600160a01b03198116831782556001600160a01b0316907f6138d219bf8146ffd8bb38b913ea1b87df130bed0d4c41f5cd93678e09a5d3939080a3005b60405162461bcd60e51b815260206004820152600f60248201526e496e76616c6964206164647265737360881b6044820152606490fd5b60405162461bcd60e51b815260206004820152600a60248201526927b7363c9037bbb732b960b11b6044820152606490fd5b5f80fd5b3461015d57604036600319011261015d5761017a610aa8565b6004355f52600360205260405f209060018060a01b03165f52602052602060405f2054604051908152f35b3461015d575f36600319011261015d576001546040516001600160a01b039091168152602090f35b3461015d57606036600319011261015d576004356101e9610aa8565b5f8054604051631a7f3c3360e01b8152600481018590526044359493929091829060249082906001600160a01b03165afa801561039d57610240915f9161037b575b50608001516001600160a01b03163314610d38565b815f52600260205260ff600160405f200154161561033e57815f52600260205260405f205483101561030957815f52600360205260405f2060018060a01b0382165f5260205260405f205415610304575b600183018084116102f0577f785f24b6a98eafa7fd61a09cf31775b7bbc039cc966c9c6fad18743e13a9e1ea91602091845f526003835260405f2060018060a01b0383165f52835260405f205560405194855260018060a01b031693a3005b634e487b7160e01b5f52601160045260245ffd5b610291565b60405162461bcd60e51b815260206004820152600d60248201526c092dcecc2d8d2c840d2dcc8caf609b1b6044820152606490fd5b60405162461bcd60e51b8152602060048201526015602482015274151c9a585b081b9bdd081a5b9a5d1a585b1a5e9959605a1b6044820152606490fd5b61039791503d805f833e61038f8183610ad9565b810190610b87565b8561022b565b6040513d5f823e3d90fd5b3461015d575f36600319011261015d575f546040516001600160a01b039091168152602090f35b3461015d57602036600319011261015d576004355f9081526002602052604090208054906001600160401b038211610594576040519161041560208260051b0184610ad9565b808352602083019081925f5260205f205f925b8284106104cb57848660405191829160208301906020845251809152604083019060408160051b85010192915f905b82821061046657505050500390f35b9193600191939550602060808192603f198a82030186528260408a518051606085528051938491826060880152018686015e5f85848601015261ffff86820151168685015201516040830152601f801991011601019601920192018594939192610457565b6040516104d781610abe565b6040515f84546104e681610d92565b8084529060018116908115610571575060011461053a575b5092600392826105146020946001970382610ad9565b815261ffff85870154168382015260028601546040820152815201920193019290610428565b5f868152602081209092505b81831061055b575050810160200160036104fe565b6001816020925483868801015201920191610546565b60ff191660208086019190915291151560051b84019091019150600390506104fe565b634e487b7160e01b5f52604160045260245ffd5b3461015d57608036600319011261015d576004356024356001600160401b03811161015d576105db903690600401610a78565b90926044356001600160401b03811161015d576105fc903690600401610a78565b94906064356001600160401b03811161015d5761061d903690600401610a78565b9490935f8160248160018060a01b03845416631a7f3c3360e01b82528b60048301525afa801561039d57610666915f91610a5e5750608001516001600160a01b03163314610d38565b855f52600260205260ff600160405f20015416610a235780151580610a18575b156109da57868114806109d1575b1561099a579436839003601e1901905f805b888210156108f25761ffff806106c56106c0858e8a610d73565b610d83565b1691160161ffff81116102f05790825f52600260205260405f208160051b8701358581121561015d5787018035906001600160401b03821161015d576020810192823603841361015d578a9161072c8f8e6107266106c08a8f948195610d73565b95610d73565b35936040519561073b87610abe565b61074482610afc565b926107526040519485610ad9565b828452602083369201011161015d57815f926020928386013783010152845261ffff602085019216825260408401928352805490600160401b82101561059457600182018082558210156108de575f52600360205f20910201925180519060018060401b038211610594576107c78554610d92565b601f8111610899575b50602090601f831160011461082e579180600294926001989796945f92610823575b50505f19600383901b1c191690871b1784555b61ffff86850191511661ffff198254161790555191015501906106a6565b015190505f806107f2565b90601f19831691865f52815f20925f5b81811061088157509260019897969491928993836002989610610869575b505050811b018455610805565b01515f1960f88460031b161c191690555f808061085c565b9293602060018192878601518155019501930161083e565b855f5260205f20601f840160051c810191602085106108d4575b601f0160051c01905b8181106108c957506107d0565b5f81556001016108bc565b90915081906108b3565b634e487b7160e01b5f52603260045260245ffd5b8861271061ffff859316036109475760207f2e9056f01b5d8ca8b767cc6ea4fe48ef23db5f57dbee3f3be6b52cbc4b75786991835f5260028252600160405f2001600160ff19825416179055604051908152a2005b60405162461bcd60e51b815260206004820152602560248201527f546f74616c20776569676874206d757374206265203130303030206270732028604482015264313030252960d81b6064820152608490fd5b60405162461bcd60e51b815260206004820152600f60248201526e098cadccee8d040dad2e6dac2e8c6d608b1b6044820152606490fd5b50848114610694565b60405162461bcd60e51b81526020600482015260166024820152750c4b4d081b5a5b195cdd1bdb995cc8185b1b1bddd95960521b6044820152606490fd5b506004811115610686565b60405162461bcd60e51b8152602060048201526013602482015272105b1c9958591e481a5b9a5d1a585b1a5e9959606a1b6044820152606490fd5b610a7291503d805f833e61038f8183610ad9565b8961022b565b9181601f8401121561015d578235916001600160401b03831161015d576020808501948460051b01011161015d57565b602435906001600160a01b038216820361015d57565b606081019081106001600160401b0382111761059457604052565b601f909101601f19168101906001600160401b0382119082101761059457604052565b6001600160401b03811161059457601f01601f191660200190565b81601f8201121561015d57805190610b2e82610afc565b92610b3c6040519485610ad9565b8284526020838301011161015d57815f9260208093018386015e8301015290565b5190811515820361015d57565b519060ff8216820361015d57565b519061ffff8216820361015d57565b60208183031261015d578051906001600160401b03821161015d57016102008183031261015d576040519161020083016001600160401b038111848210176105945760405281516001600160401b03811161015d5781610be8918401610b17565b835260208201516001600160401b03811161015d5781610c09918401610b17565b602084015260408201516001600160401b03811161015d5781610c2d918401610b17565b60408401526060820151906001600160401b03821161015d57610c51918301610b17565b60608301526080810151906001600160a01b038216820361015d576101e0916080840152610c8160a08201610b5d565b60a0840152610c9260c08201610b6a565b60c0840152610ca360e08201610b6a565b60e0840152610cb56101008201610b5d565b610100840152610cc86101208201610b78565b610120840152610cdb6101408201610b6a565b610140840152610cee6101608201610b6a565b610160840152610d016101808201610b78565b610180840152610d146101a08201610b5d565b6101a0840152610d276101c08201610b5d565b6101c084015201516101e082015290565b15610d3f57565b60405162461bcd60e51b815260206004820152600c60248201526b27b7363c9039b837b739b7b960a11b6044820152606490fd5b91908110156108de5760051b0190565b3561ffff8116810361015d5790565b90600182811c92168015610dc0575b6020831014610dac57565b634e487b7160e01b5f52602260045260245ffd5b91607f1691610da156fea164736f6c634300081b000a",
  "linkReferences": {},
  "deployedLinkReferences": {}
}