{
  "_format": "hh-sol-artifact-1",
  "contractName": "TrialMilestoneManager",
  "sourceName": "contracts/TrialMilestoneManager.sol",
  "abi": [
    {
      "inputs": [
        {
          "internalType": "address",
          "name": "_trialManager",
          "type": "address"
        }
      ],
      "stateMutability": "nonpayable",
      "type": "constructor"
    },
    {
      "inputs": [],
      "name": "ECDSAInvalidSignature",
      "type": "error"
    },
    {
      "inputs": [
        {
          "internalType": "uint256",
          "name": "length",
          "type": "uint256"
        }
      ],
      "name": "ECDSAInvalidSignatureLength",
      "type": "error"
    },
    {
      "inputs": [
        {
          "internalType": "bytes32",
          "name": "s",
          "type": "bytes32"
        }
      ],
      "name": "ECDSAInvalidSignatureS",
      "type": "error"
    },
    {
      "inputs": [],
      "name": "InvalidShortString",
      "type": "error"
    },
    {
      "inputs": [
        {
          "internalType": "string",
          "name": "str",
          "type": "string"
        }
      ],
      "name": "StringTooLong",
      "type": "error"
    },
    {
      "anonymous": false,
      "inputs": [],
      "name": "EIP712DomainChanged",
      "type": "event"
    },
    {
      "anonymous": false,
      "inputs": [
        {
          "indexed": true,
          "internalType": "uint256",
          "name": "trialId",
          "type": "uint256"
        },
        {
          "indexed": true,
          "internalType": "address",
          "name": "patient",
          "type": "address"
        },
        {
          "indexed": false,
          "internalType": "uint256",
          "name": "milestoneIndex",
          "type": "uint256"
        }
      ],
      "name": "MilestoneCompleted",
      "type": "event"
    },
    {
      "anonymous": false,
      "inputs": [
        {
          "indexed": true,
          "internalType": "uint256",
          "name": "trialId",
          "type": "uint256"
        },
        {
          "indexed": false,
          "internalType": "uint256",
          "name": "milestoneCount",
          "type": "uint256"
        }
      ],
      "name": "MilestonesSet",
      "type": "event"
    },
    {
      "anonymous": false,
      "inputs": [
        {
          "indexed": true,
          "internalType": "address",
          "name": "newOwner",
          "type": "address"
        }
      ],
      "name": "OwnershipAccepted",
      "type": "event"
    },
    {
      "anonymous": false,
      "inputs": [
        {
          "indexed": true,
          "internalType": "address",
          "name": "proposedOwner",
          "type": "address"
        }
      ],
      "name": "OwnershipProposed",
      "type": "event"
    },
    {
      "anonymous": false,
      "inputs": [
        {
          "indexed": true,
          "internalType": "address",
          "name": "oldManager",
          "type": "address"
        },
        {
          "indexed": true,
          "internalType": "address",
          "name": "newManager",
          "type": "address"
        }
      ],
      "name": "TrialManagerUpdated",
      "type": "event"
    },
    {
      "inputs": [],
      "name": "MILESTONE_COMPLETION_TYPEHASH",
      "outputs": [
        {
          "internalType": "bytes32",
          "name": "",
          "type": "bytes32"
        }
      ],
      "stateMutability": "view",
      "type": "function"
    },
    {
      "inputs": [],
      "name": "READER_CHANGE_DELAY",
      "outputs": [
        {
          "internalType": "uint256",
          "name": "",
          "type": "uint256"
        }
      ],
      "stateMutability": "view",
      "type": "function"
    },
    {
      "inputs": [],
      "name": "acceptOwnership",
      "outputs": [],
      "stateMutability": "nonpayable",
      "type": "function"
    },
    {
      "inputs": [],
      "name": "applyVault",
      "outputs": [],
      "stateMutability": "nonpayable",
      "type": "function"
    },
    {
      "inputs": [
        {
          "internalType": "uint256",
          "name": "_trialId",
          "type": "uint256"
        },
        {
          "internalType": "address",
          "name": "_patient",
          "type": "address"
        },
        {
          "internalType": "uint256",
          "name": "_milestoneIndex",
          "type": "uint256"
        },
        {
          "internalType": "uint256",
          "name": "_deadline",
          "type": "uint256"
        },
        {
          "internalType": "bytes",
          "name": "_patientSignature",
          "type": "bytes"
        }
      ],
      "name": "completeMilestone",
      "outputs": [],
      "stateMutability": "nonpayable",
      "type": "function"
    },
    {
      "inputs": [],
      "name": "dataAccessLog",
      "outputs": [
        {
          "internalType": "contract DataAccessLog",
          "name": "",
          "type": "address"
        }
      ],
      "stateMutability": "view",
      "type": "function"
    },
    {
      "inputs": [],
      "name": "eip712Domain",
      "outputs": [
        {
          "internalType": "bytes1",
          "name": "fields",
          "type": "bytes1"
        },
        {
          "internalType": "string",
          "name": "name",
          "type": "string"
        },
        {
          "internalType": "string",
          "name": "version",
          "type": "string"
        },
        {
          "internalType": "uint256",
          "name": "chainId",
          "type": "uint256"
        },
        {
          "internalType": "address",
          "name": "verifyingContract",
          "type": "address"
        },
        {
          "internalType": "bytes32",
          "name": "salt",
          "type": "bytes32"
        },
        {
          "internalType": "uint256[]",
          "name": "extensions",
          "type": "uint256[]"
        }
      ],
      "stateMutability": "view",
      "type": "function"
    },
    {
      "inputs": [
        {
          "internalType": "uint256",
          "name": "_trialId",
          "type": "uint256"
        }
      ],
      "name": "getMilestones",
      "outputs": [
        {
          "components": [
            {
              "internalType": "string",
              "name": "name",
              "type": "string"
            },
            {
              "internalType": "uint16",
              "name": "weightBps",
              "type": "uint16"
            },
            {
              "internalType": "uint256",
              "name": "deadline",
              "type": "uint256"
            }
          ],
          "internalType": "struct TrialMilestoneManager.Milestone[]",
          "name": "",
          "type": "tuple[]"
        }
      ],
      "stateMutability": "view",
      "type": "function"
    },
    {
      "inputs": [
        {
          "internalType": "uint256",
          "name": "_trialId",
          "type": "uint256"
        },
        {
          "internalType": "address",
          "name": "_patient",
          "type": "address"
        }
      ],
      "name": "getParticipantProgress",
      "outputs": [
        {
          "internalType": "uint256",
          "name": "",
          "type": "uint256"
        }
      ],
      "stateMutability": "view",
      "type": "function"
    },
    {
      "inputs": [
        {
          "internalType": "address",
          "name": "",
          "type": "address"
        }
      ],
      "name": "milestoneCompletionNonce",
      "outputs": [
        {
          "internalType": "uint256",
          "name": "",
          "type": "uint256"
        }
      ],
      "stateMutability": "view",
      "type": "function"
    },
    {
      "inputs": [],
      "name": "owner",
      "outputs": [
        {
          "internalType": "address",
          "name": "",
          "type": "address"
        }
      ],
      "stateMutability": "view",
      "type": "function"
    },
    {
      "inputs": [
        {
          "internalType": "uint256",
          "name": "",
          "type": "uint256"
        },
        {
          "internalType": "address",
          "name": "",
          "type": "address"
        }
      ],
      "name": "participantProgress",
      "outputs": [
        {
          "internalType": "uint256",
          "name": "",
          "type": "uint256"
        }
      ],
      "stateMutability": "view",
      "type": "function"
    },
    {
      "inputs": [],
      "name": "pendingOwner",
      "outputs": [
        {
          "internalType": "address",
          "name": "",
          "type": "address"
        }
      ],
      "stateMutability": "view",
      "type": "function"
    },
    {
      "inputs": [],
      "name": "pendingVault",
      "outputs": [
        {
          "internalType": "address",
          "name": "",
          "type": "address"
        }
      ],
      "stateMutability": "view",
      "type": "function"
    },
    {
      "inputs": [
        {
          "internalType": "address",
          "name": "_newOwner",
          "type": "address"
        }
      ],
      "name": "proposeOwnership",
      "outputs": [],
      "stateMutability": "nonpayable",
      "type": "function"
    },
    {
      "inputs": [
        {
          "internalType": "address",
          "name": "_vault",
          "type": "address"
        }
      ],
      "name": "scheduleVault",
      "outputs": [],
      "stateMutability": "nonpayable",
      "type": "function"
    },
    {
      "inputs": [
        {
          "internalType": "address",
          "name": "_log",
          "type": "address"
        }
      ],
      "name": "setDataAccessLog",
      "outputs": [],
      "stateMutability": "nonpayable",
      "type": "function"
    },
    {
      "inputs": [
        {
          "internalType": "uint256",
          "name": "_trialId",
          "type": "uint256"
        },
        {
          "internalType": "string[]",
          "name": "_names",
          "type": "string[]"
        },
        {
          "internalType": "uint16[]",
          "name": "_weights",
          "type": "uint16[]"
        },
        {
          "internalType": "uint256[]",
          "name": "_deadlines",
          "type": "uint256[]"
        }
      ],
      "name": "setMilestones",
      "outputs": [],
      "stateMutability": "nonpayable",
      "type": "function"
    },
    {
      "inputs": [
        {
          "internalType": "uint256",
          "name": "_trialId",
          "type": "uint256"
        },
        {
          "internalType": "address",
          "name": "_sponsor",
          "type": "address"
        },
        {
          "internalType": "string[]",
          "name": "_names",
          "type": "string[]"
        },
        {
          "internalType": "uint16[]",
          "name": "_weights",
          "type": "uint16[]"
        },
        {
          "internalType": "uint256[]",
          "name": "_deadlines",
          "type": "uint256[]"
        }
      ],
      "name": "setMilestonesFromVault",
      "outputs": [],
      "stateMutability": "nonpayable",
      "type": "function"
    },
    {
      "inputs": [
        {
          "internalType": "address",
          "name": "",
          "type": "address"
        }
      ],
      "name": "setTrialManager",
      "outputs": [],
      "stateMutability": "pure",
      "type": "function"
    },
    {
      "inputs": [
        {
          "internalType": "address",
          "name": "_vault",
          "type": "address"
        }
      ],
      "name": "setVault",
      "outputs": [],
      "stateMutability": "nonpayable",
      "type": "function"
    },
    {
      "inputs": [],
      "name": "trialManager",
      "outputs": [
        {
          "internalType": "contract TrialManager",
          "name": "",
          "type": "address"
        }
      ],
      "stateMutability": "view",
      "type": "function"
    },
    {
      "inputs": [],
      "name": "vault",
      "outputs": [
        {
          "internalType": "contract ISponsorIncentiveVault",
          "name": "",
          "type": "address"
        }
      ],
      "stateMutability": "view",
      "type": "function"
    },
    {
      "inputs": [],
      "name": "vaultChangeEta",
      "outputs": [
        {
          "internalType": "uint256",
          "name": "",
          "type": "uint256"
        }
      ],
      "stateMutability": "view",
      "type": "function"
    }
  ],
  "bytecode": "0x61018080604052346101ac5760208161254b803803809161002082856101b0565b8339810103126101ac57516001600160a01b038116908190036101ac5760405161004b6040826101b0565b601e815260208101907f4d65645661756c7420547269616c4d696c6573746f6e654d616e6167657200008252604051916100866040846101b0565b600183526020830191603160f81b835261009f816101e7565b610120526100ac8461037d565b61014052519020918260e05251902080610100524660a0526040519060208201927f8b73c3c69bb8fe3d512ecc4cf759cc79239f7b179b0ffacaa9a75d522b39400f8452604083015260608201524660808201523060a082015260a0815261011560c0826101b0565b5190206080523060c052600480546001600160a01b031916331790556101605260405161209590816104b6823960805181611dcd015260a05181611e8a015260c05181611d97015260e05181611e1c01526101005181611e4201526101205181610585015261014051816105af01526101605181818161039e0152818161088801528181610aa0015281816110e301526116fd0152f35b5f80fd5b601f909101601f19168101906001600160401b038211908210176101d357604052565b634e487b7160e01b5f52604160045260245ffd5b908151602081105f14610261575090601f815111610221576020815191015160208210610212571790565b5f198260200360031b1b161790565b604460209160405192839163305a27a960e01b83528160048401528051918291826024860152018484015e5f828201840152601f01601f19168101030190fd5b6001600160401b0381116101d3575f54600181811c91168015610373575b602082101461035f57601f811161032d575b50602092601f82116001146102ce57928192935f926102c3575b50508160011b915f199060031b1c1916175f5560ff90565b015190505f806102ab565b601f198216935f8052805f20915f5b86811061031557508360019596106102fd575b505050811b015f5560ff90565b01515f1960f88460031b161c191690555f80806102f0565b919260206001819286850151815501940192016102dd565b5f8052601f60205f20910160051c810190601f830160051c015b8181106103545750610291565b5f8155600101610347565b634e487b7160e01b5f52602260045260245ffd5b90607f169061027f565b908151602081105f146103a8575090601f815111610221576020815191015160208210610212571790565b6001600160401b0381116101d357600154600181811c911680156104ab575b602082101461035f57601f8111610478575b50602092601f821160011461041757928192935f9261040c575b50508160011b915f199060031b1c19161760015560ff90565b015190505f806103f3565b601f1982169360015f52805f20915f5b8681106104605750836001959610610448575b505050811b0160015560ff90565b01515f1960f88460031b161c191690555f808061043a565b91926020600181928685015181550194019201610427565b60015f52601f60205f20910160051c810190601f830160051c015b8181106104a057506103d9565b5f8155600101610493565b90607f16906103c756fe6080806040526004361015610012575f80fd5b5f905f3560e01c90816307982309146111585750806310e2a0ef1461104f57806323738e34146110335780633971c30814610a2957806342c549c0146108e057806352113ba7146108b757806355f8cfdd146108725780635b47c66d146107f95780636817031b14610784578063710bf3221461070857806379ba50971461066757806384b0196e1461056b5780638da5cb5b146105425780639cc0dd48146104fd5780639ecd577d146104fd578063a57f41a9146104d5578063abc3badc1461049c578063ac797205146102ee578063d60229ce14610292578063d93f2445146101ea578063e30c3978146101c1578063f520f24f1461016f578063fbfa77cf146101465763fff1ef1f14610126575f80fd5b346101435780600319360112610143576020600754604051908152f35b80fd5b50346101435780600319360112610143576002546040516001600160a01b039091168152602090f35b5034610143576020366003190112610143576101896111c1565b61019e60018060a01b0360045416331461163c565b600380546001600160a01b0319166001600160a01b039290921691909117905580f35b50346101435780600319360112610143576005546040516001600160a01b039091168152602090f35b503461014357806003193601126101435761021060018060a01b0360045416331461163c565b6007548015159081610287575b50156102505760068054600280546001600160a01b03199081166001600160a01b03841617909155600784905516905580f35b60405162461bcd60e51b815260206004820152600f60248201526e54696d656c6f636b2061637469766560881b6044820152606490fd5b90504210155f61021d565b5034610143576020366003190112610143576102ac6111c1565b5060405162461bcd60e51b8152602060048201526019602482015278547269616c4d616e6167657220697320696d6d757461626c6560381b6044820152606490fd5b50346101435760a03660031901126101435760043561030b6111ab565b6044356001600160401b0381116104985761032a90369060040161117b565b9091906064356001600160401b0381116104945761034c90369060040161117b565b916084356001600160401b0381116104905761036c90369060040161117b565b60025490969195906001600160a01b0316330361045e57604051631a7f3c3360e01b81526004810189905289816024817f00000000000000000000000000000000000000000000000000000000000000006001600160a01b03165afa908115610453578a91610431575b50608001516001600160a01b039081169116036103f9576103f6966116cf565b80f35b60405162461bcd60e51b815260206004820152601060248201526f0a6e0dedce6dee440dad2e6dac2e8c6d60831b6044820152606490fd5b61044d91503d808c833e610445818361122a565b8101906112d8565b5f6103d6565b6040513d8c823e3d90fd5b60405162461bcd60e51b815260206004820152600a60248201526913db9b1e481d985d5b1d60b21b6044820152606490fd5b8780fd5b8580fd5b8380fd5b5034610143576020366003190112610143576020906040906001600160a01b036104c46111c1565b168152600883522054604051908152f35b503461014357806003193601126101435760206040515f5160206120695f395f51905f528152f35b50346101435760403660031901126101435760406105196111ab565b916004358152600a602052209060018060a01b03165f52602052602060405f2054604051908152f35b50346101435780600319360112610143576004546040516001600160a01b039091168152602090f35b503461014357806003193601126101435761060b906105a97f0000000000000000000000000000000000000000000000000000000000000000611f5e565b906105d37f0000000000000000000000000000000000000000000000000000000000000000611fb9565b906020610619604051936105e7838661122a565b8385525f368137604051968796600f60f81b885260e08589015260e08801906111d7565b9086820360408801526111d7565b904660608601523060808601528260a086015284820360c08601528080855193848152019401925b82811061065057505050500390f35b835185528695509381019392810192600101610641565b50346101435780600319360112610143576005546001600160a01b03811690338290036106ce57600480546001600160a01b03199081168417909155166005557fb27970c1714b28277b78cc17ac2fe9556e7f048cd48358cffe3dc7d547608fdc8280a280f35b60405162461bcd60e51b81526020600482015260126024820152712737ba10383937b837b9b2b21037bbb732b960711b6044820152606490fd5b5034610143576020366003190112610143576107226111c1565b61073760018060a01b0360045416331461163c565b6001600160a01b031661074b811515611675565b600580546001600160a01b031916821790557f6ab4d119f23076e8ad491bc65ce85f017fb0591dce08755ba8591059cc51737a8280a280f35b50346101435760203660031901126101435761079e6111c1565b506107b460018060a01b0360045416331461163c565b60405162461bcd60e51b815260206004820152601e60248201527f557365207363686564756c655661756c74202b206170706c795661756c7400006044820152606490fd5b5034610143576020366003190112610143576108136111c1565b61082860018060a01b0360045416331461163c565b6001600160a01b031661083c811515611675565b60018060a01b03196006541617600655615460420180421161085e5760075580f35b634e487b7160e01b82526011600452602482fd5b50346101435780600319360112610143576040517f00000000000000000000000000000000000000000000000000000000000000006001600160a01b03168152602090f35b50346101435780600319360112610143576006546040516001600160a01b039091168152602090f35b503461014357602036600319011261014357600435815260096020526040812080546001600160401b038111610a155760208160051b0190610925604051928361122a565b80825260208201809385526020852085915b8383106109c457868587604051928392602084019060208552518091526040840160408260051b8601019392905b82821061097457505050500390f35b919360019193955060208091603f198982030185528751906040806109a284516060855260608501906111d7565b9361ffff86820151168685015201519101529601920192018594939192610965565b600360206001926040516109d7816111fb565b6040516109ef816109e8818a6115bb565b038261122a565b815261ffff85870154168382015260028601546040820152815201920192019190610937565b634e487b7160e01b83526041600452602483fd5b5034610d875760a0366003190112610d8757600435610a466111ab565b60843590604435906064356001600160401b038411610d875736602385011215610d87576004840135906001600160401b038211610d87573660248387010111610d8757604051631a7f3c3360e01b8152600481018790527f00000000000000000000000000000000000000000000000000000000000000006001600160a01b031692905f81602481875afa8015610d7c57610af8915f91611019575b50608001516001600160a01b0316331461149c565b814211610fd657610b9e610ba791610b988998604260018060a01b0389169b8c97885f52600860205260405f2054906040519160208301935f5160206120695f395f51905f52855260408401528a60608401528d608084015260a083015260c082015260c08152610b6a60e08261122a565b519020610b75611d94565b906040519161190160f01b835260028301526022820152209260243692016114d7565b90611eb0565b90929192611eea565b6001600160a01b031603610f9557845f52600860205260405f2080545f198114610d8b576001019055835f52600960205260ff600160405f2001541615610f5857835f52600960205260405f2054831015610f2357602060249160405192838092635419390d60e11b82528860048301525afa8015610d7c575f90610ee8575b610c31915061150d565b825f5260096020526002610c488360405f20611556565b5001544211610ea7576002546001600160a01b03168015159081610e32575b5015610dee57825f52600a60205260405f20845f5260205260405f20548203610d9f5760018201808311610d8b57835f52600a60205260405f20855f5260205260405f205560018060a01b03600354169081610cee575b505060207f785f24b6a98eafa7fd61a09cf31775b7bbc039cc966c9c6fad18743e13a9e1ea91604051908152a380f35b604051602081019160018060601b03199060601b16825283603482015242605482015260548152610d2060748261122a565b519020813b15610d87575f916064839260405194859384926306cc173360e41b845260048085015289602485015260448401525af18015610d7c57610d66575b80610cbe565b610d739194505f9061122a565b5f926020610d60565b6040513d5f823e3d90fd5b5f80fd5b634e487b7160e01b5f52601160045260245ffd5b60405162461bcd60e51b815260206004820152602160248201527f4d75737420636f6d706c657465206d696c6573746f6e657320696e206f7264656044820152603960f91b6064820152608490fd5b60405162461bcd60e51b815260206004820152601c60248201527b139bdd0818481c9959da5cdd195c9959081c185c9d1a58da5c185b9d60221b6044820152606490fd5b604491506020906040519283809263cb84e53760e01b82528860048301528960248301525afa908115610d7c575f91610e6d575b505f610c67565b90506020813d602011610e9f575b81610e886020938361122a565b81010312610d8757610e99906112ae565b5f610e66565b3d9150610e7b565b60405162461bcd60e51b8152602060048201526019602482015278135a5b195cdd1bdb9948191958591b1a5b99481c185cdcd959603a1b6044820152606490fd5b506020813d602011610f1b575b81610f026020938361122a565b81010312610d8757610f16610c31916112ae565b610c27565b3d9150610ef5565b60405162461bcd60e51b815260206004820152600d60248201526c092dcecc2d8d2c840d2dcc8caf609b1b6044820152606490fd5b60405162461bcd60e51b8152602060048201526015602482015274151c9a585b081b9bdd081a5b9a5d1a585b1a5e9959605a1b6044820152606490fd5b60405162461bcd60e51b8152602060048201526019602482015278496e76616c69642070617469656e74207369676e617475726560381b6044820152606490fd5b60405162461bcd60e51b815260206004820152601b60248201527a135a5b195cdd1bdb99481cda59db985d1d5c9948195e1c1a5c9959602a1b6044820152606490fd5b61102d91503d805f833e610445818361122a565b5f610ae3565b34610d87575f366003190112610d875760206040516154608152f35b34610d87576080366003190112610d87576004356024356001600160401b038111610d875761108290369060040161117b565b906044356001600160401b038111610d87576110a290369060040161117b565b906064356001600160401b038111610d87576110c290369060040161117b565b604051631a7f3c3360e01b8152600481018890529690959194905f886024817f00000000000000000000000000000000000000000000000000000000000000006001600160a01b03165afa978815610d7c5761113c98611137915f9161113e5750608001516001600160a01b0316331461149c565b6116cf565b005b61115291503d805f833e610445818361122a565b8a610ae3565b34610d87575f366003190112610d87576003546001600160a01b03168152602090f35b9181601f84011215610d87578235916001600160401b038311610d87576020808501948460051b010111610d8757565b602435906001600160a01b0382168203610d8757565b600435906001600160a01b0382168203610d8757565b805180835260209291819084018484015e5f828201840152601f01601f1916010190565b606081019081106001600160401b0382111761121657604052565b634e487b7160e01b5f52604160045260245ffd5b601f909101601f19168101906001600160401b0382119082101761121657604052565b6001600160401b03811161121657601f01601f191660200190565b81601f82011215610d875780519061127f8261124d565b9261128d604051948561122a565b82845260208383010111610d8757815f9260208093018386015e8301015290565b51908115158203610d8757565b519060ff82168203610d8757565b519061ffff82168203610d8757565b602081830312610d87578051906001600160401b038211610d87570161022081830312610d87576040519161022083016001600160401b038111848210176112165760405281516001600160401b038111610d875781611339918401611268565b835260208201516001600160401b038111610d87578161135a918401611268565b602084015260408201516001600160401b038111610d87578161137e918401611268565b60408401526060820151906001600160401b038211610d87576113a2918301611268565b606083015260808101516001600160a01b0381168103610d8757611493916102009160808501526113d560a082016112ae565b60a08501526113e660c082016112bb565b60c08501526113f760e082016112bb565b60e085015261140961010082016112ae565b61010085015261141c61012082016112c9565b61012085015261142f61014082016112bb565b61014085015261144261016082016112bb565b61016085015261145561018082016112c9565b6101808501526114686101a082016112ae565b6101a085015261147b6101c082016112ae565b6101c08501526101e08101516101e0850152016112ae565b61020082015290565b156114a357565b60405162461bcd60e51b815260206004820152600c60248201526b27b7363c9039b837b739b7b960a11b6044820152606490fd5b9291926114e38261124d565b916114f1604051938461122a565b829481845281830111610d87578281602093845f960137010152565b1561151457565b60405162461bcd60e51b815260206004820152601a60248201527914dc1bdb9cdbdc881b9bc81b1bdb99d95c881d995c9a599a595960321b6044820152606490fd5b805482101561156f575f52600360205f20910201905f90565b634e487b7160e01b5f52603260045260245ffd5b90600182811c921680156115b1575b602083101461159d57565b634e487b7160e01b5f52602260045260245ffd5b91607f1691611592565b5f92918154916115ca83611583565b808352926001811690811561161f57506001146115e657505050565b5f9081526020812093945091925b838310611605575060209250010190565b6001816020929493945483858701015201910191906115f4565b915050602093945060ff929192191683830152151560051b010190565b1561164357565b60405162461bcd60e51b815260206004820152600a60248201526927b7363c9037bbb732b960b11b6044820152606490fd5b1561167c57565b60405162461bcd60e51b815260206004820152600c60248201526b5a65726f206164647265737360a01b6044820152606490fd5b919081101561156f5760051b0190565b3561ffff81168103610d875790565b909294939695919560018060a01b036002541615611d5857604051631a7f3c3360e01b8152600481018390527f00000000000000000000000000000000000000000000000000000000000000006001600160a01b0316905f81602481855afa8015610d7c576101e0915f91611d3e575b50015115611d0257825f52600960205260ff600160405f20015416611cc75787151580611cbc575b15611c7e5788881480611c75575b15611c3e57604051635419390d60e11b815260048101849052602081602481855afa908115610d7c575f91611bfa575b506024916117b35f9261150d565b60405192838092631a7f3c3360e01b82528760048301525afa908115610d7c575f91611be0575b505f5b848110611ab65750505f905f915b88831015611a0a5761ffff611809611804858d8c6116b0565b6116c0565b168101809111610d8b5791835f52600960205260405f208160051b870135601e1988360301811215610d87578701803591906001600160401b038311610d8757602001908236038213610d8757899061188c6118768f8b8f6118048a8094611870936116b0565b956116b0565b359360405195611885876111fb565b36916114d7565b845261ffff6020850192168252604084019283528054600160401b811015611216576118bd91600182018155611556565b9390936119f757518051906001600160401b038211611216576118e08554611583565b601f81116119b2575b50602090601f8311600114611947579180600294926001989796945f9261193c575b50505f19600383901b1c191690871b1784555b61ffff86850191511661ffff198254161790555191015501916117eb565b015190505f8061190b565b90601f19831691865f52815f20925f5b81811061199a57509260019897969491928993836002989610611982575b505050811b01845561191e565b01515f1960f88460031b161c191690555f8080611975565b92936020600181928786015181550195019301611957565b855f5260205f20601f840160051c810191602085106119ed575b601f0160051c01905b8181106119e257506118e9565b5f81556001016119d5565b90915081906119cc565b634e487b7160e01b5f525f60045260245ffd5b945097505094935050612710915003611a635760207f2e9056f01b5d8ca8b767cc6ea4fe48ef23db5f57dbee3f3be6b52cbc4b75786991835f5260098252600160405f2001600160ff19825416179055604051908152a2565b60405162461bcd60e51b815260206004820152602560248201527f546f74616c20776569676874206d757374206265203130303030206270732028604482015264313030252960d81b6064820152608490fd5b42611ac282878a6116b0565b351115611b9e57611ad48186896116b0565b356101e083015110611b5a5780611aee575b6001016117dd565b611af98186896116b0565b355f198201828111610d8b57611b1090878a6116b0565b3510611ae65760405162461bcd60e51b815260206004820152601c60248201527b111958591b1a5b995cc81b5d5cdd081899481cd95c5d595b9d1a585b60221b6044820152606490fd5b606460405162461bcd60e51b815260206004820152602060248201527f446561646c696e652063616e6e6f742065786365656420747269616c20656e646044820152fd5b60405162461bcd60e51b815260206004820152601a602482015279446561646c696e65206d75737420626520696e2066757475726560301b6044820152606490fd5b611bf491503d805f833e610445818361122a565b5f6117da565b90506020813d602011611c36575b81611c156020938361122a565b81010312610d87576024916117b3611c2d5f936112ae565b925050916117a5565b3d9150611c08565b60405162461bcd60e51b815260206004820152600f60248201526e098cadccee8d040dad2e6dac2e8c6d608b1b6044820152606490fd5b50838814611775565b60405162461bcd60e51b81526020600482015260166024820152750c4b4d081b5a5b195cdd1bdb995cc8185b1b1bddd95960521b6044820152606490fd5b506004881115611767565b60405162461bcd60e51b8152602060048201526013602482015272105b1c9958591e481a5b9a5d1a585b1a5e9959606a1b6044820152606490fd5b60405162461bcd60e51b8152602060048201526014602482015273151c9a585b08191bd95cc81b9bdd08195e1a5cdd60621b6044820152606490fd5b611d5291503d805f833e610445818361122a565b5f61173f565b60405162461bcd60e51b815260206004820152601460248201527315985d5b1d081b9bdd0818dbdb999a59dd5c995960621b6044820152606490fd5b307f00000000000000000000000000000000000000000000000000000000000000006001600160a01b03161480611e87575b15611def577f000000000000000000000000000000000000000000000000000000000000000090565b60405160208101907f8b73c3c69bb8fe3d512ecc4cf759cc79239f7b179b0ffacaa9a75d522b39400f82527f000000000000000000000000000000000000000000000000000000000000000060408201527f000000000000000000000000000000000000000000000000000000000000000060608201524660808201523060a082015260a08152611e8160c08261122a565b51902090565b507f00000000000000000000000000000000000000000000000000000000000000004614611dc6565b8151919060418303611ee057611ed99250602082015190606060408401519301515f1a90611ff0565b9192909190565b50505f9160029190565b6004811015611f4a5780611efc575050565b60018103611f135763f645eedf60e01b5f5260045ffd5b60028103611f2e575063fce698f760e01b5f5260045260245ffd5b600314611f385750565b6335e2f38360e21b5f5260045260245ffd5b634e487b7160e01b5f52602160045260245ffd5b60ff8114611fa45760ff811690601f8211611f955760405191611f8260408461122a565b6020808452838101919036833783525290565b632cd44ac360e21b5f5260045ffd5b50604051611fb6816109e8815f6115bb565b90565b60ff8114611fdd5760ff811690601f8211611f955760405191611f8260408461122a565b50604051611fb6816109e88160016115bb565b91906fa2a8918ca85bafe22016d0b997e4df60600160ff1b03841161205d579160209360809260ff5f9560405194855216868401526040830152606082015282805260015afa15610d7c575f516001600160a01b0381161561205357905f905f90565b505f906001905f90565b5050505f916003919056fe63e3b125b5d99fb27d3bbd3bc66ba30deebbea43bb9ed15288f7fab86b139a5ca164736f6c634300081b000a",
  "linkReferences": {},
  "deployedLinkReferences": {}
}